02RETORNO01COBRANCA       00000000000004852239ISPCN ADM DE COBRANCA DE TITUL237BRADESCO       0103190160000000596                                                                                                                                                                                                                                                                          060319         000001
102122445950001000000009034510032549PREGTIT29233327314149     000000000000579011630000000000000000000000000902010319000579011600000000000057901163300419000000002700023704151  000000000014300000000000000000000000000000000000000000000000000000000000000000000000000000000000000000000000000000000                          0000000000                                                                  000002
102122445950001000000009034510032549PREGTIT29233426814095     000000000000584133910000000000000000000000000902010319000584133900000000000058413391300419000000001166723703451  000000000014300000000000000000000000000000000000000000000000000000000000000000000000000000000000000000000000000000000                          0000000000                                                                  000003
102122445950001000000009034510032549PREGTIT29232450840100     000000000000584576070000000000000000000000000902010319000584576000000000000058457607300419000000004000023704602  000000000014300000000000000000000000000000000000000000000000000000000000000000000000000000000000000000000000000000000                          0000000000                                                                  000004
102122445950001000000009034510032549PREGTIT29239676475057     000000000000589782750000000000000000000000000902010319000589782700000000000058978275300419000000002500023703109  000000000014300000000000000000000000000000000000000000000000000000000000000000000000000000000000000000000000000000000                          0000000000                                                                  000005
102122445950001000000009034510032549PREGTIT29238255451888     000000000000590995260000000000000000000000000902010319000590995200000000000059099526300419000000003000023704151  000000000014300000000000000000000000000000000000000000000000000000000000000000000000000000000000000000000000000000000                          0000000000                                                                  000006
102122445950001000000009034510032549PREGTIT29236504578553     000000000000591106350000000000000000000000000902010319000591106300000000000059110635300419000000001200023703451  000000000014300000000000000000000000000000000000000000000000000000000000000000000000000000000000000000000000000000000                          0000000000                                                                  000007
102122445950001000000009034510032549PREGTIT29233689879903     000000000000591113560000000000000000000000000902010319000591113500000000000059111356300419000000001666723704151  000000000014300000000000000000000000000000000000000000000000000000000000000000000000000000000000000000000000000000000                          0000000000                                                                  000008
102122445950001000000009034510032549PREGTIT29237593345174     000000000000591826440000000000000000000000000902010319000591826400000000000059182644300419000000002800023704151  000000000014300000000000000000000000000000000000000000000000000000000000000000000000000000000000000000000000000000000                          0000000000                                                                  000009
102122445950001000000009034510032549PREGTIT29235804918536     000000000000591834970000000000000000000000000902010319000591834900000000000059183497300419000000003500023704151  000000000014300000000000000000000000000000000000000000000000000000000000000000000000000000000000000000000000000000000                          0000000000                                                                  000010
102122445950001000000009034510032549PREGTIT29236621207797     000000000000591925770000000000000000000000000902010319000591925700000000000059192577300419000000003000023704151  000000000014300000000000000000000000000000000000000000000000000000000000000000000000000000000000000000000000000000000                          0000000000                                                                  000011
102122445950001000000009034510032549PREGTIT29237659542001     000000000000591942860000000000000000000000000902010319000591942800000000000059194286300419000000000540023704144  000000000014300000000000000000000000000000000000000000000000000000000000000000000000000000000000000000000000000000000                          0000000000                                                                  000012
102122445950001000000009034510032549PREGTIT29236391371749     000000000000592002270000000000000000000000000902010319000592002200000000000059200227300419000000001300023703451  000000000014300000000000000000000000000000000000000000000000000000000000000000000000000000000000000000000000000000000                          0000000000                                                                  000013
102122445950001000000009034510032549PREGTIT29236180200382     000000000000592098280000000000000000000000000902010319000592098200000000000059209828300419000000003400023704152  000000000014300000000000000000000000000000000000000000000000000000000000000000000000000000000000000000000000000000000                          0000000000                                                                  000014
102122445950001000000009034510032549PREGTIT29235916797742     000000000000592721550000000000000000000000000902010319000592721500000000000059272155300419000000000550023703451  000000000014300000000000000000000000000000000000000000000000000000000000000000000000000000000000000000000000000000000                          0000000000                                                                  000015
102122445950001000000009034510032549PREGTIT29236967431166     000000000000592775990000000000000000000000000902010319000592775900000000000059277599300419000000001150023703451  000000000014300000000000000000000000000000000000000000000000000000000000000000000000000000000000000000000000000000000                          0000000000                                                                  000016
102122445950001000000009034510032549PREGTIT29234911202084     000000000000592798770000000000000000000000000902010319000592798700000000000059279877300419000000001500023704159  000000000014300000000000000000000000000000000000000000000000000000000000000000000000000000000000000000000000000000000                          7600000000                                                                  000017
102122445950001000000009034510032549PREGTIT29236824625726     000000000000592810570000000000000000000000000902010319000592810500000000000059281057300419000000000837523703451  000000000014300000000000000000000000000000000000000000000000000000000000000000000000000000000000000000000000000000000                          0000000000                                                                  000018
102122445950001000000009034510032549PREGTIT29239602985924     000000000000592811890000000000000000000000000902010319000592811800000000000059281189300419000000004500023704151  000000000014300000000000000000000000000000000000000000000000000000000000000000000000000000000000000000000000000000000                          0000000000                                                                  000019
102122445950001000000009034510032549PREGTIT29237517110370     000000000000592953090000000000000000000000000902010319000592953000000000000059295309300419000000001000023703451  000000000014300000000000000000000000000000000000000000000000000000000000000000000000000000000000000000000000000000000                          0000000000                                                                  000020
102122445950001000000009034510032549PREGTIT29235647784281     000000000000592978670000000000000000000000000902010319000592978600000000000059297867300419000000000850023703451  000000000014300000000000000000000000000000000000000000000000000000000000000000000000000000000000000000000000000000000                          0000000000                                                                  000021
102122445950001000000009034510032549PREGTIT29237779890994     000000000000592986260000000000000000000000000902010319000592986200000000000059298626300419000000001270023703451  000000000014300000000000000000000000000000000000000000000000000000000000000000000000000000000000000000000000000000000                          0000000000                                                                  000022
102122445950001000000009034510032549PREGTIT29234480560541     000000000000593011550000000000000000000000000902010319000593011500000000000059301155300419000000000700023703451  000000000014300000000000000000000000000000000000000000000000000000000000000000000000000000000000000000000000000000000                          0000000000                                                                  000023
102122445950001000000009034510032549PREGTIT29237942740383     000000000000593030260000000000000000000000000902010319000593030200000000000059303026300419000000000600023703451  000000000014300000000000000000000000000000000000000000000000000000000000000000000000000000000000000000000000000000000                          0000000000                                                                  000024
102122445950001000000009034510032549PREGTIT29232032830644     000000000000593048550000000000000000000000000902010319000593048500000000000059304855300419000000000900023703451  000000000014300000000000000000000000000000000000000000000000000000000000000000000000000000000000000000000000000000000                          0000000000                                                                  000025
102122445950001000000009034510032549PREGTIT29233171776611     000000000000593079190000000000000000000000000902010319000593079100000000000059307919300419000000001050023703451  000000000014300000000000000000000000000000000000000000000000000000000000000000000000000000000000000000000000000000000                          0000000000                                                                  000026
102122445950001000000009034510032549PREGTIT29234131266251     000000000000593837710000000000000000000000000902010319000593837700000000000059383771300419000000001940023704151  000000000014300000000000000000000000000000000000000000000000000000000000000000000000000000000000000000000000000000000                          0000000000                                                                  000027
102122445950001000000009034510032549PREGTIT29239643628170     000000000000593900500000000000000000000000000902010319000593900500000000000059390050300419000000000662523703451  000000000014300000000000000000000000000000000000000000000000000000000000000000000000000000000000000000000000000000000                          0000000000                                                                  000028
102122445950001000000009034510032549PREGTIT29233181852569     000000000000593915960000000000000000000000000902010319000593915900000000000059391596300419000000000937523703451  000000000014300000000000000000000000000000000000000000000000000000000000000000000000000000000000000000000000000000000                          0000000000                                                                  000029
102122445950001000000009034510032549PREGTIT29236798779798     000000000000593930680000000000000000000000000902010319000593930600000000000059393068300419000000000950023703451  000000000014300000000000000000000000000000000000000000000000000000000000000000000000000000000000000000000000000000000                          7600000000                                                                  000030
102122445950001000000009034510032549PREGTIT29239662440969     000000000000594037130000000000000000000000000902010319000594037100000000000059403713300419000000006000023700073  000000000014300000000000000000000000000000000000000000000000000000000000000000000000000000000000000000000000000000000                          0000000000                                                                  000031
102122445950001000000009034510032549PREGTIT29238289845196     000000000000594067120000000000000000000000000902010319000594067100000000000059406712300419000000001000023703451  000000000014300000000000000000000000000000000000000000000000000000000000000000000000000000000000000000000000000000000                          0000000000                                                                  000032
102122445950001000000009034510032549PREGTIT29237706828713     000000000000594824940000000000000000000000000902010319000594824900000000000059482494300419000000001500023704151  000000000014300000000000000000000000000000000000000000000000000000000000000000000000000000000000000000000000000000000                          0000000000                                                                  000033
102122445950001000000009034510032549PREGTIT29231185743353     000000000000594868130000000000000000000000000902010319000594868100000000000059486813300419000000004200023704151  000000000014300000000000000000000000000000000000000000000000000000000000000000000000000000000000000000000000000000000                          0000000000                                                                  000034
102122445950001000000009034510032549PREGTIT29234277010415     000000000000594914690000000000000000000000000902010319000594914600000000000059491469300419000000003200023704151  000000000014300000000000000000000000000000000000000000000000000000000000000000000000000000000000000000000000000000000                          0000000000                                                                  000035
102122445950001000000009034510032549PREGTIT29234811956985     000000000000594938600000000000000000000000000902010319000594938600000000000059493860300419000000000583523703451  000000000014300000000000000000000000000000000000000000000000000000000000000000000000000000000000000000000000000000000                          0000000000                                                                  000036
102122445950001000000009034510032549PREGTIT29234521766685     000000000000594956850000000000000000000000000902010319000594956800000000000059495685300419000000000850023703451  000000000014300000000000000000000000000000000000000000000000000000000000000000000000000000000000000000000000000000000                          7600000000                                                                  000037
102122445950001000000009034510032549PREGTIT29234940462828     000000000000594987060000000000000000000000000902010319000594987000000000000059498706300419000000000700023703451  000000000014300000000000000000000000000000000000000000000000000000000000000000000000000000000000000000000000000000000                          0000000000                                                                  000038
102122445950001000000009034510032549PREGTIT29237987976032     000000000000594988030000000000000000000000000902010319000594988000000000000059498803300419000000001866723703451  000000000014300000000000000000000000000000000000000000000000000000000000000000000000000000000000000000000000000000000                          0000000000                                                                  000039
102122445950001000000009034510032549PREGTIT29231425018989     000000000000595004090000000000000000000000000902010319000595004000000000000059500409300419000000001083523703451  000000000014300000000000000000000000000000000000000000000000000000000000000000000000000000000000000000000000000000000                          0000000000                                                                  000040
102122445950001000000009034510032549PREGTIT29234549332488     000000000000595004680000000000000000000000000902010319000595004600000000000059500468300419000000006602223704151  000000000014300000000000000000000000000000000000000000000000000000000000000000000000000000000000000000000000000000000                          0000000000                                                                  000041
102122445950001000000009034510032549PREGTIT29237535341468     000000000000595005220000000000000000000000000902010319000595005200000000000059500522300419000000000750023703451  000000000014300000000000000000000000000000000000000000000000000000000000000000000000000000000000000000000000000000000                          0000000000                                                                  000042
102122445950001000000009034510032549PREGTIT29236788748792     000000000000595068570000000000000000000000000902010319000595068500000000000059506857300419000000001000023703451  000000000014300000000000000000000000000000000000000000000000000000000000000000000000000000000000000000000000000000000                          0000000000                                                                  000043
102122445950001000000009034510032549PREGTIT29233466252154     000000000000595129620000000000000000000000000902010319000595129600000000000059512962300419000000001000023703451  000000000014300000000000000000000000000000000000000000000000000000000000000000000000000000000000000000000000000000000                          0000000000                                                                  000044
102122445950001000000009034510032549PREGTIT29234949242927     000000000000595657720000000000000000000000000902010319000595657700000000000059565772300419000000000733423703451  000000000014300000000000000000000000000000000000000000000000000000000000000000000000000000000000000000000000000000000                          0000000000                                                                  000045
102122445950001000000009034510032549PREGTIT29234962473975     000000000000595710200000000000000000000000000902010319000595710200000000000059571020300419000000001062523703451  000000000014300000000000000000000000000000000000000000000000000000000000000000000000000000000000000000000000000000000                          0000000000                                                                  000046
102122445950001000000009034510032549PREGTIT29234969885800     000000000000595743210000000000000000000000000902010319000595743200000000000059574321300419000000005400023704151  000000000014300000000000000000000000000000000000000000000000000000000000000000000000000000000000000000000000000000000                          0000000000                                                                  000047
102122445950001000000009034510032549PREGTIT29238850102196     000000000000595749090000000000000000000000000902010319000595749000000000000059574909300419000000002580023704151  000000000014300000000000000000000000000000000000000000000000000000000000000000000000000000000000000000000000000000000                          0000000000                                                                  000048
102122445950001000000009034510032549PREGTIT29236460598164     000000000000595773710000000000000000000000000902010319000595773700000000000059577371300419000000001250023704152  000000000014300000000000000000000000000000000000000000000000000000000000000000000000000000000000000000000000000000000                          0000000000                                                                  000049
102122445950001000000009034510032549PREGTIT29238767250838     000000000000595784830000000000000000000000000902010319000595784800000000000059578483300419000000002000023703451  000000000014300000000000000000000000000000000000000000000000000000000000000000000000000000000000000000000000000000000                          0000000000                                                                  000050
102122445950001000000009034510032549PREGTIT29239737332401     000000000000595786370000000000000000000000000902010319000595786300000000000059578637300419000000000800023703451  000000000014300000000000000000000000000000000000000000000000000000000000000000000000000000000000000000000000000000000                          0000000000                                                                  000051
102122445950001000000009034510032549PREGTIT29233601787404     000000000000595810340000000000000000000000000902010319000595810300000000000059581034300419000000000800023703451  000000000014300000000000000000000000000000000000000000000000000000000000000000000000000000000000000000000000000000000                          0000000000                                                                  000052
102122445950001000000009034510032549PREGTIT29233501199628     0000000000005958193P000000000000000000000000090201031900059581930000000000005958193P300419000000001920023703451  000000000014300000000000000000000000000000000000000000000000000000000000000000000000000000000000000000000000000000000                          0000000000                                                                  000053
102122445950001000000009034510032549PREGTIT29239776174128     000000000000595844240000000000000000000000000902010319000595844200000000000059584424300419000000001250023703451  000000000014300000000000000000000000000000000000000000000000000000000000000000000000000000000000000000000000000000000                          0000000000                                                                  000054
102122445950001000000009034510032549PREGTIT29232392747613     000000000000595845560000000000000000000000000902010319000595845500000000000059584556300419000000001100023703451  000000000014300000000000000000000000000000000000000000000000000000000000000000000000000000000000000000000000000000000                          0000000000                                                                  000055
102122445950001000000009034510032549PREGTIT29232278357466     000000000000595849710000000000000000000000000902010319000595849700000000000059584971300419000000000700023704147  000000000014300000000000000000000000000000000000000000000000000000000000000000000000000000000000000000000000000000000                          0000000000                                                                  000056
102122445950001000000009034510032549PREGTIT29232351426217     000000000000595875710000000000000000000000000902010319000595875700000000000059587571300419000000001800023704151  000000000014300000000000000000000000000000000000000000000000000000000000000000000000000000000000000000000000000000000                          0000000000                                                                  000057
102122445950001000000009034510032549PREGTIT29233042403898     000000000000595880120000000000000000000000000902010319000595880100000000000059588012300419000000000980023700408  000000000014300000000000000000000000000000000000000000000000000000000000000000000000000000000000000000000000000000000                          0000000000                                                                  000058
102122445950001000000009034510032549PREGTIT29237925986482     000000000000595880630000000000000000000000000902010319000595880600000000000059588063300419000000001000023703451  000000000014300000000000000000000000000000000000000000000000000000000000000000000000000000000000000000000000000000000                          0000000000                                                                  000059
102122445950001000000009034510032549PREGTIT29235504335326     000000000000595909390000000000000000000000000902010319000595909300000000000059590939300419000000001000023703451  000000000014300000000000000000000000000000000000000000000000000000000000000000000000000000000000000000000000000000000                          0000000000                                                                  000060
102122445950001000000009034510032549PREGTIT29234859865316     000000000000595918970000000000000000000000000902010319000595918900000000000059591897300419000000001225023703451  000000000014300000000000000000000000000000000000000000000000000000000000000000000000000000000000000000000000000000000                          0000000000                                                                  000061
102122445950001000000009034510032549PREGTIT29239548962927     000000000000595920790000000000000000000000000902010319000595920700000000000059592079300419000000001125023703451  000000000014300000000000000000000000000000000000000000000000000000000000000000000000000000000000000000000000000000000                          0000000000                                                                  000062
102122445950001000000009034510032549PREGTIT29238693901441     0000000000005959506P000000000000000000000000090201031900059595060000000000005959506P300419000000003000023704157  000000000014300000000000000000000000000000000000000000000000000000000000000000000000000000000000000000000000000000000                          7600000000                                                                  000063
102122445950001000000009034510032549PREGTIT29232876566180     000000000000595981740000000000000000000000000902010319000595981700000000000059598174300419000000003518823704144  000000000014300000000000000000000000000000000000000000000000000000000000000000000000000000000000000000000000000000000                          0000000000                                                                  000064
102122445950001000000009034510032549PREGTIT29234307893179     000000000000595987190000000000000000000000000902010319000595987100000000000059598719300419000000003000023704151  000000000014300000000000000000000000000000000000000000000000000000000000000000000000000000000000000000000000000000000                          0000000000                                                                  000065
102122445950001000000009034510032549PREGTIT29237507982332     000000000000595999790000000000000000000000000902010319000595999700000000000059599979300419000000001120023703451  000000000014300000000000000000000000000000000000000000000000000000000000000000000000000000000000000000000000000000000                          0000000000                                                                  000066
102122445950001000000009034510032549PREGTIT29236504004506     000000000000596031000000000000000000000000000902010319000596031000000000000059603100300419000000004649723704151  000000000014300000000000000000000000000000000000000000000000000000000000000000000000000000000000000000000000000000000                          0000000000                                                                  000067
102122445950001000000009034510032549PREGTIT29235683803140     000000000000596070920000000000000000000000000902010319000596070900000000000059607092300419000000001000023703109  000000000014300000000000000000000000000000000000000000000000000000000000000000000000000000000000000000000000000000000                          0000000000                                                                  000068
102122445950001000000009034510032549PREGTIT29236089188886     000000000000596641930000000000000000000000000902010319000596641900000000000059664193300419000000001450023703451  000000000014300000000000000000000000000000000000000000000000000000000000000000000000000000000000000000000000000000000                          0000000000                                                                  000069
102122445950001000000009034510032549PREGTIT29231471809951     000000000000596715210000000000000000000000000902010319000596715200000000000059671521300419000000002200023703109  000000000014300000000000000000000000000000000000000000000000000000000000000000000000000000000000000000000000000000000                          0000000000                                                                  000070
102122445950001000000009034510032549PREGTIT29231340624747     000000000000596728700000000000000000000000000902010319000596728700000000000059672870300419000000002000023704151  000000000014300000000000000000000000000000000000000000000000000000000000000000000000000000000000000000000000000000000                          0000000000                                                                  000071
102122445950001000000009034510032549PREGTIT29239988945639     000000000000596736640000000000000000000000000902010319000596736600000000000059673664300419000000001300023703109  000000000014300000000000000000000000000000000000000000000000000000000000000000000000000000000000000000000000000000000                          0000000000                                                                  000072
102122445950001000000009034510032549PREGTIT29234094831111     000000000000596795060000000000000000000000000902010319000596795000000000000059679506300419000000004350023704151  000000000014300000000000000000000000000000000000000000000000000000000000000000000000000000000000000000000000000000000                          0000000000                                                                  000073
102122445950001000000009034510032549PREGTIT29232086239945     000000000000596805980000000000000000000000000902010319000596805900000000000059680598300419000000001600023704151  000000000014300000000000000000000000000000000000000000000000000000000000000000000000000000000000000000000000000000000                          0000000000                                                                  000074
102122445950001000000009034510032549PREGTIT29237220362515     000000000000596828330000000000000000000000000902010319000596828300000000000059682833300419000000003000023703109  000000000014300000000000000000000000000000000000000000000000000000000000000000000000000000000000000000000000000000000                          0000000000                                                                  000075
102122445950001000000009034510032549PREGTIT29237089014661     000000000000596848520000000000000000000000000902010319000596848500000000000059684852300419000000003200023703451  000000000014300000000000000000000000000000000000000000000000000000000000000000000000000000000000000000000000000000000                          0000000000                                                                  000076
102122445950001000000009034510032549PREGTIT29235954865788     0000000000005968867P000000000000000000000000090201031900059688670000000000005968867P300419000000000750023704147  000000000014300000000000000000000000000000000000000000000000000000000000000000000000000000000000000000000000000000000                          0000000000                                                                  000077
102122445950001000000009034510032549PREGTIT29238283395688     0000000000005968884P000000000000000000000000090201031900059688840000000000005968884P300419000000003500023703109  000000000014300000000000000000000000000000000000000000000000000000000000000000000000000000000000000000000000000000000                          0000000000                                                                  000078
102122445950001000000009034510032549PREGTIT29231692498649     000000000000596917350000000000000000000000000902010319000596917300000000000059691735300419000000001400023703451  000000000014300000000000000000000000000000000000000000000000000000000000000000000000000000000000000000000000000000000                          0000000000                                                                  000079
102122445950001000000009034510032549PREGTIT29237931867436     000000000000596922350000000000000000000000000902010319000596922300000000000059692235300419000000004000023704144  000000000014300000000000000000000000000000000000000000000000000000000000000000000000000000000000000000000000000000000                          0000000000                                                                  000080
102122445950001000000009034510032549PREGTIT29235304678554     000000000000596937700000000000000000000000000902010319000596937700000000000059693770300419000000002403923704144  000000000014300000000000000000000000000000000000000000000000000000000000000000000000000000000000000000000000000000000                          0000000000                                                                  000081
102122445950001000000009034510032549PREGTIT29232503816241     000000000000596941570000000000000000000000000902010319000596941500000000000059694157300419000000002030723704144  000000000014300000000000000000000000000000000000000000000000000000000000000000000000000000000000000000000000000000000                          0000000000                                                                  000082
102122445950001000000009034510032549PREGTIT29236193105710     000000000000596962730000000000000000000000000902010319000596962700000000000059696273300419000000001350023703109  000000000014300000000000000000000000000000000000000000000000000000000000000000000000000000000000000000000000000000000                          0000000000                                                                  000083
102122445950001000000009034510032549PREGTIT29235343888505     0000000000005975768P000000000000000000000000090201031900059757680000000000005975768P300419000000002900023704151  000000000014300000000000000000000000000000000000000000000000000000000000000000000000000000000000000000000000000000000                          0000000000                                                                  000084
102122445950001000000009034510032549PREGTIT29234265308483     000000000000597595690000000000000000000000000902010319000597595600000000000059759569300419000000002900023704151  000000000014300000000000000000000000000000000000000000000000000000000000000000000000000000000000000000000000000000000                          0000000000                                                                  000085
102122445950001000000009034510032549PREGTIT29234684360552     000000000000597599170000000000000000000000000902010319000597599100000000000059759917300419000000000800023704144  000000000014300000000000000000000000000000000000000000000000000000000000000000000000000000000000000000000000000000000                          7600000000                                                                  000086
102122445950001000000009034510032549PREGTIT29234737783231     000000000000597641470000000000000000000000000902010319000597641400000000000059764147300419000000000600023704144  000000000014300000000000000000000000000000000000000000000000000000000000000000000000000000000000000000000000000000000                          0000000000                                                                  000087
102122445950001000000009034510032549PREGTIT29231543776591     000000000000597643410000000000000000000000000902010319000597643400000000000059764341300419000000000550023704144  000000000014300000000000000000000000000000000000000000000000000000000000000000000000000000000000000000000000000000000                          0000000000                                                                  000088
102122445950001000000009034510032549PREGTIT29231474318409     000000000000597694400000000000000000000000000902010319000597694400000000000059769440300419000000002000023704428  000000000014300000000000000000000000000000000000000000000000000000000000000000000000000000000000000000000000000000000                          0000000000                                                                  000089
102122445950001000000009034510032549PREGTIT29234356567495     000000000000597725570000000000000000000000000902010319000597725500000000000059772557300419000000004969023703451  000000000014300000000000000000000000000000000000000000000000000000000000000000000000000000000000000000000000000000000                          7600000000                                                                  000090
102122445950001000000009034510032549PREGTIT29238971854659     000000000000597735100000000000000000000000000902010319000597735100000000000059773510300419000000002200023703109  000000000014300000000000000000000000000000000000000000000000000000000000000000000000000000000000000000000000000000000                          0000000000                                                                  000091
102122445950001000000009034510032549PREGTIT29231649508298     0000000000005977357P000000000000000000000000090201031900059773570000000000005977357P300419000000001200023703109  000000000014300000000000000000000000000000000000000000000000000000000000000000000000000000000000000000000000000000000                          0000000000                                                                  000092
102122445950001000000009034510032549PREGTIT29239676242094     000000000000597736260000000000000000000000000902010319000597736200000000000059773626300419000000000550023704144  000000000014300000000000000000000000000000000000000000000000000000000000000000000000000000000000000000000000000000000                          0000000000                                                                  000093
102122445950001000000009034510032549PREGTIT29232362216955     000000000000597788220000000000000000000000000902010319000597788200000000000059778822300419000000002650023703109  000000000014300000000000000000000000000000000000000000000000000000000000000000000000000000000000000000000000000000000                          0000000000                                                                  000094
102122445950001000000009034510032549PREGTIT29237550463357     000000000000597810170000000000000000000000000902010319000597810100000000000059781017300419000000006000023704151  000000000014300000000000000000000000000000000000000000000000000000000000000000000000000000000000000000000000000000000                          0000000000                                                                  000095
102122445950001000000009034510032549PREGTIT29232575928212     000000000000597822930000000000000000000000000902010319000597822900000000000059782293300419000000001100023703109  000000000014300000000000000000000000000000000000000000000000000000000000000000000000000000000000000000000000000000000                          0000000000                                                                  000096
102122445950001000000009034510032549PREGTIT29231488277758     000000000000597866390000000000000000000000000902010319000597866300000000000059786639300419000000001250023700408  000000000014300000000000000000000000000000000000000000000000000000000000000000000000000000000000000000000000000000000                          0000000000                                                                  000097
102122445950001000000009034510032549PREGTIT29231933515431     000000000000597870310000000000000000000000000902010319000597870300000000000059787031300419000000000950023700408  000000000014300000000000000000000000000000000000000000000000000000000000000000000000000000000000000000000000000000000                          0000000000                                                                  000098
102122445950001000000009034510032549PREGTIT29232936805917     000000000000597874140000000000000000000000000902010319000597874100000000000059787414300419000000001000023700408  000000000014300000000000000000000000000000000000000000000000000000000000000000000000000000000000000000000000000000000                          0000000000                                                                  000099
102122445950001000000009034510032549PREGTIT29236026391734     000000000000597875380000000000000000000000000902010319000597875300000000000059787538300419000000001250023700408  000000000014300000000000000000000000000000000000000000000000000000000000000000000000000000000000000000000000000000000                          0000000000                                                                  000100
102122445950001000000009034510032549PREGTIT29236597616312     000000000000597885690000000000000000000000000902010319000597885600000000000059788569300419000000001200023700408  000000000014300000000000000000000000000000000000000000000000000000000000000000000000000000000000000000000000000000000                          0000000000                                                                  000101
102122445950001000000009034510032549PREGTIT29238992086773     000000000000597887390000000000000000000000000902010319000597887300000000000059788739300419000000001100023700408  000000000014300000000000000000000000000000000000000000000000000000000000000000000000000000000000000000000000000000000                          0000000000                                                                  000102
102122445950001000000009034510032549PREGTIT29234171444483     000000000000597888520000000000000000000000000902010319000597888500000000000059788852300419000000001500023700408  000000000014300000000000000000000000000000000000000000000000000000000000000000000000000000000000000000000000000000000                          0000000000                                                                  000103
102122445950001000000009034510032549PREGTIT29232733817257     0000000000005978895P000000000000000000000000090201031900059788950000000000005978895P300419000000001200023700408  000000000014300000000000000000000000000000000000000000000000000000000000000000000000000000000000000000000000000000000                          0000000000                                                                  000104
102122445950001000000009034510032549PREGTIT29232010102818     0000000000005978900P000000000000000000000000090201031900059789000000000000005978900P300419000000002000023700408  000000000014300000000000000000000000000000000000000000000000000000000000000000000000000000000000000000000000000000000                          0000000000                                                                  000105
102122445950001000000009034510032549PREGTIT29235423131055     000000000000597891150000000000000000000000000902010319000597891100000000000059789115300419000000001200023700408  000000000014300000000000000000000000000000000000000000000000000000000000000000000000000000000000000000000000000000000                          0000000000                                                                  000106
102122445950001000000009034510032549PREGTIT29233021613363     000000000000597892710000000000000000000000000902010319000597892700000000000059789271300419000000001300023700408  000000000014300000000000000000000000000000000000000000000000000000000000000000000000000000000000000000000000000000000                          0000000000                                                                  000107
102122445950001000000009034510032549PREGTIT29237213991702     000000000000597898080000000000000000000000000902010319000597898000000000000059789808300419000000002100023703109  000000000014300000000000000000000000000000000000000000000000000000000000000000000000000000000000000000000000000000000                          0000000000                                                                  000108
102122445950001000000009034510032549PREGTIT29233898467197     000000000000598419310000000000000000000000000902010319000598419300000000000059841931300419000000005000023704151  000000000014300000000000000000000000000000000000000000000000000000000000000000000000000000000000000000000000000000000                          0000000000                                                                  000109
102122445950001000000009034510032549PREGTIT29238308864687     000000000000598430710000000000000000000000000902010319000598430700000000000059843071300419000000001333323703109  000000000014300000000000000000000000000000000000000000000000000000000000000000000000000000000000000000000000000000000                          0000000000                                                                  000110
102122445950001000000009034510032549PREGTIT29232516317139     000000000000598434890000000000000000000000000902010319000598434800000000000059843489300419000000001466723703109  000000000014300000000000000000000000000000000000000000000000000000000000000000000000000000000000000000000000000000000                          0000000000                                                                  000111
102122445950001000000009034510032549PREGTIT29238529860439     000000000000598435190000000000000000000000000902010319000598435100000000000059843519300419000000001600023703109  000000000014300000000000000000000000000000000000000000000000000000000000000000000000000000000000000000000000000000000                          0000000000                                                                  000112
102122445950001000000009034510032549PREGTIT29232869734693     000000000000598435780000000000000000000000000902010319000598435700000000000059843578300419000000001566723703109  000000000014300000000000000000000000000000000000000000000000000000000000000000000000000000000000000000000000000000000                          0000000000                                                                  000113
102122445950001000000009034510032549PREGTIT29231225118525     000000000000598437210000000000000000000000000902010319000598437200000000000059843721300419000000001666723703109  000000000014300000000000000000000000000000000000000000000000000000000000000000000000000000000000000000000000000000000                          0000000000                                                                  000114
102122445950001000000009034510032549PREGTIT29232042061851     0000000000005984552P000000000000000000000000090201031900059845520000000000005984552P300419000000000876023703451  000000000014300000000000000000000000000000000000000000000000000000000000000000000000000000000000000000000000000000000                          0000000000                                                                  000115
102122445950001000000009034510032549PREGTIT29237835775845     000000000000598469330000000000000000000000000902010319000598469300000000000059846933300419000000002600023704152  000000000014300000000000000000000000000000000000000000000000000000000000000000000000000000000000000000000000000000000                          0000000000                                                                  000116
102122445950001000000009034510032549PREGTIT29232345216675     000000000000598540300000000000000000000000000902010319000598540300000000000059854030300419000000001100023704157  000000000014300000000000000000000000000000000000000000000000000000000000000000000000000000000000000000000000000000000                          0000000000                                                                  000117
102122445950001000000009034510032549PREGTIT29235687750006     0000000000005985412P000000000000000000000000090201031900059854120000000000005985412P300419000000001100023704157  000000000014300000000000000000000000000000000000000000000000000000000000000000000000000000000000000000000000000000000                          0000000000                                                                  000118
102122445950001000000009034510032549PREGTIT29231548003115     0000000000005985457P000000000000000000000000090201031900059854570000000000005985457P300419000000005000023704151  000000000014300000000000000000000000000000000000000000000000000000000000000000000000000000000000000000000000000000000                          0000000000                                                                  000119
102122445950001000000009034510032549PREGTIT29232426494115     000000000000598549950000000000000000000000000902010319000598549900000000000059854995300419000000002340023704151  000000000014300000000000000000000000000000000000000000000000000000000000000000000000000000000000000000000000000000000                          0000000000                                                                  000120
102122445950001000000009034510032549PREGTIT29234418905758     000000000000598565990000000000000000000000000902010319000598565900000000000059856599300419000000001278523704152  000000000014300000000000000000000000000000000000000000000000000000000000000000000000000000000000000000000000000000000                          0000000000                                                                  000121
102122445950001000000009034510032549PREGTIT29232081595932     000000000000598573660000000000000000000000000902010319000598573600000000000059857366300419000000001950023703109  000000000014300000000000000000000000000000000000000000000000000000000000000000000000000000000000000000000000000000000                          0000000000                                                                  000122
102122445950001000000009034510032549PREGTIT29237960339412     0000000000005985894P000000000000000000000000090201031900059858940000000000005985894P300419000000003000023704151  000000000014300000000000000000000000000000000000000000000000000000000000000000000000000000000000000000000000000000000                          0000000000                                                                  000123
102122445950001000000009034510032549PREGTIT29238542227082     000000000000598612230000000000000000000000000902010319000598612200000000000059861223300419000000001166723704144  000000000014300000000000000000000000000000000000000000000000000000000000000000000000000000000000000000000000000000000                          7600000000                                                                  000124
102122445950001000000009034510032549PREGTIT29237012666269     000000000000598621300000000000000000000000000902010319000598621300000000000059862130300419000000000831723704144  000000000014300000000000000000000000000000000000000000000000000000000000000000000000000000000000000000000000000000000                          0000000000                                                                  000125
102122445950001000000009034510032549PREGTIT29236041984309     000000000000598623940000000000000000000000000902010319000598623900000000000059862394300419000000003927523704143  000000000014300000000000000000000000000000000000000000000000000000000000000000000000000000000000000000000000000000000                          7600000000                                                                  000126
102122445950001000000009034510032549PREGTIT29237640964662     0000000000005986303P000000000000000000000000090201031900059863030000000000005986303P300419000000001500023703109  000000000014300000000000000000000000000000000000000000000000000000000000000000000000000000000000000000000000000000000                          0000000000                                                                  000127
102122445950001000000009034510032549PREGTIT29234224304229     000000000000598637650000000000000000000000000902010319000598637600000000000059863765060319000000004500023704144  000000000014300000000000000000000000000000000000000000000000000000000000000000000000000000000000000000000000000000000                          7600000000                                                                  000128
102122445950001000000009034510032549PREGTIT29233571163568     000000000000598637730000000000000000000000000902010319000598637700000000000059863773260319000000021300023704144  000000000014300000000000000000000000000000000000000000000000000000000000000000000000000000000000000000000000000000000                          0000000000                                                                  000129
102122445950001000000009034510032549PREGTIT29236394324290     000000000000598637810000000000000000000000000902010319000598637800000000000059863781130319000000003000023704144  000000000014300000000000000000000000000000000000000000000000000000000000000000000000000000000000000000000000000000000                          7600000000                                                                  000130
102122445950001000000009034510032549PREGTIT29245607323336     0000000000005986379P000000000000000000000000090201031900059863790000000000005986379P100419000000002900023700140  000000000014300000000000000000000000000000000000000000000000000000000000000000000000000000000000000000000000000000000                          0000000000                                                                  000131
102122445950001000000009034510032549PREGTIT29257068338228     000000000000598638460000000000000000000000000902010319000598638400000000000059863846150319000000001990023704157  000000000014300000000000000000000000000000000000000000000000000000000000000000000000000000000000000000000000000000000                          0000000000                                                                  000132
102122445950001000000009034510032549PREGTIT29269338338346     000000000000598639190000000000000000000000000902010319000598639100000000000059863919100419000000000399523704157  000000000014300000000000000000000000000000000000000000000000000000000000000000000000000000000000000000000000000000000                          0000000000                                                                  000133
102122445950001000000009034510032549PREGTIT29269718920696     000000000000598639940000000000000000000000000902010319000598639900000000000059863994200319000000004900023703109  000000000014300000000000000000000000000000000000000000000000000000000000000000000000000000000000000000000000000000000                          0000000000                                                                  000134
102122445950001000000009034510032549PREGTIT29269718920696     000000000000598640010000000000000000000000000902010319000598640000000000000059864001200419000000004900023703109  000000000014300000000000000000000000000000000000000000000000000000000000000000000000000000000000000000000000000000000                          0000000000                                                                  000135
102122445950001000000009034510032549PREGTIT29265621234952     000000000000598640790000000000000000000000000902010319000598640700000000000059864079100419000000001090023700140  000000000014300000000000000000000000000000000000000000000000000000000000000000000000000000000000000000000000000000000                          0000000000                                                                  000136
102122445950001000000009034510032549PREGTIT29276039045527     000000000000598641330000000000000000000000000902010319000598641300000000000059864133100319000000005000023704157  000000000014300000000000000000000000000000000000000000000000000000000000000000000000000000000000000000000000000000000                          0000000000                                                                  000137
102122445950001000000009034510032549PREGTIT29276039045527     000000000000598641410000000000000000000000000902010319000598641400000000000059864141100419000000005000023704157  000000000014300000000000000000000000000000000000000000000000000000000000000000000000000000000000000000000000000000000                          0000000000                                                                  000138
102122445950001000000009034510032549PREGTIT29279876927067     000000000000598641680000000000000000000000000902010319000598641600000000000059864168060419000000001300023704151  000000000014300000000000000000000000000000000000000000000000000000000000000000000000000000000000000000000000000000000                          0000000000                                                                  000139
102122445950001000000009034510032549PREGTIT29274627194752     000000000000598642140000000000000000000000000902010319000598642100000000000059864214130319000000003500023704151  000000000014300000000000000000000000000000000000000000000000000000000000000000000000000000000000000000000000000000000                          0000000000                                                                  000140
102122445950001000000009034510032549PREGTIT29289356067044     000000000000598642220000000000000000000000000902010319000598642200000000000059864222130319000000023156523704144  000000000014300000000000000000000000000000000000000000000000000000000000000000000000000000000000000000000000000000000                          7600000000                                                                  000141
102122445950001000000009034510032549PREGTIT29281887422899     000000000000598642300000000000000000000000000902010319000598642300000000000059864230110319000000017326923704144  000000000014300000000000000000000000000000000000000000000000000000000000000000000000000000000000000000000000000000000                          7600000000                                                                  000142
102122445950001000000009034510032549PREGTIT29308080138584     000000000000598642490000000000000000000000000902010319000598642400000000000059864249080319000000059400023704144  000000000014300000000000000000000000000000000000000000000000000000000000000000000000000000000000000000000000000000000                          7600000000                                                                  000143
102122445950001000000009034510032549PREGTIT29309210442499     000000000000598642570000000000000000000000000902010319000598642500000000000059864257060319000000000831723704144  000000000014300000000000000000000000000000000000000000000000000000000000000000000000000000000000000000000000000000000                          0000000000                                                                  000144
102122445950001000000009034510032549PREGTIT29309210442499     000000000000598642650000000000000000000000000902010319000598642600000000000059864265060419000000000831723704144  000000000014300000000000000000000000000000000000000000000000000000000000000000000000000000000000000000000000000000000                          0000000000                                                                  000145
102122445950001000000009034510032549PREGTIT29319096899835     000000000000598643110000000000000000000000000902010319000598643100000000000059864311060319000000002495023704157  000000000014300000000000000000000000000000000000000000000000000000000000000000000000000000000000000000000000000000000                          0000000000                                                                  000146
102122445950001000000009034510032549PREGTIT29319096899835     0000000000005986432P000000000000000000000000090201031900059864320000000000005986432P060419000000002495023704157  000000000014300000000000000000000000000000000000000000000000000000000000000000000000000000000000000000000000000000000                          0000000000                                                                  000147
102122445950001000000009034510032549PREGTIT29311851650567     000000000000598643380000000000000000000000000902010319000598643300000000000059864338100419000000000209023704157  000000000014300000000000000000000000000000000000000000000000000000000000000000000000000000000000000000000000000000000                          0000000000                                                                  000148
102122445950001000000009034510032549PREGTIT29319749306709     000000000000598643460000000000000000000000000902010319000598643400000000000059864346100419000000001200023703451  000000000014300000000000000000000000000000000000000000000000000000000000000000000000000000000000000000000000000000000                          0000000000                                                                  000149
102122445950001000000009034510032549PREGTIT29344924440632     000000000000598645080000000000000000000000000902010319000598645000000000000059864508100419000000003200023704151  000000000014300000000000000000000000000000000000000000000000000000000000000000000000000000000000000000000000000000000                          0000000000                                                                  000150
102122445950001000000009034510032549PREGTIT29344241990840     000000000000598646480000000000000000000000000902010319000598646400000000000059864648110319000000031000023704151  000000000014300000000000000000000000000000000000000000000000000000000000000000000000000000000000000000000000000000000                          0000000000                                                                  000151
102122445950001000000009034510032549PREGTIT24091670555646     000000000000588657720000000000000000000000000906010319000588657700000000000058865772200219000000001150023700785  000000000000000000000000000000000000000000000000000000000000000000000000000000000000001180200000000003020000000000000   060319             00000000000000                                                                  000152
102122445950001000000009034510032549PREGTIT24091348148658     0000000000005886699P000000000000000000000000090601031900058866990000000000005886699P200219000000001100000101058  000000000000000000000000000000000000000000000000000000000000000000000000000000000000001128300000000002830000000000000   060319             00000000000000                                                                  000153
102122445950001000000009034510032549PREGTIT23466613087931     000000000000588929820000000000000000000000000906010319000588929800000000000058892982120219000000006082034107054  000000000000000000000000000000000000000000000000000000000000000000000000000000000000006273300000000019130000000000000   060319             00000000000000                                                                  000154
102122445950001000000009034510032549PREGTIT24656526473350     000000000000591933950000000000000000000000000906010319000591933900000000000059193395020319000000001470034109170  000000000000000000000000000000000000000000000000000000000000000000000000000000000000001470000000000000000000000000000   060319             00000000000000                                                                  000155
102122445950001000000009034510032549PREGTIT25546702733544     000000000000592619510000000000000000000000000906010319000592619500000000000059261951150319000000001000023700104  000000000000000000000000000000000000000000000000000000000000000000000000000000000000001000000000000000000000000000000   060319             00000000000000                                                                  000156
102122445950001000000009034510032549PREGTIT24883077983740     000000000000592851760000000000000000000000000906010319000592851700000000000059285176050319000000001066710403510  000000000000000000000000000000000000000000000000000000000000000000000000000000000000001066700000000000000000000000000   060319             00000000000000                                                                  000157
102122445950001000000009034510032549PREGTIT24548961693325     000000000000593020540000000000000000000000000906010319000593020500000000000059302054280219000000001196023701031  000000000000000000000000000000000000000000000000000000000000000000000000000000000000001220700000000002470000000000000   060319             00000000000000                                                                  000158
102122445950001000000009034510032549PREGTIT24887092517432     000000000000593122110000000000000000000000000906010319000593122100000000000059312211050319000000000616710400812  000000000000000000000000000000000000000000000000000000000000000000000000000000000000000616700000000000000000000000000   060319             00000000000000                                                                  000159
102122445950001000000009034510032549PREGTIT24659060208085     0000000000005931575P000000000000000000000000090601031900059315750000000000005931575P020319000000002160003300250  000000000000000000000000000000000000000000000000000000000000000000000000000000000000002160000000000000000000000000000   060319             00000000000000                                                                  000160
102122445950001000000009034510032549PREGTIT24548618663408     000000000000593899660000000000000000000000000906010319000593899600000000000059389966280219000000000666723703101  000000000000000000000000000000000000000000000000000000000000000000000000000000000000000680400000000001370000000000000   060319             00000000000000                                                                  000161
102122445950001000000009034510032549PREGTIT24881225991770     000000000000593946920000000000000000000000000906010319000593946900000000000059394692050319000000002391710403379  000000000000000000000000000000000000000000000000000000000000000000000000000000000000002391700000000000000000000000000   060319             00000000000000                                                                  000162
102122445950001000000009034510032549PREGTIT24545457893870     000000000000594015160000000000000000000000000906010319000594015100000000000059401516280219000000000666710400812  000000000000000000000000000000000000000000000000000000000000000000000000000000000000000680400000000001370000000000000   060319             00000000000000                                                                  000163
102122445950001000000009034510032549PREGTIT19189885085891     000000000000594082430000000000000000000000000906010319000594082400000000000059408243211218000000006250003303525  000000000000000000000000000000000000000000000000000000000000000000000000000000000000007103000000000085300000000000000   060319             00000000000000                                                                  000164
102122445950001000000009034510032549PREGTIT21719885085891     000000000000594082510000000000000000000000000906010319000594082500000000000059408251210119000000006250003303525  000000000000000000000000000000000000000000000000000000000000000000000000000000000000006780600000000053060000000000000   060319             00000000000000                                                                  000165
102122445950001000000009034510032549PREGTIT24323281007856     000000000000594088390000000000000000000000000906010319000594088300000000000059408839250219000000001333303300777  000000000000000000000000000000000000000000000000000000000000000000000000000000000000001363500000000003020000000000000   060319             00000000000000                                                                  000166
102122445950001000000009034510032549PREGTIT23561153826593     000000000000594745480000000000000000000000000906010319000594745400000000000059474548150219000000003450010402702  000000000000000000000000000000000000000000000000000000000000000000000000000000000000003551200000000010120000000000000   060319             00000000000000                                                                  000167
102122445950001000000009034510032549PREGTIT24549034383309     000000000000594933050000000000000000000000000906010319000594933000000000000059493305010319000000030000010400404  000000000000000000000000000000000000000000000000000000000000000000000000000000000000030000000000000000000000000000000   060319             00000000000000                                                                  000168
102122445950001000000009034510032549PREGTIT25212072959240     000000000000594997880000000000000000000000000906010319000594997800000000000059499788100319000000001000000101534  000000000000000000000000000000000000000000000000000000000000000000000000000000000000001000000000000000000000000000000   060319             00000000000000                                                                  000169
102122445950001000000009034510032549PREGTIT24545391614437     0000000000005950160P000000000000000000000000090601031900059501600000000000005950160P010319000000003247010404892  000000000000000000000000000000000000000000000000000000000000000000000000000000000000003247000000000000000000000000000   060319             00000000000000                                                                  000170
102122445950001000000009034510032549PREGTIT25378995099411     000000000000595074700000000000000000000000000906010319000595074700000000000059507470060319000000001000010400812  000000000000000000000000000000000000000000000000000000000000000000000000000000000000001000000000000000000000000000000   060319             00000000000000                                                                  000171
102122445950001000000009034510032549PREGTIT20835259876702     0000000000005951440P000000000000000000000000090601031900059514400000000000005951440P100119000000000950023700403  000000000000000000000000000000000000000000000000000000000000000000000000000000000000000999000000000004900000000000000   060319             00000000000000                                                                  000172
102122445950001000000009034510032549PREGTIT23245259876702     000000000000595144180000000000000000000000000906010319000595144100000000000059514418100219000000000950023700403  000000000000000000000000000000000000000000000000000000000000000000000000000000000000000980400000000003040000000000000   060319             00000000000000                                                                  000173
102122445950001000000009034510032549PREGTIT25211175038408     000000000000595691820000000000000000000000000906010319000595691800000000000059569182100319000000003027534102929  000000000000000000000000000000000000000000000000000000000000000000000000000000000000003027500000000000000000000000000   060319             00000000000000                                                                  000174
102122445950001000000009034510032549PREGTIT24549767480811     000000000000595779910000000000000000000000000906010319000595779900000000000059577991010319000000006000010400451  000000000000000000000000000000000000000000000000000000000000000000000000000000000000006000000000000000000000000000000   060319             00000000000000                                                                  000175
102122445950001000000009034510032549PREGTIT24884167961999     000000000000595853660000000000000000000000000906010319000595853600000000000059585366050319000000001000010400812  000000000000000000000000000000000000000000000000000000000000000000000000000000000000001000000000000000000000000000000   060319             00000000000000                                                                  000176
102122445950001000000009034510032549PREGTIT24543042403898     000000000000595879970000000000000000000000000906010319000595879900000000000059587997280219000000000980010404399  000000000000000000000000000000000000000000000000000000000000000000000000000000000000001000300000000002030000000000000   060319             00000000000000                                                                  000177
102122445950001000000009034510032549PREGTIT24095752563563     000000000000595974880000000000000000000000000906010319000595974800000000000059597488220219000000001100034107054  000000000000000000000000000000000000000000000000000000000000000000000000000000000000001126900000000002690000000000000   060319             00000000000000                                                                  000178
102122445950001000000009034510032549PREGTIT24887902418052     000000000000595985730000000000000000000000000906010319000595985700000000000059598573050319000000001100010401882  000000000000000000000000000000000000000000000000000000000000000000000000000000000000001100000000000000000000000000000   060319             00000000000000                                                                  000179
102122445950001000000009034510032549PREGTIT24669182794334     000000000000595995290000000000000000000000000906010319000595995200000000000059599529030319000000001440075603299  000000000000000000000000000000000000000000000000000000000000000000000000000000000000001440000000000000000000000000000   060319             00000000000000                                                                  000180
102122445950001000000009034510032549PREGTIT25769902710637     000000000000596741130000000000000000000000000906010319000596741100000000000059674113170319000000000625810403753  000000000000000000000000000000000000000000000000000000000000000000000000000000000000000625800000000000000000000000000   060319             00000000000000                                                                  000181
102122445950001000000009034510032549PREGTIT25768006138486     000000000000596757210000000000000000000000000906010319000596757200000000000059675721170319000000000260010403596  000000000000000000000000000000000000000000000000000000000000000000000000000000000000000260000000000000000000000000000   060319             00000000000000                                                                  000182
102122445950001000000009034510032549PREGTIT24547220362515     000000000000596828170000000000000000000000000906010319000596828100000000000059682817280219000000003000010404110  000000000000000000000000000000000000000000000000000000000000000000000000000000000000003062000000000006200000000000000   060319             00000000000000                                                                  000183
102122445950001000000009034510032549PREGTIT27712965044925     000000000000596833330000000000000000000000000906010319000596833300000000000059683333100419000000000534610403753  000000000000000000000000000000000000000000000000000000000000000000000000000000000000000534600000000000000000000000000   060319             00000000000000                                                                  000184
102122445950001000000009034510032549PREGTIT25216089735933     000000000000596930100000000000000000000000000906010319000596930100000000000059693010100319000000002200023700520  000000000000000000000000000000000000000000000000000000000000000000000000000000000000002200000000000000000000000000000   060319             00000000000000                                                                  000185
102122445950001000000009034510032549PREGTIT24998515443007     000000000000596943270000000000000000000000000906010319000596943200000000000059694327080219000000000600034106896  000000000000000000000000000000000000000000000000000000000000000000000000000000000000000633000000000003300000000000000   060319             00000000000000                                                                  000186
102122445950001000000009034510032549PREGTIT25315541093436     000000000000597003350000000000000000000000000906010319000597003300000000000059700335250219000000001700023705673  000000000000000000000000000000000000000000000000000000000000000000000000000000000000001738400000000003840000000000000   060319             00000000000000                                                                  000187
102122445950001000000009034510032549PREGTIT26235574605613     000000000000597675960000000000000000000000000906010319000597675900000000000059767596220219000000002822210403866  000000000000000000000000000000000000000000000000000000000000000000000000000000000000002891900000000006970000000000000   060319             00000000000000                                                                  000188
102122445950001000000009034510032549PREGTIT26389794749464     000000000000597702520000000000000000000000000906010319000597702500000000000059770252130219000000002235003301586  000000000000000000000000000000000000000000000000000000000000000000000000000000000000002303700000000006870000000000000   060319             00000000000000                                                                  000189
102122445950001000000009034510032549PREGTIT26428010719695     0000000000005977097P000000000000000000000000090601031900059770970000000000005977097P050319000000001808010402155  000000000000000000000000000000000000000000000000000000000000000000000000000000000000001808000000000000000000000000000   060319             00000000000000                                                                  000190
102122445950001000000009034510032549PREGTIT26486786918093     000000000000597734800000000000000000000000000906010319000597734800000000000059773480010319000000000760000103433  000000000000000000000000000000000000000000000000000000000000000000000000000000000000000760000000000000000000000000000   060319             00000000000000                                                                  000191
102122445950001000000009034510032549PREGTIT26587431535000     000000000000597747030000000000000000000000000906010319000597747000000000000059774703250219000000002000023700027  000000000000000000000000000000000000000000000000000000000000000000000000000000000000002050800000000005080000000000000   060319             00000000000000                                                                  000192
102122445950001000000009034510032549PREGTIT26832869247003     000000000000597784820000000000000000000000000906010319000597784800000000000059778482010319000000002000000100367  000000000000000000000000000000000000000000000000000000000000000000000000000000000000002000000000000000000000000000000   060319             00000000000000                                                                  000193
102122445950001000000009034510032549PREGTIT26978310326528     000000000000597800960000000000000000000000000906010319000597800900000000000059780096010319000000008500000104638  000000000000000000000000000000000000000000000000000000000000000000000000000000000000008500000000000000000000000000000   060319             00000000000000                                                                  000194
102122445950001000000009034510032549PREGTIT26976065837794     0000000000005978010P000000000000000000000000090601031900059780100000000000005978010P010319000000008500000104638  000000000000000000000000000000000000000000000000000000000000000000000000000000000000008500000000000000000000000000000   060319             00000000000000                                                                  000195
102122445950001000000009034510032549PREGTIT27277390505406     000000000000597852410000000000000000000000000906010319000597852400000000000059785241010319000000002125010403322  000000000000000000000000000000000000000000000000000000000000000000000000000000000000002125000000000000000000000000000   060319             00000000000000                                                                  000196
102122445950001000000009034510032549PREGTIT27271149361108     000000000000597852680000000000000000000000000906010319000597852600000000000059785268010319000000004500023702995  000000000000000000000000000000000000000000000000000000000000000000000000000000000000004500000000000000000000000000000   060319             00000000000000                                                                  000197
102122445950001000000009034510032549PREGTIT27494633312266     000000000000597884290000000000000000000000000906010319000597884200000000000059788429070319000000002500023706349  000000000000000000000000000000000000000000000000000000000000000000000000000000000000002500000000000000000000000000000   060319             00000000000000                                                                  000198
102122445950001000000009034510032549PREGTIT27671702416659     000000000000597908060000000000000000000000000906010319000597908000000000000059790806010319000000004500010401266  000000000000000000000000000000000000000000000000000000000000000000000000000000000000004500000000000000000000000000000   060319             00000000000000                                                                  000199
102122445950001000000009034510032549PREGTIT27852869734693     0000000000005984356P000000000000000000000000090601031900059843560000000000005984356P300319000000001566710400551  000000000000000000000000000000000000000000000000000000000000000000000000000000000000001566700000000000000000000000000   060319             00000000000000                                                                  000200
102122445950001000000009034510032549PREGTIT28095716527534     000000000000598482350000000000000000000000000906010319000598482300000000000059848235200219000000000400023702762  000000000000000000000000000000000000000000000000000000000000000000000000000000000000000410700000000001070000000000000   060319             00000000000000                                                                  000201
102122445950001000000009034510032549PREGTIT28402351854687     000000000000598544990000000000000000000000000906010319000598544900000000000059854499020319000000002800023701037  000000000000000000000000000000000000000000000000000000000000000000000000000000000000002800000000000000000000000000000   060319             00000000000000                                                                  000202
102122445950001000000009034510032549PREGTIT29035451476064     000000000000598615250000000000000000000000000906010319000598615200000000000059861525010319000000003078523701360  000000000000000000000000000000000000000000000000000000000000000000000000000000000000003078500000000000000000000000000   060319             00000000000000                                                                  000203
102122445950001000000009034510032549PREGTIT29092838024803     000000000000598622110000000000000000000000000906010319000598622100000000000059862211040319000000002940003302102  000000000000000000000000000000000000000000000000000000000000000000000000000000000000002940000000000000000000000000000   060319             00000000000000                                                                  000204
102122445950001000000009034510032549PREGTIT24098908984507     000000000000591807220000000000000000000000000909010319000591807200000000000059180722200219000000001580023704150  000000000000000000000000000000000000000000000000000000000000000000000000000000000000000000000000000000000000000000000                          0000000000                                                                  000205
102122445950001000000009034510032549PREGTIT24546824625726     000000000000592810300000000000000000000000000909010319000592810300000000000059281030280219000000000837523704150  000000000000000000000000000000000000000000000000000000000000000000000000000000000000000000000000000000000000000000000                          0000000000                                                                  000206
102122445950001000000009034510032549PREGTIT24776185046252     000000000000592979800000000000000000000000000909010319000592979800000000000059297980040319000000000750023704150  000000000000000000000000000000000000000000000000000000000000000000000000000000000000000000000000000000000000000000000                          0000000000                                                                  000207
102122445950001000000009034510032549PREGTIT22484996239141     000000000000593989650000000000000000000000000909010319000593989600000000000059398965310119000000000327623704150  000000000000000000000000000000000000000000000000000000000000000000000000000000000000000000000000000000000000000000000                          0000000000                                                                  000208
102122445950001000000009034510032549PREGTIT25122405263806     000000000000594731930000000000000000000000000909010319000594731900000000000059473193070319000000001000023704150  000000000000000000000000000000000000000000000000000000000000000000000000000000000000000000000000000000000000000000000                          0000000000                                                                  000209
102122445950001000000009034510032549PREGTIT24547987976032     000000000000594987810000000000000000000000000909010319000594987800000000000059498781280219000000001866723704150  000000000000000000000000000000000000000000000000000000000000000000000000000000000000000000000000000000000000000000000                          0000000000                                                                  000210
102122445950001000000009034510032549PREGTIT24546245664788     000000000000595001820000000000000000000000000909010319000595001800000000000059500182010319000000001083323704150  000000000000000000000000000000000000000000000000000000000000000000000000000000000000000000000000000000000000000000000                          0000000000                                                                  000211
102122445950001000000009034510032549PREGTIT25212289930271     000000000000595008830000000000000000000000000909010319000595008800000000000059500883100319000000002250023704150  000000000000000000000000000000000000000000000000000000000000000000000000000000000000000000000000000000000000000000000                          0000000000                                                                  000212
102122445950001000000009034510032549PREGTIT24882245217325     000000000000595073570000000000000000000000000909010319000595073500000000000059507357050319000000001166723704150  000000000000000000000000000000000000000000000000000000000000000000000000000000000000000000000000000000000000000000000                          0000000000                                                                  000213
102122445950001000000009034510032549PREGTIT24885174942186     000000000000595656080000000000000000000000000909010319000595656000000000000059565608050319000000002700023704150  000000000000000000000000000000000000000000000000000000000000000000000000000000000000000000000000000000000000000000000                          0000000000                                                                  000214
102122445950001000000009034510032549PREGTIT24992759471804     000000000000595688790000000000000000000000000909010319000595688700000000000059568879060319000000001300023704150  000000000000000000000000000000000000000000000000000000000000000000000000000000000000000000000000000000000000000000000                          0000000000                                                                  000215
102122445950001000000009034510032549PREGTIT24545110508273     000000000000595768120000000000000000000000000909010319000595768100000000000059576812280219000000002760023704150  000000000000000000000000000000000000000000000000000000000000000000000000000000000000000000000000000000000000000000000                          0000000000                                                                  000216
102122445950001000000009034510032549PREGTIT23357210859060     000000000000595964060000000000000000000000000909010319000595964000000000000059596406070219000000001750023704150  000000000000000000000000000000000000000000000000000000000000000000000000000000000000000000000000000000000000000000000                          0000000000                                                                  000217
102122445950001000000009034510032549PREGTIT22706044255929     000000000000595991620000000000000000000000000909010319000595991600000000000059599162030219000000000597923704150  000000000000000000000000000000000000000000000000000000000000000000000000000000000000000000000000000000000000000000000                          0000000000                                                                  000218
102122445950001000000009034510032549PREGTIT24094377207097     000000000000596611350000000000000000000000000909010319000596611300000000000059661135200219000000000416023704150  000000000000000000000000000000000000000000000000000000000000000000000000000000000000000000000000000000000000000000000                          0000000000                                                                  000219
102122445950001000000009034510032549PREGTIT26084377207097     000000000000596611430000000000000000000000000909010319000596611400000000000059661143200319000000000416023704150  000000000000000000000000000000000000000000000000000000000000000000000000000000000000000000000000000000000000000000000                          0000000000                                                                  000220
102122445950001000000009034510032549PREGTIT24885752550524     0000000000005966729P000000000000000000000000090901031900059667290000000000005966729P050319000000001760023704150  000000000000000000000000000000000000000000000000000000000000000000000000000000000000000000000000000000000000000000000                          0000000000                                                                  000221
102122445950001000000009034510032549PREGTIT25215952159095     0000000000005968321P000000000000000000000000090901031900059683210000000000005968321P100319000000000389623704150  000000000000000000000000000000000000000000000000000000000000000000000000000000000000000000000000000000000000000000000                          0000000000                                                                  000222
102122445950001000000009034510032549PREGTIT25217733981054     000000000000596832600000000000000000000000000909010319000596832600000000000059683260100319000000000517023704150  000000000000000000000000000000000000000000000000000000000000000000000000000000000000000000000000000000000000000000000                          0000000000                                                                  000223
102122445950001000000009034510032549PREGTIT24093052051203     000000000000596842910000000000000000000000000909010319000596842900000000000059684291150219000000000346923704150  000000000000000000000000000000000000000000000000000000000000000000000000000000000000000000000000000000000000000000000                          0000000000                                                                  000224
102122445950001000000009034510032549PREGTIT24212096607875     000000000000596855730000000000000000000000000909010319000596855700000000000059685573240219000000000274023704150  000000000000000000000000000000000000000000000000000000000000000000000000000000000000000000000000000000000000000000000                          0000000000                                                                  000225
102122445950001000000009034510032549PREGTIT25076193105710     000000000000596962570000000000000000000000000909010319000596962500000000000059696257280219000000001350023704150  000000000000000000000000000000000000000000000000000000000000000000000000000000000000000000000000000000000000000000000                          0000000000                                                                  000226
102122445950001000000009034510032549PREGTIT25764529121294     000000000000597592590000000000000000000000000909010319000597592500000000000059759259140219000000004250023704150  000000000000000000000000000000000000000000000000000000000000000000000000000000000000000000000000000000000000000000000                          0000000000                                                                  000227
102122445950001000000009034510032549PREGTIT26214320401110     000000000000597662040000000000000000000000000909010319000597662000000000000059766204050219000000004332623704150  000000000000000000000000000000000000000000000000000000000000000000000000000000000000000000000000000000000000000000000                          0000000000                                                                  000228
102122445950001000000009034510032549PREGTIT26421391324599     000000000000597709100000000000000000000000000909010319000597709100000000000059770910040319000000001900023704150  000000000000000000000000000000000000000000000000000000000000000000000000000000000000000000000000000000000000000000000                          0000000000                                                                  000229
102122445950001000000009034510032549PREGTIT26625128362373     000000000000597751060000000000000000000000000909010319000597751000000000000059775106260319000000000425023703451  000000000000000000000000000000000000000000000000000000000000000000000000000000000000000000000000000000000000000000000                          0000000000                                                                  000230
102122445950001000000009034510032549PREGTIT27626080420369     000000000000597901210000000000000000000000000909010319000597901200000000000059790121050319000000003766723704150  000000000000000000000000000000000000000000000000000000000000000000000000000000000000000000000000000000000000000000000                          0000000000                                                                  000231
102122445950001000000009034510032549PREGTIT27622786043613     000000000000597901640000000000000000000000000909010319000597901600000000000059790164050319000000000800023704150  000000000000000000000000000000000000000000000000000000000000000000000000000000000000000000000000000000000000000000000                          0000000000                                                                  000232
102122445950001000000009034510032549PREGTIT29232832353264     000000000000589788010000000000000000000000000927010319000589788000000000000058978801300419000000002500023700000  000000000000000000000000000000000000000000000000000000000000000000000000000000000000000000000000000000000000000000000                          6000000000                                                                  000233
102122445950001000000009034510032549PREGTIT29318908984507     000000000000591807220000000000000000000000000927010319000591807200000000000059180722200219000000001580023700000  000000000000000000000000000000000000000000000000000000000000000000000000000000000000000000000000000000000000000000000                          6000000000                                                                  000234
102122445950001000000009034510032549PREGTIT29346824625726     000000000000592810300000000000000000000000000927010319000592810300000000000059281030280219000000000837523700000  000000000000000000000000000000000000000000000000000000000000000000000000000000000000000000000000000000000000000000000                          6000000000                                                                  000235
102122445950001000000009034510032549PREGTIT29346185046252     000000000000592979800000000000000000000000000927010319000592979800000000000059297980040319000000000750023700000  000000000000000000000000000000000000000000000000000000000000000000000000000000000000000000000000000000000000000000000                          6000000000                                                                  000236
102122445950001000000009034510032549PREGTIT29231443441580     000000000000593734900000000000000000000000000927010319000593734900000000000059373490130219000000000750023700000  000000000000000000000000000000000000000000000000000000000000000000000000000000000000000000000000000000000000000000000                          6000000000                                                                  000237
102122445950001000000009034510032549PREGTIT29236604474973     000000000000593758410000000000000000000000000927010319000593758400000000000059375841150219000000000583323700000  000000000000000000000000000000000000000000000000000000000000000000000000000000000000000000000000000000000000000000000                          6000000000                                                                  000238
102122445950001000000009034510032549PREGTIT29334996239141     000000000000593989650000000000000000000000000927010319000593989600000000000059398965310119000000000327623700000  000000000000000000000000000000000000000000000000000000000000000000000000000000000000000000000000000000000000000000000                          6000000000                                                                  000239
102122445950001000000009034510032549PREGTIT29231693422864     000000000000594687770000000000000000000000000927010319000594687700000000000059468777050219000000001000023700000  000000000000000000000000000000000000000000000000000000000000000000000000000000000000000000000000000000000000000000000                          6000000000                                                                  000240
102122445950001000000009034510032549PREGTIT29231693422864     000000000000594687850000000000000000000000000927010319000594687800000000000059468785050319000000001000023700000  000000000000000000000000000000000000000000000000000000000000000000000000000000000000000000000000000000000000000000000                          6000000000                                                                  000241
102122445950001000000009034510032549PREGTIT29342405263806     000000000000594731930000000000000000000000000927010319000594731900000000000059473193070319000000001000023700000  000000000000000000000000000000000000000000000000000000000000000000000000000000000000000000000000000000000000000000000                          6000000000                                                                  000242
102122445950001000000009034510032549PREGTIT29231351711691     000000000000594737380000000000000000000000000927010319000594737300000000000059473738050319000000001700023700000  000000000000000000000000000000000000000000000000000000000000000000000000000000000000000000000000000000000000000000000                          6000000000                                                                  000243
102122445950001000000009034510032549PREGTIT29239816744931     000000000000594853530000000000000000000000000927010319000594853500000000000059485353200219000000000812523700000  000000000000000000000000000000000000000000000000000000000000000000000000000000000000000000000000000000000000000000000                          6000000000                                                                  000244
102122445950001000000009034510032549PREGTIT29287987976032     000000000000594987810000000000000000000000000927010319000594987800000000000059498781280219000000001866723700000  000000000000000000000000000000000000000000000000000000000000000000000000000000000000000000000000000000000000000000000                          6000000000                                                                  000245
102122445950001000000009034510032549PREGTIT29346245664788     000000000000595001820000000000000000000000000927010319000595001800000000000059500182010319000000001083323700000  000000000000000000000000000000000000000000000000000000000000000000000000000000000000000000000000000000000000000000000                          6000000000                                                                  000246
102122445950001000000009034510032549PREGTIT29262289930271     000000000000595008830000000000000000000000000927010319000595008800000000000059500883100319000000002250023700000  000000000000000000000000000000000000000000000000000000000000000000000000000000000000000000000000000000000000000000000                          6000000000                                                                  000247
102122445950001000000009034510032549PREGTIT29282245217325     000000000000595073570000000000000000000000000927010319000595073500000000000059507357050319000000001166723700000  000000000000000000000000000000000000000000000000000000000000000000000000000000000000000000000000000000000000000000000                          6000000000                                                                  000248
