02RETORNO01COBRANCA       00000000000004852239ISPCN ADM DE COBRANCA DE TITUL237BRADESCO       0703190160000000598                                                                                                                                                                                                                                                                          080319         000001
102122445950001000000009034510032549PREGTIT29766073648850     000000000000583921650000000000000000000000000902070319000583921600000000000058392165060519000000002100023704151  000000000014300000000000000000000000000000000000000000000000000000000000000000000000000000000000000000000000000000000                          0000000000                                                                  000002
102122445950001000000009034510032549PREGTIT29763920382997     000000000000590900730000000000000000000000000902070319000590900700000000000059090073060519000000000846023704157  000000000014300000000000000000000000000000000000000000000000000000000000000000000000000000000000000000000000000000000                          0000000000                                                                  000003
102122445950001000000009034510032549PREGTIT29763278162148     000000000000591992880000000000000000000000000902070319000591992800000000000059199288060519000000004100023704151  000000000014300000000000000000000000000000000000000000000000000000000000000000000000000000000000000000000000000000000                          0000000000                                                                  000004
102122445950001000000009034510032549PREGTIT29762441349041     000000000000592089370000000000000000000000000902070319000592089300000000000059208937060519000000001000023703451  000000000014300000000000000000000000000000000000000000000000000000000000000000000000000000000000000000000000000000000                          0000000000                                                                  000005
102122445950001000000009034510032549PREGTIT29766459679102     000000000000593019020000000000000000000000000902070319000593019000000000000059301902060519000000006960023704144  000000000014300000000000000000000000000000000000000000000000000000000000000000000000000000000000000000000000000000000                          0000000000                                                                  000006
102122445950001000000009034510032549PREGTIT29763672702088     000000000000593102430000000000000000000000000902070319000593102400000000000059310243060519000000001062523703451  000000000014300000000000000000000000000000000000000000000000000000000000000000000000000000000000000000000000000000000                          7600000000                                                                  000007
102122445950001000000009034510032549PREGTIT29764144689138     000000000000593123350000000000000000000000000902070319000593123300000000000059312335060519000000001120023703451  000000000014300000000000000000000000000000000000000000000000000000000000000000000000000000000000000000000000000000000                          0000000000                                                                  000008
102122445950001000000009034510032549PREGTIT29763098129319     000000000000593136330000000000000000000000000902070319000593136300000000000059313633060519000000001000023703451  000000000014300000000000000000000000000000000000000000000000000000000000000000000000000000000000000000000000000000000                          0000000000                                                                  000009
102122445950001000000009034510032549PREGTIT29761828378840     000000000000593148340000000000000000000000000902070319000593148300000000000059314834060519000000000950023703451  000000000014300000000000000000000000000000000000000000000000000000000000000000000000000000000000000000000000000000000                          0000000000                                                                  000010
102122445950001000000009034510032549PREGTIT29768972757479     000000000000593150240000000000000000000000000902070319000593150200000000000059315024060519000000001375023703451  000000000014300000000000000000000000000000000000000000000000000000000000000000000000000000000000000000000000000000000                          0000000000                                                                  000011
102122445950001000000009034510032549PREGTIT29766463026958     000000000000593153340000000000000000000000000902070319000593153300000000000059315334060519000000001150023703451  000000000014300000000000000000000000000000000000000000000000000000000000000000000000000000000000000000000000000000000                          0000000000                                                                  000012
102122445950001000000009034510032549PREGTIT29765874729487     000000000000593699730000000000000000000000000902070319000593699700000000000059369973060519000000000750023703451  000000000014300000000000000000000000000000000000000000000000000000000000000000000000000000000000000000000000000000000                          0000000000                                                                  000013
102122445950001000000009034510032549PREGTIT29763055740259     000000000000593701570000000000000000000000000902070319000593701500000000000059370157060519000000001650023703451  000000000014300000000000000000000000000000000000000000000000000000000000000000000000000000000000000000000000000000000                          0000000000                                                                  000014
102122445950001000000009034510032549PREGTIT29761689289977     000000000000593903360000000000000000000000000902070319000593903300000000000059390336060519000000003000023704151  000000000014300000000000000000000000000000000000000000000000000000000000000000000000000000000000000000000000000000000                          0000000000                                                                  000015
102122445950001000000009034510032549PREGTIT29764522443264     000000000000594688580000000000000000000000000902070319000594688500000000000059468858060519000000002628623703451  000000000014300000000000000000000000000000000000000000000000000000000000000000000000000000000000000000000000000000000                          0000000000                                                                  000016
102122445950001000000009034510032549PREGTIT29768995099411     000000000000595074970000000000000000000000000902070319000595074900000000000059507497060519000000001000023703451  000000000014300000000000000000000000000000000000000000000000000000000000000000000000000000000000000000000000000000000                          0000000000                                                                  000017
102122445950001000000009034510032549PREGTIT29762164950552     000000000000595098130000000000000000000000000902070319000595098100000000000059509813060519000000001583523703451  000000000014300000000000000000000000000000000000000000000000000000000000000000000000000000000000000000000000000000000                          0000000000                                                                  000018
102122445950001000000009034510032549PREGTIT29764003952340     000000000000595107140000000000000000000000000902070319000595107100000000000059510714060519000000000500023703451  000000000014300000000000000000000000000000000000000000000000000000000000000000000000000000000000000000000000000000000                          0000000000                                                                  000019
102122445950001000000009034510032549PREGTIT29764716791771     000000000000595115830000000000000000000000000902070319000595115800000000000059511583060519000000001250023703451  000000000014300000000000000000000000000000000000000000000000000000000000000000000000000000000000000000000000000000000                          0000000000                                                                  000020
102122445950001000000009034510032549PREGTIT29762759471804     000000000000595688950000000000000000000000000902070319000595688900000000000059568895060519000000001300023703451  000000000014300000000000000000000000000000000000000000000000000000000000000000000000000000000000000000000000000000000                          0000000000                                                                  000021
102122445950001000000009034510032549PREGTIT29762182841789     000000000000595737160000000000000000000000000902070319000595737100000000000059573716060519000000001083523703451  000000000014300000000000000000000000000000000000000000000000000000000000000000000000000000000000000000000000000000000                          7600000000                                                                  000022
102122445950001000000009034510032549PREGTIT29767084731422     000000000000595766690000000000000000000000000902070319000595766600000000000059576669060519000000001213523703451  000000000014300000000000000000000000000000000000000000000000000000000000000000000000000000000000000000000000000000000                          0000000000                                                                  000023
102122445950001000000009034510032549PREGTIT29771694187066     000000000000595818080000000000000000000000000902070319000595818000000000000059581808220419000000000740023703451  000000000014300000000000000000000000000000000000000000000000000000000000000000000000000000000000000000000000000000000                          7600000000                                                                  000024
102122445950001000000009034510032549PREGTIT29773898803587     000000000000595820300000000000000000000000000902070319000595820300000000000059582030220419000000000800023703451  000000000014300000000000000000000000000000000000000000000000000000000000000000000000000000000000000000000000000000000                          0000000000                                                                  000025
102122445950001000000009034510032549PREGTIT29764745742699     000000000000596015660000000000000000000000000902070319000596015600000000000059601566060519000000001964323703451  000000000014300000000000000000000000000000000000000000000000000000000000000000000000000000000000000000000000000000000                          0000000000                                                                  000026
102122445950001000000009034510032549PREGTIT29769488953546     000000000000596065170000000000000000000000000902070319000596065100000000000059606517060519000000004000023704151  000000000014300000000000000000000000000000000000000000000000000000000000000000000000000000000000000000000000000000000                          0000000000                                                                  000027
102122445950001000000009034510032549PREGTIT29768701121927     000000000000596068000000000000000000000000000902070319000596068000000000000059606800060519000000001633323703109  000000000014300000000000000000000000000000000000000000000000000000000000000000000000000000000000000000000000000000000                          7600000000                                                                  000028
102122445950001000000009034510032549PREGTIT29777365848003     000000000000596668110000000000000000000000000902070319000596668100000000000059666811120419000000000560023703451  000000000014300000000000000000000000000000000000000000000000000000000000000000000000000000000000000000000000000000000                          0000000000                                                                  000029
102122445950001000000009034510032549PREGTIT29764337621993     0000000000005968755P000000000000000000000000090207031900059687550000000000005968755P060519000000002500023704151  000000000014300000000000000000000000000000000000000000000000000000000000000000000000000000000000000000000000000000000                          0000000000                                                                  000030
102122445950001000000009034510032549PREGTIT29764430865343     000000000000596926260000000000000000000000000902070319000596926200000000000059692626060519000000001500023703109  000000000014300000000000000000000000000000000000000000000000000000000000000000000000000000000000000000000000000000000                          0000000000                                                                  000031
102122445950001000000009034510032549PREGTIT29768208489231     000000000000597600870000000000000000000000000902070319000597600800000000000059760087060519000000001083323704144  000000000014300000000000000000000000000000000000000000000000000000000000000000000000000000000000000000000000000000000                          0000000000                                                                  000032
102122445950001000000009034510032549PREGTIT29763415530357     000000000000597862800000000000000000000000000902070319000597862800000000000059786280060519000000000896523704157  000000000014300000000000000000000000000000000000000000000000000000000000000000000000000000000000000000000000000000000                          0000000000                                                                  000033
102122445950001000000009034510032549PREGTIT29778364360079     000000000000597912920000000000000000000000000902070319000597912900000000000059791292110419000000000550023703451  000000000014300000000000000000000000000000000000000000000000000000000000000000000000000000000000000000000000000000000                          0000000000                                                                  000034
102122445950001000000009034510032549PREGTIT29764117544057     000000000000598605610000000000000000000000000902070319000598605600000000000059860561060519000000013333323704151  000000000014300000000000000000000000000000000000000000000000000000000000000000000000000000000000000000000000000000000                          0000000000                                                                  000035
102122445950001000000009034510032549PREGTIT29769210442499     000000000000598642730000000000000000000000000902070319000598642700000000000059864273060519000000000831723704144  000000000014300000000000000000000000000000000000000000000000000000000000000000000000000000000000000000000000000000000                          0000000000                                                                  000036
102122445950001000000009034510032549PREGTIT29764806913683     000000000000598660470000000000000000000000000902070319000598660400000000000059866047060519000000002000023704274  000000000014300000000000000000000000000000000000000000000000000000000000000000000000000000000000000000000000000000000                          0000000000                                                                  000037
102122445950001000000009034510032549PREGTIT29764336605928     000000000000598666830000000000000000000000000902070319000598666800000000000059866683060519000000001419423704144  000000000014300000000000000000000000000000000000000000000000000000000000000000000000000000000000000000000000000000000                          0000000000                                                                  000038
102122445950001000000009034510032549PREGTIT29762138192893     000000000000598668610000000000000000000000000902070319000598668600000000000059866861060519000000001250023704422  000000000014300000000000000000000000000000000000000000000000000000000000000000000000000000000000000000000000000000000                          0000000000                                                                  000039
102122445950001000000009034510032549PREGTIT29764024595953     000000000000598669260000000000000000000000000902070319000598669200000000000059866926150319000000007000023704157  000000000014300000000000000000000000000000000000000000000000000000000000000000000000000000000000000000000000000000000                          7600000000                                                                  000040
102122445950001000000009034510032549PREGTIT29761473171632     000000000000598669340000000000000000000000000902070319000598669300000000000059866934140319000000009000023704157  000000000014300000000000000000000000000000000000000000000000000000000000000000000000000000000000000000000000000000000                          0000000000                                                                  000041
102122445950001000000009034510032549PREGTIT29765968279842     000000000000598669420000000000000000000000000902070319000598669400000000000059866942150419000000003560023704422  000000000014300000000000000000000000000000000000000000000000000000000000000000000000000000000000000000000000000000000                          0000000000                                                                  000042
102122445950001000000009034510032549PREGTIT29785518212657     000000000000598670510000000000000000000000000902070319000598670500000000000059867051200319000000011678023704144  000000000014300000000000000000000000000000000000000000000000000000000000000000000000000000000000000000000000000000000                          7600000000                                                                  000043
102122445950001000000009034510032549PREGTIT29786647819040     0000000000005986706P000000000000000000000000090207031900059867060000000000005986706P200319000000011678023704144  000000000014300000000000000000000000000000000000000000000000000000000000000000000000000000000000000000000000000000000                          7600000000                                                                  000044
102122445950001000000009034510032549PREGTIT29784569783769     000000000000598670780000000000000000000000000902070319000598670700000000000059867078200319000000011678023704144  000000000014300000000000000000000000000000000000000000000000000000000000000000000000000000000000000000000000000000000                          7600000000                                                                  000045
102122445950001000000009034510032549PREGTIT29792531356943     000000000000598670940000000000000000000000000902070319000598670900000000000059867094070319000000003500023704144  000000000014300000000000000000000000000000000000000000000000000000000000000000000000000000000000000000000000000000000                          0000000000                                                                  000046
102122445950001000000009034510032549PREGTIT29793729740335     000000000000598671080000000000000000000000000902070319000598671000000000000059867108300419000000002000023703109  000000000014300000000000000000000000000000000000000000000000000000000000000000000000000000000000000000000000000000000                          0000000000                                                                  000047
102122445950001000000009034510032549PREGTIT29814220244627     000000000000598671240000000000000000000000000902070319000598671200000000000059867124300319000000003248623704151  000000000014300000000000000000000000000000000000000000000000000000000000000000000000000000000000000000000000000000000                          0000000000                                                                  000048
102122445950001000000009034510032549PREGTIT29814220244627     000000000000598671320000000000000000000000000902070319000598671300000000000059867132300419000000003248623704151  000000000014300000000000000000000000000000000000000000000000000000000000000000000000000000000000000000000000000000000                          0000000000                                                                  000049
102122445950001000000009034510032549PREGTIT29829960313658     000000000000598671590000000000000000000000000902070319000598671500000000000059867159050419000000010000023704144  000000000014300000000000000000000000000000000000000000000000000000000000000000000000000000000000000000000000000000000                          0000000000                                                                  000050
102122445950001000000009034510032549PREGTIT29828395826704     000000000000598671670000000000000000000000000902070319000598671600000000000059867167020419000000004500023704144  000000000014300000000000000000000000000000000000000000000000000000000000000000000000000000000000000000000000000000000                          7600000000                                                                  000051
102122445950001000000009034510032549PREGTIT29822292322044     000000000000598671750000000000000000000000000902070319000598671700000000000059867175250319000000002500023704144  000000000014300000000000000000000000000000000000000000000000000000000000000000000000000000000000000000000000000000000                          0000000000                                                                  000052
102122445950001000000009034510032549PREGTIT29845707637895     000000000000598674180000000000000000000000000902070319000598674100000000000059867418110319000000001680023704157  000000000014300000000000000000000000000000000000000000000000000000000000000000000000000000000000000000000000000000000                          0000000000                                                                  000053
102122445950001000000009034510032549PREGTIT29845707637895     000000000000598674260000000000000000000000000902070319000598674200000000000059867426110419000000001680023704157  000000000014300000000000000000000000000000000000000000000000000000000000000000000000000000000000000000000000000000000                          0000000000                                                                  000054
102122445950001000000009034510032549PREGTIT29859460225436     0000000000005986754P000000000000000000000000090207031900059867540000000000005986754P220419000000002000023704151  000000000014300000000000000000000000000000000000000000000000000000000000000000000000000000000000000000000000000000000                          0000000000                                                                  000055
102122445950001000000009034510032549PREGTIT29855536765762     000000000000598676630000000000000000000000000902070319000598676600000000000059867663160419000000003200023704151  000000000014300000000000000000000000000000000000000000000000000000000000000000000000000000000000000000000000000000000                          0000000000                                                                  000056
102122445950001000000009034510032549PREGTIT25213824495238     000000000000585426040000000000000000000000000906070319000585426000000000000058542604100319000000003000010401002  000000000000000000000000000000000000000000000000000000000000000000000000000000000000003000000000000000000000000000000   080319             00000000000000                                                                  000057
102122445950001000000009034510032549PREGTIT24994328592949     000000000000587472730000000000000000000000000906070319000587472700000000000058747273070319000000005000010403866  000000000000000000000000000000000000000000000000000000000000000000000000000000000000005000000000000000000000000000000   080319             00000000000000                                                                  000058
102122445950001000000009034510032549PREGTIT23247120754313     000000000000589065330000000000000000000000000906070319000589065300000000000058906533100219000000003500023701204  000000000000000000000000000000000000000000000000000000000000000000000000000000000000003627500000000012750000000000000   080319             00000000000000                                                                  000059
102122445950001000000009034510032549PREGTIT23564313128979     000000000000589529850000000000000000000000000906070319000589529800000000000058952985150219000000001000065500001  000000000000000000000000000000000000000000000000000000000000000000000000000000000000001034000000000003400000000000000   080319             00000000000000                                                                  000060
102122445950001000000009034510032549PREGTIT25322346099528     0000000000005896374P000000000000000000000000090607031900058963740000000000005896374P110319000000001372723701204  000000000000000000000000000000000000000000000000000000000000000000000000000000000000001372700000000000000000000000000   080319             00000000000000                                                                  000061
102122445950001000000009034510032549PREGTIT25543832674593     000000000000589789680000000000000000000000000906070319000589789600000000000058978968150319000000001650007000663  000000000000000000000000000000000000000000000000000000000000000000000000000000000000001650000000000000000000000000000   080319             00000000000000                                                                  000062
102122445950001000000009034510032549PREGTIT25548153769580     000000000000590240700000000000000000000000000906070319000590240700000000000059024070150319000000000720010402485  000000000000000000000000000000000000000000000000000000000000000000000000000000000000000720000000000000000000000000000   080319             00000000000000                                                                  000063
102122445950001000000009034510032549PREGTIT25542693665929     000000000000590254680000000000000000000000000906070319000590254600000000000059025468150319000000000720010403144  000000000000000000000000000000000000000000000000000000000000000000000000000000000000000720000000000000000000000000000   080319             00000000000000                                                                  000064
102122445950001000000009034510032549PREGTIT25541163682730     000000000000590257940000000000000000000000000906070319000590257900000000000059025794150319000000000720010401464  000000000000000000000000000000000000000000000000000000000000000000000000000000000000000720000000000000000000000000000   080319             00000000000000                                                                  000065
102122445950001000000009034510032549PREGTIT25544593910409     000000000000590267070000000000000000000000000906070319000590267000000000000059026707150319000000000720010402485  000000000000000000000000000000000000000000000000000000000000000000000000000000000000000720000000000000000000000000000   080319             00000000000000                                                                  000066
102122445950001000000009034510032549PREGTIT24435507406902     000000000000590933740000000000000000000000000906070319000590933700000000000059093374260219000000003500034100568  000000000000000000000000000000000000000000000000000000000000000000000000000000000000003590700000000009070000000000000   080319             00000000000000                                                                  000067
102122445950001000000009034510032549PREGTIT23249990125087     000000000000591071890000000000000000000000000906070319000591071800000000000059107189100219000000002900023701194  000000000000000000000000000000000000000000000000000000000000000000000000000000000000003078000000000017800000000000000   080319             00000000000000                                                                  000068
102122445950001000000009034510032549PREGTIT24888418727372     000000000000591098660000000000000000000000000906070319000591098600000000000059109866050319000000001500023700327  000000000000000000000000000000000000000000000000000000000000000000000000000000000000001532000000000003200000000000000   080319             00000000000000                                                                  000069
102122445950001000000009034510032549PREGTIT25215615489288     000000000000591102520000000000000000000000000906070319000591102500000000000059110252100319000000001790075605004  000000000000000000000000000000000000000000000000000000000000000000000000000000000000001790000000000000000000000000000   080319             00000000000000                                                                  000070
102122445950001000000009034510032549PREGTIT25542403579167     000000000000592645270000000000000000000000000906070319000592645200000000000059264527130319000000000622010403753  000000000000000000000000000000000000000000000000000000000000000000000000000000000000000622000000000000000000000000000   080319             00000000000000                                                                  000071
102122445950001000000009034510032549PREGTIT24998968267382     000000000000592837500000000000000000000000000906070319000592837500000000000059283750080319000000002100010404071  000000000000000000000000000000000000000000000000000000000000000000000000000000000000002100000000000000000000000000000   080319             00000000000000                                                                  000072
102122445950001000000009034510032549PREGTIT24095834313829     000000000000592846680000000000000000000000000906070319000592846600000000000059284668200219000000001000010400551  000000000000000000000000000000000000000000000000000000000000000000000000000000000000001030500000000003050000000000000   080319             00000000000000                                                                  000073
102122445950001000000009034510032549PREGTIT24996459679102     000000000000593018800000000000000000000000000906070319000593018800000000000059301880060319000000006960023705673  000000000000000000000000000000000000000000000000000000000000000000000000000000000000007103800000000014380000000000000   080319             00000000000000                                                                  000074
102122445950001000000009034510032549PREGTIT24882481926186     000000000000593022590000000000000000000000000906070319000593022500000000000059302259050319000000001163323701031  000000000000000000000000000000000000000000000000000000000000000000000000000000000000001188100000000002480000000000000   080319             00000000000000                                                                  000075
102122445950001000000009034510032549PREGTIT24328841060408     000000000000594003660000000000000000000000000906070319000594003600000000000059400366250219000000001250010400551  000000000000000000000000000000000000000000000000000000000000000000000000000000000000001283000000000003300000000000000   080319             00000000000000                                                                  000076
102122445950001000000009034510032549PREGTIT25212422790928     000000000000594050580000000000000000000000000906070319000594050500000000000059405058100319000000005280003303726  000000000000000000000000000000000000000000000000000000000000000000000000000000000000005280000000000000000000000000000   080319             00000000000000                                                                  000077
102122445950001000000009034510032549PREGTIT25068154338606     000000000000594104930000000000000000000000000906070319000594104900000000000059410493070319000000000500023700109  000000000000000000000000000000000000000000000000000000000000000000000000000000000000000500000000000000000000000000000   080319             00000000000000                                                                  000078
102122445950001000000009034510032549PREGTIT25217547594445     000000000000594118800000000000000000000000000906070319000594118800000000000059411880100319000000002000010402985  000000000000000000000000000000000000000000000000000000000000000000000000000000000000002000000000000000000000000000000   080319             00000000000000                                                                  000079
102122445950001000000009034510032549PREGTIT24884111378552     000000000000594127980000000000000000000000000906070319000594127900000000000059412798050319000000001100023703101  000000000000000000000000000000000000000000000000000000000000000000000000000000000000001100000000000000000000000000000   080319             00000000000000                                                                  000080
102122445950001000000009034510032549PREGTIT24883530509380     000000000000594631710000000000000000000000000906070319000594631700000000000059463171050319000000003550023701219  000000000000000000000000000000000000000000000000000000000000000000000000000000000000003625800000000007580000000000000   080319             00000000000000                                                                  000081
102122445950001000000009034510032549PREGTIT25217443475652     000000000000594691960000000000000000000000000906070319000594691900000000000059469196100319000000001400010400016  000000000000000000000000000000000000000000000000000000000000000000000000000000000000001400000000000000000000000000000   080319             00000000000000                                                                  000082
102122445950001000000009034510032549PREGTIT24098330466395     000000000000594702320000000000000000000000000906070319000594702300000000000059470232200219000000000200023701311  000000000000000000000000000000000000000000000000000000000000000000000000000000000000000205500000000000550000000000000   080319             00000000000000                                                                  000083
102122445950001000000009034510032549PREGTIT24887830276712     000000000000594831640000000000000000000000000906070319000594831600000000000059483164050319000000007833303303985  000000000000000000000000000000000000000000000000000000000000000000000000000000000000008000300000000016700000000000000   080319             00000000000000                                                                  000084
102122445950001000000009034510032549PREGTIT24888739899214     000000000000594837410000000000000000000000000906070319000594837400000000000059483741050319000000004040000103663  000000000000000000000000000000000000000000000000000000000000000000000000000000000000004126200000000008620000000000000   080319             00000000000000                                                                  000085
102122445950001000000009034510032549PREGTIT25219985667897     000000000000594849340000000000000000000000000906070319000594849300000000000059484934100319000000001200023702861  000000000000000000000000000000000000000000000000000000000000000000000000000000000000001200000000000000000000000000000   080319             00000000000000                                                                  000086
102122445950001000000009034510032549PREGTIT25211858797185     000000000000594877120000000000000000000000000906070319000594877100000000000059487712100319000000003000010403866  000000000000000000000000000000000000000000000000000000000000000000000000000000000000003000000000000000000000000000000   080319             00000000000000                                                                  000087
102122445950001000000009034510032549PREGTIT24328385801493     0000000000005949185P000000000000000000000000090607031900059491850000000000005949185P250219000000001600003303585  000000000000000000000000000000000000000000000000000000000000000000000000000000000000001643000000000004300000000000000   080319             00000000000000                                                                  000088
102122445950001000000009034510032549PREGTIT24544549332488     000000000000595004410000000000000000000000000906070319000595004400000000000059500441280219000000006602234100572  000000000000000000000000000000000000000000000000000000000000000000000000000000000000006765000000000016280000000000000   080319             00000000000000                                                                  000089
102122445950001000000009034510032549PREGTIT24434441182787     000000000000595021930000000000000000000000000906070319000595021900000000000059502193260219000000001944934106499  000000000000000000000000000000000000000000000000000000000000000000000000000000000000001995400000000005050000000000000   080319             00000000000000                                                                  000090
102122445950001000000009034510032549PREGTIT24888486862339     000000000000595053890000000000000000000000000906070319000595053800000000000059505389050319000000000833300105815  000000000000000000000000000000000000000000000000000000000000000000000000000000000000000833300000000000000000000000000   080319             00000000000000                                                                  000091
102122445950001000000009034510032549PREGTIT22269141363112     000000000000595094060000000000000000000000000906070319000595094000000000000059509406280119000000002333310404524  000000000000000000000000000000000000000000000000000000000000000000000000000000000000002440700000000010740000000000000   080319             00000000000000                                                                  000092
102122445950001000000009034510032549PREGTIT24995391043540     000000000000595098560000000000000000000000000906070319000595098500000000000059509856070319000000003049703300950  000000000000000000000000000000000000000000000000000000000000000000000000000000000000003049700000000000000000000000000   080319             00000000000000                                                                  000093
102122445950001000000009034510032549PREGTIT25658291895844     0000000000005951048P000000000000000000000000090607031900059510480000000000005951048P160319000000003250010400278  000000000000000000000000000000000000000000000000000000000000000000000000000000000000003250000000000000000000000000000   080319             00000000000000                                                                  000094
102122445950001000000009034510032549PREGTIT25377812374519     0000000000005951244P000000000000000000000000090607031900059512440000000000005951244P070319000000001500023702296  000000000000000000000000000000000000000000000000000000000000000000000000000000000000001500000000000000000000000000000   080319             00000000000000                                                                  000095
102122445950001000000009034510032549PREGTIT20685196640441     000000000000595130390000000000000000000000000906070319000595130300000000000059513039281218000000001533310400551  000000000000000000000000000000000000000000000000000000000000000000000000000000000000001632900000000009960000000000000   080319             00000000000000                                                                  000096
102122445950001000000009034510032549PREGTIT22265196640441     000000000000595130470000000000000000000000000906070319000595130400000000000059513047280119000000001533310400551  000000000000000000000000000000000000000000000000000000000000000000000000000000000000001601900000000006860000000000000   080319             00000000000000                                                                  000097
102122445950001000000009034510032549PREGTIT24545196640441     000000000000595130550000000000000000000000000906070319000595130500000000000059513055280219000000001533310400551  000000000000000000000000000000000000000000000000000000000000000000000000000000000000001570900000000003760000000000000   080319             00000000000000                                                                  000098
102122445950001000000009034510032549PREGTIT25548292074609     0000000000005957335P000000000000000000000000090607031900059573350000000000005957335P140319000000003000023706574  000000000000000000000000000000000000000000000000000000000000000000000000000000000000003000000000000000000000000000000   080319             00000000000000                                                                  000099
102122445950001000000009034510032549PREGTIT25656077880209     000000000000595738990000000000000000000000000906070319000595738900000000000059573899160319000000001500000104862  000000000000000000000000000000000000000000000000000000000000000000000000000000000000001500000000000000000000000000000   080319             00000000000000                                                                  000100
102122445950001000000009034510032549PREGTIT25542159130457     0000000000005957805P000000000000000000000000090607031900059578050000000000005957805P150319000000001861007000053  000000000000000000000000000000000000000000000000000000000000000000000000000000000000001861000000000000000000000000000   080319             00000000000000                                                                  000101
102122445950001000000009034510032549PREGTIT25219741193730     000000000000595861410000000000000000000000000906070319000595861400000000000059586141100319000000002166710400790  000000000000000000000000000000000000000000000000000000000000000000000000000000000000002166700000000000000000000000000   080319             00000000000000                                                                  000102
102122445950001000000009034510032549PREGTIT27718640222280     000000000000595862220000000000000000000000000906070319000595862200000000000059586222100419000000001000010402985  000000000000000000000000000000000000000000000000000000000000000000000000000000000000001000000000000000000000000000000   080319             00000000000000                                                                  000103
102122445950001000000009034510032549PREGTIT25217354345743     000000000000595864860000000000000000000000000906070319000595864800000000000059586486100319000000000356010403753  000000000000000000000000000000000000000000000000000000000000000000000000000000000000000356000000000000000000000000000   080319             00000000000000                                                                  000104
102122445950001000000009034510032549PREGTIT24548877939362     000000000000595879620000000000000000000000000906070319000595879600000000000059587962280219000000001166700105664  000000000000000000000000000000000000000000000000000000000000000000000000000000000000001195600000000002890000000000000   080319             00000000000000                                                                  000105
102122445950001000000009034510032549PREGTIT25216157166651     000000000000595947480000000000000000000000000906070319000595947400000000000059594748100319000000003062910401952  000000000000000000000000000000000000000000000000000000000000000000000000000000000000003062900000000000000000000000000   080319             00000000000000                                                                  000106
102122445950001000000009034510032549PREGTIT25216531758933     000000000000595997230000000000000000000000000906070319000595997200000000000059599723100319000000001333334107590  000000000000000000000000000000000000000000000000000000000000000000000000000000000000001333300000000000000000000000000   080319             00000000000000                                                                  000107
102122445950001000000009034510032549PREGTIT25014745742699     0000000000005960154P000000000000000000000000090607031900059601540000000000005960154P080319000000001964304100219  000000000000000000000000000000000000000000000000000000000000000000000000000000000000001964300000000000000000000000000   080319             00000000000000                                                                  000108
102122445950001000000009034510032549PREGTIT22865554757188     000000000000596572350000000000000000000000000906070319000596572300000000000059657235060119000000001500023700487  000000000000000000000000000000000000000000000000000000000000000000000000000000000000001590000000000009000000000000000   080319             00000000000000                                                                  000109
102122445950001000000009034510032549PREGTIT25126793469633     000000000000596593350000000000000000000000000906070319000596593300000000000059659335070319000000000765774807154  000000000000000000000000000000000000000000000000000000000000000000000000000000000000000765700000000000000000000000000   080319             00000000000000                                                                  000110
102122445950001000000009034510032549PREGTIT25214178738585     000000000000596629720000000000000000000000000906070319000596629700000000000059662972100319000000001400023700520  000000000000000000000000000000000000000000000000000000000000000000000000000000000000001400000000000000000000000000000   080319             00000000000000                                                                  000111
102122445950001000000009034510032549PREGTIT25434795970403     000000000000596678690000000000000000000000000906070319000596678600000000000059667869120319000000000368310403753  000000000000000000000000000000000000000000000000000000000000000000000000000000000000000368300000000000000000000000000   080319             00000000000000                                                                  000112
102122445950001000000009034510032549PREGTIT25216966101208     000000000000596693220000000000000000000000000906070319000596693200000000000059669322100319000000002200010401389  000000000000000000000000000000000000000000000000000000000000000000000000000000000000002200000000000000000000000000000   080319             00000000000000                                                                  000113
102122445950001000000009034510032549PREGTIT24541325889999     000000000000596693570000000000000000000000000906070319000596693500000000000059669357280219000000001750023701821  000000000000000000000000000000000000000000000000000000000000000000000000000000000000001793400000000004340000000000000   080319             00000000000000                                                                  000114
102122445950001000000009034510032549PREGTIT23886778565694     0000000000005967198P000000000000000000000000090607031900059671980000000000005967198P180219000000001825010404786  000000000000000000000000000000000000000000000000000000000000000000000000000000000000001881900000000005690000000000000   080319             00000000000000                                                                  000115
102122445950001000000009034510032549PREGTIT25212524208997     000000000000596800400000000000000000000000000906070319000596800400000000000059680040100319000000000669310403753  000000000000000000000000000000000000000000000000000000000000000000000000000000000000000669300000000000000000000000000   080319             00000000000000                                                                  000116
102122445950001000000009034510032549PREGTIT25215449476867     000000000000596810550000000000000000000000000906070319000596810500000000000059681055100319000000001000003303585  000000000000000000000000000000000000000000000000000000000000000000000000000000000000001000000000000000000000000000000   080319             00000000000000                                                                  000117
102122445950001000000009034510032549PREGTIT24994337621993     000000000000596875330000000000000000000000000906070319000596875300000000000059687533060319000000002500003300210  000000000000000000000000000000000000000000000000000000000000000000000000000000000000002551700000000005170000000000000   080319             00000000000000                                                                  000118
102122445950001000000009034510032549PREGTIT25123169103653     000000000000596970750000000000000000000000000906070319000596970700000000000059697075070319000000003959734107444  000000000000000000000000000000000000000000000000000000000000000000000000000000000000003959700000000000000000000000000   080319             00000000000000                                                                  000119
102122445950001000000009034510032549PREGTIT25339254520038     000000000000597008820000000000000000000000000906070319000597008800000000000059700882100319000000000800010402864  000000000000000000000000000000000000000000000000000000000000000000000000000000000000000800000000000000000000000000000   080319             00000000000000                                                                  000120
102122445950001000000009034510032549PREGTIT25549773449930     000000000000597539190000000000000000000000000906070319000597539100000000000059753919100319000000000795010400998  000000000000000000000000000000000000000000000000000000000000000000000000000000000000000795000000000000000000000000000   080319             00000000000000                                                                  000121
102122445950001000000009034510032549PREGTIT26407871384430     000000000000597707240000000000000000000000000906070319000597707200000000000059770724010319000000006610075604368  000000000000000000000000000000000000000000000000000000000000000000000000000000000000006874200000000026420000000000000   080319             00000000000000                                                                  000122
102122445950001000000009034510032549PREGTIT27068997009193     000000000000597814590000000000000000000000000906070319000597814500000000000059781459040319000000001350010400807  000000000000000000000000000000000000000000000000000000000000000000000000000000000000001379700000000002970000000000000   080319             00000000000000                                                                  000123
102122445950001000000009034510032549PREGTIT27206165368825     000000000000597839150000000000000000000000000906070319000597839100000000000059783915050319000000001672310401851  000000000000000000000000000000000000000000000000000000000000000000000000000000000000001707900000000003560000000000000   080319             00000000000000                                                                  000124
102122445950001000000009034510032549PREGTIT27241330471473     000000000000597844230000000000000000000000000906070319000597844200000000000059784423040319000000000200010401102  000000000000000000000000000000000000000000000000000000000000000000000000000000000000000204300000000000430000000000000   080319             00000000000000                                                                  000125
102122445950001000000009034510032549PREGTIT27452597851484     000000000000597877750000000000000000000000000906070319000597877700000000000059787775100319000000000334510403753  000000000000000000000000000000000000000000000000000000000000000000000000000000000000000334500000000000000000000000000   080319             00000000000000                                                                  000126
102122445950001000000009034510032549PREGTIT27451516777281     000000000000597878130000000000000000000000000906070319000597878100000000000059787813100319000000000346710403753  000000000000000000000000000000000000000000000000000000000000000000000000000000000000000346700000000000000000000000000   080319             00000000000000                                                                  000127
102122445950001000000009034510032549PREGTIT27682051273211     0000000000005979089P000000000000000000000000090607031900059790890000000000005979089P100319000000004000010401365  000000000000000000000000000000000000000000000000000000000000000000000000000000000000004000000000000000000000000000000   080319             00000000000000                                                                  000128
102122445950001000000009034510032549PREGTIT27935426791318     000000000000598447870000000000000000000000000906070319000598447800000000000059844787120319000000001175003300336  000000000000000000000000000000000000000000000000000000000000000000000000000000000000001175000000000000000000000000000   080319             00000000000000                                                                  000129
102122445950001000000009034510032549PREGTIT27956237974212     0000000000005984549P000000000000000000000000090607031900059845490000000000005984549P070319000000004035034101338  000000000000000000000000000000000000000000000000000000000000000000000000000000000000004035000000000000000000000000000   080319             00000000000000                                                                  000130
102122445950001000000009034510032549PREGTIT27953092533138     000000000000598455030000000000000000000000000906070319000598455000000000000059845503070319000000001500034101338  000000000000000000000000000000000000000000000000000000000000000000000000000000000000001500000000000000000000000000000   080319             00000000000000                                                                  000131
102122445950001000000009034510032549PREGTIT28036290173244     000000000000598474760000000000000000000000000906070319000598474700000000000059847476050319000000003383310401282  000000000000000000000000000000000000000000000000000000000000000000000000000000000000003455500000000007220000000000000   080319             00000000000000                                                                  000132
102122445950001000000009034510032549PREGTIT28043048250418     000000000000598475650000000000000000000000000906070319000598475600000000000059847565140319000000002553210401952  000000000000000000000000000000000000000000000000000000000000000000000000000000000000002553200000000000000000000000000   080319             00000000000000                                                                  000133
102122445950001000000009034510032549PREGTIT28177974918737     0000000000005984938P000000000000000000000000090607031900059849380000000000005984938P080319000000002750010400686  000000000000000000000000000000000000000000000000000000000000000000000000000000000000002750000000000000000000000000000   080319             00000000000000                                                                  000134
102122445950001000000009034510032549PREGTIT28392128316147     000000000000598542000000000000000000000000000906070319000598542000000000000059854200050319000000004420034101478  000000000000000000000000000000000000000000000000000000000000000000000000000000000000004420000000000000000000000000000   080319             00000000000000                                                                  000135
102122445950001000000009034510032549PREGTIT28538507387538     000000000000598557110000000000000000000000000906070319000598557100000000000059855711100319000000001000034107285  000000000000000000000000000000000000000000000000000000000000000000000000000000000000001000000000000000000000000000000   080319             00000000000000                                                                  000136
102122445950001000000009034510032549PREGTIT28805346855666     000000000000598580950000000000000000000000000906070319000598580900000000000059858095100319000000000900000106657  000000000000000000000000000000000000000000000000000000000000000000000000000000000000000900000000000000000000000000000   080319             00000000000000                                                                  000137
102122445950001000000009034510032549PREGTIT29309210442499     000000000000598642570000000000000000000000000906070319000598642500000000000059864257060319000000000831710400406  000000000000000000000000000000000000000000000000000000000000000000000000000000000000000848900000000001720000000000000   080319             00000000000000                                                                  000138
102122445950001000000009034510032549PREGTIT29372320600044     000000000000598654150000000000000000000000000906070319000598654100000000000059865415100319000000002600023700520  000000000000000000000000000000000000000000000000000000000000000000000000000000000000002600000000000000000000000000000   080319             00000000000000                                                                  000139
102122445950001000000009034510032549PREGTIT26083093308206     000000000000584246600000000000000000000000000909070319000584246600000000000058424660210319000000002000023704150  000000000000000000000000000000000000000000000000000000000000000000000000000000000000000000000000000000000000000000000                          0000000000                                                                  000140
102122445950001000000009034510032549PREGTIT23248081524028     000000000000586944470000000000000000000000000909070319000586944400000000000058694447100219000000001000023704150  000000000000000000000000000000000000000000000000000000000000000000000000000000000000000000000000000000000000000000000                          0000000000                                                                  000141
102122445950001000000009034510032549PREGTIT24548307268218     000000000000590066410000000000000000000000000909070319000590066400000000000059006641280219000000000460023704150  000000000000000000000000000000000000000000000000000000000000000000000000000000000000000000000000000000000000000000000                          0000000000                                                                  000142
102122445950001000000009034510032549PREGTIT26628307268218     0000000000005900665P000000000000000000000000090907031900059006650000000000005900665P280319000000000460023704150  000000000000000000000000000000000000000000000000000000000000000000000000000000000000000000000000000000000000000000000                          0000000000                                                                  000143
102122445950001000000009034510032549PREGTIT25213169207399     000000000000591132190000000000000000000000000909070319000591132100000000000059113219100319000000000700023704150  000000000000000000000000000000000000000000000000000000000000000000000000000000000000000000000000000000000000000000000                          0000000000                                                                  000144
102122445950001000000009034510032549PREGTIT25545443477622     000000000000591714210000000000000000000000000909070319000591714200000000000059171421130319000000000411323704150  000000000000000000000000000000000000000000000000000000000000000000000000000000000000000000000000000000000000000000000                          0000000000                                                                  000145
102122445950001000000009034510032549PREGTIT25542563638062     000000000000591858800000000000000000000000000909070319000591858800000000000059185880150319000000005600023704150  000000000000000000000000000000000000000000000000000000000000000000000000000000000000000000000000000000000000000000000                          0000000000                                                                  000146
102122445950001000000009034510032549PREGTIT25104237266311     000000000000592598680000000000000000000000000909070319000592598600000000000059259868090319000000000400523704150  000000000000000000000000000000000000000000000000000000000000000000000000000000000000000000000000000000000000000000000                          0000000000                                                                  000147
102122445950001000000009034510032549PREGTIT23567486579236     000000000000592632020000000000000000000000000909070319000592632000000000000059263202150219000000004500023704150  000000000000000000000000000000000000000000000000000000000000000000000000000000000000000000000000000000000000000000000                          0000000000                                                                  000148
102122445950001000000009034510032549PREGTIT23564296081575     000000000000592680770000000000000000000000000909070319000592680700000000000059268077150219000000003460023704150  000000000000000000000000000000000000000000000000000000000000000000000000000000000000000000000000000000000000000000000                          0000000000                                                                  000149
102122445950001000000009034510032549PREGTIT23565788222257     000000000000592772620000000000000000000000000909070319000592772600000000000059277262150219000000001083523704150  000000000000000000000000000000000000000000000000000000000000000000000000000000000000000000000000000000000000000000000                          0000000000                                                                  000150
102122445950001000000009034510032549PREGTIT24543624628682     000000000000593994570000000000000000000000000909070319000593994500000000000059399457280219000000001250023704150  000000000000000000000000000000000000000000000000000000000000000000000000000000000000000000000000000000000000000000000                          0000000000                                                                  000151
102122445950001000000009034510032549PREGTIT25216038185792     000000000000594062320000000000000000000000000909070319000594062300000000000059406232100319000000001250023704150  000000000000000000000000000000000000000000000000000000000000000000000000000000000000000000000000000000000000000000000                          0000000000                                                                  000152
102122445950001000000009034510032549PREGTIT25215559749719     000000000000594670450000000000000000000000000909070319000594670400000000000059467045100319000000000688623704150  000000000000000000000000000000000000000000000000000000000000000000000000000000000000000000000000000000000000000000000                          0000000000                                                                  000153
102122445950001000000009034510032549PREGTIT24098230935393     000000000000594674520000000000000000000000000909070319000594674500000000000059467452200219000000001950023704150  000000000000000000000000000000000000000000000000000000000000000000000000000000000000000000000000000000000000000000000                          0000000000                                                                  000154
102122445950001000000009034510032549PREGTIT23249077754273     000000000000594719050000000000000000000000000909070319000594719000000000000059471905100219000000001500023704150  000000000000000000000000000000000000000000000000000000000000000000000000000000000000000000000000000000000000000000000                          0000000000                                                                  000155
102122445950001000000009034510032549PREGTIT23049160407893     000000000000594763620000000000000000000000000909070319000594763600000000000059476362080219000000001337523704150  000000000000000000000000000000000000000000000000000000000000000000000000000000000000000000000000000000000000000000000                          0000000000                                                                  000156
102122445950001000000009034510032549PREGTIT24097307069458     000000000000594846400000000000000000000000000909070319000594846400000000000059484640220219000000003250023704150  000000000000000000000000000000000000000000000000000000000000000000000000000000000000000000000000000000000000000000000                          0000000000                                                                  000157
102122445950001000000009034510032549PREGTIT25211298833485     000000000000594876740000000000000000000000000909070319000594876700000000000059487674100319000000002720023704150  000000000000000000000000000000000000000000000000000000000000000000000000000000000000000000000000000000000000000000000                          0000000000                                                                  000158
102122445950001000000009034510032549PREGTIT24541196051049     000000000000594940420000000000000000000000000909070319000594940400000000000059494042010319000000001062523704150  000000000000000000000000000000000000000000000000000000000000000000000000000000000000000000000000000000000000000000000                          0000000000                                                                  000159
102122445950001000000009034510032549PREGTIT24991257426676     000000000000595065470000000000000000000000000909070319000595065400000000000059506547070319000000001760023704150  000000000000000000000000000000000000000000000000000000000000000000000000000000000000000000000000000000000000000000000                          0000000000                                                                  000160
102122445950001000000009034510032549PREGTIT27381257426676     000000000000595065550000000000000000000000000909070319000595065500000000000059506555070419000000001760023704150  000000000000000000000000000000000000000000000000000000000000000000000000000000000000000000000000000000000000000000000                          0000000000                                                                  000161
102122445950001000000009034510032549PREGTIT24543755768247     000000000000595682910000000000000000000000000909070319000595682900000000000059568291010319000000000700023704150  000000000000000000000000000000000000000000000000000000000000000000000000000000000000000000000000000000000000000000000                          0000000000                                                                  000162
102122445950001000000009034510032549PREGTIT24881782930095     000000000000595735030000000000000000000000000909070319000595735000000000000059573503050319000000002200023704150  000000000000000000000000000000000000000000000000000000000000000000000000000000000000000000000000000000000000000000000                          0000000000                                                                  000163
102122445950001000000009034510032549PREGTIT25548995999015     000000000000595792770000000000000000000000000909070319000595792700000000000059579277150319000000000463523704150  000000000000000000000000000000000000000000000000000000000000000000000000000000000000000000000000000000000000000000000                          0000000000                                                                  000164
102122445950001000000009034510032549PREGTIT24999124265325     000000000000596045490000000000000000000000000909070319000596045400000000000059604549070319000000001500023704150  000000000000000000000000000000000000000000000000000000000000000000000000000000000000000000000000000000000000000000000                          0000000000                                                                  000165
102122445950001000000009034510032549PREGTIT24883920115712     000000000000596061340000000000000000000000000909070319000596061300000000000059606134050319000000000435223704150  000000000000000000000000000000000000000000000000000000000000000000000000000000000000000000000000000000000000000000000                          0000000000                                                                  000166
102122445950001000000009034510032549PREGTIT27163083870746     000000000000596581340000000000000000000000000909070319000596581300000000000059658134050419000000002760023704150  000000000000000000000000000000000000000000000000000000000000000000000000000000000000000000000000000000000000000000000                          0000000000                                                                  000167
102122445950001000000009034510032549PREGTIT25213237033432     000000000000596612320000000000000000000000000909070319000596612300000000000059661232100319000000000502623704150  000000000000000000000000000000000000000000000000000000000000000000000000000000000000000000000000000000000000000000000                          0000000000                                                                  000168
102122445950001000000009034510032549PREGTIT24995975702524     000000000000596644360000000000000000000000000909070319000596644300000000000059664436070319000000004900023704150  000000000000000000000000000000000000000000000000000000000000000000000000000000000000000000000000000000000000000000000                          0000000000                                                                  000169
102122445950001000000009034510032549PREGTIT25218269034561     000000000000596647890000000000000000000000000909070319000596647800000000000059664789100319000000000728023704150  000000000000000000000000000000000000000000000000000000000000000000000000000000000000000000000000000000000000000000000                          0000000000                                                                  000170
102122445950001000000009034510032549PREGTIT23564603062358     0000000000005967329P000000000000000000000000090907031900059673290000000000005967329P150219000000000426723704150  000000000000000000000000000000000000000000000000000000000000000000000000000000000000000000000000000000000000000000000                          0000000000                                                                  000171
102122445950001000000009034510032549PREGTIT25544603062358     000000000000596733030000000000000000000000000909070319000596733000000000000059673303150319000000000426723704150  000000000000000000000000000000000000000000000000000000000000000000000000000000000000000000000000000000000000000000000                          0000000000                                                                  000172
102122445950001000000009034510032549PREGTIT24997186402732     000000000000596814700000000000000000000000000909070319000596814700000000000059681470070319000000001350023704150  000000000000000000000000000000000000000000000000000000000000000000000000000000000000000000000000000000000000000000000                          0000000000                                                                  000173
102122445950001000000009034510032549PREGTIT25214404063071     000000000000596874280000000000000000000000000909070319000596874200000000000059687428100319000000001700023704150  000000000000000000000000000000000000000000000000000000000000000000000000000000000000000000000000000000000000000000000                          0000000000                                                                  000174
102122445950001000000009034510032549PREGTIT25214226017966     000000000000596928980000000000000000000000000909070319000596928900000000000059692898100319000000000221623704150  000000000000000000000000000000000000000000000000000000000000000000000000000000000000000000000000000000000000000000000                          0000000000                                                                  000175
102122445950001000000009034510032549PREGTIT24997268271541     000000000000596946100000000000000000000000000909070319000596946100000000000059694610070319000000002000023704150  000000000000000000000000000000000000000000000000000000000000000000000000000000000000000000000000000000000000000000000                          0000000000                                                                  000176
102122445950001000000009034510032549PREGTIT25315374300972     000000000000597004910000000000000000000000000909070319000597004900000000000059700491090319000000002570023704150  000000000000000000000000000000000000000000000000000000000000000000000000000000000000000000000000000000000000000000000                          0000000000                                                                  000177
102122445950001000000009034510032549PREGTIT27605374300972     000000000000597005050000000000000000000000000909070319000597005000000000000059700505090419000000002570023704150  000000000000000000000000000000000000000000000000000000000000000000000000000000000000000000000000000000000000000000000                          0000000000                                                                  000178
102122445950001000000009034510032549PREGTIT25685988699487     000000000000597570270000000000000000000000000909070319000597570200000000000059757027100319000000001200023704150  000000000000000000000000000000000000000000000000000000000000000000000000000000000000000000000000000000000000000000000                          0000000000                                                                  000179
102122445950001000000009034510032549PREGTIT25781546199826     000000000000597594020000000000000000000000000909070319000597594000000000000059759402050319000000001700023704150  000000000000000000000000000000000000000000000000000000000000000000000000000000000000000000000000000000000000000000000                          0000000000                                                                  000180
102122445950001000000009034510032549PREGTIT26283500471611     0000000000005976855P000000000000000000000000090907031900059768550000000000005976855P200219000000001450023704150  000000000000000000000000000000000000000000000000000000000000000000000000000000000000000000000000000000000000000000000                          0000000000                                                                  000181
102122445950001000000009034510032549PREGTIT26523223393898     000000000000597741340000000000000000000000000909070319000597741300000000000059774134100319000000001790023704150  000000000000000000000000000000000000000000000000000000000000000000000000000000000000000000000000000000000000000000000                          0000000000                                                                  000182
102122445950001000000009034510032549PREGTIT27152490670403     0000000000005978248P000000000000000000000000090907031900059782480000000000005978248P010319000000001072023704150  000000000000000000000000000000000000000000000000000000000000000000000000000000000000000000000000000000000000000000000                          0000000000                                                                  000183
102122445950001000000009034510032549PREGTIT27161143175855     000000000000597825950000000000000000000000000909070319000597825900000000000059782595020319000000021711723704150  000000000000000000000000000000000000000000000000000000000000000000000000000000000000000000000000000000000000000000000                          0000000000                                                                  000184
102122445950001000000009034510032549PREGTIT27171772965494     000000000000597833700000000000000000000000000909070319000597833700000000000059783370050319000000000518723704150  000000000000000000000000000000000000000000000000000000000000000000000000000000000000000000000000000000000000000000000                          0000000000                                                                  000185
102122445950001000000009034510032549PREGTIT27221499180400     000000000000597843260000000000000000000000000909070319000597843200000000000059784326040319000000005000023704150  000000000000000000000000000000000000000000000000000000000000000000000000000000000000000000000000000000000000000000000                          0000000000                                                                  000186
102122445950001000000009034510032549PREGTIT27691677305363     000000000000597911950000000000000000000000000909070319000597911900000000000059791195100319000000002300023704150  000000000000000000000000000000000000000000000000000000000000000000000000000000000000000000000000000000000000000000000                          0000000000                                                                  000187
102122445950001000000009034510032549PREGTIT28131874040013     000000000000598487900000000000000000000000000909070319000598487900000000000059848790210319000000001000023704150  000000000000000000000000000000000000000000000000000000000000000000000000000000000000000000000000000000000000000000000                          0000000000                                                                  000188
102122445950001000000009034510032549PREGTIT29788081524028     000000000000586944470000000000000000000000000927070319000586944400000000000058694447100219000000001000023700000  000000000000000000000000000000000000000000000000000000000000000000000000000000000000000000000000000000000000000000000                          6000000000                                                                  000189
102122445950001000000009034510032549PREGTIT29788307268218     000000000000590066410000000000000000000000000927070319000590066400000000000059006641280219000000000460023700000  000000000000000000000000000000000000000000000000000000000000000000000000000000000000000000000000000000000000000000000                          6000000000                                                                  000190
102122445950001000000009034510032549PREGTIT29788307268218     0000000000005900665P000000000000000000000000092707031900059006650000000000005900665P280319000000000460023700000  000000000000000000000000000000000000000000000000000000000000000000000000000000000000000000000000000000000000000000000                          6000000000                                                                  000191
102122445950001000000009034510032549PREGTIT29762410532587     0000000000005902058P000000000000000000000000092707031900059020580000000000005902058P150219000000003300023700000  000000000000000000000000000000000000000000000000000000000000000000000000000000000000000000000000000000000000000000000                          6000000000                                                                  000192
102122445950001000000009034510032549PREGTIT29761517814658     000000000000590893500000000000000000000000000927070319000590893500000000000059089350100319000000001700023700000  000000000000000000000000000000000000000000000000000000000000000000000000000000000000000000000000000000000000000000000                          6000000000                                                                  000193
102122445950001000000009034510032549PREGTIT29761121061100     000000000000590973530000000000000000000000000927070319000590973500000000000059097353280219000000000790023700000  000000000000000000000000000000000000000000000000000000000000000000000000000000000000000000000000000000000000000000000                          6000000000                                                                  000194
102122445950001000000009034510032549PREGTIT29793169207399     000000000000591132190000000000000000000000000927070319000591132100000000000059113219100319000000000700023700000  000000000000000000000000000000000000000000000000000000000000000000000000000000000000000000000000000000000000000000000                          6000000000                                                                  000195
102122445950001000000009034510032549PREGTIT29785443477622     000000000000591714210000000000000000000000000927070319000591714200000000000059171421130319000000000411323700000  000000000000000000000000000000000000000000000000000000000000000000000000000000000000000000000000000000000000000000000                          6000000000                                                                  000196
102122445950001000000009034510032549PREGTIT29769388521292     000000000000591782560000000000000000000000000927070319000591782500000000000059178256100319000000005900023700000  000000000000000000000000000000000000000000000000000000000000000000000000000000000000000000000000000000000000000000000                          6000000000                                                                  000197
102122445950001000000009034510032549PREGTIT29832563638062     000000000000591858800000000000000000000000000927070319000591858800000000000059185880150319000000005600023700000  000000000000000000000000000000000000000000000000000000000000000000000000000000000000000000000000000000000000000000000                          6000000000                                                                  000198
102122445950001000000009034510032549PREGTIT29784237266311     000000000000592598680000000000000000000000000927070319000592598600000000000059259868090319000000000400523700000  000000000000000000000000000000000000000000000000000000000000000000000000000000000000000000000000000000000000000000000                          6000000000                                                                  000199
102122445950001000000009034510032549PREGTIT29817486579236     000000000000592632020000000000000000000000000927070319000592632000000000000059263202150219000000004500023700000  000000000000000000000000000000000000000000000000000000000000000000000000000000000000000000000000000000000000000000000                          6000000000                                                                  000200
102122445950001000000009034510032549PREGTIT29834296081575     000000000000592680770000000000000000000000000927070319000592680700000000000059268077150219000000003460023700000  000000000000000000000000000000000000000000000000000000000000000000000000000000000000000000000000000000000000000000000                          6000000000                                                                  000201
102122445950001000000009034510032549PREGTIT29795788222257     000000000000592772620000000000000000000000000927070319000592772600000000000059277262150219000000001083523700000  000000000000000000000000000000000000000000000000000000000000000000000000000000000000000000000000000000000000000000000                          6000000000                                                                  000202
102122445950001000000009034510032549PREGTIT29769199297589     000000000000592900560000000000000000000000000927070319000592900500000000000059290056100319000000001600023700000  000000000000000000000000000000000000000000000000000000000000000000000000000000000000000000000000000000000000000000000                          6000000000                                                                  000203
102122445950001000000009034510032549PREGTIT29764606987713     000000000000593071450000000000000000000000000927070319000593071400000000000059307145050319000000001500023700000  000000000000000000000000000000000000000000000000000000000000000000000000000000000000000000000000000000000000000000000                          6000000000                                                                  000204
102122445950001000000009034510032549PREGTIT29863624628682     000000000000593994570000000000000000000000000927070319000593994500000000000059399457280219000000001250023700000  000000000000000000000000000000000000000000000000000000000000000000000000000000000000000000000000000000000000000000000                          6000000000                                                                  000205
102122445950001000000009034510032549PREGTIT29836038185792     000000000000594062320000000000000000000000000927070319000594062300000000000059406232100319000000001250023700000  000000000000000000000000000000000000000000000000000000000000000000000000000000000000000000000000000000000000000000000                          6000000000                                                                  000206
102122445950001000000009034510032549PREGTIT29861140952710     000000000000594666690000000000000000000000000927070319000594666600000000000059466669090419000000000111323700000  000000000000000000000000000000000000000000000000000000000000000000000000000000000000000000000000000000000000000000000                          6000000000                                                                  000207
102122445950001000000009034510032549PREGTIT29785559749719     000000000000594670450000000000000000000000000927070319000594670400000000000059467045100319000000000688623700000  000000000000000000000000000000000000000000000000000000000000000000000000000000000000000000000000000000000000000000000                          6000000000                                                                  000208
102122445950001000000009034510032549PREGTIT29838230935393     000000000000594674520000000000000000000000000927070319000594674500000000000059467452200219000000001950023700000  000000000000000000000000000000000000000000000000000000000000000000000000000000000000000000000000000000000000000000000                          6000000000                                                                  000209
102122445950001000000009034510032549PREGTIT29779077754273     000000000000594719050000000000000000000000000927070319000594719000000000000059471905100219000000001500023700000  000000000000000000000000000000000000000000000000000000000000000000000000000000000000000000000000000000000000000000000                          6000000000                                                                  000210
102122445950001000000009034510032549PREGTIT29799160407893     000000000000594763620000000000000000000000000927070319000594763600000000000059476362080219000000001337523700000  000000000000000000000000000000000000000000000000000000000000000000000000000000000000000000000000000000000000000000000                          6000000000                                                                  000211
102122445950001000000009034510032549PREGTIT29766449272731     000000000000594836440000000000000000000000000927070319000594836400000000000059483644200219000000001113923700000  000000000000000000000000000000000000000000000000000000000000000000000000000000000000000000000000000000000000000000000                          6000000000                                                                  000212
102122445950001000000009034510032549PREGTIT29787307069458     000000000000594846400000000000000000000000000927070319000594846400000000000059484640220219000000003250023700000  000000000000000000000000000000000000000000000000000000000000000000000000000000000000000000000000000000000000000000000                          6000000000                                                                  000213
102122445950001000000009034510032549PREGTIT29768050477368     0000000000005948635P000000000000000000000000092707031900059486350000000000005948635P230219000000000383023700000  000000000000000000000000000000000000000000000000000000000000000000000000000000000000000000000000000000000000000000000                          6000000000                                                                  000214
102122445950001000000009034510032549PREGTIT29791298833485     000000000000594876740000000000000000000000000927070319000594876700000000000059487674100319000000002720023700000  000000000000000000000000000000000000000000000000000000000000000000000000000000000000000000000000000000000000000000000                          6000000000                                                                  000215
102122445950001000000009034510032549PREGTIT29861196051049     000000000000594940420000000000000000000000000927070319000594940400000000000059494042010319000000001062523700000  000000000000000000000000000000000000000000000000000000000000000000000000000000000000000000000000000000000000000000000                          6000000000                                                                  000216
102122445950001000000009034510032549PREGTIT29769455264475     000000000000595056720000000000000000000000000927070319000595056700000000000059505672100319000000000680023700000  000000000000000000000000000000000000000000000000000000000000000000000000000000000000000000000000000000000000000000000                          6000000000                                                                  000217
102122445950001000000009034510032549PREGTIT29831257426676     000000000000595065470000000000000000000000000927070319000595065400000000000059506547070319000000001760023700000  000000000000000000000000000000000000000000000000000000000000000000000000000000000000000000000000000000000000000000000                          6000000000                                                                  000218
102122445950001000000009034510032549PREGTIT29851257426676     000000000000595065550000000000000000000000000927070319000595065500000000000059506555070419000000001760023700000  000000000000000000000000000000000000000000000000000000000000000000000000000000000000000000000000000000000000000000000                          6000000000                                                                  000219
102122445950001000000009034510032549PREGTIT29783755768247     000000000000595682910000000000000000000000000927070319000595682900000000000059568291010319000000000700023700000  000000000000000000000000000000000000000000000000000000000000000000000000000000000000000000000000000000000000000000000                          6000000000                                                                  000220
102122445950001000000009034510032549PREGTIT29791782930095     000000000000595735030000000000000000000000000927070319000595735000000000000059573503050319000000002200023700000  000000000000000000000000000000000000000000000000000000000000000000000000000000000000000000000000000000000000000000000                          6000000000                                                                  000221
102122445950001000000009034510032549PREGTIT29828995999015     000000000000595792770000000000000000000000000927070319000595792700000000000059579277150319000000000463523700000  000000000000000000000000000000000000000000000000000000000000000000000000000000000000000000000000000000000000000000000                          6000000000                                                                  000222
102122445950001000000009034510032549PREGTIT29823920115712     000000000000596061340000000000000000000000000927070319000596061300000000000059606134050319000000000435223700000  000000000000000000000000000000000000000000000000000000000000000000000000000000000000000000000000000000000000000000000                          6000000000                                                                  000223
102122445950001000000009034510032549PREGTIT29853083870746     000000000000596581340000000000000000000000000927070319000596581300000000000059658134050419000000002760023700000  000000000000000000000000000000000000000000000000000000000000000000000000000000000000000000000000000000000000000000000                          6000000000                                                                  000224
102122445950001000000009034510032549PREGTIT29783237033432     000000000000596612320000000000000000000000000927070319000596612300000000000059661232100319000000000502623700000  000000000000000000000000000000000000000000000000000000000000000000000000000000000000000000000000000000000000000000000                          6000000000                                                                  000225
102122445950001000000009034510032549PREGTIT29785975702524     000000000000596644360000000000000000000000000927070319000596644300000000000059664436070319000000004900023700000  000000000000000000000000000000000000000000000000000000000000000000000000000000000000000000000000000000000000000000000                          6000000000                                                                  000226
102122445950001000000009034510032549PREGTIT29788269034561     000000000000596647890000000000000000000000000927070319000596647800000000000059664789100319000000000728023700000  000000000000000000000000000000000000000000000000000000000000000000000000000000000000000000000000000000000000000000000                          6000000000                                                                  000227
102122445950001000000009034510032549PREGTIT29764848126764     000000000000596649080000000000000000000000000927070319000596649000000000000059664908100319000000001450023700000  000000000000000000000000000000000000000000000000000000000000000000000000000000000000000000000000000000000000000000000                          6000000000                                                                  000228
102122445950001000000009034510032549PREGTIT29794603062358     0000000000005967329P000000000000000000000000092707031900059673290000000000005967329P150219000000000426723700000  000000000000000000000000000000000000000000000000000000000000000000000000000000000000000000000000000000000000000000000                          6000000000                                                                  000229
102122445950001000000009034510032549PREGTIT29794603062358     000000000000596733030000000000000000000000000927070319000596733000000000000059673303150319000000000426723700000  000000000000000000000000000000000000000000000000000000000000000000000000000000000000000000000000000000000000000000000                          6000000000                                                                  000230
102122445950001000000009034510032549PREGTIT29767122917580     000000000000596790690000000000000000000000000927070319000596790600000000000059679069250219000000001900023700000  000000000000000000000000000000000000000000000000000000000000000000000000000000000000000000000000000000000000000000000                          6000000000                                                                  000231
102122445950001000000009034510032549PREGTIT29857186402732     000000000000596814700000000000000000000000000927070319000596814700000000000059681470070319000000001350023700000  000000000000000000000000000000000000000000000000000000000000000000000000000000000000000000000000000000000000000000000                          6000000000                                                                  000232
102122445950001000000009034510032549PREGTIT29764660702165     000000000000596814970000000000000000000000000927070319000596814900000000000059681497110219000000002770023700000  000000000000000000000000000000000000000000000000000000000000000000000000000000000000000000000000000000000000000000000                          6000000000                                                                  000233
102122445950001000000009034510032549PREGTIT29767228241513     000000000000596848950000000000000000000000000927070319000596848900000000000059684895220219000000000323523700000  000000000000000000000000000000000000000000000000000000000000000000000000000000000000000000000000000000000000000000000                          6000000000                                                                  000234
102122445950001000000009034510032549PREGTIT29804404063071     000000000000596874280000000000000000000000000927070319000596874200000000000059687428100319000000001700023700000  000000000000000000000000000000000000000000000000000000000000000000000000000000000000000000000000000000000000000000000                          6000000000                                                                  000235
102122445950001000000009034510032549PREGTIT29768283395688     000000000000596888230000000000000000000000000927070319000596888200000000000059688823280219000000003500023700000  000000000000000000000000000000000000000000000000000000000000000000000000000000000000000000000000000000000000000000000                          6000000000                                                                  000236
102122445950001000000009034510032549PREGTIT29784226017966     000000000000596928980000000000000000000000000927070319000596928900000000000059692898100319000000000221623700000  000000000000000000000000000000000000000000000000000000000000000000000000000000000000000000000000000000000000000000000                          6000000000                                                                  000237
102122445950001000000009034510032549PREGTIT29764131190669     000000000000596980200000000000000000000000000927070319000596980200000000000059698020080219000000001416723700000  000000000000000000000000000000000000000000000000000000000000000000000000000000000000000000000000000000000000000000000                          6000000000                                                                  000238
102122445950001000000009034510032549PREGTIT29761498764732     0000000000005969856P000000000000000000000000092707031900059698560000000000005969856P100319000000000975523700000  000000000000000000000000000000000000000000000000000000000000000000000000000000000000000000000000000000000000000000000                          6000000000                                                                  000239
102122445950001000000009034510032549PREGTIT29835374300972     000000000000597004910000000000000000000000000927070319000597004900000000000059700491090319000000002570023700000  000000000000000000000000000000000000000000000000000000000000000000000000000000000000000000000000000000000000000000000                          6000000000                                                                  000240
102122445950001000000009034510032549PREGTIT29835374300972     000000000000597005050000000000000000000000000927070319000597005000000000000059700505090419000000002570023700000  000000000000000000000000000000000000000000000000000000000000000000000000000000000000000000000000000000000000000000000                          6000000000                                                                  000241
102122445950001000000009034510032549PREGTIT29766323695911     000000000000597026640000000000000000000000000927070319000597026600000000000059702664050319000000001200023700000  000000000000000000000000000000000000000000000000000000000000000000000000000000000000000000000000000000000000000000000                          6000000000                                                                  000242
102122445950001000000009034510032549PREGTIT29845988699487     000000000000597570270000000000000000000000000927070319000597570200000000000059757027100319000000001200023700000  000000000000000000000000000000000000000000000000000000000000000000000000000000000000000000000000000000000000000000000                          6000000000                                                                  000243
102122445950001000000009034510032549PREGTIT29791546199826     000000000000597594020000000000000000000000000927070319000597594000000000000059759402050319000000001700023700000  000000000000000000000000000000000000000000000000000000000000000000000000000000000000000000000000000000000000000000000                          6000000000                                                                  000244
102122445950001000000009034510032549PREGTIT29766819945983     000000000000597676690000000000000000000000000927070319000597676600000000000059767669100319000000005600023700000  000000000000000000000000000000000000000000000000000000000000000000000000000000000000000000000000000000000000000000000                          6000000000                                                                  000245
102122445950001000000009034510032549PREGTIT29863500471611     0000000000005976855P000000000000000000000000092707031900059768550000000000005976855P200219000000001450023700000  000000000000000000000000000000000000000000000000000000000000000000000000000000000000000000000000000000000000000000000                          6000000000                                                                  000246
102122445950001000000009034510032549PREGTIT29793223393898     000000000000597741340000000000000000000000000927070319000597741300000000000059774134100319000000001790023700000  000000000000000000000000000000000000000000000000000000000000000000000000000000000000000000000000000000000000000000000                          6000000000                                                                  000247
102122445950001000000009034510032549PREGTIT29766789416207     000000000000597807970000000000000000000000000927070319000597807900000000000059780797020319000000001960023700000  000000000000000000000000000000000000000000000000000000000000000000000000000000000000000000000000000000000000000000000                          6000000000                                                                  000248
