02RETORNO01COBRANCA       00000000000004852239ISPCN ADM DE COBRANCA DE TITUL237BRADESCO       1203190160000000601                                                                                                                                                                                                                                                                          130319         000001
102122445950001000000009034510032549PREGTIT30093597717612     000000000000566638030000000000000000000000000902120319000566638000000000000056663803110519000000001440023703451  000000000014300000000000000000000000000000000000000000000000000000000000000000000000000000000000000000000000000000000                          0000000000                                                                  000002
102122445950001000000009034510032549PREGTIT30102930389460     000000000000572313620000000000000000000000000902120319000572313600000000000057231362100519000000004900023700073  000000000014300000000000000000000000000000000000000000000000000000000000000000000000000000000000000000000000000000000                          0000000000                                                                  000003
102122445950001000000009034510032549PREGTIT30091906520438     000000000000582818860000000000000000000000000902120319000582818800000000000058281886100519000000002030023704151  000000000014300000000000000000000000000000000000000000000000000000000000000000000000000000000000000000000000000000000                          0000000000                                                                  000004
102122445950001000000009034510032549PREGTIT30107664969137     000000000000588738990000000000000000000000000902120319000588738900000000000058873899100519000000004900023700073  000000000014300000000000000000000000000000000000000000000000000000000000000000000000000000000000000000000000000000000                          0000000000                                                                  000005
102122445950001000000009034510032549PREGTIT30092346099528     000000000000589637660000000000000000000000000902120319000589637600000000000058963766110519000000001372723704151  000000000014300000000000000000000000000000000000000000000000000000000000000000000000000000000000000000000000000000000                          7600000000                                                                  000006
102122445950001000000009034510032549PREGTIT30107783716242     000000000000591128910000000000000000000000000902120319000591128900000000000059112891110519000000002700023700073  000000000014300000000000000000000000000000000000000000000000000000000000000000000000000000000000000000000000000000000                          0000000000                                                                  000007
102122445950001000000009034510032549PREGTIT30099388521292     000000000000591782720000000000000000000000000902120319000591782700000000000059178272100519000000005900023704151  000000000014300000000000000000000000000000000000000000000000000000000000000000000000000000000000000000000000000000000                          0000000000                                                                  000008
102122445950001000000009034510032549PREGTIT30101213376853     000000000000591984000000000000000000000000000902120319000591984000000000000059198400100519000000003000023700073  000000000014300000000000000000000000000000000000000000000000000000000000000000000000000000000000000000000000000000000                          0000000000                                                                  000009
102122445950001000000009034510032549PREGTIT30096944726995     000000000000592024830000000000000000000000000902120319000592024800000000000059202483110519000000002700023704151  000000000014300000000000000000000000000000000000000000000000000000000000000000000000000000000000000000000000000000000                          0000000000                                                                  000010
102122445950001000000009034510032549PREGTIT30092919923526     000000000000592621410000000000000000000000000902120319000592621400000000000059262141110519000000001900023703451  000000000014300000000000000000000000000000000000000000000000000000000000000000000000000000000000000000000000000000000                          0000000000                                                                  000011
102122445950001000000009034510032549PREGTIT30099199297589     000000000000592900720000000000000000000000000902120319000592900700000000000059290072100519000000001600023704151  000000000014300000000000000000000000000000000000000000000000000000000000000000000000000000000000000000000000000000000                          0000000000                                                                  000012
102122445950001000000009034510032549PREGTIT30098000880686     000000000000593168880000000000000000000000000902120319000593168800000000000059316888100519000000007850023704151  000000000014300000000000000000000000000000000000000000000000000000000000000000000000000000000000000000000000000000000                          0000000000                                                                  000013
102122445950001000000009034510032549PREGTIT30098632909278     000000000000593707340000000000000000000000000902120319000593707300000000000059370734110519000000001000023703451  000000000014300000000000000000000000000000000000000000000000000000000000000000000000000000000000000000000000000000000                          0000000000                                                                  000014
102122445950001000000009034510032549PREGTIT30093627571579     000000000000594707470000000000000000000000000902120319000594707400000000000059470747110519000000000500023704144  000000000014300000000000000000000000000000000000000000000000000000000000000000000000000000000000000000000000000000000                          0000000000                                                                  000015
102122445950001000000009034510032549PREGTIT30098663262828     000000000000594722000000000000000000000000000902120319000594722000000000000059472200110519000000003000023704274  000000000014300000000000000000000000000000000000000000000000000000000000000000000000000000000000000000000000000000000                          0000000000                                                                  000016
102122445950001000000009034510032549PREGTIT30102098461281     000000000000594728470000000000000000000000000902120319000594728400000000000059472847100519000000005558323700073  000000000014300000000000000000000000000000000000000000000000000000000000000000000000000000000000000000000000000000000                          0000000000                                                                  000017
102122445950001000000009034510032549PREGTIT30091543904273     000000000000594756920000000000000000000000000902120319000594756900000000000059475692110519000000000800023703451  000000000014300000000000000000000000000000000000000000000000000000000000000000000000000000000000000000000000000000000                          0000000000                                                                  000018
102122445950001000000009034510032549PREGTIT30094188272750     000000000000594817060000000000000000000000000902120319000594817000000000000059481706110519000000001400023703451  000000000014300000000000000000000000000000000000000000000000000000000000000000000000000000000000000000000000000000000                          0000000000                                                                  000019
102122445950001000000009034510032549PREGTIT30095259876702     000000000000595144420000000000000000000000000902120319000595144400000000000059514442100519000000000950023704151  000000000014300000000000000000000000000000000000000000000000000000000000000000000000000000000000000000000000000000000                          0000000000                                                                  000020
102122445950001000000009034510032549PREGTIT30097490232371     000000000000595957280000000000000000000000000902120319000595957200000000000059595728110519000000003000023704151  000000000014300000000000000000000000000000000000000000000000000000000000000000000000000000000000000000000000000000000                          0000000000                                                                  000021
102122445950001000000009034510032549PREGTIT30099576834796     000000000000596030380000000000000000000000000902120319000596030300000000000059603038110519000000000800023704147  000000000014300000000000000000000000000000000000000000000000000000000000000000000000000000000000000000000000000000000                          0000000000                                                                  000022
102122445950001000000009034510032549PREGTIT30096659048174     0000000000005966410P000000000000000000000000090212031900059664100000000000005966410P110519000000002278023704144  000000000014300000000000000000000000000000000000000000000000000000000000000000000000000000000000000000000000000000000                          0000000000                                                                  000023
102122445950001000000009034510032549PREGTIT30097292885701     000000000000596663900000000000000000000000000902120319000596663900000000000059666390110519000000001080023704422  000000000014300000000000000000000000000000000000000000000000000000000000000000000000000000000000000000000000000000000                          7600000000                                                                  000024
102122445950001000000009034510032549PREGTIT30094660702165     000000000000596815270000000000000000000000000902120319000596815200000000000059681527110519000000002770023704151  000000000014300000000000000000000000000000000000000000000000000000000000000000000000000000000000000000000000000000000                          0000000000                                                                  000025
102122445950001000000009034510032549PREGTIT30091397985306     000000000000596916970000000000000000000000000902120319000596916900000000000059691697110519000000001350023703451  000000000014300000000000000000000000000000000000000000000000000000000000000000000000000000000000000000000000000000000                          0000000000                                                                  000026
102122445950001000000009034510032549PREGTIT30106691111814     000000000000596955520000000000000000000000000902120319000596955500000000000059695552100519000000002250023704144  000000000014300000000000000000000000000000000000000000000000000000000000000000000000000000000000000000000000000000000                          7600000000                                                                  000027
102122445950001000000009034510032549PREGTIT30095188663804     000000000000596978730000000000000000000000000902120319000596978700000000000059697873080519000000000937523704151  000000000014300000000000000000000000000000000000000000000000000000000000000000000000000000000000000000000000000000000                          0000000000                                                                  000028
102122445950001000000009034510032549PREGTIT30094131190669     000000000000596980550000000000000000000000000902120319000596980500000000000059698055080519000000001416723704151  000000000014300000000000000000000000000000000000000000000000000000000000000000000000000000000000000000000000000000000                          0000000000                                                                  000029
102122445950001000000009034510032549PREGTIT30103072815322     000000000000597017570000000000000000000000000902120319000597017500000000000059701757110519000000001192523704144  000000000014300000000000000000000000000000000000000000000000000000000000000000000000000000000000000000000000000000000                          0000000000                                                                  000030
102122445950001000000009034510032549PREGTIT30094248074818     000000000000597031560000000000000000000000000902120319000597031500000000000059703156110519000000002000023704157  000000000014300000000000000000000000000000000000000000000000000000000000000000000000000000000000000000000000000000000                          0000000000                                                                  000031
102122445950001000000009034510032549PREGTIT30109773449930     000000000000597539350000000000000000000000000902120319000597539300000000000059753935100519000000000795023704144  000000000014300000000000000000000000000000000000000000000000000000000000000000000000000000000000000000000000000000000                          0000000000                                                                  000032
102122445950001000000009034510032549PREGTIT30097907189093     000000000000597777020000000000000000000000000902120319000597777000000000000059777702110519000000000990023703451  000000000014300000000000000000000000000000000000000000000000000000000000000000000000000000000000000000000000000000000                          0000000000                                                                  000033
102122445950001000000009034510032549PREGTIT30092428812579     000000000000597829000000000000000000000000000902120319000597829000000000000059782900110519000000002589523704151  000000000014300000000000000000000000000000000000000000000000000000000000000000000000000000000000000000000000000000000                          0000000000                                                                  000034
102122445950001000000009034510032549PREGTIT30096194032339     000000000000597903180000000000000000000000000902120319000597903100000000000059790318110519000000001506223703451  000000000014300000000000000000000000000000000000000000000000000000000000000000000000000000000000000000000000000000000                          0000000000                                                                  000035
102122445950001000000009034510032549PREGTIT30109992652808     000000000000597904310000000000000000000000000902120319000597904300000000000059790431100519000000000831723704144  000000000014300000000000000000000000000000000000000000000000000000000000000000000000000000000000000000000000000000000                          0000000000                                                                  000036
102122445950001000000009034510032549PREGTIT30096783643956     000000000000598415910000000000000000000000000902120319000598415900000000000059841591110519000000001282723704157  000000000014300000000000000000000000000000000000000000000000000000000000000000000000000000000000000000000000000000000                          0000000000                                                                  000037
102122445950001000000009034510032549PREGTIT30093645861181     000000000000598425390000000000000000000000000902120319000598425300000000000059842539110519000000001500023703451  000000000014300000000000000000000000000000000000000000000000000000000000000000000000000000000000000000000000000000000                          0000000000                                                                  000038
102122445950001000000009034510032549PREGTIT30096537050671     000000000000598426790000000000000000000000000902120319000598426700000000000059842679110519000000003490023704147  000000000014300000000000000000000000000000000000000000000000000000000000000000000000000000000000000000000000000000000                          0000000000                                                                  000039
102122445950001000000009034510032549PREGTIT30107260228022     000000000000598459370000000000000000000000000902120319000598459300000000000059845937100519000000002640023704144  000000000014300000000000000000000000000000000000000000000000000000000000000000000000000000000000000000000000000000000                          0000000000                                                                  000040
102122445950001000000009034510032549PREGTIT30092704354338     000000000000598503370000000000000000000000000902120319000598503300000000000059850337110519000000002227023704151  000000000014300000000000000000000000000000000000000000000000000000000000000000000000000000000000000000000000000000000                          7600000000                                                                  000041
102122445950001000000009034510032549PREGTIT30099557793438     000000000000598665190000000000000000000000000902120319000598665100000000000059866519100519000000008700023704151  000000000014300000000000000000000000000000000000000000000000000000000000000000000000000000000000000000000000000000000                          0000000000                                                                  000042
102122445950001000000009034510032549PREGTIT30095707637895     000000000000598674340000000000000000000000000902120319000598674300000000000059867434110519000000001680023704157  000000000014300000000000000000000000000000000000000000000000000000000000000000000000000000000000000000000000000000000                          0000000000                                                                  000043
102122445950001000000009034510032549PREGTIT30098470597780     000000000000598694100000000000000000000000000902120319000598694100000000000059869410080519000000000870023704151  000000000014300000000000000000000000000000000000000000000000000000000000000000000000000000000000000000000000000000000                          0000000000                                                                  000044
102122445950001000000009034510032549PREGTIT30091309960538     000000000000598705830000000000000000000000000902120319000598705800000000000059870583180319000000001400923704157  000000000014300000000000000000000000000000000000000000000000000000000000000000000000000000000000000000000000000000000                          0000000000                                                                  000045
102122445950001000000009034510032549PREGTIT30094233078534     000000000000598715550000000000000000000000000902120319000598715500000000000059871555110519000000001112523704422  000000000014300000000000000000000000000000000000000000000000000000000000000000000000000000000000000000000000000000000                          0000000000                                                                  000046
102122445950001000000009034510032549PREGTIT30099565064195     000000000000598717680000000000000000000000000902120319000598717600000000000059871768110519000000002203323703451  000000000014300000000000000000000000000000000000000000000000000000000000000000000000000000000000000000000000000000000                          0000000000                                                                  000047
102122445950001000000009034510032549PREGTIT30093112343632     000000000000598731240000000000000000000000000902120319000598731200000000000059873124110519000000001952923704152  000000000014300000000000000000000000000000000000000000000000000000000000000000000000000000000000000000000000000000000                          0000000000                                                                  000048
102122445950001000000009034510032549PREGTIT30098514790009     000000000000598738840000000000000000000000000902120319000598738800000000000059873884110519000000001038623704144  000000000014300000000000000000000000000000000000000000000000000000000000000000000000000000000000000000000000000000000                          0000000000                                                                  000049
102122445950001000000009034510032549PREGTIT30097457137910     000000000000598739060000000000000000000000000902120319000598739000000000000059873906110519000000002100023704151  000000000014300000000000000000000000000000000000000000000000000000000000000000000000000000000000000000000000000000000                          0000000000                                                                  000050
102122445950001000000009034510032549PREGTIT30095404337292     0000000000005987600P000000000000000000000000090212031900059876000000000000005987600P260319000000005127023704151  000000000014300000000000000000000000000000000000000000000000000000000000000000000000000000000000000000000000000000000                          0000000000                                                                  000051
102122445950001000000009034510032549PREGTIT30105303496461     000000000000598760180000000000000000000000000902120319000598760100000000000059876018020419000000002200023704144  000000000014300000000000000000000000000000000000000000000000000000000000000000000000000000000000000000000000000000000                          0000000000                                                                  000052
102122445950001000000009034510032549PREGTIT30109816744480     000000000000598760260000000000000000000000000902120319000598760200000000000059876026120419000000001860023704400  000000000014300000000000000000000000000000000000000000000000000000000000000000000000000000000000000000000000000000000                          0000000000                                                                  000053
102122445950001000000009034510032549PREGTIT30101137468446     000000000000598760340000000000000000000000000902120319000598760300000000000059876034200419000000001958023704428  000000000014300000000000000000000000000000000000000000000000000000000000000000000000000000000000000000000000000000000                          0000000000                                                                  000054
102122445950001000000009034510032549PREGTIT30114455260468     000000000000598762200000000000000000000000000902120319000598762200000000000059876220250419000000001180023703451  000000000014300000000000000000000000000000000000000000000000000000000000000000000000000000000000000000000000000000000                          0000000000                                                                  000055
102122445950001000000009034510032549PREGTIT30113557774581     000000000000598764760000000000000000000000000902120319000598764700000000000059876476120419000000004950023703451  000000000014300000000000000000000000000000000000000000000000000000000000000000000000000000000000000000000000000000000                          0000000000                                                                  000056
102122445950001000000009034510032549PREGTIT30113557774581     000000000000598764840000000000000000000000000902120319000598764800000000000059876484200419000000001650023703451  000000000014300000000000000000000000000000000000000000000000000000000000000000000000000000000000000000000000000000000                          0000000000                                                                  000057
102122445950001000000009034510032549PREGTIT30125348292642     000000000000598765650000000000000000000000000902120319000598765600000000000059876565120419000000001800023704159  000000000014300000000000000000000000000000000000000000000000000000000000000000000000000000000000000000000000000000000                          0000000000                                                                  000058
102122445950001000000009034510032549PREGTIT30122069534108     000000000000598765810000000000000000000000000902120319000598765800000000000059876581260319000000001514723704159  000000000014300000000000000000000000000000000000000000000000000000000000000000000000000000000000000000000000000000000                          7600000000                                                                  000059
102122445950001000000009034510032549PREGTIT30128431123900     000000000000598766380000000000000000000000000902120319000598766300000000000059876638120419000000003500023704144  000000000014300000000000000000000000000000000000000000000000000000000000000000000000000000000000000000000000000000000                          0000000000                                                                  000060
102122445950001000000009034510032549PREGTIT30126161799455     000000000000598766460000000000000000000000000902120319000598766400000000000059876646190319000000000630023704144  000000000014300000000000000000000000000000000000000000000000000000000000000000000000000000000000000000000000000000000                          0000000000                                                                  000061
102122445950001000000009034510032549PREGTIT30131485140609     000000000000598766540000000000000000000000000902120319000598766500000000000059876654050419000000003500023704144  000000000014300000000000000000000000000000000000000000000000000000000000000000000000000000000000000000000000000000000                          0000000000                                                                  000062
102122445950001000000009034510032549PREGTIT30149448251380     000000000000598767350000000000000000000000000902120319000598767300000000000059876735070419000000010000023704151  000000000014300000000000000000000000000000000000000000000000000000000000000000000000000000000000000000000000000000000                          0000000000                                                                  000063
102122445950001000000009034510032549PREGTIT30141536319752     000000000000598767430000000000000000000000000902120319000598767400000000000059876743070519000000004300023704151  000000000014300000000000000000000000000000000000000000000000000000000000000000000000000000000000000000000000000000000                          0000000000                                                                  000064
102122445950001000000009034510032549PREGTIT30144984547748     000000000000598769130000000000000000000000000902120319000598769100000000000059876913090419000000001838023704144  000000000014300000000000000000000000000000000000000000000000000000000000000000000000000000000000000000000000000000000                          0000000000                                                                  000065
102122445950001000000009034510032549PREGTIT30165000370343     0000000000005987693P000000000000000000000000090212031900059876930000000000005987693P050419000000003920023704158  000000000014300000000000000000000000000000000000000000000000000000000000000000000000000000000000000000000000000000000                          0000000000                                                                  000066
102122445950001000000009034510032549PREGTIT30165000370343     000000000000598769480000000000000000000000000902120319000598769400000000000059876948050419000000000784023704158  000000000014300000000000000000000000000000000000000000000000000000000000000000000000000000000000000000000000000000000                          0000000000                                                                  000067
102122445950001000000009034510032549PREGTIT30165000370343     000000000000598769560000000000000000000000000902120319000598769500000000000059876956050519000000000784023704158  000000000014300000000000000000000000000000000000000000000000000000000000000000000000000000000000000000000000000000000                          0000000000                                                                  000068
102122445950001000000009034510032549PREGTIT30165389300986     000000000000598769990000000000000000000000000902120319000598769900000000000059876999120419000000002240023704157  000000000014300000000000000000000000000000000000000000000000000000000000000000000000000000000000000000000000000000000                          0000000000                                                                  000069
102122445950001000000009034510032549PREGTIT30165389300986     000000000000598770060000000000000000000000000902120319000598770000000000000059877006100419000000000560023704157  000000000014300000000000000000000000000000000000000000000000000000000000000000000000000000000000000000000000000000000                          0000000000                                                                  000070
102122445950001000000009034510032549PREGTIT30168379657136     000000000000598770650000000000000000000000000902120319000598770600000000000059877065120419000000001140023704151  000000000014300000000000000000000000000000000000000000000000000000000000000000000000000000000000000000000000000000000                          0000000000                                                                  000071
102122445950001000000009034510032549PREGTIT30165367544616     000000000000598771030000000000000000000000000902120319000598771000000000000059877103120419000000000750023704151  000000000014300000000000000000000000000000000000000000000000000000000000000000000000000000000000000000000000000000000                          0000000000                                                                  000072
102122445950001000000009034510032549PREGTIT30176039366895     000000000000598771460000000000000000000000000902120319000598771400000000000059877146120419000000002688023704151  000000000014300000000000000000000000000000000000000000000000000000000000000000000000000000000000000000000000000000000                          0000000000                                                                  000073
102122445950001000000009034510032549PREGTIT30186417744267     000000000000598771700000000000000000000000000902120319000598771700000000000059877170180319000000001300023704157  000000000014300000000000000000000000000000000000000000000000000000000000000000000000000000000000000000000000000000000                          0000000000                                                                  000074
102122445950001000000009034510032549PREGTIT30186417744267     000000000000598771890000000000000000000000000902120319000598771800000000000059877189080419000000001400023704157  000000000014300000000000000000000000000000000000000000000000000000000000000000000000000000000000000000000000000000000                          0000000000                                                                  000075
102122445950001000000009034510032549PREGTIT30185209118032     000000000000598772190000000000000000000000000902120319000598772100000000000059877219100419000000000499523704157  000000000014300000000000000000000000000000000000000000000000000000000000000000000000000000000000000000000000000000000                          0000000000                                                                  000076
102122445950001000000009034510032549PREGTIT30185209118032     000000000000598772270000000000000000000000000902120319000598772200000000000059877227100519000000000499523704157  000000000014300000000000000000000000000000000000000000000000000000000000000000000000000000000000000000000000000000000                          0000000000                                                                  000077
102122445950001000000009034510032549PREGTIT25659699468401     000000000000582972860000000000000000000000000906120319000582972800000000000058297286160319000000002720023700389  000000000000000000000000000000000000000000000000000000000000000000000000000000000000002720000000000000000000000000000   130319             00000000000000                                                                  000078
102122445950001000000009034510032549PREGTIT21937022608622     000000000000586714630000000000000000000000000906120319000586714600000000000058671463250119000000002250023706608  000000000000000000000000000000000000000000000000000000000000000000000000000000000000002364000000000011400000000000000   130319             00000000000000                                                                  000079
102122445950001000000009034510032549PREGTIT26083709102334     000000000000587721970000000000000000000000000906120319000587721900000000000058772197200319000000004000010400263  000000000000000000000000000000000000000000000000000000000000000000000000000000000000004000000000000000000000000000000   130319             00000000000000                                                                  000080
102122445950001000000009034510032549PREGTIT25541939416432     000000000000588047140000000000000000000000000906120319000588047100000000000058804714150319000000004826023702405  000000000000000000000000000000000000000000000000000000000000000000000000000000000000004826000000000000000000000000000   130319             00000000000000                                                                  000081
102122445950001000000009034510032549PREGTIT26086123559843     000000000000588665230000000000000000000000000906120319000588665200000000000058866523200319000000001100023700882  000000000000000000000000000000000000000000000000000000000000000000000000000000000000001100000000000000000000000000000   130319             00000000000000                                                                  000082
102122445950001000000009034510032549PREGTIT26405869597411     000000000000588860440000000000000000000000000906120319000588860400000000000058886044250319000000001200023700160  000000000000000000000000000000000000000000000000000000000000000000000000000000000000001200000000000000000000000000000   130319             00000000000000                                                                  000083
102122445950001000000009034510032549PREGTIT25212106862734     000000000000589026940000000000000000000000000906120319000589026900000000000058902694100319000000002580010400960  000000000000000000000000000000000000000000000000000000000000000000000000000000000000002635000000000005500000000000000   130319             00000000000000                                                                  000084
102122445950001000000009034510032549PREGTIT26082311458649     000000000000589664390000000000000000000000000906120319000589664300000000000058966439200319000000002250010404039  000000000000000000000000000000000000000000000000000000000000000000000000000000000000002250000000000000000000000000000   130319             00000000000000                                                                  000085
102122445950001000000009034510032549PREGTIT25541897820184     000000000000590197860000000000000000000000000906120319000590197800000000000059019786150319000000000720074808130  000000000000000000000000000000000000000000000000000000000000000000000000000000000000000720000000000000000000000000000   130319             00000000000000                                                                  000086
102122445950001000000009034510032549PREGTIT25542343978153     000000000000591766600000000000000000000000000906120319000591766600000000000059176660150319000000002200010402884  000000000000000000000000000000000000000000000000000000000000000000000000000000000000002200000000000000000000000000000   130319             00000000000000                                                                  000087
102122445950001000000009034510032549PREGTIT25545789181163     000000000000591820830000000000000000000000000906120319000591820800000000000059182083140319000000001687523701122  000000000000000000000000000000000000000000000000000000000000000000000000000000000000001687500000000000000000000000000   130319             00000000000000                                                                  000088
102122445950001000000009034510032549PREGTIT24997486564790     0000000000005918731P000000000000000000000000090612031900059187310000000000005918731P070319000000003500010404125  000000000000000000000000000000000000000000000000000000000000000000000000000000000000003581500000000008150000000000000   130319             00000000000000                                                                  000089
102122445950001000000009034510032549PREGTIT26084257869728     000000000000592033900000000000000000000000000906120319000592033900000000000059203390200319000000001600010403218  000000000000000000000000000000000000000000000000000000000000000000000000000000000000001600000000000000000000000000000   130319             00000000000000                                                                  000090
102122445950001000000009034510032549PREGTIT25542303711846     000000000000592655230000000000000000000000000906120319000592655200000000000059265523140319000000003100010404071  000000000000000000000000000000000000000000000000000000000000000000000000000000000000003100000000000000000000000000000   130319             00000000000000                                                                  000091
102122445950001000000009034510032549PREGTIT23379742044380     000000000000592984640000000000000000000000000906120319000592984600000000000059298464100219000000000900010403548  000000000000000000000000000000000000000000000000000000000000000000000000000000000000000936000000000003600000000000000   130319             00000000000000                                                                  000092
102122445950001000000009034510032549PREGTIT25219742044380     000000000000592984720000000000000000000000000906120319000592984700000000000059298472100319000000000900010403548  000000000000000000000000000000000000000000000000000000000000000000000000000000000000000919200000000001920000000000000   130319             00000000000000                                                                  000093
102122445950001000000009034510032549PREGTIT25215091306596     000000000000593093850000000000000000000000000906120319000593093800000000000059309385100319000000001000010402363  000000000000000000000000000000000000000000000000000000000000000000000000000000000000001021400000000002140000000000000   130319             00000000000000                                                                  000094
102122445950001000000009034510032549PREGTIT25433789689967     0000000000005930961P000000000000000000000000090612031900059309610000000000005930961P120319000000001583310402363  000000000000000000000000000000000000000000000000000000000000000000000000000000000000001583300000000000000000000000000   130319             00000000000000                                                                  000095
102122445950001000000009034510032549PREGTIT26086217715437     000000000000593171080000000000000000000000000906120319000593171000000000000059317108200319000000003700010401814  000000000000000000000000000000000000000000000000000000000000000000000000000000000000003700000000000000000000000000000   130319             00000000000000                                                                  000096
102122445950001000000009034510032549PREGTIT22046414378488     000000000000593897610000000000000000000000000906120319000593897600000000000059389761260119000000001668000103273  000000000000000000000000000000000000000000000000000000000000000000000000000000000000001750800000000008280000000000000   130319             00000000000000                                                                  000097
102122445950001000000009034510032549PREGTIT24436414378488     0000000000005938977P000000000000000000000000090612031900059389770000000000005938977P260219000000001668000103273  000000000000000000000000000000000000000000000000000000000000000000000000000000000000001716700000000004870000000000000   130319             00000000000000                                                                  000098
102122445950001000000009034510032549PREGTIT24543181852569     0000000000005939157P000000000000000000000000090612031900059391570000000000005939157P280219000000000937500400041  000000000000000000000000000000000000000000000000000000000000000000000000000000000000000963400000000002590000000000000   130319             00000000000000                                                                  000099
102122445950001000000009034510032549PREGTIT25215843847567     000000000000593938740000000000000000000000000906120319000593938700000000000059393874100319000000001497523702997  000000000000000000000000000000000000000000000000000000000000000000000000000000000000001529400000000003190000000000000   130319             00000000000000                                                                  000100
102122445950001000000009034510032549PREGTIT23773980194590     000000000000594788290000000000000000000000000906120319000594788200000000000059478829170219000000001750023701122  000000000000000000000000000000000000000000000000000000000000000000000000000000000000001812600000000006260000000000000   130319             00000000000000                                                                  000101
102122445950001000000009034510032549PREGTIT25211796061876     000000000000594871780000000000000000000000000906120319000594871700000000000059487178100319000000004900010404681  000000000000000000000000000000000000000000000000000000000000000000000000000000000000005004600000000010460000000000000   130319             00000000000000                                                                  000102
102122445950001000000009034510032549PREGTIT24542864553145     000000000000594935850000000000000000000000000906120319000594935800000000000059493585010319000000003500023700689  000000000000000000000000000000000000000000000000000000000000000000000000000000000000003595300000000009530000000000000   130319             00000000000000                                                                  000103
102122445950001000000009034510032549PREGTIT25437906295197     000000000000595149490000000000000000000000000906120319000595149400000000000059514949120319000000003000034100572  000000000000000000000000000000000000000000000000000000000000000000000000000000000000003000000000000000000000000000000   130319             00000000000000                                                                  000104
102122445950001000000009034510032549PREGTIT25372182841789     000000000000595736940000000000000000000000000906120319000595736900000000000059573694060319000000001083323700100  000000000000000000000000000000000000000000000000000000000000000000000000000000000000001109100000000002580000000000000   130319             00000000000000                                                                  000105
102122445950001000000009034510032549PREGTIT25546976682382     000000000000595740110000000000000000000000000906120319000595740100000000000059574011150319000000007400003303585  000000000000000000000000000000000000000000000000000000000000000000000000000000000000007400000000000000000000000000000   130319             00000000000000                                                                  000106
102122445950001000000009034510032549PREGTIT25215893636908     000000000000595745770000000000000000000000000906120319000595745700000000000059574577100319000000001200023700875  000000000000000000000000000000000000000000000000000000000000000000000000000000000000001225600000000002560000000000000   130319             00000000000000                                                                  000107
102122445950001000000009034510032549PREGTIT24549776174128     000000000000595844080000000000000000000000000906120319000595844000000000000059584408280219000000001250034109926  000000000000000000000000000000000000000000000000000000000000000000000000000000000000001284600000000003460000000000000   130319             00000000000000                                                                  000108
102122445950001000000009034510032549PREGTIT26624522950876     000000000000595858890000000000000000000000000906120319000595858800000000000059585889280319000000001000010404399  000000000000000000000000000000000000000000000000000000000000000000000000000000000000001000000000000000000000000000000   130319             00000000000000                                                                  000109
102122445950001000000009034510032549PREGTIT24549870426158     000000000000595911020000000000000000000000000906120319000595911000000000000059591102270219000000001000000104043  000000000000000000000000000000000000000000000000000000000000000000000000000000000000001029100000000002910000000000000   130319             00000000000000                                                                  000110
102122445950001000000009034510032549PREGTIT25545749168776     0000000000005959425P000000000000000000000000090612031900059594250000000000005959425P150319000000001480000101772  000000000000000000000000000000000000000000000000000000000000000000000000000000000000001480000000000000000000000000000   130319             00000000000000                                                                  000111
102122445950001000000009034510032549PREGTIT25432830956499     000000000000595968990000000000000000000000000906120319000595968900000000000059596899120319000000003000000104314  000000000000000000000000000000000000000000000000000000000000000000000000000000000000003000000000000000000000000000000   130319             00000000000000                                                                  000112
102122445950001000000009034510032549PREGTIT25436339239134     000000000000595971000000000000000000000000000906120319000595971000000000000059597100120319000000003935034106243  000000000000000000000000000000000000000000000000000000000000000000000000000000000000003935000000000000000000000000000   130319             00000000000000                                                                  000113
102122445950001000000009034510032549PREGTIT22696504004506     000000000000596030700000000000000000000000000906120319000596030700000000000059603070300119000000004649710402928  000000000000000000000000000000000000000000000000000000000000000000000000000000000000004869700000000022000000000000000   130319             00000000000000                                                                  000114
102122445950001000000009034510032549PREGTIT25654215413472     000000000000596070330000000000000000000000000906120319000596070300000000000059607033150319000000001160010401569  000000000000000000000000000000000000000000000000000000000000000000000000000000000000001160000000000000000000000000000   130319             00000000000000                                                                  000115
102122445950001000000009034510032549PREGTIT25548510400739     000000000000596604140000000000000000000000000906120319000596604100000000000059660414150319000000001200010401882  000000000000000000000000000000000000000000000000000000000000000000000000000000000000001200000000000000000000000000000   130319             00000000000000                                                                  000116
102122445950001000000009034510032549PREGTIT25212688792856     000000000000596638470000000000000000000000000906120319000596638400000000000059663847100319000000001460010401681  000000000000000000000000000000000000000000000000000000000000000000000000000000000000001491200000000003120000000000000   130319             00000000000000                                                                  000117
102122445950001000000009034510032549PREGTIT25326659048174     000000000000596640880000000000000000000000000906120319000596640800000000000059664088110319000000002278003302189  000000000000000000000000000000000000000000000000000000000000000000000000000000000000002325000000000004700000000000000   130319             00000000000000                                                                  000118
102122445950001000000009034510032549PREGTIT25325039935828     000000000000596645840000000000000000000000000906120319000596645800000000000059664584110319000000004770010403397  000000000000000000000000000000000000000000000000000000000000000000000000000000000000004868600000000009860000000000000   130319             00000000000000                                                                  000119
102122445950001000000009034510032549PREGTIT26082745591625     000000000000596647380000000000000000000000000906120319000596647300000000000059664738200319000000004108710403859  000000000000000000000000000000000000000000000000000000000000000000000000000000000000004108700000000000000000000000000   130319             00000000000000                                                                  000120
102122445950001000000009034510032549PREGTIT25545161681386     000000000000596705330000000000000000000000000906120319000596705300000000000059670533130319000000001000023705286  000000000000000000000000000000000000000000000000000000000000000000000000000000000000001000000000000000000000000000000   130319             00000000000000                                                                  000121
102122445950001000000009034510032549PREGTIT26081915242245     000000000000596792710000000000000000000000000906120319000596792700000000000059679271200319000000002000000100459  000000000000000000000000000000000000000000000000000000000000000000000000000000000000002000000000000000000000000000000   130319             00000000000000                                                                  000122
102122445950001000000009034510032549PREGTIT25542597204935     000000000000596793790000000000000000000000000906120319000596793700000000000059679379150319000000001500010400960  000000000000000000000000000000000000000000000000000000000000000000000000000000000000001500000000000000000000000000000   130319             00000000000000                                                                  000123
102122445950001000000009034510032549PREGTIT25541943262529     0000000000005968237P000000000000000000000000090612031900059682370000000000005968237P150319000000002300010403218  000000000000000000000000000000000000000000000000000000000000000000000000000000000000002300000000000000000000000000000   130319             00000000000000                                                                  000124
102122445950001000000009034510032549PREGTIT25215696504720     000000000000596856970000000000000000000000000906120319000596856900000000000059685697100319000000000993323707714  000000000000000000000000000000000000000000000000000000000000000000000000000000000000001014500000000002120000000000000   130319             00000000000000                                                                  000125
102122445950001000000009034510032549PREGTIT25213095825219     000000000000596874870000000000000000000000000906120319000596874800000000000059687487100319000000001000010400686  000000000000000000000000000000000000000000000000000000000000000000000000000000000000001021400000000002140000000000000   130319             00000000000000                                                                  000126
102122445950001000000009034510032549PREGTIT26083862252653     000000000000596878940000000000000000000000000906120319000596878900000000000059687894200319000000002650003300210  000000000000000000000000000000000000000000000000000000000000000000000000000000000000002650000000000000000000000000000   130319             00000000000000                                                                  000127
102122445950001000000009034510032549PREGTIT25345561756218     000000000000597011100000000000000000000000000906120319000597011100000000000059701110100319000000000800010402864  000000000000000000000000000000000000000000000000000000000000000000000000000000000000000817000000000001700000000000000   130319             00000000000000                                                                  000128
102122445950001000000009034510032549PREGTIT25373072815322     000000000000597017300000000000000000000000000906120319000597017300000000000059701730110319000000001192534107501  000000000000000000000000000000000000000000000000000000000000000000000000000000000000001217100000000002460000000000000   130319             00000000000000                                                                  000129
102122445950001000000009034510032549PREGTIT25408902281009     000000000000597025080000000000000000000000000906120319000597025000000000000059702508100319000000012000023700929  000000000000000000000000000000000000000000000000000000000000000000000000000000000000012256000000000025600000000000000   130319             00000000000000                                                                  000130
102122445950001000000009034510032549PREGTIT25501530475132     0000000000005975317P000000000000000000000000090612031900059753170000000000005975317P140219000000008970000103263  000000000000000000000000000000000000000000000000000000000000000000000000000000000000009305400000000033540000000000000   130319             00000000000000                                                                  000131
102122445950001000000009034510032549PREGTIT25549657186182     0000000000005975429P000000000000000000000000090612031900059754290000000000005975429P120319000000000379374800718  000000000000000000000000000000000000000000000000000000000000000000000000000000000000000379300000000000000000000000000   130319             00000000000000                                                                  000132
102122445950001000000009034510032549PREGTIT26943183396876     000000000000597798100000000000000000000000000906120319000597798100000000000059779810100319000000002878010402553  000000000000000000000000000000000000000000000000000000000000000000000000000000000000002939300000000006130000000000000   130319             00000000000000                                                                  000133
102122445950001000000009034510032549PREGTIT27162428812579     000000000000597828890000000000000000000000000906120319000597828800000000000059782889110319000000002589534102000  000000000000000000000000000000000000000000000000000000000000000000000000000000000000002642900000000005340000000000000   130319             00000000000000                                                                  000134
102122445950001000000009034510032549PREGTIT27173340012782     000000000000597834270000000000000000000000000906120319000597834200000000000059783427120319000000000880010402884  000000000000000000000000000000000000000000000000000000000000000000000000000000000000000880000000000000000000000000000   130319             00000000000000                                                                  000135
102122445950001000000009034510032549PREGTIT27194630525165     000000000000597837610000000000000000000000000906120319000597837600000000000059783761100319000000002428610401437  000000000000000000000000000000000000000000000000000000000000000000000000000000000000002480300000000005170000000000000   130319             00000000000000                                                                  000136
102122445950001000000009034510032549PREGTIT27211520819225     000000000000597840080000000000000000000000000906120319000597840000000000000059784008110319000000003350075604368  000000000000000000000000000000000000000000000000000000000000000000000000000000000000003424800000000007480000000000000   130319             00000000000000                                                                  000137
102122445950001000000009034510032549PREGTIT27434976277388     000000000000597872520000000000000000000000000906120319000597872500000000000059787252100319000000001000010403584  000000000000000000000000000000000000000000000000000000000000000000000000000000000000001021400000000002140000000000000   130319             00000000000000                                                                  000138
102122445950001000000009034510032549PREGTIT27475717571924     000000000000597882910000000000000000000000000906120319000597882900000000000059788291100319000000001000010403584  000000000000000000000000000000000000000000000000000000000000000000000000000000000000001021400000000002140000000000000   130319             00000000000000                                                                  000139
102122445950001000000009034510032549PREGTIT27826537050671     000000000000598426520000000000000000000000000906120319000598426500000000000059842652110319000000003490000103499  000000000000000000000000000000000000000000000000000000000000000000000000000000000000003562100000000007210000000000000   130319             00000000000000                                                                  000140
102122445950001000000009034510032549PREGTIT27846638769598     0000000000005984289P000000000000000000000000090612031900059842890000000000005984289P170319000000003000000103214  000000000000000000000000000000000000000000000000000000000000000000000000000000000000003000000000000000000000000000000   130319             00000000000000                                                                  000141
102122445950001000000009034510032549PREGTIT27921669690579     0000000000005984471P000000000000000000000000090612031900059844710000000000005984471P110319000000001085023702997  000000000000000000000000000000000000000000000000000000000000000000000000000000000000001107400000000002240000000000000   130319             00000000000000                                                                  000142
102122445950001000000009034510032549PREGTIT28055529414498     000000000000598476970000000000000000000000000906120319000598476900000000000059847697200319000000006064134100062  000000000000000000000000000000000000000000000000000000000000000000000000000000000000006064100000000000000000000000000   130319             00000000000000                                                                  000143
102122445950001000000009034510032549PREGTIT28252704354338     000000000000598503100000000000000000000000000906120319000598503100000000000059850310110319000000002227034101634  000000000000000000000000000000000000000000000000000000000000000000000000000000000000002273000000000004600000000000000   130319             00000000000000                                                                  000144
102122445950001000000009034510032549PREGTIT28259261248488     000000000000598505310000000000000000000000000906120319000598505300000000000059850531160319000000002000010402122  000000000000000000000000000000000000000000000000000000000000000000000000000000000000002000000000000000000000000000000   130319             00000000000000                                                                  000145
102122445950001000000009034510032549PREGTIT28333986360695     000000000000598526580000000000000000000000000906120319000598526500000000000059852658140319000000004210010401266  000000000000000000000000000000000000000000000000000000000000000000000000000000000000004210000000000000000000000000000   130319             00000000000000                                                                  000146
102122445950001000000009034510032549PREGTIT28929132890274     0000000000005985992P000000000000000000000000090612031900059859920000000000005985992P150319000000007555610403626  000000000000000000000000000000000000000000000000000000000000000000000000000000000000007555600000000000000000000000000   130319             00000000000000                                                                  000147
102122445950001000000009034510032549PREGTIT28927681836796     000000000000598602000000000000000000000000000906120319000598602000000000000059860200150319000000003500010401266  000000000000000000000000000000000000000000000000000000000000000000000000000000000000003500000000000000000000000000000   130319             00000000000000                                                                  000148
102122445950001000000009034510032549PREGTIT28978324551375     000000000000598608470000000000000000000000000906120319000598608400000000000059860847100319000000000960010401266  000000000000000000000000000000000000000000000000000000000000000000000000000000000000000980400000000002040000000000000   130319             00000000000000                                                                  000149
102122445950001000000009034510032549PREGTIT29669082397541     000000000000598662090000000000000000000000000906120319000598662000000000000059866209120319000000009928623703131  000000000000000000000000000000000000000000000000000000000000000000000000000000000000009928600000000000000000000000000   130319             00000000000000                                                                  000150
102122445950001000000009034510032549PREGTIT29709333837698     000000000000598663060000000000000000000000000906120319000598663000000000000059866306200319000000001650075601545  000000000000000000000000000000000000000000000000000000000000000000000000000000000000001650000000000000000000000000000   130319             00000000000000                                                                  000151
102122445950001000000009034510032549PREGTIT29701927331822     000000000000598663300000000000000000000000000906120319000598663300000000000059866330200319000000005380075601545  000000000000000000000000000000000000000000000000000000000000000000000000000000000000005380000000000000000000000000000   130319             00000000000000                                                                  000152
102122445950001000000009034510032549PREGTIT29728513316681     000000000000598664970000000000000000000000000906120319000598664900000000000059866497200319000000003650075601545  000000000000000000000000000000000000000000000000000000000000000000000000000000000000003650000000000000000000000000000   130319             00000000000000                                                                  000153
102122445950001000000009034510032549PREGTIT25217489471269     000000000000591680480000000000000000000000000909120319000591680400000000000059168048100319000000002000023704150  000000000000000000000000000000000000000000000000000000000000000000000000000000000000000000000000000000000000000000000                          0000000000                                                                  000154
102122445950001000000009034510032549PREGTIT25212961462202     000000000000592785950000000000000000000000000909120319000592785900000000000059278595100319000000008100023704150  000000000000000000000000000000000000000000000000000000000000000000000000000000000000000000000000000000000000000000000                          0000000000                                                                  000155
102122445950001000000009034510032549PREGTIT25543518480530     000000000000592892600000000000000000000000000909120319000592892600000000000059289260130319000000010000023704150  000000000000000000000000000000000000000000000000000000000000000000000000000000000000000000000000000000000000000000000                          0000000000                                                                  000156
102122445950001000000009034510032549PREGTIT24547600606195     000000000000593008680000000000000000000000000909120319000593008600000000000059300868280219000000001166723704150  000000000000000000000000000000000000000000000000000000000000000000000000000000000000000000000000000000000000000000000                          0000000000                                                                  000157
102122445950001000000009034510032549PREGTIT25125792293424     000000000000593723540000000000000000000000000909120319000593723500000000000059372354080319000000000770023704150  000000000000000000000000000000000000000000000000000000000000000000000000000000000000000000000000000000000000000000000                          0000000000                                                                  000158
102122445950001000000009034510032549PREGTIT25541932894127     000000000000593935990000000000000000000000000909120319000593935900000000000059393599150319000000001400023704150  000000000000000000000000000000000000000000000000000000000000000000000000000000000000000000000000000000000000000000000                          0000000000                                                                  000159
102122445950001000000009034510032549PREGTIT25328659595238     000000000000593973810000000000000000000000000909120319000593973800000000000059397381050319000000004580023704150  000000000000000000000000000000000000000000000000000000000000000000000000000000000000000000000000000000000000000000000                          0000000000                                                                  000160
102122445950001000000009034510032549PREGTIT23462247302035     000000000000594095330000000000000000000000000909120319000594095300000000000059409533120219000000000316523704150  000000000000000000000000000000000000000000000000000000000000000000000000000000000000000000000000000000000000000000000                          0000000000                                                                  000161
102122445950001000000009034510032549PREGTIT23467183645789     000000000000594853020000000000000000000000000909120319000594853000000000000059485302120219000000002670023704150  000000000000000000000000000000000000000000000000000000000000000000000000000000000000000000000000000000000000000000000                          0000000000                                                                  000162
102122445950001000000009034510032549PREGTIT25219814581130     000000000000594907210000000000000000000000000909120319000594907200000000000059490721100319000000000666723704150  000000000000000000000000000000000000000000000000000000000000000000000000000000000000000000000000000000000000000000000                          0000000000                                                                  000163
102122445950001000000009034510032549PREGTIT24548872813367     000000000000594969080000000000000000000000000909120319000594969000000000000059496908280219000000003400023704150  000000000000000000000000000000000000000000000000000000000000000000000000000000000000000000000000000000000000000000000                          0000000000                                                                  000164
102122445950001000000009034510032549PREGTIT25372164950552     000000000000595097910000000000000000000000000909120319000595097900000000000059509791060319000000001583323704150  000000000000000000000000000000000000000000000000000000000000000000000000000000000000000000000000000000000000000000000                          0000000000                                                                  000165
102122445950001000000009034510032549PREGTIT25215723333934     000000000000595113030000000000000000000000000909120319000595113000000000000059511303100319000000004100023704150  000000000000000000000000000000000000000000000000000000000000000000000000000000000000000000000000000000000000000000000                          0000000000                                                                  000166
102122445950001000000009034510032549PREGTIT25544482172148     000000000000595726550000000000000000000000000909120319000595726500000000000059572655140319000000001410423704150  000000000000000000000000000000000000000000000000000000000000000000000000000000000000000000000000000000000000000000000                          0000000000                                                                  000167
102122445950001000000009034510032549PREGTIT25989368178264     000000000000595764800000000000000000000000000909120319000595764800000000000059576480190319000000000949723704150  000000000000000000000000000000000000000000000000000000000000000000000000000000000000000000000000000000000000000000000                          0000000000                                                                  000168
102122445950001000000009034510032549PREGTIT26085502032699     000000000000595803130000000000000000000000000909120319000595803100000000000059580313210319000000000566723704150  000000000000000000000000000000000000000000000000000000000000000000000000000000000000000000000000000000000000000000000                          0000000000                                                                  000169
102122445950001000000009034510032549PREGTIT24998219629418     000000000000595844830000000000000000000000000909120319000595844800000000000059584483080319000000002617523704150  000000000000000000000000000000000000000000000000000000000000000000000000000000000000000000000000000000000000000000000                          0000000000                                                                  000170
102122445950001000000009034510032549PREGTIT24998701121927     000000000000596067890000000000000000000000000909120319000596067800000000000059606789060319000000001633323704150  000000000000000000000000000000000000000000000000000000000000000000000000000000000000000000000000000000000000000000000                          0000000000                                                                  000171
102122445950001000000009034510032549PREGTIT25213374046766     000000000000596584010000000000000000000000000909120319000596584000000000000059658401100319000000005000023704150  000000000000000000000000000000000000000000000000000000000000000000000000000000000000000000000000000000000000000000000                          0000000000                                                                  000172
102122445950001000000009034510032549PREGTIT25212619867920     000000000000596596610000000000000000000000000909120319000596596600000000000059659661100319000000001200023704150  000000000000000000000000000000000000000000000000000000000000000000000000000000000000000000000000000000000000000000000                          0000000000                                                                  000173
102122445950001000000009034510032549PREGTIT26083041699868     000000000000596610380000000000000000000000000909120319000596610300000000000059661038210319000000000510723704150  000000000000000000000000000000000000000000000000000000000000000000000000000000000000000000000000000000000000000000000                          0000000000                                                                  000174
102122445950001000000009034510032549PREGTIT25213771533196     000000000000596611780000000000000000000000000909120319000596611700000000000059661178100319000000000488323704150  000000000000000000000000000000000000000000000000000000000000000000000000000000000000000000000000000000000000000000000                          0000000000                                                                  000175
102122445950001000000009034510032549PREGTIT25549002612626     000000000000596650250000000000000000000000000909120319000596650200000000000059665025150319000000001700023704150  000000000000000000000000000000000000000000000000000000000000000000000000000000000000000000000000000000000000000000000                          0000000000                                                                  000176
102122445950001000000009034510032549PREGTIT23565881928064     000000000000596731410000000000000000000000000909120319000596731400000000000059673141150219000000000900023704150  000000000000000000000000000000000000000000000000000000000000000000000000000000000000000000000000000000000000000000000                          0000000000                                                                  000177
102122445950001000000009034510032549PREGTIT24212038668853     000000000000596857190000000000000000000000000909120319000596857100000000000059685719240219000000002560023704150  000000000000000000000000000000000000000000000000000000000000000000000000000000000000000000000000000000000000000000000                          0000000000                                                                  000178
102122445950001000000009034510032549PREGTIT25215310294346     000000000000596934950000000000000000000000000909120319000596934900000000000059693495100319000000002300023704150  000000000000000000000000000000000000000000000000000000000000000000000000000000000000000000000000000000000000000000000                          0000000000                                                                  000179
102122445950001000000009034510032549PREGTIT25216748754079     0000000000005969789P000000000000000000000000090912031900059697890000000000005969789P100319000000001074023704150  000000000000000000000000000000000000000000000000000000000000000000000000000000000000000000000000000000000000000000000                          0000000000                                                                  000180
102122445950001000000009034510032549PREGTIT25248606999789     0000000000005969887P000000000000000000000000090912031900059698870000000000005969887P090319000000001000023704150  000000000000000000000000000000000000000000000000000000000000000000000000000000000000000000000000000000000000000000000                          0000000000                                                                  000181
102122445950001000000009034510032549PREGTIT25439611280477     000000000000597001220000000000000000000000000909120319000597001200000000000059700122120319000000004500023704150  000000000000000000000000000000000000000000000000000000000000000000000000000000000000000000000000000000000000000000000                          0000000000                                                                  000182
102122445950001000000009034510032549PREGTIT25617408625574     000000000000597547960000000000000000000000000909120319000597547900000000000059754796140319000000000342723704150  000000000000000000000000000000000000000000000000000000000000000000000000000000000000000000000000000000000000000000000                          0000000000                                                                  000183
102122445950001000000009034510032549PREGTIT27937408625574     0000000000005975480P000000000000000000000000090912031900059754800000000000005975480P140419000000000342723704150  000000000000000000000000000000000000000000000000000000000000000000000000000000000000000000000000000000000000000000000                          0000000000                                                                  000184
102122445950001000000009034510032549PREGTIT25677269967326     000000000000597567560000000000000000000000000909120319000597567500000000000059756756100319000000002000023704150  000000000000000000000000000000000000000000000000000000000000000000000000000000000000000000000000000000000000000000000                          0000000000                                                                  000185
102122445950001000000009034510032549PREGTIT25688716869776     0000000000005975706P000000000000000000000000090912031900059757060000000000005975706P100319000000002200023704150  000000000000000000000000000000000000000000000000000000000000000000000000000000000000000000000000000000000000000000000                          0000000000                                                                  000186
102122445950001000000009034510032549PREGTIT25751313575717     000000000000597586860000000000000000000000000909120319000597586800000000000059758686150319000000001047023704150  000000000000000000000000000000000000000000000000000000000000000000000000000000000000000000000000000000000000000000000                          0000000000                                                                  000187
102122445950001000000009034510032549PREGTIT25838478748641     000000000000597598440000000000000000000000000909120319000597598400000000000059759844050319000000002866723704150  000000000000000000000000000000000000000000000000000000000000000000000000000000000000000000000000000000000000000000000                          0000000000                                                                  000188
102122445950001000000009034510032549PREGTIT26625073279312     000000000000597625510000000000000000000000000909120319000597625500000000000059762551280319000000001500023704150  000000000000000000000000000000000000000000000000000000000000000000000000000000000000000000000000000000000000000000000                          0000000000                                                                  000189
102122445950001000000009034510032549PREGTIT26128220110221     000000000000597652320000000000000000000000000909120319000597652300000000000059765232200319000000001200023704150  000000000000000000000000000000000000000000000000000000000000000000000000000000000000000000000000000000000000000000000                          0000000000                                                                  000190
102122445950001000000009034510032549PREGTIT26189784947323     000000000000597658520000000000000000000000000909120319000597658500000000000059765852100319000000003766723704150  000000000000000000000000000000000000000000000000000000000000000000000000000000000000000000000000000000000000000000000                          0000000000                                                                  000191
102122445950001000000009034510032549PREGTIT26371456191539     000000000000597701550000000000000000000000000909120319000597701500000000000059770155130219000000002035023704150  000000000000000000000000000000000000000000000000000000000000000000000000000000000000000000000000000000000000000000000                          0000000000                                                                  000192
102122445950001000000009034510032549PREGTIT26623624822062     000000000000597752620000000000000000000000000909120319000597752600000000000059775262260219000000001200023704150  000000000000000000000000000000000000000000000000000000000000000000000000000000000000000000000000000000000000000000000                          0000000000                                                                  000193
102122445950001000000009034510032549PREGTIT26904424733105     000000000000597793220000000000000000000000000909120319000597793200000000000059779322020319000000000650023704150  000000000000000000000000000000000000000000000000000000000000000000000000000000000000000000000000000000000000000000000                          0000000000                                                                  000194
102122445950001000000009034510032549PREGTIT27629723365219     000000000000597901050000000000000000000000000909120319000597901000000000000059790105050319000000009990023704150  000000000000000000000000000000000000000000000000000000000000000000000000000000000000000000000000000000000000000000000                          0000000000                                                                  000195
102122445950001000000009034510032549PREGTIT27654587654893     000000000000597905630000000000000000000000000909120319000597905600000000000059790563280219000000000450023704150  000000000000000000000000000000000000000000000000000000000000000000000000000000000000000000000000000000000000000000000                          0000000000                                                                  000196
102122445950001000000009034510032549PREGTIT28123334256009     000000000000598487070000000000000000000000000909120319000598487000000000000059848707140319000000001816023704150  000000000000000000000000000000000000000000000000000000000000000000000000000000000000000000000000000000000000000000000                          0000000000                                                                  000197
102122445950001000000009034510032549PREGTIT28432093608118     000000000000598547230000000000000000000000000909120319000598547200000000000059854723190319000000000419023704150  000000000000000000000000000000000000000000000000000000000000000000000000000000000000000000000000000000000000000000000                          0000000000                                                                  000198
102122445950001000000009034510032549PREGTIT30099614957749     000000000000589048160000000000000000000000000927120319000589048100000000000058904816100319000000000720023700000  000000000000000000000000000000000000000000000000000000000000000000000000000000000000000000000000000000000000000000000                          6000000000                                                                  000199
102122445950001000000009034510032549PREGTIT30097847799079     000000000000589871340000000000000000000000000927120319000589871300000000000058987134210219000000001000023700000  000000000000000000000000000000000000000000000000000000000000000000000000000000000000000000000000000000000000000000000                          6000000000                                                                  000200
102122445950001000000009034510032549PREGTIT30127489471269     000000000000591680480000000000000000000000000927120319000591680400000000000059168048100319000000002000023700000  000000000000000000000000000000000000000000000000000000000000000000000000000000000000000000000000000000000000000000000                          6000000000                                                                  000201
102122445950001000000009034510032549PREGTIT30098025876097     000000000000591978380000000000000000000000000927120319000591978300000000000059197838100319000000006000023700000  000000000000000000000000000000000000000000000000000000000000000000000000000000000000000000000000000000000000000000000                          6000000000                                                                  000202
102122445950001000000009034510032549PREGTIT30097816114810     000000000000592022700000000000000000000000000927120319000592022700000000000059202270100319000000001939923700000  000000000000000000000000000000000000000000000000000000000000000000000000000000000000000000000000000000000000000000000                          6000000000                                                                  000203
102122445950001000000009034510032549PREGTIT30094406615652     000000000000592743280000000000000000000000000927120319000592743200000000000059274328010319000000000928623700000  000000000000000000000000000000000000000000000000000000000000000000000000000000000000000000000000000000000000000000000                          6000000000                                                                  000204
102122445950001000000009034510032549PREGTIT30182961462202     000000000000592785950000000000000000000000000927120319000592785900000000000059278595100319000000008100023700000  000000000000000000000000000000000000000000000000000000000000000000000000000000000000000000000000000000000000000000000                          6000000000                                                                  000205
102122445950001000000009034510032549PREGTIT30091181152889     000000000000592860400000000000000000000000000927120319000592860400000000000059286040200219000000001700023700000  000000000000000000000000000000000000000000000000000000000000000000000000000000000000000000000000000000000000000000000                          6000000000                                                                  000206
102122445950001000000009034510032549PREGTIT30153518480530     000000000000592892600000000000000000000000000927120319000592892600000000000059289260130319000000010000023700000  000000000000000000000000000000000000000000000000000000000000000000000000000000000000000000000000000000000000000000000                          6000000000                                                                  000207
102122445950001000000009034510032549PREGTIT30157600606195     000000000000593008680000000000000000000000000927120319000593008600000000000059300868280219000000001166723700000  000000000000000000000000000000000000000000000000000000000000000000000000000000000000000000000000000000000000000000000                          6000000000                                                                  000208
102122445950001000000009034510032549PREGTIT30098888704996     000000000000593081250000000000000000000000000927120319000593081200000000000059308125100319000000000454223700000  000000000000000000000000000000000000000000000000000000000000000000000000000000000000000000000000000000000000000000000                          6000000000                                                                  000209
102122445950001000000009034510032549PREGTIT30185792293424     000000000000593723540000000000000000000000000927120319000593723500000000000059372354080319000000000770023700000  000000000000000000000000000000000000000000000000000000000000000000000000000000000000000000000000000000000000000000000                          6000000000                                                                  000210
102122445950001000000009034510032549PREGTIT30101932894127     000000000000593935990000000000000000000000000927120319000593935900000000000059393599150319000000001400023700000  000000000000000000000000000000000000000000000000000000000000000000000000000000000000000000000000000000000000000000000                          6000000000                                                                  000211
102122445950001000000009034510032549PREGTIT30091858551543     0000000000005940311P000000000000000000000000092712031900059403110000000000005940311P040319000000003700023700000  000000000000000000000000000000000000000000000000000000000000000000000000000000000000000000000000000000000000000000000                          6000000000                                                                  000212
102122445950001000000009034510032549PREGTIT30094237879042     000000000000594847560000000000000000000000000927120319000594847500000000000059484756220219000000001100023700000  000000000000000000000000000000000000000000000000000000000000000000000000000000000000000000000000000000000000000000000                          6000000000                                                                  000213
102122445950001000000009034510032549PREGTIT30187183645789     000000000000594853020000000000000000000000000927120319000594853000000000000059485302120219000000002670023700000  000000000000000000000000000000000000000000000000000000000000000000000000000000000000000000000000000000000000000000000                          6000000000                                                                  000214
102122445950001000000009034510032549PREGTIT30189814581130     000000000000594907210000000000000000000000000927120319000594907200000000000059490721100319000000000666723700000  000000000000000000000000000000000000000000000000000000000000000000000000000000000000000000000000000000000000000000000                          6000000000                                                                  000215
102122445950001000000009034510032549PREGTIT30094705574044     000000000000594962660000000000000000000000000927120319000594962600000000000059496266150319000000001980023700000  000000000000000000000000000000000000000000000000000000000000000000000000000000000000000000000000000000000000000000000                          6000000000                                                                  000216
102122445950001000000009034510032549PREGTIT30148872813367     000000000000594969080000000000000000000000000927120319000594969000000000000059496908280219000000003400023700000  000000000000000000000000000000000000000000000000000000000000000000000000000000000000000000000000000000000000000000000                          6000000000                                                                  000217
102122445950001000000009034510032549PREGTIT30093794559513     000000000000594978820000000000000000000000000927120319000594978800000000000059497882150219000000001600023700000  000000000000000000000000000000000000000000000000000000000000000000000000000000000000000000000000000000000000000000000                          6000000000                                                                  000218
102122445950001000000009034510032549PREGTIT30152164950552     000000000000595097910000000000000000000000000927120319000595097900000000000059509791060319000000001583323700000  000000000000000000000000000000000000000000000000000000000000000000000000000000000000000000000000000000000000000000000                          6000000000                                                                  000219
102122445950001000000009034510032549PREGTIT30185723333934     000000000000595113030000000000000000000000000927120319000595113000000000000059511303100319000000004100023700000  000000000000000000000000000000000000000000000000000000000000000000000000000000000000000000000000000000000000000000000                          6000000000                                                                  000220
102122445950001000000009034510032549PREGTIT30093099109604     000000000000595667870000000000000000000000000927120319000595667800000000000059566787100319000000000972023700000  000000000000000000000000000000000000000000000000000000000000000000000000000000000000000000000000000000000000000000000                          6000000000                                                                  000221
102122445950001000000009034510032549PREGTIT30092170260283     000000000000595691070000000000000000000000000927120319000595691000000000000059569107090319000000001000023700000  000000000000000000000000000000000000000000000000000000000000000000000000000000000000000000000000000000000000000000000                          6000000000                                                                  000222
102122445950001000000009034510032549PREGTIT30194482172148     000000000000595726550000000000000000000000000927120319000595726500000000000059572655140319000000001410423700000  000000000000000000000000000000000000000000000000000000000000000000000000000000000000000000000000000000000000000000000                          6000000000                                                                  000223
102122445950001000000009034510032549PREGTIT30093361627124     000000000000595757000000000000000000000000000927120319000595757000000000000059575700200319000000002800023700000  000000000000000000000000000000000000000000000000000000000000000000000000000000000000000000000000000000000000000000000                          6000000000                                                                  000224
102122445950001000000009034510032549PREGTIT30199368178264     000000000000595764800000000000000000000000000927120319000595764800000000000059576480190319000000000949723700000  000000000000000000000000000000000000000000000000000000000000000000000000000000000000000000000000000000000000000000000                          6000000000                                                                  000225
102122445950001000000009034510032549PREGTIT30195502032699     000000000000595803130000000000000000000000000927120319000595803100000000000059580313210319000000000566723700000  000000000000000000000000000000000000000000000000000000000000000000000000000000000000000000000000000000000000000000000                          6000000000                                                                  000226
102122445950001000000009034510032549PREGTIT30091422368159     000000000000595841140000000000000000000000000927120319000595841100000000000059584114230219000000001550023700000  000000000000000000000000000000000000000000000000000000000000000000000000000000000000000000000000000000000000000000000                          6000000000                                                                  000227
102122445950001000000009034510032549PREGTIT30093766294800     000000000000595860600000000000000000000000000927120319000595860600000000000059586060100319000000000401723700000  000000000000000000000000000000000000000000000000000000000000000000000000000000000000000000000000000000000000000000000                          6000000000                                                                  000228
102122445950001000000009034510032549PREGTIT30096247947675     0000000000005958629P000000000000000000000000092712031900059586290000000000005958629P150319000000000374823700000  000000000000000000000000000000000000000000000000000000000000000000000000000000000000000000000000000000000000000000000                          6000000000                                                                  000229
102122445950001000000009034510032549PREGTIT30093871692977     000000000000595884460000000000000000000000000927120319000595884400000000000059588446110219000000003250023700000  000000000000000000000000000000000000000000000000000000000000000000000000000000000000000000000000000000000000000000000                          6000000000                                                                  000230
102122445950001000000009034510032549PREGTIT30093871692977     000000000000595884540000000000000000000000000927120319000595884500000000000059588454110319000000003250023700000  000000000000000000000000000000000000000000000000000000000000000000000000000000000000000000000000000000000000000000000                          6000000000                                                                  000231
102122445950001000000009034510032549PREGTIT30095607309001     000000000000595895230000000000000000000000000927120319000595895200000000000059589523050319000000001098023700000  000000000000000000000000000000000000000000000000000000000000000000000000000000000000000000000000000000000000000000000                          6000000000                                                                  000232
102122445950001000000009034510032549PREGTIT30098437278514     000000000000595938810000000000000000000000000927120319000595938800000000000059593881100319000000001200023700000  000000000000000000000000000000000000000000000000000000000000000000000000000000000000000000000000000000000000000000000                          6000000000                                                                  000233
102122445950001000000009034510032549PREGTIT30097790321339     000000000000595986110000000000000000000000000927120319000595986100000000000059598611030319000000000933323700000  000000000000000000000000000000000000000000000000000000000000000000000000000000000000000000000000000000000000000000000                          6000000000                                                                  000234
102122445950001000000009034510032549PREGTIT30118701121927     000000000000596067890000000000000000000000000927120319000596067800000000000059606789060319000000001633323700000  000000000000000000000000000000000000000000000000000000000000000000000000000000000000000000000000000000000000000000000                          6000000000                                                                  000235
102122445950001000000009034510032549PREGTIT30123374046766     000000000000596584010000000000000000000000000927120319000596584000000000000059658401100319000000005000023700000  000000000000000000000000000000000000000000000000000000000000000000000000000000000000000000000000000000000000000000000                          6000000000                                                                  000236
102122445950001000000009034510032549PREGTIT30182619867920     000000000000596596610000000000000000000000000927120319000596596600000000000059659661100319000000001200023700000  000000000000000000000000000000000000000000000000000000000000000000000000000000000000000000000000000000000000000000000                          6000000000                                                                  000237
102122445950001000000009034510032549PREGTIT30193041699868     000000000000596610380000000000000000000000000927120319000596610300000000000059661038210319000000000510723700000  000000000000000000000000000000000000000000000000000000000000000000000000000000000000000000000000000000000000000000000                          6000000000                                                                  000238
102122445950001000000009034510032549PREGTIT30193771533196     000000000000596611780000000000000000000000000927120319000596611700000000000059661178100319000000000488323700000  000000000000000000000000000000000000000000000000000000000000000000000000000000000000000000000000000000000000000000000                          6000000000                                                                  000239
102122445950001000000009034510032549PREGTIT30149002612626     000000000000596650250000000000000000000000000927120319000596650200000000000059665025150319000000001700023700000  000000000000000000000000000000000000000000000000000000000000000000000000000000000000000000000000000000000000000000000                          6000000000                                                                  000240
102122445950001000000009034510032549PREGTIT30095303618845     000000000000596675080000000000000000000000000927120319000596675000000000000059667508200219000000002500023700000  000000000000000000000000000000000000000000000000000000000000000000000000000000000000000000000000000000000000000000000                          6000000000                                                                  000241
102122445950001000000009034510032549PREGTIT30096242692342     000000000000596726090000000000000000000000000927120319000596726000000000000059672609070319000000006487523700000  000000000000000000000000000000000000000000000000000000000000000000000000000000000000000000000000000000000000000000000                          6000000000                                                                  000242
102122445950001000000009034510032549PREGTIT30092901035708     000000000000596733970000000000000000000000000927120319000596733900000000000059673397100319000000000650023700000  000000000000000000000000000000000000000000000000000000000000000000000000000000000000000000000000000000000000000000000                          6000000000                                                                  000243
102122445950001000000009034510032549PREGTIT30095467718206     000000000000596834650000000000000000000000000927120319000596834600000000000059683465190219000000001300023700000  000000000000000000000000000000000000000000000000000000000000000000000000000000000000000000000000000000000000000000000                          6000000000                                                                  000244
102122445950001000000009034510032549PREGTIT30094166632402     000000000000596846740000000000000000000000000927120319000596846700000000000059684674100319000000000348023700000  000000000000000000000000000000000000000000000000000000000000000000000000000000000000000000000000000000000000000000000                          6000000000                                                                  000245
102122445950001000000009034510032549PREGTIT30098428726568     000000000000596854840000000000000000000000000927120319000596854800000000000059685484100319000000001800023700000  000000000000000000000000000000000000000000000000000000000000000000000000000000000000000000000000000000000000000000000                          6000000000                                                                  000246
102122445950001000000009034510032549PREGTIT30172038668853     000000000000596857190000000000000000000000000927120319000596857100000000000059685719240219000000002560023700000  000000000000000000000000000000000000000000000000000000000000000000000000000000000000000000000000000000000000000000000                          6000000000                                                                  000247
102122445950001000000009034510032549PREGTIT30096256835518     000000000000596887180000000000000000000000000927120319000596887100000000000059688718010319000000001500023700000  000000000000000000000000000000000000000000000000000000000000000000000000000000000000000000000000000000000000000000000                          6000000000                                                                  000248
