02RETORNO01COBRANCA       00000000000004852239ISPCN ADM DE COBRANCA DE TITUL237BRADESCO       1503190160000000604                                                                                                                                                                                                                                                                          180319         000001
102122445950001000000009034510032549PREGTIT30429354446559     000000000000589704440000000000000000000000000902150319000589704400000000000058970444140519000000001100023704159  000000000014300000000000000000000000000000000000000000000000000000000000000000000000000000000000000000000000000000000                          0000000000                                                                  000002
102122445950001000000009034510032549PREGTIT30423219034837     000000000000591119680000000000000000000000000902150319000591119600000000000059111968140519000000001466423704144  000000000014300000000000000000000000000000000000000000000000000000000000000000000000000000000000000000000000000000000                          0000000000                                                                  000003
102122445950001000000009034510032549PREGTIT30422303711846     0000000000005926554P000000000000000000000000090215031900059265540000000000005926554P140519000000003100023704151  000000000014300000000000000000000000000000000000000000000000000000000000000000000000000000000000000000000000000000000                          7600000000                                                                  000004
102122445950001000000009034510032549PREGTIT30422798294532     000000000000592669450000000000000000000000000902150319000592669400000000000059266945140519000000001400023704151  000000000014300000000000000000000000000000000000000000000000000000000000000000000000000000000000000000000000000000000                          0000000000                                                                  000005
102122445950001000000009034510032549PREGTIT30423094045213     000000000000592675260000000000000000000000000902150319000592675200000000000059267526140519000000008000023704151  000000000014300000000000000000000000000000000000000000000000000000000000000000000000000000000000000000000000000000000                          0000000000                                                                  000006
102122445950001000000009034510032549PREGTIT30424701391578     000000000000592897240000000000000000000000000902150319000592897200000000000059289724140519000000000950023703451  000000000014300000000000000000000000000000000000000000000000000000000000000000000000000000000000000000000000000000000                          0000000000                                                                  000007
102122445950001000000009034510032549PREGTIT30426745799018     000000000000592898720000000000000000000000000902150319000592898700000000000059289872140519000000000950023703451  000000000014300000000000000000000000000000000000000000000000000000000000000000000000000000000000000000000000000000000                          0000000000                                                                  000008
102122445950001000000009034510032549PREGTIT30426975328235     000000000000593733180000000000000000000000000902150319000593733100000000000059373318140519000000002500023704157  000000000014300000000000000000000000000000000000000000000000000000000000000000000000000000000000000000000000000000000                          7600000000                                                                  000009
102122445950001000000009034510032549PREGTIT30424482172148     000000000000595726710000000000000000000000000902150319000595726700000000000059572671140519000000001410423704144  000000000014300000000000000000000000000000000000000000000000000000000000000000000000000000000000000000000000000000000                          0000000000                                                                  000010
102122445950001000000009034510032549PREGTIT30424436965125     0000000000005957304P000000000000000000000000090215031900059573040000000000005957304P140519000000001112423704157  000000000014300000000000000000000000000000000000000000000000000000000000000000000000000000000000000000000000000000000                          7600000000                                                                  000011
102122445950001000000009034510032549PREGTIT30427642688370     000000000000596716880000000000000000000000000902150319000596716800000000000059671688140519000000000349623704157  000000000014300000000000000000000000000000000000000000000000000000000000000000000000000000000000000000000000000000000                          0000000000                                                                  000012
102122445950001000000009034510032549PREGTIT30422884100356     000000000000596746280000000000000000000000000902150319000596746200000000000059674628140519000000000400023704144  000000000014300000000000000000000000000000000000000000000000000000000000000000000000000000000000000000000000000000000                          0000000000                                                                  000013
102122445950001000000009034510032549PREGTIT30428655369915     000000000000596786820000000000000000000000000902150319000596786800000000000059678682140519000000000600023704144  000000000014300000000000000000000000000000000000000000000000000000000000000000000000000000000000000000000000000000000                          0000000000                                                                  000014
102122445950001000000009034510032549PREGTIT30425922732957     000000000000596796970000000000000000000000000902150319000596796900000000000059679697140519000000001580023704151  000000000014300000000000000000000000000000000000000000000000000000000000000000000000000000000000000000000000000000000                          0000000000                                                                  000015
102122445950001000000009034510032549PREGTIT30421530475132     0000000000005975320P000000000000000000000000090215031900059753200000000000005975320P140519000000008970023704157  000000000014300000000000000000000000000000000000000000000000000000000000000000000000000000000000000000000000000000000                          0000000000                                                                  000016
102122445950001000000009034510032549PREGTIT30423048250418     000000000000598475810000000000000000000000000902150319000598475800000000000059847581140519000000002553223704144  000000000014300000000000000000000000000000000000000000000000000000000000000000000000000000000000000000000000000000000                          0000000000                                                                  000017
102122445950001000000009034510032549PREGTIT30429214116417     000000000000598479480000000000000000000000000902150319000598479400000000000059847948140519000000005000023704151  000000000014300000000000000000000000000000000000000000000000000000000000000000000000000000000000000000000000000000000                          0000000000                                                                  000018
102122445950001000000009034510032549PREGTIT30427853567384     0000000000005984874P000000000000000000000000090215031900059848740000000000005984874P140519000000001040023704151  000000000014300000000000000000000000000000000000000000000000000000000000000000000000000000000000000000000000000000000                          7600000000                                                                  000019
102122445950001000000009034510032549PREGTIT30427081801841     000000000000598712290000000000000000000000000902150319000598712200000000000059871229140519000000002935323704157  000000000014300000000000000000000000000000000000000000000000000000000000000000000000000000000000000000000000000000000                          0000000000                                                                  000020
102122445950001000000009034510032549PREGTIT30425271721730     000000000000599288240000000000000000000000000902150319000599288200000000000059928824140519000000000348023704157  000000000014300000000000000000000000000000000000000000000000000000000000000000000000000000000000000000000000000000000                          0000000000                                                                  000021
102122445950001000000009034510032549PREGTIT30424272883294     000000000000599289130000000000000000000000000902150319000599289100000000000059928913140519000000000375023703451  000000000014300000000000000000000000000000000000000000000000000000000000000000000000000000000000000000000000000000000                          0000000000                                                                  000022
102122445950001000000009034510032549PREGTIT30426963742499     000000000000599296850000000000000000000000000902150319000599296800000000000059929685140519000000002148223704144  000000000014300000000000000000000000000000000000000000000000000000000000000000000000000000000000000000000000000000000                          0000000000                                                                  000023
102122445950001000000009034510032549PREGTIT30429792607463     000000000000599298550000000000000000000000000902150319000599298500000000000059929855140519000000000022523704157  000000000014300000000000000000000000000000000000000000000000000000000000000000000000000000000000000000000000000000000                          0000000000                                                                  000024
102122445950001000000009034510032549PREGTIT30423238379102     000000000000599304540000000000000000000000000902150319000599304500000000000059930454140419000000001000023704422  000000000014300000000000000000000000000000000000000000000000000000000000000000000000000000000000000000000000000000000                          0000000000                                                                  000025
102122445950001000000009034510032549PREGTIT30423238379102     000000000000599304620000000000000000000000000902150319000599304600000000000059930462140519000000001000023704422  000000000014300000000000000000000000000000000000000000000000000000000000000000000000000000000000000000000000000000000                          0000000000                                                                  000026
102122445950001000000009034510032549PREGTIT30434199330748     000000000000599304890000000000000000000000000902150319000599304800000000000059930489150419000000006000023704400  000000000014300000000000000000000000000000000000000000000000000000000000000000000000000000000000000000000000000000000                          0000000000                                                                  000027
102122445950001000000009034510032549PREGTIT30432745059571     000000000000599304970000000000000000000000000902150319000599304900000000000059930497200419000000004000023704151  000000000014300000000000000000000000000000000000000000000000000000000000000000000000000000000000000000000000000000000                          0000000000                                                                  000028
102122445950001000000009034510032549PREGTIT30436870021828     000000000000599306160000000000000000000000000902150319000599306100000000000059930616150419000000000010023704426  000000000014300000000000000000000000000000000000000000000000000000000000000000000000000000000000000000000000000000000                          0000000000                                                                  000029
102122445950001000000009034510032549PREGTIT30431628949683     000000000000599307480000000000000000000000000902150319000599307400000000000059930748150419000000014580023704159  000000000014300000000000000000000000000000000000000000000000000000000000000000000000000000000000000000000000000000000                          0000000000                                                                  000030
102122445950001000000009034510032549PREGTIT30433584532410     000000000000599307560000000000000000000000000902150319000599307500000000000059930756150419000000002215023704426  000000000014300000000000000000000000000000000000000000000000000000000000000000000000000000000000000000000000000000000                          0000000000                                                                  000031
102122445950001000000009034510032549PREGTIT30437498484924     000000000000599307640000000000000000000000000902150319000599307600000000000059930764150419000000001680023704152  000000000014300000000000000000000000000000000000000000000000000000000000000000000000000000000000000000000000000000000                          0000000000                                                                  000032
102122445950001000000009034510032549PREGTIT30441849215436     000000000000599307720000000000000000000000000902150319000599307700000000000059930772100519000000003180123704152  000000000014300000000000000000000000000000000000000000000000000000000000000000000000000000000000000000000000000000000                          0000000000                                                                  000033
102122445950001000000009034510032549PREGTIT30446357568283     000000000000599308020000000000000000000000000902150319000599308000000000000059930802100419000000002800023704151  000000000014300000000000000000000000000000000000000000000000000000000000000000000000000000000000000000000000000000000                          0000000000                                                                  000034
102122445950001000000009034510032549PREGTIT30446357568283     000000000000599308100000000000000000000000000902150319000599308100000000000059930810100519000000002800023704151  000000000014300000000000000000000000000000000000000000000000000000000000000000000000000000000000000000000000000000000                          0000000000                                                                  000035
102122445950001000000009034510032549PREGTIT30447172958606     000000000000599309180000000000000000000000000902150319000599309100000000000059930918120419000000002650023704151  000000000014300000000000000000000000000000000000000000000000000000000000000000000000000000000000000000000000000000000                          0000000000                                                                  000036
102122445950001000000009034510032549PREGTIT30447172958606     000000000000599309260000000000000000000000000902150319000599309200000000000059930926120519000000002650023704151  000000000014300000000000000000000000000000000000000000000000000000000000000000000000000000000000000000000000000000000                          0000000000                                                                  000037
102122445950001000000009034510032549PREGTIT30449576827465     000000000000599310510000000000000000000000000902150319000599310500000000000059931051150419000000001450023703109  000000000014300000000000000000000000000000000000000000000000000000000000000000000000000000000000000000000000000000000                          0000000000                                                                  000038
102122445950001000000009034510032549PREGTIT30446719016792     000000000000599310940000000000000000000000000902150319000599310900000000000059931094300319000000005494323704151  000000000014300000000000000000000000000000000000000000000000000000000000000000000000000000000000000000000000000000000                          0000000000                                                                  000039
102122445950001000000009034510032549PREGTIT30448508680773     000000000000599311080000000000000000000000000902150319000599311000000000000059931108150419000000005000023704151  000000000014300000000000000000000000000000000000000000000000000000000000000000000000000000000000000000000000000000000                          0000000000                                                                  000040
102122445950001000000009034510032549PREGTIT30442260040417     000000000000599312210000000000000000000000000902150319000599312200000000000059931221250319000000001166723704144  000000000014300000000000000000000000000000000000000000000000000000000000000000000000000000000000000000000000000000000                          7600000000                                                                  000041
102122445950001000000009034510032549PREGTIT30442260040417     0000000000005993123P000000000000000000000000090215031900059931230000000000005993123P250419000000001166723704144  000000000014300000000000000000000000000000000000000000000000000000000000000000000000000000000000000000000000000000000                          7600000000                                                                  000042
102122445950001000000009034510032549PREGTIT30454900014607     000000000000599314770000000000000000000000000902150319000599314700000000000059931477020519000000001706723704144  000000000014300000000000000000000000000000000000000000000000000000000000000000000000000000000000000000000000000000000                          0000000000                                                                  000043
102122445950001000000009034510032549PREGTIT30458620118685     0000000000005993154P000000000000000000000000090215031900059931540000000000005993154P200419000000001266723703109  000000000014300000000000000000000000000000000000000000000000000000000000000000000000000000000000000000000000000000000                          0000000000                                                                  000044
102122445950001000000009034510032549PREGTIT30456654279331     000000000000599315820000000000000000000000000902150319000599315800000000000059931582150419000000005400023704151  000000000014300000000000000000000000000000000000000000000000000000000000000000000000000000000000000000000000000000000                          0000000000                                                                  000045
102122445950001000000009034510032549PREGTIT30463594589676     000000000000599316040000000000000000000000000902150319000599316000000000000059931604150419000000011540023704151  000000000014300000000000000000000000000000000000000000000000000000000000000000000000000000000000000000000000000000000                          0000000000                                                                  000046
102122445950001000000009034510032549PREGTIT30474580399162     000000000000599316200000000000000000000000000902150319000599316200000000000059931620150419000000004340023704151  000000000014300000000000000000000000000000000000000000000000000000000000000000000000000000000000000000000000000000000                          7600000000                                                                  000047
102122445950001000000009034510032549PREGTIT30476893125834     000000000000599316470000000000000000000000000902150319000599316400000000000059931647150419000000006000023704151  000000000014300000000000000000000000000000000000000000000000000000000000000000000000000000000000000000000000000000000                          7600000000                                                                  000048
102122445950001000000009034510032549PREGTIT30471213143351     000000000000599316630000000000000000000000000902150319000599316600000000000059931663150419000000005500023704151  000000000014300000000000000000000000000000000000000000000000000000000000000000000000000000000000000000000000000000000                          0000000000                                                                  000049
102122445950001000000009034510032549PREGTIT30477314700658     0000000000005993168P000000000000000000000000090215031900059931680000000000005993168P150419000000015129523704151  000000000014300000000000000000000000000000000000000000000000000000000000000000000000000000000000000000000000000000000                          0000000000                                                                  000050
102122445950001000000009034510032549PREGTIT30477910222063     000000000000599317010000000000000000000000000902150319000599317000000000000059931701150419000000029000023704151  000000000014300000000000000000000000000000000000000000000000000000000000000000000000000000000000000000000000000000000                          0000000000                                                                  000051
102122445950001000000009034510032549PREGTIT30487214239057     000000000000599317280000000000000000000000000902150319000599317200000000000059931728150419000000040000023704151  000000000014300000000000000000000000000000000000000000000000000000000000000000000000000000000000000000000000000000000                          0000000000                                                                  000052
102122445950001000000009034510032549PREGTIT30484150957734     000000000000599317440000000000000000000000000902150319000599317400000000000059931744150419000000024210023704151  000000000014300000000000000000000000000000000000000000000000000000000000000000000000000000000000000000000000000000000                          7600000000                                                                  000053
102122445950001000000009034510032549PREGTIT30489914436340     000000000000599317600000000000000000000000000902150319000599317600000000000059931760150419000000015892823704151  000000000014300000000000000000000000000000000000000000000000000000000000000000000000000000000000000000000000000000000                          0000000000                                                                  000054
102122445950001000000009034510032549PREGTIT30484245778396     000000000000599317870000000000000000000000000902150319000599317800000000000059931787150419000000005390023704151  000000000014300000000000000000000000000000000000000000000000000000000000000000000000000000000000000000000000000000000                          7600000000                                                                  000055
102122445950001000000009034510032549PREGTIT30483666227898     0000000000005993185P000000000000000000000000090215031900059931850000000000005993185P150419000000002400023704151  000000000014300000000000000000000000000000000000000000000000000000000000000000000000000000000000000000000000000000000                          0000000000                                                                  000056
102122445950001000000009034510032549PREGTIT30485266757971     000000000000599318760000000000000000000000000902150319000599318700000000000059931876150419000000004333223704151  000000000014300000000000000000000000000000000000000000000000000000000000000000000000000000000000000000000000000000000                          7600000000                                                                  000057
102122445950001000000009034510032549PREGTIT30488451319717     000000000000599318920000000000000000000000000902150319000599318900000000000059931892150419000000038800023703451  000000000014300000000000000000000000000000000000000000000000000000000000000000000000000000000000000000000000000000000                          0000000000                                                                  000058
102122445950001000000009034510032549PREGTIT30481415307885     000000000000599319300000000000000000000000000902150319000599319300000000000059931930150419000000050000023704151  000000000014300000000000000000000000000000000000000000000000000000000000000000000000000000000000000000000000000000000                          0000000000                                                                  000059
102122445950001000000009034510032549PREGTIT30492511213256     000000000000599319570000000000000000000000000902150319000599319500000000000059931957150419000000050000023704151  000000000014300000000000000000000000000000000000000000000000000000000000000000000000000000000000000000000000000000000                          0000000000                                                                  000060
102122445950001000000009034510032549PREGTIT30493466604169     000000000000599319730000000000000000000000000902150319000599319700000000000059931973150419000000004800023704151  000000000014300000000000000000000000000000000000000000000000000000000000000000000000000000000000000000000000000000000                          0000000000                                                                  000061
102122445950001000000009034510032549PREGTIT30499557926414     000000000000599320150000000000000000000000000902150319000599320100000000000059932015150419000000045832623703451  000000000014300000000000000000000000000000000000000000000000000000000000000000000000000000000000000000000000000000000                          0000000000                                                                  000062
102122445950001000000009034510032549PREGTIT30491934329858     000000000000599320310000000000000000000000000902150319000599320300000000000059932031150419000000002000023704151  000000000014300000000000000000000000000000000000000000000000000000000000000000000000000000000000000000000000000000000                          0000000000                                                                  000063
102122445950001000000009034510032549PREGTIT30496107906848     000000000000599320580000000000000000000000000902150319000599320500000000000059932058150419000000025100023704151  000000000014300000000000000000000000000000000000000000000000000000000000000000000000000000000000000000000000000000000                          0000000000                                                                  000064
102122445950001000000009034510032549PREGTIT30494810680589     000000000000599320660000000000000000000000000902150319000599320600000000000059932066150419000000002300023704157  000000000014300000000000000000000000000000000000000000000000000000000000000000000000000000000000000000000000000000000                          7600000000                                                                  000065
102122445950001000000009034510032549PREGTIT30499341864937     000000000000599320820000000000000000000000000902150319000599320800000000000059932082150419000000018670223704151  000000000014300000000000000000000000000000000000000000000000000000000000000000000000000000000000000000000000000000000                          0000000000                                                                  000066
102122445950001000000009034510032549PREGTIT30499222618026     000000000000599321040000000000000000000000000902150319000599321000000000000059932104150419000000015757523704151  000000000014300000000000000000000000000000000000000000000000000000000000000000000000000000000000000000000000000000000                          0000000000                                                                  000067
102122445950001000000009034510032549PREGTIT30494656456207     000000000000599321120000000000000000000000000902150319000599321100000000000059932112250419000000017869823704422  000000000014300000000000000000000000000000000000000000000000000000000000000000000000000000000000000000000000000000000                          0000000000                                                                  000068
102122445950001000000009034510032549PREGTIT30496803390197     000000000000599321390000000000000000000000000902150319000599321300000000000059932139150419000000022500023704151  000000000014300000000000000000000000000000000000000000000000000000000000000000000000000000000000000000000000000000000                          0000000000                                                                  000069
102122445950001000000009034510032549PREGTIT30499747584685     000000000000599321550000000000000000000000000902150319000599321500000000000059932155150419000000050000023703451  000000000014300000000000000000000000000000000000000000000000000000000000000000000000000000000000000000000000000000000                          0000000000                                                                  000070
102122445950001000000009034510032549PREGTIT30498703816057     000000000000599321630000000000000000000000000902150319000599321600000000000059932163150419000000001000023703451  000000000014300000000000000000000000000000000000000000000000000000000000000000000000000000000000000000000000000000000                          0000000000                                                                  000071
102122445950001000000009034510032549PREGTIT30493821590066     0000000000005993221P000000000000000000000000090215031900059932210000000000005993221P150419000000003400023703451  000000000014300000000000000000000000000000000000000000000000000000000000000000000000000000000000000000000000000000000                          0000000000                                                                  000072
102122445950001000000009034510032549PREGTIT30496463144102     000000000000599322360000000000000000000000000902150319000599322300000000000059932236150419000000008800023704151  000000000014300000000000000000000000000000000000000000000000000000000000000000000000000000000000000000000000000000000                          0000000000                                                                  000073
102122445950001000000009034510032549PREGTIT30495125874003     000000000000599322520000000000000000000000000902150319000599322500000000000059932252150419000000032350023704151  000000000014300000000000000000000000000000000000000000000000000000000000000000000000000000000000000000000000000000000                          7600000000                                                                  000074
102122445950001000000009034510032549PREGTIT30499909007578     000000000000599322790000000000000000000000000902150319000599322700000000000059932279150419000000021600023703451  000000000014300000000000000000000000000000000000000000000000000000000000000000000000000000000000000000000000000000000                          7600000000                                                                  000075
102122445950001000000009034510032549PREGTIT30498864636951     000000000000599322870000000000000000000000000902150319000599322800000000000059932287220319000000041580023704144  000000000014300000000000000000000000000000000000000000000000000000000000000000000000000000000000000000000000000000000                          7600000000                                                                  000076
102122445950001000000009034510032549PREGTIT30495457912149     000000000000599323090000000000000000000000000902150319000599323000000000000059932309150419000000009000023704151  000000000014300000000000000000000000000000000000000000000000000000000000000000000000000000000000000000000000000000000                          0000000000                                                                  000077
102122445950001000000009034510032549PREGTIT30508249733911     000000000000599323250000000000000000000000000902150319000599323200000000000059932325150419000000010000023704152  000000000014300000000000000000000000000000000000000000000000000000000000000000000000000000000000000000000000000000000                          0000000000                                                                  000078
102122445950001000000009034510032549PREGTIT30503000472465     000000000000599323410000000000000000000000000902150319000599323400000000000059932341150419000000025000023704151  000000000014300000000000000000000000000000000000000000000000000000000000000000000000000000000000000000000000000000000                          0000000000                                                                  000079
102122445950001000000009034510032549PREGTIT30509480323692     0000000000005993235P000000000000000000000000090215031900059932350000000000005993235P150419000000000516523704157  000000000014300000000000000000000000000000000000000000000000000000000000000000000000000000000000000000000000000000000                          0000000000                                                                  000080
102122445950001000000009034510032549PREGTIT30503607376846     000000000000599324060000000000000000000000000902150319000599324000000000000059932406150419000000025000023704151  000000000014300000000000000000000000000000000000000000000000000000000000000000000000000000000000000000000000000000000                          0000000000                                                                  000081
102122445950001000000009034510032549PREGTIT30501197233646     000000000000599324220000000000000000000000000902150319000599324200000000000059932422150419000000038919823704151  000000000014300000000000000000000000000000000000000000000000000000000000000000000000000000000000000000000000000000000                          0000000000                                                                  000082
102122445950001000000009034510032549PREGTIT30507775894237     000000000000599324490000000000000000000000000902150319000599324400000000000059932449150419000000039563823704151  000000000014300000000000000000000000000000000000000000000000000000000000000000000000000000000000000000000000000000000                          0000000000                                                                  000083
102122445950001000000009034510032549PREGTIT30503046701004     000000000000599324650000000000000000000000000902150319000599324600000000000059932465150419000000010800023704151  000000000014300000000000000000000000000000000000000000000000000000000000000000000000000000000000000000000000000000000                          0000000000                                                                  000084
102122445950001000000009034510032549PREGTIT30506325987556     000000000000599324810000000000000000000000000902150319000599324800000000000059932481150419000000018000023704152  000000000014300000000000000000000000000000000000000000000000000000000000000000000000000000000000000000000000000000000                          7600000000                                                                  000085
102122445950001000000009034510032549PREGTIT30503266795513     0000000000005993249P000000000000000000000000090215031900059932490000000000005993249P230419000000002570023704151  000000000014300000000000000000000000000000000000000000000000000000000000000000000000000000000000000000000000000000000                          0000000000                                                                  000086
102122445950001000000009034510032549PREGTIT30505236935309     000000000000599325890000000000000000000000000902150319000599325800000000000059932589150419000000020367223704151  000000000014300000000000000000000000000000000000000000000000000000000000000000000000000000000000000000000000000000000                          0000000000                                                                  000087
102122445950001000000009034510032549PREGTIT30501363890758     000000000000599325970000000000000000000000000902150319000599325900000000000059932597050419000000000750023700408  000000000014300000000000000000000000000000000000000000000000000000000000000000000000000000000000000000000000000000000                          0000000000                                                                  000088
102122445950001000000009034510032549PREGTIT30501363890758     000000000000599326000000000000000000000000000902150319000599326000000000000059932600050519000000000750023700408  000000000014300000000000000000000000000000000000000000000000000000000000000000000000000000000000000000000000000000000                          0000000000                                                                  000089
102122445950001000000009034510032549PREGTIT30506765147737     000000000000599326430000000000000000000000000902150319000599326400000000000059932643150419000000050000023704151  000000000014300000000000000000000000000000000000000000000000000000000000000000000000000000000000000000000000000000000                          0000000000                                                                  000090
102122445950001000000009034510032549PREGTIT30504034508276     000000000000599326510000000000000000000000000902150319000599326500000000000059932651080419000000005400023704144  000000000014300000000000000000000000000000000000000000000000000000000000000000000000000000000000000000000000000000000                          0000000000                                                                  000091
102122445950001000000009034510032549PREGTIT30501525939649     000000000000599326780000000000000000000000000902150319000599326700000000000059932678150419000000020000023704151  000000000014300000000000000000000000000000000000000000000000000000000000000000000000000000000000000000000000000000000                          0000000000                                                                  000092
102122445950001000000009034510032549PREGTIT30502050225858     000000000000599326940000000000000000000000000902150319000599326900000000000059932694150419000000009000023704151  000000000014300000000000000000000000000000000000000000000000000000000000000000000000000000000000000000000000000000000                          7600000000                                                                  000093
102122445950001000000009034510032549PREGTIT30504604792408     000000000000599327160000000000000000000000000902150319000599327100000000000059932716150419000000020000023704151  000000000014300000000000000000000000000000000000000000000000000000000000000000000000000000000000000000000000000000000                          0000000000                                                                  000094
102122445950001000000009034510032549PREGTIT30503633026828     000000000000599327320000000000000000000000000902150319000599327300000000000059932732150419000000006466723704422  000000000014300000000000000000000000000000000000000000000000000000000000000000000000000000000000000000000000000000000                          0000000000                                                                  000095
102122445950001000000009034510032549PREGTIT30507782476279     000000000000599327400000000000000000000000000902150319000599327400000000000059932740290319000000002470023704144  000000000014300000000000000000000000000000000000000000000000000000000000000000000000000000000000000000000000000000000                          0000000000                                                                  000096
102122445950001000000009034510032549PREGTIT30506325472547     000000000000599327590000000000000000000000000902150319000599327500000000000059932759150419000000000549523704157  000000000014300000000000000000000000000000000000000000000000000000000000000000000000000000000000000000000000000000000                          0000000000                                                                  000097
102122445950001000000009034510032549PREGTIT30514067672784     000000000000599327750000000000000000000000000902150319000599327700000000000059932775220319000000000859023704144  000000000014300000000000000000000000000000000000000000000000000000000000000000000000000000000000000000000000000000000                          0000000000                                                                  000098
102122445950001000000009034510032549PREGTIT30518700408997     000000000000599327910000000000000000000000000902150319000599327900000000000059932791150419000000020500023704151  000000000014300000000000000000000000000000000000000000000000000000000000000000000000000000000000000000000000000000000                          0000000000                                                                  000099
102122445950001000000009034510032549PREGTIT30515042422877     000000000000599328130000000000000000000000000902150319000599328100000000000059932813150419000000030250023704151  000000000014300000000000000000000000000000000000000000000000000000000000000000000000000000000000000000000000000000000                          0000000000                                                                  000100
102122445950001000000009034510032549PREGTIT30518073343891     0000000000005993283P000000000000000000000000090215031900059932830000000000005993283P150419000000020000023704151  000000000014300000000000000000000000000000000000000000000000000000000000000000000000000000000000000000000000000000000                          0000000000                                                                  000101
102122445950001000000009034510032549PREGTIT30516079389179     000000000000599328560000000000000000000000000902150319000599328500000000000059932856150419000000026000023704151  000000000014300000000000000000000000000000000000000000000000000000000000000000000000000000000000000000000000000000000                          0000000000                                                                  000102
102122445950001000000009034510032549PREGTIT30516577385221     000000000000599328720000000000000000000000000902150319000599328700000000000059932872150419000000015000023704151  000000000014300000000000000000000000000000000000000000000000000000000000000000000000000000000000000000000000000000000                          0000000000                                                                  000103
102122445950001000000009034510032549PREGTIT30517749726685     000000000000599328990000000000000000000000000902150319000599328900000000000059932899150419000000010000023704151  000000000014300000000000000000000000000000000000000000000000000000000000000000000000000000000000000000000000000000000                          0000000000                                                                  000104
102122445950001000000009034510032549PREGTIT30516973278112     000000000000599329100000000000000000000000000902150319000599329100000000000059932910150419000000034400023704151  000000000014300000000000000000000000000000000000000000000000000000000000000000000000000000000000000000000000000000000                          0000000000                                                                  000105
102122445950001000000009034510032549PREGTIT30518239026057     000000000000599329370000000000000000000000000902150319000599329300000000000059932937150419000000027000023704151  000000000014300000000000000000000000000000000000000000000000000000000000000000000000000000000000000000000000000000000                          7600000000                                                                  000106
102122445950001000000009034510032549PREGTIT30515585227803     000000000000599329530000000000000000000000000902150319000599329500000000000059932953150419000000015000023704151  000000000014300000000000000000000000000000000000000000000000000000000000000000000000000000000000000000000000000000000                          0000000000                                                                  000107
102122445950001000000009034510032549PREGTIT30517608950444     000000000000599329610000000000000000000000000902150319000599329600000000000059932961170419000000003673323704144  000000000014300000000000000000000000000000000000000000000000000000000000000000000000000000000000000000000000000000000                          0000000000                                                                  000108
102122445950001000000009034510032549PREGTIT30518986785759     000000000000599329960000000000000000000000000902150319000599329900000000000059932996150419000000000750023704151  000000000014300000000000000000000000000000000000000000000000000000000000000000000000000000000000000000000000000000000                          0000000000                                                                  000109
102122445950001000000009034510032549PREGTIT30519117600251     000000000000599330110000000000000000000000000902150319000599330100000000000059933011100419000000002000023704151  000000000014300000000000000000000000000000000000000000000000000000000000000000000000000000000000000000000000000000000                          0000000000                                                                  000110
102122445950001000000009034510032549PREGTIT30519117600251     0000000000005993302P000000000000000000000000090215031900059933020000000000005993302P100519000000002000023704151  000000000014300000000000000000000000000000000000000000000000000000000000000000000000000000000000000000000000000000000                          0000000000                                                                  000111
102122445950001000000009034510032549PREGTIT30513581065055     000000000000599331270000000000000000000000000902150319000599331200000000000059933127150419000000014500023703451  000000000014300000000000000000000000000000000000000000000000000000000000000000000000000000000000000000000000000000000                          0000000000                                                                  000112
102122445950001000000009034510032549PREGTIT25543637074964     000000000000580302470000000000000000000000000906150319000580302400000000000058030247150319000000006670010403468  000000000000000000000000000000000000000000000000000000000000000000000000000000000000006670000000000000000000000000000   180319             00000000000000                                                                  000113
102122445950001000000009034510032549PREGTIT22485404466440     000000000000587888400000000000000000000000000906150319000587888400000000000058788840010219000000001900034102698  000000000000000000000000000000000000000000000000000000000000000000000000000000000000001992600000000009260000000000000   180319             00000000000000                                                                  000114
102122445950001000000009034510032549PREGTIT26088467086975     000000000000588766260000000000000000000000000906150319000588766200000000000058876626200319000000001700023701903  000000000000000000000000000000000000000000000000000000000000000000000000000000000000001700000000000000000000000000000   180319             00000000000000                                                                  000115
102122445950001000000009034510032549PREGTIT24207485493595     000000000000589936490000000000000000000000000906150319000589936400000000000058993649230219000000004400010404071  000000000000000000000000000000000000000000000000000000000000000000000000000000000000004546000000000014600000000000000   180319             00000000000000                                                                  000116
102122445950001000000009034510032549PREGTIT26086995406353     000000000000590132490000000000000000000000000906150319000590132400000000000059013249200319000000001120010402928  000000000000000000000000000000000000000000000000000000000000000000000000000000000000001120000000000000000000000000000   180319             00000000000000                                                                  000117
102122445950001000000009034510032549PREGTIT26089591015411     000000000000590188520000000000000000000000000906150319000590188500000000000059018852200319000000000650010404493  000000000000000000000000000000000000000000000000000000000000000000000000000000000000000650000000000000000000000000000   180319             00000000000000                                                                  000118
102122445950001000000009034510032549PREGTIT24327921308312     000000000000591670840000000000000000000000000906150319000591670800000000000059167084250219000000002500023702405  000000000000000000000000000000000000000000000000000000000000000000000000000000000000002580600000000008060000000000000   180319             00000000000000                                                                  000119
102122445950001000000009034510032549PREGTIT25546274358087     000000000000591681290000000000000000000000000906150319000591681200000000000059168129150319000000002100003303968  000000000000000000000000000000000000000000000000000000000000000000000000000000000000002100000000000000000000000000000   180319             00000000000000                                                                  000120
102122445950001000000009034510032549PREGTIT25546652236800     000000000000591803820000000000000000000000000906150319000591803800000000000059180382150319000000001450003303297  000000000000000000000000000000000000000000000000000000000000000000000000000000000000001450000000000000000000000000000   180319             00000000000000                                                                  000121
102122445950001000000009034510032549PREGTIT24885034673271     000000000000592058730000000000000000000000000906150319000592058700000000000059205873050319000000001100010402991  000000000000000000000000000000000000000000000000000000000000000000000000000000000000001129000000000002900000000000000   180319             00000000000000                                                                  000122
102122445950001000000009034510032549PREGTIT25654424629145     000000000000592586910000000000000000000000000906150319000592586900000000000059258691160319000000002200010401814  000000000000000000000000000000000000000000000000000000000000000000000000000000000000002200000000000000000000000000000   180319             00000000000000                                                                  000123
102122445950001000000009034510032549PREGTIT25544296081575     000000000000592680850000000000000000000000000906150319000592680800000000000059268085150319000000003460034102958  000000000000000000000000000000000000000000000000000000000000000000000000000000000000003460000000000000000000000000000   180319             00000000000000                                                                  000124
102122445950001000000009034510032549PREGTIT25542413517600     000000000000592695450000000000000000000000000906150319000592695400000000000059269545150319000000000790010400960  000000000000000000000000000000000000000000000000000000000000000000000000000000000000000790000000000000000000000000000   180319             00000000000000                                                                  000125
102122445950001000000009034510032549PREGTIT26085515369069     0000000000005927414P000000000000000000000000090615031900059274140000000000005927414P200319000000005360003303968  000000000000000000000000000000000000000000000000000000000000000000000000000000000000005360000000000000000000000000000   180319             00000000000000                                                                  000126
102122445950001000000009034510032549PREGTIT25549628516063     000000000000592874380000000000000000000000000906150319000592874300000000000059287438150319000000002450010401617  000000000000000000000000000000000000000000000000000000000000000000000000000000000000002450000000000000000000000000000   180319             00000000000000                                                                  000127
102122445950001000000009034510032549PREGTIT23566349447638     000000000000593166590000000000000000000000000906150319000593166500000000000059316659150219000000002500003303907  000000000000000000000000000000000000000000000000000000000000000000000000000000000000002667600000000016760000000000000   180319             00000000000000                                                                  000128
102122445950001000000009034510032549PREGTIT25761219736354     000000000000593980000000000000000000000000000906150319000593980000000000000059398000170319000000003500023700963  000000000000000000000000000000000000000000000000000000000000000000000000000000000000003500000000000000000000000000000   180319             00000000000000                                                                  000129
102122445950001000000009034510032549PREGTIT28251219736354     000000000000593980190000000000000000000000000906150319000593980100000000000059398019170419000000003500023700963  000000000000000000000000000000000000000000000000000000000000000000000000000000000000003500000000000000000000000000000   180319             00000000000000                                                                  000130
102122445950001000000009034510032549PREGTIT25545001186815     000000000000594752500000000000000000000000000906150319000594752500000000000059475250150319000000002380010400278  000000000000000000000000000000000000000000000000000000000000000000000000000000000000002380000000000000000000000000000   180319             00000000000000                                                                  000131
102122445950001000000009034510032549PREGTIT21937671334710     000000000000594830400000000000000000000000000906150319000594830400000000000059483040250119000000002230034102698  000000000000000000000000000000000000000000000000000000000000000000000000000000000000002348100000000011810000000000000   180319             00000000000000                                                                  000132
102122445950001000000009034510032549PREGTIT25545089143754     000000000000594937040000000000000000000000000906150319000594937000000000000059493704150319000000003500023700689  000000000000000000000000000000000000000000000000000000000000000000000000000000000000003500000000000000000000000000000   180319             00000000000000                                                                  000133
102122445950001000000009034510032549PREGTIT25767902874454     000000000000595731470000000000000000000000000906150319000595731400000000000059573147170319000000002875110402991  000000000000000000000000000000000000000000000000000000000000000000000000000000000000002875100000000000000000000000000   180319             00000000000000                                                                  000134
102122445950001000000009034510032549PREGTIT25546466696278     000000000000595843000000000000000000000000000906150319000595843000000000000059584300150319000000002530074805224  000000000000000000000000000000000000000000000000000000000000000000000000000000000000002530000000000000000000000000000   180319             00000000000000                                                                  000135
102122445950001000000009034510032549PREGTIT25656413102228     000000000000595917490000000000000000000000000906150319000595917400000000000059591749160319000000002140003304428  000000000000000000000000000000000000000000000000000000000000000000000000000000000000002140000000000000000000000000000   180319             00000000000000                                                                  000136
102122445950001000000009034510032549PREGTIT26087510301578     000000000000595982470000000000000000000000000906150319000595982400000000000059598247220319000000001250000103499  000000000000000000000000000000000000000000000000000000000000000000000000000000000000001250000000000000000000000000000   180319             00000000000000                                                                  000137
102122445950001000000009034510032549PREGTIT25548348820317     000000000000596067110000000000000000000000000906150319000596067100000000000059606711150319000000001600010400686  000000000000000000000000000000000000000000000000000000000000000000000000000000000000001600000000000000000000000000000   180319             00000000000000                                                                  000138
102122445950001000000009034510032549PREGTIT25215980616331     0000000000005965760P000000000000000000000000090615031900059657600000000000005965760P100319000000000725010401227  000000000000000000000000000000000000000000000000000000000000000000000000000000000000000742000000000001700000000000000   180319             00000000000000                                                                  000139
102122445950001000000009034510032549PREGTIT25541465439370     000000000000596605030000000000000000000000000906150319000596605000000000000059660503150319000000005500023701204  000000000000000000000000000000000000000000000000000000000000000000000000000000000000005500000000000000000000000000000   180319             00000000000000                                                                  000140
102122445950001000000009034510032549PREGTIT25548822288285     000000000000596673460000000000000000000000000906150319000596673400000000000059667346150319000000003400003301280  000000000000000000000000000000000000000000000000000000000000000000000000000000000000003400000000000000000000000000000   180319             00000000000000                                                                  000141
102122445950001000000009034510032549PREGTIT25431330784405     000000000000596682020000000000000000000000000906150319000596682000000000000059668202120319000000004100010400974  000000000000000000000000000000000000000000000000000000000000000000000000000000000000004190100000000009010000000000000   180319             00000000000000                                                                  000142
102122445950001000000009034510032549PREGTIT25215236478274     000000000000596709750000000000000000000000000906150319000596709700000000000059670975100319000000001180023706545  000000000000000000000000000000000000000000000000000000000000000000000000000000000000001207600000000002760000000000000   180319             00000000000000                                                                  000143
102122445950001000000009034510032549PREGTIT25548399260971     000000000000596742370000000000000000000000000906150319000596742300000000000059674237150319000000001020000102960  000000000000000000000000000000000000000000000000000000000000000000000000000000000000001020000000000000000000000000000   180319             00000000000000                                                                  000144
102122445950001000000009034510032549PREGTIT25211762435357     000000000000596825900000000000000000000000000906150319000596825900000000000059682590080319000000002160010404126  000000000000000000000000000000000000000000000000000000000000000000000000000000000000002213000000000005300000000000000   180319             00000000000000                                                                  000145
102122445950001000000009034510032549PREGTIT26195757933155     000000000000596866930000000000000000000000000906150319000596866900000000000059686693230319000000000950010404341  000000000000000000000000000000000000000000000000000000000000000000000000000000000000000950000000000000000000000000000   180319             00000000000000                                                                  000146
102122445950001000000009034510032549PREGTIT25544006507264     000000000000596949710000000000000000000000000906150319000596949700000000000059694971150319000000003666710404681  000000000000000000000000000000000000000000000000000000000000000000000000000000000000003666700000000000000000000000000   180319             00000000000000                                                                  000147
102122445950001000000009034510032549PREGTIT26083993511274     000000000000597029900000000000000000000000000906150319000597029900000000000059702990220319000000002250010400410  000000000000000000000000000000000000000000000000000000000000000000000000000000000000002250000000000000000000000000000   180319             00000000000000                                                                  000148
102122445950001000000009034510032549PREGTIT25932116545637     000000000000597609230000000000000000000000000906150319000597609200000000000059760923150319000000002519523702744  000000000000000000000000000000000000000000000000000000000000000000000000000000000000002519500000000000000000000000000   180319             00000000000000                                                                  000149
102122445950001000000009034510032549PREGTIT26413814824227     000000000000597708560000000000000000000000000906150319000597708500000000000059770856200319000000007500010401266  000000000000000000000000000000000000000000000000000000000000000000000000000000000000007500000000000000000000000000000   180319             00000000000000                                                                  000150
102122445950001000000009034510032549PREGTIT26905303682374     000000000000597792090000000000000000000000000906150319000597792000000000000059779209150319000000004133434107660  000000000000000000000000000000000000000000000000000000000000000000000000000000000000004133400000000000000000000000000   180319             00000000000000                                                                  000151
102122445950001000000009034510032549PREGTIT27363036144355     000000000000597860940000000000000000000000000906150319000597860900000000000059786094150319000000003000023700504  000000000000000000000000000000000000000000000000000000000000000000000000000000000000003000000000000000000000000000000   180319             00000000000000                                                                  000152
102122445950001000000009034510032549PREGTIT27849746807217     000000000000598432170000000000000000000000000906150319000598432100000000000059843217150319000000002000010401882  000000000000000000000000000000000000000000000000000000000000000000000000000000000000002000000000000000000000000000000   180319             00000000000000                                                                  000153
102122445950001000000009034510032549PREGTIT28016312597497     000000000000598469920000000000000000000000000906150319000598469900000000000059846992150319000000002500010404135  000000000000000000000000000000000000000000000000000000000000000000000000000000000000002500000000000000000000000000000   180319             00000000000000                                                                  000154
102122445950001000000009034510032549PREGTIT28498508382770     000000000000598551500000000000000000000000000906150319000598551500000000000059855150150319000000002958623705930  000000000000000000000000000000000000000000000000000000000000000000000000000000000000002958600000000000000000000000000   180319             00000000000000                                                                  000155
102122445950001000000009034510032549PREGTIT28645822675865     000000000000598563940000000000000000000000000906150319000598563900000000000059856394150319000000005522610400398  000000000000000000000000000000000000000000000000000000000000000000000000000000000000005522600000000000000000000000000   180319             00000000000000                                                                  000156
102122445950001000000009034510032549PREGTIT28666073127744     000000000000598568660000000000000000000000000906150319000598568600000000000059856866140319000000002555034102947  000000000000000000000000000000000000000000000000000000000000000000000000000000000000002607800000000005280000000000000   180319             00000000000000                                                                  000157
102122445950001000000009034510032549PREGTIT28805813367168     000000000000598583970000000000000000000000000906150319000598583900000000000059858397150319000000002400003301268  000000000000000000000000000000000000000000000000000000000000000000000000000000000000002400000000000000000000000000000   180319             00000000000000                                                                  000158
102122445950001000000009034510032549PREGTIT28941178090506     000000000000598604560000000000000000000000000906150319000598604500000000000059860456150319000000020000034102774  000000000000000000000000000000000000000000000000000000000000000000000000000000000000020000000000000000000000000000000   180319             00000000000000                                                                  000159
102122445950001000000009034510032549PREGTIT29009333663206     000000000000598609950000000000000000000000000906150319000598609900000000000059860995150319000000003390010403521  000000000000000000000000000000000000000000000000000000000000000000000000000000000000003390000000000000000000000000000   180319             00000000000000                                                                  000160
102122445950001000000009034510032549PREGTIT29099757008929     000000000000598621810000000000000000000000000906150319000598621800000000000059862181150319000000001800074802101  000000000000000000000000000000000000000000000000000000000000000000000000000000000000001800000000000000000000000000000   180319             00000000000000                                                                  000161
102122445950001000000009034510032549PREGTIT29096041984309     000000000000598623510000000000000000000000000906150319000598623500000000000059862351150319000000003927534107444  000000000000000000000000000000000000000000000000000000000000000000000000000000000000003927500000000000000000000000000   180319             00000000000000                                                                  000162
102122445950001000000009034510032549PREGTIT29193725549185     000000000000598633820000000000000000000000000906150319000598633800000000000059863382150319000000001332100107821  000000000000000000000000000000000000000000000000000000000000000000000000000000000000001332100000000000000000000000000   180319             00000000000000                                                                  000163
102122445950001000000009034510032549PREGTIT29281887422899     000000000000598642300000000000000000000000000906150319000598642300000000000059864230110319000000017326923700560  000000000000000000000000000000000000000000000000000000000000000000000000000000000000017719800000000039290000000000000   180319             00000000000000                                                                  000164
102122445950001000000009034510032549PREGTIT29457608728106     000000000000598659460000000000000000000000000906150319000598659400000000000059865946150319000000006655434102950  000000000000000000000000000000000000000000000000000000000000000000000000000000000000006655400000000000000000000000000   180319             00000000000000                                                                  000165
102122445950001000000009034510032549PREGTIT29908192801343     0000000000005986804P000000000000000000000000090615031900059868040000000000005986804P180319000000001030010403866  000000000000000000000000000000000000000000000000000000000000000000000000000000000000001030000000000000000000000000000   180319             00000000000000                                                                  000166
102122445950001000000009034510032549PREGTIT29992776953155     000000000000598715200000000000000000000000000906150319000598715200000000000059871520150319000000002223300104500  000000000000000000000000000000000000000000000000000000000000000000000000000000000000002223300000000000000000000000000   180319             00000000000000                                                                  000167
102122445950001000000009034510032549PREGTIT30331811118009     000000000000599288830000000000000000000000000906150319000599288800000000000059928883150319000000002000000103325  000000000000000000000000000000000000000000000000000000000000000000000000000000000000002000000000000000000000000000000   180319             00000000000000                                                                  000168
102122445950001000000009034510032549PREGTIT25654610922353     000000000000589777750000000000000000000000000909150319000589777700000000000058977775160319000000001111923704150  000000000000000000000000000000000000000000000000000000000000000000000000000000000000000000000000000000000000000000000                          0000000000                                                                  000169
102122445950001000000009034510032549PREGTIT25542090977347     0000000000005902819P000000000000000000000000090915031900059028190000000000005902819P150319000000000720023704150  000000000000000000000000000000000000000000000000000000000000000000000000000000000000000000000000000000000000000000000                          0000000000                                                                  000170
102122445950001000000009034510032549PREGTIT25981184663118     000000000000590898300000000000000000000000000909150319000590898300000000000059089830190319000000000469723704150  000000000000000000000000000000000000000000000000000000000000000000000000000000000000000000000000000000000000000000000                          0000000000                                                                  000171
102122445950001000000009034510032549PREGTIT26401683602192     000000000000592616920000000000000000000000000909150319000592616900000000000059261692250319000000001400023704150  000000000000000000000000000000000000000000000000000000000000000000000000000000000000000000000000000000000000000000000                          0000000000                                                                  000172
102122445950001000000009034510032549PREGTIT25372726016458     000000000000592707560000000000000000000000000909150319000592707500000000000059270756080319000000001000023704150  000000000000000000000000000000000000000000000000000000000000000000000000000000000000000000000000000000000000000000000                          0000000000                                                                  000173
102122445950001000000009034510032549PREGTIT23566745799018     000000000000592898480000000000000000000000000909150319000592898400000000000059289848140219000000000950023704150  000000000000000000000000000000000000000000000000000000000000000000000000000000000000000000000000000000000000000000000                          0000000000                                                                  000174
102122445950001000000009034510032549PREGTIT25541769723275     000000000000593788400000000000000000000000000909150319000593788400000000000059378840130319000000000950023704150  000000000000000000000000000000000000000000000000000000000000000000000000000000000000000000000000000000000000000000000                          0000000000                                                                  000175
102122445950001000000009034510032549PREGTIT25217499371576     000000000000593794210000000000000000000000000909150319000593794200000000000059379421100319000000001062523704150  000000000000000000000000000000000000000000000000000000000000000000000000000000000000000000000000000000000000000000000                          0000000000                                                                  000176
102122445950001000000009034510032549PREGTIT25375878237407     000000000000593825460000000000000000000000000909150319000593825400000000000059382546100319000000000850023704150  000000000000000000000000000000000000000000000000000000000000000000000000000000000000000000000000000000000000000000000                          0000000000                                                                  000177
102122445950001000000009034510032549PREGTIT24096715456338     000000000000593911970000000000000000000000000909150319000593911900000000000059391197200219000000001800023704150  000000000000000000000000000000000000000000000000000000000000000000000000000000000000000000000000000000000000000000000                          0000000000                                                                  000178
102122445950001000000009034510032549PREGTIT25215044749764     000000000000594690990000000000000000000000000909150319000594690900000000000059469099100319000000000750023704150  000000000000000000000000000000000000000000000000000000000000000000000000000000000000000000000000000000000000000000000                          0000000000                                                                  000179
102122445950001000000009034510032549PREGTIT25379734086100     000000000000594710180000000000000000000000000909150319000594710100000000000059471018080319000000002650023704150  000000000000000000000000000000000000000000000000000000000000000000000000000000000000000000000000000000000000000000000                          0000000000                                                                  000180
102122445950001000000009034510032549PREGTIT25546027819890     000000000000594748310000000000000000000000000909150319000594748300000000000059474831150319000000000450023704150  000000000000000000000000000000000000000000000000000000000000000000000000000000000000000000000000000000000000000000000                          0000000000                                                                  000181
102122445950001000000009034510032549PREGTIT25217173717452     000000000000594765160000000000000000000000000909150319000594765100000000000059476516100319000000000916723704150  000000000000000000000000000000000000000000000000000000000000000000000000000000000000000000000000000000000000000000000                          0000000000                                                                  000182
102122445950001000000009034510032549PREGTIT23777141971617     000000000000594790510000000000000000000000000909150319000594790500000000000059479051170219000000001583323704150  000000000000000000000000000000000000000000000000000000000000000000000000000000000000000000000000000000000000000000000                          0000000000                                                                  000183
102122445950001000000009034510032549PREGTIT25767141971617     0000000000005947906P000000000000000000000000090915031900059479060000000000005947906P170319000000001583323704150  000000000000000000000000000000000000000000000000000000000000000000000000000000000000000000000000000000000000000000000                          0000000000                                                                  000184
102122445950001000000009034510032549PREGTIT28257141971617     000000000000594790780000000000000000000000000909150319000594790700000000000059479078170419000000001583523704150  000000000000000000000000000000000000000000000000000000000000000000000000000000000000000000000000000000000000000000000                          0000000000                                                                  000185
102122445950001000000009034510032549PREGTIT26404660486173     000000000000594909260000000000000000000000000909150319000594909200000000000059490926250319000000003000023704150  000000000000000000000000000000000000000000000000000000000000000000000000000000000000000000000000000000000000000000000                          0000000000                                                                  000186
102122445950001000000009034510032549PREGTIT25218490965291     000000000000595735540000000000000000000000000909150319000595735500000000000059573554100319000000001200023704150  000000000000000000000000000000000000000000000000000000000000000000000000000000000000000000000000000000000000000000000                          0000000000                                                                  000187
102122445950001000000009034510032549PREGTIT25763952600223     000000000000595759210000000000000000000000000909150319000595759200000000000059575921170319000000000563023704150  000000000000000000000000000000000000000000000000000000000000000000000000000000000000000000000000000000000000000000000                          0000000000                                                                  000188
102122445950001000000009034510032549PREGTIT25766192004303     000000000000595759800000000000000000000000000909150319000595759800000000000059575980170319000000000565623704150  000000000000000000000000000000000000000000000000000000000000000000000000000000000000000000000000000000000000000000000                          0000000000                                                                  000189
102122445950001000000009034510032549PREGTIT25765185215373     000000000000595760490000000000000000000000000909150319000595760400000000000059576049170319000000000588823704150  000000000000000000000000000000000000000000000000000000000000000000000000000000000000000000000000000000000000000000000                          0000000000                                                                  000190
102122445950001000000009034510032549PREGTIT25211822306911     000000000000596027830000000000000000000000000909150319000596027800000000000059602783100319000000002380023704150  000000000000000000000000000000000000000000000000000000000000000000000000000000000000000000000000000000000000000000000                          0000000000                                                                  000191
102122445950001000000009034510032549PREGTIT24887076723558     000000000000596646730000000000000000000000000909150319000596646700000000000059664673050319000000001456723704150  000000000000000000000000000000000000000000000000000000000000000000000000000000000000000000000000000000000000000000000                          0000000000                                                                  000192
102122445950001000000009034510032549PREGTIT25323242628723     000000000000596661960000000000000000000000000909150319000596661900000000000059666196110319000000000592723704150  000000000000000000000000000000000000000000000000000000000000000000000000000000000000000000000000000000000000000000000                          0000000000                                                                  000193
102122445950001000000009034510032549PREGTIT25547642688370     000000000000596716610000000000000000000000000909150319000596716600000000000059671661140319000000000349623704150  000000000000000000000000000000000000000000000000000000000000000000000000000000000000000000000000000000000000000000000                          0000000000                                                                  000194
102122445950001000000009034510032549PREGTIT27937642688370     0000000000005967167P000000000000000000000000090915031900059671670000000000005967167P140419000000000349623704150  000000000000000000000000000000000000000000000000000000000000000000000000000000000000000000000000000000000000000000000                          0000000000                                                                  000195
102122445950001000000009034510032549PREGTIT30427642688370     000000000000596716880000000000000000000000000909150319000596716800000000000059671688140519000000000349623704150  000000000000000000000000000000000000000000000000000000000000000000000000000000000000000000000000000000000000000000000                          0000000000                                                                  000196
102122445950001000000009034510032549PREGTIT26082966015744     000000000000596831470000000000000000000000000909150319000596831400000000000059683147200319000000002390023704150  000000000000000000000000000000000000000000000000000000000000000000000000000000000000000000000000000000000000000000000                          0000000000                                                                  000197
102122445950001000000009034510032549PREGTIT24993106220496     000000000000596903480000000000000000000000000909150319000596903400000000000059690348080319000000001760023704150  000000000000000000000000000000000000000000000000000000000000000000000000000000000000000000000000000000000000000000000                          0000000000                                                                  000198
102122445950001000000009034510032549PREGTIT25548885239114     000000000000597542570000000000000000000000000909150319000597542500000000000059754257150319000000001125023704150  000000000000000000000000000000000000000000000000000000000000000000000000000000000000000000000000000000000000000000000                          0000000000                                                                  000199
102122445950001000000009034510032549PREGTIT25789216660463     000000000000597593210000000000000000000000000909150319000597593200000000000059759321170319000000000629023704150  000000000000000000000000000000000000000000000000000000000000000000000000000000000000000000000000000000000000000000000                          0000000000                                                                  000200
102122445950001000000009034510032549PREGTIT25979897625520     000000000000597612020000000000000000000000000909150319000597612000000000000059761202170319000000000965023704150  000000000000000000000000000000000000000000000000000000000000000000000000000000000000000000000000000000000000000000000                          0000000000                                                                  000201
102122445950001000000009034510032549PREGTIT26364646220807     000000000000597697690000000000000000000000000909150319000597697600000000000059769769200219000000001640023704150  000000000000000000000000000000000000000000000000000000000000000000000000000000000000000000000000000000000000000000000                          0000000000                                                                  000202
102122445950001000000009034510032549PREGTIT26691317875521     000000000000597764040000000000000000000000000909150319000597764000000000000059776404100319000000000567523704150  000000000000000000000000000000000000000000000000000000000000000000000000000000000000000000000000000000000000000000000                          0000000000                                                                  000203
102122445950001000000009034510032549PREGTIT27194342795159     000000000000597838930000000000000000000000000909150319000597838900000000000059783893040319000000000675023704150  000000000000000000000000000000000000000000000000000000000000000000000000000000000000000000000000000000000000000000000                          0000000000                                                                  000204
102122445950001000000009034510032549PREGTIT27718775579432     000000000000598411920000000000000000000000000909150319000598411900000000000059841192120319000000001000023704150  000000000000000000000000000000000000000000000000000000000000000000000000000000000000000000000000000000000000000000000                          0000000000                                                                  000205
102122445950001000000009034510032549PREGTIT27907041221476     000000000000598442210000000000000000000000000909150319000598442200000000000059844221120319000000002067323704150  000000000000000000000000000000000000000000000000000000000000000000000000000000000000000000000000000000000000000000000                          0000000000                                                                  000206
102122445950001000000009034510032549PREGTIT28159678954026     000000000000598491690000000000000000000000000909150319000598491600000000000059849169150319000000000500023704150  000000000000000000000000000000000000000000000000000000000000000000000000000000000000000000000000000000000000000000000                          0000000000                                                                  000207
102122445950001000000009034510032549PREGTIT28242708105291     000000000000598502050000000000000000000000000909150319000598502000000000000059850205150319000000001000023704150  000000000000000000000000000000000000000000000000000000000000000000000000000000000000000000000000000000000000000000000                          0000000000                                                                  000208
102122445950001000000009034510032549PREGTIT28259582068564     000000000000598510150000000000000000000000000909150319000598510100000000000059851015160319000000002750023704150  000000000000000000000000000000000000000000000000000000000000000000000000000000000000000000000000000000000000000000000                          0000000000                                                                  000209
102122445950001000000009034510032549PREGTIT28252808588730     000000000000598516430000000000000000000000000909150319000598516400000000000059851643160319000000000389523704150  000000000000000000000000000000000000000000000000000000000000000000000000000000000000000000000000000000000000000000000                          0000000000                                                                  000210
102122445950001000000009034510032549PREGTIT30426046751977     000000000000589757640000000000000000000000000927150319000589757600000000000058975764140319000000000820023700000  000000000000000000000000000000000000000000000000000000000000000000000000000000000000000000000000000000000000000000000                          6000000000                                                                  000211
102122445950001000000009034510032549PREGTIT30464610922353     000000000000589777750000000000000000000000000927150319000589777700000000000058977775160319000000001111923700000  000000000000000000000000000000000000000000000000000000000000000000000000000000000000000000000000000000000000000000000                          6000000000                                                                  000212
102122445950001000000009034510032549PREGTIT30492090977347     0000000000005902819P000000000000000000000000092715031900059028190000000000005902819P150319000000000720023700000  000000000000000000000000000000000000000000000000000000000000000000000000000000000000000000000000000000000000000000000                          6000000000                                                                  000213
102122445950001000000009034510032549PREGTIT30461184663118     000000000000590898300000000000000000000000000927150319000590898300000000000059089830190319000000000469723700000  000000000000000000000000000000000000000000000000000000000000000000000000000000000000000000000000000000000000000000000                          6000000000                                                                  000214
102122445950001000000009034510032549PREGTIT30423653346105     000000000000590902780000000000000000000000000927150319000590902700000000000059090278130319000000001000023700000  000000000000000000000000000000000000000000000000000000000000000000000000000000000000000000000000000000000000000000000                          6000000000                                                                  000215
102122445950001000000009034510032549PREGTIT30428769017387     000000000000591645220000000000000000000000000927150319000591645200000000000059164522100319000000002300023700000  000000000000000000000000000000000000000000000000000000000000000000000000000000000000000000000000000000000000000000000                          6000000000                                                                  000216
102122445950001000000009034510032549PREGTIT30428258077965     000000000000591762100000000000000000000000000927150319000591762100000000000059176210100319000000002590023700000  000000000000000000000000000000000000000000000000000000000000000000000000000000000000000000000000000000000000000000000                          6000000000                                                                  000217
102122445950001000000009034510032549PREGTIT30425960421421     000000000000591818420000000000000000000000000927150319000591818400000000000059181842140219000000001500023700000  000000000000000000000000000000000000000000000000000000000000000000000000000000000000000000000000000000000000000000000                          6000000000                                                                  000218
102122445950001000000009034510032549PREGTIT30424763757495     000000000000592072990000000000000000000000000927150319000592072900000000000059207299100319000000001500023700000  000000000000000000000000000000000000000000000000000000000000000000000000000000000000000000000000000000000000000000000                          6000000000                                                                  000219
102122445950001000000009034510032549PREGTIT30461683602192     000000000000592616920000000000000000000000000927150319000592616900000000000059261692250319000000001400023700000  000000000000000000000000000000000000000000000000000000000000000000000000000000000000000000000000000000000000000000000                          6000000000                                                                  000220
102122445950001000000009034510032549PREGTIT30427851084445     000000000000592623890000000000000000000000000927150319000592623800000000000059262389050319000000000850023700000  000000000000000000000000000000000000000000000000000000000000000000000000000000000000000000000000000000000000000000000                          6000000000                                                                  000221
102122445950001000000009034510032549PREGTIT30502726016458     000000000000592707560000000000000000000000000927150319000592707500000000000059270756080319000000001000023700000  000000000000000000000000000000000000000000000000000000000000000000000000000000000000000000000000000000000000000000000                          6000000000                                                                  000222
102122445950001000000009034510032549PREGTIT30456745799018     000000000000592898480000000000000000000000000927150319000592898400000000000059289848140219000000000950023700000  000000000000000000000000000000000000000000000000000000000000000000000000000000000000000000000000000000000000000000000                          6000000000                                                                  000223
102122445950001000000009034510032549PREGTIT30427026269261     000000000000593061220000000000000000000000000927150319000593061200000000000059306122070319000000001500023700000  000000000000000000000000000000000000000000000000000000000000000000000000000000000000000000000000000000000000000000000                          6000000000                                                                  000224
102122445950001000000009034510032549PREGTIT30423672702088     000000000000593102270000000000000000000000000927150319000593102200000000000059310227060319000000001062523700000  000000000000000000000000000000000000000000000000000000000000000000000000000000000000000000000000000000000000000000000                          6000000000                                                                  000225
102122445950001000000009034510032549PREGTIT30429508801756     000000000000593132930000000000000000000000000927150319000593132900000000000059313293060319000000001333523700000  000000000000000000000000000000000000000000000000000000000000000000000000000000000000000000000000000000000000000000000                          6000000000                                                                  000226
102122445950001000000009034510032549PREGTIT30422726064034     000000000000593163810000000000000000000000000927150319000593163800000000000059316381100319000000001980023700000  000000000000000000000000000000000000000000000000000000000000000000000000000000000000000000000000000000000000000000000                          6000000000                                                                  000227
102122445950001000000009034510032549PREGTIT30425855837236     000000000000593178410000000000000000000000000927150319000593178400000000000059317841280219000000000700023700000  000000000000000000000000000000000000000000000000000000000000000000000000000000000000000000000000000000000000000000000                          6000000000                                                                  000228
102122445950001000000009034510032549PREGTIT30426605596041     000000000000593739970000000000000000000000000927150319000593739900000000000059373997110319000000000333523700000  000000000000000000000000000000000000000000000000000000000000000000000000000000000000000000000000000000000000000000000                          6000000000                                                                  000229
102122445950001000000009034510032549PREGTIT30421385894959     000000000000593774100000000000000000000000000927150319000593774100000000000059377410100319000000001000023700000  000000000000000000000000000000000000000000000000000000000000000000000000000000000000000000000000000000000000000000000                          6000000000                                                                  000230
102122445950001000000009034510032549PREGTIT30451769723275     000000000000593788400000000000000000000000000927150319000593788400000000000059378840130319000000000950023700000  000000000000000000000000000000000000000000000000000000000000000000000000000000000000000000000000000000000000000000000                          6000000000                                                                  000231
102122445950001000000009034510032549PREGTIT30507499371576     000000000000593794210000000000000000000000000927150319000593794200000000000059379421100319000000001062523700000  000000000000000000000000000000000000000000000000000000000000000000000000000000000000000000000000000000000000000000000                          6000000000                                                                  000232
102122445950001000000009034510032549PREGTIT30455878237407     000000000000593825460000000000000000000000000927150319000593825400000000000059382546100319000000000850023700000  000000000000000000000000000000000000000000000000000000000000000000000000000000000000000000000000000000000000000000000                          6000000000                                                                  000233
102122445950001000000009034510032549PREGTIT30422312986771     000000000000593831000000000000000000000000000927150319000593831000000000000059383100100319000000001000023700000  000000000000000000000000000000000000000000000000000000000000000000000000000000000000000000000000000000000000000000000                          6000000000                                                                  000234
102122445950001000000009034510032549PREGTIT30486715456338     000000000000593911970000000000000000000000000927150319000593911900000000000059391197200219000000001800023700000  000000000000000000000000000000000000000000000000000000000000000000000000000000000000000000000000000000000000000000000                          6000000000                                                                  000235
102122445950001000000009034510032549PREGTIT30424147350365     000000000000593952300000000000000000000000000927150319000593952300000000000059395230250219000000000950023700000  000000000000000000000000000000000000000000000000000000000000000000000000000000000000000000000000000000000000000000000                          6000000000                                                                  000236
102122445950001000000009034510032549PREGTIT30423420489550     000000000000593968730000000000000000000000000927150319000593968700000000000059396873100319000000010000023700000  000000000000000000000000000000000000000000000000000000000000000000000000000000000000000000000000000000000000000000000                          6000000000                                                                  000237
102122445950001000000009034510032549PREGTIT30421404419619     000000000000593988330000000000000000000000000927150319000593988300000000000059398833100319000000001000023700000  000000000000000000000000000000000000000000000000000000000000000000000000000000000000000000000000000000000000000000000                          6000000000                                                                  000238
102122445950001000000009034510032549PREGTIT30423429355811     000000000000594059450000000000000000000000000927150319000594059400000000000059405945100319000000000550023700000  000000000000000000000000000000000000000000000000000000000000000000000000000000000000000000000000000000000000000000000                          6000000000                                                                  000239
102122445950001000000009034510032549PREGTIT30422875189329     000000000000594092740000000000000000000000000927150319000594092700000000000059409274100319000000002000023700000  000000000000000000000000000000000000000000000000000000000000000000000000000000000000000000000000000000000000000000000                          6000000000                                                                  000240
102122445950001000000009034510032549PREGTIT30465044749764     000000000000594690990000000000000000000000000927150319000594690900000000000059469099100319000000000750023700000  000000000000000000000000000000000000000000000000000000000000000000000000000000000000000000000000000000000000000000000                          6000000000                                                                  000241
102122445950001000000009034510032549PREGTIT30425844755797     000000000000594706660000000000000000000000000927150319000594706600000000000059470666100319000000001000023700000  000000000000000000000000000000000000000000000000000000000000000000000000000000000000000000000000000000000000000000000                          6000000000                                                                  000242
102122445950001000000009034510032549PREGTIT30459734086100     000000000000594710180000000000000000000000000927150319000594710100000000000059471018080319000000002650023700000  000000000000000000000000000000000000000000000000000000000000000000000000000000000000000000000000000000000000000000000                          6000000000                                                                  000243
102122445950001000000009034510032549PREGTIT30526027819890     000000000000594748310000000000000000000000000927150319000594748300000000000059474831150319000000000450023700000  000000000000000000000000000000000000000000000000000000000000000000000000000000000000000000000000000000000000000000000                          6000000000                                                                  000244
102122445950001000000009034510032549PREGTIT30467173717452     000000000000594765160000000000000000000000000927150319000594765100000000000059476516100319000000000916723700000  000000000000000000000000000000000000000000000000000000000000000000000000000000000000000000000000000000000000000000000                          6000000000                                                                  000245
102122445950001000000009034510032549PREGTIT30467141971617     000000000000594790510000000000000000000000000927150319000594790500000000000059479051170219000000001583323700000  000000000000000000000000000000000000000000000000000000000000000000000000000000000000000000000000000000000000000000000                          6000000000                                                                  000246
102122445950001000000009034510032549PREGTIT30507141971617     0000000000005947906P000000000000000000000000092715031900059479060000000000005947906P170319000000001583323700000  000000000000000000000000000000000000000000000000000000000000000000000000000000000000000000000000000000000000000000000                          6000000000                                                                  000247
102122445950001000000009034510032549PREGTIT30507141971617     000000000000594790780000000000000000000000000927150319000594790700000000000059479078170419000000001583523700000  000000000000000000000000000000000000000000000000000000000000000000000000000000000000000000000000000000000000000000000                          6000000000                                                                  000248
