02RETORNO01COBRANCA       00000000000004852239ISPCN ADM DE COBRANCA DE TITUL237BRADESCO       1303190160000000602                                                                                                                                                                                                                                                                          140319         000001
102122445950001000000009034510032549PREGTIT30201641810888     000000000000584600630000000000000000000000000902130319000584600600000000000058460063120519000000004500023704151  000000000014300000000000000000000000000000000000000000000000000000000000000000000000000000000000000000000000000000000                          0000000000                                                                  000002
102122445950001000000009034510032549PREGTIT30206613087931     000000000000588930160000000000000000000000000902130319000588930100000000000058893016120519000000006082023704151  000000000014300000000000000000000000000000000000000000000000000000000000000000000000000000000000000000000000000000000                          7600000000                                                                  000003
102122445950001000000009034510032549PREGTIT30283297562864     000000000000590122340000000000000000000000000902130319000590122300000000000059012234100519000000001600023704157  000000000014300000000000000000000000000000000000000000000000000000000000000000000000000000000000000000000000000000000                          0000000000                                                                  000004
102122445950001000000009034510032549PREGTIT30203644628996     000000000000590218960000000000000000000000000902130319000590218900000000000059021896120519000000006180023704151  000000000014300000000000000000000000000000000000000000000000000000000000000000000000000000000000000000000000000000000                          0000000000                                                                  000005
102122445950001000000009034510032549PREGTIT30209782520362     000000000000592086860000000000000000000000000902130319000592086800000000000059208686120519000000002300023704151  000000000014300000000000000000000000000000000000000000000000000000000000000000000000000000000000000000000000000000000                          0000000000                                                                  000006
102122445950001000000009034510032549PREGTIT30205298285041     000000000000593692640000000000000000000000000902130319000593692600000000000059369264120519000000000723923704157  000000000014300000000000000000000000000000000000000000000000000000000000000000000000000000000000000000000000000000000                          0000000000                                                                  000007
102122445950001000000009034510032549PREGTIT30202909409436     000000000000593759300000000000000000000000000902130319000593759300000000000059375930120519000000001250023703451  000000000014300000000000000000000000000000000000000000000000000000000000000000000000000000000000000000000000000000000                          0000000000                                                                  000008
102122445950001000000009034510032549PREGTIT30209934499325     000000000000594094600000000000000000000000000902130319000594094600000000000059409460120519000000000473623704157  000000000014300000000000000000000000000000000000000000000000000000000000000000000000000000000000000000000000000000000                          0000000000                                                                  000009
102122445950001000000009034510032549PREGTIT30207377687042     000000000000594627010000000000000000000000000902130319000594627000000000000059462701100519000000001400023704159  000000000014300000000000000000000000000000000000000000000000000000000000000000000000000000000000000000000000000000000                          0000000000                                                                  000010
102122445950001000000009034510032549PREGTIT30202709378869     000000000000594709330000000000000000000000000902130319000594709300000000000059470933120519000000001000023703451  000000000014300000000000000000000000000000000000000000000000000000000000000000000000000000000000000000000000000000000                          0000000000                                                                  000011
102122445950001000000009034510032549PREGTIT30206437986906     000000000000594740840000000000000000000000000902130319000594740800000000000059474084120519000000002300023704151  000000000014300000000000000000000000000000000000000000000000000000000000000000000000000000000000000000000000000000000                          0000000000                                                                  000012
102122445950001000000009034510032549PREGTIT30205484072077     000000000000595056130000000000000000000000000902130319000595056100000000000059505613120519000000000961423704157  000000000014300000000000000000000000000000000000000000000000000000000000000000000000000000000000000000000000000000000                          0000000000                                                                  000013
102122445950001000000009034510032549PREGTIT30207906295197     000000000000595149650000000000000000000000000902130319000595149600000000000059514965120519000000003000023704151  000000000014300000000000000000000000000000000000000000000000000000000000000000000000000000000000000000000000000000000                          0000000000                                                                  000014
102122445950001000000009034510032549PREGTIT30204448323601     000000000000595653060000000000000000000000000902130319000595653000000000000059565306120519000000001300023704152  000000000014300000000000000000000000000000000000000000000000000000000000000000000000000000000000000000000000000000000                          0000000000                                                                  000015
102122445950001000000009034510032549PREGTIT30201705749932     000000000000595717210000000000000000000000000902130319000595717200000000000059571721120519000000001916723703451  000000000014300000000000000000000000000000000000000000000000000000000000000000000000000000000000000000000000000000000                          0000000000                                                                  000016
102122445950001000000009034510032549PREGTIT30207648696742     000000000000595720860000000000000000000000000902130319000595720800000000000059572086120519000000001285723703451  000000000014300000000000000000000000000000000000000000000000000000000000000000000000000000000000000000000000000000000                          0000000000                                                                  000017
102122445950001000000009034510032549PREGTIT30207617457277     000000000000595815140000000000000000000000000902130319000595815100000000000059581514120519000000005700023704151  000000000014300000000000000000000000000000000000000000000000000000000000000000000000000000000000000000000000000000000                          0000000000                                                                  000018
102122445950001000000009034510032549PREGTIT30205409940733     0000000000005958601P000000000000000000000000090213031900059586010000000000005958601P120519000000003660023703451  000000000014300000000000000000000000000000000000000000000000000000000000000000000000000000000000000000000000000000000                          7600000000                                                                  000019
102122445950001000000009034510032549PREGTIT30202830956499     000000000000595969100000000000000000000000000902130319000595969100000000000059596910120519000000003000023704157  000000000014300000000000000000000000000000000000000000000000000000000000000000000000000000000000000000000000000000000                          7600000000                                                                  000020
102122445950001000000009034510032549PREGTIT30281651763253     000000000000596616150000000000000000000000000902130319000596616100000000000059661615090519000000000600023703451  000000000014300000000000000000000000000000000000000000000000000000000000000000000000000000000000000000000000000000000                          0000000000                                                                  000021
102122445950001000000009034510032549PREGTIT30283934397341     000000000000596618520000000000000000000000000902130319000596618500000000000059661852090519000000000600023704144  000000000014300000000000000000000000000000000000000000000000000000000000000000000000000000000000000000000000000000000                          0000000000                                                                  000022
102122445950001000000009034510032549PREGTIT30287441551482     000000000000596619760000000000000000000000000902130319000596619700000000000059661976090519000000000600023704144  000000000014300000000000000000000000000000000000000000000000000000000000000000000000000000000000000000000000000000000                          0000000000                                                                  000023
102122445950001000000009034510032549PREGTIT30281921217416     000000000000596625490000000000000000000000000902130319000596625400000000000059662549090519000000000600023704144  000000000014300000000000000000000000000000000000000000000000000000000000000000000000000000000000000000000000000000000                          0000000000                                                                  000024
102122445950001000000009034510032549PREGTIT30283253435153     000000000000596627860000000000000000000000000902130319000596627800000000000059662786090519000000000600023704144  000000000014300000000000000000000000000000000000000000000000000000000000000000000000000000000000000000000000000000000                          0000000000                                                                  000025
102122445950001000000009034510032549PREGTIT30282849096866     000000000000596700370000000000000000000000000902130319000596700300000000000059670037120519000000000600023704144  000000000014300000000000000000000000000000000000000000000000000000000000000000000000000000000000000000000000000000000                          0000000000                                                                  000026
102122445950001000000009034510032549PREGTIT30286639073743     000000000000596780030000000000000000000000000902130319000596780000000000000059678003090519000000000600023703451  000000000014300000000000000000000000000000000000000000000000000000000000000000000000000000000000000000000000000000000                          0000000000                                                                  000027
102122445950001000000009034510032549PREGTIT30207455271569     000000000000596830230000000000000000000000000902130319000596830200000000000059683023120519000000001000023704157  000000000014300000000000000000000000000000000000000000000000000000000000000000000000000000000000000000000000000000000                          0000000000                                                                  000028
102122445950001000000009034510032549PREGTIT30284843661863     0000000000005968691P000000000000000000000000090213031900059686910000000000005968691P090519000000001100023704144  000000000014300000000000000000000000000000000000000000000000000000000000000000000000000000000000000000000000000000000                          0000000000                                                                  000029
102122445950001000000009034510032549PREGTIT30209672628082     000000000000596897220000000000000000000000000902130319000596897200000000000059689722120519000000001300023703451  000000000014300000000000000000000000000000000000000000000000000000000000000000000000000000000000000000000000000000000                          0000000000                                                                  000030
102122445950001000000009034510032549PREGTIT30288515443007     000000000000596943510000000000000000000000000902130319000596943500000000000059694351080519000000000600023704144  000000000014300000000000000000000000000000000000000000000000000000000000000000000000000000000000000000000000000000000                          0000000000                                                                  000031
102122445950001000000009034510032549PREGTIT30209611280477     000000000000597001490000000000000000000000000902130319000597001400000000000059700149120519000000004500023704151  000000000014300000000000000000000000000000000000000000000000000000000000000000000000000000000000000000000000000000000                          0000000000                                                                  000032
102122445950001000000009034510032549PREGTIT30206429976324     000000000000597007770000000000000000000000000902130319000597007700000000000059700777120519000000003668123704151  000000000014300000000000000000000000000000000000000000000000000000000000000000000000000000000000000000000000000000000                          0000000000                                                                  000033
102122445950001000000009034510032549PREGTIT30284258584359     000000000000597726700000000000000000000000000902130319000597726700000000000059772670120519000000001050023704144  000000000014300000000000000000000000000000000000000000000000000000000000000000000000000000000000000000000000000000000                          0000000000                                                                  000034
102122445950001000000009034510032549PREGTIT30286194196099     000000000000597729990000000000000000000000000902130319000597729900000000000059772999120519000000000887523704144  000000000014300000000000000000000000000000000000000000000000000000000000000000000000000000000000000000000000000000000                          0000000000                                                                  000035
102122445950001000000009034510032549PREGTIT30204874820121     000000000000597774510000000000000000000000000902130319000597774500000000000059777451120519000000000890023704151  000000000014300000000000000000000000000000000000000000000000000000000000000000000000000000000000000000000000000000000                          0000000000                                                                  000036
102122445950001000000009034510032549PREGTIT30289197123886     000000000000597821960000000000000000000000000902130319000597821900000000000059782196090519000000000600023704144  000000000014300000000000000000000000000000000000000000000000000000000000000000000000000000000000000000000000000000000                          7600000000                                                                  000037
102122445950001000000009034510032549PREGTIT30203340012782     000000000000597834430000000000000000000000000902130319000597834400000000000059783443120519000000000880023704151  000000000014300000000000000000000000000000000000000000000000000000000000000000000000000000000000000000000000000000000                          0000000000                                                                  000038
102122445950001000000009034510032549PREGTIT30202787839881     000000000000597853650000000000000000000000000902130319000597853600000000000059785365100519000000001200023704159  000000000014300000000000000000000000000000000000000000000000000000000000000000000000000000000000000000000000000000000                          7600000000                                                                  000039
102122445950001000000009034510032549PREGTIT30209660107543     000000000000597887980000000000000000000000000902130319000597887900000000000059788798120519000000001250023700408  000000000014300000000000000000000000000000000000000000000000000000000000000000000000000000000000000000000000000000000                          0000000000                                                                  000040
102122445950001000000009034510032549PREGTIT30209893267051     000000000000597888360000000000000000000000000902130319000597888300000000000059788836120519000000002000023700408  000000000014300000000000000000000000000000000000000000000000000000000000000000000000000000000000000000000000000000000                          0000000000                                                                  000041
102122445950001000000009034510032549PREGTIT30205628322602     000000000000598438530000000000000000000000000902130319000598438500000000000059843853120519000000002600023704151  000000000014300000000000000000000000000000000000000000000000000000000000000000000000000000000000000000000000000000000                          0000000000                                                                  000042
102122445950001000000009034510032549PREGTIT30207041221476     000000000000598442480000000000000000000000000902130319000598442400000000000059844248120519000000002067323700140  000000000014300000000000000000000000000000000000000000000000000000000000000000000000000000000000000000000000000000000                          0000000000                                                                  000043
102122445950001000000009034510032549PREGTIT30205426791318     000000000000598448090000000000000000000000000902130319000598448000000000000059844809120519000000001175023704151  000000000014300000000000000000000000000000000000000000000000000000000000000000000000000000000000000000000000000000000                          0000000000                                                                  000044
102122445950001000000009034510032549PREGTIT30206242208638     000000000000598448330000000000000000000000000902130319000598448300000000000059844833120519000000001412523704422  000000000014300000000000000000000000000000000000000000000000000000000000000000000000000000000000000000000000000000000                          0000000000                                                                  000045
102122445950001000000009034510032549PREGTIT30204938347037     000000000000598448840000000000000000000000000902130319000598448800000000000059844884120519000000001150023704422  000000000014300000000000000000000000000000000000000000000000000000000000000000000000000000000000000000000000000000000                          0000000000                                                                  000046
102122445950001000000009034510032549PREGTIT30205355793018     000000000000598449300000000000000000000000000902130319000598449300000000000059844930120519000000002500023704422  000000000014300000000000000000000000000000000000000000000000000000000000000000000000000000000000000000000000000000000                          0000000000                                                                  000047
102122445950001000000009034510032549PREGTIT30209654432129     000000000000598449650000000000000000000000000902130319000598449600000000000059844965120519000000001100023704422  000000000014300000000000000000000000000000000000000000000000000000000000000000000000000000000000000000000000000000000                          0000000000                                                                  000048
102122445950001000000009034510032549PREGTIT30208482007587     000000000000598450150000000000000000000000000902130319000598450100000000000059845015120519000000001200023704422  000000000014300000000000000000000000000000000000000000000000000000000000000000000000000000000000000000000000000000000                          0000000000                                                                  000049
102122445950001000000009034510032549PREGTIT30207854656659     0000000000005984504P000000000000000000000000090213031900059845040000000000005984504P120519000000001250023704422  000000000014300000000000000000000000000000000000000000000000000000000000000000000000000000000000000000000000000000000                          7600000000                                                                  000050
102122445950001000000009034510032549PREGTIT30203464224098     000000000000598450820000000000000000000000000902130319000598450800000000000059845082120519000000001250023704422  000000000014300000000000000000000000000000000000000000000000000000000000000000000000000000000000000000000000000000000                          0000000000                                                                  000051
102122445950001000000009034510032549PREGTIT30205767446536     000000000000598451200000000000000000000000000902130319000598451200000000000059845120120519000000001250023704422  000000000014300000000000000000000000000000000000000000000000000000000000000000000000000000000000000000000000000000000                          0000000000                                                                  000052
102122445950001000000009034510032549PREGTIT30203280983401     000000000000598451630000000000000000000000000902130319000598451600000000000059845163120519000000001200023704422  000000000014300000000000000000000000000000000000000000000000000000000000000000000000000000000000000000000000000000000                          0000000000                                                                  000053
102122445950001000000009034510032549PREGTIT30201300688212     000000000000598452280000000000000000000000000902130319000598452200000000000059845228120519000000001000023703451  000000000014300000000000000000000000000000000000000000000000000000000000000000000000000000000000000000000000000000000                          0000000000                                                                  000054
102122445950001000000009034510032549PREGTIT30202337927462     000000000000598452600000000000000000000000000902130319000598452600000000000059845260120519000000001250023704422  000000000014300000000000000000000000000000000000000000000000000000000000000000000000000000000000000000000000000000000                          0000000000                                                                  000055
102122445950001000000009034510032549PREGTIT30203344595192     000000000000598453090000000000000000000000000902130319000598453000000000000059845309120519000000001800023704422  000000000014300000000000000000000000000000000000000000000000000000000000000000000000000000000000000000000000000000000                          0000000000                                                                  000056
102122445950001000000009034510032549PREGTIT30205028758454     0000000000005984535P000000000000000000000000090213031900059845350000000000005984535P120519000000001316723704422  000000000014300000000000000000000000000000000000000000000000000000000000000000000000000000000000000000000000000000000                          0000000000                                                                  000057
102122445950001000000009034510032549PREGTIT30204387773896     000000000000598523800000000000000000000000000902130319000598523800000000000059852380100519000000000200023704159  000000000014300000000000000000000000000000000000000000000000000000000000000000000000000000000000000000000000000000000                          7600000000                                                                  000058
102122445950001000000009034510032549PREGTIT30205002202499     000000000000598574120000000000000000000000000902130319000598574100000000000059857412100519000000001650023704159  000000000014300000000000000000000000000000000000000000000000000000000000000000000000000000000000000000000000000000000                          0000000000                                                                  000059
102122445950001000000009034510032549PREGTIT30207775057210     000000000000598660200000000000000000000000000902130319000598660200000000000059866020120519000000000781523704157  000000000014300000000000000000000000000000000000000000000000000000000000000000000000000000000000000000000000000000000                          0000000000                                                                  000060
102122445950001000000009034510032549PREGTIT30207490310482     000000000000598711720000000000000000000000000902130319000598711700000000000059871172120519000000002270023704152  000000000014300000000000000000000000000000000000000000000000000000000000000000000000000000000000000000000000000000000                          0000000000                                                                  000061
102122445950001000000009034510032549PREGTIT30205389300986     000000000000598770140000000000000000000000000902130319000598770100000000000059877014120519000000000560023704157  000000000014300000000000000000000000000000000000000000000000000000000000000000000000000000000000000000000000000000000                          0000000000                                                                  000062
102122445950001000000009034510032549PREGTIT30208379657136     000000000000598770730000000000000000000000000902130319000598770700000000000059877073120519000000001140023704151  000000000014300000000000000000000000000000000000000000000000000000000000000000000000000000000000000000000000000000000                          0000000000                                                                  000063
102122445950001000000009034510032549PREGTIT30205367544616     000000000000598771110000000000000000000000000902130319000598771100000000000059877111120519000000000750023704151  000000000014300000000000000000000000000000000000000000000000000000000000000000000000000000000000000000000000000000000                          0000000000                                                                  000064
102122445950001000000009034510032549PREGTIT30206039366895     000000000000598771540000000000000000000000000902130319000598771500000000000059877154120519000000002688023704151  000000000014300000000000000000000000000000000000000000000000000000000000000000000000000000000000000000000000000000000                          0000000000                                                                  000065
102122445950001000000009034510032549PREGTIT30206635203382     000000000000598775100000000000000000000000000902130319000598775100000000000059877510130419000000005000023704422  000000000014300000000000000000000000000000000000000000000000000000000000000000000000000000000000000000000000000000000                          0000000000                                                                  000066
102122445950001000000009034510032549PREGTIT30206277803261     000000000000598775290000000000000000000000000902130319000598775200000000000059877529130419000000001325023704422  000000000014300000000000000000000000000000000000000000000000000000000000000000000000000000000000000000000000000000000                          0000000000                                                                  000067
102122445950001000000009034510032549PREGTIT30202761722790     000000000000598775610000000000000000000000000902130319000598775600000000000059877561130419000000001500023704400  000000000014300000000000000000000000000000000000000000000000000000000000000000000000000000000000000000000000000000000                          0000000000                                                                  000068
102122445950001000000009034510032549PREGTIT30201270278286     0000000000005987757P000000000000000000000000090213031900059877570000000000005987757P130419000000006200023704159  000000000014300000000000000000000000000000000000000000000000000000000000000000000000000000000000000000000000000000000                          0000000000                                                                  000069
102122445950001000000009034510032549PREGTIT30208823703399     000000000000598775880000000000000000000000000902130319000598775800000000000059877588280319000000001500023704400  000000000014300000000000000000000000000000000000000000000000000000000000000000000000000000000000000000000000000000000                          7600000000                                                                  000070
102122445950001000000009034510032549PREGTIT30219996526580     000000000000598776340000000000000000000000000902130319000598776300000000000059877634200419000000001400023704159  000000000014300000000000000000000000000000000000000000000000000000000000000000000000000000000000000000000000000000000                          0000000000                                                                  000071
102122445950001000000009034510032549PREGTIT30214694080841     000000000000598777580000000000000000000000000902130319000598777500000000000059877758120419000000023242823704151  000000000014300000000000000000000000000000000000000000000000000000000000000000000000000000000000000000000000000000000                          0000000000                                                                  000072
102122445950001000000009034510032549PREGTIT30212612701244     000000000000598777660000000000000000000000000902130319000598777600000000000059877766300319000000000880023704159  000000000014300000000000000000000000000000000000000000000000000000000000000000000000000000000000000000000000000000000                          0000000000                                                                  000073
102122445950001000000009034510032549PREGTIT30216774999826     000000000000598777740000000000000000000000000902130319000598777700000000000059877774100419000000002200023703451  000000000014300000000000000000000000000000000000000000000000000000000000000000000000000000000000000000000000000000000                          0000000000                                                                  000074
102122445950001000000009034510032549PREGTIT30216774999826     000000000000598777820000000000000000000000000902130319000598777800000000000059877782100519000000002200023703451  000000000014300000000000000000000000000000000000000000000000000000000000000000000000000000000000000000000000000000000                          0000000000                                                                  000075
102122445950001000000009034510032549PREGTIT30218736940051     000000000000598778120000000000000000000000000902130319000598778100000000000059877812130419000000001000023703451  000000000014300000000000000000000000000000000000000000000000000000000000000000000000000000000000000000000000000000000                          0000000000                                                                  000076
102122445950001000000009034510032549PREGTIT30221971855622     000000000000598778550000000000000000000000000902130319000598778500000000000059877855100419000000001200023703109  000000000014300000000000000000000000000000000000000000000000000000000000000000000000000000000000000000000000000000000                          0000000000                                                                  000077
102122445950001000000009034510032549PREGTIT30221971855622     000000000000598778630000000000000000000000000902130319000598778600000000000059877863100519000000001200023703109  000000000014300000000000000000000000000000000000000000000000000000000000000000000000000000000000000000000000000000000                          0000000000                                                                  000078
102122445950001000000009034510032549PREGTIT30222414906484     0000000000005987791P000000000000000000000000090213031900059877910000000000005987791P110419000000001141023704144  000000000014300000000000000000000000000000000000000000000000000000000000000000000000000000000000000000000000000000000                          7600000000                                                                  000079
102122445950001000000009034510032549PREGTIT30222071190236     000000000000598779280000000000000000000000000902130319000598779200000000000059877928110419000000001141023704144  000000000014300000000000000000000000000000000000000000000000000000000000000000000000000000000000000000000000000000000                          7600000000                                                                  000080
102122445950001000000009034510032549PREGTIT30223446701615     000000000000598779360000000000000000000000000902130319000598779300000000000059877936130419000000002570023704144  000000000014300000000000000000000000000000000000000000000000000000000000000000000000000000000000000000000000000000000                          0000000000                                                                  000081
102122445950001000000009034510032549PREGTIT30236539970483     000000000000598779440000000000000000000000000902130319000598779400000000000059877944310319000000004981423704159  000000000014300000000000000000000000000000000000000000000000000000000000000000000000000000000000000000000000000000000                          7600000000                                                                  000082
102122445950001000000009034510032549PREGTIT30231743863589     000000000000598779520000000000000000000000000902130319000598779500000000000059877952200319000000002570023704144  000000000014300000000000000000000000000000000000000000000000000000000000000000000000000000000000000000000000000000000                          0000000000                                                                  000083
102122445950001000000009034510032549PREGTIT30233543888802     000000000000598779600000000000000000000000000902130319000598779600000000000059877960200319000000006544823704144  000000000014300000000000000000000000000000000000000000000000000000000000000000000000000000000000000000000000000000000                          7600000000                                                                  000084
102122445950001000000009034510032549PREGTIT30238174419179     000000000000598780100000000000000000000000000902130319000598780100000000000059878010100419000000001450023703109  000000000014300000000000000000000000000000000000000000000000000000000000000000000000000000000000000000000000000000000                          0000000000                                                                  000085
102122445950001000000009034510032549PREGTIT30238174419179     000000000000598780290000000000000000000000000902130319000598780200000000000059878029100519000000001450023703109  000000000014300000000000000000000000000000000000000000000000000000000000000000000000000000000000000000000000000000000                          0000000000                                                                  000086
102122445950001000000009034510032549PREGTIT30241707334824     000000000000598780530000000000000000000000000902130319000598780500000000000059878053100419000000002200023703109  000000000014300000000000000000000000000000000000000000000000000000000000000000000000000000000000000000000000000000000                          0000000000                                                                  000087
102122445950001000000009034510032549PREGTIT30241707334824     000000000000598780610000000000000000000000000902130319000598780600000000000059878061100519000000002200023703109  000000000014300000000000000000000000000000000000000000000000000000000000000000000000000000000000000000000000000000000                          0000000000                                                                  000088
102122445950001000000009034510032549PREGTIT30261397749247     000000000000599273050000000000000000000000000902130319000599273000000000000059927305250419000000002500023704157  000000000014300000000000000000000000000000000000000000000000000000000000000000000000000000000000000000000000000000000                          7600000000                                                                  000089
102122445950001000000009034510032549PREGTIT30262473427032     000000000000599273210000000000000000000000000902130319000599273200000000000059927321200419000000008611023704157  000000000014300000000000000000000000000000000000000000000000000000000000000000000000000000000000000000000000000000000                          0000000000                                                                  000090
102122445950001000000009034510032549PREGTIT30262473427032     0000000000005992733P000000000000000000000000090213031900059927330000000000005992733P200419000000000861123704157  000000000014300000000000000000000000000000000000000000000000000000000000000000000000000000000000000000000000000000000                          0000000000                                                                  000091
102122445950001000000009034510032549PREGTIT30267457439808     000000000000599274370000000000000000000000000902130319000599274300000000000059927437100419000000002600023704152  000000000014300000000000000000000000000000000000000000000000000000000000000000000000000000000000000000000000000000000                          0000000000                                                                  000092
102122445950001000000009034510032549PREGTIT30267457439808     000000000000599274450000000000000000000000000902130319000599274400000000000059927445100519000000002600023704152  000000000014300000000000000000000000000000000000000000000000000000000000000000000000000000000000000000000000000000000                          0000000000                                                                  000093
102122445950001000000009034510032549PREGTIT30262352263811     000000000000599275260000000000000000000000000902130319000599275200000000000059927526040419000000001010023704144  000000000014300000000000000000000000000000000000000000000000000000000000000000000000000000000000000000000000000000000                          7600000000                                                                  000094
102122445950001000000009034510032549PREGTIT30273822423298     000000000000599275340000000000000000000000000902130319000599275300000000000059927534100419000000003980023704151  000000000014300000000000000000000000000000000000000000000000000000000000000000000000000000000000000000000000000000000                          7600000000                                                                  000095
102122445950001000000009034510032549PREGTIT30273822423298     000000000000599275420000000000000000000000000902130319000599275400000000000059927542100519000000003980023704151  000000000014300000000000000000000000000000000000000000000000000000000000000000000000000000000000000000000000000000000                          7600000000                                                                  000096
102122445950001000000009034510032549PREGTIT30272456922858     000000000000599275500000000000000000000000000902130319000599275500000000000059927550150419000000001397023704157  000000000014300000000000000000000000000000000000000000000000000000000000000000000000000000000000000000000000000000000                          7600000000                                                                  000097
102122445950001000000009034510032549PREGTIT30287785064991     000000000000599276070000000000000000000000000902130319000599276000000000000059927607270319000000002035023704144  000000000014300000000000000000000000000000000000000000000000000000000000000000000000000000000000000000000000000000000                          0000000000                                                                  000098
102122445950001000000009034510032549PREGTIT30282322551906     000000000000599276150000000000000000000000000902130319000599276100000000000059927615280319000000002035023704144  000000000014300000000000000000000000000000000000000000000000000000000000000000000000000000000000000000000000000000000                          0000000000                                                                  000099
102122445950001000000009034510032549PREGTIT30284869509442     000000000000599276230000000000000000000000000902130319000599276200000000000059927623130419000000003333323704151  000000000014300000000000000000000000000000000000000000000000000000000000000000000000000000000000000000000000000000000                          0000000000                                                                  000100
102122445950001000000009034510032549PREGTIT30281648887805     000000000000599276580000000000000000000000000902130319000599276500000000000059927658030419000000002035023704144  000000000014300000000000000000000000000000000000000000000000000000000000000000000000000000000000000000000000000000000                          7600000000                                                                  000101
102122445950001000000009034510032549PREGTIT30283879054954     000000000000599276660000000000000000000000000902130319000599276600000000000059927666180319000000031804823704144  000000000014300000000000000000000000000000000000000000000000000000000000000000000000000000000000000000000000000000000                          7600000000                                                                  000102
102122445950001000000009034510032549PREGTIT30281378174196     000000000000599276740000000000000000000000000902130319000599276700000000000059927674200319000000000690023700073  000000000014300000000000000000000000000000000000000000000000000000000000000000000000000000000000000000000000000000000                          7600000000                                                                  000103
102122445950001000000009034510032549PREGTIT30281378174196     000000000000599276820000000000000000000000000902130319000599276800000000000059927682150419000000000690023700073  000000000014300000000000000000000000000000000000000000000000000000000000000000000000000000000000000000000000000000000                          7600000000                                                                  000104
102122445950001000000009034510032549PREGTIT30289574648220     000000000000599277710000000000000000000000000902130319000599277700000000000059927771200319000000000690023700073  000000000014300000000000000000000000000000000000000000000000000000000000000000000000000000000000000000000000000000000                          0000000000                                                                  000105
102122445950001000000009034510032549PREGTIT30289574648220     0000000000005992778P000000000000000000000000090213031900059927780000000000005992778P150419000000000690023700073  000000000014300000000000000000000000000000000000000000000000000000000000000000000000000000000000000000000000000000000                          0000000000                                                                  000106
102122445950001000000009034510032549PREGTIT30282870088033     000000000000599278790000000000000000000000000902130319000599278700000000000059927879250419000000003333323704151  000000000014300000000000000000000000000000000000000000000000000000000000000000000000000000000000000000000000000000000                          0000000000                                                                  000107
102122445950001000000009034510032549PREGTIT30288162556261     000000000000599279090000000000000000000000000902130319000599279000000000000059927909020419000000000600023704144  000000000014300000000000000000000000000000000000000000000000000000000000000000000000000000000000000000000000000000000                          0000000000                                                                  000108
102122445950001000000009034510032549PREGTIT30288162556261     000000000000599279170000000000000000000000000902130319000599279100000000000059927917020519000000000600023704144  000000000014300000000000000000000000000000000000000000000000000000000000000000000000000000000000000000000000000000000                          0000000000                                                                  000109
102122445950001000000009034510032549PREGTIT30289567753329     000000000000599280180000000000000000000000000902130319000599280100000000000059928018050419000000000550023704144  000000000014300000000000000000000000000000000000000000000000000000000000000000000000000000000000000000000000000000000                          0000000000                                                                  000110
102122445950001000000009034510032549PREGTIT30289567753329     000000000000599280260000000000000000000000000902130319000599280200000000000059928026050519000000000550023704144  000000000014300000000000000000000000000000000000000000000000000000000000000000000000000000000000000000000000000000000                          0000000000                                                                  000111
102122445950001000000009034510032549PREGTIT30281733704378     000000000000599280690000000000000000000000000902130319000599280600000000000059928069300319000000000995023704157  000000000014300000000000000000000000000000000000000000000000000000000000000000000000000000000000000000000000000000000                          7600000000                                                                  000112
102122445950001000000009034510032549PREGTIT30281733704378     000000000000599280770000000000000000000000000902130319000599280700000000000059928077300419000000000995023704157  000000000014300000000000000000000000000000000000000000000000000000000000000000000000000000000000000000000000000000000                          7600000000                                                                  000113
102122445950001000000009034510032549PREGTIT30295014175118     000000000000599280850000000000000000000000000902130319000599280800000000000059928085150419000000001350023704151  000000000014300000000000000000000000000000000000000000000000000000000000000000000000000000000000000000000000000000000                          0000000000                                                                  000114
102122445950001000000009034510032549PREGTIT30299779897191     000000000000599281150000000000000000000000000902130319000599281100000000000059928115140319000000010000023704157  000000000014300000000000000000000000000000000000000000000000000000000000000000000000000000000000000000000000000000000                          0000000000                                                                  000115
102122445950001000000009034510032549PREGTIT30296149500670     000000000000599281230000000000000000000000000902130319000599281200000000000059928123270319000000006790023704144  000000000014300000000000000000000000000000000000000000000000000000000000000000000000000000000000000000000000000000000                          0000000000                                                                  000116
102122445950001000000009034510032549PREGTIT30295971098413     000000000000599281310000000000000000000000000902130319000599281300000000000059928131130419000000005318623703451  000000000014300000000000000000000000000000000000000000000000000000000000000000000000000000000000000000000000000000000                          7600000000                                                                  000117
102122445950001000000009034510032549PREGTIT30293342624339     0000000000005992814P000000000000000000000000090213031900059928140000000000005992814P250319000000010225123704144  000000000014300000000000000000000000000000000000000000000000000000000000000000000000000000000000000000000000000000000                          0000000000                                                                  000118
102122445950001000000009034510032549PREGTIT30308159786764     000000000000599281580000000000000000000000000902130319000599281500000000000059928158150419000000002800023704151  000000000014300000000000000000000000000000000000000000000000000000000000000000000000000000000000000000000000000000000                          7600000000                                                                  000119
102122445950001000000009034510032549PREGTIT24096930370368     000000000000587667900000000000000000000000000906130319000587667900000000000058766790200219000000002250023706454  000000000000000000000000000000000000000000000000000000000000000000000000000000000000002326500000000007650000000000000   140319             00000000000000                                                                  000120
102122445950001000000009034510032549PREGTIT25216750157732     000000000000587907990000000000000000000000000906130319000587907900000000000058790799100319000000002200010402135  000000000000000000000000000000000000000000000000000000000000000000000000000000000000002248500000000004850000000000000   140319             00000000000000                                                                  000121
102122445950001000000009034510032549PREGTIT27716750157732     000000000000587908020000000000000000000000000906130319000587908000000000000058790802100419000000002200010402135  000000000000000000000000000000000000000000000000000000000000000000000000000000000000002200000000000000000000000000000   140319             00000000000000                                                                  000122
102122445950001000000009034510032549PREGTIT26086914132096     000000000000588656670000000000000000000000000906130319000588656600000000000058865667200319000000001100010400559  000000000000000000000000000000000000000000000000000000000000000000000000000000000000001100000000000000000000000000000   140319             00000000000000                                                                  000123
102122445950001000000009034510032549PREGTIT25541770935493     000000000000590246660000000000000000000000000906130319000590246600000000000059024666150319000000000720010403252  000000000000000000000000000000000000000000000000000000000000000000000000000000000000000720000000000000000000000000000   140319             00000000000000                                                                  000124
102122445950001000000009034510032549PREGTIT24542579588327     000000000000591909810000000000000000000000000906130319000591909800000000000059190981280219000000000490000106657  000000000000000000000000000000000000000000000000000000000000000000000000000000000000000503700000000001370000000000000   140319             00000000000000                                                                  000125
102122445950001000000009034510032549PREGTIT25541453441315     000000000000591947660000000000000000000000000906130319000591947600000000000059194766150319000000001400034106910  000000000000000000000000000000000000000000000000000000000000000000000000000000000000001400000000000000000000000000000   140319             00000000000000                                                                  000126
102122445950001000000009034510032549PREGTIT26089083531242     000000000000592690300000000000000000000000000906130319000592690300000000000059269030200319000000002430010400394  000000000000000000000000000000000000000000000000000000000000000000000000000000000000002430000000000000000000000000000   140319             00000000000000                                                                  000127
102122445950001000000009034510032549PREGTIT23249288525539     000000000000592990100000000000000000000000000906130319000592990100000000000059299010100219000000002500023703134  000000000000000000000000000000000000000000000000000000000000000000000000000000000000002602700000000010270000000000000   140319             00000000000000                                                                  000128
102122445950001000000009034510032549PREGTIT23038180725462     000000000000593045610000000000000000000000000906130319000593045600000000000059304561080219000000001960010403145  000000000000000000000000000000000000000000000000000000000000000000000000000000000000002042100000000008210000000000000   140319             00000000000000                                                                  000129
102122445950001000000009034510032549PREGTIT24096559290265     000000000000594738270000000000000000000000000906130319000594738200000000000059473827220219000000001550023702156  000000000000000000000000000000000000000000000000000000000000000000000000000000000000001600000000000005000000000000000   140319             00000000000000                                                                  000130
102122445950001000000009034510032549PREGTIT25547719945187     000000000000594747690000000000000000000000000906130319000594747600000000000059474769150319000000001670010403001  000000000000000000000000000000000000000000000000000000000000000000000000000000000000001670000000000000000000000000000   140319             00000000000000                                                                  000131
102122445950001000000009034510032549PREGTIT24098929311463     000000000000595025250000000000000000000000000906130319000595025200000000000059502525200219000000002000023706509  000000000000000000000000000000000000000000000000000000000000000000000000000000000000002067300000000006730000000000000   140319             00000000000000                                                                  000132
102122445950001000000009034510032549PREGTIT26086762129978     000000000000595029320000000000000000000000000906130319000595029300000000000059502932200319000000004000034108793  000000000000000000000000000000000000000000000000000000000000000000000000000000000000004000000000000000000000000000000   140319             00000000000000                                                                  000133
102122445950001000000009034510032549PREGTIT25544417016630     0000000000005951163P000000000000000000000000090613031900059511630000000000005951163P150319000000001500034108173  000000000000000000000000000000000000000000000000000000000000000000000000000000000000001500000000000000000000000000000   140319             00000000000000                                                                  000134
102122445950001000000009034510032549PREGTIT25545947422480     000000000000595654540000000000000000000000000906130319000595654500000000000059565454150319000000001700010403261  000000000000000000000000000000000000000000000000000000000000000000000000000000000000001700000000000000000000000000000   140319             00000000000000                                                                  000135
102122445950001000000009034510032549PREGTIT25372041520770     0000000000005957383P000000000000000000000000090613031900059573830000000000005957383P070319000000000666710404766  000000000000000000000000000000000000000000000000000000000000000000000000000000000000000682400000000001570000000000000   140319             00000000000000                                                                  000136
102122445950001000000009034510032549PREGTIT22267035786629     000000000000595878650000000000000000000000000906130319000595878600000000000059587865280119000000001200010404399  000000000000000000000000000000000000000000000000000000000000000000000000000000000000001259200000000005920000000000000   140319             00000000000000                                                                  000137
102122445950001000000009034510032549PREGTIT24547035786629     000000000000595878730000000000000000000000000906130319000595878700000000000059587873280219000000001200010404399  000000000000000000000000000000000000000000000000000000000000000000000000000000000000001234400000000003440000000000000   140319             00000000000000                                                                  000138
102122445950001000000009034510032549PREGTIT25219274899301     000000000000596589830000000000000000000000000906130319000596589800000000000059658983100319000000002100023701253  000000000000000000000000000000000000000000000000000000000000000000000000000000000000002150400000000005040000000000000   140319             00000000000000                                                                  000139
102122445950001000000009034510032549PREGTIT23248787746901     0000000000005965922P000000000000000000000000090613031900059659220000000000005965922P100219000000001680003300210  000000000000000000000000000000000000000000000000000000000000000000000000000000000000001747700000000006770000000000000   140319             00000000000000                                                                  000140
102122445950001000000009034510032549PREGTIT25218787746901     000000000000596592380000000000000000000000000906130319000596592300000000000059659238100319000000001680003300210  000000000000000000000000000000000000000000000000000000000000000000000000000000000000001716900000000003690000000000000   140319             00000000000000                                                                  000141
102122445950001000000009034510032549PREGTIT25981565516057     0000000000005967217P000000000000000000000000090613031900059672170000000000005967217P190319000000002100010400551  000000000000000000000000000000000000000000000000000000000000000000000000000000000000002100000000000000000000000000000   140319             00000000000000                                                                  000142
102122445950001000000009034510032549PREGTIT24545796407837     000000000000596724710000000000000000000000000906130319000596724700000000000059672471280219000000003200010400551  000000000000000000000000000000000000000000000000000000000000000000000000000000000000003291300000000009130000000000000   140319             00000000000000                                                                  000143
102122445950001000000009034510032549PREGTIT26088419228345     000000000000596879910000000000000000000000000906130319000596879900000000000059687991200319000000001990010400278  000000000000000000000000000000000000000000000000000000000000000000000000000000000000001990000000000000000000000000000   140319             00000000000000                                                                  000144
102122445950001000000009034510032549PREGTIT24864993972666     000000000000596933040000000000000000000000000906130319000596933000000000000059693304030319000000002400023700520  000000000000000000000000000000000000000000000000000000000000000000000000000000000000002464000000000006400000000000000   140319             00000000000000                                                                  000145
102122445950001000000009034510032549PREGTIT25213307846647     000000000000596961920000000000000000000000000906130319000596961900000000000059696192100319000000001055810403753  000000000000000000000000000000000000000000000000000000000000000000000000000000000000001079000000000002320000000000000   140319             00000000000000                                                                  000146
102122445950001000000009034510032549PREGTIT25546646829570     000000000000596970240000000000000000000000000906130319000596970200000000000059697024130319000000004361510403521  000000000000000000000000000000000000000000000000000000000000000000000000000000000000004361500000000000000000000000000   140319             00000000000000                                                                  000147
102122445950001000000009034510032549PREGTIT26421270686280     000000000000597708640000000000000000000000000906130319000597708600000000000059770864100319000000000845310403753  000000000000000000000000000000000000000000000000000000000000000000000000000000000000000864000000000001870000000000000   140319             00000000000000                                                                  000148
102122445950001000000009034510032549PREGTIT26504896321309     000000000000597739440000000000000000000000000906130319000597739400000000000059773944150319000000001612810400981  000000000000000000000000000000000000000000000000000000000000000000000000000000000000001612800000000000000000000000000   140319             00000000000000                                                                  000149
102122445950001000000009034510032549PREGTIT26913943426095     000000000000597794620000000000000000000000000906130319000597794600000000000059779462200219000000002040010403371  000000000000000000000000000000000000000000000000000000000000000000000000000000000000002110200000000007020000000000000   140319             00000000000000                                                                  000150
102122445950001000000009034510032549PREGTIT27022484002986     000000000000597805840000000000000000000000000906130319000597805800000000000059780584100319000000004400023703084  000000000000000000000000000000000000000000000000000000000000000000000000000000000000004496700000000009670000000000000   140319             00000000000000                                                                  000151
102122445950001000000009034510032549PREGTIT27432457793992     000000000000597873170000000000000000000000000906130319000597873100000000000059787317150319000000001000010403584  000000000000000000000000000000000000000000000000000000000000000000000000000000000000001000000000000000000000000000000   140319             00000000000000                                                                  000152
102122445950001000000009034510032549PREGTIT27646766731937     000000000000597905040000000000000000000000000906130319000597905000000000000059790504150319000000001200010401882  000000000000000000000000000000000000000000000000000000000000000000000000000000000000001200000000000000000000000000000   140319             00000000000000                                                                  000153
102122445950001000000009034510032549PREGTIT27856948286468     000000000000598433060000000000000000000000000906130319000598433000000000000059843306170319000000002333310400551  000000000000000000000000000000000000000000000000000000000000000000000000000000000000002333300000000000000000000000000   140319             00000000000000                                                                  000154
102122445950001000000009034510032549PREGTIT27964888779301     000000000000598457400000000000000000000000000906130319000598457400000000000059845740130319000000001536610404508  000000000000000000000000000000000000000000000000000000000000000000000000000000000000001536600000000000000000000000000   140319             00000000000000                                                                  000155
102122445950001000000009034510032549PREGTIT28212331324674     000000000000598496810000000000000000000000000906130319000598496800000000000059849681150319000000002000023706349  000000000000000000000000000000000000000000000000000000000000000000000000000000000000002000000000000000000000000000000   140319             00000000000000                                                                  000156
102122445950001000000009034510032549PREGTIT28226758763823     000000000000598500780000000000000000000000000906130319000598500700000000000059850078150319000000002618463300001  000000000000000000000000000000000000000000000000000000000000000000000000000000000000002618400000000000000000000000000   140319             00000000000000                                                                  000157
102122445950001000000009034510032549PREGTIT28257668272703     000000000000598515890000000000000000000000000906130319000598515800000000000059851589160319000000003774710403218  000000000000000000000000000000000000000000000000000000000000000000000000000000000000003774700000000000000000000000000   140319             00000000000000                                                                  000158
102122445950001000000009034510032549PREGTIT28365136614425     000000000000598531580000000000000000000000000906130319000598531500000000000059853158190319000000000996700101000  000000000000000000000000000000000000000000000000000000000000000000000000000000000000000996700000000000000000000000000   140319             00000000000000                                                                  000159
102122445950001000000009034510032549PREGTIT28552877828487     000000000000598558430000000000000000000000000906130319000598558400000000000059855843130319000000002035023706021  000000000000000000000000000000000000000000000000000000000000000000000000000000000000002035000000000000000000000000000   140319             00000000000000                                                                  000160
102122445950001000000009034510032549PREGTIT28603098849699     000000000000598562030000000000000000000000000906130319000598562000000000000059856203130319000000003900034100194  000000000000000000000000000000000000000000000000000000000000000000000000000000000000003900000000000000000000000000000   140319             00000000000000                                                                  000161
102122445950001000000009034510032549PREGTIT28616100866612     000000000000598562700000000000000000000000000906130319000598562700000000000059856270130319000000002340034100194  000000000000000000000000000000000000000000000000000000000000000000000000000000000000002340000000000000000000000000000   140319             00000000000000                                                                  000162
102122445950001000000009034510032549PREGTIT29076904838763     000000000000598620920000000000000000000000000906130319000598620900000000000059862092130319000000005127003300262  000000000000000000000000000000000000000000000000000000000000000000000000000000000000005127000000000000000000000000000   140319             00000000000000                                                                  000163
102122445950001000000009034510032549PREGTIT29289356067044     000000000000598642220000000000000000000000000906130319000598642200000000000059864222130319000000023156534100088  000000000000000000000000000000000000000000000000000000000000000000000000000000000000023156500000000000000000000000000   140319             00000000000000                                                                  000164
102122445950001000000009034510032549PREGTIT29488358220756     000000000000598659700000000000000000000000000906130319000598659700000000000059865970150319000000004500010400421  000000000000000000000000000000000000000000000000000000000000000000000000000000000000004500000000000000000000000000000   140319             00000000000000                                                                  000165
102122445950001000000009034510032549PREGTIT29928747426730     000000000000598681470000000000000000000000000906130319000598681400000000000059868147130319000000002830003302102  000000000000000000000000000000000000000000000000000000000000000000000000000000000000002830000000000000000000000000000   140319             00000000000000                                                                  000166
102122445950001000000009034510032549PREGTIT23881612180512     000000000000589863080000000000000000000000000909130319000589863000000000000058986308180219000000001100023703451  000000000000000000000000000000000000000000000000000000000000000000000000000000000000000000000000000000000000000000000                          0000000000                                                                  000167
102122445950001000000009034510032549PREGTIT24097273416072     000000000000589902080000000000000000000000000909130319000589902000000000000058990208210219000000000990023704150  000000000000000000000000000000000000000000000000000000000000000000000000000000000000000000000000000000000000000000000                          0000000000                                                                  000168
102122445950001000000009034510032549PREGTIT25486181555576     000000000000590233170000000000000000000000000909130319000590233100000000000059023317100319000000001200023704150  000000000000000000000000000000000000000000000000000000000000000000000000000000000000000000000000000000000000000000000                          0000000000                                                                  000169
102122445950001000000009034510032549PREGTIT25212080297515     000000000000591793760000000000000000000000000909130319000591793700000000000059179376100319000000001529223704150  000000000000000000000000000000000000000000000000000000000000000000000000000000000000000000000000000000000000000000000                          0000000000                                                                  000170
102122445950001000000009034510032549PREGTIT24884475459700     000000000000591795890000000000000000000000000909130319000591795800000000000059179589050319000000001000023703451  000000000000000000000000000000000000000000000000000000000000000000000000000000000000000000000000000000000000000000000                          0000000000                                                                  000171
102122445950001000000009034510032549PREGTIT24436300498325     000000000000591960840000000000000000000000000909130319000591960800000000000059196084260219000000000500023703451  000000000000000000000000000000000000000000000000000000000000000000000000000000000000000000000000000000000000000000000                          0000000000                                                                  000172
102122445950001000000009034510032549PREGTIT26516300498325     000000000000591960920000000000000000000000000909130319000591960900000000000059196092260319000000000500023703451  000000000000000000000000000000000000000000000000000000000000000000000000000000000000000000000000000000000000000000000                          0000000000                                                                  000173
102122445950001000000009034510032549PREGTIT24884188011785     000000000000592626720000000000000000000000000909130319000592626700000000000059262672050319000000000687523704150  000000000000000000000000000000000000000000000000000000000000000000000000000000000000000000000000000000000000000000000                          0000000000                                                                  000174
102122445950001000000009034510032549PREGTIT25374552956637     0000000000005926733P000000000000000000000000090913031900059267330000000000005926733P100319000000001000023703451  000000000000000000000000000000000000000000000000000000000000000000000000000000000000000000000000000000000000000000000                          0000000000                                                                  000175
102122445950001000000009034510032549PREGTIT24546967431166     000000000000592775720000000000000000000000000909130319000592775700000000000059277572280219000000001150023704150  000000000000000000000000000000000000000000000000000000000000000000000000000000000000000000000000000000000000000000000                          0000000000                                                                  000176
102122445950001000000009034510032549PREGTIT24095370431024     000000000000592823120000000000000000000000000909130319000592823100000000000059282312200219000000000700023704150  000000000000000000000000000000000000000000000000000000000000000000000000000000000000000000000000000000000000000000000                          0000000000                                                                  000177
102122445950001000000009034510032549PREGTIT25377157298727     000000000000592903230000000000000000000000000909130319000592903200000000000059290323100319000000001000023704150  000000000000000000000000000000000000000000000000000000000000000000000000000000000000000000000000000000000000000000000                          0000000000                                                                  000178
102122445950001000000009034510032549PREGTIT24092531679111     000000000000592905600000000000000000000000000909130319000592905600000000000059290560210219000000001187523703451  000000000000000000000000000000000000000000000000000000000000000000000000000000000000000000000000000000000000000000000                          0000000000                                                                  000179
102122445950001000000009034510032549PREGTIT24544480560541     000000000000593011390000000000000000000000000909130319000593011300000000000059301139280219000000000700023703451  000000000000000000000000000000000000000000000000000000000000000000000000000000000000000000000000000000000000000000000                          0000000000                                                                  000180
102122445950001000000009034510032549PREGTIT25485639802589     000000000000593058190000000000000000000000000909130319000593058100000000000059305819100319000000001250023704150  000000000000000000000000000000000000000000000000000000000000000000000000000000000000000000000000000000000000000000000                          0000000000                                                                  000181
102122445950001000000009034510032549PREGTIT24884972593030     000000000000593126100000000000000000000000000909130319000593126100000000000059312610050319000000000820023704150  000000000000000000000000000000000000000000000000000000000000000000000000000000000000000000000000000000000000000000000                          0000000000                                                                  000182
102122445950001000000009034510032549PREGTIT24545892143145     000000000000593134120000000000000000000000000909130319000593134100000000000059313412280219000000001000023703451  000000000000000000000000000000000000000000000000000000000000000000000000000000000000000000000000000000000000000000000                          0000000000                                                                  000183
102122445950001000000009034510032549PREGTIT25125043684707     000000000000593147100000000000000000000000000909130319000593147100000000000059314710080319000000000850023704150  000000000000000000000000000000000000000000000000000000000000000000000000000000000000000000000000000000000000000000000                          0000000000                                                                  000184
102122445950001000000009034510032549PREGTIT25376119317437     000000000000593725670000000000000000000000000909130319000593725600000000000059372567100319000000001000023704150  000000000000000000000000000000000000000000000000000000000000000000000000000000000000000000000000000000000000000000000                          0000000000                                                                  000185
102122445950001000000009034510032549PREGTIT24885252960137     000000000000593786110000000000000000000000000909130319000593786100000000000059378611050319000000001000023704150  000000000000000000000000000000000000000000000000000000000000000000000000000000000000000000000000000000000000000000000                          0000000000                                                                  000186
102122445950001000000009034510032549PREGTIT24544463822286     0000000000005938915P000000000000000000000000090913031900059389150000000000005938915P280219000000000916723703451  000000000000000000000000000000000000000000000000000000000000000000000000000000000000000000000000000000000000000000000                          0000000000                                                                  000187
102122445950001000000009034510032549PREGTIT25986413449781     000000000000593898420000000000000000000000000909130319000593898400000000000059389842190319000000001000023704150  000000000000000000000000000000000000000000000000000000000000000000000000000000000000000000000000000000000000000000000                          0000000000                                                                  000188
102122445950001000000009034510032549PREGTIT24549643628170     000000000000593900340000000000000000000000000909130319000593900300000000000059390034280219000000000662523704150  000000000000000000000000000000000000000000000000000000000000000000000000000000000000000000000000000000000000000000000                          0000000000                                                                  000189
102122445950001000000009034510032549PREGTIT24212424262521     000000000000593939630000000000000000000000000909130319000593939600000000000059393963240219000000001000023703451  000000000000000000000000000000000000000000000000000000000000000000000000000000000000000000000000000000000000000000000                          0000000000                                                                  000190
102122445950001000000009034510032549PREGTIT24329527692844     000000000000593958850000000000000000000000000909130319000593958800000000000059395885250219000000001000023703451  000000000000000000000000000000000000000000000000000000000000000000000000000000000000000000000000000000000000000000000                          0000000000                                                                  000191
102122445950001000000009034510032549PREGTIT24094065937196     000000000000594063480000000000000000000000000909130319000594063400000000000059406348200219000000001758223704150  000000000000000000000000000000000000000000000000000000000000000000000000000000000000000000000000000000000000000000000                          0000000000                                                                  000192
102122445950001000000009034510032549PREGTIT27724654557990     000000000000594809630000000000000000000000000909130319000594809600000000000059480963100419000000000500023703451  000000000000000000000000000000000000000000000000000000000000000000000000000000000000000000000000000000000000000000000                          0000000000                                                                  000193
102122445950001000000009034510032549PREGTIT25983303097511     000000000000594901520000000000000000000000000909130319000594901500000000000059490152190319000000000750023704150  000000000000000000000000000000000000000000000000000000000000000000000000000000000000000000000000000000000000000000000                          0000000000                                                                  000194
102122445950001000000009034510032549PREGTIT23569597484477     000000000000594974160000000000000000000000000909130319000594974100000000000059497416150219000000000750023704150  000000000000000000000000000000000000000000000000000000000000000000000000000000000000000000000000000000000000000000000                          0000000000                                                                  000195
102122445950001000000009034510032549PREGTIT25549597484477     000000000000594974240000000000000000000000000909130319000594974200000000000059497424150319000000000750023704150  000000000000000000000000000000000000000000000000000000000000000000000000000000000000000000000000000000000000000000000                          0000000000                                                                  000196
102122445950001000000009034510032549PREGTIT25128926520583     0000000000005950532P000000000000000000000000090913031900059505320000000000005950532P090319000000000833323704150  000000000000000000000000000000000000000000000000000000000000000000000000000000000000000000000000000000000000000000000                          0000000000                                                                  000197
102122445950001000000009034510032549PREGTIT25217090028201     000000000000595148840000000000000000000000000909130319000595148800000000000059514884100319000000000489023704150  000000000000000000000000000000000000000000000000000000000000000000000000000000000000000000000000000000000000000000000                          0000000000                                                                  000198
102122445950001000000009034510032549PREGTIT25216765853683     000000000000595670230000000000000000000000000909130319000595670200000000000059567023100319000000002500023703451  000000000000000000000000000000000000000000000000000000000000000000000000000000000000000000000000000000000000000000000                          0000000000                                                                  000199
102122445950001000000009034510032549PREGTIT25548054038546     0000000000005957075P000000000000000000000000090913031900059570750000000000005957075P130319000000000511023704150  000000000000000000000000000000000000000000000000000000000000000000000000000000000000000000000000000000000000000000000                          0000000000                                                                  000200
102122445950001000000009034510032549PREGTIT25431705749932     000000000000595717050000000000000000000000000909130319000595717000000000000059571705120319000000001916723704150  000000000000000000000000000000000000000000000000000000000000000000000000000000000000000000000000000000000000000000000                          0000000000                                                                  000201
102122445950001000000009034510032549PREGTIT24888193673288     000000000000595717720000000000000000000000000909130319000595717700000000000059571772050319000000000950023703451  000000000000000000000000000000000000000000000000000000000000000000000000000000000000000000000000000000000000000000000                          0000000000                                                                  000202
102122445950001000000009034510032549PREGTIT24547333400924     000000000000595739370000000000000000000000000909130319000595739300000000000059573937010319000000001000023704150  000000000000000000000000000000000000000000000000000000000000000000000000000000000000000000000000000000000000000000000                          0000000000                                                                  000203
102122445950001000000009034510032549PREGTIT24651734345758     000000000000595763080000000000000000000000000909130319000595763000000000000059576308020319000000001083323703451  000000000000000000000000000000000000000000000000000000000000000000000000000000000000000000000000000000000000000000000                          0000000000                                                                  000204
102122445950001000000009034510032549PREGTIT25487084731422     000000000000595766420000000000000000000000000909130319000595766400000000000059576642060319000000001213523704150  000000000000000000000000000000000000000000000000000000000000000000000000000000000000000000000000000000000000000000000                          0000000000                                                                  000205
102122445950001000000009034510032549PREGTIT24092498593880     000000000000595811820000000000000000000000000909130319000595811800000000000059581182210219000000000916723703451  000000000000000000000000000000000000000000000000000000000000000000000000000000000000000000000000000000000000000000000                          0000000000                                                                  000206
102122445950001000000009034510032549PREGTIT24212852917557     000000000000595864270000000000000000000000000909130319000595864200000000000059586427240219000000001390023704150  000000000000000000000000000000000000000000000000000000000000000000000000000000000000000000000000000000000000000000000                          0000000000                                                                  000207
102122445950001000000009034510032549PREGTIT26292852917557     000000000000595864350000000000000000000000000909130319000595864300000000000059586435240319000000001390023704150  000000000000000000000000000000000000000000000000000000000000000000000000000000000000000000000000000000000000000000000                          0000000000                                                                  000208
102122445950001000000009034510032549PREGTIT24216123885748     000000000000595865240000000000000000000000000909130319000595865200000000000059586524240219000000000437023704150  000000000000000000000000000000000000000000000000000000000000000000000000000000000000000000000000000000000000000000000                          0000000000                                                                  000209
102122445950001000000009034510032549PREGTIT25128359940027     000000000000595902540000000000000000000000000909130319000595902500000000000059590254080319000000000583323704150  000000000000000000000000000000000000000000000000000000000000000000000000000000000000000000000000000000000000000000000                          0000000000                                                                  000210
102122445950001000000009034510032549PREGTIT24549548962927     000000000000595920520000000000000000000000000909130319000595920500000000000059592052280219000000001125023704150  000000000000000000000000000000000000000000000000000000000000000000000000000000000000000000000000000000000000000000000                          0000000000                                                                  000211
102122445950001000000009034510032549PREGTIT25548871858078     0000000000005959733P000000000000000000000000090913031900059597330000000000005959733P150319000000004953123704150  000000000000000000000000000000000000000000000000000000000000000000000000000000000000000000000000000000000000000000000                          0000000000                                                                  000212
102122445950001000000009034510032549PREGTIT25218838531287     000000000000596008450000000000000000000000000909130319000596008400000000000059600845100319000000001832023704150  000000000000000000000000000000000000000000000000000000000000000000000000000000000000000000000000000000000000000000000                          0000000000                                                                  000213
102122445950001000000009034510032549PREGTIT25549726547064     000000000000596629480000000000000000000000000909130319000596629400000000000059662948150319000000000846723704150  000000000000000000000000000000000000000000000000000000000000000000000000000000000000000000000000000000000000000000000                          0000000000                                                                  000214
102122445950001000000009034510032549PREGTIT25239709723898     000000000000596987130000000000000000000000000909130319000596987100000000000059698713100319000000001200023703451  000000000000000000000000000000000000000000000000000000000000000000000000000000000000000000000000000000000000000000000                          0000000000                                                                  000215
102122445950001000000009034510032549PREGTIT26317899850714     000000000000597689830000000000000000000000000909130319000597689800000000000059768983210219000000002187523703451  000000000000000000000000000000000000000000000000000000000000000000000000000000000000000000000000000000000000000000000                          0000000000                                                                  000216
102122445950001000000009034510032549PREGTIT26315740641980     000000000000597690330000000000000000000000000909130319000597690300000000000059769033220219000000002990023704150  000000000000000000000000000000000000000000000000000000000000000000000000000000000000000000000000000000000000000000000                          0000000000                                                                  000217
102122445950001000000009034510032549PREGTIT26597673173927     000000000000597749160000000000000000000000000909130319000597749100000000000059774916100319000000001398423704150  000000000000000000000000000000000000000000000000000000000000000000000000000000000000000000000000000000000000000000000                          0000000000                                                                  000218
102122445950001000000009034510032549PREGTIT26732921157938     000000000000597772490000000000000000000000000909130319000597772400000000000059777249150319000000000723823704150  000000000000000000000000000000000000000000000000000000000000000000000000000000000000000000000000000000000000000000000                          0000000000                                                                  000219
102122445950001000000009034510032549PREGTIT27651618118422     0000000000005979061P000000000000000000000000090913031900059790610000000000005979061P100319000000000347323703451  000000000000000000000000000000000000000000000000000000000000000000000000000000000000000000000000000000000000000000000                          0000000000                                                                  000220
102122445950001000000009034510032549PREGTIT27714444737455     000000000000598412140000000000000000000000000909130319000598412100000000000059841214100319000000000324523703451  000000000000000000000000000000000000000000000000000000000000000000000000000000000000000000000000000000000000000000000                          0000000000                                                                  000221
102122445950001000000009034510032549PREGTIT27826111475481     000000000000598426280000000000000000000000000909130319000598426200000000000059842628200219000000002286723704150  000000000000000000000000000000000000000000000000000000000000000000000000000000000000000000000000000000000000000000000                          0000000000                                                                  000222
102122445950001000000009034510032549PREGTIT27998381672484     000000000000598463480000000000000000000000000909130319000598463400000000000059846348120319000000004494723704150  000000000000000000000000000000000000000000000000000000000000000000000000000000000000000000000000000000000000000000000                          0000000000                                                                  000223
102122445950001000000009034510032549PREGTIT27999663992987     000000000000598464020000000000000000000000000909130319000598464000000000000059846402130319000000001675023704150  000000000000000000000000000000000000000000000000000000000000000000000000000000000000000000000000000000000000000000000                          0000000000                                                                  000224
102122445950001000000009034510032549PREGTIT28753790165132     000000000000598577650000000000000000000000000909130319000598577600000000000059857765090319000000002500023704150  000000000000000000000000000000000000000000000000000000000000000000000000000000000000000000000000000000000000000000000                          0000000000                                                                  000225
102122445950001000000009034510032549PREGTIT29688853076986     000000000000598662330000000000000000000000000909130319000598662300000000000059866233140319000000003417023703451  000000000000000000000000000000000000000000000000000000000000000000000000000000000000000000000000000000000000000000000                          0000000000                                                                  000226
102122445950001000000009034510032549PREGTIT29685701403721     000000000000598662410000000000000000000000000909130319000598662400000000000059866241180319000000004914923703451  000000000000000000000000000000000000000000000000000000000000000000000000000000000000000000000000000000000000000000000                          0000000000                                                                  000227
102122445950001000000009034510032549PREGTIT30076515748645     000000000000598753990000000000000000000000000909130319000598753900000000000059875399120319000000009800023704150  000000000000000000000000000000000000000000000000000000000000000000000000000000000000000000000000000000000000000000000                          0000000000                                                                  000228
102122445950001000000009034510032549PREGTIT23881612180512     000000000000589863080000000000000000000000000927130319          00000000000058986308000000000000000000023700000  000000000000000000000000000000000000000000000000000000000000000000000000000000000000000000000000000000000000000000000                          6000000000                                                                  000229
102122445950001000000009034510032549PREGTIT30297273416072     000000000000589902080000000000000000000000000927130319000589902000000000000058990208210219000000000990023700000  000000000000000000000000000000000000000000000000000000000000000000000000000000000000000000000000000000000000000000000                          6000000000                                                                  000230
102122445950001000000009034510032549PREGTIT30306181555576     000000000000590233170000000000000000000000000927130319000590233100000000000059023317100319000000001200023700000  000000000000000000000000000000000000000000000000000000000000000000000000000000000000000000000000000000000000000000000                          6000000000                                                                  000231
102122445950001000000009034510032549PREGTIT30292080297515     000000000000591793760000000000000000000000000927130319000591793700000000000059179376100319000000001529223700000  000000000000000000000000000000000000000000000000000000000000000000000000000000000000000000000000000000000000000000000                          6000000000                                                                  000232
102122445950001000000009034510032549PREGTIT24884475459700     000000000000591795890000000000000000000000000927130319          00000000000059179589000000000000000000023700000  000000000000000000000000000000000000000000000000000000000000000000000000000000000000000000000000000000000000000000000                          6000000000                                                                  000233
102122445950001000000009034510032549PREGTIT24436300498325     000000000000591960840000000000000000000000000927130319          00000000000059196084000000000000000000023700000  000000000000000000000000000000000000000000000000000000000000000000000000000000000000000000000000000000000000000000000                          6000000000                                                                  000234
102122445950001000000009034510032549PREGTIT26516300498325     000000000000591960920000000000000000000000000927130319          00000000000059196092000000000000000000023700000  000000000000000000000000000000000000000000000000000000000000000000000000000000000000000000000000000000000000000000000                          6000000000                                                                  000235
102122445950001000000009034510032549PREGTIT30254188011785     000000000000592626720000000000000000000000000927130319000592626700000000000059262672050319000000000687523700000  000000000000000000000000000000000000000000000000000000000000000000000000000000000000000000000000000000000000000000000                          6000000000                                                                  000236
102122445950001000000009034510032549PREGTIT30224552956637     0000000000005926733P000000000000000000000000092713031900059267330000000000005926733P100319000000001000023700000  000000000000000000000000000000000000000000000000000000000000000000000000000000000000000000000000000000000000000000000                          6000000000                                                                  000237
102122445950001000000009034510032549PREGTIT30306967431166     000000000000592775720000000000000000000000000927130319000592775700000000000059277572280219000000001150023700000  000000000000000000000000000000000000000000000000000000000000000000000000000000000000000000000000000000000000000000000                          6000000000                                                                  000238
102122445950001000000009034510032549PREGTIT30202961462202     000000000000592785950000000000000000000000000927130319000592785900000000000059278595100319000000008100023700000  000000000000000000000000000000000000000000000000000000000000000000000000000000000000000000000000000000000000000000000                          6000000000                                                                  000239
102122445950001000000009034510032549PREGTIT30305370431024     000000000000592823120000000000000000000000000927130319000592823100000000000059282312200219000000000700023700000  000000000000000000000000000000000000000000000000000000000000000000000000000000000000000000000000000000000000000000000                          6000000000                                                                  000240
102122445950001000000009034510032549PREGTIT30307157298727     000000000000592903230000000000000000000000000927130319000592903200000000000059290323100319000000001000023700000  000000000000000000000000000000000000000000000000000000000000000000000000000000000000000000000000000000000000000000000                          6000000000                                                                  000241
102122445950001000000009034510032549PREGTIT24092531679111     000000000000592905600000000000000000000000000927130319          00000000000059290560000000000000000000023700000  000000000000000000000000000000000000000000000000000000000000000000000000000000000000000000000000000000000000000000000                          6000000000                                                                  000242
102122445950001000000009034510032549PREGTIT24544480560541     000000000000593011390000000000000000000000000927130319          00000000000059301139000000000000000000023700000  000000000000000000000000000000000000000000000000000000000000000000000000000000000000000000000000000000000000000000000                          6000000000                                                                  000243
102122445950001000000009034510032549PREGTIT30305639802589     000000000000593058190000000000000000000000000927130319000593058100000000000059305819100319000000001250023700000  000000000000000000000000000000000000000000000000000000000000000000000000000000000000000000000000000000000000000000000                          6000000000                                                                  000244
102122445950001000000009034510032549PREGTIT30264972593030     000000000000593126100000000000000000000000000927130319000593126100000000000059312610050319000000000820023700000  000000000000000000000000000000000000000000000000000000000000000000000000000000000000000000000000000000000000000000000                          6000000000                                                                  000245
102122445950001000000009034510032549PREGTIT24545892143145     000000000000593134120000000000000000000000000927130319          00000000000059313412000000000000000000023700000  000000000000000000000000000000000000000000000000000000000000000000000000000000000000000000000000000000000000000000000                          6000000000                                                                  000246
102122445950001000000009034510032549PREGTIT30265043684707     000000000000593147100000000000000000000000000927130319000593147100000000000059314710080319000000000850023700000  000000000000000000000000000000000000000000000000000000000000000000000000000000000000000000000000000000000000000000000                          6000000000                                                                  000247
102122445950001000000009034510032549PREGTIT30205792293424     000000000000593723540000000000000000000000000927130319000593723500000000000059372354080319000000000770023700000  000000000000000000000000000000000000000000000000000000000000000000000000000000000000000000000000000000000000000000000                          6000000000                                                                  000248
