02RETORNO01COBRANCA       00000000000004852239ISPCN ADM DE COBRANCA DE TITUL237BRADESCO       2003190160000000607                                                                                                                                                                                                                                                                          210319         000001
102122445950001000000009034510032549PREGTIT30758724191395     000000000000591821800000000000000000000000000902200319000591821800000000000059182180190519000000001000023703451  000000000014300000000000000000000000000000000000000000000000000000000000000000000000000000000000000000000000000000000                          0000000000                                                                  000002
102122445950001000000009034510032549PREGTIT30759311596279     000000000000594812770000000000000000000000000902200319000594812700000000000059481277190519000000001958323704151  000000000014300000000000000000000000000000000000000000000000000000000000000000000000000000000000000000000000000000000                          0000000000                                                                  000003
102122445950001000000009034510032549PREGTIT30759368178264     000000000000595765020000000000000000000000000902200319000595765000000000000059576502190519000000000949723704157  000000000014300000000000000000000000000000000000000000000000000000000000000000000000000000000000000000000000000000000                          0000000000                                                                  000004
102122445950001000000009034510032549PREGTIT30756070242929     000000000000596812840000000000000000000000000902200319000596812800000000000059681284190519000000000600023704144  000000000014300000000000000000000000000000000000000000000000000000000000000000000000000000000000000000000000000000000                          0000000000                                                                  000005
102122445950001000000009034510032549PREGTIT30758560172422     0000000000005968139P000000000000000000000000090220031900059681390000000000005968139P190519000000000600023704144  000000000014300000000000000000000000000000000000000000000000000000000000000000000000000000000000000000000000000000000                          0000000000                                                                  000006
102122445950001000000009034510032549PREGTIT30751477506918     000000000000596967450000000000000000000000000902200319000596967400000000000059696745080519000000000719923704144  000000000014300000000000000000000000000000000000000000000000000000000000000000000000000000000000000000000000000000000                          0000000000                                                                  000007
102122445950001000000009034510032549PREGTIT30754442066753     000000000000597557170000000000000000000000000902200319000597557100000000000059755717190519000000000550023704144  000000000014300000000000000000000000000000000000000000000000000000000000000000000000000000000000000000000000000000000                          0000000000                                                                  000008
102122445950001000000009034510032549PREGTIT30754787624126     000000000000597626320000000000000000000000000902200319000597626300000000000059762632190519000000001400023703451  000000000014300000000000000000000000000000000000000000000000000000000000000000000000000000000000000000000000000000000                          7600000000                                                                  000009
102122445950001000000009034510032549PREGTIT30754110509864     000000000000597628530000000000000000000000000902200319000597628500000000000059762853190519000000004000023704152  000000000014300000000000000000000000000000000000000000000000000000000000000000000000000000000000000000000000000000000                          7600000000                                                                  000010
102122445950001000000009034510032549PREGTIT30759841237668     000000000000597635070000000000000000000000000902200319000597635000000000000059763507190519000000000357623704157  000000000014300000000000000000000000000000000000000000000000000000000000000000000000000000000000000000000000000000000                          0000000000                                                                  000011
102122445950001000000009034510032549PREGTIT30757764038712     000000000000597636200000000000000000000000000902200319000597636200000000000059763620190519000000001753523700140  000000000014300000000000000000000000000000000000000000000000000000000000000000000000000000000000000000000000000000000                          0000000000                                                                  000012
102122445950001000000009034510032549PREGTIT30755136614425     000000000000598531740000000000000000000000000902200319000598531700000000000059853174190519000000000996723703109  000000000014300000000000000000000000000000000000000000000000000000000000000000000000000000000000000000000000000000000                          0000000000                                                                  000013
102122445950001000000009034510032549PREGTIT30752465538808     000000000000598547660000000000000000000000000902200319000598547600000000000059854766190519000000003507223704426  000000000014300000000000000000000000000000000000000000000000000000000000000000000000000000000000000000000000000000000                          0000000000                                                                  000014
102122445950001000000009034510032549PREGTIT30755784366826     000000000000598549010000000000000000000000000902200319000598549000000000000059854901190519000000001878123704144  000000000014300000000000000000000000000000000000000000000000000000000000000000000000000000000000000000000000000000000                          0000000000                                                                  000015
102122445950001000000009034510032549PREGTIT30757914954589     000000000000598549360000000000000000000000000902200319000598549300000000000059854936190519000000000750023703451  000000000014300000000000000000000000000000000000000000000000000000000000000000000000000000000000000000000000000000000                          0000000000                                                                  000016
102122445950001000000009034510032549PREGTIT30756122313481     000000000000598636840000000000000000000000000902200319000598636800000000000059863684190519000000007203823704157  000000000014300000000000000000000000000000000000000000000000000000000000000000000000000000000000000000000000000000000                          0000000000                                                                  000017
102122445950001000000009034510032549PREGTIT30757210143030     000000000000599367380000000000000000000000000902200319000599367300000000000059936738190519000000002498623704152  000000000014300000000000000000000000000000000000000000000000000000000000000000000000000000000000000000000000000000000                          0000000000                                                                  000018
102122445950001000000009034510032549PREGTIT30757470103200     000000000000599368510000000000000000000000000902200319000599368500000000000059936851190519000000002245023704152  000000000014300000000000000000000000000000000000000000000000000000000000000000000000000000000000000000000000000000000                          0000000000                                                                  000019
102122445950001000000009034510032549PREGTIT30758000229870     000000000000599378660000000000000000000000000902200319000599378600000000000059937866190519000000001338223704144  000000000014300000000000000000000000000000000000000000000000000000000000000000000000000000000000000000000000000000000                          7600000000                                                                  000020
102122445950001000000009034510032549PREGTIT30756508886838     000000000000599381020000000000000000000000000902200319000599381000000000000059938102190519000000010900023704151  000000000014300000000000000000000000000000000000000000000000000000000000000000000000000000000000000000000000000000000                          7600000000                                                                  000021
102122445950001000000009034510032549PREGTIT30751716776163     000000000000599383740000000000000000000000000902200319000599383700000000000059938374190519000000001312423704428  000000000014300000000000000000000000000000000000000000000000000000000000000000000000000000000000000000000000000000000                          0000000000                                                                  000022
102122445950001000000009034510032549PREGTIT30758006771728     000000000000599392490000000000000000000000000902200319000599392400000000000059939249070419000000004250023704144  000000000014300000000000000000000000000000000000000000000000000000000000000000000000000000000000000000000000000000000                          0000000000                                                                  000023
102122445950001000000009034510032549PREGTIT30753383348236     000000000000599392570000000000000000000000000902200319000599392500000000000059939257080419000000002500023704144  000000000014300000000000000000000000000000000000000000000000000000000000000000000000000000000000000000000000000000000                          0000000000                                                                  000024
102122445950001000000009034510032549PREGTIT30754935714366     000000000000599392650000000000000000000000000902200319000599392600000000000059939265080419000000004500023704144  000000000014300000000000000000000000000000000000000000000000000000000000000000000000000000000000000000000000000000000                          7600000000                                                                  000025
102122445950001000000009034510032549PREGTIT30754935714366     000000000000599392730000000000000000000000000902200319000599392700000000000059939273150419000000004500023704144  000000000014300000000000000000000000000000000000000000000000000000000000000000000000000000000000000000000000000000000                          7600000000                                                                  000026
102122445950001000000009034510032549PREGTIT30754388954684     000000000000599392810000000000000000000000000902200319000599392800000000000059939281130419000000002125023704144  000000000014300000000000000000000000000000000000000000000000000000000000000000000000000000000000000000000000000000000                          0000000000                                                                  000027
102122445950001000000009034510032549PREGTIT30754176255745     0000000000005993929P000000000000000000000000090220031900059939290000000000005993929P190419000000002250023704144  000000000014300000000000000000000000000000000000000000000000000000000000000000000000000000000000000000000000000000000                          0000000000                                                                  000028
102122445950001000000009034510032549PREGTIT30757998291216     000000000000599393030000000000000000000000000902200319000599393000000000000059939303220419000000002475023704400  000000000014300000000000000000000000000000000000000000000000000000000000000000000000000000000000000000000000000000000                          0000000000                                                                  000029
102122445950001000000009034510032549PREGTIT30759627254414     0000000000005993932P000000000000000000000000090220031900059939320000000000005993932P200419000000002500023704151  000000000014300000000000000000000000000000000000000000000000000000000000000000000000000000000000000000000000000000000                          7600000000                                                                  000030
102122445950001000000009034510032549PREGTIT30752072711297     000000000000599393460000000000000000000000000902200319000599393400000000000059939346200419000000024270023704151  000000000014300000000000000000000000000000000000000000000000000000000000000000000000000000000000000000000000000000000                          0000000000                                                                  000031
102122445950001000000009034510032549PREGTIT30757509158137     000000000000599393540000000000000000000000000902200319000599393500000000000059939354220419000000002725023704400  000000000014300000000000000000000000000000000000000000000000000000000000000000000000000000000000000000000000000000000                          0000000000                                                                  000032
102122445950001000000009034510032549PREGTIT30751270254829     000000000000599393700000000000000000000000000902200319000599393700000000000059939370200419000000011759223704151  000000000014300000000000000000000000000000000000000000000000000000000000000000000000000000000000000000000000000000000                          0000000000                                                                  000033
102122445950001000000009034510032549PREGTIT30762643921486     000000000000599393970000000000000000000000000902200319000599393900000000000059939397200419000000023722223704151  000000000014300000000000000000000000000000000000000000000000000000000000000000000000000000000000000000000000000000000                          0000000000                                                                  000034
102122445950001000000009034510032549PREGTIT30768910887882     000000000000599394190000000000000000000000000902200319000599394100000000000059939419200419000000015600023704151  000000000014300000000000000000000000000000000000000000000000000000000000000000000000000000000000000000000000000000000                          0000000000                                                                  000035
102122445950001000000009034510032549PREGTIT30761719047613     000000000000599394270000000000000000000000000902200319000599394200000000000059939427300419000000001950023703109  000000000014300000000000000000000000000000000000000000000000000000000000000000000000000000000000000000000000000000000                          0000000000                                                                  000036
102122445950001000000009034510032549PREGTIT30762619999477     000000000000599394780000000000000000000000000902200319000599394700000000000059939478200419000000048493423704151  000000000014300000000000000000000000000000000000000000000000000000000000000000000000000000000000000000000000000000000                          0000000000                                                                  000037
102122445950001000000009034510032549PREGTIT30767155919157     000000000000599394940000000000000000000000000902200319000599394900000000000059939494200419000000015600023704151  000000000014300000000000000000000000000000000000000000000000000000000000000000000000000000000000000000000000000000000                          0000000000                                                                  000038
102122445950001000000009034510032549PREGTIT30765235848137     000000000000599395080000000000000000000000000902200319000599395000000000000059939508300419000000002000023703109  000000000014300000000000000000000000000000000000000000000000000000000000000000000000000000000000000000000000000000000                          0000000000                                                                  000039
102122445950001000000009034510032549PREGTIT30762996867543     000000000000599395750000000000000000000000000902200319000599395700000000000059939575200419000000021562523704151  000000000014300000000000000000000000000000000000000000000000000000000000000000000000000000000000000000000000000000000                          0000000000                                                                  000040
102122445950001000000009034510032549PREGTIT30772174480416     000000000000599395910000000000000000000000000902200319000599395900000000000059939591200419000000009999923704151  000000000014300000000000000000000000000000000000000000000000000000000000000000000000000000000000000000000000000000000                          0000000000                                                                  000041
102122445950001000000009034510032549PREGTIT30773838462336     000000000000599396480000000000000000000000000902200319000599396400000000000059939648200419000000025800023704152  000000000014300000000000000000000000000000000000000000000000000000000000000000000000000000000000000000000000000000000                          0000000000                                                                  000042
102122445950001000000009034510032549PREGTIT30771246924305     000000000000599396640000000000000000000000000902200319000599396600000000000059939664200419000000014755523704151  000000000014300000000000000000000000000000000000000000000000000000000000000000000000000000000000000000000000000000000                          0000000000                                                                  000043
102122445950001000000009034510032549PREGTIT30777484766575     000000000000599396800000000000000000000000000902200319000599396800000000000059939680200419000000003600023704151  000000000014300000000000000000000000000000000000000000000000000000000000000000000000000000000000000000000000000000000                          0000000000                                                                  000044
102122445950001000000009034510032549PREGTIT30777635742301     000000000000599397020000000000000000000000000902200319000599397000000000000059939702200419000000016000023704151  000000000014300000000000000000000000000000000000000000000000000000000000000000000000000000000000000000000000000000000                          0000000000                                                                  000045
102122445950001000000009034510032549PREGTIT30773942006420     000000000000599397100000000000000000000000000902200319000599397100000000000059939710170419000000001449223703451  000000000014300000000000000000000000000000000000000000000000000000000000000000000000000000000000000000000000000000000                          0000000000                                                                  000046
102122445950001000000009034510032549PREGTIT30782872743755     000000000000599397880000000000000000000000000902200319000599397800000000000059939788200419000000020000023704152  000000000014300000000000000000000000000000000000000000000000000000000000000000000000000000000000000000000000000000000                          0000000000                                                                  000047
102122445950001000000009034510032549PREGTIT30783492304612     000000000000599398500000000000000000000000000902200319000599398500000000000059939850200419000000001800023704422  000000000014300000000000000000000000000000000000000000000000000000000000000000000000000000000000000000000000000000000                          0000000000                                                                  000048
102122445950001000000009034510032549PREGTIT30787436586374     000000000000599398690000000000000000000000000902200319000599398600000000000059939869200419000000001900023704422  000000000014300000000000000000000000000000000000000000000000000000000000000000000000000000000000000000000000000000000                          0000000000                                                                  000049
102122445950001000000009034510032549PREGTIT30785702000877     000000000000599398770000000000000000000000000902200319000599398700000000000059939877200419000000004600023704422  000000000014300000000000000000000000000000000000000000000000000000000000000000000000000000000000000000000000000000000                          0000000000                                                                  000050
102122445950001000000009034510032549PREGTIT30786306191844     000000000000599398850000000000000000000000000902200319000599398800000000000059939885200419000000000750023704422  000000000014300000000000000000000000000000000000000000000000000000000000000000000000000000000000000000000000000000000                          0000000000                                                                  000051
102122445950001000000009034510032549PREGTIT30794351262069     000000000000599399310000000000000000000000000902200319000599399300000000000059939931200419000000008000023704151  000000000014300000000000000000000000000000000000000000000000000000000000000000000000000000000000000000000000000000000                          0000000000                                                                  000052
102122445950001000000009034510032549PREGTIT30796629124871     0000000000005993994P000000000000000000000000090220031900059939940000000000005993994P010419000000001900023704144  000000000014300000000000000000000000000000000000000000000000000000000000000000000000000000000000000000000000000000000                          7600000000                                                                  000053
102122445950001000000009034510032549PREGTIT30795339693286     000000000000599399580000000000000000000000000902200319000599399500000000000059939958030419000000001513023704144  000000000014300000000000000000000000000000000000000000000000000000000000000000000000000000000000000000000000000000000                          0000000000                                                                  000054
102122445950001000000009034510032549PREGTIT30803182140361     000000000000599400500000000000000000000000000902200319000599400500000000000059940050200419000000005000023704151  000000000014300000000000000000000000000000000000000000000000000000000000000000000000000000000000000000000000000000000                          7600000000                                                                  000055
102122445950001000000009034510032549PREGTIT30804379489326     000000000000599400690000000000000000000000000902200319000599400600000000000059940069200419000000000750023704422  000000000014300000000000000000000000000000000000000000000000000000000000000000000000000000000000000000000000000000000                          0000000000                                                                  000056
102122445950001000000009034510032549PREGTIT30808586348113     000000000000599401150000000000000000000000000902200319000599401100000000000059940115200419000000014400023704151  000000000014300000000000000000000000000000000000000000000000000000000000000000000000000000000000000000000000000000000                          0000000000                                                                  000057
102122445950001000000009034510032549PREGTIT30808856567628     000000000000599401310000000000000000000000000902200319000599401300000000000059940131200419000000004000023704144  000000000014300000000000000000000000000000000000000000000000000000000000000000000000000000000000000000000000000000000                          7600000000                                                                  000058
102122445950001000000009034510032549PREGTIT30812778852677     000000000000599401580000000000000000000000000902200319000599401500000000000059940158200419000000021600023704152  000000000014300000000000000000000000000000000000000000000000000000000000000000000000000000000000000000000000000000000                          0000000000                                                                  000059
102122445950001000000009034510032549PREGTIT30815048785333     000000000000599401740000000000000000000000000902200319000599401700000000000059940174200419000000031530023704151  000000000014300000000000000000000000000000000000000000000000000000000000000000000000000000000000000000000000000000000                          0000000000                                                                  000060
102122445950001000000009034510032549PREGTIT30818843749198     000000000000599401820000000000000000000000000902200319000599401800000000000059940182020419000000016220023704157  000000000014300000000000000000000000000000000000000000000000000000000000000000000000000000000000000000000000000000000                          0000000000                                                                  000061
102122445950001000000009034510032549PREGTIT30815420488619     000000000000599401900000000000000000000000000902200319000599401900000000000059940190200419000000003000023704157  000000000014300000000000000000000000000000000000000000000000000000000000000000000000000000000000000000000000000000000                          0000000000                                                                  000062
102122445950001000000009034510032549PREGTIT30813699177073     000000000000599402470000000000000000000000000902200319000599402400000000000059940247240419000000001125023703451  000000000014300000000000000000000000000000000000000000000000000000000000000000000000000000000000000000000000000000000                          0000000000                                                                  000063
102122445950001000000009034510032549PREGTIT30811499798753     000000000000599402980000000000000000000000000902200319000599402900000000000059940298200419000000016511223704151  000000000014300000000000000000000000000000000000000000000000000000000000000000000000000000000000000000000000000000000                          0000000000                                                                  000064
102122445950001000000009034510032549PREGTIT30816046100502     000000000000599403010000000000000000000000000902200319000599403000000000000059940301240419000000001125023700408  000000000014300000000000000000000000000000000000000000000000000000000000000000000000000000000000000000000000000000000                          0000000000                                                                  000065
102122445950001000000009034510032549PREGTIT30815956581673     000000000000599403440000000000000000000000000902200319000599403400000000000059940344240419000000001500023700408  000000000014300000000000000000000000000000000000000000000000000000000000000000000000000000000000000000000000000000000                          0000000000                                                                  000066
102122445950001000000009034510032549PREGTIT30813105084912     000000000000599403870000000000000000000000000902200319000599403800000000000059940387240419000000001500023700408  000000000014300000000000000000000000000000000000000000000000000000000000000000000000000000000000000000000000000000000                          0000000000                                                                  000067
102122445950001000000009034510032549PREGTIT30813482576658     000000000000599404250000000000000000000000000902200319000599404200000000000059940425240419000000001000023703109  000000000014300000000000000000000000000000000000000000000000000000000000000000000000000000000000000000000000000000000                          0000000000                                                                  000068
102122445950001000000009034510032549PREGTIT30814319115202     000000000000599404680000000000000000000000000902200319000599404600000000000059940468200419000000001500023703109  000000000014300000000000000000000000000000000000000000000000000000000000000000000000000000000000000000000000000000000                          0000000000                                                                  000069
102122445950001000000009034510032549PREGTIT30818979190178     000000000000599405060000000000000000000000000902200319000599405000000000000059940506200419000000001500023703109  000000000014300000000000000000000000000000000000000000000000000000000000000000000000000000000000000000000000000000000                          0000000000                                                                  000070
102122445950001000000009034510032549PREGTIT30815398608239     000000000000599405490000000000000000000000000902200319000599405400000000000059940549240419000000001750023703109  000000000014300000000000000000000000000000000000000000000000000000000000000000000000000000000000000000000000000000000                          0000000000                                                                  000071
102122445950001000000009034510032549PREGTIT30818810915057     000000000000599406620000000000000000000000000902200319000599406600000000000059940662240419000000001500023703109  000000000014300000000000000000000000000000000000000000000000000000000000000000000000000000000000000000000000000000000                          0000000000                                                                  000072
102122445950001000000009034510032549PREGTIT30816810814278     000000000000599406970000000000000000000000000902200319000599406900000000000059940697200419000000004058923704152  000000000014300000000000000000000000000000000000000000000000000000000000000000000000000000000000000000000000000000000                          0000000000                                                                  000073
102122445950001000000009034510032549PREGTIT30813756859931     000000000000599407270000000000000000000000000902200319000599407200000000000059940727300419000000001450023703109  000000000014300000000000000000000000000000000000000000000000000000000000000000000000000000000000000000000000000000000                          0000000000                                                                  000074
102122445950001000000009034510032549PREGTIT30822338538678     000000000000599407430000000000000000000000000902200319000599407400000000000059940743010519000000001450023703109  000000000014300000000000000000000000000000000000000000000000000000000000000000000000000000000000000000000000000000000                          0000000000                                                                  000075
102122445950001000000009034510032549PREGTIT30823452100848     000000000000599408320000000000000000000000000902200319000599408300000000000059940832200419000000003068423704151  000000000014300000000000000000000000000000000000000000000000000000000000000000000000000000000000000000000000000000000                          0000000000                                                                  000076
102122445950001000000009034510032549PREGTIT30826644032945     000000000000599408400000000000000000000000000902200319000599408400000000000059940840240419000000001666723703109  000000000014300000000000000000000000000000000000000000000000000000000000000000000000000000000000000000000000000000000                          0000000000                                                                  000077
102122445950001000000009034510032549PREGTIT30822683353788     000000000000599408750000000000000000000000000902200319000599408700000000000059940875240419000000001666723703109  000000000014300000000000000000000000000000000000000000000000000000000000000000000000000000000000000000000000000000000                          0000000000                                                                  000078
102122445950001000000009034510032549PREGTIT30828710315517     000000000000599409050000000000000000000000000902200319000599409000000000000059940905240419000000001000023703109  000000000014300000000000000000000000000000000000000000000000000000000000000000000000000000000000000000000000000000000                          0000000000                                                                  000079
102122445950001000000009034510032549PREGTIT30825850359569     0000000000005994093P000000000000000000000000090220031900059940930000000000005994093P300419000000001750023703109  000000000014300000000000000000000000000000000000000000000000000000000000000000000000000000000000000000000000000000000                          0000000000                                                                  000080
102122445950001000000009034510032549PREGTIT30826363173797     000000000000599409720000000000000000000000000902200319000599409700000000000059940972270419000000004089023704144  000000000014300000000000000000000000000000000000000000000000000000000000000000000000000000000000000000000000000000000                          7600000000                                                                  000081
102122445950001000000009034510032549PREGTIT30827019250363     000000000000599409800000000000000000000000000902200319000599409800000000000059940980170419000000001400023703109  000000000014300000000000000000000000000000000000000000000000000000000000000000000000000000000000000000000000000000000                          0000000000                                                                  000082
102122445950001000000009034510032549PREGTIT30827019250363     000000000000599409990000000000000000000000000902200319000599409900000000000059940999170519000000001400023703109  000000000014300000000000000000000000000000000000000000000000000000000000000000000000000000000000000000000000000000000                          0000000000                                                                  000083
102122445950001000000009034510032549PREGTIT30825585014348     000000000000599410300000000000000000000000000902200319000599410300000000000059941030170419000000001800023703109  000000000014300000000000000000000000000000000000000000000000000000000000000000000000000000000000000000000000000000000                          0000000000                                                                  000084
102122445950001000000009034510032549PREGTIT30827323859276     000000000000599410490000000000000000000000000902200319000599410400000000000059941049170419000000000950023703109  000000000014300000000000000000000000000000000000000000000000000000000000000000000000000000000000000000000000000000000                          0000000000                                                                  000085
102122445950001000000009034510032549PREGTIT30827323859276     000000000000599410570000000000000000000000000902200319000599410500000000000059941057170519000000000950023703109  000000000014300000000000000000000000000000000000000000000000000000000000000000000000000000000000000000000000000000000                          0000000000                                                                  000086
102122445950001000000009034510032549PREGTIT30826795882611     000000000000599410810000000000000000000000000902200319000599410800000000000059941081100519000000002650023703109  000000000014300000000000000000000000000000000000000000000000000000000000000000000000000000000000000000000000000000000                          0000000000                                                                  000087
102122445950001000000009034510032549PREGTIT30822286629544     0000000000005994112P000000000000000000000000090220031900059941120000000000005994112P240419000000001950023703109  000000000014300000000000000000000000000000000000000000000000000000000000000000000000000000000000000000000000000000000                          0000000000                                                                  000088
102122445950001000000009034510032549PREGTIT30823192988538     000000000000599411620000000000000000000000000902200319000599411600000000000059941162300419000000002250023703109  000000000014300000000000000000000000000000000000000000000000000000000000000000000000000000000000000000000000000000000                          0000000000                                                                  000089
102122445950001000000009034510032549PREGTIT30824927172536     000000000000599412000000000000000000000000000902200319000599412000000000000059941200300419000000001500023703109  000000000014300000000000000000000000000000000000000000000000000000000000000000000000000000000000000000000000000000000                          0000000000                                                                  000090
102122445950001000000009034510032549PREGTIT30828494238692     000000000000599412430000000000000000000000000902200319000599412400000000000059941243250419000000001333323703109  000000000014300000000000000000000000000000000000000000000000000000000000000000000000000000000000000000000000000000000                          0000000000                                                                  000091
102122445950001000000009034510032549PREGTIT30828495240112     000000000000599412780000000000000000000000000902200319000599412700000000000059941278050519000000001250023703109  000000000014300000000000000000000000000000000000000000000000000000000000000000000000000000000000000000000000000000000                          0000000000                                                                  000092
102122445950001000000009034510032549PREGTIT30828541925375     000000000000599413160000000000000000000000000902200319000599413100000000000059941316100419000000002150023703109  000000000014300000000000000000000000000000000000000000000000000000000000000000000000000000000000000000000000000000000                          0000000000                                                                  000093
102122445950001000000009034510032549PREGTIT30828541925375     000000000000599413240000000000000000000000000902200319000599413200000000000059941324100519000000002150023703109  000000000014300000000000000000000000000000000000000000000000000000000000000000000000000000000000000000000000000000000                          0000000000                                                                  000094
102122445950001000000009034510032549PREGTIT30821204989357     000000000000599413670000000000000000000000000902200319000599413600000000000059941367200419000000015561023704151  000000000014300000000000000000000000000000000000000000000000000000000000000000000000000000000000000000000000000000000                          0000000000                                                                  000095
102122445950001000000009034510032549PREGTIT30836987759980     000000000000599413750000000000000000000000000902200319000599413700000000000059941375100419000000002150023703109  000000000014300000000000000000000000000000000000000000000000000000000000000000000000000000000000000000000000000000000                          0000000000                                                                  000096
102122445950001000000009034510032549PREGTIT30836987759980     000000000000599413830000000000000000000000000902200319000599413800000000000059941383100519000000002150023703109  000000000014300000000000000000000000000000000000000000000000000000000000000000000000000000000000000000000000000000000                          0000000000                                                                  000097
102122445950001000000009034510032549PREGTIT30835527733849     000000000000599414210000000000000000000000000902200319000599414200000000000059941421200419000000004666623704151  000000000014300000000000000000000000000000000000000000000000000000000000000000000000000000000000000000000000000000000                          0000000000                                                                  000098
102122445950001000000009034510032549PREGTIT30833218514347     0000000000005994143P000000000000000000000000090220031900059941430000000000005994143P100419000000001650023703109  000000000014300000000000000000000000000000000000000000000000000000000000000000000000000000000000000000000000000000000                          0000000000                                                                  000099
102122445950001000000009034510032549PREGTIT30833218514347     000000000000599414480000000000000000000000000902200319000599414400000000000059941448100519000000001650023703109  000000000014300000000000000000000000000000000000000000000000000000000000000000000000000000000000000000000000000000000                          0000000000                                                                  000100
102122445950001000000009034510032549PREGTIT30832075738732     000000000000599414990000000000000000000000000902200319000599414900000000000059941499100519000000002400023704152  000000000014300000000000000000000000000000000000000000000000000000000000000000000000000000000000000000000000000000000                          0000000000                                                                  000101
102122445950001000000009034510032549PREGTIT30833665606557     000000000000599415370000000000000000000000000902200319000599415300000000000059941537200419000000012000023704151  000000000014300000000000000000000000000000000000000000000000000000000000000000000000000000000000000000000000000000000                          7600000000                                                                  000102
102122445950001000000009034510032549PREGTIT30831218729201     000000000000599415880000000000000000000000000902200319000599415800000000000059941588200419000000020000023704151  000000000014300000000000000000000000000000000000000000000000000000000000000000000000000000000000000000000000000000000                          0000000000                                                                  000103
102122445950001000000009034510032549PREGTIT30839018855268     000000000000599415960000000000000000000000000902200319000599415900000000000059941596270319000000001600023704144  000000000014300000000000000000000000000000000000000000000000000000000000000000000000000000000000000000000000000000000                          0000000000                                                                  000104
102122445950001000000009034510032549PREGTIT30835984848981     000000000000599416180000000000000000000000000902200319000599416100000000000059941618200419000000015000023704151  000000000014300000000000000000000000000000000000000000000000000000000000000000000000000000000000000000000000000000000                          7600000000                                                                  000105
102122445950001000000009034510032549PREGTIT30831796789305     000000000000599416260000000000000000000000000902200319000599416200000000000059941626190419000000000550023704144  000000000014300000000000000000000000000000000000000000000000000000000000000000000000000000000000000000000000000000000                          0000000000                                                                  000106
102122445950001000000009034510032549PREGTIT30831796789305     000000000000599416340000000000000000000000000902200319000599416300000000000059941634190519000000000550023704144  000000000014300000000000000000000000000000000000000000000000000000000000000000000000000000000000000000000000000000000                          0000000000                                                                  000107
102122445950001000000009034510032549PREGTIT30839266034857     000000000000599416690000000000000000000000000902200319000599416600000000000059941669050419000000001900023704144  000000000014300000000000000000000000000000000000000000000000000000000000000000000000000000000000000000000000000000000                          0000000000                                                                  000108
102122445950001000000009034510032549PREGTIT30839266034857     000000000000599416770000000000000000000000000902200319000599416700000000000059941677050519000000001900023704144  000000000014300000000000000000000000000000000000000000000000000000000000000000000000000000000000000000000000000000000                          0000000000                                                                  000109
102122445950001000000009034510032549PREGTIT30833486472417     000000000000599416930000000000000000000000000902200319000599416900000000000059941693100419000000001970023704144  000000000014300000000000000000000000000000000000000000000000000000000000000000000000000000000000000000000000000000000                          0000000000                                                                  000110
102122445950001000000009034510032549PREGTIT30833486472417     000000000000599417070000000000000000000000000902200319000599417000000000000059941707100519000000001970023704144  000000000014300000000000000000000000000000000000000000000000000000000000000000000000000000000000000000000000000000000                          0000000000                                                                  000111
102122445950001000000009034510032549PREGTIT30846761487801     0000000000005994174P000000000000000000000000090220031900059941740000000000005994174P030419000000002384523704144  000000000014300000000000000000000000000000000000000000000000000000000000000000000000000000000000000000000000000000000                          0000000000                                                                  000112
102122445950001000000009034510032549PREGTIT30848034560100     000000000000599417580000000000000000000000000902200319000599417500000000000059941758050419000000000800023704144  000000000014300000000000000000000000000000000000000000000000000000000000000000000000000000000000000000000000000000000                          0000000000                                                                  000113
102122445950001000000009034510032549PREGTIT30848034560100     000000000000599417660000000000000000000000000902200319000599417600000000000059941766050519000000000800023704144  000000000014300000000000000000000000000000000000000000000000000000000000000000000000000000000000000000000000000000000                          0000000000                                                                  000114
102122445950001000000009034510032549PREGTIT30841815591032     000000000000599417820000000000000000000000000902200319000599417800000000000059941782020419000000011980023704157  000000000014300000000000000000000000000000000000000000000000000000000000000000000000000000000000000000000000000000000                          0000000000                                                                  000115
102122445950001000000009034510032549PREGTIT30848586821812     000000000000599417900000000000000000000000000902200319000599417900000000000059941790200319000000000100023704428  000000000014300000000000000000000000000000000000000000000000000000000000000000000000000000000000000000000000000000000                          0000000000                                                                  000116
102122445950001000000009034510032549PREGTIT30846738658191     000000000000599419010000000000000000000000000902200319000599419000000000000059941901040419000000002220023704144  000000000014300000000000000000000000000000000000000000000000000000000000000000000000000000000000000000000000000000000                          0000000000                                                                  000117
102122445950001000000009034510032549PREGTIT30846335918092     0000000000005994191P000000000000000000000000090220031900059941910000000000005994191P200419000000000459223704157  000000000014300000000000000000000000000000000000000000000000000000000000000000000000000000000000000000000000000000000                          0000000000                                                                  000118
102122445950001000000009034510032549PREGTIT30847654850197     000000000000599419600000000000000000000000000902200319000599419600000000000059941960200419000000002000023704400  000000000014300000000000000000000000000000000000000000000000000000000000000000000000000000000000000000000000000000000                          7600000000                                                                  000119
102122445950001000000009034510032549PREGTIT30848295524927     000000000000599420880000000000000000000000000902200319000599420800000000000059942088220319000000013597823703451  000000000014300000000000000000000000000000000000000000000000000000000000000000000000000000000000000000000000000000000                          0000000000                                                                  000120
102122445950001000000009034510032549PREGTIT30847208957568     000000000000599421180000000000000000000000000902200319000599421100000000000059942118030419000000002570023704144  000000000014300000000000000000000000000000000000000000000000000000000000000000000000000000000000000000000000000000000                          0000000000                                                                  000121
102122445950001000000009034510032549PREGTIT30847208957568     000000000000599421260000000000000000000000000902200319000599421200000000000059942126180419000000002570023704144  000000000014300000000000000000000000000000000000000000000000000000000000000000000000000000000000000000000000000000000                          0000000000                                                                  000122
102122445950001000000009034510032549PREGTIT30844243765854     000000000000599421420000000000000000000000000902200319000599421400000000000059942142200419000000013999823704151  000000000014300000000000000000000000000000000000000000000000000000000000000000000000000000000000000000000000000000000                          0000000000                                                                  000123
102122445950001000000009034510032549PREGTIT30844297974626     000000000000599421690000000000000000000000000902200319000599421600000000000059942169200419000000035000423704151  000000000014300000000000000000000000000000000000000000000000000000000000000000000000000000000000000000000000000000000                          7600000000                                                                  000124
102122445950001000000009034510032549PREGTIT30842857143286     000000000000599421770000000000000000000000000902200319000599421700000000000059942177050419000000003200023700140  000000000014300000000000000000000000000000000000000000000000000000000000000000000000000000000000000000000000000000000                          0000000000                                                                  000125
102122445950001000000009034510032549PREGTIT30851230720124     000000000000599422310000000000000000000000000902200319000599422300000000000059942231010419000000004850023704144  000000000014300000000000000000000000000000000000000000000000000000000000000000000000000000000000000000000000000000000                          0000000000                                                                  000126
102122445950001000000009034510032549PREGTIT30851230720124     0000000000005994224P000000000000000000000000090220031900059942240000000000005994224P010519000000004850023704144  000000000014300000000000000000000000000000000000000000000000000000000000000000000000000000000000000000000000000000000                          0000000000                                                                  000127
102122445950001000000009034510032549PREGTIT26082253188109     000000000000583220940000000000000000000000000906200319000583220900000000000058322094200319000000002030010403385  000000000000000000000000000000000000000000000000000000000000000000000000000000000000002030000000000000000000000000000   210319             00000000000000                                                                  000128
102122445950001000000009034510032549PREGTIT26084164870050     000000000000586802840000000000000000000000000906200319000586802800000000000058680284200319000000004300010402055  000000000000000000000000000000000000000000000000000000000000000000000000000000000000004300000000000000000000000000000   210319             00000000000000                                                                  000129
102122445950001000000009034510032549PREGTIT26085771800643     000000000000588667600000000000000000000000000906200319000588667600000000000058866760200319000000001550003304030  000000000000000000000000000000000000000000000000000000000000000000000000000000000000001550000000000000000000000000000   210319             00000000000000                                                                  000130
102122445950001000000009034510032549PREGTIT26082717252191     000000000000588674220000000000000000000000000906200319000588674200000000000058867422200319000000001200065500001  000000000000000000000000000000000000000000000000000000000000000000000000000000000000001200000000000000000000000000000   210319             00000000000000                                                                  000131
102122445950001000000009034510032549PREGTIT26087500769475     000000000000588811580000000000000000000000000906200319000588811500000000000058881158200319000000001150003304030  000000000000000000000000000000000000000000000000000000000000000000000000000000000000001150000000000000000000000000000   210319             00000000000000                                                                  000132
102122445950001000000009034510032549PREGTIT26088761585470     000000000000589031780000000000000000000000000906200319000589031700000000000058903178200319000000003300010400559  000000000000000000000000000000000000000000000000000000000000000000000000000000000000003300000000000000000000000000000   210319             00000000000000                                                                  000133
102122445950001000000009034510032549PREGTIT26088984812270     000000000000589616070000000000000000000000000906200319000589616000000000000058961607200319000000001600010400559  000000000000000000000000000000000000000000000000000000000000000000000000000000000000001600000000000000000000000000000   210319             00000000000000                                                                  000134
102122445950001000000009034510032549PREGTIT26089292705332     000000000000590874200000000000000000000000000906200319000590874200000000000059087420200319000000001350010400047  000000000000000000000000000000000000000000000000000000000000000000000000000000000000001350000000000000000000000000000   210319             00000000000000                                                                  000135
102122445950001000000009034510032549PREGTIT26089037598280     000000000000591045030000000000000000000000000906200319000591045000000000000059104503200319000000002000010404501  000000000000000000000000000000000000000000000000000000000000000000000000000000000000002000000000000000000000000000000   210319             00000000000000                                                                  000136
102122445950001000000009034510032549PREGTIT25653563272063     000000000000591662740000000000000000000000000906200319000591662700000000000059166274160319000000001900023700803  000000000000000000000000000000000000000000000000000000000000000000000000000000000000001943200000000004320000000000000   210319             00000000000000                                                                  000137
102122445950001000000009034510032549PREGTIT26085036948741     000000000000591788250000000000000000000000000906200319000591788200000000000059178825200319000000001600023703205  000000000000000000000000000000000000000000000000000000000000000000000000000000000000001600000000000000000000000000000   210319             00000000000000                                                                  000138
102122445950001000000009034510032549PREGTIT20721680389895     000000000000594010440000000000000000000000000906200319000594010400000000000059401044080119000000003333323706949  000000000000000000000000000000000000000000000000000000000000000000000000000000000000003556100000000022280000000000000   210319             00001500000000                                                                  000139
102122445950001000000009034510032549PREGTIT24329967075449     000000000000594112360000000000000000000000000906200319000594112300000000000059411236250219000000001000010403296  000000000000000000000000000000000000000000000000000000000000000000000000000000000000001036100000000003610000000000000   210319             00000000000000                                                                  000140
102122445950001000000009034510032549PREGTIT26087274878741     000000000000594758970000000000000000000000000906200319000594758900000000000059475897200319000000002700023700520  000000000000000000000000000000000000000000000000000000000000000000000000000000000000002700000000000000000000000000000   210319             00000000000000                                                                  000141
102122445950001000000009034510032549PREGTIT26087556446356     000000000000594829580000000000000000000000000906200319000594829500000000000059482958200319000000001880010400960  000000000000000000000000000000000000000000000000000000000000000000000000000000000000001880000000000000000000000000000   210319             00000000000000                                                                  000142
102122445950001000000009034510032549PREGTIT26088074710427     000000000000594834070000000000000000000000000906200319000594834000000000000059483407220319000000000833310401813  000000000000000000000000000000000000000000000000000000000000000000000000000000000000000833300000000000000000000000000   210319             00000000000000                                                                  000143
102122445950001000000009034510032549PREGTIT27711858797185     000000000000594877200000000000000000000000000906200319000594877200000000000059487720100419000000003000010403866  000000000000000000000000000000000000000000000000000000000000000000000000000000000000003000000000000000000000000000000   210319             00000000000000                                                                  000144
102122445950001000000009034510032549PREGTIT24434894302706     000000000000595091980000000000000000000000000906200319000595091900000000000059509198260219000000001375010400551  000000000000000000000000000000000000000000000000000000000000000000000000000000000000001422300000000004730000000000000   210319             00000000000000                                                                  000145
102122445950001000000009034510032549PREGTIT26086071467411     000000000000595145820000000000000000000000000906200319000595145800000000000059514582200319000000001770010402272  000000000000000000000000000000000000000000000000000000000000000000000000000000000000001770000000000000000000000000000   210319             00000000000000                                                                  000146
102122445950001000000009034510032549PREGTIT26084727860738     000000000000595651950000000000000000000000000906200319000595651900000000000059565195200319000000001800000100459  000000000000000000000000000000000000000000000000000000000000000000000000000000000000001800000000000000000000000000000   210319             00000000000000                                                                  000147
102122445950001000000009034510032549PREGTIT25434448323601     000000000000595652840000000000000000000000000906200319000595652800000000000059565284120319000000001300010402882  000000000000000000000000000000000000000000000000000000000000000000000000000000000000001333200000000003320000000000000   210319             00000000000000                                                                  000148
102122445950001000000009034510032549PREGTIT25548343291750     000000000000595723020000000000000000000000000906200319000595723000000000000059572302140319000000003250010401206  000000000000000000000000000000000000000000000000000000000000000000000000000000000000003328200000000007820000000000000   210319             00000000000000                                                                  000149
102122445950001000000009034510032549PREGTIT25541172087809     000000000000596688730000000000000000000000000906200319000596688700000000000059668873150319000000001530003303585  000000000000000000000000000000000000000000000000000000000000000000000000000000000000001565600000000003560000000000000   210319             00000000000000                                                                  000150
102122445950001000000009034510032549PREGTIT25877468133663     0000000000005967203P000000000000000000000000090620031900059672030000000000005967203P180319000000001666710404786  000000000000000000000000000000000000000000000000000000000000000000000000000000000000001702200000000003550000000000000   210319             00000000000000                                                                  000151
102122445950001000000009034510032549PREGTIT25659717275367     000000000000596770310000000000000000000000000906200319000596770300000000000059677031160319000000001100010401266  000000000000000000000000000000000000000000000000000000000000000000000000000000000000001129200000000002920000000000000   210319             00000000000000                                                                  000152
102122445950001000000009034510032549PREGTIT24322784993366     0000000000005968559P000000000000000000000000090620031900059685590000000000005968559P250219000000002200010400960  000000000000000000000000000000000000000000000000000000000000000000000000000000000000002278500000000007850000000000000   210319             00000000000000                                                                  000153
102122445950001000000009034510032549PREGTIT26089802788347     000000000000596977090000000000000000000000000906200319000596977000000000000059697709200319000000003500010401365  000000000000000000000000000000000000000000000000000000000000000000000000000000000000003500000000000000000000000000000   210319             00000000000000                                                                  000154
102122445950001000000009034510032549PREGTIT26191394903076     000000000000597021170000000000000000000000000906200319000597021100000000000059702117230319000000000970034101667  000000000000000000000000000000000000000000000000000000000000000000000000000000000000000970000000000000000000000000000   210319             00000000000000                                                                  000155
102122445950001000000009034510032549PREGTIT26081813745982     000000000000597543380000000000000000000000000906200319000597543300000000000059754338200319000000001648834109926  000000000000000000000000000000000000000000000000000000000000000000000000000000000000001648800000000000000000000000000   210319             00000000000000                                                                  000156
102122445950001000000009034510032549PREGTIT26537780336518     000000000000597742660000000000000000000000000906200319000597742600000000000059774266250219000000001600026000001  000000000000000000000000000000000000000000000000000000000000000000000000000000000000001600000000000000000000000000000   210319             00000000000000                                                                  000157
102122445950001000000009034510032549PREGTIT26759287828707     000000000000597777450000000000000000000000000906200319000597777400000000000059777745200319000000001375010401206  000000000000000000000000000000000000000000000000000000000000000000000000000000000000001375000000000000000000000000000   210319             00000000000000                                                                  000158
102122445950001000000009034510032549PREGTIT26804283824670     000000000000597782290000000000000000000000000906200319000597782200000000000059778229200319000000001122804100219  000000000000000000000000000000000000000000000000000000000000000000000000000000000000001122800000000000000000000000000   210319             00000000000000                                                                  000159
102122445950001000000009034510032549PREGTIT27003592143783     000000000000597803710000000000000000000000000906200319000597803700000000000059780371230319000000001800010401227  000000000000000000000000000000000000000000000000000000000000000000000000000000000000001800000000000000000000000000000   210319             00000000000000                                                                  000160
102122445950001000000009034510032549PREGTIT27511661570208     000000000000597891660000000000000000000000000906200319000597891600000000000059789166220319000000002800003300455  000000000000000000000000000000000000000000000000000000000000000000000000000000000000002800000000000000000000000000000   210319             00000000000000                                                                  000161
102122445950001000000009034510032549PREGTIT27678158065163     000000000000597908300000000000000000000000000906200319000597908300000000000059790830220319000000005800010400960  000000000000000000000000000000000000000000000000000000000000000000000000000000000000005800000000000000000000000000000   210319             00000000000000                                                                  000162
102122445950001000000009034510032549PREGTIT28063239290933     000000000000598478160000000000000000000000000906200319000598478100000000000059847816200319000000005850010403288  000000000000000000000000000000000000000000000000000000000000000000000000000000000000005850000000000000000000000000000   210319             00000000000000                                                                  000163
102122445950001000000009034510032549PREGTIT28251736402333     000000000000598516860000000000000000000000000906200319000598516800000000000059851686220319000000004352110403218  000000000000000000000000000000000000000000000000000000000000000000000000000000000000004352100000000000000000000000000   210319             00000000000000                                                                  000164
102122445950001000000009034510032549PREGTIT28384156577111     000000000000598535650000000000000000000000000906200319000598535600000000000059853565200319000000002200003300209  000000000000000000000000000000000000000000000000000000000000000000000000000000000000002200000000000000000000000000000   210319             00000000000000                                                                  000165
102122445950001000000009034510032549PREGTIT28528373916430     000000000000598554520000000000000000000000000906200319000598554500000000000059855452200319000000002500023702724  000000000000000000000000000000000000000000000000000000000000000000000000000000000000002500000000000000000000000000000   210319             00000000000000                                                                  000166
102122445950001000000009034510032549PREGTIT28538903462365     000000000000598556730000000000000000000000000906200319000598556700000000000059855673200319000000004942003300807  000000000000000000000000000000000000000000000000000000000000000000000000000000000000004942000000000000000000000000000   210319             00000000000000                                                                  000167
102122445950001000000009034510032549PREGTIT28872616478982     000000000000598596440000000000000000000000000906200319000598596400000000000059859644220319000000005583310402974  000000000000000000000000000000000000000000000000000000000000000000000000000000000000005583300000000000000000000000000   210319             00000000000000                                                                  000168
102122445950001000000009034510032549PREGTIT28975830812383     000000000000598608980000000000000000000000000906200319000598608900000000000059860898200319000000000850010401971  000000000000000000000000000000000000000000000000000000000000000000000000000000000000000850000000000000000000000000000   210319             00000000000000                                                                  000169
102122445950001000000009034510032549PREGTIT29028620706337     000000000000598614010000000000000000000000000906200319000598614000000000000059861401200319000000004500023702995  000000000000000000000000000000000000000000000000000000000000000000000000000000000000004500000000000000000000000000000   210319             00000000000000                                                                  000170
102122445950001000000009034510032549PREGTIT29226122313481     0000000000005986365P000000000000000000000000090620031900059863650000000000005986365P200319000000007203834102947  000000000000000000000000000000000000000000000000000000000000000000000000000000000000007203800000000000000000000000000   210319             00000000000000                                                                  000171
102122445950001000000009034510032549PREGTIT29353346569687     000000000000598652960000000000000000000000000906200319000598652900000000000059865296150319000000002450023703131  000000000000000000000000000000000000000000000000000000000000000000000000000000000000002507000000000005700000000000000   210319             00000000000000                                                                  000172
102122445950001000000009034510032549PREGTIT30048020496923     000000000000598726320000000000000000000000000906200319000598726300000000000059872632200319000000000690010403252  000000000000000000000000000000000000000000000000000000000000000000000000000000000000000690000000000000000000000000000   210319             00000000000000                                                                  000173
102122445950001000000009034510032549PREGTIT30046648110424     000000000000598730000000000000000000000000000906200319000598730000000000000059873000200319000000001010010403252  000000000000000000000000000000000000000000000000000000000000000000000000000000000000001010000000000000000000000000000   210319             00000000000000                                                                  000174
102122445950001000000009034510032549PREGTIT30041801043098     000000000000598731670000000000000000000000000906200319000598731600000000000059873167200319000000000690010403252  000000000000000000000000000000000000000000000000000000000000000000000000000000000000000690000000000000000000000000000   210319             00000000000000                                                                  000175
102122445950001000000009034510032549PREGTIT30041522920499     000000000000598732640000000000000000000000000906200319000598732600000000000059873264200319000000001010009904301  000000000000000000000000000000000000000000000000000000000000000000000000000000000000001010000000000000000000000000000   210319             00000000000000                                                                  000176
102122445950001000000009034510032549PREGTIT30074163007164     000000000000598749370000000000000000000000000906200319000598749300000000000059874937200319000000000690074809065  000000000000000000000000000000000000000000000000000000000000000000000000000000000000000690000000000000000000000000000   210319             00000000000000                                                                  000177
102122445950001000000009034510032549PREGTIT30078325691173     000000000000598751940000000000000000000000000906200319000598751900000000000059875194200319000000000690010403252  000000000000000000000000000000000000000000000000000000000000000000000000000000000000000690000000000000000000000000000   210319             00000000000000                                                                  000178
102122445950001000000009034510032549PREGTIT30082089044571     000000000000598758010000000000000000000000000906200319000598758000000000000059875801200319000000000690074809054  000000000000000000000000000000000000000000000000000000000000000000000000000000000000000690000000000000000000000000000   210319             00000000000000                                                                  000179
102122445950001000000009034510032549PREGTIT30289574648220     000000000000599277710000000000000000000000000906200319000599277700000000000059927771200319000000000690010403252  000000000000000000000000000000000000000000000000000000000000000000000000000000000000000690000000000000000000000000000   210319             00000000000000                                                                  000180
102122445950001000000009034510032549PREGTIT30635853105352     000000000000599361930000000000000000000000000906200319000599361900000000000059936193250319000000000690010403252  000000000000000000000000000000000000000000000000000000000000000000000000000000000000000690000000000000000000000000000   210319             00000000000000                                                                  000181
102122445950001000000009034510032549PREGTIT30635853105352     000000000000599362070000000000000000000000000906200319000599362000000000000059936207150419000000000690010403252  000000000000000000000000000000000000000000000000000000000000000000000000000000000000000690000000000000000000000000000   210319             00000000000000                                                                  000182
102122445950001000000009034510032549PREGTIT30756508886838     000000000000599381020000000000000000000000000906200319000599381000000000000059938102190519000000010900034106493  000000000000000000000000000000000000000000000000000000000000000000000000000000000000010900000000000000000000000000000   210319             00000000000000                                                                  000183
102122445950001000000009034510032549PREGTIT30736670357758     000000000000599385870000000000000000000000000906200319000599385800000000000059938587100319000000001000010402864  000000000000000000000000000000000000000000000000000000000000000000000000000000000000001027000000000002700000000000000   210319             00000000000000                                                                  000184
102122445950001000000009034510032549PREGTIT30745357477739     000000000000599391760000000000000000000000000906200319000599391700000000000059939176200319000000002000034100274  000000000000000000000000000000000000000000000000000000000000000000000000000000000000002000000000000000000000000000000   210319             00000000000000                                                                  000185
102122445950001000000009034510032549PREGTIT30848295524927     000000000000599420880000000000000000000000000906200319000599420800000000000059942088220319000000013597823707283  000000000000000000000000000000000000000000000000000000000000000000000000000000000000013597800000000000000000000000000   210319             00000000000000                                                                  000186
102122445950001000000009034510032549PREGTIT24543479793253     000000000000590025140000000000000000000000000909200319000590025100000000000059002514280219000000000850023704150  000000000000000000000000000000000000000000000000000000000000000000000000000000000000000000000000000000000000000000000                          0000000000                                                                  000187
102122445950001000000009034510032549PREGTIT25542410532587     000000000000590205980000000000000000000000000909200319000590205900000000000059020598150319000000003300023704150  000000000000000000000000000000000000000000000000000000000000000000000000000000000000000000000000000000000000000000000                          0000000000                                                                  000188
102122445950001000000009034510032549PREGTIT25546604474973     0000000000005937585P000000000000000000000000090920031900059375850000000000005937585P150319000000000583523704150  000000000000000000000000000000000000000000000000000000000000000000000000000000000000000000000000000000000000000000000                          0000000000                                                                  000189
102122445950001000000009034510032549PREGTIT25544023384327     000000000000593760150000000000000000000000000909200319000593760100000000000059376015150319000000000650023704150  000000000000000000000000000000000000000000000000000000000000000000000000000000000000000000000000000000000000000000000                          0000000000                                                                  000190
102122445950001000000009034510032549PREGTIT25877635396346     000000000000593885870000000000000000000000000909200319000593885800000000000059388587180319000000000600023704150  000000000000000000000000000000000000000000000000000000000000000000000000000000000000000000000000000000000000000000000                          0000000000                                                                  000191
102122445950001000000009034510032549PREGTIT24991689289977     0000000000005939031P000000000000000000000000090920031900059390310000000000005939031P060319000000003000023704150  000000000000000000000000000000000000000000000000000000000000000000000000000000000000000000000000000000000000000000000                          0000000000                                                                  000192
102122445950001000000009034510032549PREGTIT25767614407738     000000000000594860070000000000000000000000000909200319000594860000000000000059486007170319000000000750023704150  000000000000000000000000000000000000000000000000000000000000000000000000000000000000000000000000000000000000000000000                          0000000000                                                                  000193
102122445950001000000009034510032549PREGTIT23993303097511     000000000000594901440000000000000000000000000909200319000594901400000000000059490144190219000000000750023704150  000000000000000000000000000000000000000000000000000000000000000000000000000000000000000000000000000000000000000000000                          0000000000                                                                  000194
102122445950001000000009034510032549PREGTIT24542682760900     0000000000005949493P000000000000000000000000090920031900059494930000000000005949493P280219000000001400023704150  000000000000000000000000000000000000000000000000000000000000000000000000000000000000000000000000000000000000000000000                          0000000000                                                                  000195
102122445950001000000009034510032549PREGTIT24884782530984     000000000000595067680000000000000000000000000909200319000595067600000000000059506768050319000000001000023704150  000000000000000000000000000000000000000000000000000000000000000000000000000000000000000000000000000000000000000000000                          0000000000                                                                  000196
102122445950001000000009034510032549PREGTIT25375603064215     000000000000595752200000000000000000000000000909200319000595752200000000000059575220100319000000001000023704150  000000000000000000000000000000000000000000000000000000000000000000000000000000000000000000000000000000000000000000000                          0000000000                                                                  000197
102122445950001000000009034510032549PREGTIT25654503948171     000000000000595752630000000000000000000000000909200319000595752600000000000059575263160319000000001250023704150  000000000000000000000000000000000000000000000000000000000000000000000000000000000000000000000000000000000000000000000                          0000000000                                                                  000198
102122445950001000000009034510032549PREGTIT24889955501378     000000000000595772660000000000000000000000000909200319000595772600000000000059577266050319000000002111323704150  000000000000000000000000000000000000000000000000000000000000000000000000000000000000000000000000000000000000000000000                          0000000000                                                                  000199
102122445950001000000009034510032549PREGTIT24098844029601     000000000000595779590000000000000000000000000909200319000595779500000000000059577959200219000000000358023704150  000000000000000000000000000000000000000000000000000000000000000000000000000000000000000000000000000000000000000000000                          0000000000                                                                  000200
102122445950001000000009034510032549PREGTIT26518781634362     0000000000005959439P000000000000000000000000090920031900059594390000000000005959439P260319000000001975023704150  000000000000000000000000000000000000000000000000000000000000000000000000000000000000000000000000000000000000000000000                          0000000000                                                                  000201
102122445950001000000009034510032549PREGTIT24216602648906     000000000000596654910000000000000000000000000909200319000596654900000000000059665491240219000000002600023704150  000000000000000000000000000000000000000000000000000000000000000000000000000000000000000000000000000000000000000000000                          0000000000                                                                  000202
102122445950001000000009034510032549PREGTIT25546155200000     000000000000596841780000000000000000000000000909200319000596841700000000000059684178150319000000001850023704150  000000000000000000000000000000000000000000000000000000000000000000000000000000000000000000000000000000000000000000000                          0000000000                                                                  000203
102122445950001000000009034510032549PREGTIT25543052051203     000000000000596843050000000000000000000000000909200319000596843000000000000059684305150319000000000346923704150  000000000000000000000000000000000000000000000000000000000000000000000000000000000000000000000000000000000000000000000                          0000000000                                                                  000204
102122445950001000000009034510032549PREGTIT25544489937333     000000000000596901270000000000000000000000000909200319000596901200000000000059690127150319000000001990023704150  000000000000000000000000000000000000000000000000000000000000000000000000000000000000000000000000000000000000000000000                          0000000000                                                                  000205
102122445950001000000009034510032549PREGTIT24546806101161     000000000000596915650000000000000000000000000909200319000596915600000000000059691565280219000000000435723704150  000000000000000000000000000000000000000000000000000000000000000000000000000000000000000000000000000000000000000000000                          0000000000                                                                  000206
102122445950001000000009034510032549PREGTIT25545134985513     000000000000597537570000000000000000000000000909200319000597537500000000000059753757150319000000002500023704150  000000000000000000000000000000000000000000000000000000000000000000000000000000000000000000000000000000000000000000000                          0000000000                                                                  000207
102122445950001000000009034510032549PREGTIT26086434514890     000000000000597635310000000000000000000000000909200319000597635300000000000059763531190219000000000328023704150  000000000000000000000000000000000000000000000000000000000000000000000000000000000000000000000000000000000000000000000                          0000000000                                                                  000208
102122445950001000000009034510032549PREGTIT26086434514890     0000000000005976354P000000000000000000000000090920031900059763540000000000005976354P190319000000000328023704150  000000000000000000000000000000000000000000000000000000000000000000000000000000000000000000000000000000000000000000000                          0000000000                                                                  000209
102122445950001000000009034510032549PREGTIT27142575928212     000000000000597822850000000000000000000000000909200319000597822800000000000059782285300319000000001100023704150  000000000000000000000000000000000000000000000000000000000000000000000000000000000000000000000000000000000000000000000                          0000000000                                                                  000210
102122445950001000000009034510032549PREGTIT27581953551082     000000000000597896540000000000000000000000000909200319000597896500000000000059789654200319000000002900023704150  000000000000000000000000000000000000000000000000000000000000000000000000000000000000000000000000000000000000000000000                          0000000000                                                                  000211
102122445950001000000009034510032549PREGTIT28962929483014     000000000000598606260000000000000000000000000909200319000598606200000000000059860626100319000000002430023704150  000000000000000000000000000000000000000000000000000000000000000000000000000000000000000000000000000000000000000000000                          0000000000                                                                  000212
102122445950001000000009034510032549PREGTIT29236394324290     000000000000598637810000000000000000000000000909200319000598637800000000000059863781130319000000003000023704150  000000000000000000000000000000000000000000000000000000000000000000000000000000000000000000000000000000000000000000000                          0000000000                                                                  000213
102122445950001000000009034510032549PREGTIT29981375553810     000000000000598701090000000000000000000000000909200319000598701000000000000059870109150319000000002100023704150  000000000000000000000000000000000000000000000000000000000000000000000000000000000000000000000000000000000000000000000                          0000000000                                                                  000214
102122445950001000000009034510032549PREGTIT30025555870893     000000000000598723300000000000000000000000000909200319000598723300000000000059872330100419000000001300023704150  000000000000000000000000000000000000000000000000000000000000000000000000000000000000000000000000000000000000000000000                          0000000000                                                                  000215
102122445950001000000009034510032549PREGTIT16775608541170     000000000000590980070000000000000000000000000910200319000590980000000000000059098007191118000000000666723700000  000000000000000000000000000000000000000000000000000000000000000000000000000000000000000000000000000000000000000000000                          1600000000                                                                  000216
102122445950001000000009034510032549PREGTIT16775381088674     0000000000005918129P000000000000000000000000091020031900059181290000000000005918129P191118000000001000023700000  000000000000000000000000000000000000000000000000000000000000000000000000000000000000000000000000000000000000000000000                          1600000000                                                                  000217
102122445950001000000009034510032549PREGTIT16778724191395     000000000000591821210000000000000000000000000910200319000591821200000000000059182121191118000000001000023700000  000000000000000000000000000000000000000000000000000000000000000000000000000000000000000000000000000000000000000000000                          1600000000                                                                  000218
102122445950001000000009034510032549PREGTIT16773114657637     000000000000592757740000000000000000000000000910200319000592757700000000000059275774191118000000001000023700000  000000000000000000000000000000000000000000000000000000000000000000000000000000000000000000000000000000000000000000000                          1600000000                                                                  000219
102122445950001000000009034510032549PREGTIT16778703485346     000000000000592758040000000000000000000000000910200319000592758000000000000059275804191118000000001075023700000  000000000000000000000000000000000000000000000000000000000000000000000000000000000000000000000000000000000000000000000                          1600000000                                                                  000220
102122445950001000000009034510032549PREGTIT16773291979854     000000000000592758550000000000000000000000000910200319000592758500000000000059275855191118000000001000023700000  000000000000000000000000000000000000000000000000000000000000000000000000000000000000000000000000000000000000000000000                          1600000000                                                                  000221
102122445950001000000009034510032549PREGTIT16779791631135     0000000000005938039P000000000000000000000000091020031900059380390000000000005938039P191118000000004656723700000  000000000000000000000000000000000000000000000000000000000000000000000000000000000000000000000000000000000000000000000                          1600000000                                                                  000222
102122445950001000000009034510032549PREGTIT16771506587668     000000000000593807800000000000000000000000000910200319000593807800000000000059380780191118000000000511323700000  000000000000000000000000000000000000000000000000000000000000000000000000000000000000000000000000000000000000000000000                          1600000000                                                                  000223
102122445950001000000009034510032549PREGTIT16777620711305     000000000000593808880000000000000000000000000910200319000593808800000000000059380888191118000000001000023700000  000000000000000000000000000000000000000000000000000000000000000000000000000000000000000000000000000000000000000000000                          1600000000                                                                  000224
102122445950001000000009034510032549PREGTIT16777002283032     000000000000593810940000000000000000000000000910200319000593810900000000000059381094191118000000004484523700000  000000000000000000000000000000000000000000000000000000000000000000000000000000000000000000000000000000000000000000000                          1600000000                                                                  000225
102122445950001000000009034510032549PREGTIT16773644900313     000000000000593819300000000000000000000000000910200319000593819300000000000059381930191118000000000732323700000  000000000000000000000000000000000000000000000000000000000000000000000000000000000000000000000000000000000000000000000                          1600000000                                                                  000226
102122445950001000000009034510032549PREGTIT19095898489989     000000000000594804830000000000000000000000000910200319000594804800000000000059480483191118000000000825023700000  000000000000000000000000000000000000000000000000000000000000000000000000000000000000000000000000000000000000000000000                          1600000000                                                                  000227
102122445950001000000009034510032549PREGTIT19109935102330     000000000000594806370000000000000000000000000910200319000594806300000000000059480637191118000000001560023700000  000000000000000000000000000000000000000000000000000000000000000000000000000000000000000000000000000000000000000000000                          1600000000                                                                  000228
102122445950001000000009034510032549PREGTIT19148141729243     000000000000594811610000000000000000000000000910200319000594811600000000000059481161191118000000002413023700000  000000000000000000000000000000000000000000000000000000000000000000000000000000000000000000000000000000000000000000000                          1600000000                                                                  000229
102122445950001000000009034510032549PREGTIT19728656966317     000000000000594943440000000000000000000000000910200319000594943400000000000059494344191118000000001317823700000  000000000000000000000000000000000000000000000000000000000000000000000000000000000000000000000000000000000000000000000                          1600000000                                                                  000230
102122445950001000000009034510032549PREGTIT20334297799136     000000000000595038070000000000000000000000000910200319000595038000000000000059503807191118000000008356923700000  000000000000000000000000000000000000000000000000000000000000000000000000000000000000000000000000000000000000000000000                          1600000000                                                                  000231
102122445950001000000009034510032549PREGTIT20978875334453     000000000000595692630000000000000000000000000910200319000595692600000000000059569263191118000000002584323700000  000000000000000000000000000000000000000000000000000000000000000000000000000000000000000000000000000000000000000000000                          1600000000                                                                  000232
102122445950001000000009034510032549P                         000000000000598693990000000000000000000000000917200319          00000000000059869399000000000000001773823700954  000000000000000000000000000000000000000000000000000000000000000000000000000000000000001773800000000000000000000000000   210319                 0000000000                                                                  000233
102122445950001000000009034510032549PREGTIT30763479793253     000000000000590025140000000000000000000000000927200319000590025100000000000059002514280219000000000850023700000  000000000000000000000000000000000000000000000000000000000000000000000000000000000000000000000000000000000000000000000                          6000000000                                                                  000234
102122445950001000000009034510032549PREGTIT30754477991142     0000000000005900858P000000000000000000000000092720031900059008580000000000005900858P100319000000001794023700000  000000000000000000000000000000000000000000000000000000000000000000000000000000000000000000000000000000000000000000000                          6000000000                                                                  000235
102122445950001000000009034510032549PREGTIT30812410532587     000000000000590205980000000000000000000000000927200319000590205900000000000059020598150319000000003300023700000  000000000000000000000000000000000000000000000000000000000000000000000000000000000000000000000000000000000000000000000                          6000000000                                                                  000236
102122445950001000000009034510032549PREGTIT30759638299706     0000000000005918793P000000000000000000000000092720031900059187930000000000005918793P200219000000001080023700000  000000000000000000000000000000000000000000000000000000000000000000000000000000000000000000000000000000000000000000000                          6000000000                                                                  000237
102122445950001000000009034510032549PREGTIT30755221088818     000000000000592823980000000000000000000000000927200319000592823900000000000059282398230219000000001083323700000  000000000000000000000000000000000000000000000000000000000000000000000000000000000000000000000000000000000000000000000                          6000000000                                                                  000238
102122445950001000000009034510032549PREGTIT30757839707301     000000000000592882720000000000000000000000000927200319000592882700000000000059288272250319000000001187523700000  000000000000000000000000000000000000000000000000000000000000000000000000000000000000000000000000000000000000000000000                          6000000000                                                                  000239
102122445950001000000009034510032549PREGTIT30786604474973     0000000000005937585P000000000000000000000000092720031900059375850000000000005937585P150319000000000583523700000  000000000000000000000000000000000000000000000000000000000000000000000000000000000000000000000000000000000000000000000                          6000000000                                                                  000240
102122445950001000000009034510032549PREGTIT30854023384327     000000000000593760150000000000000000000000000927200319000593760100000000000059376015150319000000000650023700000  000000000000000000000000000000000000000000000000000000000000000000000000000000000000000000000000000000000000000000000                          6000000000                                                                  000241
102122445950001000000009034510032549PREGTIT30847635396346     000000000000593885870000000000000000000000000927200319000593885800000000000059388587180319000000000600023700000  000000000000000000000000000000000000000000000000000000000000000000000000000000000000000000000000000000000000000000000                          6000000000                                                                  000242
102122445950001000000009034510032549PREGTIT30811689289977     0000000000005939031P000000000000000000000000092720031900059390310000000000005939031P060319000000003000023700000  000000000000000000000000000000000000000000000000000000000000000000000000000000000000000000000000000000000000000000000                          6000000000                                                                  000243
102122445950001000000009034510032549PREGTIT30787614407738     000000000000594860070000000000000000000000000927200319000594860000000000000059486007170319000000000750023700000  000000000000000000000000000000000000000000000000000000000000000000000000000000000000000000000000000000000000000000000                          6000000000                                                                  000244
102122445950001000000009034510032549PREGTIT30756321765151     000000000000594881150000000000000000000000000927200319000594881100000000000059488115100319000000001000023700000  000000000000000000000000000000000000000000000000000000000000000000000000000000000000000000000000000000000000000000000                          6000000000                                                                  000245
102122445950001000000009034510032549PREGTIT30833303097511     000000000000594901440000000000000000000000000927200319000594901400000000000059490144190219000000000750023700000  000000000000000000000000000000000000000000000000000000000000000000000000000000000000000000000000000000000000000000000                          6000000000                                                                  000246
102122445950001000000009034510032549PREGTIT30852682760900     0000000000005949493P000000000000000000000000092720031900059494930000000000005949493P280219000000001400023700000  000000000000000000000000000000000000000000000000000000000000000000000000000000000000000000000000000000000000000000000                          6000000000                                                                  000247
102122445950001000000009034510032549PREGTIT30854782530984     000000000000595067680000000000000000000000000927200319000595067600000000000059506768050319000000001000023700000  000000000000000000000000000000000000000000000000000000000000000000000000000000000000000000000000000000000000000000000                          6000000000                                                                  000248
