02RETORNO01COBRANCA       00000000000004852239ISPCN ADM DE COBRANCA DE TITUL237BRADESCO       0803190160000000599                                                                                                                                                                                                                                                                          110319         000001
102122445950001000000009034510032549PREGTIT29874328592949     0000000000005874729P000000000000000000000000090208031900058747290000000000005874729P070519000000005000023704157  000000000014300000000000000000000000000000000000000000000000000000000000000000000000000000000000000000000000000000000                          0000000000                                                                  000002
102122445950001000000009034510032549PREGTIT29876539215110     000000000000587679590000000000000000000000000902080319000587679500000000000058767959070519000000006000023704157  000000000014300000000000000000000000000000000000000000000000000000000000000000000000000000000000000000000000000000000                          0000000000                                                                  000003
102122445950001000000009034510032549PREGTIT29871969636252     000000000000588971940000000000000000000000000902080319000588971900000000000058897194070519000000002632323704151  000000000014300000000000000000000000000000000000000000000000000000000000000000000000000000000000000000000000000000000                          7600000000                                                                  000004
102122445950001000000009034510032549PREGTIT29873623412135     000000000000591851200000000000000000000000000902080319000591851200000000000059185120070519000000003000023704151  000000000014300000000000000000000000000000000000000000000000000000000000000000000000000000000000000000000000000000000                          0000000000                                                                  000005
102122445950001000000009034510032549PREGTIT29877486564790     000000000000591873360000000000000000000000000902080319000591873300000000000059187336070519000000003500023704151  000000000014300000000000000000000000000000000000000000000000000000000000000000000000000000000000000000000000000000000                          0000000000                                                                  000006
102122445950001000000009034510032549PREGTIT29875221672364     000000000000592088050000000000000000000000000902080319000592088000000000000059208805070519000000003900023704151  000000000014300000000000000000000000000000000000000000000000000000000000000000000000000000000000000000000000000000000                          0000000000                                                                  000007
102122445950001000000009034510032549PREGTIT29872750647875     000000000000592729290000000000000000000000000902080319000592729200000000000059272929070519000000002400023704151  000000000014300000000000000000000000000000000000000000000000000000000000000000000000000000000000000000000000000000000                          0000000000                                                                  000008
102122445950001000000009034510032549PREGTIT29877026269261     000000000000593061490000000000000000000000000902080319000593061400000000000059306149070519000000001500023703451  000000000014300000000000000000000000000000000000000000000000000000000000000000000000000000000000000000000000000000000                          0000000000                                                                  000009
102122445950001000000009034510032549PREGTIT29879607499920     000000000000593729230000000000000000000000000902080319000593729200000000000059372923070519000000001400023704151  000000000014300000000000000000000000000000000000000000000000000000000000000000000000000000000000000000000000000000000                          0000000000                                                                  000010
102122445950001000000009034510032549PREGTIT29877575458391     000000000000593767160000000000000000000000000902080319000593767100000000000059376716070519000000002500023704151  000000000014300000000000000000000000000000000000000000000000000000000000000000000000000000000000000000000000000000000                          0000000000                                                                  000011
102122445950001000000009034510032549PREGTIT29877112895138     000000000000593818330000000000000000000000000902080319000593818300000000000059381833070519000000001500023704426  000000000014300000000000000000000000000000000000000000000000000000000000000000000000000000000000000000000000000000000                          0000000000                                                                  000012
102122445950001000000009034510032549PREGTIT29874135209744     000000000000593896800000000000000000000000000902080319000593896800000000000059389680070519000000005000023704151  000000000014300000000000000000000000000000000000000000000000000000000000000000000000000000000000000000000000000000000                          0000000000                                                                  000013
102122445950001000000009034510032549PREGTIT29877245409972     000000000000594862280000000000000000000000000902080319000594862200000000000059486228070519000000001055623703451  000000000014300000000000000000000000000000000000000000000000000000000000000000000000000000000000000000000000000000000                          0000000000                                                                  000014
102122445950001000000009034510032549PREGTIT29879532037004     000000000000594896340000000000000000000000000902080319000594896300000000000059489634070519000000004900023700073  000000000014300000000000000000000000000000000000000000000000000000000000000000000000000000000000000000000000000000000                          0000000000                                                                  000015
102122445950001000000009034510032549PREGTIT29873441436443     000000000000595121800000000000000000000000000902080319000595121800000000000059512180070519000000001166723703451  000000000014300000000000000000000000000000000000000000000000000000000000000000000000000000000000000000000000000000000                          0000000000                                                                  000016
102122445950001000000009034510032549PREGTIT29877812374519     000000000000595124660000000000000000000000000902080319000595124600000000000059512466070519000000001500023703451  000000000014300000000000000000000000000000000000000000000000000000000000000000000000000000000000000000000000000000000                          0000000000                                                                  000017
102122445950001000000009034510032549PREGTIT29876088367543     000000000000595125200000000000000000000000000902080319000595125200000000000059512520070519000000000583523703451  000000000014300000000000000000000000000000000000000000000000000000000000000000000000000000000000000000000000000000000                          0000000000                                                                  000018
102122445950001000000009034510032549PREGTIT29876133668083     000000000000595126440000000000000000000000000902080319000595126400000000000059512644070519000000000666723703451  000000000014300000000000000000000000000000000000000000000000000000000000000000000000000000000000000000000000000000000                          0000000000                                                                  000019
102122445950001000000009034510032549PREGTIT29876013154805     000000000000595137050000000000000000000000000902080319000595137000000000000059513705070519000000000416723703451  000000000014300000000000000000000000000000000000000000000000000000000000000000000000000000000000000000000000000000000                          0000000000                                                                  000020
102122445950001000000009034510032549PREGTIT29878908830558     000000000000595677590000000000000000000000000902080319000595677500000000000059567759070519000000001615823703451  000000000014300000000000000000000000000000000000000000000000000000000000000000000000000000000000000000000000000000000                          0000000000                                                                  000021
102122445950001000000009034510032549PREGTIT29872041520770     000000000000595738560000000000000000000000000902080319000595738500000000000059573856070519000000000666723703451  000000000014300000000000000000000000000000000000000000000000000000000000000000000000000000000000000000000000000000000                          0000000000                                                                  000022
102122445950001000000009034510032549PREGTIT29874106098864     000000000000596002250000000000000000000000000902080319000596002200000000000059600225070519000000003210323704152  000000000014300000000000000000000000000000000000000000000000000000000000000000000000000000000000000000000000000000000                          0000000000                                                                  000023
102122445950001000000009034510032549PREGTIT29879124265325     000000000000596045650000000000000000000000000902080319000596045600000000000059604565070519000000001500023704151  000000000014300000000000000000000000000000000000000000000000000000000000000000000000000000000000000000000000000000000                          0000000000                                                                  000024
102122445950001000000009034510032549PREGTIT29877033570930     000000000000596576690000000000000000000000000902080319000596576600000000000059657669070519000000000623723704157  000000000014300000000000000000000000000000000000000000000000000000000000000000000000000000000000000000000000000000000                          0000000000                                                                  000025
102122445950001000000009034510032549PREGTIT29879359039134     000000000000596587620000000000000000000000000902080319000596587600000000000059658762070519000000002500023704158  000000000014300000000000000000000000000000000000000000000000000000000000000000000000000000000000000000000000000000000                          7600000000                                                                  000026
102122445950001000000009034510032549PREGTIT29874224998003     000000000000596604730000000000000000000000000902080319000596604700000000000059660473070519000000003200023703451  000000000014300000000000000000000000000000000000000000000000000000000000000000000000000000000000000000000000000000000                          0000000000                                                                  000027
102122445950001000000009034510032549PREGTIT29876242692342     000000000000596726250000000000000000000000000902080319000596726200000000000059672625070519000000006487523703451  000000000014300000000000000000000000000000000000000000000000000000000000000000000000000000000000000000000000000000000                          0000000000                                                                  000028
102122445950001000000009034510032549PREGTIT29876145913828     000000000000596735080000000000000000000000000902080319000596735000000000000059673508070519000000000940023704157  000000000014300000000000000000000000000000000000000000000000000000000000000000000000000000000000000000000000000000000                          0000000000                                                                  000029
102122445950001000000009034510032549PREGTIT29879666073612     000000000000596887770000000000000000000000000902080319000596887700000000000059688777070519000000000950023703109  000000000014300000000000000000000000000000000000000000000000000000000000000000000000000000000000000000000000000000000                          0000000000                                                                  000030
102122445950001000000009034510032549PREGTIT29873014286371     0000000000005968951P000000000000000000000000090208031900059689510000000000005968951P070519000000005000023704151  000000000014300000000000000000000000000000000000000000000000000000000000000000000000000000000000000000000000000000000                          0000000000                                                                  000031
102122445950001000000009034510032549PREGTIT29875087719451     000000000000596939910000000000000000000000000902080319000596939900000000000059693991070519000000005100023704151  000000000014300000000000000000000000000000000000000000000000000000000000000000000000000000000000000000000000000000000                          0000000000                                                                  000032
102122445950001000000009034510032549PREGTIT29877268271541     000000000000596946370000000000000000000000000902080319000596946300000000000059694637070519000000002000023704151  000000000014300000000000000000000000000000000000000000000000000000000000000000000000000000000000000000000000000000000                          0000000000                                                                  000033
102122445950001000000009034510032549PREGTIT29877933771688     000000000000596952340000000000000000000000000902080319000596952300000000000059695234070519000000002900023704151  000000000014300000000000000000000000000000000000000000000000000000000000000000000000000000000000000000000000000000000                          0000000000                                                                  000034
102122445950001000000009034510032549PREGTIT29872058750386     000000000000597696880000000000000000000000000902080319000597696800000000000059769688070519000000001000023704151  000000000014300000000000000000000000000000000000000000000000000000000000000000000000000000000000000000000000000000000                          7600000000                                                                  000035
102122445950001000000009034510032549PREGTIT29879136358565     000000000000597800370000000000000000000000000902080319000597800300000000000059780037070519000000007000023704151  000000000014300000000000000000000000000000000000000000000000000000000000000000000000000000000000000000000000000000000                          7600000000                                                                  000036
102122445950001000000009034510032549PREGTIT29875420754034     000000000000597827490000000000000000000000000902080319000597827400000000000059782749070519000000005657623704152  000000000014300000000000000000000000000000000000000000000000000000000000000000000000000000000000000000000000000000000                          7600000000                                                                  000037
102122445950001000000009034510032549PREGTIT29873946166771     000000000000597894090000000000000000000000000902080319000597894000000000000059789409070519000000001119723704157  000000000014300000000000000000000000000000000000000000000000000000000000000000000000000000000000000000000000000000000                          0000000000                                                                  000038
102122445950001000000009034510032549PREGTIT29875092437809     000000000000597896460000000000000000000000000902080319000597896400000000000059789646070519000000000783323704147  000000000014300000000000000000000000000000000000000000000000000000000000000000000000000000000000000000000000000000000                          0000000000                                                                  000039
102122445950001000000009034510032549PREGTIT29872593134753     000000000000598513330000000000000000000000000902080319000598513300000000000059851333070519000000002573723700073  000000000014300000000000000000000000000000000000000000000000000000000000000000000000000000000000000000000000000000000                          0000000000                                                                  000040
102122445950001000000009034510032549PREGTIT29879876927067     000000000000598641760000000000000000000000000902080319000598641700000000000059864176070519000000001300023704151  000000000014300000000000000000000000000000000000000000000000000000000000000000000000000000000000000000000000000000000                          0000000000                                                                  000041
102122445950001000000009034510032549PREGTIT29871952277024     000000000000598648690000000000000000000000000902080319000598648600000000000059864869070519000000000529023704157  000000000014300000000000000000000000000000000000000000000000000000000000000000000000000000000000000000000000000000000                          0000000000                                                                  000042
102122445950001000000009034510032549PREGTIT29874792984181     000000000000598676710000000000000000000000000902080319000598676700000000000059867671070419000000001250023704422  000000000014300000000000000000000000000000000000000000000000000000000000000000000000000000000000000000000000000000000                          0000000000                                                                  000043
102122445950001000000009034510032549PREGTIT29874792984181     0000000000005986768P000000000000000000000000090208031900059867680000000000005986768P070519000000001250023704422  000000000014300000000000000000000000000000000000000000000000000000000000000000000000000000000000000000000000000000000                          0000000000                                                                  000044
102122445950001000000009034510032549PREGTIT29873538169128     0000000000005986771P000000000000000000000000090208031900059867710000000000005986771P070419000000001250023704422  000000000014300000000000000000000000000000000000000000000000000000000000000000000000000000000000000000000000000000000                          0000000000                                                                  000045
102122445950001000000009034510032549PREGTIT29873538169128     000000000000598677280000000000000000000000000902080319000598677200000000000059867728070519000000001250023704422  000000000014300000000000000000000000000000000000000000000000000000000000000000000000000000000000000000000000000000000                          0000000000                                                                  000046
102122445950001000000009034510032549PREGTIT29875378660505     000000000000598678250000000000000000000000000902080319000598678200000000000059867825080419000000001325023704422  000000000014300000000000000000000000000000000000000000000000000000000000000000000000000000000000000000000000000000000                          0000000000                                                                  000047
102122445950001000000009034510032549PREGTIT29884143588426     000000000000598678840000000000000000000000000902080319000598678800000000000059867884080419000000004200023704144  000000000014300000000000000000000000000000000000000000000000000000000000000000000000000000000000000000000000000000000                          0000000000                                                                  000048
102122445950001000000009034510032549PREGTIT29899182553647     000000000000598678920000000000000000000000000902080319000598678900000000000059867892080419000000000770023703451  000000000014300000000000000000000000000000000000000000000000000000000000000000000000000000000000000000000000000000000                          0000000000                                                                  000049
102122445950001000000009034510032549PREGTIT29897685531083     0000000000005986799P000000000000000000000000090208031900059867990000000000005986799P150319000000004200023704144  000000000014300000000000000000000000000000000000000000000000000000000000000000000000000000000000000000000000000000000                          0000000000                                                                  000050
102122445950001000000009034510032549PREGTIT29908192801343     0000000000005986804P000000000000000000000000090208031900059868040000000000005986804P180319000000001030023704157  000000000014300000000000000000000000000000000000000000000000000000000000000000000000000000000000000000000000000000000                          7600000000                                                                  000051
102122445950001000000009034510032549PREGTIT29903667236893     000000000000598680820000000000000000000000000902080319000598680800000000000059868082100419000000001200023703109  000000000014300000000000000000000000000000000000000000000000000000000000000000000000000000000000000000000000000000000                          0000000000                                                                  000052
102122445950001000000009034510032549PREGTIT29928747426730     000000000000598681470000000000000000000000000902080319000598681400000000000059868147130319000000002830023704144  000000000014300000000000000000000000000000000000000000000000000000000000000000000000000000000000000000000000000000000                          0000000000                                                                  000053
102122445950001000000009034510032549PREGTIT29936215487031     000000000000598682280000000000000000000000000902080319000598682200000000000059868228200319000000005000023704144  000000000014300000000000000000000000000000000000000000000000000000000000000000000000000000000000000000000000000000000                          0000000000                                                                  000054
102122445950001000000009034510032549PREGTIT29935958640368     000000000000598682360000000000000000000000000902080319000598682300000000000059868236080419000000003500023704151  000000000014300000000000000000000000000000000000000000000000000000000000000000000000000000000000000000000000000000000                          0000000000                                                                  000055
102122445950001000000009034510032549PREGTIT29934693815128     000000000000598682520000000000000000000000000902080319000598682500000000000059868252230319000000003770323704144  000000000014300000000000000000000000000000000000000000000000000000000000000000000000000000000000000000000000000000000                          0000000000                                                                  000056
102122445950001000000009034510032549PREGTIT29946195224788     000000000000598682870000000000000000000000000902080319000598682800000000000059868287250419000000004740023704151  000000000014300000000000000000000000000000000000000000000000000000000000000000000000000000000000000000000000000000000                          0000000000                                                                  000057
102122445950001000000009034510032549PREGTIT29948263072222     000000000000598684060000000000000000000000000902080319000598684000000000000059868406100419000000001350023704151  000000000014300000000000000000000000000000000000000000000000000000000000000000000000000000000000000000000000000000000                          0000000000                                                                  000058
102122445950001000000009034510032549PREGTIT29943430868287     000000000000598684650000000000000000000000000902080319000598684600000000000059868465080419000000005280023704157  000000000014300000000000000000000000000000000000000000000000000000000000000000000000000000000000000000000000000000000                          0000000000                                                                  000059
102122445950001000000009034510032549PREGTIT29958877986739     000000000000598685890000000000000000000000000902080319000598685800000000000059868589100419000000002780023704151  000000000014300000000000000000000000000000000000000000000000000000000000000000000000000000000000000000000000000000000                          0000000000                                                                  000060
102122445950001000000009034510032549PREGTIT29959859490634     000000000000598686860000000000000000000000000902080319000598686800000000000059868686080419000000001242723704151  000000000014300000000000000000000000000000000000000000000000000000000000000000000000000000000000000000000000000000000                          0000000000                                                                  000061
102122445950001000000009034510032549PREGTIT29959663945734     000000000000598687240000000000000000000000000902080319000598687200000000000059868724080419000000002400023703451  000000000014300000000000000000000000000000000000000000000000000000000000000000000000000000000000000000000000000000000                          0000000000                                                                  000062
102122445950001000000009034510032549PREGTIT29956483854183     000000000000598687320000000000000000000000000902080319000598687300000000000059868732130319000000004536023704144  000000000014300000000000000000000000000000000000000000000000000000000000000000000000000000000000000000000000000000000                          0000000000                                                                  000063
102122445950001000000009034510032549PREGTIT29956793901622     000000000000598687400000000000000000000000000902080319000598687400000000000059868740290319000000002035023704144  000000000014300000000000000000000000000000000000000000000000000000000000000000000000000000000000000000000000000000000                          0000000000                                                                  000064
102122445950001000000009034510032549PREGTIT29953406052924     000000000000598687590000000000000000000000000902080319000598687500000000000059868759100419000000002580023704151  000000000014300000000000000000000000000000000000000000000000000000000000000000000000000000000000000000000000000000000                          0000000000                                                                  000065
102122445950001000000009034510032549PREGTIT29957197432774     000000000000598688640000000000000000000000000902080319000598688600000000000059868864150419000000004200023703451  000000000014300000000000000000000000000000000000000000000000000000000000000000000000000000000000000000000000000000000                          0000000000                                                                  000066
102122445950001000000009034510032549PREGTIT29964423267311     000000000000598690620000000000000000000000000902080319000598690600000000000059869062200419000000004800023704151  000000000014300000000000000000000000000000000000000000000000000000000000000000000000000000000000000000000000000000000                          0000000000                                                                  000067
102122445950001000000009034510032549PREGTIT29962568655585     000000000000598692750000000000000000000000000902080319000598692700000000000059869275150319000000003781023703451  000000000014300000000000000000000000000000000000000000000000000000000000000000000000000000000000000000000000000000000                          0000000000                                                                  000068
102122445950001000000009034510032549PREGTIT29962568655585     000000000000598692830000000000000000000000000902080319000598692800000000000059869283150419000000003781023703451  000000000014300000000000000000000000000000000000000000000000000000000000000000000000000000000000000000000000000000000                          0000000000                                                                  000069
102122445950001000000009034510032549PREGTIT29963753282738     000000000000598692910000000000000000000000000902080319000598692900000000000059869291120319000000003300023704426  000000000014300000000000000000000000000000000000000000000000000000000000000000000000000000000000000000000000000000000                          0000000000                                                                  000070
102122445950001000000009034510032549PREGTIT29972763610552     000000000000598693050000000000000000000000000902080319000598693000000000000059869305200419000000001773823704157  000000000014300000000000000000000000000000000000000000000000000000000000000000000000000000000000000000000000000000000                          0000000000                                                                  000071
102122445950001000000009034510032549PREGTIT29978470597780     000000000000598694020000000000000000000000000902080319000598694000000000000059869402080419000000000870023704151  000000000014300000000000000000000000000000000000000000000000000000000000000000000000000000000000000000000000000000000                          0000000000                                                                  000072
102122445950001000000009034510032549PREGTIT29978940012856     0000000000005986950P000000000000000000000000090208031900059869500000000000005986950P080419000000003419923704151  000000000014300000000000000000000000000000000000000000000000000000000000000000000000000000000000000000000000000000000                          0000000000                                                                  000073
102122445950001000000009034510032549PREGTIT29977083207637     000000000000598695180000000000000000000000000902080319000598695100000000000059869518300419000000003500023704151  000000000014300000000000000000000000000000000000000000000000000000000000000000000000000000000000000000000000000000000                          0000000000                                                                  000074
102122445950001000000009034510032549PREGTIT25431641810888     000000000000584600470000000000000000000000000906080319000584600400000000000058460047120319000000004500010404681  000000000000000000000000000000000000000000000000000000000000000000000000000000000000004500000000000000000000000000000   110319             00000000000000                                                                  000075
102122445950001000000009034510032549PREGTIT24094744180105     000000000000588816620000000000000000000000000906080319000588816600000000000058881662200219000000000700023703453  000000000000000000000000000000000000000000000000000000000000000000000000000000000000000722000000000002200000000000000   110319             00000000000000                                                                  000076
102122445950001000000009034510032549PREGTIT26089541283138     000000000000588818080000000000000000000000000906080319000588818000000000000058881808200319000000001200000101837  000000000000000000000000000000000000000000000000000000000000000000000000000000000000001200000000000000000000000000000   110319             00000000000000                                                                  000077
102122445950001000000009034510032549PREGTIT24997797334885     000000000000589968180000000000000000000000000906080319000589968100000000000058996818080319000000002200023702744  000000000000000000000000000000000000000000000000000000000000000000000000000000000000002200000000000000000000000000000   110319             00000000000000                                                                  000078
102122445950001000000009034510032549PREGTIT25248698427987     000000000000589990000000000000000000000000000906080319000589990000000000000058999000100319000000003250010400382  000000000000000000000000000000000000000000000000000000000000000000000000000000000000003250000000000000000000000000000   110319             00000000000000                                                                  000079
102122445950001000000009034510032549PREGTIT24997971188951     000000000000590096240000000000000000000000000906080319000590096200000000000059009624080319000000003328734100654  000000000000000000000000000000000000000000000000000000000000000000000000000000000000003328700000000000000000000000000   110319             00000000000000                                                                  000080
102122445950001000000009034510032549PREGTIT25213297562864     000000000000590122180000000000000000000000000906080319000590122100000000000059012218100319000000001600023702125  000000000000000000000000000000000000000000000000000000000000000000000000000000000000001600000000000000000000000000000   110319             00000000000000                                                                  000081
102122445950001000000009034510032549PREGTIT25544841375363     000000000000590231470000000000000000000000000906080319000590231400000000000059023147150319000000000720010401979  000000000000000000000000000000000000000000000000000000000000000000000000000000000000000720000000000000000000000000000   110319             00000000000000                                                                  000082
102122445950001000000009034510032549PREGTIT25213974742744     0000000000005917160P000000000000000000000000090608031900059171600000000000005917160P100319000000005000010400357  000000000000000000000000000000000000000000000000000000000000000000000000000000000000005000000000000000000000000000000   110319             00000000000000                                                                  000083
102122445950001000000009034510032549PREGTIT24996029713716     000000000000591797240000000000000000000000000906080319000591797200000000000059179724080319000000002500010400988  000000000000000000000000000000000000000000000000000000000000000000000000000000000000002500000000000000000000000000000   110319             00000000000000                                                                  000084
102122445950001000000009034510032549PREGTIT25215299494361     000000000000591921430000000000000000000000000906080319000591921400000000000059192143100319000000002500003300210  000000000000000000000000000000000000000000000000000000000000000000000000000000000000002500000000000000000000000000000   110319             00000000000000                                                                  000085
102122445950001000000009034510032549PREGTIT25213900584176     000000000000592954810000000000000000000000000906080319000592954800000000000059295481100319000000000300034108488  000000000000000000000000000000000000000000000000000000000000000000000000000000000000000300000000000000000000000000000   110319             00000000000000                                                                  000086
102122445950001000000009034510032549PREGTIT24668760457473     000000000000593066020000000000000000000000000906080319000593066000000000000059306602030319000000000800010402991  000000000000000000000000000000000000000000000000000000000000000000000000000000000000000818500000000001850000000000000   110319             00000000000000                                                                  000087
102122445950001000000009034510032549PREGTIT25219183736277     000000000000593149150000000000000000000000000906080319000593149100000000000059314915100319000000003340000107822  000000000000000000000000000000000000000000000000000000000000000000000000000000000000003340000000000000000000000000000   110319             00000000000000                                                                  000088
102122445950001000000009034510032549PREGTIT23565294254980     000000000000593727880000000000000000000000000906080319000593727800000000000059372788130219000000001200023700417  000000000000000000000000000000000000000000000000000000000000000000000000000000000000001242400000000004240000000000000   110319             00000000000000                                                                  000089
102122445950001000000009034510032549PREGTIT24997112895138     000000000000593818170000000000000000000000000906080319000593818100000000000059381817070319000000001500010401437  000000000000000000000000000000000000000000000000000000000000000000000000000000000000001531000000000003100000000000000   110319             00000000000000                                                                  000090
102122445950001000000009034510032549PREGTIT25484135209744     000000000000593896640000000000000000000000000906080319000593896600000000000059389664070319000000005000034106677  000000000000000000000000000000000000000000000000000000000000000000000000000000000000005103300000000010330000000000000   110319             00000000000000                                                                  000091
102122445950001000000009034510032549PREGTIT25218260825561     000000000000593971520000000000000000000000000906080319000593971500000000000059397152100319000000001100000107822  000000000000000000000000000000000000000000000000000000000000000000000000000000000000001100000000000000000000000000000   110319             00000000000000                                                                  000092
102122445950001000000009034510032549PREGTIT25213437244473     000000000000593976240000000000000000000000000906080319000593976200000000000059397624100319000000001800000107822  000000000000000000000000000000000000000000000000000000000000000000000000000000000000001800000000000000000000000000000   110319             00000000000000                                                                  000093
102122445950001000000009034510032549PREGTIT24546409623763     000000000000593987600000000000000000000000000906080319000593987600000000000059398760280219000000001800007700001  000000000000000000000000000000000000000000000000000000000000000000000000000000000000001845600000000004560000000000000   110319             00000000000000                                                                  000094
102122445950001000000009034510032549PREGTIT25246723406083     000000000000594043450000000000000000000000000906080319000594043400000000000059404345100319000000001990010400382  000000000000000000000000000000000000000000000000000000000000000000000000000000000000001990000000000000000000000000000   110319             00000000000000                                                                  000095
102122445950001000000009034510032549PREGTIT20834801455450     000000000000594055700000000000000000000000000906080319000594055700000000000059405570100119000000002506010404039  000000000000000000000000000000000000000000000000000000000000000000000000000000000000002653000000000014700000000000000   110319             00000000000000                                                                  000096
102122445950001000000009034510032549PREGTIT25215225566435     000000000000594060380000000000000000000000000906080319000594060300000000000059406038100319000000002070010402884  000000000000000000000000000000000000000000000000000000000000000000000000000000000000002070000000000000000000000000000   110319             00000000000000                                                                  000097
102122445950001000000009034510032549PREGTIT25218550552394     000000000000594068790000000000000000000000000906080319000594068700000000000059406879100319000000003460000104314  000000000000000000000000000000000000000000000000000000000000000000000000000000000000003460000000000000000000000000000   110319             00000000000000                                                                  000098
102122445950001000000009034510032549PREGTIT23562245109383     000000000000594083750000000000000000000000000906080319000594083700000000000059408375150219000000002500034107374  000000000000000000000000000000000000000000000000000000000000000000000000000000000000002585700000000008570000000000000   110319             00000000000000                                                                  000099
102122445950001000000009034510032549PREGTIT25323627571579     000000000000594707200000000000000000000000000906080319000594707200000000000059470720110319000000000500003301258  000000000000000000000000000000000000000000000000000000000000000000000000000000000000000500000000000000000000000000000   110319             00000000000000                                                                  000100
102122445950001000000009034510032549PREGTIT25481543904273     000000000000594756760000000000000000000000000906080319000594756700000000000059475676110319000000000800034109926  000000000000000000000000000000000000000000000000000000000000000000000000000000000000000800000000000000000000000000000   110319             00000000000000                                                                  000101
102122445950001000000009034510032549PREGTIT24541185743353     000000000000594867910000000000000000000000000906080319000594867900000000000059486791280219000000004200010404116  000000000000000000000000000000000000000000000000000000000000000000000000000000000000004306400000000010640000000000000   110319             00000000000000                                                                  000102
102122445950001000000009034510032549PREGTIT25216533394112     000000000000594965330000000000000000000000000906080319000594965300000000000059496533100319000000019500000107822  000000000000000000000000000000000000000000000000000000000000000000000000000000000000019500000000000000000000000000000   110319             00000000000000                                                                  000103
102122445950001000000009034510032549PREGTIT25214831697261     000000000000594992490000000000000000000000000906080319000594992400000000000059499249100319000000003000000107822  000000000000000000000000000000000000000000000000000000000000000000000000000000000000003000000000000000000000000000000   110319             00000000000000                                                                  000104
102122445950001000000009034510032549PREGTIT24434012082860     000000000000595091630000000000000000000000000906080319000595091600000000000059509163260219000000001533323705745  000000000000000000000000000000000000000000000000000000000000000000000000000000000000001573900000000004060000000000000   110319             00000000000000                                                                  000105
102122445950001000000009034510032549PREGTIT25435755915856     000000000000595682400000000000000000000000000906080319000595682400000000000059568240120319000000000740010402295  000000000000000000000000000000000000000000000000000000000000000000000000000000000000000740000000000000000000000000000   110319             00000000000000                                                                  000106
102122445950001000000009034510032549PREGTIT25546170761187     000000000000595698750000000000000000000000000906080319000595698700000000000059569875150319000000001200010400016  000000000000000000000000000000000000000000000000000000000000000000000000000000000000001200000000000000000000000000000   110319             00000000000000                                                                  000107
102122445950001000000009034510032549PREGTIT26088238269930     000000000000595721750000000000000000000000000906080319000595721700000000000059572175200319000000002700010401681  000000000000000000000000000000000000000000000000000000000000000000000000000000000000002700000000000000000000000000000   110319             00000000000000                                                                  000108
102122445950001000000009034510032549PREGTIT24547333028175     000000000000595750420000000000000000000000000906080319000595750400000000000059575042010319000000001480010401918  000000000000000000000000000000000000000000000000000000000000000000000000000000000000001516600000000003660000000000000   110319             00000000000000                                                                  000109
102122445950001000000009034510032549PREGTIT26192868508108     000000000000595804960000000000000000000000000906080319000595804900000000000059580496230319000000000900010404039  000000000000000000000000000000000000000000000000000000000000000000000000000000000000000900000000000000000000000000000   110319             00000000000000                                                                  000110
102122445950001000000009034510032549PREGTIT25435409940733     000000000000595859940000000000000000000000000906080319000595859900000000000059585994120319000000003660023706250  000000000000000000000000000000000000000000000000000000000000000000000000000000000000003660000000000000000000000000000   110319             00000000000000                                                                  000111
102122445950001000000009034510032549PREGTIT24888598636653     000000000000595882760000000000000000000000000906080319000595882700000000000059588276050319000000001000010404399  000000000000000000000000000000000000000000000000000000000000000000000000000000000000001022100000000002210000000000000   110319             00000000000000                                                                  000112
102122445950001000000009034510032549PREGTIT24666561076512     000000000000595894180000000000000000000000000906080319000595894100000000000059589418030319000000003870610403052  000000000000000000000000000000000000000000000000000000000000000000000000000000000000003961000000000009040000000000000   110319             00000000000000                                                                  000113
102122445950001000000009034510032549PREGTIT25214127394188     000000000000596028800000000000000000000000000906080319000596028800000000000059602880100319000000002800000103263  000000000000000000000000000000000000000000000000000000000000000000000000000000000000002800000000000000000000000000000   110319             00000000000000                                                                  000114
102122445950001000000009034510032549PREGTIT27052315058049     000000000000596038950000000000000000000000000906080319000596038900000000000059603895020419000000000600010400406  000000000000000000000000000000000000000000000000000000000000000000000000000000000000000600000000000000000000000000000   110319             00000000000000                                                                  000115
102122445950001000000009034510032549PREGTIT25217531641622     000000000000596052430000000000000000000000000906080319000596052400000000000059605243100319000000000650003300090  000000000000000000000000000000000000000000000000000000000000000000000000000000000000000650000000000000000000000000000   110319             00000000000000                                                                  000116
102122445950001000000009034510032549PREGTIT24997033570930     000000000000596576420000000000000000000000000906080319000596576400000000000059657642070319000000000623710403753  000000000000000000000000000000000000000000000000000000000000000000000000000000000000000636500000000001280000000000000   110319             00000000000000                                                                  000117
102122445950001000000009034510032549PREGTIT25218863381880     000000000000596597340000000000000000000000000906080319000596597300000000000059659734100319000000000540910403753  000000000000000000000000000000000000000000000000000000000000000000000000000000000000000540900000000000000000000000000   110319             00000000000000                                                                  000118
102122445950001000000009034510032549PREGTIT24098694775870     000000000000596665950000000000000000000000000906080319000596665900000000000059666595220219000000002393200104302  000000000000000000000000000000000000000000000000000000000000000000000000000000000000002463400000000007020000000000000   110319             00000000000000                                                                  000119
102122445950001000000009034510032549PREGTIT24889893759985     000000000000596677530000000000000000000000000906080319000596677500000000000059667753050319000000001200010400376  000000000000000000000000000000000000000000000000000000000000000000000000000000000000001226400000000002640000000000000   110319             00000000000000                                                                  000120
102122445950001000000009034510032549PREGTIT25545291195971     000000000000596689970000000000000000000000000906080319000596689900000000000059668997130319000000002000010401227  000000000000000000000000000000000000000000000000000000000000000000000000000000000000002000000000000000000000000000000   110319             00000000000000                                                                  000121
102122445950001000000009034510032549PREGTIT23562619825601     000000000000596703120000000000000000000000000906080319000596703100000000000059670312130219000000003333323702125  000000000000000000000000000000000000000000000000000000000000000000000000000000000000003450500000000011720000000000000   110319             00000000000000                                                                  000122
102122445950001000000009034510032549PREGTIT26087747712876     000000000000596823100000000000000000000000000906080319000596823100000000000059682310200319000000005000000105712  000000000000000000000000000000000000000000000000000000000000000000000000000000000000005000000000000000000000000000000   110319             00000000000000                                                                  000123
102122445950001000000009034510032549PREGTIT25437455271569     000000000000596830070000000000000000000000000906080319000596830000000000000059683007120319000000001000000103263  000000000000000000000000000000000000000000000000000000000000000000000000000000000000001000000000000000000000000000000   110319             00000000000000                                                                  000124
102122445950001000000009034510032549PREGTIT24881724839371     000000000000596917940000000000000000000000000906080319000596917900000000000059691794050319000000004300010400655  000000000000000000000000000000000000000000000000000000000000000000000000000000000000004394700000000009470000000000000   110319             00000000000000                                                                  000125
102122445950001000000009034510032549PREGTIT25212131473529     000000000000596918670000000000000000000000000906080319000596918600000000000059691867100319000000002400023700520  000000000000000000000000000000000000000000000000000000000000000000000000000000000000002400000000000000000000000000000   110319             00000000000000                                                                  000126
102122445950001000000009034510032549PREGTIT24862645288788     000000000000596932740000000000000000000000000906080319000596932700000000000059693274030319000000001522503300950  000000000000000000000000000000000000000000000000000000000000000000000000000000000000001557900000000003540000000000000   110319             00000000000000                                                                  000127
102122445950001000000009034510032549PREGTIT25121295393990     000000000000596971800000000000000000000000000906080319000596971800000000000059697180060319000000005374000102600  000000000000000000000000000000000000000000000000000000000000000000000000000000000000005488600000000011460000000000000   110319             00000000000000                                                                  000128
102122445950001000000009034510032549PREGTIT25147609262317     000000000000596974070000000000000000000000000906080319000596974000000000000059697407080319000000001000003300773  000000000000000000000000000000000000000000000000000000000000000000000000000000000000001000000000000000000000000000000   110319             00000000000000                                                                  000129
102122445950001000000009034510032549PREGTIT25152534509135     0000000000005969744P000000000000000000000000090608031900059697440000000000005969744P080319000000000865074800718  000000000000000000000000000000000000000000000000000000000000000000000000000000000000000865000000000000000000000000000   110319             00000000000000                                                                  000130
102122445950001000000009034510032549PREGTIT25316261971642     000000000000597003780000000000000000000000000906080319000597003700000000000059700378100319000000003300034108751  000000000000000000000000000000000000000000000000000000000000000000000000000000000000003300000000000000000000000000000   110319             00000000000000                                                                  000131
102122445950001000000009034510032549PREGTIT25356847205758     0000000000005970134P000000000000000000000000090608031900059701340000000000005970134P100319000000002825023702405  000000000000000000000000000000000000000000000000000000000000000000000000000000000000002825000000000000000000000000000   110319             00000000000000                                                                  000132
102122445950001000000009034510032549PREGTIT25487215532134     000000000000597528580000000000000000000000000906080319000597528500000000000059752858100319000000006150010403493  000000000000000000000000000000000000000000000000000000000000000000000000000000000000006150000000000000000000000000000   110319             00000000000000                                                                  000133
102122445950001000000009034510032549PREGTIT27717864402424     000000000000597546480000000000000000000000000906080319000597546400000000000059754648100419000000000501310403753  000000000000000000000000000000000000000000000000000000000000000000000000000000000000000501300000000000000000000000000   110319             00000000000000                                                                  000134
102122445950001000000009034510032549PREGTIT26474356567495     000000000000597724920000000000000000000000000906080319000597724900000000000059772492080319000000004969010403521  000000000000000000000000000000000000000000000000000000000000000000000000000000000000004969000000000000000000000000000   110319             00000000000000                                                                  000135
102122445950001000000009034510032549PREGTIT26587568396718     000000000000597747110000000000000000000000000906080319000597747100000000000059774711100319000000005000004100844  000000000000000000000000000000000000000000000000000000000000000000000000000000000000005000000000000000000000000000000   110319             00000000000000                                                                  000136
102122445950001000000009034510032549PREGTIT27349032997815     000000000000597858020000000000000000000000000906080319000597858000000000000059785802100319000000001000010402272  000000000000000000000000000000000000000000000000000000000000000000000000000000000000001000000000000000000000000000000   110319             00000000000000                                                                  000137
102122445950001000000009034510032549PREGTIT27365100129072     0000000000005978606P000000000000000000000000090608031900059786060000000000005978606P100319000000000762774800718  000000000000000000000000000000000000000000000000000000000000000000000000000000000000000762700000000000000000000000000   110319             00000000000000                                                                  000138
102122445950001000000009034510032549PREGTIT27712761039017     000000000000597914110000000000000000000000000906080319000597914100000000000059791411080319000000003790023703451  000000000000000000000000000000000000000000000000000000000000000000000000000000000000003790000000000000000000000000000   110319             00000000000000                                                                  000139
102122445950001000000009034510032549PREGTIT27796327203387     000000000000598422290000000000000000000000000906080319000598422200000000000059842229080319000000004975034103858  000000000000000000000000000000000000000000000000000000000000000000000000000000000000004975000000000000000000000000000   110319             00000000000000                                                                  000140
102122445950001000000009034510032549PREGTIT28042307875251     000000000000598476110000000000000000000000000906080319000598476100000000000059847611080319000000001940034101338  000000000000000000000000000000000000000000000000000000000000000000000000000000000000001940000000000000000000000000000   110319             00000000000000                                                                  000141
102122445950001000000009034510032549PREGTIT28057518281390     000000000000598477270000000000000000000000000906080319000598477200000000000059847727080319000000000250034101338  000000000000000000000000000000000000000000000000000000000000000000000000000000000000000250000000000000000000000000000   110319             00000000000000                                                                  000142
102122445950001000000009034510032549PREGTIT28054158010313     000000000000598477940000000000000000000000000906080319000598477900000000000059847794080319000000002900034101338  000000000000000000000000000000000000000000000000000000000000000000000000000000000000002900000000000000000000000000000   110319             00000000000000                                                                  000143
102122445950001000000009034510032549PREGTIT28257265407463     000000000000598512950000000000000000000000000906080319000598512900000000000059851295100319000000000282510403753  000000000000000000000000000000000000000000000000000000000000000000000000000000000000000282500000000000000000000000000   110319             00000000000000                                                                  000144
102122445950001000000009034510032549PREGTIT28388223814521     0000000000005985376P000000000000000000000000090608031900059853760000000000005985376P200319000000000800003301319  000000000000000000000000000000000000000000000000000000000000000000000000000000000000000800000000000000000000000000000   110319             00000000000000                                                                  000145
102122445950001000000009034510032549PREGTIT28864294278704     0000000000005985961P000000000000000000000000090608031900059859610000000000005985961P080319000000003966600103433  000000000000000000000000000000000000000000000000000000000000000000000000000000000000003966600000000000000000000000000   110319             00000000000000                                                                  000146
102122445950001000000009034510032549PREGTIT29127533022873     000000000000598627180000000000000000000000000906080319000598627100000000000059862718100319000000001125010402195  000000000000000000000000000000000000000000000000000000000000000000000000000000000000001125000000000000000000000000000   110319             00000000000000                                                                  000147
102122445950001000000009034510032549PREGTIT29187500259495     0000000000005986320P000000000000000000000000090608031900059863200000000000005986320P080319000000003450034103835  000000000000000000000000000000000000000000000000000000000000000000000000000000000000003450000000000000000000000000000   110319             00000000000000                                                                  000148
102122445950001000000009034510032549PREGTIT29308080138584     000000000000598642490000000000000000000000000906080319000598642400000000000059864249080319000000059400023705710  000000000000000000000000000000000000000000000000000000000000000000000000000000000000059400000000000000000000000000000   110319             00000000000000                                                                  000149
102122445950001000000009034510032549PREGTIT29344241990840     000000000000598646480000000000000000000000000906080319000598646400000000000059864648110319000000031000000107832  000000000000000000000000000000000000000000000000000000000000000000000000000000000000031000000000000000000000000000000   110319             00000000000000                                                                  000150
102122445950001000000009034510032549PREGTIT29662446022985     000000000000598662170000000000000000000000000906080319000598662100000000000059866217080319000000008376000103007  000000000000000000000000000000000000000000000000000000000000000000000000000000000000008376000000000000000000000000000   110319             00000000000000                                                                  000151
102122445950001000000009034510032549PREGTIT25545378685974     000000000000590145040000000000000000000000000909080319000590145000000000000059014504150319000000030050023704150  000000000000000000000000000000000000000000000000000000000000000000000000000000000000000000000000000000000000000000000                          0000000000                                                                  000152
102122445950001000000009034510032549PREGTIT28035378685974     000000000000590145120000000000000000000000000909080319000590145100000000000059014512150419000000030050023704150  000000000000000000000000000000000000000000000000000000000000000000000000000000000000000000000000000000000000000000000                          0000000000                                                                  000153
102122445950001000000009034510032549PREGTIT24995953850907     000000000000590921810000000000000000000000000909080319000590921800000000000059092181070319000000001312523704150  000000000000000000000000000000000000000000000000000000000000000000000000000000000000000000000000000000000000000000000                          0000000000                                                                  000154
102122445950001000000009034510032549PREGTIT25129147849968     000000000000592085970000000000000000000000000909080319000592085900000000000059208597060319000000000928623704150  000000000000000000000000000000000000000000000000000000000000000000000000000000000000000000000000000000000000000000000                          0000000000                                                                  000155
102122445950001000000009034510032549PREGTIT25215755425923     000000000000592097040000000000000000000000000909080319000592097000000000000059209704100319000000000480023704150  000000000000000000000000000000000000000000000000000000000000000000000000000000000000000000000000000000000000000000000                          0000000000                                                                  000156
102122445950001000000009034510032549PREGTIT23244712779381     000000000000592843900000000000000000000000000909080319000592843900000000000059284390100219000000000495523704150  000000000000000000000000000000000000000000000000000000000000000000000000000000000000000000000000000000000000000000000                          0000000000                                                                  000157
102122445950001000000009034510032549PREGTIT25214712779381     000000000000592844040000000000000000000000000909080319000592844000000000000059284404100319000000000495523704150  000000000000000000000000000000000000000000000000000000000000000000000000000000000000000000000000000000000000000000000                          0000000000                                                                  000158
102122445950001000000009034510032549PREGTIT25211581550944     000000000000593150830000000000000000000000000909080319000593150800000000000059315083100319000000000775023704150  000000000000000000000000000000000000000000000000000000000000000000000000000000000000000000000000000000000000000000000                          0000000000                                                                  000159
102122445950001000000009034510032549PREGTIT25548712547591     000000000000593765380000000000000000000000000909080319000593765300000000000059376538150319000000002666723704150  000000000000000000000000000000000000000000000000000000000000000000000000000000000000000000000000000000000000000000000                          0000000000                                                                  000160
102122445950001000000009034510032549PREGTIT25126518410791     000000000000593913910000000000000000000000000909080319000593913900000000000059391391080319000000000800023704150  000000000000000000000000000000000000000000000000000000000000000000000000000000000000000000000000000000000000000000000                          0000000000                                                                  000161
102122445950001000000009034510032549PREGTIT25211191852634     000000000000594098510000000000000000000000000909080319000594098500000000000059409851100319000000002000023704150  000000000000000000000000000000000000000000000000000000000000000000000000000000000000000000000000000000000000000000000                          0000000000                                                                  000162
102122445950001000000009034510032549PREGTIT24881651650215     000000000000594099080000000000000000000000000909080319000594099000000000000059409908050319000000001300023704150  000000000000000000000000000000000000000000000000000000000000000000000000000000000000000000000000000000000000000000000                          0000000000                                                                  000163
102122445950001000000009034510032549PREGTIT25129625715468     000000000000594114490000000000000000000000000909080319000594114400000000000059411449060319000000001333323704150  000000000000000000000000000000000000000000000000000000000000000000000000000000000000000000000000000000000000000000000                          0000000000                                                                  000164
102122445950001000000009034510032549PREGTIT23664621170291     000000000000594766210000000000000000000000000909080319000594766200000000000059476621160219000000001750023704150  000000000000000000000000000000000000000000000000000000000000000000000000000000000000000000000000000000000000000000000                          0000000000                                                                  000165
102122445950001000000009034510032549PREGTIT24549125892043     000000000000594841790000000000000000000000000909080319000594841700000000000059484179280219000000001200023704150  000000000000000000000000000000000000000000000000000000000000000000000000000000000000000000000000000000000000000000000                          0000000000                                                                  000166
102122445950001000000009034510032549PREGTIT24549368721557     000000000000594926270000000000000000000000000909080319000594926200000000000059492627280219000000001500023704150  000000000000000000000000000000000000000000000000000000000000000000000000000000000000000000000000000000000000000000000                          0000000000                                                                  000167
102122445950001000000009034510032549PREGTIT23245283325422     000000000000594945730000000000000000000000000909080319000594945700000000000059494573100219000000000479823704150  000000000000000000000000000000000000000000000000000000000000000000000000000000000000000000000000000000000000000000000                          0000000000                                                                  000168
102122445950001000000009034510032549PREGTIT25215283325422     000000000000594945810000000000000000000000000909080319000594945800000000000059494581100319000000000479823704150  000000000000000000000000000000000000000000000000000000000000000000000000000000000000000000000000000000000000000000000                          0000000000                                                                  000169
102122445950001000000009034510032549PREGTIT24887316955241     000000000000594949990000000000000000000000000909080319000594949900000000000059494999050319000000001100023704150  000000000000000000000000000000000000000000000000000000000000000000000000000000000000000000000000000000000000000000000                          0000000000                                                                  000170
102122445950001000000009034510032549PREGTIT24886921702954     000000000000595036880000000000000000000000000909080319000595036800000000000059503688050319000000001600023704150  000000000000000000000000000000000000000000000000000000000000000000000000000000000000000000000000000000000000000000000                          0000000000                                                                  000171
102122445950001000000009034510032549PREGTIT23037909129083     000000000000595093330000000000000000000000000909080319000595093300000000000059509333070219000000001600023704150  000000000000000000000000000000000000000000000000000000000000000000000000000000000000000000000000000000000000000000000                          0000000000                                                                  000172
102122445950001000000009034510032549PREGTIT25124003952340     000000000000595106920000000000000000000000000909080319000595106900000000000059510692060319000000000500023704150  000000000000000000000000000000000000000000000000000000000000000000000000000000000000000000000000000000000000000000000                          0000000000                                                                  000173
102122445950001000000009034510032549PREGTIT25217942639059     000000000000595714110000000000000000000000000909080319000595714100000000000059571411100319000000001500023704150  000000000000000000000000000000000000000000000000000000000000000000000000000000000000000000000000000000000000000000000                          0000000000                                                                  000174
102122445950001000000009034510032549PREGTIT23247810687882     000000000000595733090000000000000000000000000909080319000595733000000000000059573309100219000000002450023704150  000000000000000000000000000000000000000000000000000000000000000000000000000000000000000000000000000000000000000000000                          0000000000                                                                  000175
102122445950001000000009034510032549PREGTIT23245380694207     000000000000595884970000000000000000000000000909080319000595884900000000000059588497100219000000001916723704150  000000000000000000000000000000000000000000000000000000000000000000000000000000000000000000000000000000000000000000000                          0000000000                                                                  000176
102122445950001000000009034510032549PREGTIT23564611804621     000000000000596578630000000000000000000000000909080319000596578600000000000059657863150219000000001400023704150  000000000000000000000000000000000000000000000000000000000000000000000000000000000000000000000000000000000000000000000                          0000000000                                                                  000177
102122445950001000000009034510032549PREGTIT25215173591367     000000000000596580370000000000000000000000000909080319000596580300000000000059658037100319000000000646523704150  000000000000000000000000000000000000000000000000000000000000000000000000000000000000000000000000000000000000000000000                          0000000000                                                                  000178
102122445950001000000009034510032549PREGTIT24889777816571     000000000000596601630000000000000000000000000909080319000596601600000000000059660163050319000000002200023704150  000000000000000000000000000000000000000000000000000000000000000000000000000000000000000000000000000000000000000000000                          0000000000                                                                  000179
102122445950001000000009034510032549PREGTIT24095878415782     000000000000596726410000000000000000000000000909080319000596726400000000000059672641210219000000001089523704150  000000000000000000000000000000000000000000000000000000000000000000000000000000000000000000000000000000000000000000000                          0000000000                                                                  000180
102122445950001000000009034510032549PREGTIT24055467718206     000000000000596834650000000000000000000000000909080319000596834600000000000059683465190219000000001300023704150  000000000000000000000000000000000000000000000000000000000000000000000000000000000000000000000000000000000000000000000                          0000000000                                                                  000181
102122445950001000000009034510032549PREGTIT25214499628614     000000000000596853870000000000000000000000000909080319000596853800000000000059685387100319000000002600023704150  000000000000000000000000000000000000000000000000000000000000000000000000000000000000000000000000000000000000000000000                          0000000000                                                                  000182
102122445950001000000009034510032549PREGTIT24543347192808     0000000000005969100P000000000000000000000000090908031900059691000000000000005969100P280219000000001125023704150  000000000000000000000000000000000000000000000000000000000000000000000000000000000000000000000000000000000000000000000                          0000000000                                                                  000183
102122445950001000000009034510032549PREGTIT26733347192808     000000000000596910180000000000000000000000000909080319000596910100000000000059691018300319000000001125023704150  000000000000000000000000000000000000000000000000000000000000000000000000000000000000000000000000000000000000000000000                          0000000000                                                                  000184
102122445950001000000009034510032549PREGTIT24995015780673     000000000000596910420000000000000000000000000909080319000596910400000000000059691042080319000000000305823704150  000000000000000000000000000000000000000000000000000000000000000000000000000000000000000000000000000000000000000000000                          0000000000                                                                  000185
102122445950001000000009034510032549PREGTIT24994430865343     0000000000005969260P000000000000000000000000090908031900059692600000000000005969260P060319000000001500023704150  000000000000000000000000000000000000000000000000000000000000000000000000000000000000000000000000000000000000000000000                          0000000000                                                                  000186
102122445950001000000009034510032549PREGTIT24992857706687     000000000000596948230000000000000000000000000909080319000596948200000000000059694823080319000000002993423704150  000000000000000000000000000000000000000000000000000000000000000000000000000000000000000000000000000000000000000000000                          0000000000                                                                  000187
102122445950001000000009034510032549PREGTIT25216797620132     000000000000596979890000000000000000000000000909080319000596979800000000000059697989100319000000003750023704150  000000000000000000000000000000000000000000000000000000000000000000000000000000000000000000000000000000000000000000000                          0000000000                                                                  000188
102122445950001000000009034510032549PREGTIT25685548949158     000000000000597569180000000000000000000000000909080319000597569100000000000059756918250219000000001540023704150  000000000000000000000000000000000000000000000000000000000000000000000000000000000000000000000000000000000000000000000                          0000000000                                                                  000189
102122445950001000000009034510032549PREGTIT25755880686934     000000000000597586000000000000000000000000000909080319000597586000000000000059758600150219000000000794323704150  000000000000000000000000000000000000000000000000000000000000000000000000000000000000000000000000000000000000000000000                          0000000000                                                                  000190
102122445950001000000009034510032549PREGTIT26738971854659     000000000000597735020000000000000000000000000909080319000597735000000000000059773502300319000000002200023704150  000000000000000000000000000000000000000000000000000000000000000000000000000000000000000000000000000000000000000000000                          0000000000                                                                  000191
102122445950001000000009034510032549PREGTIT29238971854659     000000000000597735100000000000000000000000000909080319000597735100000000000059773510300419000000002200023704150  000000000000000000000000000000000000000000000000000000000000000000000000000000000000000000000000000000000000000000000                          0000000000                                                                  000192
102122445950001000000009034510032549PREGTIT27057550463357     000000000000597810090000000000000000000000000909080319000597810000000000000059781009310319000000006000023704150  000000000000000000000000000000000000000000000000000000000000000000000000000000000000000000000000000000000000000000000                          0000000000                                                                  000193
102122445950001000000009034510032549PREGTIT29237550463357     000000000000597810170000000000000000000000000909080319000597810100000000000059781017300419000000006000023704150  000000000000000000000000000000000000000000000000000000000000000000000000000000000000000000000000000000000000000000000                          0000000000                                                                  000194
102122445950001000000009034510032549PREGTIT27064391012067     000000000000597812540000000000000000000000000909080319000597812500000000000059781254080319000000003200023704150  000000000000000000000000000000000000000000000000000000000000000000000000000000000000000000000000000000000000000000000                          0000000000                                                                  000195
102122445950001000000009034510032549PREGTIT27078673894521     000000000000597817260000000000000000000000000909080319000597817200000000000059781726100319000000002320023704150  000000000000000000000000000000000000000000000000000000000000000000000000000000000000000000000000000000000000000000000                          0000000000                                                                  000196
102122445950001000000009034510032549PREGTIT27718933502990     000000000000598413890000000000000000000000000909080319000598413800000000000059841389030419000000000636323704150  000000000000000000000000000000000000000000000000000000000000000000000000000000000000000000000000000000000000000000000                          0000000000                                                                  000197
102122445950001000000009034510032549PREGTIT29685937259097     000000000000598662250000000000000000000000000909080319000598662200000000000059866225110319000000001893223704150  000000000000000000000000000000000000000000000000000000000000000000000000000000000000000000000000000000000000000000000                          0000000000                                                                  000198
102122445950001000000009034510032549PREGTIT29873093308206     000000000000584246600000000000000000000000000927080319000584246600000000000058424660210319000000002000023700000  000000000000000000000000000000000000000000000000000000000000000000000000000000000000000000000000000000000000000000000                          6000000000                                                                  000199
102122445950001000000009034510032549PREGTIT29878081524028     000000000000586944470000000000000000000000000927080319000586944400000000000058694447100219000000001000023700000  000000000000000000000000000000000000000000000000000000000000000000000000000000000000000000000000000000000000000000000                          6000000000                                                                  000200
102122445950001000000009034510032549PREGTIT29878307268218     000000000000590066410000000000000000000000000927080319000590066400000000000059006641280219000000000460023700000  000000000000000000000000000000000000000000000000000000000000000000000000000000000000000000000000000000000000000000000                          6000000000                                                                  000201
102122445950001000000009034510032549PREGTIT29878307268218     0000000000005900665P000000000000000000000000092708031900059006650000000000005900665P280319000000000460023700000  000000000000000000000000000000000000000000000000000000000000000000000000000000000000000000000000000000000000000000000                          6000000000                                                                  000202
102122445950001000000009034510032549PREGTIT29915378685974     000000000000590145040000000000000000000000000927080319000590145000000000000059014504150319000000030050023700000  000000000000000000000000000000000000000000000000000000000000000000000000000000000000000000000000000000000000000000000                          6000000000                                                                  000203
102122445950001000000009034510032549PREGTIT29915378685974     000000000000590145120000000000000000000000000927080319000590145100000000000059014512150419000000030050023700000  000000000000000000000000000000000000000000000000000000000000000000000000000000000000000000000000000000000000000000000                          6000000000                                                                  000204
102122445950001000000009034510032549PREGTIT29873169207399     000000000000591132190000000000000000000000000927080319000591132100000000000059113219100319000000000700023700000  000000000000000000000000000000000000000000000000000000000000000000000000000000000000000000000000000000000000000000000                          6000000000                                                                  000205
102122445950001000000009034510032549PREGTIT29875443477622     000000000000591714210000000000000000000000000927080319000591714200000000000059171421130319000000000411323700000  000000000000000000000000000000000000000000000000000000000000000000000000000000000000000000000000000000000000000000000                          6000000000                                                                  000206
102122445950001000000009034510032549PREGTIT29872563638062     000000000000591858800000000000000000000000000927080319000591858800000000000059185880150319000000005600023700000  000000000000000000000000000000000000000000000000000000000000000000000000000000000000000000000000000000000000000000000                          6000000000                                                                  000207
102122445950001000000009034510032549PREGTIT29899147849968     000000000000592085970000000000000000000000000927080319000592085900000000000059208597060319000000000928623700000  000000000000000000000000000000000000000000000000000000000000000000000000000000000000000000000000000000000000000000000                          6000000000                                                                  000208
102122445950001000000009034510032549PREGTIT29935755425923     000000000000592097040000000000000000000000000927080319000592097000000000000059209704100319000000000480023700000  000000000000000000000000000000000000000000000000000000000000000000000000000000000000000000000000000000000000000000000                          6000000000                                                                  000209
102122445950001000000009034510032549PREGTIT29874237266311     000000000000592598680000000000000000000000000927080319000592598600000000000059259868090319000000000400523700000  000000000000000000000000000000000000000000000000000000000000000000000000000000000000000000000000000000000000000000000                          6000000000                                                                  000210
102122445950001000000009034510032549PREGTIT29877486579236     000000000000592632020000000000000000000000000927080319000592632000000000000059263202150219000000004500023700000  000000000000000000000000000000000000000000000000000000000000000000000000000000000000000000000000000000000000000000000                          6000000000                                                                  000211
102122445950001000000009034510032549PREGTIT29874296081575     000000000000592680770000000000000000000000000927080319000592680700000000000059268077150219000000003460023700000  000000000000000000000000000000000000000000000000000000000000000000000000000000000000000000000000000000000000000000000                          6000000000                                                                  000212
102122445950001000000009034510032549PREGTIT29875788222257     000000000000592772620000000000000000000000000927080319000592772600000000000059277262150219000000001083523700000  000000000000000000000000000000000000000000000000000000000000000000000000000000000000000000000000000000000000000000000                          6000000000                                                                  000213
102122445950001000000009034510032549PREGTIT29944712779381     000000000000592843900000000000000000000000000927080319000592843900000000000059284390100219000000000495523700000  000000000000000000000000000000000000000000000000000000000000000000000000000000000000000000000000000000000000000000000                          6000000000                                                                  000214
102122445950001000000009034510032549PREGTIT29944712779381     000000000000592844040000000000000000000000000927080319000592844000000000000059284404100319000000000495523700000  000000000000000000000000000000000000000000000000000000000000000000000000000000000000000000000000000000000000000000000                          6000000000                                                                  000215
102122445950001000000009034510032549PREGTIT29891581550944     000000000000593150830000000000000000000000000927080319000593150800000000000059315083100319000000000775023700000  000000000000000000000000000000000000000000000000000000000000000000000000000000000000000000000000000000000000000000000                          6000000000                                                                  000216
102122445950001000000009034510032549PREGTIT29968712547591     000000000000593765380000000000000000000000000927080319000593765300000000000059376538150319000000002666723700000  000000000000000000000000000000000000000000000000000000000000000000000000000000000000000000000000000000000000000000000                          6000000000                                                                  000217
102122445950001000000009034510032549PREGTIT29976518410791     000000000000593913910000000000000000000000000927080319000593913900000000000059391391080319000000000800023700000  000000000000000000000000000000000000000000000000000000000000000000000000000000000000000000000000000000000000000000000                          6000000000                                                                  000218
102122445950001000000009034510032549PREGTIT29873624628682     000000000000593994570000000000000000000000000927080319000593994500000000000059399457280219000000001250023700000  000000000000000000000000000000000000000000000000000000000000000000000000000000000000000000000000000000000000000000000                          6000000000                                                                  000219
102122445950001000000009034510032549PREGTIT29876038185792     000000000000594062320000000000000000000000000927080319000594062300000000000059406232100319000000001250023700000  000000000000000000000000000000000000000000000000000000000000000000000000000000000000000000000000000000000000000000000                          6000000000                                                                  000220
102122445950001000000009034510032549PREGTIT29881191852634     000000000000594098510000000000000000000000000927080319000594098500000000000059409851100319000000002000023700000  000000000000000000000000000000000000000000000000000000000000000000000000000000000000000000000000000000000000000000000                          6000000000                                                                  000221
102122445950001000000009034510032549PREGTIT29979625715468     000000000000594114490000000000000000000000000927080319000594114400000000000059411449060319000000001333323700000  000000000000000000000000000000000000000000000000000000000000000000000000000000000000000000000000000000000000000000000                          6000000000                                                                  000222
102122445950001000000009034510032549PREGTIT29875559749719     000000000000594670450000000000000000000000000927080319000594670400000000000059467045100319000000000688623700000  000000000000000000000000000000000000000000000000000000000000000000000000000000000000000000000000000000000000000000000                          6000000000                                                                  000223
102122445950001000000009034510032549PREGTIT29878230935393     000000000000594674520000000000000000000000000927080319000594674500000000000059467452200219000000001950023700000  000000000000000000000000000000000000000000000000000000000000000000000000000000000000000000000000000000000000000000000                          6000000000                                                                  000224
102122445950001000000009034510032549PREGTIT29879077754273     000000000000594719050000000000000000000000000927080319000594719000000000000059471905100219000000001500023700000  000000000000000000000000000000000000000000000000000000000000000000000000000000000000000000000000000000000000000000000                          6000000000                                                                  000225
102122445950001000000009034510032549PREGTIT29879160407893     000000000000594763620000000000000000000000000927080319000594763600000000000059476362080219000000001337523700000  000000000000000000000000000000000000000000000000000000000000000000000000000000000000000000000000000000000000000000000                          6000000000                                                                  000226
102122445950001000000009034510032549PREGTIT29964621170291     000000000000594766210000000000000000000000000927080319000594766200000000000059476621160219000000001750023700000  000000000000000000000000000000000000000000000000000000000000000000000000000000000000000000000000000000000000000000000                          6000000000                                                                  000227
102122445950001000000009034510032549PREGTIT29899125892043     000000000000594841790000000000000000000000000927080319000594841700000000000059484179280219000000001200023700000  000000000000000000000000000000000000000000000000000000000000000000000000000000000000000000000000000000000000000000000                          6000000000                                                                  000228
102122445950001000000009034510032549PREGTIT29877307069458     000000000000594846400000000000000000000000000927080319000594846400000000000059484640220219000000003250023700000  000000000000000000000000000000000000000000000000000000000000000000000000000000000000000000000000000000000000000000000                          6000000000                                                                  000229
102122445950001000000009034510032549PREGTIT29871298833485     000000000000594876740000000000000000000000000927080319000594876700000000000059487674100319000000002720023700000  000000000000000000000000000000000000000000000000000000000000000000000000000000000000000000000000000000000000000000000                          6000000000                                                                  000230
102122445950001000000009034510032549PREGTIT29899368721557     000000000000594926270000000000000000000000000927080319000594926200000000000059492627280219000000001500023700000  000000000000000000000000000000000000000000000000000000000000000000000000000000000000000000000000000000000000000000000                          6000000000                                                                  000231
102122445950001000000009034510032549PREGTIT29871196051049     000000000000594940420000000000000000000000000927080319000594940400000000000059494042010319000000001062523700000  000000000000000000000000000000000000000000000000000000000000000000000000000000000000000000000000000000000000000000000                          6000000000                                                                  000232
102122445950001000000009034510032549PREGTIT29945283325422     000000000000594945730000000000000000000000000927080319000594945700000000000059494573100219000000000479823700000  000000000000000000000000000000000000000000000000000000000000000000000000000000000000000000000000000000000000000000000                          6000000000                                                                  000233
102122445950001000000009034510032549PREGTIT29945283325422     000000000000594945810000000000000000000000000927080319000594945800000000000059494581100319000000000479823700000  000000000000000000000000000000000000000000000000000000000000000000000000000000000000000000000000000000000000000000000                          6000000000                                                                  000234
102122445950001000000009034510032549PREGTIT29916921702954     000000000000595036880000000000000000000000000927080319000595036800000000000059503688050319000000001600023700000  000000000000000000000000000000000000000000000000000000000000000000000000000000000000000000000000000000000000000000000                          6000000000                                                                  000235
102122445950001000000009034510032549PREGTIT29871257426676     000000000000595065470000000000000000000000000927080319000595065400000000000059506547070319000000001760023700000  000000000000000000000000000000000000000000000000000000000000000000000000000000000000000000000000000000000000000000000                          6000000000                                                                  000236
102122445950001000000009034510032549PREGTIT29871257426676     000000000000595065550000000000000000000000000927080319000595065500000000000059506555070419000000001760023700000  000000000000000000000000000000000000000000000000000000000000000000000000000000000000000000000000000000000000000000000                          6000000000                                                                  000237
102122445950001000000009034510032549PREGTIT29974003952340     000000000000595106920000000000000000000000000927080319000595106900000000000059510692060319000000000500023700000  000000000000000000000000000000000000000000000000000000000000000000000000000000000000000000000000000000000000000000000                          6000000000                                                                  000238
102122445950001000000009034510032549PREGTIT29873755768247     000000000000595682910000000000000000000000000927080319000595682900000000000059568291010319000000000700023700000  000000000000000000000000000000000000000000000000000000000000000000000000000000000000000000000000000000000000000000000                          6000000000                                                                  000239
102122445950001000000009034510032549PREGTIT29897942639059     000000000000595714110000000000000000000000000927080319000595714100000000000059571411100319000000001500023700000  000000000000000000000000000000000000000000000000000000000000000000000000000000000000000000000000000000000000000000000                          6000000000                                                                  000240
102122445950001000000009034510032549PREGTIT29977810687882     000000000000595733090000000000000000000000000927080319000595733000000000000059573309100219000000002450023700000  000000000000000000000000000000000000000000000000000000000000000000000000000000000000000000000000000000000000000000000                          6000000000                                                                  000241
102122445950001000000009034510032549PREGTIT29871782930095     000000000000595735030000000000000000000000000927080319000595735000000000000059573503050319000000002200023700000  000000000000000000000000000000000000000000000000000000000000000000000000000000000000000000000000000000000000000000000                          6000000000                                                                  000242
102122445950001000000009034510032549PREGTIT29878995999015     000000000000595792770000000000000000000000000927080319000595792700000000000059579277150319000000000463523700000  000000000000000000000000000000000000000000000000000000000000000000000000000000000000000000000000000000000000000000000                          6000000000                                                                  000243
102122445950001000000009034510032549PREGTIT29879124265325     000000000000596045490000000000000000000000000927080319000596045400000000000059604549070319000000001500023700000  000000000000000000000000000000000000000000000000000000000000000000000000000000000000000000000000000000000000000000000                          6000000000                                                                  000244
102122445950001000000009034510032549PREGTIT29873920115712     000000000000596061340000000000000000000000000927080319000596061300000000000059606134050319000000000435223700000  000000000000000000000000000000000000000000000000000000000000000000000000000000000000000000000000000000000000000000000                          6000000000                                                                  000245
102122445950001000000009034510032549PREGTIT29955173591367     000000000000596580370000000000000000000000000927080319000596580300000000000059658037100319000000000646523700000  000000000000000000000000000000000000000000000000000000000000000000000000000000000000000000000000000000000000000000000                          6000000000                                                                  000246
102122445950001000000009034510032549PREGTIT29873083870746     000000000000596581340000000000000000000000000927080319000596581300000000000059658134050419000000002760023700000  000000000000000000000000000000000000000000000000000000000000000000000000000000000000000000000000000000000000000000000                          6000000000                                                                  000247
102122445950001000000009034510032549PREGTIT29929777816571     000000000000596601630000000000000000000000000927080319000596601600000000000059660163050319000000002200023700000  000000000000000000000000000000000000000000000000000000000000000000000000000000000000000000000000000000000000000000000                          6000000000                                                                  000248
