02RETORNO01COBRANCA       00000000000004852239ISPCN ADM DE COBRANCA DE TITUL237BRADESCO       2103190160000000608                                                                                                                                                                                                                                                                          220319         000001
102122445950001000000009034510032549PREGTIT30866103634743     000000000000563781650000000000000000000000000902210319000563781600000000000056378165200519000000005000023700408  000000000014300000000000000000000000000000000000000000000000000000000000000000000000000000000000000000000000000000000                          0000000000                                                                  000002
102122445950001000000009034510032549PREGTIT30864994040110     000000000000579709200000000000000000000000000902210319000579709200000000000057970920200519000000002800023704151  000000000014300000000000000000000000000000000000000000000000000000000000000000000000000000000000000000000000000000000                          0000000000                                                                  000003
102122445950001000000009034510032549PREGTIT30866684223823     000000000000582969480000000000000000000000000902210319000582969400000000000058296948200519000000002030023704154  000000000014300000000000000000000000000000000000000000000000000000000000000000000000000000000000000000000000000000000                          0000000000                                                                  000004
102122445950001000000009034510032549PREGTIT30862253188109     000000000000583221160000000000000000000000000902210319000583221100000000000058322116200519000000002030023702397  000000000014300000000000000000000000000000000000000000000000000000000000000000000000000000000000000000000000000000000                          0000000000                                                                  000005
102122445950001000000009034510032549PREGTIT30861321655035     000000000000583222990000000000000000000000000902210319000583222900000000000058322299200519000000002030023704151  000000000014300000000000000000000000000000000000000000000000000000000000000000000000000000000000000000000000000000000                          0000000000                                                                  000006
102122445950001000000009034510032549PREGTIT30866550788866     0000000000005833100P000000000000000000000000090221031900058331000000000000005833100P200519000000001880023704151  000000000014300000000000000000000000000000000000000000000000000000000000000000000000000000000000000000000000000000000                          0000000000                                                                  000007
102122445950001000000009034510032549PREGTIT30866994165509     000000000000583888930000000000000000000000000902210319000583888900000000000058388893200519000000001670023704424  000000000014300000000000000000000000000000000000000000000000000000000000000000000000000000000000000000000000000000000                          0000000000                                                                  000008
102122445950001000000009034510032549PREGTIT30863072578493     000000000000583890750000000000000000000000000902210319000583890700000000000058389075200519000000003620023704152  000000000014300000000000000000000000000000000000000000000000000000000000000000000000000000000000000000000000000000000                          0000000000                                                                  000009
102122445950001000000009034510032549PREGTIT30861164290548     000000000000584689270000000000000000000000000902210319000584689200000000000058468927200519000000003440023704151  000000000014300000000000000000000000000000000000000000000000000000000000000000000000000000000000000000000000000000000                          0000000000                                                                  000010
102122445950001000000009034510032549PREGTIT30861524205124     000000000000585374570000000000000000000000000902210319000585374500000000000058537457200519000000001400023704151  000000000014300000000000000000000000000000000000000000000000000000000000000000000000000000000000000000000000000000000                          0000000000                                                                  000011
102122445950001000000009034510032549PREGTIT30865957856546     0000000000005877243P000000000000000000000000090221031900058772430000000000005877243P200519000000004000023704151  000000000014300000000000000000000000000000000000000000000000000000000000000000000000000000000000000000000000000000000                          0000000000                                                                  000012
102122445950001000000009034510032549PREGTIT30867781272890     000000000000588944380000000000000000000000000902210319000588944300000000000058894438200519000000002500023704151  000000000014300000000000000000000000000000000000000000000000000000000000000000000000000000000000000000000000000000000                          0000000000                                                                  000013
102122445950001000000009034510032549PREGTIT30867053104167     000000000000588989640000000000000000000000000902210319000588989600000000000058898964200519000000003000023704157  000000000014300000000000000000000000000000000000000000000000000000000000000000000000000000000000000000000000000000000                          0000000000                                                                  000014
102122445950001000000009034510032549PREGTIT30868984812270     000000000000589616230000000000000000000000000902210319000589616200000000000058961623200519000000001600023704159  000000000014300000000000000000000000000000000000000000000000000000000000000000000000000000000000000000000000000000000                          0000000000                                                                  000015
102122445950001000000009034510032549PREGTIT30862311458649     000000000000589664550000000000000000000000000902210319000589664500000000000058966455200519000000002250023704151  000000000014300000000000000000000000000000000000000000000000000000000000000000000000000000000000000000000000000000000                          0000000000                                                                  000016
102122445950001000000009034510032549PREGTIT30868837607035     000000000000589711810000000000000000000000000902210319000589711800000000000058971181200519000000001500023704151  000000000014300000000000000000000000000000000000000000000000000000000000000000000000000000000000000000000000000000000                          0000000000                                                                  000017
102122445950001000000009034510032549PREGTIT30866995406353     000000000000590132650000000000000000000000000902210319000590132600000000000059013265200519000000001120023704151  000000000014300000000000000000000000000000000000000000000000000000000000000000000000000000000000000000000000000000000                          0000000000                                                                  000018
102122445950001000000009034510032549PREGTIT30863730018184     000000000000590248010000000000000000000000000902210319000590248000000000000059024801200519000000001300023704159  000000000014300000000000000000000000000000000000000000000000000000000000000000000000000000000000000000000000000000000                          0000000000                                                                  000019
102122445950001000000009034510032549PREGTIT30869292705332     000000000000590874470000000000000000000000000902210319000590874400000000000059087447200519000000001350023704159  000000000014300000000000000000000000000000000000000000000000000000000000000000000000000000000000000000000000000000000                          0000000000                                                                  000020
102122445950001000000009034510032549PREGTIT30869423317735     000000000000590926880000000000000000000000000902210319000590926800000000000059092688200519000000003500023704151  000000000014300000000000000000000000000000000000000000000000000000000000000000000000000000000000000000000000000000000                          0000000000                                                                  000021
102122445950001000000009034510032549PREGTIT30863819366892     000000000000591633050000000000000000000000000902210319000591633000000000000059163305200519000000002600023704151  000000000014300000000000000000000000000000000000000000000000000000000000000000000000000000000000000000000000000000000                          0000000000                                                                  000022
102122445950001000000009034510032549PREGTIT30866764765737     000000000000591643520000000000000000000000000902210319000591643500000000000059164352200519000000001916623704151  000000000014300000000000000000000000000000000000000000000000000000000000000000000000000000000000000000000000000000000                          0000000000                                                                  000023
102122445950001000000009034510032549PREGTIT30861692768976     000000000000591759070000000000000000000000000902210319000591759000000000000059175907200519000000000700023703451  000000000014300000000000000000000000000000000000000000000000000000000000000000000000000000000000000000000000000000000                          0000000000                                                                  000024
102122445950001000000009034510032549PREGTIT30865036948741     000000000000591788410000000000000000000000000902210319000591788400000000000059178841200519000000001600023704159  000000000014300000000000000000000000000000000000000000000000000000000000000000000000000000000000000000000000000000000                          0000000000                                                                  000025
102122445950001000000009034510032549PREGTIT30865973633254     000000000000591805010000000000000000000000000902210319000591805000000000000059180501200519000000001680023704151  000000000014300000000000000000000000000000000000000000000000000000000000000000000000000000000000000000000000000000000                          0000000000                                                                  000026
102122445950001000000009034510032549PREGTIT30868908984507     000000000000591807570000000000000000000000000902210319000591807500000000000059180757200519000000001580023704151  000000000014300000000000000000000000000000000000000000000000000000000000000000000000000000000000000000000000000000000                          0000000000                                                                  000027
102122445950001000000009034510032549PREGTIT30865603188296     000000000000591822880000000000000000000000000902210319000591822800000000000059182288200519000000000770023703451  000000000014300000000000000000000000000000000000000000000000000000000000000000000000000000000000000000000000000000000                          0000000000                                                                  000028
102122445950001000000009034510032549PREGTIT30864928989108     000000000000591847950000000000000000000000000902210319000591847900000000000059184795200519000000002200023704151  000000000014300000000000000000000000000000000000000000000000000000000000000000000000000000000000000000000000000000000                          0000000000                                                                  000029
102122445950001000000009034510032549PREGTIT30869638299706     000000000000591879640000000000000000000000000902210319000591879600000000000059187964200519000000001080023703451  000000000014300000000000000000000000000000000000000000000000000000000000000000000000000000000000000000000000000000000                          0000000000                                                                  000030
102122445950001000000009034510032549PREGTIT30864808619423     000000000000591881380000000000000000000000000902210319000591881300000000000059188138200519000000001200023703451  000000000014300000000000000000000000000000000000000000000000000000000000000000000000000000000000000000000000000000000                          0000000000                                                                  000031
102122445950001000000009034510032549PREGTIT30864203459595     000000000000591961220000000000000000000000000902210319000591961200000000000059196122200519000000003000023704151  000000000014300000000000000000000000000000000000000000000000000000000000000000000000000000000000000000000000000000000                          0000000000                                                                  000032
102122445950001000000009034510032549PREGTIT30864257869728     000000000000592034120000000000000000000000000902210319000592034100000000000059203412200519000000001600023704151  000000000014300000000000000000000000000000000000000000000000000000000000000000000000000000000000000000000000000000000                          0000000000                                                                  000033
102122445950001000000009034510032549PREGTIT30866973278981     000000000000592615520000000000000000000000000902210319000592615500000000000059261552200519000000004900023704151  000000000014300000000000000000000000000000000000000000000000000000000000000000000000000000000000000000000000000000000                          0000000000                                                                  000034
102122445950001000000009034510032549PREGTIT30862688593918     000000000000592640390000000000000000000000000902210319000592640300000000000059264039200519000000006100023704151  000000000014300000000000000000000000000000000000000000000000000000000000000000000000000000000000000000000000000000000                          0000000000                                                                  000035
102122445950001000000009034510032549PREGTIT30868739350111     000000000000592685220000000000000000000000000902210319000592685200000000000059268522200519000000005000023704151  000000000014300000000000000000000000000000000000000000000000000000000000000000000000000000000000000000000000000000000                          0000000000                                                                  000036
102122445950001000000009034510032549PREGTIT30869083531242     000000000000592690570000000000000000000000000902210319000592690500000000000059269057200519000000002430023704144  000000000014300000000000000000000000000000000000000000000000000000000000000000000000000000000000000000000000000000000                          0000000000                                                                  000037
102122445950001000000009034510032549PREGTIT30865515369069     000000000000592741660000000000000000000000000902210319000592741600000000000059274166200519000000005360023704151  000000000014300000000000000000000000000000000000000000000000000000000000000000000000000000000000000000000000000000000                          0000000000                                                                  000038
102122445950001000000009034510032549PREGTIT30865570973298     000000000000592784120000000000000000000000000902210319000592784100000000000059278412200519000000000900023703451  000000000014300000000000000000000000000000000000000000000000000000000000000000000000000000000000000000000000000000000                          0000000000                                                                  000039
102122445950001000000009034510032549PREGTIT30861181152889     000000000000592860750000000000000000000000000902210319000592860700000000000059286075200519000000001700023704151  000000000014300000000000000000000000000000000000000000000000000000000000000000000000000000000000000000000000000000000                          0000000000                                                                  000040
102122445950001000000009034510032549PREGTIT30866254341146     000000000000592906760000000000000000000000000902210319000592906700000000000059290676200519000000003000023704151  000000000014300000000000000000000000000000000000000000000000000000000000000000000000000000000000000000000000000000000                          0000000000                                                                  000041
102122445950001000000009034510032549PREGTIT30867739075033     000000000000593004420000000000000000000000000902210319000593004400000000000059300442200519000000001000023704151  000000000014300000000000000000000000000000000000000000000000000000000000000000000000000000000000000000000000000000000                          0000000000                                                                  000042
102122445950001000000009034510032549PREGTIT30862131518386     000000000000593039050000000000000000000000000902210319000593039000000000000059303905200519000000001550023704159  000000000014300000000000000000000000000000000000000000000000000000000000000000000000000000000000000000000000000000000                          0000000000                                                                  000043
102122445950001000000009034510032549PREGTIT30864514784270     000000000000593040730000000000000000000000000902210319000593040700000000000059304073200519000000001100023704159  000000000014300000000000000000000000000000000000000000000000000000000000000000000000000000000000000000000000000000000                          0000000000                                                                  000044
102122445950001000000009034510032549PREGTIT30866859740813     000000000000593041970000000000000000000000000902210319000593041900000000000059304197200519000000002700023704159  000000000014300000000000000000000000000000000000000000000000000000000000000000000000000000000000000000000000000000000                          0000000000                                                                  000045
102122445950001000000009034510032549PREGTIT30869082209861     000000000000593043160000000000000000000000000902210319000593043100000000000059304316200519000000004900023704151  000000000014300000000000000000000000000000000000000000000000000000000000000000000000000000000000000000000000000000000                          0000000000                                                                  000046
102122445950001000000009034510032549PREGTIT30866535400458     000000000000593059240000000000000000000000000902210319000593059200000000000059305924200519000000001400023703451  000000000014300000000000000000000000000000000000000000000000000000000000000000000000000000000000000000000000000000000                          0000000000                                                                  000047
102122445950001000000009034510032549PREGTIT30869449785331     000000000000593070720000000000000000000000000902210319000593070700000000000059307072200519000000003490023704144  000000000014300000000000000000000000000000000000000000000000000000000000000000000000000000000000000000000000000000000                          0000000000                                                                  000048
102122445950001000000009034510032549PREGTIT30861165042722     000000000000593128310000000000000000000000000902210319000593128300000000000059312831200519000000001000023704157  000000000014300000000000000000000000000000000000000000000000000000000000000000000000000000000000000000000000000000000                          0000000000                                                                  000049
102122445950001000000009034510032549PREGTIT30868061089623     000000000000593170000000000000000000000000000902210319000593170000000000000059317000200519000000001400023704151  000000000014300000000000000000000000000000000000000000000000000000000000000000000000000000000000000000000000000000000                          0000000000                                                                  000050
102122445950001000000009034510032549PREGTIT30866217715437     000000000000593171240000000000000000000000000902210319000593171200000000000059317124200519000000003700023704152  000000000014300000000000000000000000000000000000000000000000000000000000000000000000000000000000000000000000000000000                          0000000000                                                                  000051
102122445950001000000009034510032549PREGTIT30869335970286     000000000000593711610000000000000000000000000902210319000593711600000000000059371161200519000000005000023704157  000000000014300000000000000000000000000000000000000000000000000000000000000000000000000000000000000000000000000000000                          0000000000                                                                  000052
102122445950001000000009034510032549PREGTIT30869450596479     000000000000593771860000000000000000000000000902210319000593771800000000000059377186200519000000003000023704152  000000000014300000000000000000000000000000000000000000000000000000000000000000000000000000000000000000000000000000000                          0000000000                                                                  000053
102122445950001000000009034510032549PREGTIT30865637275601     000000000000593793400000000000000000000000000902210319000593793400000000000059379340200519000000001530023704151  000000000014300000000000000000000000000000000000000000000000000000000000000000000000000000000000000000000000000000000                          0000000000                                                                  000054
102122445950001000000009034510032549PREGTIT30861852700631     000000000000593839330000000000000000000000000902210319000593839300000000000059383933200519000000005661723704144  000000000014300000000000000000000000000000000000000000000000000000000000000000000000000000000000000000000000000000000                          0000000000                                                                  000055
102122445950001000000009034510032549PREGTIT30863524786627     000000000000593905730000000000000000000000000902210319000593905700000000000059390573200519000000000600023703451  000000000014300000000000000000000000000000000000000000000000000000000000000000000000000000000000000000000000000000000                          0000000000                                                                  000056
102122445950001000000009034510032549PREGTIT30861197701853     000000000000593907860000000000000000000000000902210319000593907800000000000059390786200519000000000987523703451  000000000014300000000000000000000000000000000000000000000000000000000000000000000000000000000000000000000000000000000                          0000000000                                                                  000057
102122445950001000000009034510032549PREGTIT30866715456338     000000000000593912270000000000000000000000000902210319000593912200000000000059391227200519000000001800023703451  000000000014300000000000000000000000000000000000000000000000000000000000000000000000000000000000000000000000000000000                          0000000000                                                                  000058
102122445950001000000009034510032549PREGTIT30868471542538     000000000000593944630000000000000000000000000902210319000593944600000000000059394463200519000000002900023703451  000000000014300000000000000000000000000000000000000000000000000000000000000000000000000000000000000000000000000000000                          0000000000                                                                  000059
102122445950001000000009034510032549PREGTIT30861834342752     000000000000594648440000000000000000000000000902210319000594648400000000000059464844200519000000002700023703451  000000000014300000000000000000000000000000000000000000000000000000000000000000000000000000000000000000000000000000000                          0000000000                                                                  000060
102122445950001000000009034510032549PREGTIT30868230935393     000000000000594674870000000000000000000000000902210319000594674800000000000059467487200519000000001950023703451  000000000014300000000000000000000000000000000000000000000000000000000000000000000000000000000000000000000000000000000                          0000000000                                                                  000061
102122445950001000000009034510032549PREGTIT30864121445512     000000000000594697060000000000000000000000000902210319000594697000000000000059469706200519000000003700023704151  000000000014300000000000000000000000000000000000000000000000000000000000000000000000000000000000000000000000000000000                          0000000000                                                                  000062
102122445950001000000009034510032549PREGTIT30868330466395     000000000000594702670000000000000000000000000902210319000594702600000000000059470267200519000000000200023704159  000000000014300000000000000000000000000000000000000000000000000000000000000000000000000000000000000000000000000000000                          0000000000                                                                  000063
102122445950001000000009034510032549PREGTIT30867274878741     000000000000594759190000000000000000000000000902210319000594759100000000000059475919200519000000002700023704151  000000000014300000000000000000000000000000000000000000000000000000000000000000000000000000000000000000000000000000000                          0000000000                                                                  000064
102122445950001000000009034510032549PREGTIT30869555821522     000000000000594774820000000000000000000000000902210319000594774800000000000059477482200519000000003100023704151  000000000014300000000000000000000000000000000000000000000000000000000000000000000000000000000000000000000000000000000                          0000000000                                                                  000065
102122445950001000000009034510032549PREGTIT30863679486496     000000000000594797870000000000000000000000000902210319000594797800000000000059479787200519000000001700023704151  000000000014300000000000000000000000000000000000000000000000000000000000000000000000000000000000000000000000000000000                          0000000000                                                                  000066
102122445950001000000009034510032549PREGTIT30866881617291     000000000000594821760000000000000000000000000902210319000594821700000000000059482176200519000000000600023703451  000000000014300000000000000000000000000000000000000000000000000000000000000000000000000000000000000000000000000000000                          0000000000                                                                  000067
102122445950001000000009034510032549PREGTIT30867556446356     000000000000594829740000000000000000000000000902210319000594829700000000000059482974200519000000001880023704151  000000000014300000000000000000000000000000000000000000000000000000000000000000000000000000000000000000000000000000000                          0000000000                                                                  000068
102122445950001000000009034510032549PREGTIT30869816744931     000000000000594853880000000000000000000000000902210319000594853800000000000059485388200519000000000812523703451  000000000014300000000000000000000000000000000000000000000000000000000000000000000000000000000000000000000000000000000                          0000000000                                                                  000069
102122445950001000000009034510032549PREGTIT30863778712807     000000000000595013910000000000000000000000000902210319000595013900000000000059501391200519000000002800023703451  000000000014300000000000000000000000000000000000000000000000000000000000000000000000000000000000000000000000000000000                          7600000000                                                                  000070
102122445950001000000009034510032549PREGTIT30866762129978     000000000000595029590000000000000000000000000902210319000595029500000000000059502959200519000000004000023704152  000000000014300000000000000000000000000000000000000000000000000000000000000000000000000000000000000000000000000000000                          0000000000                                                                  000071
102122445950001000000009034510032549PREGTIT30867068061658     0000000000005951017P000000000000000000000000090221031900059510170000000000005951017P200519000000002000023703109  000000000014300000000000000000000000000000000000000000000000000000000000000000000000000000000000000000000000000000000                          0000000000                                                                  000072
102122445950001000000009034510032549PREGTIT30864727860738     000000000000595652170000000000000000000000000902210319000595652100000000000059565217200519000000001800023704151  000000000014300000000000000000000000000000000000000000000000000000000000000000000000000000000000000000000000000000000                          0000000000                                                                  000073
102122445950001000000009034510032549PREGTIT30865741487840     000000000000595684450000000000000000000000000902210319000595684400000000000059568445200519000000002716723703451  000000000014300000000000000000000000000000000000000000000000000000000000000000000000000000000000000000000000000000000                          0000000000                                                                  000074
102122445950001000000009034510032549PREGTIT30869279544709     000000000000595704070000000000000000000000000902210319000595704000000000000059570407200519000000002500023704151  000000000014300000000000000000000000000000000000000000000000000000000000000000000000000000000000000000000000000000000                          0000000000                                                                  000075
102122445950001000000009034510032549PREGTIT30866557087223     000000000000595741350000000000000000000000000902210319000595741300000000000059574135200519000000000960023704151  000000000014300000000000000000000000000000000000000000000000000000000000000000000000000000000000000000000000000000000                          0000000000                                                                  000076
102122445950001000000009034510032549PREGTIT30867501699394     000000000000595749680000000000000000000000000902210319000595749600000000000059574968200519000000004398323704151  000000000014300000000000000000000000000000000000000000000000000000000000000000000000000000000000000000000000000000000                          7600000000                                                                  000077
102122445950001000000009034510032549PREGTIT30863361627124     000000000000595757270000000000000000000000000902210319000595757200000000000059575727200519000000002800023703451  000000000014300000000000000000000000000000000000000000000000000000000000000000000000000000000000000000000000000000000                          0000000000                                                                  000078
102122445950001000000009034510032549PREGTIT30863383555590     0000000000005958503P000000000000000000000000090221031900059585030000000000005958503P200519000000002700023703451  000000000014300000000000000000000000000000000000000000000000000000000000000000000000000000000000000000000000000000000                          0000000000                                                                  000079
102122445950001000000009034510032549PREGTIT30865558436264     000000000000595891590000000000000000000000000902210319000595891500000000000059589159200519000000003333323704151  000000000014300000000000000000000000000000000000000000000000000000000000000000000000000000000000000000000000000000000                          0000000000                                                                  000080
102122445950001000000009034510032549PREGTIT30861903745461     000000000000595980500000000000000000000000000902210319000595980500000000000059598050200519000000004500023704151  000000000014300000000000000000000000000000000000000000000000000000000000000000000000000000000000000000000000000000000                          0000000000                                                                  000081
102122445950001000000009034510032549PREGTIT30864606061581     000000000000595988400000000000000000000000000902210319000595988400000000000059598840200519000000010833323704144  000000000014300000000000000000000000000000000000000000000000000000000000000000000000000000000000000000000000000000000                          0000000000                                                                  000082
102122445950001000000009034510032549PREGTIT30861294791570     000000000000595990140000000000000000000000000902210319000595990100000000000059599014200519000000003568023704152  000000000014300000000000000000000000000000000000000000000000000000000000000000000000000000000000000000000000000000000                          0000000000                                                                  000083
102122445950001000000009034510032549PREGTIT30869744633262     000000000000596005940000000000000000000000000902210319000596005900000000000059600594200519000000001600023704151  000000000014300000000000000000000000000000000000000000000000000000000000000000000000000000000000000000000000000000000                          0000000000                                                                  000084
102122445950001000000009034510032549PREGTIT30867459426580     000000000000596585760000000000000000000000000902210319000596585700000000000059658576200519000000001396023703109  000000000014300000000000000000000000000000000000000000000000000000000000000000000000000000000000000000000000000000000                          0000000000                                                                  000085
102122445950001000000009034510032549PREGTIT30869125736339     000000000000596609530000000000000000000000000902210319000596609500000000000059660953200519000000001400023704151  000000000014300000000000000000000000000000000000000000000000000000000000000000000000000000000000000000000000000000000                          0000000000                                                                  000086
102122445950001000000009034510032549PREGTIT30862745591625     000000000000596647540000000000000000000000000902210319000596647500000000000059664754200519000000004108723704152  000000000014300000000000000000000000000000000000000000000000000000000000000000000000000000000000000000000000000000000                          0000000000                                                                  000087
102122445950001000000009034510032549PREGTIT30865303618845     000000000000596675320000000000000000000000000902210319000596675300000000000059667532200519000000002500023704157  000000000014300000000000000000000000000000000000000000000000000000000000000000000000000000000000000000000000000000000                          0000000000                                                                  000088
102122445950001000000009034510032549PREGTIT30869639146683     000000000000596708430000000000000000000000000902210319000596708400000000000059670843200519000000001500023704159  000000000014300000000000000000000000000000000000000000000000000000000000000000000000000000000000000000000000000000000                          0000000000                                                                  000089
102122445950001000000009034510032549PREGTIT30867859286578     000000000000596744150000000000000000000000000902210319000596744100000000000059674415200519000000005080023703451  000000000014300000000000000000000000000000000000000000000000000000000000000000000000000000000000000000000000000000000                          0000000000                                                                  000090
102122445950001000000009034510032549PREGTIT30866098938389     000000000000596775110000000000000000000000000902210319000596775100000000000059677511200519000000004000023704152  000000000014300000000000000000000000000000000000000000000000000000000000000000000000000000000000000000000000000000000                          7600000000                                                                  000091
102122445950001000000009034510032549PREGTIT30861421767096     000000000000596778130000000000000000000000000902210319000596778100000000000059677813200519000000001960023703109  000000000014300000000000000000000000000000000000000000000000000000000000000000000000000000000000000000000000000000000                          0000000000                                                                  000092
102122445950001000000009034510032549PREGTIT30864221658975     000000000000596791900000000000000000000000000902210319000596791900000000000059679190200519000000001980023703451  000000000014300000000000000000000000000000000000000000000000000000000000000000000000000000000000000000000000000000000                          0000000000                                                                  000093
102122445950001000000009034510032549PREGTIT30861915242245     000000000000596792980000000000000000000000000902210319000596792900000000000059679298200519000000002000023704151  000000000014300000000000000000000000000000000000000000000000000000000000000000000000000000000000000000000000000000000                          0000000000                                                                  000094
102122445950001000000009034510032549PREGTIT30868162465157     000000000000596811870000000000000000000000000902210319000596811800000000000059681187200519000000000800023704144  000000000014300000000000000000000000000000000000000000000000000000000000000000000000000000000000000000000000000000000                          0000000000                                                                  000095
102122445950001000000009034510032549PREGTIT30868392578152     000000000000596816320000000000000000000000000902210319000596816300000000000059681632200519000000000919523704157  000000000014300000000000000000000000000000000000000000000000000000000000000000000000000000000000000000000000000000000                          0000000000                                                                  000096
102122445950001000000009034510032549PREGTIT30867747712876     000000000000596823370000000000000000000000000902210319000596823300000000000059682337200519000000005000023704157  000000000014300000000000000000000000000000000000000000000000000000000000000000000000000000000000000000000000000000000                          0000000000                                                                  000097
102122445950001000000009034510032549PREGTIT30865978825526     000000000000596827360000000000000000000000000902210319000596827300000000000059682736200519000000000952223704152  000000000014300000000000000000000000000000000000000000000000000000000000000000000000000000000000000000000000000000000                          7600000000                                                                  000098
102122445950001000000009034510032549PREGTIT30866718833516     000000000000596849680000000000000000000000000902210319000596849600000000000059684968200519000000000580223704152  000000000014300000000000000000000000000000000000000000000000000000000000000000000000000000000000000000000000000000000                          7600000000                                                                  000099
102122445950001000000009034510032549PREGTIT30863811166932     000000000000596863590000000000000000000000000902210319000596863500000000000059686359200519000000000600023704144  000000000014300000000000000000000000000000000000000000000000000000000000000000000000000000000000000000000000000000000                          0000000000                                                                  000100
102122445950001000000009034510032549PREGTIT30863862252653     000000000000596879160000000000000000000000000902210319000596879100000000000059687916200519000000002650023704151  000000000014300000000000000000000000000000000000000000000000000000000000000000000000000000000000000000000000000000000                          0000000000                                                                  000101
102122445950001000000009034510032549PREGTIT30868419228345     000000000000596880170000000000000000000000000902210319000596880100000000000059688017200519000000001990023704152  000000000014300000000000000000000000000000000000000000000000000000000000000000000000000000000000000000000000000000000                          0000000000                                                                  000102
102122445950001000000009034510032549PREGTIT30869076674601     000000000000596923670000000000000000000000000902210319000596923600000000000059692367200519000000004000023704151  000000000014300000000000000000000000000000000000000000000000000000000000000000000000000000000000000000000000000000000                          0000000000                                                                  000103
102122445950001000000009034510032549PREGTIT30862043956257     000000000000596942030000000000000000000000000902210319000596942000000000000059694203200519000000010800023704157  000000000014300000000000000000000000000000000000000000000000000000000000000000000000000000000000000000000000000000000                          0000000000                                                                  000104
102122445950001000000009034510032549PREGTIT30867286781999     000000000000596963380000000000000000000000000902210319000596963300000000000059696338200519000000004100023704151  000000000014300000000000000000000000000000000000000000000000000000000000000000000000000000000000000000000000000000000                          0000000000                                                                  000105
102122445950001000000009034510032549PREGTIT30869802788347     000000000000596977250000000000000000000000000902210319000596977200000000000059697725200519000000003500023704151  000000000014300000000000000000000000000000000000000000000000000000000000000000000000000000000000000000000000000000000                          0000000000                                                                  000106
102122445950001000000009034510032549PREGTIT30869129801856     0000000000005969825P000000000000000000000000090221031900059698250000000000005969825P200519000000001540023704144  000000000014300000000000000000000000000000000000000000000000000000000000000000000000000000000000000000000000000000000                          7600000000                                                                  000107
102122445950001000000009034510032549PREGTIT30869510050424     000000000000597027370000000000000000000000000902210319000597027300000000000059702737200519000000001348823704144  000000000014300000000000000000000000000000000000000000000000000000000000000000000000000000000000000000000000000000000                          0000000000                                                                  000108
102122445950001000000009034510032549PREGTIT30864603174428     0000000000005975415P000000000000000000000000090221031900059754150000000000005975415P200519000000001500023704151  000000000014300000000000000000000000000000000000000000000000000000000000000000000000000000000000000000000000000000000                          7600000000                                                                  000109
102122445950001000000009034510032549PREGTIT30868266412926     000000000000597565000000000000000000000000000902210319000597565000000000000059756500200519000000003000023704144  000000000014300000000000000000000000000000000000000000000000000000000000000000000000000000000000000000000000000000000                          0000000000                                                                  000110
102122445950001000000009034510032549PREGTIT30863067748525     000000000000597621790000000000000000000000000902210319000597621700000000000059762179200519000000002714323704151  000000000014300000000000000000000000000000000000000000000000000000000000000000000000000000000000000000000000000000000                          0000000000                                                                  000111
102122445950001000000009034510032549PREGTIT30861762833673     000000000000597626910000000000000000000000000902210319000597626900000000000059762691200519000000001000023704151  000000000014300000000000000000000000000000000000000000000000000000000000000000000000000000000000000000000000000000000                          0000000000                                                                  000112
102122445950001000000009034510032549PREGTIT30868220110221     000000000000597652590000000000000000000000000902210319000597652500000000000059765259200519000000001200023703109  000000000014300000000000000000000000000000000000000000000000000000000000000000000000000000000000000000000000000000000                          0000000000                                                                  000113
102122445950001000000009034510032549PREGTIT30863500471611     000000000000597685840000000000000000000000000902210319000597685800000000000059768584200519000000001450023703109  000000000014300000000000000000000000000000000000000000000000000000000000000000000000000000000000000000000000000000000                          0000000000                                                                  000114
102122445950001000000009034510032549PREGTIT30865649719623     000000000000597695800000000000000000000000000902210319000597695800000000000059769580200519000000001700023704151  000000000014300000000000000000000000000000000000000000000000000000000000000000000000000000000000000000000000000000000                          0000000000                                                                  000115
102122445950001000000009034510032549PREGTIT30868834217029     000000000000597698900000000000000000000000000902210319000597698900000000000059769890200519000000002000023704151  000000000014300000000000000000000000000000000000000000000000000000000000000000000000000000000000000000000000000000000                          0000000000                                                                  000116
102122445950001000000009034510032549PREGTIT30869439880847     000000000000597728160000000000000000000000000902210319000597728100000000000059772816200519000000000750023704144  000000000014300000000000000000000000000000000000000000000000000000000000000000000000000000000000000000000000000000000                          0000000000                                                                  000117
102122445950001000000009034510032549PREGTIT30869287828707     000000000000597777610000000000000000000000000902210319000597777600000000000059777761200519000000001375023704151  000000000014300000000000000000000000000000000000000000000000000000000000000000000000000000000000000000000000000000000                          0000000000                                                                  000118
102122445950001000000009034510032549PREGTIT30864283824670     000000000000597782450000000000000000000000000902210319000597782400000000000059778245200519000000001122823703451  000000000014300000000000000000000000000000000000000000000000000000000000000000000000000000000000000000000000000000000                          0000000000                                                                  000119
102122445950001000000009034510032549PREGTIT30865788745184     000000000000597801420000000000000000000000000902210319000597801400000000000059780142200519000000001250023703109  000000000014300000000000000000000000000000000000000000000000000000000000000000000000000000000000000000000000000000000                          0000000000                                                                  000120
102122445950001000000009034510032549PREGTIT30861515975375     000000000000597870070000000000000000000000000902210319000597870000000000000059787007200519000000001000023700408  000000000014300000000000000000000000000000000000000000000000000000000000000000000000000000000000000000000000000000000                          0000000000                                                                  000121
102122445950001000000009034510032549PREGTIT30862569648027     000000000000597872280000000000000000000000000902210319000597872200000000000059787228200519000000001200023700408  000000000014300000000000000000000000000000000000000000000000000000000000000000000000000000000000000000000000000000000                          0000000000                                                                  000122
102122445950001000000009034510032549PREGTIT30865307697914     0000000000005978864P000000000000000000000000090221031900059788640000000000005978864P200519000000001060023700408  000000000014300000000000000000000000000000000000000000000000000000000000000000000000000000000000000000000000000000000                          0000000000                                                                  000123
102122445950001000000009034510032549PREGTIT30868469723752     000000000000597887120000000000000000000000000902210319000597887100000000000059788712200519000000001166723700408  000000000014300000000000000000000000000000000000000000000000000000000000000000000000000000000000000000000000000000000                          0000000000                                                                  000124
102122445950001000000009034510032549PREGTIT30861953551082     000000000000597896700000000000000000000000000902210319000597896700000000000059789670200519000000003000023703109  000000000014300000000000000000000000000000000000000000000000000000000000000000000000000000000000000000000000000000000                          0000000000                                                                  000125
102122445950001000000009034510032549PREGTIT30861578472368     000000000000598437640000000000000000000000000902210319000598437600000000000059843764200519000000001333323703109  000000000014300000000000000000000000000000000000000000000000000000000000000000000000000000000000000000000000000000000                          0000000000                                                                  000126
102122445950001000000009034510032549PREGTIT30865499170944     000000000000598441240000000000000000000000000902210319000598441200000000000059844124200519000000001714423703451  000000000014300000000000000000000000000000000000000000000000000000000000000000000000000000000000000000000000000000000                          0000000000                                                                  000127
102122445950001000000009034510032549PREGTIT30866862620152     000000000000598473520000000000000000000000000902210319000598473500000000000059847352200519000000001227323704151  000000000014300000000000000000000000000000000000000000000000000000000000000000000000000000000000000000000000000000000                          0000000000                                                                  000128
102122445950001000000009034510032549PREGTIT30863239290933     000000000000598478320000000000000000000000000902210319000598478300000000000059847832200519000000005850023704151  000000000014300000000000000000000000000000000000000000000000000000000000000000000000000000000000000000000000000000000                          0000000000                                                                  000129
102122445950001000000009034510032549PREGTIT30865716527534     0000000000005984826P000000000000000000000000090221031900059848260000000000005984826P200519000000000400023704144  000000000014300000000000000000000000000000000000000000000000000000000000000000000000000000000000000000000000000000000                          0000000000                                                                  000130
102122445950001000000009034510032549PREGTIT30867511923271     000000000000598504500000000000000000000000000902210319000598504500000000000059850450200519000000002300023704151  000000000014300000000000000000000000000000000000000000000000000000000000000000000000000000000000000000000000000000000                          0000000000                                                                  000131
102122445950001000000009034510032549PREGTIT30864209561633     000000000000598506630000000000000000000000000902210319000598506600000000000059850663200519000000000550023704151  000000000014300000000000000000000000000000000000000000000000000000000000000000000000000000000000000000000000000000000                          0000000000                                                                  000132
102122445950001000000009034510032549PREGTIT30865924855565     000000000000598508840000000000000000000000000902210319000598508800000000000059850884200519000000003070023704151  000000000014300000000000000000000000000000000000000000000000000000000000000000000000000000000000000000000000000000000                          0000000000                                                                  000133
102122445950001000000009034510032549PREGTIT30864156577111     000000000000598535810000000000000000000000000902210319000598535800000000000059853581200519000000002200023703451  000000000014300000000000000000000000000000000000000000000000000000000000000000000000000000000000000000000000000000000                          0000000000                                                                  000134
102122445950001000000009034510032549PREGTIT30862405450824     000000000000598536890000000000000000000000000902210319000598536800000000000059853689200519000000001350023704151  000000000014300000000000000000000000000000000000000000000000000000000000000000000000000000000000000000000000000000000                          0000000000                                                                  000135
102122445950001000000009034510032549PREGTIT30868223814521     000000000000598537860000000000000000000000000902210319000598537800000000000059853786200519000000000800023704152  000000000014300000000000000000000000000000000000000000000000000000000000000000000000000000000000000000000000000000000                          0000000000                                                                  000136
102122445950001000000009034510032549PREGTIT30867669070180     0000000000005985510P000000000000000000000000090221031900059855100000000000005985510P200519000000000712323704157  000000000014300000000000000000000000000000000000000000000000000000000000000000000000000000000000000000000000000000000                          0000000000                                                                  000137
102122445950001000000009034510032549PREGTIT30864453649984     000000000000598552150000000000000000000000000902210319000598552100000000000059855215200519000000001700023703109  000000000014300000000000000000000000000000000000000000000000000000000000000000000000000000000000000000000000000000000                          0000000000                                                                  000138
102122445950001000000009034510032549PREGTIT30868373916430     000000000000598554790000000000000000000000000902210319000598554700000000000059855479200519000000002500023704151  000000000014300000000000000000000000000000000000000000000000000000000000000000000000000000000000000000000000000000000                          0000000000                                                                  000139
102122445950001000000009034510032549PREGTIT30868143775256     000000000000598558860000000000000000000000000902210319000598558800000000000059855886200519000000000807323704157  000000000014300000000000000000000000000000000000000000000000000000000000000000000000000000000000000000000000000000000                          0000000000                                                                  000140
102122445950001000000009034510032549PREGTIT30864737707136     000000000000598561810000000000000000000000000902210319000598561800000000000059856181200519000000002200023703109  000000000014300000000000000000000000000000000000000000000000000000000000000000000000000000000000000000000000000000000                          0000000000                                                                  000141
102122445950001000000009034510032549PREGTIT30864508588355     000000000000598575600000000000000000000000000902210319000598575600000000000059857560200519000000001500023703451  000000000014300000000000000000000000000000000000000000000000000000000000000000000000000000000000000000000000000000000                          0000000000                                                                  000142
102122445950001000000009034510032549PREGTIT30866775263071     000000000000598590910000000000000000000000000902210319000598590900000000000059859091200519000000000790023704151  000000000014300000000000000000000000000000000000000000000000000000000000000000000000000000000000000000000000000000000                          0000000000                                                                  000143
102122445950001000000009034510032549PREGTIT30865830812383     0000000000005986091P000000000000000000000000090221031900059860910000000000005986091P200519000000000850023704144  000000000014300000000000000000000000000000000000000000000000000000000000000000000000000000000000000000000000000000000                          0000000000                                                                  000144
102122445950001000000009034510032549PREGTIT30862867424699     000000000000598612660000000000000000000000000902210319000598612600000000000059861266200519000000001200023703109  000000000014300000000000000000000000000000000000000000000000000000000000000000000000000000000000000000000000000000000                          0000000000                                                                  000145
102122445950001000000009034510032549PREGTIT30866041984309     000000000000598624160000000000000000000000000902210319000598624100000000000059862416200519000000003927523704143  000000000014300000000000000000000000000000000000000000000000000000000000000000000000000000000000000000000000000000000                          7600000000                                                                  000146
102122445950001000000009034510032549PREGTIT30867671815695     0000000000005986270P000000000000000000000000090221031900059862700000000000005986270P200519000000001199023703451  000000000014300000000000000000000000000000000000000000000000000000000000000000000000000000000000000000000000000000000                          0000000000                                                                  000147
102122445950001000000009034510032549PREGTIT30869718920696     0000000000005986401P000000000000000000000000090221031900059864010000000000005986401P200519000000004900023703109  000000000014300000000000000000000000000000000000000000000000000000000000000000000000000000000000000000000000000000000                          0000000000                                                                  000148
102122445950001000000009034510032549PREGTIT30863951330520     000000000000598659620000000000000000000000000902210319000598659600000000000059865962200519000000000382523704157  000000000014300000000000000000000000000000000000000000000000000000000000000000000000000000000000000000000000000000000                          0000000000                                                                  000149
102122445950001000000009034510032549PREGTIT30864423267311     000000000000598690700000000000000000000000000902210319000598690700000000000059869070200519000000004800023704151  000000000014300000000000000000000000000000000000000000000000000000000000000000000000000000000000000000000000000000000                          0000000000                                                                  000150
102122445950001000000009034510032549PREGTIT30862763610552     000000000000598693130000000000000000000000000902210319000598693100000000000059869313200519000000001773823704157  000000000014300000000000000000000000000000000000000000000000000000000000000000000000000000000000000000000000000000000                          0000000000                                                                  000151
102122445950001000000009034510032549PREGTIT30869648307462     000000000000598702140000000000000000000000000902210319000598702100000000000059870214200519000000001200023703451  000000000014300000000000000000000000000000000000000000000000000000000000000000000000000000000000000000000000000000000                          0000000000                                                                  000152
102122445950001000000009034510032549PREGTIT30863660964924     000000000000598720470000000000000000000000000902210319000598720400000000000059872047200519000000000599023703451  000000000014300000000000000000000000000000000000000000000000000000000000000000000000000000000000000000000000000000000                          0000000000                                                                  000153
102122445950001000000009034510032549PREGTIT30864092037983     000000000000598728530000000000000000000000000902210319000598728500000000000059872853200519000000003500023704157  000000000014300000000000000000000000000000000000000000000000000000000000000000000000000000000000000000000000000000000                          0000000000                                                                  000154
102122445950001000000009034510032549PREGTIT30863839583806     000000000000598734850000000000000000000000000902210319000598734800000000000059873485200519000000009792723704157  000000000014300000000000000000000000000000000000000000000000000000000000000000000000000000000000000000000000000000000                          0000000000                                                                  000155
102122445950001000000009034510032549PREGTIT30861137468446     000000000000598760420000000000000000000000000902210319000598760400000000000059876042200519000000001958023704428  000000000014300000000000000000000000000000000000000000000000000000000000000000000000000000000000000000000000000000000                          0000000000                                                                  000156
102122445950001000000009034510032549PREGTIT30863557774581     000000000000598764920000000000000000000000000902210319000598764900000000000059876492200519000000001650023703451  000000000014300000000000000000000000000000000000000000000000000000000000000000000000000000000000000000000000000000000                          0000000000                                                                  000157
102122445950001000000009034510032549PREGTIT30869996526580     000000000000598776420000000000000000000000000902210319000598776400000000000059877642200519000000001400023704159  000000000014300000000000000000000000000000000000000000000000000000000000000000000000000000000000000000000000000000000                          0000000000                                                                  000158
102122445950001000000009034510032549PREGTIT30862473427032     000000000000599273480000000000000000000000000902210319000599273400000000000059927348200519000000000861123704157  000000000014300000000000000000000000000000000000000000000000000000000000000000000000000000000000000000000000000000000                          0000000000                                                                  000159
102122445950001000000009034510032549PREGTIT30865820401459     0000000000005992893P000000000000000000000000090221031900059928930000000000005992893P200519000000003230023704151  000000000014300000000000000000000000000000000000000000000000000000000000000000000000000000000000000000000000000000000                          0000000000                                                                  000160
102122445950001000000009034510032549PREGTIT30862745059571     000000000000599305000000000000000000000000000902210319000599305000000000000059930500200519000000004000023704151  000000000014300000000000000000000000000000000000000000000000000000000000000000000000000000000000000000000000000000000                          0000000000                                                                  000161
102122445950001000000009034510032549PREGTIT30868620118685     000000000000599315580000000000000000000000000902210319000599315500000000000059931558200519000000001266723703109  000000000014300000000000000000000000000000000000000000000000000000000000000000000000000000000000000000000000000000000                          0000000000                                                                  000162
102122445950001000000009034510032549PREGTIT30864629109923     000000000000599344680000000000000000000000000902210319000599344600000000000059934468200519000000001340023700408  000000000014300000000000000000000000000000000000000000000000000000000000000000000000000000000000000000000000000000000                          0000000000                                                                  000163
102122445950001000000009034510032549PREGTIT30864345303504     000000000000599345140000000000000000000000000902210319000599345100000000000059934514200519000000000700023700408  000000000014300000000000000000000000000000000000000000000000000000000000000000000000000000000000000000000000000000000                          0000000000                                                                  000164
102122445950001000000009034510032549PREGTIT30862478672038     000000000000599347000000000000000000000000000902210319000599347000000000000059934700200519000000001120023700408  000000000014300000000000000000000000000000000000000000000000000000000000000000000000000000000000000000000000000000000                          0000000000                                                                  000165
102122445950001000000009034510032549PREGTIT30869927894245     000000000000599347940000000000000000000000000902210319000599347900000000000059934794200519000000000725023700408  000000000014300000000000000000000000000000000000000000000000000000000000000000000000000000000000000000000000000000000                          0000000000                                                                  000166
102122445950001000000009034510032549PREGTIT30861280681908     000000000000599349050000000000000000000000000902210319000599349000000000000059934905200519000000000700023700408  000000000014300000000000000000000000000000000000000000000000000000000000000000000000000000000000000000000000000000000                          0000000000                                                                  000167
102122445950001000000009034510032549PREGTIT30864007213368     000000000000599350300000000000000000000000000902210319000599350300000000000059935030200519000000001150023700408  000000000014300000000000000000000000000000000000000000000000000000000000000000000000000000000000000000000000000000000                          0000000000                                                                  000168
102122445950001000000009034510032549PREGTIT30864874984779     000000000000599351540000000000000000000000000902210319000599351500000000000059935154200519000000001325023700408  000000000014300000000000000000000000000000000000000000000000000000000000000000000000000000000000000000000000000000000                          0000000000                                                                  000169
102122445950001000000009034510032549PREGTIT30862072577066     000000000000599358040000000000000000000000000902210319000599358000000000000059935804200519000000001500023703109  000000000014300000000000000000000000000000000000000000000000000000000000000000000000000000000000000000000000000000000                          0000000000                                                                  000170
102122445950001000000009034510032549PREGTIT30868265010474     0000000000005993607P000000000000000000000000090221031900059936070000000000005993607P200519000000002294723704144  000000000014300000000000000000000000000000000000000000000000000000000000000000000000000000000000000000000000000000000                          0000000000                                                                  000171
102122445950001000000009034510032549PREGTIT30869647144286     000000000000599363390000000000000000000000000902210319000599363300000000000059936339200519000000001286123700140  000000000014300000000000000000000000000000000000000000000000000000000000000000000000000000000000000000000000000000000                          7600000000                                                                  000172
102122445950001000000009034510032549PREGTIT30866306191844     000000000000599398930000000000000000000000000902210319000599398900000000000059939893200519000000000750023704422  000000000014300000000000000000000000000000000000000000000000000000000000000000000000000000000000000000000000000000000                          0000000000                                                                  000173
102122445950001000000009034510032549PREGTIT30864379489326     000000000000599400770000000000000000000000000902210319000599400700000000000059940077200519000000000750023704422  000000000014300000000000000000000000000000000000000000000000000000000000000000000000000000000000000000000000000000000                          0000000000                                                                  000174
102122445950001000000009034510032549PREGTIT30865420488619     000000000000599402040000000000000000000000000902210319000599402000000000000059940204200519000000003000023704157  000000000014300000000000000000000000000000000000000000000000000000000000000000000000000000000000000000000000000000000                          0000000000                                                                  000175
102122445950001000000009034510032549PREGTIT30864319115202     000000000000599404760000000000000000000000000902210319000599404700000000000059940476200519000000001500023703109  000000000014300000000000000000000000000000000000000000000000000000000000000000000000000000000000000000000000000000000                          0000000000                                                                  000176
102122445950001000000009034510032549PREGTIT30868979190178     000000000000599405140000000000000000000000000902210319000599405100000000000059940514200519000000001500023703109  000000000014300000000000000000000000000000000000000000000000000000000000000000000000000000000000000000000000000000000                          0000000000                                                                  000177
102122445950001000000009034510032549PREGTIT30866810814278     000000000000599407000000000000000000000000000902210319000599407000000000000059940700200519000000004058923704152  000000000014300000000000000000000000000000000000000000000000000000000000000000000000000000000000000000000000000000000                          0000000000                                                                  000178
102122445950001000000009034510032549PREGTIT30866335918092     000000000000599419280000000000000000000000000902210319000599419200000000000059941928200519000000000459223704157  000000000014300000000000000000000000000000000000000000000000000000000000000000000000000000000000000000000000000000000                          0000000000                                                                  000179
102122445950001000000009034510032549PREGTIT30867654850197     000000000000599419790000000000000000000000000902210319000599419700000000000059941979200519000000002000023704400  000000000014300000000000000000000000000000000000000000000000000000000000000000000000000000000000000000000000000000000                          7600000000                                                                  000180
102122445950001000000009034510032549PREGTIT30864678636309     000000000000599422580000000000000000000000000902210319000599422500000000000059942258200419000000001300023704151  000000000014300000000000000000000000000000000000000000000000000000000000000000000000000000000000000000000000000000000                          0000000000                                                                  000181
102122445950001000000009034510032549PREGTIT30864678636309     000000000000599422660000000000000000000000000902210319000599422600000000000059942266200519000000001300023704151  000000000014300000000000000000000000000000000000000000000000000000000000000000000000000000000000000000000000000000000                          0000000000                                                                  000182
102122445950001000000009034510032549PREGTIT30863958319495     000000000000599423550000000000000000000000000902210319000599423500000000000059942355270319000000001669523704144  000000000014300000000000000000000000000000000000000000000000000000000000000000000000000000000000000000000000000000000                          0000000000                                                                  000183
102122445950001000000009034510032549PREGTIT30867556501842     000000000000599423630000000000000000000000000902210319000599423600000000000059942363100419000000005640023704151  000000000014300000000000000000000000000000000000000000000000000000000000000000000000000000000000000000000000000000000                          0000000000                                                                  000184
102122445950001000000009034510032549PREGTIT30862107873447     000000000000599423710000000000000000000000000902210319000599423700000000000059942371200419000000007000023703451  000000000014300000000000000000000000000000000000000000000000000000000000000000000000000000000000000000000000000000000                          7600000000                                                                  000185
102122445950001000000009034510032549PREGTIT30862003755643     0000000000005994238P000000000000000000000000090221031900059942380000000000005994238P200419000000007000023703451  000000000014300000000000000000000000000000000000000000000000000000000000000000000000000000000000000000000000000000000                          7600000000                                                                  000186
102122445950001000000009034510032549PREGTIT30877454146399     000000000000599424010000000000000000000000000902210319000599424000000000000059942401210419000000050000023704151  000000000014300000000000000000000000000000000000000000000000000000000000000000000000000000000000000000000000000000000                          0000000000                                                                  000187
102122445950001000000009034510032549PREGTIT30878255202004     000000000000599424280000000000000000000000000902210319000599424200000000000059942428210419000000012100023704151  000000000014300000000000000000000000000000000000000000000000000000000000000000000000000000000000000000000000000000000                          0000000000                                                                  000188
102122445950001000000009034510032549PREGTIT30872842137242     000000000000599424440000000000000000000000000902210319000599424400000000000059942444210419000000019333223704151  000000000014300000000000000000000000000000000000000000000000000000000000000000000000000000000000000000000000000000000                          0000000000                                                                  000189
102122445950001000000009034510032549PREGTIT30879408521950     000000000000599424600000000000000000000000000902210319000599424600000000000059942460210419000000041050023704151  000000000014300000000000000000000000000000000000000000000000000000000000000000000000000000000000000000000000000000000                          0000000000                                                                  000190
102122445950001000000009034510032549PREGTIT30874992488047     000000000000599424870000000000000000000000000902210319000599424800000000000059942487210419000000021600023704151  000000000014300000000000000000000000000000000000000000000000000000000000000000000000000000000000000000000000000000000                          0000000000                                                                  000191
102122445950001000000009034510032549PREGTIT30874516788071     000000000000599425090000000000000000000000000902210319000599425000000000000059942509210419000000021000023703451  000000000014300000000000000000000000000000000000000000000000000000000000000000000000000000000000000000000000000000000                          0000000000                                                                  000192
102122445950001000000009034510032549PREGTIT30878560515749     0000000000005994255P000000000000000000000000090221031900059942550000000000005994255P210419000000043049723704151  000000000014300000000000000000000000000000000000000000000000000000000000000000000000000000000000000000000000000000000                          0000000000                                                                  000193
102122445950001000000009034510032549PREGTIT30881190399067     000000000000599426300000000000000000000000000902210319000599426300000000000059942630210419000000009167023704151  000000000014300000000000000000000000000000000000000000000000000000000000000000000000000000000000000000000000000000000                          7600000000                                                                  000194
102122445950001000000009034510032549PREGTIT30886089819359     000000000000599426570000000000000000000000000902210319000599426500000000000059942657210419000000008124923704151  000000000014300000000000000000000000000000000000000000000000000000000000000000000000000000000000000000000000000000000                          0000000000                                                                  000195
102122445950001000000009034510032549PREGTIT30886973823420     000000000000599426650000000000000000000000000902210319000599426600000000000059942665200419000000001000023700408  000000000014300000000000000000000000000000000000000000000000000000000000000000000000000000000000000000000000000000000                          0000000000                                                                  000196
102122445950001000000009034510032549PREGTIT30886973823420     000000000000599426730000000000000000000000000902210319000599426700000000000059942673200519000000001000023700408  000000000014300000000000000000000000000000000000000000000000000000000000000000000000000000000000000000000000000000000                          0000000000                                                                  000197
102122445950001000000009034510032549PREGTIT30887368371929     000000000000599427110000000000000000000000000902210319000599427100000000000059942711210419000000004500023704151  000000000014300000000000000000000000000000000000000000000000000000000000000000000000000000000000000000000000000000000                          0000000000                                                                  000198
102122445950001000000009034510032549PREGTIT30884231834837     0000000000005994272P000000000000000000000000090221031900059942720000000000005994272P300419000000000875023700408  000000000014300000000000000000000000000000000000000000000000000000000000000000000000000000000000000000000000000000000                          0000000000                                                                  000199
102122445950001000000009034510032549PREGTIT30886596631631     000000000000599427620000000000000000000000000902210319000599427600000000000059942762300419000000001150023700408  000000000014300000000000000000000000000000000000000000000000000000000000000000000000000000000000000000000000000000000                          0000000000                                                                  000200
102122445950001000000009034510032549PREGTIT30882218209492     000000000000599428000000000000000000000000000902210319000599428000000000000059942800220419000000001150023700408  000000000014300000000000000000000000000000000000000000000000000000000000000000000000000000000000000000000000000000000                          0000000000                                                                  000201
102122445950001000000009034510032549PREGTIT30889725445616     000000000000599428430000000000000000000000000902210319000599428400000000000059942843050419000000001100023704400  000000000014300000000000000000000000000000000000000000000000000000000000000000000000000000000000000000000000000000000                          7600000000                                                                  000202
102122445950001000000009034510032549PREGTIT30885702377433     0000000000005994286P000000000000000000000000090221031900059942860000000000005994286P210419000000015000023704151  000000000014300000000000000000000000000000000000000000000000000000000000000000000000000000000000000000000000000000000                          7600000000                                                                  000203
102122445950001000000009034510032549PREGTIT30881944955334     000000000000599428780000000000000000000000000902210319000599428700000000000059942878220419000000001500023700408  000000000014300000000000000000000000000000000000000000000000000000000000000000000000000000000000000000000000000000000                          0000000000                                                                  000204
102122445950001000000009034510032549PREGTIT30883024990889     000000000000599429160000000000000000000000000902210319000599429100000000000059942916290419000000001200023700408  000000000014300000000000000000000000000000000000000000000000000000000000000000000000000000000000000000000000000000000                          0000000000                                                                  000205
102122445950001000000009034510032549PREGTIT30884215028497     000000000000599429590000000000000000000000000902210319000599429500000000000059942959050419000000001500023704400  000000000014300000000000000000000000000000000000000000000000000000000000000000000000000000000000000000000000000000000                          7600000000                                                                  000206
102122445950001000000009034510032549PREGTIT30883914538783     000000000000599429670000000000000000000000000902210319000599429600000000000059942967290319000000019000023704144  000000000014300000000000000000000000000000000000000000000000000000000000000000000000000000000000000000000000000000000                          7600000000                                                                  000207
102122445950001000000009034510032549PREGTIT30886035041978     000000000000599429830000000000000000000000000902210319000599429800000000000059942983210419000000008333423704151  000000000014300000000000000000000000000000000000000000000000000000000000000000000000000000000000000000000000000000000                          0000000000                                                                  000208
102122445950001000000009034510032549PREGTIT30886020670727     000000000000599429910000000000000000000000000902210319000599429900000000000059942991220419000000002400023700408  000000000014300000000000000000000000000000000000000000000000000000000000000000000000000000000000000000000000000000000                          0000000000                                                                  000209
102122445950001000000009034510032549PREGTIT30882470847960     000000000000599430250000000000000000000000000902210319000599430200000000000059943025210419000000001750023704151  000000000014300000000000000000000000000000000000000000000000000000000000000000000000000000000000000000000000000000000                          0000000000                                                                  000210
102122445950001000000009034510032549PREGTIT30896564290461     000000000000599430330000000000000000000000000902210319000599430300000000000059943033070419000000001100023700408  000000000014300000000000000000000000000000000000000000000000000000000000000000000000000000000000000000000000000000000                          0000000000                                                                  000211
102122445950001000000009034510032549PREGTIT30893905783953     000000000000599430840000000000000000000000000902210319000599430800000000000059943084210419000000019880023704151  000000000014300000000000000000000000000000000000000000000000000000000000000000000000000000000000000000000000000000000                          0000000000                                                                  000212
102122445950001000000009034510032549PREGTIT30898790776162     000000000000599431060000000000000000000000000902210319000599431000000000000059943106210419000000014000023704151  000000000014300000000000000000000000000000000000000000000000000000000000000000000000000000000000000000000000000000000                          0000000000                                                                  000213
102122445950001000000009034510032549PREGTIT30893158121717     000000000000599431140000000000000000000000000902210319000599431100000000000059943114100419000000000950023700408  000000000014300000000000000000000000000000000000000000000000000000000000000000000000000000000000000000000000000000000                          0000000000                                                                  000214
102122445950001000000009034510032549PREGTIT30893158121717     000000000000599431220000000000000000000000000902210319000599431200000000000059943122100519000000000950023700408  000000000014300000000000000000000000000000000000000000000000000000000000000000000000000000000000000000000000000000000                          0000000000                                                                  000215
102122445950001000000009034510032549PREGTIT30894430871055     000000000000599431570000000000000000000000000902210319000599431500000000000059943157220419000000001700023704151  000000000014300000000000000000000000000000000000000000000000000000000000000000000000000000000000000000000000000000000                          7600000000                                                                  000216
102122445950001000000009034510032549PREGTIT30894239078892     000000000000599432540000000000000000000000000902210319000599432500000000000059943254210419000000001500023700408  000000000014300000000000000000000000000000000000000000000000000000000000000000000000000000000000000000000000000000000                          0000000000                                                                  000217
102122445950001000000009034510032549PREGTIT30892828816262     000000000000599432970000000000000000000000000902210319000599432900000000000059943297220419000000000975023700408  000000000014300000000000000000000000000000000000000000000000000000000000000000000000000000000000000000000000000000000                          0000000000                                                                  000218
102122445950001000000009034510032549PREGTIT30897697879634     000000000000599433430000000000000000000000000902210319000599433400000000000059943343210419000000010000023704151  000000000014300000000000000000000000000000000000000000000000000000000000000000000000000000000000000000000000000000000                          0000000000                                                                  000219
102122445950001000000009034510032549PREGTIT30898192430991     0000000000005994336P000000000000000000000000090221031900059943360000000000005994336P210419000000029498423704151  000000000014300000000000000000000000000000000000000000000000000000000000000000000000000000000000000000000000000000000                          0000000000                                                                  000220
102122445950001000000009034510032549PREGTIT30894507665029     000000000000599433780000000000000000000000000902210319000599433700000000000059943378250419000000000625023700408  000000000014300000000000000000000000000000000000000000000000000000000000000000000000000000000000000000000000000000000                          0000000000                                                                  000221
102122445950001000000009034510032549PREGTIT30893790858433     000000000000599434160000000000000000000000000902210319000599434100000000000059943416210419000000002738523704151  000000000014300000000000000000000000000000000000000000000000000000000000000000000000000000000000000000000000000000000                          0000000000                                                                  000222
102122445950001000000009034510032549PREGTIT30922977128848     000000000000599434400000000000000000000000000902210319000599434400000000000059943440280319000000004200023704144  000000000014300000000000000000000000000000000000000000000000000000000000000000000000000000000000000000000000000000000                          0000000000                                                                  000223
102122445950001000000009034510032549PREGTIT30929527288029     000000000000599434750000000000000000000000000902210319000599434700000000000059943475010419000000000720023704144  000000000014300000000000000000000000000000000000000000000000000000000000000000000000000000000000000000000000000000000                          0000000000                                                                  000224
102122445950001000000009034510032549PREGTIT30932547616817     000000000000599435210000000000000000000000000902210319000599435200000000000059943521250419000000004700023704152  000000000014300000000000000000000000000000000000000000000000000000000000000000000000000000000000000000000000000000000                          7600000000                                                                  000225
102122445950001000000009034510032549PREGTIT30934106941545     000000000000599435990000000000000000000000000902210319000599435900000000000059943599250419000000002640023704151  000000000014300000000000000000000000000000000000000000000000000000000000000000000000000000000000000000000000000000000                          0000000000                                                                  000226
102122445950001000000009034510032549PREGTIT30947278320383     000000000000599436450000000000000000000000000902210319000599436400000000000059943645020419000000002075023704144  000000000014300000000000000000000000000000000000000000000000000000000000000000000000000000000000000000000000000000000                          7600000000                                                                  000227
102122445950001000000009034510032549PREGTIT30947278320383     000000000000599436530000000000000000000000000902210319000599436500000000000059943653020519000000002075023704144  000000000014300000000000000000000000000000000000000000000000000000000000000000000000000000000000000000000000000000000                          7600000000                                                                  000228
102122445950001000000009034510032549PREGTIT30946365842152     0000000000005994370P000000000000000000000000090221031900059943700000000000005994370P210419000000002804623704151  000000000014300000000000000000000000000000000000000000000000000000000000000000000000000000000000000000000000000000000                          7600000000                                                                  000229
102122445950001000000009034510032549PREGTIT30957983205380     000000000000599438230000000000000000000000000902210319000599438200000000000059943823250319000000009000023704151  000000000014300000000000000000000000000000000000000000000000000000000000000000000000000000000000000000000000000000000                          0000000000                                                                  000230
102122445950001000000009034510032549PREGTIT30955711763124     000000000000599438310000000000000000000000000902210319000599438300000000000059943831150419000000000890023700073  000000000014300000000000000000000000000000000000000000000000000000000000000000000000000000000000000000000000000000000                          7600000000                                                                  000231
102122445950001000000009034510032549PREGTIT30955711763124     0000000000005994384P000000000000000000000000090221031900059943840000000000005994384P150519000000000890023700073  000000000014300000000000000000000000000000000000000000000000000000000000000000000000000000000000000000000000000000000                          7600000000                                                                  000232
102122445950001000000009034510032549PREGTIT30955573025349     000000000000599440560000000000000000000000000902210319000599440500000000000059944056150419000000000890023700073  000000000014300000000000000000000000000000000000000000000000000000000000000000000000000000000000000000000000000000000                          7600000000                                                                  000233
102122445950001000000009034510032549PREGTIT30955573025349     000000000000599440640000000000000000000000000902210319000599440600000000000059944064150519000000000890023700073  000000000014300000000000000000000000000000000000000000000000000000000000000000000000000000000000000000000000000000000                          7600000000                                                                  000234
102122445950001000000009034510032549PREGTIT30961395478956     000000000000599443900000000000000000000000000902210319000599443900000000000059944390250319000000026000023704151  000000000014300000000000000000000000000000000000000000000000000000000000000000000000000000000000000000000000000000000                          0000000000                                                                  000235
102122445950001000000009034510032549PREGTIT30963045306901     000000000000599444120000000000000000000000000902210319000599444100000000000059944412250319000000015000023704151  000000000014300000000000000000000000000000000000000000000000000000000000000000000000000000000000000000000000000000000                          0000000000                                                                  000236
102122445950001000000009034510032549PREGTIT30964456814357     000000000000599444390000000000000000000000000902210319000599444300000000000059944439250319000000030800023704151  000000000014300000000000000000000000000000000000000000000000000000000000000000000000000000000000000000000000000000000                          0000000000                                                                  000237
102122445950001000000009034510032549PREGTIT30964552261423     000000000000599444470000000000000000000000000902210319000599444400000000000059944447110419000000002960023704157  000000000014300000000000000000000000000000000000000000000000000000000000000000000000000000000000000000000000000000000                          0000000000                                                                  000238
102122445950001000000009034510032549PREGTIT30966505000102     000000000000599444630000000000000000000000000902210319000599444600000000000059944463250319000000034200023704151  000000000014300000000000000000000000000000000000000000000000000000000000000000000000000000000000000000000000000000000                          0000000000                                                                  000239
102122445950001000000009034510032549PREGTIT30964828256335     0000000000005994448P000000000000000000000000090221031900059944480000000000005994448P250319000000008800023704151  000000000014300000000000000000000000000000000000000000000000000000000000000000000000000000000000000000000000000000000                          0000000000                                                                  000240
102122445950001000000009034510032549PREGTIT30968785861122     000000000000599445010000000000000000000000000902210319000599445000000000000059944501250319000000006800023704151  000000000014300000000000000000000000000000000000000000000000000000000000000000000000000000000000000000000000000000000                          7600000000                                                                  000241
102122445950001000000009034510032549PREGTIT26086684223823     000000000000582969210000000000000000000000000906210319000582969200000000000058296921200319000000002030010400170  000000000000000000000000000000000000000000000000000000000000000000000000000000000000002072000000000004200000000000000   220319             00000000000000                                                                  000242
102122445950001000000009034510032549PREGTIT26081321655035     000000000000583222720000000000000000000000000906210319000583222700000000000058322272200319000000002030000100273  000000000000000000000000000000000000000000000000000000000000000000000000000000000000002072000000000004200000000000000   220319             00000000000000                                                                  000243
102122445950001000000009034510032549PREGTIT24096994165509     000000000000583888690000000000000000000000000906210319000583888600000000000058388869200219000000001670023700917  000000000000000000000000000000000000000000000000000000000000000000000000000000000000001735300000000006530000000000000   220319             00000000000000                                                                  000244
102122445950001000000009034510032549PREGTIT26081385297638     000000000000587592550000000000000000000000000906210319000587592500000000000058759255220319000000005300023702861  000000000000000000000000000000000000000000000000000000000000000000000000000000000000005300000000000000000000000000000   220319             00000000000000                                                                  000245
102122445950001000000009034510032549PREGTIT26083711754273     000000000000588629940000000000000000000000000906210319000588629900000000000058862994200319000000001150023705619  000000000000000000000000000000000000000000000000000000000000000000000000000000000000001173800000000002380000000000000   220319             00000000000000                                                                  000246
102122445950001000000009034510032549PREGTIT26085197152847     000000000000588775680000000000000000000000000906210319000588775600000000000058877568200319000000001150010401580  000000000000000000000000000000000000000000000000000000000000000000000000000000000000001173800000000002380000000000000   220319             00000000000000                                                                  000247
102122445950001000000009034510032549PREGTIT26089629870984     000000000000588943060000000000000000000000000906210319000588943000000000000058894306200319000000002500023701259  000000000000000000000000000000000000000000000000000000000000000000000000000000000000002551700000000005170000000000000   220319             00000000000000                                                                  000248
