02RETORNO01COBRANCA       00000000000004972103WC SISTEMAS E EQUIPAMENTOS DE 237BRADESCO       0603190160000000559                                                                                                                                                                                                                                                                          070319         000001
1020874591800017100000090345100240370REGTIT20751812004782     000000000000596074670000000000000000000000000906060319181200478200000000000059607467281218000000002762503301258  000000000000000000000000000000000000000000000000000000000000000000000000010544000000001708100000000000000000000000000   070319078          00000000000000                                                                  000002
1020874591800017100000090345100240370REGTIT20751812070357     000000000000596390750000000000000000000000000906060319181207035700000000000059639075281218000000002397034103715  000000000000000000000000000000000000000000000000000000000000000000000000007773000000001619700000000000000000000000000   070319078          00000000000000                                                                  000003
1020874591800017100000090345100240370REGTIT22981901068265     000000000000597269700000000000000000000000000906060319190106826500000000000059726970300119000000000998010402864  000000000000000000000000000000000000000000000000000000000000000000000000000000000000001070400000000007240000000000000   070319078          00000000000000                                                                  000004
1020874591800017100000090345100240370REGTIT22981901069305     000000000000597302420000000000000000000000000906060319190106930500000000000059730242300119000000001448003303304  000000000000000000000000000000000000000000000000000000000000000000000000000000000000001477800000000002980000000000000   070319078          00000000000000                                                                  000005
1020874591800017100000090345100240370REGTIT22981901069463     000000000000597307650000000000000000000000000906060319190106946300000000000059730765300119000000001448003303304  000000000000000000000000000000000000000000000000000000000000000000000000000000000000001475600000000002760000000000000   070319078          00000000000000                                                                  000006
1020874591800017100000090345100240370REGTIT22981901071367     000000000000597395170000000000000000000000000906060319190107136700000000000059739517300119000000000998023702037  000000000000000000000000000000000000000000000000000000000000000000000000000000000000001070400000000007240000000000000   070319082          00000000000000                                                                  000007
1020874591800017100000090345100240370REGTIT22981901072150     000000000000597451770000000000000000000000000906060319190107215000000000000059745177300119000000000998003303304  000000000000000000000000000000000000000000000000000000000000000000000000000000000000001018000000000002000000000000000   070319078          00000000000000                                                                  000008
1020874591800017100000090345100240370REGTIT22981901072795     000000000000597507310000000000000000000000000906060319190107279500000000000059750731300119000000001375563300001  000000000000000000000000000000000000000000000000000000000000000000000000000000000000001476500000000010100000000000000   070319078          00000000000000                                                                  000009
1020874591800017100000090345100240370REGTIT24411902001308     000000000000597918020000000000000000000000000906060319190200130800000000000059791802280219000000000799034100274  000000000000000000000000000000000000000000000000000000000000000000000000000000000000000822100000000002310000000000000   070319078          00000000000000                                                                  000010
1020874591800017100000090345100240370REGTIT24411902017439     000000000000597932600000000000000000000000000906060319190201743900000000000059793260280219000000001518434105330  000000000000000000000000000000000000000000000000000000000000000000000000000000000000001562500000000004410000000000000   070319078          00000000000000                                                                  000011
1020874591800017100000090345100240370REGTIT24411902026544     000000000000597940380000000000000000000000000906060319190202654400000000000059794038280219000000000998034103715  000000000000000000000000000000000000000000000000000000000000000000000000000000000000001026900000000002890000000000000   070319078          00000000000000                                                                  000012
1020874591800017100000090345100240370REGTIT24411902036427     000000000000597950180000000000000000000000000906060319190203642700000000000059795018280219000000001010563300001  000000000000000000000000000000000000000000000000000000000000000000000000000000000000001039700000000002920000000000000   070319078          00000000000000                                                                  000013
1020874591800017100000090345100240370REGTIT24411902039334     000000000000597952390000000000000000000000000906060319190203933400000000000059795239280219000000001658000102781  000000000000000000000000000000000000000000000000000000000000000000000000000000000000001706100000000004810000000000000   070319078          00000000000000                                                                  000014
1020874591800017100000090345100240370REGTIT24411902040465     000000000000597953520000000000000000000000000906060319190204046500000000000059795352280219000000001417674800718  000000000000000000000000000000000000000000000000000000000000000000000000000000000000001458500000000004090000000000000   070319078          00000000000000                                                                  000015
1020874591800017100000090345100240370REGTIT24411902040466     000000000000597953600000000000000000000000000906060319190204046600000000000059795360280219000000004861410400793  000000000000000000000000000000000000000000000000000000000000000000000000000000000000005002400000000014100000000000000   070319078          00000000000000                                                                  000016
1020874591800017100000090345100240370REGTIT24411902043087     000000000000597957190000000000000000000000000906060319190204308700000000000059795719280219000000002291123702178  000000000000000000000000000000000000000000000000000000000000000000000000000000000000002357300000000006620000000000000   070319035          00000000000000                                                                  000017
1020874591800017100000090345100240370REGTIT24411902044699     000000000000597958910000000000000000000000000906060319190204469900000000000059795891280219000000001448004100797  000000000000000000000000000000000000000000000000000000000000000000000000000000000000001490100000000004210000000000000   070319078          00000000000000                                                                  000018
1020874591800017100000090345100240370REGTIT24411902049243     000000000000597964210000000000000000000000000906060319190204924300000000000059796421280219000000001407034103834  000000000000000000000000000000000000000000000000000000000000000000000000000000000000001447700000000004070000000000000   070319078          00000000000000                                                                  000019
1020874591800017100000090345100240370REGTIT24411902050177     000000000000597965880000000000000000000000000906060319190205017700000000000059796588280219000000001001834109180  000000000000000000000000000000000000000000000000000000000000000000000000000000000000001030800000000002900000000000000   070319078          00000000000000                                                                  000020
1020874591800017100000090345100240370REGTIT24411902050747     000000000000597967150000000000000000000000000906060319190205074700000000000059796715280219000000001330734100548  000000000000000000000000000000000000000000000000000000000000000000000000000000000000001369300000000003860000000000000   070319078          00000000000000                                                                  000021
1020874591800017100000090345100240370REGTIT24411902053973     000000000000597972230000000000000000000000000906060319190205397300000000000059797223280219000000002229034100024  000000000000000000000000000000000000000000000000000000000000000000000000000000000000002293300000000006430000000000000   070319078          00000000000000                                                                  000022
1020874591800017100000090345100240370REGTIT24411902054354     000000000000597972900000000000000000000000000906060319190205435400000000000059797290280219000000001874023700580  000000000000000000000000000000000000000000000000000000000000000000000000000000000000001928200000000005420000000000000   070319082          00000000000000                                                                  000023
1020874591800017100000090345100240370REGTIT24411902055755     000000000000597975330000000000000000000000000906060319190205575500000000000059797533280219000000001448003301552  000000000000000000000000000000000000000000000000000000000000000000000000000000000000001490100000000004210000000000000   070319078          00000000000000                                                                  000024
1020874591800017100000090345100240370REGTIT24411902057016     000000000000597977700000000000000000000000000906060319190205701600000000000059797770280219000000001617000104042  000000000000000000000000000000000000000000000000000000000000000000000000000000000000001663700000000004670000000000000   070319078          00000000000000                                                                  000025
1020874591800017100000090345100240370REGTIT24411902057760     000000000000597979320000000000000000000000000906060319190205776000000000000059797932280219000000001263674808045  000000000000000000000000000000000000000000000000000000000000000000000000000000000000001300200000000003660000000000000   070319078          00000000000000                                                                  000026
1020874591800017100000090345100240370REGTIT24411902058384     000000000000597982110000000000000000000000000906060319190205838400000000000059798211280219000000001828010400969  000000000000000000000000000000000000000000000000000000000000000000000000000000000000001880700000000005270000000000000   070319078          00000000000000                                                                  000027
1020874591800017100000090345100240370REGTIT24411902059493     000000000000597986290000000000000000000000000906060319190205949300000000000059798629280219000000001149023703158  000000000000000000000000000000000000000000000000000000000000000000000000000000000000001182100000000003310000000000000   070319082          00000000000000                                                                  000028
1020874591800017100000090345100240370REGTIT24411902060304     000000000000597988660000000000000000000000000906060319190206030400000000000059798866280219000000001994010401318  000000000000000000000000000000000000000000000000000000000000000000000000000000000000002051800000000005780000000000000   070319078          00000000000000                                                                  000029
1020874591800017100000090345100240370REGTIT24411902060850     000000000000597990800000000000000000000000000906060319190206085000000000000059799080280219000000001282334102774  000000000000000000000000000000000000000000000000000000000000000000000000000000000000001319300000000003700000000000000   070319078          00000000000000                                                                  000030
1020874591800017100000090345100240370REGTIT24411902061669     000000000000597994040000000000000000000000000906060319190206166900000000000059799404280219000000000998003300823  000000000000000000000000000000000000000000000000000000000000000000000000000000000000001026900000000002890000000000000   070319078          00000000000000                                                                  000031
1020874591800017100000090345100240370REGTIT24411902062338     000000000000597997730000000000000000000000000906060319190206233800000000000059799773280219000000001343923706509  000000000000000000000000000000000000000000000000000000000000000000000000000000000000001382700000000003880000000000000   070319002          00000000000000                                                                  000032
1020874591800017100000090345100240370REGTIT24411902062698     000000000000598001350000000000000000000000000906060319190206269800000000000059800135280219000000001878010400380  000000000000000000000000000000000000000000000000000000000000000000000000000000000000001932300000000005430000000000000   070319078          00000000000000                                                                  000033
1020874591800017100000090345100240370REGTIT24411902062774     000000000000598002240000000000000000000000000906060319190206277400000000000059800224280219000000000899003303732  000000000000000000000000000000000000000000000000000000000000000000000000000000000000000924700000000002570000000000000   070319078          00000000000000                                                                  000034
1020874591800017100000090345100240370REGTIT24411902062840     000000000000598002400000000000000000000000000906060319190206284000000000000059800240280219000000002143000101505  000000000000000000000000000000000000000000000000000000000000000000000000000000000000002205000000000006200000000000000   070319078          00000000000000                                                                  000035
1020874591800017100000090345100240370REGTIT24411902063125     000000000000598005690000000000000000000000000906060319190206312500000000000059800569280219000000001878023706070  000000000000000000000000000000000000000000000000000000000000000000000000000000000000001932300000000005430000000000000   070319074          00000000000000                                                                  000036
1020874591800017100000090345100240370REGTIT24411902063566     000000000000598010260000000000000000000000000906060319190206356600000000000059801026280219000000002198010401282  000000000000000000000000000000000000000000000000000000000000000000000000000000000000002261700000000006370000000000000   070319078          00000000000000                                                                  000037
1020874591800017100000090345100240370REGTIT24411902063857     000000000000598013520000000000000000000000000906060319190206385700000000000059801352280219000000001550004100201  000000000000000000000000000000000000000000000000000000000000000000000000000000000000001594800000000004480000000000000   070319078          00000000000000                                                                  000038
1020874591800017100000090345100240370REGTIT24411902064076     000000000000598017000000000000000000000000000906060319190206407600000000000059801700280219000000001755003300813  000000000000000000000000000000000000000000000000000000000000000000000000000000000000001805700000000005070000000000000   070319078          00000000000000                                                                  000039
1020874591800017100000090345100240370REGTIT24411902064365     000000000000598020140000000000000000000000000906060319190206436500000000000059802014280219000000001848034103701  000000000000000000000000000000000000000000000000000000000000000000000000000000000000001901700000000005370000000000000   070319078          00000000000000                                                                  000040
1020874591800017100000090345100240370REGTIT24411902064411     0000000000005980209P000000000000000000000000090606031919020644110000000000005980209P280219000000001649074807419  000000000000000000000000000000000000000000000000000000000000000000000000000000000000001696900000000004790000000000000   070319078          00000000000000                                                                  000041
1020874591800017100000090345100240370REGTIT24411902064519     000000000000598022510000000000000000000000000906060319190206451900000000000059802251280219000000001649003300812  000000000000000000000000000000000000000000000000000000000000000000000000000000000000001696900000000004790000000000000   070319078          00000000000000                                                                  000042
1020874591800017100000090345100240370REGTIT24411902064606     000000000000598024130000000000000000000000000906060319190206460600000000000059802413280219000000000799003301649  000000000000000000000000000000000000000000000000000000000000000000000000000000000000000822100000000002310000000000000   070319078          00000000000000                                                                  000043
1020874591800017100000090345100240370REGTIT24411902064806     000000000000598027900000000000000000000000000906060319190206480600000000000059802790280219000000001989804100871  000000000000000000000000000000000000000000000000000000000000000000000000000000000000002047500000000005770000000000000   070319078          00000000000000                                                                  000044
1020874591800017100000090345100240370REGTIT24411902064882     000000000000598029360000000000000000000000000906060319190206488200000000000059802936280219000000001599034108411  000000000000000000000000000000000000000000000000000000000000000000000000000000000000001645300000000004630000000000000   070319078          00000000000000                                                                  000045
1020874591800017100000090345100240370REGTIT24411902064977     000000000000598030370000000000000000000000000906060319190206497700000000000059803037280219000000001587003302167  000000000000000000000000000000000000000000000000000000000000000000000000000000000000001633100000000004610000000000000   070319078          00000000000000                                                                  000046
1020874591800017100000090345100240370REGTIT24411902065027     000000000000598031180000000000000000000000000906060319190206502700000000000059803118280219000000002282010400637  000000000000000000000000000000000000000000000000000000000000000000000000000000000000002348000000000006600000000000000   070319078          00000000000000                                                                  000047
1020874591800017100000090345100240370REGTIT24411902065092     000000000000598033200000000000000000000000000906060319190206509200000000000059803320280219000000001523010400406  000000000000000000000000000000000000000000000000000000000000000000000000000000000000001567200000000004420000000000000   070319078          00000000000000                                                                  000048
1020874591800017100000090345100240370REGTIT24411902065414     000000000000598042890000000000000000000000000906060319190206541400000000000059804289280219000000001878034100624  000000000000000000000000000000000000000000000000000000000000000000000000000000000000001932300000000005430000000000000   070319078          00000000000000                                                                  000049
1020874591800017100000090345100240370REGTIT24411902065684     000000000000598050050000000000000000000000000906060319190206568400000000000059805005280219000000001748034108866  000000000000000000000000000000000000000000000000000000000000000000000000000000000000001798500000000005050000000000000   070319078          00000000000000                                                                  000050
1020874591800017100000090345100240370REGTIT24411902065705     000000000000598050990000000000000000000000000906060319190206570500000000000059805099280219000000001748010401266  000000000000000000000000000000000000000000000000000000000000000000000000000000000000001798500000000005050000000000000   070319078          00000000000000                                                                  000051
1020874591800017100000090345100240370REGTIT24411902065740     000000000000598053150000000000000000000000000906060319190206574000000000000059805315280219000000001748010403492  000000000000000000000000000000000000000000000000000000000000000000000000000000000000001798500000000005050000000000000   070319078          00000000000000                                                                  000052
1020874591800017100000090345100240370REGTIT24411902065774     000000000000598054040000000000000000000000000906060319190206577400000000000059805404280219000000001748023702037  000000000000000000000000000000000000000000000000000000000000000000000000000000000000001798500000000005050000000000000   070319002          00000000000000                                                                  000053
1020874591800017100000090345100240370REGTIT24411902065825     000000000000598055520000000000000000000000000906060319190206582500000000000059805552280219000000001748034106663  000000000000000000000000000000000000000000000000000000000000000000000000000000000000001798500000000005050000000000000   070319078          00000000000000                                                                  000054
1020874591800017100000090345100240370REGTIT24411902065844     000000000000598056250000000000000000000000000906060319190206584400000000000059805625280219000000000974003304453  000000000000000000000000000000000000000000000000000000000000000000000000000000000000001002400000000002840000000000000   070319078          00000000000000                                                                  000055
1020874591800017100000090345100240370REGTIT24411902065872     000000000000598057220000000000000000000000000906060319190206587200000000000059805722280219000000001748003300812  000000000000000000000000000000000000000000000000000000000000000000000000000000000000001798500000000005050000000000000   070319078          00000000000000                                                                  000056
1020874591800017100000090345100240370REGTIT24411902065921     000000000000598058890000000000000000000000000906060319190206592100000000000059805889280219000000001548010400464  000000000000000000000000000000000000000000000000000000000000000000000000000000000000001592700000000004470000000000000   070319078          00000000000000                                                                  000057
1020874591800017100000090345100240370REGTIT24411902066032     000000000000598062220000000000000000000000000906060319190206603200000000000059806222280219000000001748010403915  000000000000000000000000000000000000000000000000000000000000000000000000000000000000001798500000000005050000000000000   070319078          00000000000000                                                                  000058
1020874591800017100000090345100240370REGTIT24411902066045     000000000000598062810000000000000000000000000906060319190206604500000000000059806281280219000000001549074807017  000000000000000000000000000000000000000000000000000000000000000000000000000000000000001593700000000004470000000000000   070319078          00000000000000                                                                  000059
1020874591800017100000090345100240370REGTIT24411902066068     000000000000598063620000000000000000000000000906060319190206606800000000000059806362280219000000001348003301273  000000000000000000000000000000000000000000000000000000000000000000000000000000000000001386900000000003890000000000000   070319078          00000000000000                                                                  000060
1020874591800017100000090345100240370REGTIT24411902066142     000000000000598066640000000000000000000000000906060319190206614200000000000059806664280219000000001748000101265  000000000000000000000000000000000000000000000000000000000000000000000000000000000000001798500000000005050000000000000   070319078          00000000000000                                                                  000061
1020874591800017100000090345100240370REGTIT24411902066359     000000000000598075040000000000000000000000000906060319190206635900000000000059807504280219000000001698010400406  000000000000000000000000000000000000000000000000000000000000000000000000000000000000001746900000000004890000000000000   070319078          00000000000000                                                                  000062
1020874591800017100000090345100240370REGTIT24411902066376     0000000000005980758P000000000000000000000000090606031919020663760000000000005980758P280219000000001698023705816  000000000000000000000000000000000000000000000000000000000000000000000000000000000000001746900000000004890000000000000   070319082          00000000000000                                                                  000063
1020874591800017100000090345100240370REGTIT24411902066458     000000000000598079620000000000000000000000000906060319190206645800000000000059807962280219000000001499010400386  000000000000000000000000000000000000000000000000000000000000000000000000000000000000001542100000000004310000000000000   070319078          00000000000000                                                                  000064
1020874591800017100000090345100240370REGTIT24411902066473     000000000000598080550000000000000000000000000906060319190206647300000000000059808055280219000000001555074807057  000000000000000000000000000000000000000000000000000000000000000000000000000000000000001599900000000004490000000000000   070319078          00000000000000                                                                  000065
1020874591800017100000090345100240370REGTIT24411902066476     0000000000005980808P000000000000000000000000090606031919020664760000000000005980808P280219000000001698003301102  000000000000000000000000000000000000000000000000000000000000000000000000000000000000001746900000000004890000000000000   070319078          00000000000000                                                                  000066
1020874591800017100000090345100240370REGTIT24411902066595     000000000000598085430000000000000000000000000906060319190206659500000000000059808543280219000000001549034104852  000000000000000000000000000000000000000000000000000000000000000000000000000000000000001593700000000004470000000000000   070319078          00000000000000                                                                  000067
1020874591800017100000090345100240370REGTIT24411902066643     000000000000598087640000000000000000000000000906060319190206664300000000000059808764280219000000001698034100092  000000000000000000000000000000000000000000000000000000000000000000000000000000000000001746900000000004890000000000000   070319078          00000000000000                                                                  000068
1020874591800017100000090345100240370REGTIT24411902066703     000000000000598090350000000000000000000000000906060319190206670300000000000059809035280219000000001698004100712  000000000000000000000000000000000000000000000000000000000000000000000000000000000000001746900000000004890000000000000   070319078          00000000000000                                                                  000069
1020874591800017100000090345100240370REGTIT24411902066718     000000000000598091240000000000000000000000000906060319190206671800000000000059809124280219000000001548010401952  000000000000000000000000000000000000000000000000000000000000000000000000000000000000001592700000000004470000000000000   070319078          00000000000000                                                                  000070
1020874591800017100000090345100240370REGTIT24411902066723     000000000000598091400000000000000000000000000906060319190206672300000000000059809140280219000000001249003302102  000000000000000000000000000000000000000000000000000000000000000000000000000000000000001285300000000003630000000000000   070319078          00000000000000                                                                  000071
1020874591800017100000090345100240370REGTIT24411902066754     000000000000598092210000000000000000000000000906060319190206675400000000000059809221280219000000001249074800752  000000000000000000000000000000000000000000000000000000000000000000000000000000000000001285300000000003630000000000000   070319078          00000000000000                                                                  000072
1020874591800017100000090345100240370REGTIT24411902066824     000000000000598094690000000000000000000000000906060319190206682400000000000059809469280219000000001319003301586  000000000000000000000000000000000000000000000000000000000000000000000000000000000000001357300000000003830000000000000   070319078          00000000000000                                                                  000073
1020874591800017100000090345100240370REGTIT24411902067103     000000000000598107500000000000000000000000000906060319190206710300000000000059810750280219000000001548010404609  000000000000000000000000000000000000000000000000000000000000000000000000000000000000001592700000000004470000000000000   070319078          00000000000000                                                                  000074
1020874591800017100000090345100240370REGTIT24411902067200     000000000000598110990000000000000000000000000906060319190206720000000000000059811099280219000000000870010401632  000000000000000000000000000000000000000000000000000000000000000000000000000000000000000895200000000002520000000000000   070319078          00000000000000                                                                  000075
1020874591800017100000090345100240370REGTIT24411902067260     000000000000598113820000000000000000000000000906060319190206726000000000000059811382280219000000001503103301236  000000000000000000000000000000000000000000000000000000000000000000000000000000000000001546900000000004380000000000000   070319078          00000000000000                                                                  000076
1020874591800017100000090345100240370REGTIT24411902067280     000000000000598114710000000000000000000000000906060319190206728000000000000059811471280219000000001049023702383  000000000000000000000000000000000000000000000000000000000000000000000000000000000000001079500000000003050000000000000   070319082          00000000000000                                                                  000077
1020874591800017100000090345100240370REGTIT24411902067301     000000000000598116090000000000000000000000000906060319190206730100000000000059811609280219000000001598034102947  000000000000000000000000000000000000000000000000000000000000000000000000000000000000001644300000000004630000000000000   070319078          00000000000000                                                                  000078
1020874591800017100000090345100240370REGTIT24411902067463     000000000000598122650000000000000000000000000906060319190206746300000000000059812265280219000000001079003301548  000000000000000000000000000000000000000000000000000000000000000000000000000000000000001110100000000003110000000000000   070319078          00000000000000                                                                  000079
1020874591800017100000090345100240370REGTIT24411902067498     000000000000598124270000000000000000000000000906060319190206749800000000000059812427280219000000001503110401546  000000000000000000000000000000000000000000000000000000000000000000000000000000000000001546900000000004380000000000000   070319078          00000000000000                                                                  000080
1020874591800017100000090345100240370REGTIT24411902067513     000000000000598124860000000000000000000000000906060319190206751300000000000059812486280219000000001545923701345  000000000000000000000000000000000000000000000000000000000000000000000000000000000000001590600000000004470000000000000   070319035          00000000000000                                                                  000081
1020874591800017100000090345100240370REGTIT24411902067566     000000000000598127020000000000000000000000000906060319190206756600000000000059812702280219000000001598003301572  000000000000000000000000000000000000000000000000000000000000000000000000000000000000001644300000000004630000000000000   070319078          00000000000000                                                                  000082
1020874591800017100000090345100240370REGTIT24411902067595     000000000000598128500000000000000000000000000906060319190206759500000000000059812850280219000000001598034107187  000000000000000000000000000000000000000000000000000000000000000000000000000000000000001644300000000004630000000000000   070319078          00000000000000                                                                  000083
1020874591800017100000090345100240370REGTIT24411902067606     000000000000598128770000000000000000000000000906060319190206760600000000000059812877280219000000001223610403379  000000000000000000000000000000000000000000000000000000000000000000000000000000000000001258800000000003520000000000000   070319078          00000000000000                                                                  000084
1020874591800017100000090345100240370REGTIT24411902067648     000000000000598130400000000000000000000000000906060319190206764800000000000059813040280219000000001388234100098  000000000000000000000000000000000000000000000000000000000000000000000000000000000000001428500000000004030000000000000   070319078          00000000000000                                                                  000085
1020874591800017100000090345100240370REGTIT24411902067748     000000000000598133420000000000000000000000000906060319190206774800000000000059813342280219000000000935000105712  000000000000000000000000000000000000000000000000000000000000000000000000000000000000000962100000000002710000000000000   070319078          00000000000000                                                                  000086
1020874591800017100000090345100240370REGTIT24411902067954     000000000000598138300000000000000000000000000906060319190206795400000000000059813830280219000000000924023706705  000000000000000000000000000000000000000000000000000000000000000000000000000000000000000950800000000002680000000000000   070319035          00000000000000                                                                  000087
1020874591800017100000090345100240370REGTIT24411902068000     000000000000598139700000000000000000000000000906060319190206800000000000000059813970280219000000001348010401040  000000000000000000000000000000000000000000000000000000000000000000000000000000000000001386900000000003890000000000000   070319078          00000000000000                                                                  000088
1020874591800017100000090345100240370REGTIT24411902068008     000000000000598140040000000000000000000000000906060319190206800800000000000059814004280219000000001249034102775  000000000000000000000000000000000000000000000000000000000000000000000000000000000000001285300000000003630000000000000   070319078          00000000000000                                                                  000089
1020874591800017100000090345100240370REGTIT24411902068010     000000000000598140120000000000000000000000000906060319190206801000000000000059814012280219000000000899034102775  000000000000000000000000000000000000000000000000000000000000000000000000000000000000000924700000000002570000000000000   070319078          00000000000000                                                                  000090
1020874591800017100000090345100240370REGTIT24411902068030     000000000000598140980000000000000000000000000906060319190206803000000000000059814098280219000000000999003303554  000000000000000000000000000000000000000000000000000000000000000000000000000000000000001027900000000002890000000000000   070319078          00000000000000                                                                  000091
1020874591800017100000090345100240370REGTIT24411902068031     000000000000598141010000000000000000000000000906060319190206803100000000000059814101280219000000001598023701205  000000000000000000000000000000000000000000000000000000000000000000000000000000000000001644300000000004630000000000000   070319082          00000000000000                                                                  000092
1020874591800017100000090345100240370REGTIT24411902068111     000000000000598143490000000000000000000000000906060319190206811100000000000059814349280219000000001098010400998  000000000000000000000000000000000000000000000000000000000000000000000000000000000000001129500000000003150000000000000   070319078          00000000000000                                                                  000093
1020874591800017100000090345100240370REGTIT24411902068132     0000000000005981439P000000000000000000000000090606031919020681320000000000005981439P280219000000001598034101568  000000000000000000000000000000000000000000000000000000000000000000000000000000000000001644300000000004630000000000000   070319078          00000000000000                                                                  000094
1020874591800017100000090345100240370REGTIT24411902068283     000000000000598149420000000000000000000000000906060319190206828300000000000059814942280219000000001249034106896  000000000000000000000000000000000000000000000000000000000000000000000000000000000000001285300000000003630000000000000   070319078          00000000000000                                                                  000095
1020874591800017100000090345100240370REGTIT24411902068327     000000000000598150860000000000000000000000000906060319190206832700000000000059815086280219000000001448010403371  000000000000000000000000000000000000000000000000000000000000000000000000000000000000001490100000000004210000000000000   070319078          00000000000000                                                                  000096
1020874591800017100000090345100240370REGTIT24411902068347     000000000000598151670000000000000000000000000906060319190206834700000000000059815167280219000000001387034103715  000000000000000000000000000000000000000000000000000000000000000000000000000000000000001427300000000004030000000000000   070319078          00000000000000                                                                  000097
1020874591800017100000090345100240370REGTIT24411902068498     000000000000598155820000000000000000000000000906060319190206849800000000000059815582280219000000001049010403915  000000000000000000000000000000000000000000000000000000000000000000000000000000000000001079500000000003050000000000000   070319078          00000000000000                                                                  000098
1020874591800017100000090345100240370REGTIT24411902068499     000000000000598155900000000000000000000000000906060319190206849900000000000059815590280219000000001234010403915  000000000000000000000000000000000000000000000000000000000000000000000000000000000000001270000000000003600000000000000   070319078          00000000000000                                                                  000099
1020874591800017100000090345100240370REGTIT24411902068511     000000000000598156390000000000000000000000000906060319190206851100000000000059815639280219000000001198034106546  000000000000000000000000000000000000000000000000000000000000000000000000000000000000001232700000000003470000000000000   070319078          00000000000000                                                                  000100
1020874591800017100000090345100240370REGTIT24411902068517     000000000000598156630000000000000000000000000906060319190206851700000000000059815663280219000000000068900100982  000000000000000000000000000000000000000000000000000000000000000000000000000000000000000070800000000000190000000000000   070319078          00000000000000                                                                  000101
1020874591800017100000090345100240370REGTIT24411902068599     000000000000598159300000000000000000000000000906060319190206859900000000000059815930280219000000001448003300968  000000000000000000000000000000000000000000000000000000000000000000000000000000000000001490100000000004210000000000000   070319078          00000000000000                                                                  000102
1020874591800017100000090345100240370REGTIT24411902068604     000000000000598159570000000000000000000000000906060319190206860400000000000059815957280219000000001448023702022  000000000000000000000000000000000000000000000000000000000000000000000000000000000000001490100000000004210000000000000   070319066          00000000000000                                                                  000103
1020874591800017100000090345100240370REGTIT24411902068655     000000000000598160820000000000000000000000000906060319190206865500000000000059816082280219000000001249023700112  000000000000000000000000000000000000000000000000000000000000000000000000000000000000001285300000000003630000000000000   070319002          00000000000000                                                                  000104
1020874591800017100000090345100240370REGTIT24411902068710     000000000000598162870000000000000000000000000906060319190206871000000000000059816287280219000000001448023702157  000000000000000000000000000000000000000000000000000000000000000000000000000000000000001490100000000004210000000000000   070319035          00000000000000                                                                  000105
1020874591800017100000090345100240370REGTIT24411902068811     000000000000598166190000000000000000000000000906060319190206881100000000000059816619280219000000001448000107817  000000000000000000000000000000000000000000000000000000000000000000000000000000000000001490100000000004210000000000000   070319078          00000000000000                                                                  000106
1020874591800017100000090345100240370REGTIT24411902068876     000000000000598168480000000000000000000000000906060319190206887600000000000059816848280219000000001448003301649  000000000000000000000000000000000000000000000000000000000000000000000000000000000000001490100000000004210000000000000   070319078          00000000000000                                                                  000107
1020874591800017100000090345100240370REGTIT24411902068899     000000000000598168800000000000000000000000000906060319190206889900000000000059816880280219000000001448074800752  000000000000000000000000000000000000000000000000000000000000000000000000000000000000001490100000000004210000000000000   070319078          00000000000000                                                                  000108
1020874591800017100000090345100240370REGTIT24411902069042     000000000000598172320000000000000000000000000906060319190206904200000000000059817232280219000000001448003301273  000000000000000000000000000000000000000000000000000000000000000000000000000000000000001490100000000004210000000000000   070319078          00000000000000                                                                  000109
1020874591800017100000090345100240370REGTIT24411902069093     000000000000598174290000000000000000000000000906060319190206909300000000000059817429280219000000001098004100049  000000000000000000000000000000000000000000000000000000000000000000000000000000000000001129500000000003150000000000000   070319078          00000000000000                                                                  000110
1020874591800017100000090345100240370REGTIT24411902069095     000000000000598174370000000000000000000000000906060319190206909500000000000059817437280219000000001048034101568  000000000000000000000000000000000000000000000000000000000000000000000000000000000000001078500000000003050000000000000   070319078          00000000000000                                                                  000111
1020874591800017100000090345100240370REGTIT24411902069119     0000000000005981750P000000000000000000000000090606031919020691190000000000005981750P280219000000001586075604340  000000000000000000000000000000000000000000000000000000000000000000000000000000000000001632100000000004610000000000000   070319078          00000000000000                                                                  000112
1020874591800017100000090345100240370REGTIT24411902069132     000000000000598175500000000000000000000000000906060319190206913200000000000059817550280219000000001448000101265  000000000000000000000000000000000000000000000000000000000000000000000000000000000000001490100000000004210000000000000   070319078          00000000000000                                                                  000113
1020874591800017100000090345100240370REGTIT24411902069273     000000000000598179680000000000000000000000000906060319190206927300000000000059817968280219000000001448003303945  000000000000000000000000000000000000000000000000000000000000000000000000000000000000001490100000000004210000000000000   070319078          00000000000000                                                                  000114
1020874591800017100000090345100240370REGTIT24411902069294     000000000000598180340000000000000000000000000906060319190206929400000000000059818034280219000000001326823701360  000000000000000000000000000000000000000000000000000000000000000000000000000000000000001365300000000003850000000000000   070319082          00000000000000                                                                  000115
1020874591800017100000090345100240370REGTIT24411902069397     000000000000598183360000000000000000000000000906060319190206939700000000000059818336280219000000001448034101325  000000000000000000000000000000000000000000000000000000000000000000000000000000000000001490100000000004210000000000000   070319078          00000000000000                                                                  000116
1020874591800017100000090345100240370REGTIT24411902069477     000000000000598185730000000000000000000000000906060319190206947700000000000059818573280219000000001448008500108  000000000000000000000000000000000000000000000000000000000000000000000000000000000000001490100000000004210000000000000   070319078          00000000000000                                                                  000117
1020874591800017100000090345100240370REGTIT24411902069534     000000000000598187430000000000000000000000000906060319190206953400000000000059818743280219000000001049034103857  000000000000000000000000000000000000000000000000000000000000000000000000000000000000001079500000000003050000000000000   070319078          00000000000000                                                                  000118
1020874591800017100000090345100240370REGTIT24411902069748     000000000000598195450000000000000000000000000906060319190206974800000000000059819545280219000000001416903303600  000000000000000000000000000000000000000000000000000000000000000000000000000000000000001457800000000004090000000000000   070319078          00000000000000                                                                  000119
1020874591800017100000090345100240370REGTIT24411902069762     000000000000598196180000000000000000000000000906060319190206976200000000000059819618280219000000001348010402864  000000000000000000000000000000000000000000000000000000000000000000000000000000000000001386900000000003890000000000000   070319078          00000000000000                                                                  000120
1020874591800017100000090345100240370REGTIT24411902069837     0000000000005981988P000000000000000000000000090606031919020698370000000000005981988P280219000000001348000104314  000000000000000000000000000000000000000000000000000000000000000000000000000000000000001386900000000003890000000000000   070319078          00000000000000                                                                  000121
1020874591800017100000090345100240370REGTIT24411902069869     000000000000598199870000000000000000000000000906060319190206986900000000000059819987280219000000001149023706011  000000000000000000000000000000000000000000000000000000000000000000000000000000000000001182100000000003310000000000000   070319035          00000000000000                                                                  000122
1020874591800017100000090345100240370REGTIT24411902069897     000000000000598200630000000000000000000000000906060319190206989700000000000059820063280219000000001348010403512  000000000000000000000000000000000000000000000000000000000000000000000000000000000000001386900000000003890000000000000   070319078          00000000000000                                                                  000123
1020874591800017100000090345100240370REGTIT24411902070013     000000000000598204700000000000000000000000000906060319190207001300000000000059820470280219000000001149034108488  000000000000000000000000000000000000000000000000000000000000000000000000000000000000001182100000000003310000000000000   070319078          00000000000000                                                                  000124
1020874591800017100000090345100240370REGTIT24411902070072     000000000000598207480000000000000000000000000906060319190207007200000000000059820748280219000000001098010400788  000000000000000000000000000000000000000000000000000000000000000000000000000000000000001129500000000003150000000000000   070319078          00000000000000                                                                  000125
1020874591800017100000090345100240370REGTIT24411902070112     0000000000005982090P000000000000000000000000090606031919020701120000000000005982090P280219000000001174003300811  000000000000000000000000000000000000000000000000000000000000000000000000000000000000001208200000000003420000000000000   070319078          00000000000000                                                                  000126
1020874591800017100000090345100240370REGTIT24411902070185     000000000000598211830000000000000000000000000906060319190207018500000000000059821183280219000000001190023700585  000000000000000000000000000000000000000000000000000000000000000000000000000000000000001224600000000003460000000000000   070319035          00000000000000                                                                  000127
1020874591800017100000090345100240370REGTIT24411902070209     000000000000598212800000000000000000000000000906060319190207020900000000000059821280280219000000001348000101467  000000000000000000000000000000000000000000000000000000000000000000000000000000000000001386900000000003890000000000000   070319078          00000000000000                                                                  000128
1020874591800017100000090345100240370REGTIT24411902070210     000000000000598212990000000000000000000000000906060319190207021000000000000059821299280219000000001348003300808  000000000000000000000000000000000000000000000000000000000000000000000000000000000000001386900000000003890000000000000   070319078          00000000000000                                                                  000129
1020874591800017100000090345100240370REGTIT24411902070291     000000000000598216040000000000000000000000000906060319190207029100000000000059821604280219000000001348010403512  000000000000000000000000000000000000000000000000000000000000000000000000000000000000001386900000000003890000000000000   070319078          00000000000000                                                                  000130
1020874591800017100000090345100240370REGTIT24411902070316     000000000000598217010000000000000000000000000906060319190207031600000000000059821701280219000000001149003300808  000000000000000000000000000000000000000000000000000000000000000000000000000000000000001182100000000003310000000000000   070319078          00000000000000                                                                  000131
1020874591800017100000090345100240370REGTIT24411902070342     000000000000598217600000000000000000000000000906060319190207034200000000000059821760280219000000001138234102774  000000000000000000000000000000000000000000000000000000000000000000000000000000000000001171100000000003290000000000000   070319078          00000000000000                                                                  000132
1020874591800017100000090345100240370REGTIT24411902070380     000000000000598219490000000000000000000000000906060319190207038000000000000059821949280219000000001089075603031  000000000000000000000000000000000000000000000000000000000000000000000000000000000000001120300000000003130000000000000   070319078          00000000000000                                                                  000133
1020874591800017100000090345100240370REGTIT24411902070391     000000000000598219730000000000000000000000000906060319190207039100000000000059821973280219000000001348034106255  000000000000000000000000000000000000000000000000000000000000000000000000000000000000001386900000000003890000000000000   070319078          00000000000000                                                                  000134
1020874591800017100000090345100240370REGTIT24411902070410     000000000000598220580000000000000000000000000906060319190207041000000000000059822058280219000000001148023701263  000000000000000000000000000000000000000000000000000000000000000000000000000000000000001181100000000003310000000000000   070319014          00000000000000                                                                  000135
1020874591800017100000090345100240370REGTIT24411902070467     000000000000598222600000000000000000000000000906060319190207046700000000000059822260280219000000001533003304453  000000000000000000000000000000000000000000000000000000000000000000000000000000000000001577400000000004440000000000000   070319078          00000000000000                                                                  000136
1020874591800017100000090345100240370REGTIT24411902070468     000000000000598222790000000000000000000000000906060319190207046800000000000059822279280219000000001348003300814  000000000000000000000000000000000000000000000000000000000000000000000000000000000000001386900000000003890000000000000   070319078          00000000000000                                                                  000137
1020874591800017100000090345100240370REGTIT24411902070496     000000000000598223840000000000000000000000000906060319190207049600000000000059822384280219000000000949010403379  000000000000000000000000000000000000000000000000000000000000000000000000000000000000000976300000000002730000000000000   070319078          00000000000000                                                                  000138
1020874591800017100000090345100240370REGTIT24411902070520     000000000000598224730000000000000000000000000906060319190207052000000000000059822473280219000000001348003304403  000000000000000000000000000000000000000000000000000000000000000000000000000000000000001386900000000003890000000000000   070319078          00000000000000                                                                  000139
1020874591800017100000090345100240370REGTIT24411902070606     000000000000598229020000000000000000000000000906060319190207060600000000000059822902280219000000001556503302041  000000000000000000000000000000000000000000000000000000000000000000000000000000000000001601400000000004490000000000000   070319078          00000000000000                                                                  000140
1020874591800017100000090345100240370REGTIT24411902070633     000000000000598230460000000000000000000000000906060319190207063300000000000059823046280219000000001098034106868  000000000000000000000000000000000000000000000000000000000000000000000000000000000000001129500000000003150000000000000   070319078          00000000000000                                                                  000141
1020874591800017100000090345100240370REGTIT24411902070647     000000000000598231190000000000000000000000000906060319190207064700000000000059823119280219000000000555023701345  000000000000000000000000000000000000000000000000000000000000000000000000000000000000000570900000000001590000000000000   070319035          00000000000000                                                                  000142
1020874591800017100000090345100240370REGTIT24411902070649     000000000000598231270000000000000000000000000906060319190207064900000000000059823127280219000000001098003303731  000000000000000000000000000000000000000000000000000000000000000000000000000000000000001129500000000003150000000000000   070319078          00000000000000                                                                  000143
1020874591800017100000090345100240370REGTIT24411902070659     000000000000598231350000000000000000000000000906060319190207065900000000000059823135280219000000001367010400389  000000000000000000000000000000000000000000000000000000000000000000000000000000000000001406900000000003990000000000000   070319078          00000000000000                                                                  000144
1020874591800017100000090345100240370REGTIT24411902070741     0000000000005982347P000000000000000000000000090606031919020707410000000000005982347P280219000000001348010403915  000000000000000000000000000000000000000000000000000000000000000000000000000000000000001386900000000003890000000000000   070319078          00000000000000                                                                  000145
1020874591800017100000090345100240370REGTIT24411902070755     0000000000005982350P000000000000000000000000090606031919020707550000000000005982350P280219000000000850034106868  000000000000000000000000000000000000000000000000000000000000000000000000000000000000000874800000000002480000000000000   070319078          00000000000000                                                                  000146
1020874591800017100000090345100240370REGTIT24411902070781     000000000000598236230000000000000000000000000906060319190207078100000000000059823623280219000000001149034102947  000000000000000000000000000000000000000000000000000000000000000000000000000000000000001182100000000003310000000000000   070319078          00000000000000                                                                  000147
1020874591800017100000090345100240370REGTIT24411902070790     000000000000598236740000000000000000000000000906060319190207079000000000000059823674280219000000001348003304646  000000000000000000000000000000000000000000000000000000000000000000000000000000000000001386900000000003890000000000000   070319078          00000000000000                                                                  000148
1020874591800017100000090345100240370REGTIT24411902070903     000000000000598242200000000000000000000000000906060319190207090300000000000059824220280219000000001348003304296  000000000000000000000000000000000000000000000000000000000000000000000000000000000000001386900000000003890000000000000   070319078          00000000000000                                                                  000149
1020874591800017100000090345100240370REGTIT24411902070949     000000000000598244250000000000000000000000000906060319190207094900000000000059824425280219000000001406034100098  000000000000000000000000000000000000000000000000000000000000000000000000000000000000001446700000000004070000000000000   070319078          00000000000000                                                                  000150
1020874591800017100000090345100240370REGTIT24411902070965     000000000000598245140000000000000000000000000906060319190207096500000000000059824514280219000000001108034103812  000000000000000000000000000000000000000000000000000000000000000000000000000000000000001140300000000003230000000000000   070319078          00000000000000                                                                  000151
1020874591800017100000090345100240370REGTIT24411902071012     000000000000598247860000000000000000000000000906060319190207101200000000000059824786280219000000001348010400381  000000000000000000000000000000000000000000000000000000000000000000000000000000000000001386900000000003890000000000000   070319078          00000000000000                                                                  000152
1020874591800017100000090345100240370REGTIT24411902071074     000000000000598251030000000000000000000000000906060319190207107400000000000059825103280219000000001098010400911  000000000000000000000000000000000000000000000000000000000000000000000000000000000000001129500000000003150000000000000   070319078          00000000000000                                                                  000153
1020874591800017100000090345100240370REGTIT24411902071185     000000000000598256340000000000000000000000000906060319190207118500000000000059825634280219000000000699003301649  000000000000000000000000000000000000000000000000000000000000000000000000000000000000000718900000000001990000000000000   070319078          00000000000000                                                                  000154
1020874591800017100000090345100240370REGTIT24411902071366     000000000000598269080000000000000000000000000906060319190207136600000000000059826908280219000000000899023702222  000000000000000000000000000000000000000000000000000000000000000000000000000000000000000924700000000002570000000000000   070319035          00000000000000                                                                  000155
1020874591800017100000090345100240370REGTIT24411902071388     000000000000598270330000000000000000000000000906060319190207138800000000000059827033280219000000000808000106776  000000000000000000000000000000000000000000000000000000000000000000000000000000000000000831300000000002330000000000000   070319078          00000000000000                                                                  000156
1020874591800017100000090345100240370REGTIT24411902071440     000000000000598273430000000000000000000000000906060319190207144000000000000059827343280219000000000998075604355  000000000000000000000000000000000000000000000000000000000000000000000000000000000000001026900000000002890000000000000   070319078          00000000000000                                                                  000157
1020874591800017100000090345100240370REGTIT24411902071522     000000000000598278900000000000000000000000000906060319190207152200000000000059827890280219000000000799010404701  000000000000000000000000000000000000000000000000000000000000000000000000000000000000000822100000000002310000000000000   070319078          00000000000000                                                                  000158
1020874591800017100000090345100240370REGTIT24411902071529     000000000000598279200000000000000000000000000906060319190207152900000000000059827920280219000000000998034100616  000000000000000000000000000000000000000000000000000000000000000000000000000000000000001026900000000002890000000000000   070319078          00000000000000                                                                  000159
1020874591800017100000090345100240370REGTIT24411902071541     000000000000598280050000000000000000000000000906060319190207154100000000000059828005280219000000000698000102537  000000000000000000000000000000000000000000000000000000000000000000000000000000000000000717900000000001990000000000000   070319078          00000000000000                                                                  000160
1020874591800017100000090345100240370REGTIT24411902071584     000000000000598282500000000000000000000000000906060319190207158400000000000059828250280219000000001052934107222  000000000000000000000000000000000000000000000000000000000000000000000000000000000000001083500000000003060000000000000   070319078          00000000000000                                                                  000161
1020874591800017100000090345100240370REGTIT24411902071588     000000000000598282930000000000000000000000000906060319190207158800000000000059828293280219000000000998010400385  000000000000000000000000000000000000000000000000000000000000000000000000000000000000001026900000000002890000000000000   070319078          00000000000000                                                                  000162
1020874591800017100000090345100240370REGTIT24411902071611     000000000000598284390000000000000000000000000906060319190207161100000000000059828439280219000000000998075603035  000000000000000000000000000000000000000000000000000000000000000000000000000000000000001026900000000002890000000000000   070319078          00000000000000                                                                  000163
1020874591800017100000090345100240370REGTIT24411902071615     000000000000598284710000000000000000000000000906060319190207161500000000000059828471280219000000000998023702994  000000000000000000000000000000000000000000000000000000000000000000000000000000000000001026900000000002890000000000000   070319074          00000000000000                                                                  000164
1020874591800017100000090345100240370REGTIT24411902071646     0000000000005982865P000000000000000000000000090606031919020716460000000000005982865P280219000000000998023705673  000000000000000000000000000000000000000000000000000000000000000000000000000000000000001026900000000002890000000000000   070319066          00000000000000                                                                  000165
1020874591800017100000090345100240370REGTIT24411902071679     000000000000598288700000000000000000000000000906060319190207167900000000000059828870280219000000000799010401632  000000000000000000000000000000000000000000000000000000000000000000000000000000000000000822100000000002310000000000000   070319078          00000000000000                                                                  000166
1020874591800017100000090345100240370REGTIT24411902071684     000000000000598289000000000000000000000000000906060319190207168400000000000059828900280219000000000998010401265  000000000000000000000000000000000000000000000000000000000000000000000000000000000000001026900000000002890000000000000   070319078          00000000000000                                                                  000167
1020874591800017100000090345100240370REGTIT24411902071727     000000000000598292140000000000000000000000000906060319190207172700000000000059829214280219000000000700010401266  000000000000000000000000000000000000000000000000000000000000000000000000000000000000000720600000000002060000000000000   070319078          00000000000000                                                                  000168
1020874591800017100000090345100240370REGTIT24411902071782     000000000000598295750000000000000000000000000906060319190207178200000000000059829575280219000000000998000102456  000000000000000000000000000000000000000000000000000000000000000000000000000000000000001026900000000002890000000000000   070319078          00000000000000                                                                  000169
1020874591800017100000090345100240370REGTIT24411902071820     0000000000005982980P000000000000000000000000090606031919020718200000000000005982980P280219000000000998023705727  000000000000000000000000000000000000000000000000000000000000000000000000000000000000001026900000000002890000000000000   070319074          00000000000000                                                                  000170
1020874591800017100000090345100240370REGTIT24411902071946     000000000000598307430000000000000000000000000906060319190207194600000000000059830743280219000000001299010402975  000000000000000000000000000000000000000000000000000000000000000000000000000000000000001336300000000003730000000000000   070319078          00000000000000                                                                  000171
1020874591800017100000090345100240370REGTIT24411902071948     000000000000598307510000000000000000000000000906060319190207194800000000000059830751280219000000000998004100041  000000000000000000000000000000000000000000000000000000000000000000000000000000000000001026900000000002890000000000000   070319078          00000000000000                                                                  000172
1020874591800017100000090345100240370REGTIT24411902071965     000000000000598308670000000000000000000000000906060319190207196500000000000059830867280219000000000998003300813  000000000000000000000000000000000000000000000000000000000000000000000000000000000000001026900000000002890000000000000   070319078          00000000000000                                                                  000173
1020874591800017100000090345100240370REGTIT24411902072057     000000000000598315880000000000000000000000000906060319190207205700000000000059831588280219000000001375023703158  000000000000000000000000000000000000000000000000000000000000000000000000000000000000001415100000000004010000000000000   070319035          00000000000000                                                                  000174
1020874591800017100000090345100240370REGTIT24411902072110     000000000000598319010000000000000000000000000906060319190207211000000000000059831901280219000000000980503304646  000000000000000000000000000000000000000000000000000000000000000000000000000000000000001009100000000002860000000000000   070319078          00000000000000                                                                  000175
1020874591800017100000090345100240370REGTIT24411902072122     000000000000598319950000000000000000000000000906060319190207212200000000000059831995280219000000000998003300812  000000000000000000000000000000000000000000000000000000000000000000000000000000000000001026900000000002890000000000000   070319078          00000000000000                                                                  000176
1020874591800017100000090345100240370REGTIT24411902072143     000000000000598321500000000000000000000000000906060319190207214300000000000059832150280219000000000998034100228  000000000000000000000000000000000000000000000000000000000000000000000000000000000000001026900000000002890000000000000   070319078          00000000000000                                                                  000177
1020874591800017100000090345100240370REGTIT24411902072202     000000000000598326060000000000000000000000000906060319190207220200000000000059832606280219000000000600034106629  000000000000000000000000000000000000000000000000000000000000000000000000000000000000000617400000000001740000000000000   070319078          00000000000000                                                                  000178
1020874591800017100000090345100240370REGTIT24411902072208     000000000000598326570000000000000000000000000906060319190207220800000000000059832657280219000000001066934103822  000000000000000000000000000000000000000000000000000000000000000000000000000000000000001097800000000003090000000000000   070319078          00000000000000                                                                  000179
1020874591800017100000090345100240370REGTIT24411902072233     000000000000598327970000000000000000000000000906060319190207223300000000000059832797280219000000000998003300808  000000000000000000000000000000000000000000000000000000000000000000000000000000000000001026900000000002890000000000000   070319078          00000000000000                                                                  000180
1020874591800017100000090345100240370REGTIT24411902072239     000000000000598328510000000000000000000000000906060319190207223900000000000059832851280219000000000799003300814  000000000000000000000000000000000000000000000000000000000000000000000000000000000000000822100000000002310000000000000   070319078          00000000000000                                                                  000181
1020874591800017100000090345100240370REGTIT24411902072248     000000000000598329160000000000000000000000000906060319190207224800000000000059832916280219000000001486034107184  000000000000000000000000000000000000000000000000000000000000000000000000000000000000001528900000000004290000000000000   070319078          00000000000000                                                                  000182
1020874591800017100000090345100240370REGTIT24411902072271     0000000000005983305P000000000000000000000000090606031919020722710000000000005983305P280219000000000799010404538  000000000000000000000000000000000000000000000000000000000000000000000000000000000000000822100000000002310000000000000   070319078          00000000000000                                                                  000183
1020874591800017100000090345100240370REGTIT24411902072301     000000000000598333190000000000000000000000000906060319190207230100000000000059833319280219000000000998023701545  000000000000000000000000000000000000000000000000000000000000000000000000000000000000001026900000000002890000000000000   070319035          00000000000000                                                                  000184
1020874591800017100000090345100240370REGTIT24411902072302     000000000000598333270000000000000000000000000906060319190207230200000000000059833327280219000000000998034102774  000000000000000000000000000000000000000000000000000000000000000000000000000000000000001026900000000002890000000000000   070319078          00000000000000                                                                  000185
1020874591800017100000090345100240370REGTIT24411902072304     000000000000598333430000000000000000000000000906060319190207230400000000000059833343280219000000001044003302190  000000000000000000000000000000000000000000000000000000000000000000000000000000000000001074400000000003040000000000000   070319078          00000000000000                                                                  000186
1020874591800017100000090345100240370REGTIT24411902072371     000000000000598338660000000000000000000000000906060319190207237100000000000059833866280219000000000998010400356  000000000000000000000000000000000000000000000000000000000000000000000000000000000000001026900000000002890000000000000   070319078          00000000000000                                                                  000187
1020874591800017100000090345100240370REGTIT24411902072380     000000000000598339200000000000000000000000000906060319190207238000000000000059833920280219000000001066923705947  000000000000000000000000000000000000000000000000000000000000000000000000000000000000001097800000000003090000000000000   070319035          00000000000000                                                                  000188
1020874591800017100000090345100240370REGTIT24411902072398     000000000000598340800000000000000000000000000906060319190207239800000000000059834080280219000000000956174807057  000000000000000000000000000000000000000000000000000000000000000000000000000000000000000983600000000002750000000000000   070319078          00000000000000                                                                  000189
1020874591800017100000090345100240370REGTIT24411902072442     000000000000598343820000000000000000000000000906060319190207244200000000000059834382280219000000000998023702607  000000000000000000000000000000000000000000000000000000000000000000000000000000000000001026900000000002890000000000000   070319035          00000000000000                                                                  000190
1020874591800017100000090345100240370REGTIT24411902072463     000000000000598345360000000000000000000000000906060319190207246300000000000059834536280219000000000784023701219  000000000000000000000000000000000000000000000000000000000000000000000000000000000000000806800000000002280000000000000   070319035          00000000000000                                                                  000191
1020874591800017100000090345100240370REGTIT24411902072493     000000000000598347490000000000000000000000000906060319190207249300000000000059834749280219000000000998023702100  000000000000000000000000000000000000000000000000000000000000000000000000000000000000001026900000000002890000000000000   070319035          00000000000000                                                                  000192
1020874591800017100000090345100240370REGTIT24411902072498     0000000000005983479P000000000000000000000000090606031919020724980000000000005983479P280219000000000998074807020  000000000000000000000000000000000000000000000000000000000000000000000000000000000000001026900000000002890000000000000   070319078          00000000000000                                                                  000193
1020874591800017100000090345100240370REGTIT24411902072518     0000000000005983496P000000000000000000000000090606031919020725180000000000005983496P280219000000000998063300001  000000000000000000000000000000000000000000000000000000000000000000000000000000000000001026900000000002890000000000000   070319078          00000000000000                                                                  000194
1020874591800017100000090345100240370REGTIT24411902072540     000000000000598351410000000000000000000000000906060319190207254000000000000059835141280219000000000799003300811  000000000000000000000000000000000000000000000000000000000000000000000000000000000000000822100000000002310000000000000   070319078          00000000000000                                                                  000195
1020874591800017100000090345100240370REGTIT24411902072542     000000000000598351680000000000000000000000000906060319190207254200000000000059835168280219000000001198034108425  000000000000000000000000000000000000000000000000000000000000000000000000000000000000001232700000000003470000000000000   070319078          00000000000000                                                                  000196
1020874591800017100000090345100240370REGTIT24411902072546     000000000000598351920000000000000000000000000906060319190207254600000000000059835192280219000000000998003302190  000000000000000000000000000000000000000000000000000000000000000000000000000000000000001026900000000002890000000000000   070319078          00000000000000                                                                  000197
1020874591800017100000090345100240370REGTIT24411902072642     000000000000598359660000000000000000000000000906060319190207264200000000000059835966280219000000001035503303114  000000000000000000000000000000000000000000000000000000000000000000000000000000000000001065800000000003030000000000000   070319078          00000000000000                                                                  000198
1020874591800017100000090345100240370REGTIT24411902072666     000000000000598361800000000000000000000000000906060319190207266600000000000059836180280219000000000998003303335  000000000000000000000000000000000000000000000000000000000000000000000000000000000000001026900000000002890000000000000   070319078          00000000000000                                                                  000199
1020874591800017100000090345100240370REGTIT24411902072679     000000000000598362960000000000000000000000000906060319190207267900000000000059836296280219000000000998023700049  000000000000000000000000000000000000000000000000000000000000000000000000000000000000001026900000000002890000000000000   070319082          00000000000000                                                                  000200
1020874591800017100000090345100240370REGTIT24411902072719     000000000000598366520000000000000000000000000906060319190207271900000000000059836652280219000000000998023700646  000000000000000000000000000000000000000000000000000000000000000000000000000000000000001026900000000002890000000000000   070319066          00000000000000                                                                  000201
1020874591800017100000090345100240370REGTIT24411902072787     000000000000598372410000000000000000000000000906060319190207278700000000000059837241280219000000000698003301552  000000000000000000000000000000000000000000000000000000000000000000000000000000000000000717900000000001990000000000000   070319078          00000000000000                                                                  000202
1020874591800017100000090345100240370REGTIT24411902072795     000000000000598373060000000000000000000000000906060319190207279500000000000059837306280219000000001540163300001  000000000000000000000000000000000000000000000000000000000000000000000000000000000000001584700000000004460000000000000   070319078          00000000000000                                                                  000203
1020874591800017100000090345100240370REGTIT24411902072820     000000000000598375430000000000000000000000000906060319190207282000000000000059837543280219000000000799034100274  000000000000000000000000000000000000000000000000000000000000000000000000000000000000000822100000000002310000000000000   070319078          00000000000000                                                                  000204
1020874591800017100000090345100240370REGTIT24411902072877     000000000000598380780000000000000000000000000906060319190207287700000000000059838078280219000000000998034103715  000000000000000000000000000000000000000000000000000000000000000000000000000000000000001026900000000002890000000000000   070319078          00000000000000                                                                  000205
1020874591800017100000090345100240370REGTIT24411902072903     000000000000598383100000000000000000000000000906060319190207290300000000000059838310280219000000000799003300823  000000000000000000000000000000000000000000000000000000000000000000000000000000000000000822100000000002310000000000000   070319078          00000000000000                                                                  000206
1020874591800017100000090345100240370REGTIT24411902072920     000000000000598384770000000000000000000000000906060319190207292000000000000059838477280219000000000699010400385  000000000000000000000000000000000000000000000000000000000000000000000000000000000000000718900000000001990000000000000   070319078          00000000000000                                                                  000207
1020874591800017100000090345100240370REGTIT24411902072923     000000000000598385070000000000000000000000000906060319190207292300000000000059838507280219000000000998010402122  000000000000000000000000000000000000000000000000000000000000000000000000000000000000001026900000000002890000000000000   070319078          00000000000000                                                                  000208
1020874591800017100000090345100240370REGTIT24411902073014     000000000000598393680000000000000000000000000906060319190207301400000000000059839368280219000000000998010400186  000000000000000000000000000000000000000000000000000000000000000000000000000000000000001028400000000003040000000000000   070319078          00000000000000                                                                  000209
1020874591800017100000090345100240370REGTIT24411902073090     000000000000598400720000000000000000000000000906060319190207309000000000000059840072280219000000000998010400381  000000000000000000000000000000000000000000000000000000000000000000000000000000000000001026900000000002890000000000000   070319078          00000000000000                                                                  000210
1020874591800017100000090345100240370REGTIT24411902073119     000000000000598403580000000000000000000000000906060319190207311900000000000059840358280219000000000998034103715  000000000000000000000000000000000000000000000000000000000000000000000000000000000000001026900000000002890000000000000   070319078          00000000000000                                                                  000211
1020874591800017100000090345100240370REGTIT24411902073129     000000000000598404470000000000000000000000000906060319190207312900000000000059840447280219000000000998023700071  000000000000000000000000000000000000000000000000000000000000000000000000000000000000001026900000000002890000000000000   070319082          00000000000000                                                                  000212
1020874591800017100000090345100240370REGTIT24411902073138     0000000000005984051P000000000000000000000000090606031919020731380000000000005984051P280219000000000998023706460  000000000000000000000000000000000000000000000000000000000000000000000000000000000000001026900000000002890000000000000   070319035          00000000000000                                                                  000213
1020874591800017100000090345100240370REGTIT24411902073145     000000000000598405790000000000000000000000000906060319190207314500000000000059840579280219000000000998023703000  000000000000000000000000000000000000000000000000000000000000000000000000000000000000001026900000000002890000000000000   070319035          00000000000000                                                                  000214
1020874591800017100000090345100240370REGTIT24411902073186     000000000000598409510000000000000000000000000906060319190207318600000000000059840951280219000000000998010400788  000000000000000000000000000000000000000000000000000000000000000000000000000000000000001026900000000002890000000000000   070319078          00000000000000                                                                  000215
1020874591800017100000090345100240370REGTIT2410997167017077   000000009000597797570000000000000000000000000906060319997167017000000000900059779757040319000000001762303300814  000000000000000000000000000000000000000000000000000000000000000000000000000000000000001762300000000000000000000000000   070319078          00000000000000                                                                  000216
1020874591800017100000090345100240370REGTIT2410997166941872   000000009000597797730000000000000000000000000906060319997166941800000000900059779773040319000000001598074807429  000000000000000000000000000000000000000000000000000000000000000000000000000000000000001598000000000000000000000000000   070319078          00000000000000                                                                  000217
1020874591800017100000090345100240370REGTIT2542997238711489   0000000090005985984P000000000000000000000000090606031999723871140000000090005985984P060319000000002397003303114  000000000000000000000000000000000000000000000000000000000000000000000000000000000000002397000000000000000000000000000   070319078          00000000000000                                                                  000218
1020874591800017100000090345100240370REGTIT2571997203839971   000000009000598634130000000000000000000000000906060319997203839900000000900059863413080319000000002397010401001  000000000000000000000000000000000000000000000000000000000000000000000000000000000000002397000000000000000000000000000   070319078          00000000000000                                                                  000219
1020874591800017100000090345100240370REGTIT2584997313731037   000000009000598643710000000000000000000000000906060319997313731000000000900059864371060319000000000315734102774  000000000000000000000000000000000000000000000000000000000000000000000000000000000000000315700000000000000000000000000   070319078          00000000000000                                                                  000220
1020874591800017100000090345100240370REGTIT24411902072746     0000000000005983689P000000000000000000000000090906031919020727460000000000005983689P280219000000000799023704150  000000000000000000000000000000000000000000000000000000000000000000000000000000000000000000000000000000000000000000000                          0000000000                                                                  000221
1020874591800017100000090345100240370REGTIT25881807071193     0000000000005915814P000000000000000000000000092706031918070711930000000000005915814P300718000000000998023700000  000000000000000000000000000000000000000000000000000000000000000000000000000000000000000000000000000000000000000000000                          6000000000                                                                  000222
1020874591800017100000090345100240370REGTIT25881811032391     000000000000595183400000000000000000000000000927060319181103239100000000000059518340301118000000003074323700000  000000000000000000000000000000000000000000000000000000000000000000000000000000000000000000000000000000000000000000000                          6000000000                                                                  000223
1020874591800017100000090345100240370REGTIT25881811068057     000000000000595395500000000000000000000000000927060319181106805700000000000059539550301118000000001598023700000  000000000000000000000000000000000000000000000000000000000000000000000000000000000000000000000000000000000000000000000                          6000000000                                                                  000224
1020874591800017100000090345100240370REGTIT25881811071187     000000000000595529640000000000000000000000000927060319181107118700000000000059552964301118000000000799023700000  000000000000000000000000000000000000000000000000000000000000000000000000000000000000000000000000000000000000000000000                          6000000000                                                                  000225
1020874591800017100000090345100240370REGTIT25881811071271     000000000000595536180000000000000000000000000927060319181107127100000000000059553618301118000000001595023700000  000000000000000000000000000000000000000000000000000000000000000000000000000000000000000000000000000000000000000000000                          6000000000                                                                  000226
1020874591800017100000090345100240370REGTIT25881812032391     000000000000596101820000000000000000000000000927060319181203239100000000000059610182281218000000004568123700000  000000000000000000000000000000000000000000000000000000000000000000000000000000000000000000000000000000000000000000000                          6000000000                                                                  000227
1020874591800017100000090345100240370REGTIT25881812062749     0000000000005961613P000000000000000000000000092706031918120627490000000000005961613P281218000000003197023700000  000000000000000000000000000000000000000000000000000000000000000000000000000000000000000000000000000000000000000000000                          6000000000                                                                  000228
1020874591800017100000090345100240370REGTIT25881812068057     000000000000596308410000000000000000000000000927060319181206805700000000000059630841281218000000002897023700000  000000000000000000000000000000000000000000000000000000000000000000000000000000000000000000000000000000000000000000000                          6000000000                                                                  000229
1020874591800017100000090345100240370REGTIT25881812071187     000000000000596434470000000000000000000000000927060319181207118700000000000059643447281218000000001399023700000  000000000000000000000000000000000000000000000000000000000000000000000000000000000000000000000000000000000000000000000                          6000000000                                                                  000230
1020874591800017100000090345100240370REGTIT25881812071271     000000000000596440440000000000000000000000000927060319181207127100000000000059644044281218000000001797023700000  000000000000000000000000000000000000000000000000000000000000000000000000000000000000000000000000000000000000000000000                          6000000000                                                                  000231
1020874591800017100000090345100240370REGTIT25881901000073     000000000000597032450000000000000000000000000927060319190100007300000000000059703245300119000000000049523700000  000000000000000000000000000000000000000000000000000000000000000000000000000000000000000000000000000000000000000000000                          6000000000                                                                  000232
1020874591800017100000090345100240370REGTIT25881901032391     000000000000597061200000000000000000000000000927060319190103239100000000000059706120300119000000002350623700000  000000000000000000000000000000000000000000000000000000000000000000000000000000000000000000000000000000000000000000000                          6000000000                                                                  000233
1020874591800017100000090345100240370REGTIT25881901062749     000000000000597119220000000000000000000000000927060319190106274900000000000059711922300119000000001748023700000  000000000000000000000000000000000000000000000000000000000000000000000000000000000000000000000000000000000000000000000                          6000000000                                                                  000234
1020874591800017100000090345100240370REGTIT25881901068057     000000000000597262610000000000000000000000000927060319190106805700000000000059726261300119000000001598023700000  000000000000000000000000000000000000000000000000000000000000000000000000000000000000000000000000000000000000000000000                          6000000000                                                                  000235
1020874591800017100000090345100240370REGTIT25881901071187     000000000000597382430000000000000000000000000927060319190107118700000000000059738243300119000000000799023700000  000000000000000000000000000000000000000000000000000000000000000000000000000000000000000000000000000000000000000000000                          6000000000                                                                  000236
1020874591800017100000090345100240370REGTIT25881901071271     000000000000597388200000000000000000000000000927060319190107127100000000000059738820300119000000000998023700000  000000000000000000000000000000000000000000000000000000000000000000000000000000000000000000000000000000000000000000000                          6000000000                                                                  000237
1020874591800017100000090345100240370REGTIT25881902000073     000000000000597917050000000000000000000000000927060319190200007300000000000059791705280219000000000049523700000  000000000000000000000000000000000000000000000000000000000000000000000000000000000000000000000000000000000000000000000                          6000000000                                                                  000238
1020874591800017100000090345100240370REGTIT25881902000764     000000000000597917720000000000000000000000000927060319190200076400000000000059791772280219000000041169123700000  000000000000000000000000000000000000000000000000000000000000000000000000000000000000000000000000000000000000000000000                          6000000000                                                                  000239
1020874591800017100000090345100240370REGTIT25881902001911     000000000000597918370000000000000000000000000927060319190200191100000000000059791837280219000000000049523700000  000000000000000000000000000000000000000000000000000000000000000000000000000000000000000000000000000000000000000000000                          6000000000                                                                  000240
1020874591800017100000090345100240370REGTIT25881902007433     000000000000597923290000000000000000000000000927060319190200743300000000000059792329280219000000001528023700000  000000000000000000000000000000000000000000000000000000000000000000000000000000000000000000000000000000000000000000000                          6000000000                                                                  000241
1020874591800017100000090345100240370REGTIT25881902023096     000000000000597936860000000000000000000000000927060319190202309600000000000059793686280219000000004665423700000  000000000000000000000000000000000000000000000000000000000000000000000000000000000000000000000000000000000000000000000                          6000000000                                                                  000242
1020874591800017100000090345100240370REGTIT25881902032391     000000000000597945180000000000000000000000000927060319190203239100000000000059794518280219000000002350623700000  000000000000000000000000000000000000000000000000000000000000000000000000000000000000000000000000000000000000000000000                          6000000000                                                                  000243
1020874591800017100000090345100240370REGTIT25881902037267     000000000000597950420000000000000000000000000927060319190203726700000000000059795042280219000000001161523700000  000000000000000000000000000000000000000000000000000000000000000000000000000000000000000000000000000000000000000000000                          6000000000                                                                  000244
1020874591800017100000090345100240370REGTIT25881902042724     000000000000597956620000000000000000000000000927060319190204272400000000000059795662280219000000001197023700000  000000000000000000000000000000000000000000000000000000000000000000000000000000000000000000000000000000000000000000000                          6000000000                                                                  000245
1020874591800017100000090345100240370REGTIT25881902046145     000000000000597960810000000000000000000000000927060319190204614500000000000059796081280219000000000799023700000  000000000000000000000000000000000000000000000000000000000000000000000000000000000000000000000000000000000000000000000                          6000000000                                                                  000246
1020874591800017100000090345100240370REGTIT25881902050586     000000000000597966690000000000000000000000000927060319190205058600000000000059796669280219000000001539023700000  000000000000000000000000000000000000000000000000000000000000000000000000000000000000000000000000000000000000000000000                          6000000000                                                                  000247
1020874591800017100000090345100240370REGTIT25881902058935     000000000000597984400000000000000000000000000927060319190205893500000000000059798440280219000000001919523700000  000000000000000000000000000000000000000000000000000000000000000000000000000000000000000000000000000000000000000000000                          6000000000                                                                  000248
