02RETORNO01COBRANCA       00000000000004852239ISPCN ADM DE COBRANCA DE TITUL237BRADESCO       1803190160000000605                                                                                                                                                                                                                                                                          190319         000001
102122445950001000000009034510032549PREGTIT30538948847817     000000000000566923900000000000000000000000000902180319000566923900000000000056692390150519000000005000023700408  000000000014300000000000000000000000000000000000000000000000000000000000000000000000000000000000000000000000000000000                          0000000000                                                                  000002
102122445950001000000009034510032549PREGTIT30536477129500     000000000000573810380000000000000000000000000902180319000573810300000000000057381038150519000000001333323704151  000000000014300000000000000000000000000000000000000000000000000000000000000000000000000000000000000000000000000000000                          0000000000                                                                  000003
102122445950001000000009034510032549PREGTIT30538918103509     000000000000582100670000000000000000000000000902180319000582100600000000000058210067150519000000001590023704144  000000000014300000000000000000000000000000000000000000000000000000000000000000000000000000000000000000000000000000000                          0000000000                                                                  000004
102122445950001000000009034510032549PREGTIT30539699468401     000000000000582973080000000000000000000000000902180319000582973000000000000058297308160519000000002720023700389  000000000014300000000000000000000000000000000000000000000000000000000000000000000000000000000000000000000000000000000                          7600000000                                                                  000005
102122445950001000000009034510032549PREGTIT30533427096911     000000000000583287500000000000000000000000000902180319000583287500000000000058328750150519000000002000023704151  000000000014300000000000000000000000000000000000000000000000000000000000000000000000000000000000000000000000000000000                          0000000000                                                                  000006
102122445950001000000009034510032549PREGTIT30534689429791     000000000000585302580000000000000000000000000902180319000585302500000000000058530258150519000000005000023704151  000000000014300000000000000000000000000000000000000000000000000000000000000000000000000000000000000000000000000000000                          0000000000                                                                  000007
102122445950001000000009034510032549PREGTIT30536770847149     000000000000586469060000000000000000000000000902180319000586469000000000000058646906160519000000001150023704151  000000000014300000000000000000000000000000000000000000000000000000000000000000000000000000000000000000000000000000000                          0000000000                                                                  000008
102122445950001000000009034510032549PREGTIT30534143794642     000000000000589691440000000000000000000000000902180319000589691400000000000058969144100519000000001050023704151  000000000014300000000000000000000000000000000000000000000000000000000000000000000000000000000000000000000000000000000                          0000000000                                                                  000009
102122445950001000000009034510032549PREGTIT30534817587397     000000000000589904960000000000000000000000000902180319000589904900000000000058990496160519000000003000023704151  000000000014300000000000000000000000000000000000000000000000000000000000000000000000000000000000000000000000000000000                          0000000000                                                                  000010
102122445950001000000009034510032549PREGTIT30534582874654     000000000000590192200000000000000000000000000902180319000590192200000000000059019220150519000000000720023700073  000000000014300000000000000000000000000000000000000000000000000000000000000000000000000000000000000000000000000000000                          0000000000                                                                  000011
102122445950001000000009034510032549PREGTIT30532254886502     000000000000590194090000000000000000000000000902180319000590194000000000000059019409150519000000000720023700073  000000000014300000000000000000000000000000000000000000000000000000000000000000000000000000000000000000000000000000000                          0000000000                                                                  000012
102122445950001000000009034510032549PREGTIT30538491810394     000000000000590195730000000000000000000000000902180319000590195700000000000059019573150519000000000720023700073  000000000014300000000000000000000000000000000000000000000000000000000000000000000000000000000000000000000000000000000                          0000000000                                                                  000013
102122445950001000000009034510032549PREGTIT30531897820184     000000000000590198080000000000000000000000000902180319000590198000000000000059019808150519000000000720023700073  000000000014300000000000000000000000000000000000000000000000000000000000000000000000000000000000000000000000000000000                          0000000000                                                                  000014
102122445950001000000009034510032549PREGTIT30535478866853     0000000000005902013P000000000000000000000000090218031900059020130000000000005902013P150519000000000720023700073  000000000014300000000000000000000000000000000000000000000000000000000000000000000000000000000000000000000000000000000                          7600000000                                                                  000015
102122445950001000000009034510032549PREGTIT30536707756482     000000000000590203500000000000000000000000000902180319000590203500000000000059020350150519000000000720023700073  000000000014300000000000000000000000000000000000000000000000000000000000000000000000000000000000000000000000000000000                          0000000000                                                                  000016
102122445950001000000009034510032549PREGTIT30538347534603     000000000000590209380000000000000000000000000902180319000590209300000000000059020938150519000000000720023700073  000000000014300000000000000000000000000000000000000000000000000000000000000000000000000000000000000000000000000000000                          0000000000                                                                  000017
102122445950001000000009034510032549PREGTIT30534061300146     000000000000590213140000000000000000000000000902180319000590213100000000000059021314150519000000000720023700073  000000000014300000000000000000000000000000000000000000000000000000000000000000000000000000000000000000000000000000000                          0000000000                                                                  000018
102122445950001000000009034510032549PREGTIT30534841375363     000000000000590231630000000000000000000000000902180319000590231600000000000059023163150519000000000720023700073  000000000014300000000000000000000000000000000000000000000000000000000000000000000000000000000000000000000000000000000                          0000000000                                                                  000019
102122445950001000000009034510032549PREGTIT30539508120351     000000000000590234490000000000000000000000000902180319000590234400000000000059023449150519000000000720023700073  000000000014300000000000000000000000000000000000000000000000000000000000000000000000000000000000000000000000000000000                          0000000000                                                                  000020
102122445950001000000009034510032549PREGTIT30532688078010     000000000000590238640000000000000000000000000902180319000590238600000000000059023864150519000000000720023700073  000000000014300000000000000000000000000000000000000000000000000000000000000000000000000000000000000000000000000000000                          0000000000                                                                  000021
102122445950001000000009034510032549PREGTIT30538153769580     000000000000590240970000000000000000000000000902180319000590240900000000000059024097150519000000000720023700073  000000000014300000000000000000000000000000000000000000000000000000000000000000000000000000000000000000000000000000000                          0000000000                                                                  000022
102122445950001000000009034510032549PREGTIT30533751500004     000000000000590243480000000000000000000000000902180319000590243400000000000059024348150519000000000720023700073  000000000014300000000000000000000000000000000000000000000000000000000000000000000000000000000000000000000000000000000                          0000000000                                                                  000023
102122445950001000000009034510032549PREGTIT30537019984175     000000000000590245180000000000000000000000000902180319000590245100000000000059024518150519000000000720023700073  000000000014300000000000000000000000000000000000000000000000000000000000000000000000000000000000000000000000000000000                          0000000000                                                                  000024
102122445950001000000009034510032549PREGTIT30531770935493     000000000000590246820000000000000000000000000902180319000590246800000000000059024682150519000000000720023700073  000000000014300000000000000000000000000000000000000000000000000000000000000000000000000000000000000000000000000000000                          7600000000                                                                  000025
102122445950001000000009034510032549PREGTIT30538109477187     000000000000590252980000000000000000000000000902180319000590252900000000000059025298150519000000000720023700073  000000000014300000000000000000000000000000000000000000000000000000000000000000000000000000000000000000000000000000000                          0000000000                                                                  000026
102122445950001000000009034510032549PREGTIT30532693665929     000000000000590254840000000000000000000000000902180319000590254800000000000059025484150519000000000720023700073  000000000014300000000000000000000000000000000000000000000000000000000000000000000000000000000000000000000000000000000                          0000000000                                                                  000027
102122445950001000000009034510032549PREGTIT30531163682730     000000000000590258160000000000000000000000000902180319000590258100000000000059025816150519000000000720023700073  000000000014300000000000000000000000000000000000000000000000000000000000000000000000000000000000000000000000000000000                          0000000000                                                                  000028
102122445950001000000009034510032549PREGTIT30538850464692     000000000000590260220000000000000000000000000902180319000590260200000000000059026022150519000000000720023700073  000000000014300000000000000000000000000000000000000000000000000000000000000000000000000000000000000000000000000000000                          0000000000                                                                  000029
102122445950001000000009034510032549PREGTIT30537504299771     000000000000590263400000000000000000000000000902180319000590263400000000000059026340150519000000001020023700073  000000000014300000000000000000000000000000000000000000000000000000000000000000000000000000000000000000000000000000000                          0000000000                                                                  000030
102122445950001000000009034510032549PREGTIT30535416503618     000000000000590265450000000000000000000000000902180319000590265400000000000059026545150519000000000720023700073  000000000014300000000000000000000000000000000000000000000000000000000000000000000000000000000000000000000000000000000                          0000000000                                                                  000031
102122445950001000000009034510032549PREGTIT30534593910409     000000000000590267230000000000000000000000000902180319000590267200000000000059026723150519000000000720023700073  000000000014300000000000000000000000000000000000000000000000000000000000000000000000000000000000000000000000000000000                          7600000000                                                                  000032
102122445950001000000009034510032549PREGTIT30532090977347     000000000000590282110000000000000000000000000902180319000590282100000000000059028211150519000000000720023700073  000000000014300000000000000000000000000000000000000000000000000000000000000000000000000000000000000000000000000000000                          7600000000                                                                  000033
102122445950001000000009034510032549PREGTIT30534289565794     0000000000005908104P000000000000000000000000090218031900059081040000000000005908104P150519000000000720023700073  000000000014300000000000000000000000000000000000000000000000000000000000000000000000000000000000000000000000000000000                          0000000000                                                                  000034
102122445950001000000009034510032549PREGTIT30532705322901     000000000000591103760000000000000000000000000902180319000591103700000000000059110376150519000000001290023704151  000000000014300000000000000000000000000000000000000000000000000000000000000000000000000000000000000000000000000000000                          0000000000                                                                  000035
102122445950001000000009034510032549PREGTIT30533563272063     000000000000591662900000000000000000000000000902180319000591662900000000000059166290160519000000001900023703451  000000000014300000000000000000000000000000000000000000000000000000000000000000000000000000000000000000000000000000000                          7600000000                                                                  000036
102122445950001000000009034510032549PREGTIT30536274358087     000000000000591681450000000000000000000000000902180319000591681400000000000059168145150519000000002100023704152  000000000014300000000000000000000000000000000000000000000000000000000000000000000000000000000000000000000000000000000                          7600000000                                                                  000037
102122445950001000000009034510032549PREGTIT30538770510161     000000000000591735130000000000000000000000000902180319000591735100000000000059173513160519000000000633523704144  000000000014300000000000000000000000000000000000000000000000000000000000000000000000000000000000000000000000000000000                          0000000000                                                                  000038
102122445950001000000009034510032549PREGTIT30536652236800     000000000000591804040000000000000000000000000902180319000591804000000000000059180404150519000000001450023703451  000000000014300000000000000000000000000000000000000000000000000000000000000000000000000000000000000000000000000000000                          0000000000                                                                  000039
102122445950001000000009034510032549PREGTIT30532563638062     000000000000591859020000000000000000000000000902180319000591859000000000000059185902150519000000005600023703451  000000000014300000000000000000000000000000000000000000000000000000000000000000000000000000000000000000000000000000000                          0000000000                                                                  000040
102122445950001000000009034510032549PREGTIT30531453441315     000000000000591947820000000000000000000000000902180319000591947800000000000059194782150519000000001400023704151  000000000014300000000000000000000000000000000000000000000000000000000000000000000000000000000000000000000000000000000                          7600000000                                                                  000041
102122445950001000000009034510032549PREGTIT30532951501127     0000000000005919880P000000000000000000000000090218031900059198800000000000005919880P150519000000004500023704144  000000000014300000000000000000000000000000000000000000000000000000000000000000000000000000000000000000000000000000000                          0000000000                                                                  000042
102122445950001000000009034510032549PREGTIT30534514861504     000000000000592044430000000000000000000000000902180319000592044400000000000059204443150519000000002300023704151  000000000014300000000000000000000000000000000000000000000000000000000000000000000000000000000000000000000000000000000                          0000000000                                                                  000043
102122445950001000000009034510032549PREGTIT30531146642991     000000000000592054150000000000000000000000000902180319000592054100000000000059205415150519000000000449523704157  000000000014300000000000000000000000000000000000000000000000000000000000000000000000000000000000000000000000000000000                          0000000000                                                                  000044
102122445950001000000009034510032549PREGTIT30533666110481     000000000000592057920000000000000000000000000902180319000592057900000000000059205792150519000000002400023704151  000000000014300000000000000000000000000000000000000000000000000000000000000000000000000000000000000000000000000000000                          0000000000                                                                  000045
102122445950001000000009034510032549PREGTIT30534424629145     000000000000592587130000000000000000000000000902180319000592587100000000000059258713160519000000002200023704152  000000000014300000000000000000000000000000000000000000000000000000000000000000000000000000000000000000000000000000000                          0000000000                                                                  000046
102122445950001000000009034510032549PREGTIT30536702733544     000000000000592619780000000000000000000000000902180319000592619700000000000059261978150519000000001000023704151  000000000014300000000000000000000000000000000000000000000000000000000000000000000000000000000000000000000000000000000                          7600000000                                                                  000047
102122445950001000000009034510032549PREGTIT30537486579236     000000000000592632370000000000000000000000000902180319000592632300000000000059263237150519000000004500023704157  000000000014300000000000000000000000000000000000000000000000000000000000000000000000000000000000000000000000000000000                          0000000000                                                                  000048
102122445950001000000009034510032549PREGTIT30533618821538     000000000000592641360000000000000000000000000902180319000592641300000000000059264136150519000000001050023703451  000000000014300000000000000000000000000000000000000000000000000000000000000000000000000000000000000000000000000000000                          0000000000                                                                  000049
102122445950001000000009034510032549PREGTIT30533158091410     000000000000592657010000000000000000000000000902180319000592657000000000000059265701150519000000000816023700073  000000000014300000000000000000000000000000000000000000000000000000000000000000000000000000000000000000000000000000000                          0000000000                                                                  000050
102122445950001000000009034510032549PREGTIT30534213979786     0000000000005926604P000000000000000000000000090218031900059266040000000000005926604P150519000000000816023700073  000000000014300000000000000000000000000000000000000000000000000000000000000000000000000000000000000000000000000000000                          0000000000                                                                  000051
102122445950001000000009034510032549PREGTIT30536953369515     000000000000592666780000000000000000000000000902180319000592666700000000000059266678150519000000002190023700140  000000000014300000000000000000000000000000000000000000000000000000000000000000000000000000000000000000000000000000000                          7600000000                                                                  000052
102122445950001000000009034510032549PREGTIT30534296081575     000000000000592681070000000000000000000000000902180319000592681000000000000059268107150519000000003460023704151  000000000014300000000000000000000000000000000000000000000000000000000000000000000000000000000000000000000000000000000                          7600000000                                                                  000053
102122445950001000000009034510032549PREGTIT30532413517600     000000000000592695610000000000000000000000000902180319000592695600000000000059269561150519000000000790023704152  000000000014300000000000000000000000000000000000000000000000000000000000000000000000000000000000000000000000000000000                          0000000000                                                                  000054
102122445950001000000009034510032549PREGTIT30532091296625     0000000000005928000P000000000000000000000000090218031900059280000000000000005928000P170519000000002500023704151  000000000014300000000000000000000000000000000000000000000000000000000000000000000000000000000000000000000000000000000                          0000000000                                                                  000055
102122445950001000000009034510032549PREGTIT30539628516063     000000000000592874540000000000000000000000000902180319000592874500000000000059287454150519000000002450023704151  000000000014300000000000000000000000000000000000000000000000000000000000000000000000000000000000000000000000000000000                          0000000000                                                                  000056
102122445950001000000009034510032549PREGTIT30536563804248     0000000000005929339P000000000000000000000000090218031900059293390000000000005929339P150519000000003180023704152  000000000014300000000000000000000000000000000000000000000000000000000000000000000000000000000000000000000000000000000                          0000000000                                                                  000057
102122445950001000000009034510032549PREGTIT30538693851812     0000000000005929776P000000000000000000000000090218031900059297760000000000005929776P150519000000002245023703451  000000000014300000000000000000000000000000000000000000000000000000000000000000000000000000000000000000000000000000000                          0000000000                                                                  000058
102122445950001000000009034510032549PREGTIT30538492637616     000000000000593014220000000000000000000000000902180319000593014200000000000059301422160519000000002720023703451  000000000014300000000000000000000000000000000000000000000000000000000000000000000000000000000000000000000000000000000                          0000000000                                                                  000059
102122445950001000000009034510032549PREGTIT30536004663660     000000000000593687050000000000000000000000000902180319000593687000000000000059368705160519000000002300023704428  000000000014300000000000000000000000000000000000000000000000000000000000000000000000000000000000000000000000000000000                          0000000000                                                                  000060
102122445950001000000009034510032549PREGTIT30539829770723     000000000000593724940000000000000000000000000902180319000593724900000000000059372494150519000000001062523703451  000000000014300000000000000000000000000000000000000000000000000000000000000000000000000000000000000000000000000000000                          0000000000                                                                  000061
102122445950001000000009034510032549PREGTIT30534023384327     000000000000593760310000000000000000000000000902180319000593760300000000000059376031150519000000000650023703451  000000000014300000000000000000000000000000000000000000000000000000000000000000000000000000000000000000000000000000000                          0000000000                                                                  000062
102122445950001000000009034510032549PREGTIT30532629620726     000000000000593781580000000000000000000000000902180319000593781500000000000059378158150519000000002290023704144  000000000014300000000000000000000000000000000000000000000000000000000000000000000000000000000000000000000000000000000                          0000000000                                                                  000063
102122445950001000000009034510032549PREGTIT30537744844609     000000000000593795960000000000000000000000000902180319000593795900000000000059379596150519000000001300023703451  000000000014300000000000000000000000000000000000000000000000000000000000000000000000000000000000000000000000000000000                          0000000000                                                                  000064
102122445950001000000009034510032549PREGTIT30537824635683     0000000000005938302P000000000000000000000000090218031900059383020000000000005938302P170519000000000670023703451  000000000014300000000000000000000000000000000000000000000000000000000000000000000000000000000000000000000000000000000                          0000000000                                                                  000065
102122445950001000000009034510032549PREGTIT30536912033106     000000000000593833800000000000000000000000000902180319000593833800000000000059383380170519000000000600023703451  000000000014300000000000000000000000000000000000000000000000000000000000000000000000000000000000000000000000000000000                          0000000000                                                                  000066
102122445950001000000009034510032549PREGTIT30539029043242     000000000000593835850000000000000000000000000902180319000593835800000000000059383585170519000000000750023703451  000000000014300000000000000000000000000000000000000000000000000000000000000000000000000000000000000000000000000000000                          0000000000                                                                  000067
102122445950001000000009034510032549PREGTIT30531286559605     000000000000593929400000000000000000000000000902180319000593929400000000000059392940150519000000004166723703109  000000000014300000000000000000000000000000000000000000000000000000000000000000000000000000000000000000000000000000000                          0000000000                                                                  000068
102122445950001000000009034510032549PREGTIT30531932894127     000000000000593936100000000000000000000000000902180319000593936100000000000059393610150519000000001400023703451  000000000014300000000000000000000000000000000000000000000000000000000000000000000000000000000000000000000000000000000                          0000000000                                                                  000069
102122445950001000000009034510032549PREGTIT30531219736354     000000000000593980270000000000000000000000000902180319000593980200000000000059398027170519000000003500023704151  000000000014300000000000000000000000000000000000000000000000000000000000000000000000000000000000000000000000000000000                          0000000000                                                                  000070
102122445950001000000009034510032549PREGTIT30533680583205     000000000000593982640000000000000000000000000902180319000593982600000000000059398264150519000000005500023700073  000000000014300000000000000000000000000000000000000000000000000000000000000000000000000000000000000000000000000000000                          0000000000                                                                  000071
102122445950001000000009034510032549PREGTIT30539263473057     000000000000594013700000000000000000000000000902180319000594013700000000000059401370150519000000002500023704151  000000000014300000000000000000000000000000000000000000000000000000000000000000000000000000000000000000000000000000000                          0000000000                                                                  000072
102122445950001000000009034510032549PREGTIT30532245109383     000000000000594084050000000000000000000000000902180319000594084000000000000059408405150519000000002500023704151  000000000014300000000000000000000000000000000000000000000000000000000000000000000000000000000000000000000000000000000                          0000000000                                                                  000073
102122445950001000000009034510032549PREGTIT30535033701099     0000000000005946559P000000000000000000000000090218031900059465590000000000005946559P150519000000002900023704151  000000000014300000000000000000000000000000000000000000000000000000000000000000000000000000000000000000000000000000000                          0000000000                                                                  000074
102122445950001000000009034510032549PREGTIT30535670692233     000000000000594741810000000000000000000000000902180319000594741800000000000059474181150519000000004400023704151  000000000014300000000000000000000000000000000000000000000000000000000000000000000000000000000000000000000000000000000                          0000000000                                                                  000075
102122445950001000000009034510032549PREGTIT30532693125005     000000000000594750640000000000000000000000000902180319000594750600000000000059475064150519000000002490023704151  000000000014300000000000000000000000000000000000000000000000000000000000000000000000000000000000000000000000000000000                          0000000000                                                                  000076
102122445950001000000009034510032549PREGTIT30534334331432     0000000000005947517P000000000000000000000000090218031900059475170000000000005947517P150519000000000780023703451  000000000014300000000000000000000000000000000000000000000000000000000000000000000000000000000000000000000000000000000                          0000000000                                                                  000077
102122445950001000000009034510032549PREGTIT30535001186815     000000000000594752770000000000000000000000000902180319000594752700000000000059475277150519000000002380023704151  000000000014300000000000000000000000000000000000000000000000000000000000000000000000000000000000000000000000000000000                          0000000000                                                                  000078
102122445950001000000009034510032549PREGTIT30531729977155     000000000000594792050000000000000000000000000902180319000594792000000000000059479205150519000000001350023703451  000000000014300000000000000000000000000000000000000000000000000000000000000000000000000000000000000000000000000000000                          0000000000                                                                  000079
102122445950001000000009034510032549PREGTIT30533123752218     000000000000594807690000000000000000000000000902180319000594807600000000000059480769150519000000001330023703109  000000000014300000000000000000000000000000000000000000000000000000000000000000000000000000000000000000000000000000000                          0000000000                                                                  000080
102122445950001000000009034510032549PREGTIT30534274044806     0000000000005948330P000000000000000000000000090218031900059483300000000000005948330P150519000000003700023704151  000000000014300000000000000000000000000000000000000000000000000000000000000000000000000000000000000000000000000000000                          0000000000                                                                  000081
102122445950001000000009034510032549PREGTIT30538770402678     000000000000594911910000000000000000000000000902180319000594911900000000000059491191150519000000003857023704151  000000000014300000000000000000000000000000000000000000000000000000000000000000000000000000000000000000000000000000000                          7600000000                                                                  000082
102122445950001000000009034510032549PREGTIT30535089143754     000000000000594937200000000000000000000000000902180319000594937200000000000059493720150519000000003500023704144  000000000014300000000000000000000000000000000000000000000000000000000000000000000000000000000000000000000000000000000                          0000000000                                                                  000083
102122445950001000000009034510032549PREGTIT30531954548027     000000000000594961500000000000000000000000000902180319000594961500000000000059496150150519000000003053823704157  000000000014300000000000000000000000000000000000000000000000000000000000000000000000000000000000000000000000000000000                          0000000000                                                                  000084
102122445950001000000009034510032549PREGTIT30534705574044     000000000000594962820000000000000000000000000902180319000594962800000000000059496282150519000000001980023704151  000000000014300000000000000000000000000000000000000000000000000000000000000000000000000000000000000000000000000000000                          0000000000                                                                  000085
102122445950001000000009034510032549PREGTIT30537553346815     000000000000595040800000000000000000000000000902180319000595040800000000000059504080150519000000000562523703451  000000000014300000000000000000000000000000000000000000000000000000000000000000000000000000000000000000000000000000000                          0000000000                                                                  000086
102122445950001000000009034510032549PREGTIT30537693597372     000000000000595049190000000000000000000000000902180319000595049100000000000059504919150519000000000833423703451  000000000014300000000000000000000000000000000000000000000000000000000000000000000000000000000000000000000000000000000                          0000000000                                                                  000087
102122445950001000000009034510032549PREGTIT30532088374160     000000000000595093090000000000000000000000000902180319000595093000000000000059509309160519000000001333423703451  000000000014300000000000000000000000000000000000000000000000000000000000000000000000000000000000000000000000000000000                          0000000000                                                                  000088
102122445950001000000009034510032549PREGTIT30538291895844     000000000000595105010000000000000000000000000902180319000595105000000000000059510501160519000000003250023704151  000000000014300000000000000000000000000000000000000000000000000000000000000000000000000000000000000000000000000000000                          0000000000                                                                  000089
102122445950001000000009034510032549PREGTIT30534417016630     000000000000595116560000000000000000000000000902180319000595116500000000000059511656150519000000001500023704274  000000000014300000000000000000000000000000000000000000000000000000000000000000000000000000000000000000000000000000000                          0000000000                                                                  000090
102122445950001000000009034510032549PREGTIT30537596918232     000000000000595123690000000000000000000000000902180319000595123600000000000059512369150519000000000666723703451  000000000014300000000000000000000000000000000000000000000000000000000000000000000000000000000000000000000000000000000                          0000000000                                                                  000091
102122445950001000000009034510032549PREGTIT30532278011689     000000000000595668760000000000000000000000000902180319000595668700000000000059566876150519000000001961023703451  000000000014300000000000000000000000000000000000000000000000000000000000000000000000000000000000000000000000000000000                          0000000000                                                                  000092
102122445950001000000009034510032549PREGTIT30539917211963     000000000000595687040000000000000000000000000902180319000595687000000000000059568704150519000000001250023704152  000000000014300000000000000000000000000000000000000000000000000000000000000000000000000000000000000000000000000000000                          0000000000                                                                  000093
102122445950001000000009034510032549PREGTIT30537029773001     000000000000595727950000000000000000000000000902180319000595727900000000000059572795170519000000003760023704151  000000000014300000000000000000000000000000000000000000000000000000000000000000000000000000000000000000000000000000000                          0000000000                                                                  000094
102122445950001000000009034510032549PREGTIT30539953190469     000000000000595737750000000000000000000000000902180319000595737700000000000059573775150519000000000550023703451  000000000014300000000000000000000000000000000000000000000000000000000000000000000000000000000000000000000000000000000                          0000000000                                                                  000095
102122445950001000000009034510032549PREGTIT30536976682382     000000000000595740380000000000000000000000000902180319000595740300000000000059574038150519000000007400023704151  000000000014300000000000000000000000000000000000000000000000000000000000000000000000000000000000000000000000000000000                          0000000000                                                                  000096
102122445950001000000009034510032549PREGTIT30538618122711     000000000000595751580000000000000000000000000902180319000595751500000000000059575158170519000000001500023700140  000000000014300000000000000000000000000000000000000000000000000000000000000000000000000000000000000000000000000000000                          0000000000                                                                  000097
102122445950001000000009034510032549PREGTIT30533952600223     000000000000595759480000000000000000000000000902180319000595759400000000000059575948170519000000000563023704157  000000000014300000000000000000000000000000000000000000000000000000000000000000000000000000000000000000000000000000000                          0000000000                                                                  000098
102122445950001000000009034510032549PREGTIT30537820916900     0000000000005957772P000000000000000000000000090218031900059577720000000000005957772P150519000000000770023704144  000000000014300000000000000000000000000000000000000000000000000000000000000000000000000000000000000000000000000000000                          0000000000                                                                  000099
102122445950001000000009034510032549PREGTIT30532159130457     000000000000595780760000000000000000000000000902180319000595780700000000000059578076150519000000001861023704428  000000000014300000000000000000000000000000000000000000000000000000000000000000000000000000000000000000000000000000000                          0000000000                                                                  000100
102122445950001000000009034510032549PREGTIT30535035376929     000000000000595782110000000000000000000000000902180319000595782100000000000059578211170519000000000800023704144  000000000014300000000000000000000000000000000000000000000000000000000000000000000000000000000000000000000000000000000                          0000000000                                                                  000101
102122445950001000000009034510032549PREGTIT30536466696278     000000000000595843270000000000000000000000000902180319000595843200000000000059584327150519000000002530023704152  000000000014300000000000000000000000000000000000000000000000000000000000000000000000000000000000000000000000000000000                          0000000000                                                                  000102
102122445950001000000009034510032549PREGTIT30532926461146     000000000000595863540000000000000000000000000902180319000595863500000000000059586354150519000000002100023704151  000000000014300000000000000000000000000000000000000000000000000000000000000000000000000000000000000000000000000000000                          7600000000                                                                  000103
102122445950001000000009034510032549PREGTIT30532658169294     000000000000595871560000000000000000000000000902180319000595871500000000000059587156150519000000001100023700408  000000000014300000000000000000000000000000000000000000000000000000000000000000000000000000000000000000000000000000000                          0000000000                                                                  000104
102122445950001000000009034510032549PREGTIT30533715537894     000000000000595873850000000000000000000000000902180319000595873800000000000059587385150519000000000550023704151  000000000014300000000000000000000000000000000000000000000000000000000000000000000000000000000000000000000000000000000                          0000000000                                                                  000105
102122445950001000000009034510032549PREGTIT30536413102228     000000000000595917650000000000000000000000000902180319000595917600000000000059591765160519000000002140023704151  000000000014300000000000000000000000000000000000000000000000000000000000000000000000000000000000000000000000000000000                          0000000000                                                                  000106
102122445950001000000009034510032549PREGTIT30535252899982     000000000000595929310000000000000000000000000902180319000595929300000000000059592931150519000000002500023704151  000000000014300000000000000000000000000000000000000000000000000000000000000000000000000000000000000000000000000000000                          0000000000                                                                  000107
102122445950001000000009034510032549PREGTIT30535749168776     000000000000595942760000000000000000000000000902180319000595942700000000000059594276150519000000001480023704147  000000000014300000000000000000000000000000000000000000000000000000000000000000000000000000000000000000000000000000000                          0000000000                                                                  000108
102122445950001000000009034510032549PREGTIT30538871858078     000000000000595973560000000000000000000000000902180319000595973500000000000059597356150519000000004953123704428  000000000014300000000000000000000000000000000000000000000000000000000000000000000000000000000000000000000000000000000                          0000000000                                                                  000109
102122445950001000000009034510032549PREGTIT30535560937428     000000000000595979920000000000000000000000000902180319000595979900000000000059597992150519000000001640023704147  000000000014300000000000000000000000000000000000000000000000000000000000000000000000000000000000000000000000000000000                          0000000000                                                                  000110
102122445950001000000009034510032549PREGTIT30532119869858     000000000000596042200000000000000000000000000902180319000596042200000000000059604220150519000000000780023703451  000000000014300000000000000000000000000000000000000000000000000000000000000000000000000000000000000000000000000000000                          0000000000                                                                  000111
102122445950001000000009034510032549PREGTIT30532024816634     000000000000596043950000000000000000000000000902180319000596043900000000000059604395150519000000001280023703451  000000000014300000000000000000000000000000000000000000000000000000000000000000000000000000000000000000000000000000000                          0000000000                                                                  000112
102122445950001000000009034510032549PREGTIT30538348820317     000000000000596067380000000000000000000000000902180319000596067300000000000059606738150519000000001600023703451  000000000014300000000000000000000000000000000000000000000000000000000000000000000000000000000000000000000000000000000                          0000000000                                                                  000113
102122445950001000000009034510032549PREGTIT30534215413472     0000000000005960705P000000000000000000000000090218031900059607050000000000005960705P150519000000001160023703451  000000000014300000000000000000000000000000000000000000000000000000000000000000000000000000000000000000000000000000000                          0000000000                                                                  000114
102122445950001000000009034510032549PREGTIT30534889718952     000000000000596575370000000000000000000000000902180319000596575300000000000059657537150519000000002380023703451  000000000014300000000000000000000000000000000000000000000000000000000000000000000000000000000000000000000000000000000                          0000000000                                                                  000115
102122445950001000000009034510032549PREGTIT30534611804621     000000000000596578980000000000000000000000000902180319000596578900000000000059657898150519000000001400023703451  000000000014300000000000000000000000000000000000000000000000000000000000000000000000000000000000000000000000000000000                          7600000000                                                                  000116
102122445950001000000009034510032549PREGTIT30537398379693     000000000000596600820000000000000000000000000902180319000596600800000000000059660082150519000000005290023703451  000000000014300000000000000000000000000000000000000000000000000000000000000000000000000000000000000000000000000000000                          0000000000                                                                  000117
102122445950001000000009034510032549PREGTIT30538493038585     000000000000596602790000000000000000000000000902180319000596602700000000000059660279150519000000003150023704151  000000000014300000000000000000000000000000000000000000000000000000000000000000000000000000000000000000000000000000000                          0000000000                                                                  000118
102122445950001000000009034510032549PREGTIT30531465439370     0000000000005966052P000000000000000000000000090218031900059660520000000000005966052P150519000000005500023704151  000000000014300000000000000000000000000000000000000000000000000000000000000000000000000000000000000000000000000000000                          0000000000                                                                  000119
102122445950001000000009034510032549PREGTIT30534446777125     000000000000596611190000000000000000000000000902180319000596611100000000000059661119150519000000003100023703451  000000000014300000000000000000000000000000000000000000000000000000000000000000000000000000000000000000000000000000000                          0000000000                                                                  000120
102122445950001000000009034510032549PREGTIT30538109807661     000000000000596623950000000000000000000000000902180319000596623900000000000059662395160519000000002150023704151  000000000014300000000000000000000000000000000000000000000000000000000000000000000000000000000000000000000000000000000                          0000000000                                                                  000121
102122445950001000000009034510032549PREGTIT30534551328826     000000000000596643630000000000000000000000000902180319000596643600000000000059664363150519000000001780023704151  000000000014300000000000000000000000000000000000000000000000000000000000000000000000000000000000000000000000000000000                          7600000000                                                                  000122
102122445950001000000009034510032549PREGTIT30532734874958     000000000000596660640000000000000000000000000902180319000596660600000000000059666064150519000000000594323704157  000000000014300000000000000000000000000000000000000000000000000000000000000000000000000000000000000000000000000000000                          0000000000                                                                  000123
102122445950001000000009034510032549PREGTIT30538822288285     000000000000596673620000000000000000000000000902180319000596673600000000000059667362150519000000003400023703451  000000000014300000000000000000000000000000000000000000000000000000000000000000000000000000000000000000000000000000000                          0000000000                                                                  000124
102122445950001000000009034510032549PREGTIT30536625635284     0000000000005966844P000000000000000000000000090218031900059668440000000000005966844P170519000000003050023704157  000000000014300000000000000000000000000000000000000000000000000000000000000000000000000000000000000000000000000000000                          7600000000                                                                  000125
102122445950001000000009034510032549PREGTIT30531172087809     0000000000005966889P000000000000000000000000090218031900059668890000000000005966889P150519000000001530023704151  000000000014300000000000000000000000000000000000000000000000000000000000000000000000000000000000000000000000000000000                          7600000000                                                                  000126
102122445950001000000009034510032549PREGTIT30539509735641     000000000000596695270000000000000000000000000902180319000596695200000000000059669527150519000000001500023704151  000000000014300000000000000000000000000000000000000000000000000000000000000000000000000000000000000000000000000000000                          0000000000                                                                  000127
102122445950001000000009034510032549PREGTIT30537052525563     000000000000596723740000000000000000000000000902180319000596723700000000000059672374150519000000001047123704157  000000000014300000000000000000000000000000000000000000000000000000000000000000000000000000000000000000000000000000000                          7600000000                                                                  000128
102122445950001000000009034510032549PREGTIT30535838792725     0000000000005967251P000000000000000000000000090218031900059672510000000000005967251P150519000000001800023704144  000000000014300000000000000000000000000000000000000000000000000000000000000000000000000000000000000000000000000000000                          0000000000                                                                  000129
102122445950001000000009034510032549PREGTIT30533011789048     000000000000596732300000000000000000000000000902180319000596732300000000000059673230150519000000000523823704157  000000000014300000000000000000000000000000000000000000000000000000000000000000000000000000000000000000000000000000000                          0000000000                                                                  000130
102122445950001000000009034510032549PREGTIT30531846153197     000000000000596734510000000000000000000000000902180319000596734500000000000059673451150519000000001370023704144  000000000014300000000000000000000000000000000000000000000000000000000000000000000000000000000000000000000000000000000                          0000000000                                                                  000131
102122445950001000000009034510032549PREGTIT30539494710084     000000000000596735590000000000000000000000000902180319000596735500000000000059673559160519000000001201123704151  000000000014300000000000000000000000000000000000000000000000000000000000000000000000000000000000000000000000000000000                          0000000000                                                                  000132
102122445950001000000009034510032549PREGTIT30539902710637     0000000000005967413P000000000000000000000000090218031900059674130000000000005967413P170519000000000625823704158  000000000014300000000000000000000000000000000000000000000000000000000000000000000000000000000000000000000000000000000                          0000000000                                                                  000133
102122445950001000000009034510032549PREGTIT30538399260971     000000000000596742530000000000000000000000000902180319000596742500000000000059674253150519000000001020023704147  000000000014300000000000000000000000000000000000000000000000000000000000000000000000000000000000000000000000000000000                          0000000000                                                                  000134
102122445950001000000009034510032549PREGTIT30535560207967     000000000000596748490000000000000000000000000902180319000596748400000000000059674849150519000000001100023704144  000000000014300000000000000000000000000000000000000000000000000000000000000000000000000000000000000000000000000000000                          0000000000                                                                  000135
102122445950001000000009034510032549PREGTIT30538846636153     000000000000596749460000000000000000000000000902180319000596749400000000000059674946160519000000000800023704144  000000000014300000000000000000000000000000000000000000000000000000000000000000000000000000000000000000000000000000000                          0000000000                                                                  000136
102122445950001000000009034510032549PREGTIT30536095672551     000000000000596751950000000000000000000000000902180319000596751900000000000059675195160519000000000400023704144  000000000014300000000000000000000000000000000000000000000000000000000000000000000000000000000000000000000000000000000                          0000000000                                                                  000137
102122445950001000000009034510032549PREGTIT30533498921443     000000000000596752920000000000000000000000000902180319000596752900000000000059675292160519000000000800023704144  000000000014300000000000000000000000000000000000000000000000000000000000000000000000000000000000000000000000000000000                          0000000000                                                                  000138
102122445950001000000009034510032549PREGTIT30534888316467     000000000000596756160000000000000000000000000902180319000596756100000000000059675616160519000000000550023703451  000000000014300000000000000000000000000000000000000000000000000000000000000000000000000000000000000000000000000000000                          0000000000                                                                  000139
102122445950001000000009034510032549PREGTIT30538006138486     000000000000596757480000000000000000000000000902180319000596757400000000000059675748170519000000000260023703451  000000000014300000000000000000000000000000000000000000000000000000000000000000000000000000000000000000000000000000000                          0000000000                                                                  000140
102122445950001000000009034510032549PREGTIT30535550238837     000000000000596758610000000000000000000000000902180319000596758600000000000059675861170519000000001240023703451  000000000014300000000000000000000000000000000000000000000000000000000000000000000000000000000000000000000000000000000                          0000000000                                                                  000141
102122445950001000000009034510032549PREGTIT30538045389900     0000000000005967685P000000000000000000000000090218031900059676850000000000005967685P160519000000000550023704144  000000000014300000000000000000000000000000000000000000000000000000000000000000000000000000000000000000000000000000000                          0000000000                                                                  000142
102122445950001000000009034510032549PREGTIT30538268722370     000000000000596769570000000000000000000000000902180319000596769500000000000059676957160519000000000600023704144  000000000014300000000000000000000000000000000000000000000000000000000000000000000000000000000000000000000000000000000                          0000000000                                                                  000143
102122445950001000000009034510032549PREGTIT30539717275367     000000000000596770580000000000000000000000000902180319000596770500000000000059677058160519000000001100023704144  000000000014300000000000000000000000000000000000000000000000000000000000000000000000000000000000000000000000000000000                          0000000000                                                                  000144
102122445950001000000009034510032549PREGTIT30533174939060     0000000000005967721P000000000000000000000000090218031900059677210000000000005967721P160519000000000800023704157  000000000014300000000000000000000000000000000000000000000000000000000000000000000000000000000000000000000000000000000                          0000000000                                                                  000145
102122445950001000000009034510032549PREGTIT30532832592986     000000000000596773170000000000000000000000000902180319000596773100000000000059677317160519000000000800023704144  000000000014300000000000000000000000000000000000000000000000000000000000000000000000000000000000000000000000000000000                          0000000000                                                                  000146
102122445950001000000009034510032549PREGTIT30533807836973     000000000000596776270000000000000000000000000902180319000596776200000000000059677627150519000000000950023704144  000000000014300000000000000000000000000000000000000000000000000000000000000000000000000000000000000000000000000000000                          0000000000                                                                  000147
102122445950001000000009034510032549PREGTIT30538512300931     000000000000596781000000000000000000000000000902180319000596781000000000000059678100160519000000000550023704144  000000000014300000000000000000000000000000000000000000000000000000000000000000000000000000000000000000000000000000000                          0000000000                                                                  000148
102122445950001000000009034510032549PREGTIT30535017343958     000000000000596785420000000000000000000000000902180319000596785400000000000059678542150519000000001880023703109  000000000014300000000000000000000000000000000000000000000000000000000000000000000000000000000000000000000000000000000                          0000000000                                                                  000149
102122445950001000000009034510032549PREGTIT30532597204935     000000000000596793950000000000000000000000000902180319000596793900000000000059679395150519000000001500023704151  000000000014300000000000000000000000000000000000000000000000000000000000000000000000000000000000000000000000000000000                          0000000000                                                                  000150
102122445950001000000009034510032549PREGTIT30531943262529     000000000000596823960000000000000000000000000902180319000596823900000000000059682396150519000000002300023704151  000000000014300000000000000000000000000000000000000000000000000000000000000000000000000000000000000000000000000000000                          0000000000                                                                  000151
102122445950001000000009034510032549PREGTIT30533779997854     000000000000596836940000000000000000000000000902180319000596836900000000000059683694150519000000010000023703451  000000000014300000000000000000000000000000000000000000000000000000000000000000000000000000000000000000000000000000000                          0000000000                                                                  000152
102122445950001000000009034510032549PREGTIT30538308853871     000000000000596838130000000000000000000000000902180319000596838100000000000059683813150519000000010000023703451  000000000014300000000000000000000000000000000000000000000000000000000000000000000000000000000000000000000000000000000                          0000000000                                                                  000153
102122445950001000000009034510032549PREGTIT30533052051203     000000000000596843210000000000000000000000000902180319000596843200000000000059684321150519000000000346923704157  000000000014300000000000000000000000000000000000000000000000000000000000000000000000000000000000000000000000000000000                          7600000000                                                                  000154
102122445950001000000009034510032549PREGTIT30534489937333     000000000000596901430000000000000000000000000902180319000596901400000000000059690143150519000000001990023704151  000000000014300000000000000000000000000000000000000000000000000000000000000000000000000000000000000000000000000000000                          0000000000                                                                  000155
102122445950001000000009034510032549PREGTIT30534006507264     000000000000596949980000000000000000000000000902180319000596949900000000000059694998150519000000003666723704151  000000000014300000000000000000000000000000000000000000000000000000000000000000000000000000000000000000000000000000000                          0000000000                                                                  000156
102122445950001000000009034510032549PREGTIT30533694135298     000000000000596983490000000000000000000000000902180319000596983400000000000059698349150519000000002485023704144  000000000014300000000000000000000000000000000000000000000000000000000000000000000000000000000000000000000000000000000                          7600000000                                                                  000157
102122445950001000000009034510032549PREGTIT30535134985513     000000000000597537730000000000000000000000000902180319000597537700000000000059753773150519000000002500023703109  000000000014300000000000000000000000000000000000000000000000000000000000000000000000000000000000000000000000000000000                          0000000000                                                                  000158
102122445950001000000009034510032549PREGTIT30533771147363     000000000000597538700000000000000000000000000902180319000597538700000000000059753870150519000000003312523703451  000000000014300000000000000000000000000000000000000000000000000000000000000000000000000000000000000000000000000000000                          0000000000                                                                  000159
102122445950001000000009034510032549PREGTIT30538885239114     000000000000597542730000000000000000000000000902180319000597542700000000000059754273150519000000001125023703451  000000000014300000000000000000000000000000000000000000000000000000000000000000000000000000000000000000000000000000000                          0000000000                                                                  000160
102122445950001000000009034510032549PREGTIT30534517729410     000000000000597549310000000000000000000000000902180319000597549300000000000059754931150519000000002800023704151  000000000014300000000000000000000000000000000000000000000000000000000000000000000000000000000000000000000000000000000                          7600000000                                                                  000161
102122445950001000000009034510032549PREGTIT30533937088921     000000000000597574850000000000000000000000000902180319000597574800000000000059757485150519000000001000023704151  000000000014300000000000000000000000000000000000000000000000000000000000000000000000000000000000000000000000000000000                          7600000000                                                                  000162
102122445950001000000009034510032549PREGTIT30538720830211     000000000000597575660000000000000000000000000902180319000597575600000000000059757566150519000000001980023704151  000000000014300000000000000000000000000000000000000000000000000000000000000000000000000000000000000000000000000000000                          0000000000                                                                  000163
102122445950001000000009034510032549PREGTIT30537626848767     000000000000597576390000000000000000000000000902180319000597576300000000000059757639160519000000001920023704151  000000000014300000000000000000000000000000000000000000000000000000000000000000000000000000000000000000000000000000000                          0000000000                                                                  000164
102122445950001000000009034510032549PREGTIT30538802303622     000000000000597579140000000000000000000000000902180319000597579100000000000059757914150519000000001270023704151  000000000014300000000000000000000000000000000000000000000000000000000000000000000000000000000000000000000000000000000                          0000000000                                                                  000165
102122445950001000000009034510032549PREGTIT30535880686934     000000000000597586350000000000000000000000000902180319000597586300000000000059758635150519000000000794323704157  000000000014300000000000000000000000000000000000000000000000000000000000000000000000000000000000000000000000000000000                          0000000000                                                                  000166
102122445950001000000009034510032549PREGTIT30538627168291     000000000000597587750000000000000000000000000902180319000597587700000000000059758775150519000000004000023704274  000000000014300000000000000000000000000000000000000000000000000000000000000000000000000000000000000000000000000000000                          0000000000                                                                  000167
102122445950001000000009034510032549PREGTIT30534587545775     000000000000597589370000000000000000000000000902180319000597589300000000000059758937150519000000001200023703451  000000000014300000000000000000000000000000000000000000000000000000000000000000000000000000000000000000000000000000000                          0000000000                                                                  000168
102122445950001000000009034510032549PREGTIT30537470190852     000000000000597589960000000000000000000000000902180319000597589900000000000059758996150519000000001300023704422  000000000014300000000000000000000000000000000000000000000000000000000000000000000000000000000000000000000000000000000                          0000000000                                                                  000169
102122445950001000000009034510032549PREGTIT30537147565873     000000000000597590380000000000000000000000000902180319000597590300000000000059759038150519000000001350023703451  000000000014300000000000000000000000000000000000000000000000000000000000000000000000000000000000000000000000000000000                          0000000000                                                                  000170
102122445950001000000009034510032549PREGTIT30539385520596     000000000000597590890000000000000000000000000902180319000597590800000000000059759089150519000000002000023704422  000000000014300000000000000000000000000000000000000000000000000000000000000000000000000000000000000000000000000000000                          0000000000                                                                  000171
102122445950001000000009034510032549PREGTIT30539216660463     000000000000597593480000000000000000000000000902180319000597593400000000000059759348170519000000000629023704157  000000000014300000000000000000000000000000000000000000000000000000000000000000000000000000000000000000000000000000000                          0000000000                                                                  000172
102122445950001000000009034510032549PREGTIT30534910604444     0000000000005976029P000000000000000000000000090218031900059760290000000000005976029P170519000000001700023704151  000000000014300000000000000000000000000000000000000000000000000000000000000000000000000000000000000000000000000000000                          0000000000                                                                  000173
102122445950001000000009034510032549PREGTIT30532116545637     0000000000005976094P000000000000000000000000090218031900059760940000000000005976094P150519000000002519523704151  000000000014300000000000000000000000000000000000000000000000000000000000000000000000000000000000000000000000000000000                          0000000000                                                                  000174
102122445950001000000009034510032549PREGTIT30536110091300     000000000000597612880000000000000000000000000902180319000597612800000000000059761288170519000000001489023703451  000000000014300000000000000000000000000000000000000000000000000000000000000000000000000000000000000000000000000000000                          0000000000                                                                  000175
102122445950001000000009034510032549PREGTIT30539175966030     0000000000005976225P000000000000000000000000090218031900059762250000000000005976225P150519000000001605023703451  000000000014300000000000000000000000000000000000000000000000000000000000000000000000000000000000000000000000000000000                          0000000000                                                                  000176
102122445950001000000009034510032549PREGTIT30539206615686     000000000000597658360000000000000000000000000902180319000597658300000000000059765836150519000000002500023704151  000000000014300000000000000000000000000000000000000000000000000000000000000000000000000000000000000000000000000000000                          0000000000                                                                  000177
102122445950001000000009034510032549PREGTIT30538387200848     000000000000597679280000000000000000000000000902180319000597679200000000000059767928160519000000000400023704144  000000000014300000000000000000000000000000000000000000000000000000000000000000000000000000000000000000000000000000000                          0000000000                                                                  000178
102122445950001000000009034510032549PREGTIT30532545251945     000000000000597731970000000000000000000000000902180319000597731900000000000059773197150519000000000750023704144  000000000014300000000000000000000000000000000000000000000000000000000000000000000000000000000000000000000000000000000                          0000000000                                                                  000179
102122445950001000000009034510032549PREGTIT30534896321309     000000000000597739600000000000000000000000000902180319000597739600000000000059773960150519000000001612823704151  000000000014300000000000000000000000000000000000000000000000000000000000000000000000000000000000000000000000000000000                          7600000000                                                                  000180
102122445950001000000009034510032549PREGTIT30532589605802     000000000000597744870000000000000000000000000902180319000597744800000000000059774487150519000000002200023704157  000000000014300000000000000000000000000000000000000000000000000000000000000000000000000000000000000000000000000000000                          0000000000                                                                  000181
102122445950001000000009034510032549PREGTIT30533688549026     000000000000597762340000000000000000000000000902180319000597762300000000000059776234150519000000001200023704144  000000000014300000000000000000000000000000000000000000000000000000000000000000000000000000000000000000000000000000000                          7600000000                                                                  000182
102122445950001000000009034510032549PREGTIT30532921157938     000000000000597772650000000000000000000000000902180319000597772600000000000059777265150519000000000723823704157  000000000014300000000000000000000000000000000000000000000000000000000000000000000000000000000000000000000000000000000                          7600000000                                                                  000183
102122445950001000000009034510032549PREGTIT30531353039542     000000000000597780080000000000000000000000000902180319000597780000000000000059778008150519000000001133323704151  000000000014300000000000000000000000000000000000000000000000000000000000000000000000000000000000000000000000000000000                          0000000000                                                                  000184
102122445950001000000009034510032549PREGTIT30533741127327     0000000000005978136P000000000000000000000000090218031900059781360000000000005978136P150519000000002760023704151  000000000014300000000000000000000000000000000000000000000000000000000000000000000000000000000000000000000000000000000                          0000000000                                                                  000185
102122445950001000000009034510032549PREGTIT30539283653692     000000000000597817930000000000000000000000000902180319000597817900000000000059781793150519000000001760023703109  000000000014300000000000000000000000000000000000000000000000000000000000000000000000000000000000000000000000000000000                          0000000000                                                                  000186
102122445950001000000009034510032549PREGTIT30531187005394     0000000000005978458P000000000000000000000000090218031900059784580000000000005978458P150519000000002500023704157  000000000014300000000000000000000000000000000000000000000000000000000000000000000000000000000000000000000000000000000                          0000000000                                                                  000187
102122445950001000000009034510032549PREGTIT30533036144355     000000000000597861160000000000000000000000000902180319000597861100000000000059786116150519000000003000023704151  000000000014300000000000000000000000000000000000000000000000000000000000000000000000000000000000000000000000000000000                          7600000000                                                                  000188
102122445950001000000009034510032549PREGTIT30538229263168     000000000000597862560000000000000000000000000902180319000597862500000000000059786256150519000000001200023703109  000000000014300000000000000000000000000000000000000000000000000000000000000000000000000000000000000000000000000000000                          0000000000                                                                  000189
102122445950001000000009034510032549PREGTIT30533689754671     000000000000597864420000000000000000000000000902180319000597864400000000000059786442150519000000002000023703109  000000000014300000000000000000000000000000000000000000000000000000000000000000000000000000000000000000000000000000000                          0000000000                                                                  000190
102122445950001000000009034510032549PREGTIT30538927247164     000000000000597865580000000000000000000000000902180319000597865500000000000059786558150519000000001500023700408  000000000014300000000000000000000000000000000000000000000000000000000000000000000000000000000000000000000000000000000                          0000000000                                                                  000191
102122445950001000000009034510032549PREGTIT30531488999451     0000000000005978685P000000000000000000000000090218031900059786850000000000005978685P150519000000001250023700408  000000000014300000000000000000000000000000000000000000000000000000000000000000000000000000000000000000000000000000000                          0000000000                                                                  000192
102122445950001000000009034510032549PREGTIT30532457793992     000000000000597873330000000000000000000000000902180319000597873300000000000059787333150519000000001000023700408  000000000014300000000000000000000000000000000000000000000000000000000000000000000000000000000000000000000000000000000                          0000000000                                                                  000193
102122445950001000000009034510032549PREGTIT30535063486434     000000000000597884530000000000000000000000000902180319000597884500000000000059788453160519000000002666723704151  000000000014300000000000000000000000000000000000000000000000000000000000000000000000000000000000000000000000000000000                          0000000000                                                                  000194
102122445950001000000009034510032549PREGTIT30539643805954     000000000000597889250000000000000000000000000902180319000597889200000000000059788925150519000000001000023700408  000000000014300000000000000000000000000000000000000000000000000000000000000000000000000000000000000000000000000000000                          0000000000                                                                  000195
102122445950001000000009034510032549PREGTIT30532258713220     000000000000597898590000000000000000000000000902180319000597898500000000000059789859150519000000001883323703109  000000000014300000000000000000000000000000000000000000000000000000000000000000000000000000000000000000000000000000000                          0000000000                                                                  000196
102122445950001000000009034510032549PREGTIT30536830088140     000000000000597902370000000000000000000000000902180319000597902300000000000059790237150519000000001987123704151  000000000014300000000000000000000000000000000000000000000000000000000000000000000000000000000000000000000000000000000                          0000000000                                                                  000197
102122445950001000000009034510032549PREGTIT30536766731937     000000000000597905200000000000000000000000000902180319000597905200000000000059790520150519000000001200023703109  000000000014300000000000000000000000000000000000000000000000000000000000000000000000000000000000000000000000000000000                          0000000000                                                                  000198
102122445950001000000009034510032549PREGTIT30536995882731     000000000000597914620000000000000000000000000902180319000597914600000000000059791462150519000000004000023704151  000000000014300000000000000000000000000000000000000000000000000000000000000000000000000000000000000000000000000000000                          0000000000                                                                  000199
102122445950001000000009034510032549PREGTIT30535573110812     000000000000598413540000000000000000000000000902180319000598413500000000000059841354150519000000005000023703451  000000000014300000000000000000000000000000000000000000000000000000000000000000000000000000000000000000000000000000000                          0000000000                                                                  000200
102122445950001000000009034510032549PREGTIT30538957275210     000000000000598414780000000000000000000000000902180319000598414700000000000059841478150519000000000434723704157  000000000014300000000000000000000000000000000000000000000000000000000000000000000000000000000000000000000000000000000                          0000000000                                                                  000201
102122445950001000000009034510032549PREGTIT30537800562000     000000000000598428220000000000000000000000000902180319000598428200000000000059842822160519000000001333323703109  000000000014300000000000000000000000000000000000000000000000000000000000000000000000000000000000000000000000000000000                          0000000000                                                                  000202
102122445950001000000009034510032549PREGTIT30533981411895     000000000000598429380000000000000000000000000902180319000598429300000000000059842938170519000000001333323703109  000000000014300000000000000000000000000000000000000000000000000000000000000000000000000000000000000000000000000000000                          0000000000                                                                  000203
102122445950001000000009034510032549PREGTIT30536282597453     000000000000598429890000000000000000000000000902180319000598429800000000000059842989170519000000001500023703109  000000000014300000000000000000000000000000000000000000000000000000000000000000000000000000000000000000000000000000000                          7600000000                                                                  000204
102122445950001000000009034510032549PREGTIT30532808352518     000000000000598430120000000000000000000000000902180319000598430100000000000059843012170519000000001500023703109  000000000014300000000000000000000000000000000000000000000000000000000000000000000000000000000000000000000000000000000                          0000000000                                                                  000205
102122445950001000000009034510032549PREGTIT30539746807217     000000000000598432330000000000000000000000000902180319000598432300000000000059843233150519000000002000023703451  000000000014300000000000000000000000000000000000000000000000000000000000000000000000000000000000000000000000000000000                          0000000000                                                                  000206
102122445950001000000009034510032549PREGTIT30536948286468     000000000000598433220000000000000000000000000902180319000598433200000000000059843322170519000000002333323703109  000000000014300000000000000000000000000000000000000000000000000000000000000000000000000000000000000000000000000000000                          0000000000                                                                  000207
102122445950001000000009034510032549PREGTIT30536956118634     000000000000598444420000000000000000000000000902180319000598444400000000000059844442150519000000002500023704151  000000000014300000000000000000000000000000000000000000000000000000000000000000000000000000000000000000000000000000000                          0000000000                                                                  000208
102122445950001000000009034510032549PREGTIT30531149119904     000000000000598469170000000000000000000000000902180319000598469100000000000059846917160519000000002166723703109  000000000014300000000000000000000000000000000000000000000000000000000000000000000000000000000000000000000000000000000                          0000000000                                                                  000209
102122445950001000000009034510032549PREGTIT30536312597497     000000000000598470180000000000000000000000000902180319000598470100000000000059847018150519000000002500023704151  000000000014300000000000000000000000000000000000000000000000000000000000000000000000000000000000000000000000000000000                          0000000000                                                                  000210
102122445950001000000009034510032549PREGTIT30534408042492     000000000000598485370000000000000000000000000902180319000598485300000000000059848537150519000000001718523704157  000000000014300000000000000000000000000000000000000000000000000000000000000000000000000000000000000000000000000000000                          0000000000                                                                  000211
102122445950001000000009034510032549PREGTIT30533406301939     000000000000598491500000000000000000000000000902180319000598491500000000000059849150150519000000001725023703451  000000000014300000000000000000000000000000000000000000000000000000000000000000000000000000000000000000000000000000000                          0000000000                                                                  000212
102122445950001000000009034510032549PREGTIT30539678954026     000000000000598491850000000000000000000000000902180319000598491800000000000059849185150519000000000500023704428  000000000014300000000000000000000000000000000000000000000000000000000000000000000000000000000000000000000000000000000                          0000000000                                                                  000213
102122445950001000000009034510032549PREGTIT30533544349119     000000000000598494440000000000000000000000000902180319000598494400000000000059849444150519000000003780023704422  000000000014300000000000000000000000000000000000000000000000000000000000000000000000000000000000000000000000000000000                          0000000000                                                                  000214
102122445950001000000009034510032549PREGTIT30538589103180     000000000000598495090000000000000000000000000902180319000598495000000000000059849509150519000000001000023704422  000000000014300000000000000000000000000000000000000000000000000000000000000000000000000000000000000000000000000000000                          0000000000                                                                  000215
102122445950001000000009034510032549PREGTIT30535548825156     000000000000598496140000000000000000000000000902180319000598496100000000000059849614150519000000000600023704157  000000000014300000000000000000000000000000000000000000000000000000000000000000000000000000000000000000000000000000000                          0000000000                                                                  000216
102122445950001000000009034510032549PREGTIT30535521024109     000000000000598497620000000000000000000000000902180319000598497600000000000059849762150519000000002000023704151  000000000014300000000000000000000000000000000000000000000000000000000000000000000000000000000000000000000000000000000                          0000000000                                                                  000217
102122445950001000000009034510032549PREGTIT30536758763823     000000000000598500940000000000000000000000000902180319000598500900000000000059850094150519000000002618423704144  000000000014300000000000000000000000000000000000000000000000000000000000000000000000000000000000000000000000000000000                          0000000000                                                                  000218
102122445950001000000009034510032549PREGTIT30535336500021     000000000000598501320000000000000000000000000902180319000598501300000000000059850132150519000000003295723704152  000000000014300000000000000000000000000000000000000000000000000000000000000000000000000000000000000000000000000000000                          0000000000                                                                  000219
102122445950001000000009034510032549PREGTIT30533347554662     000000000000598501670000000000000000000000000902180319000598501600000000000059850167150519000000004000023704274  000000000014300000000000000000000000000000000000000000000000000000000000000000000000000000000000000000000000000000000                          0000000000                                                                  000220
102122445950001000000009034510032549PREGTIT30533396741830     000000000000598502720000000000000000000000000902180319000598502700000000000059850272170519000000001750023703109  000000000014300000000000000000000000000000000000000000000000000000000000000000000000000000000000000000000000000000000                          0000000000                                                                  000221
102122445950001000000009034510032549PREGTIT30531275157559     000000000000598503020000000000000000000000000902180319000598503000000000000059850302150519000000001385523703451  000000000014300000000000000000000000000000000000000000000000000000000000000000000000000000000000000000000000000000000                          0000000000                                                                  000222
102122445950001000000009034510032549PREGTIT30533700720866     000000000000598505660000000000000000000000000902180319000598505600000000000059850566150519000000001150023704151  000000000014300000000000000000000000000000000000000000000000000000000000000000000000000000000000000000000000000000000                          0000000000                                                                  000223
102122445950001000000009034510032549PREGTIT30531683396423     0000000000005985099P000000000000000000000000090218031900059850990000000000005985099P160519000000001200023704151  000000000014300000000000000000000000000000000000000000000000000000000000000000000000000000000000000000000000000000000                          0000000000                                                                  000224
102122445950001000000009034510032549PREGTIT30539582068564     000000000000598510310000000000000000000000000902180319000598510300000000000059851031160519000000002750023703451  000000000014300000000000000000000000000000000000000000000000000000000000000000000000000000000000000000000000000000000                          0000000000                                                                  000225
102122445950001000000009034510032549PREGTIT30538643440020     000000000000598513840000000000000000000000000902180319000598513800000000000059851384160519000000000499723704157  000000000014300000000000000000000000000000000000000000000000000000000000000000000000000000000000000000000000000000000                          0000000000                                                                  000226
102122445950001000000009034510032549PREGTIT30537260341151     000000000000598514140000000000000000000000000902180319000598514100000000000059851414160519000000000400023704151  000000000014300000000000000000000000000000000000000000000000000000000000000000000000000000000000000000000000000000000                          7600000000                                                                  000227
102122445950001000000009034510032549PREGTIT30537668272703     000000000000598516000000000000000000000000000902180319000598516000000000000059851600160519000000003774723704151  000000000014300000000000000000000000000000000000000000000000000000000000000000000000000000000000000000000000000000000                          0000000000                                                                  000228
102122445950001000000009034510032549PREGTIT30532808588730     0000000000005985166P000000000000000000000000090218031900059851660000000000005985166P160519000000000389523704157  000000000014300000000000000000000000000000000000000000000000000000000000000000000000000000000000000000000000000000000                          0000000000                                                                  000229
102122445950001000000009034510032549PREGTIT30533181891089     000000000000598529330000000000000000000000000902180319000598529300000000000059852933150519000000002470023704144  000000000014300000000000000000000000000000000000000000000000000000000000000000000000000000000000000000000000000000000                          0000000000                                                                  000230
102122445950001000000009034510032549PREGTIT30535885161442     0000000000005985426P000000000000000000000000090218031900059854260000000000005985426P150519000000000983123704157  000000000014300000000000000000000000000000000000000000000000000000000000000000000000000000000000000000000000000000000                          0000000000                                                                  000231
102122445950001000000009034510032549PREGTIT30538508382770     000000000000598551770000000000000000000000000902180319000598551700000000000059855177150519000000002958623704144  000000000014300000000000000000000000000000000000000000000000000000000000000000000000000000000000000000000000000000000                          7600000000                                                                  000232
102122445950001000000009034510032549PREGTIT30535822675865     000000000000598564160000000000000000000000000902180319000598564100000000000059856416150519000000005522623704157  000000000014300000000000000000000000000000000000000000000000000000000000000000000000000000000000000000000000000000000                          7600000000                                                                  000233
102122445950001000000009034510032549PREGTIT30535813367168     000000000000598584190000000000000000000000000902180319000598584100000000000059858419150519000000002400023703451  000000000014300000000000000000000000000000000000000000000000000000000000000000000000000000000000000000000000000000000                          7600000000                                                                  000234
102122445950001000000009034510032549PREGTIT30535521398749     000000000000598607900000000000000000000000000902180319000598607900000000000059860790160519000000001460023704144  000000000014300000000000000000000000000000000000000000000000000000000000000000000000000000000000000000000000000000000                          0000000000                                                                  000235
102122445950001000000009034510032549PREGTIT30539145918451     000000000000598628740000000000000000000000000902180319000598628700000000000059862874150519000000002250023704151  000000000014300000000000000000000000000000000000000000000000000000000000000000000000000000000000000000000000000000000                          0000000000                                                                  000236
102122445950001000000009034510032549PREGTIT30531495789703     000000000000598647450000000000000000000000000902180319000598647400000000000059864745150519000000004100023703451  000000000014300000000000000000000000000000000000000000000000000000000000000000000000000000000000000000000000000000000                          0000000000                                                                  000237
102122445950001000000009034510032549PREGTIT30533067878066     000000000000598649230000000000000000000000000902180319000598649200000000000059864923150519000000001000023703109  000000000014300000000000000000000000000000000000000000000000000000000000000000000000000000000000000000000000000000000                          0000000000                                                                  000238
102122445950001000000009034510032549PREGTIT30538358220756     000000000000598659970000000000000000000000000902180319000598659900000000000059865997150519000000004500023704143  000000000014300000000000000000000000000000000000000000000000000000000000000000000000000000000000000000000000000000000                          0000000000                                                                  000239
102122445950001000000009034510032549PREGTIT30533364612489     000000000000598663730000000000000000000000000902180319000598663700000000000059866373150519000000002810023704157  000000000014300000000000000000000000000000000000000000000000000000000000000000000000000000000000000000000000000000000                          7600000000                                                                  000240
102122445950001000000009034510032549PREGTIT30537197432774     000000000000598688720000000000000000000000000902180319000598688700000000000059868872150519000000004200023703451  000000000014300000000000000000000000000000000000000000000000000000000000000000000000000000000000000000000000000000000                          0000000000                                                                  000241
102122445950001000000009034510032549PREGTIT30531253505237     000000000000598699410000000000000000000000000902180319000598699400000000000059869941150519000000003100023703451  000000000014300000000000000000000000000000000000000000000000000000000000000000000000000000000000000000000000000000000                          0000000000                                                                  000242
102122445950001000000009034510032549PREGTIT30531375553810     000000000000598701250000000000000000000000000902180319000598701200000000000059870125150519000000002100023703451  000000000014300000000000000000000000000000000000000000000000000000000000000000000000000000000000000000000000000000000                          0000000000                                                                  000243
102122445950001000000009034510032549PREGTIT30532368227508     0000000000005987046P000000000000000000000000090218031900059870460000000000005987046P150519000000005000023704151  000000000014300000000000000000000000000000000000000000000000000000000000000000000000000000000000000000000000000000000                          7600000000                                                                  000244
102122445950001000000009034510032549PREGTIT30534459958995     000000000000598708340000000000000000000000000902180319000598708300000000000059870834150519000000002492523704151  000000000014300000000000000000000000000000000000000000000000000000000000000000000000000000000000000000000000000000000                          0000000000                                                                  000245
102122445950001000000009034510032549PREGTIT30533010605316     000000000000598709900000000000000000000000000902180319000598709900000000000059870990150519000000000453023704157  000000000014300000000000000000000000000000000000000000000000000000000000000000000000000000000000000000000000000000000                          0000000000                                                                  000246
102122445950001000000009034510032549PREGTIT30536183297253     000000000000598716280000000000000000000000000902180319000598716200000000000059871628150519000000000405423704157  000000000014300000000000000000000000000000000000000000000000000000000000000000000000000000000000000000000000000000000                          0000000000                                                                  000247
102122445950001000000009034510032549PREGTIT30531188030106     000000000000598716790000000000000000000000000902180319000598716700000000000059871679150519000000000392523704157  000000000014300000000000000000000000000000000000000000000000000000000000000000000000000000000000000000000000000000000                          0000000000                                                                  000248
