02RETORNO01COBRANCA       00000000000004852239ISPCN ADM DE COBRANCA DE TITUL237BRADESCO       0603190160000000597                                                                                                                                                                                                                                                                          070319         000001
102122445950001000000009034510032549PREGTIT29357430082733     000000000000575100320000000000000000000000000902060319000575100300000000000057510032010519000000004300023704428  000000000014300000000000000000000000000000000000000000000000000000000000000000000000000000000000000000000000000000000                          0000000000                                                                  000002
102122445950001000000009034510032549PREGTIT29352770755406     000000000000582160730000000000000000000000000902060319000582160700000000000058216073010519000000005500023704144  000000000014300000000000000000000000000000000000000000000000000000000000000000000000000000000000000000000000000000000                          0000000000                                                                  000003
102122445950001000000009034510032549PREGTIT29351889254790     000000000000582171690000000000000000000000000902060319000582171600000000000058217169010519000000004000023700073  000000000014300000000000000000000000000000000000000000000000000000000000000000000000000000000000000000000000000000000                          7600000000                                                                  000004
102122445950001000000009034510032549PREGTIT29356147934703     000000000000584012020000000000000000000000000902060319000584012000000000000058401202010519000000002800023704151  000000000014300000000000000000000000000000000000000000000000000000000000000000000000000000000000000000000000000000000                          0000000000                                                                  000005
102122445950001000000009034510032549PREGTIT29592486303241     000000000000584651380000000000000000000000000902060319000584651300000000000058465138050519000000025270523704151  000000000014300000000000000000000000000000000000000000000000000000000000000000000000000000000000000000000000000000000                          0000000000                                                                  000006
102122445950001000000009034510032549PREGTIT29596701172693     000000000000586928780000000000000000000000000902060319000586928700000000000058692878050519000000001500023704151  000000000014300000000000000000000000000000000000000000000000000000000000000000000000000000000000000000000000000000000                          0000000000                                                                  000007
102122445950001000000009034510032549PREGTIT29592232602611     000000000000589018090000000000000000000000000902060319000589018000000000000058901809050519000000006392823704151  000000000014300000000000000000000000000000000000000000000000000000000000000000000000000000000000000000000000000000000                          0000000000                                                                  000008
102122445950001000000009034510032549PREGTIT29594512083182     000000000000590092330000000000000000000000000902060319000590092300000000000059009233050519000000001000023700140  000000000014300000000000000000000000000000000000000000000000000000000000000000000000000000000000000000000000000000000                          0000000000                                                                  000009
102122445950001000000009034510032549PREGTIT29594475459700     000000000000591796000000000000000000000000000902060319000591796000000000000059179600050519000000001000023703451  000000000014300000000000000000000000000000000000000000000000000000000000000000000000000000000000000000000000000000000                          0000000000                                                                  000010
102122445950001000000009034510032549PREGTIT29355664551506     000000000000591812300000000000000000000000000902060319000591812300000000000059181230030519000000002100023704144  000000000014300000000000000000000000000000000000000000000000000000000000000000000000000000000000000000000000000000000                          0000000000                                                                  000011
102122445950001000000009034510032549PREGTIT29356526473350     000000000000591934170000000000000000000000000902060319000591934100000000000059193417020519000000001470023704151  000000000014300000000000000000000000000000000000000000000000000000000000000000000000000000000000000000000000000000000                          0000000000                                                                  000012
102122445950001000000009034510032549PREGTIT29594614937831     000000000000591990590000000000000000000000000902060319000591990500000000000059199059050519000000004000023704151  000000000014300000000000000000000000000000000000000000000000000000000000000000000000000000000000000000000000000000000                          0000000000                                                                  000013
102122445950001000000009034510032549PREGTIT29358054666568     000000000000591991800000000000000000000000000902060319000591991800000000000059199180020519000000002400023704152  000000000014300000000000000000000000000000000000000000000000000000000000000000000000000000000000000000000000000000000                          0000000000                                                                  000014
102122445950001000000009034510032549PREGTIT29356476862517     000000000000592014280000000000000000000000000902060319000592014200000000000059201428010519000000000800023704157  000000000014300000000000000000000000000000000000000000000000000000000000000000000000000000000000000000000000000000000                          0000000000                                                                  000015
102122445950001000000009034510032549PREGTIT29595034673271     0000000000005920589P000000000000000000000000090206031900059205890000000000005920589P050519000000001100023703451  000000000014300000000000000000000000000000000000000000000000000000000000000000000000000000000000000000000000000000000                          7600000000                                                                  000016
102122445950001000000009034510032549PREGTIT29597851084445     000000000000592624000000000000000000000000000902060319000592624000000000000059262400050519000000000850023703451  000000000014300000000000000000000000000000000000000000000000000000000000000000000000000000000000000000000000000000000                          0000000000                                                                  000017
102122445950001000000009034510032549PREGTIT29595693359254     000000000000592830250000000000000000000000000902060319000592830200000000000059283025050519000000002173223703451  000000000014300000000000000000000000000000000000000000000000000000000000000000000000000000000000000000000000000000000                          0000000000                                                                  000018
102122445950001000000009034510032549PREGTIT29598916571926     000000000000592848970000000000000000000000000902060319000592848900000000000059284897050519000000001000023703451  000000000014300000000000000000000000000000000000000000000000000000000000000000000000000000000000000000000000000000000                          0000000000                                                                  000019
102122445950001000000009034510032549PREGTIT29355869398129     000000000000592894140000000000000000000000000902060319000592894100000000000059289414010519000000001550023703451  000000000014300000000000000000000000000000000000000000000000000000000000000000000000000000000000000000000000000000000                          0000000000                                                                  000020
102122445950001000000009034510032549PREGTIT29594366773507     0000000000005928952P000000000000000000000000090206031900059289520000000000005928952P050519000000001500023703451  000000000014300000000000000000000000000000000000000000000000000000000000000000000000000000000000000000000000000000000                          0000000000                                                                  000021
102122445950001000000009034510032549PREGTIT29595998390143     000000000000592904470000000000000000000000000902060319000592904400000000000059290447050519000000001000023703451  000000000014300000000000000000000000000000000000000000000000000000000000000000000000000000000000000000000000000000000                          7600000000                                                                  000022
102122445950001000000009034510032549PREGTIT29593339031909     000000000000593001750000000000000000000000000902060319000593001700000000000059300175050519000000000800023704157  000000000014300000000000000000000000000000000000000000000000000000000000000000000000000000000000000000000000000000000                          0000000000                                                                  000023
102122445950001000000009034510032549PREGTIT29351202200891     000000000000593010740000000000000000000000000902060319000593010700000000000059301074010519000000000837523703451  000000000014300000000000000000000000000000000000000000000000000000000000000000000000000000000000000000000000000000000                          0000000000                                                                  000024
102122445950001000000009034510032549PREGTIT29354314826896     000000000000593015700000000000000000000000000902060319000593015700000000000059301570010519000000000650023703451  000000000014300000000000000000000000000000000000000000000000000000000000000000000000000000000000000000000000000000000                          0000000000                                                                  000025
102122445950001000000009034510032549PREGTIT29354200155590     000000000000593026740000000000000000000000000902060319000593026700000000000059302674020519000000002520023704151  000000000014300000000000000000000000000000000000000000000000000000000000000000000000000000000000000000000000000000000                          0000000000                                                                  000026
102122445950001000000009034510032549PREGTIT29593816788589     000000000000593029330000000000000000000000000902060319000593029300000000000059302933050519000000001100023703451  000000000014300000000000000000000000000000000000000000000000000000000000000000000000000000000000000000000000000000000                          0000000000                                                                  000027
102122445950001000000009034510032549PREGTIT29358007487042     0000000000005930622P000000000000000000000000090206031900059306220000000000005930622P030519000000000700023703451  000000000014300000000000000000000000000000000000000000000000000000000000000000000000000000000000000000000000000000000                          0000000000                                                                  000028
102122445950001000000009034510032549PREGTIT29358760457473     000000000000593066290000000000000000000000000902060319000593066200000000000059306629030519000000000800023703451  000000000014300000000000000000000000000000000000000000000000000000000000000000000000000000000000000000000000000000000                          0000000000                                                                  000029
102122445950001000000009034510032549PREGTIT29485502576587     000000000000593067500000000000000000000000000902060319000593067500000000000059306750040519000000010950423703451  000000000014300000000000000000000000000000000000000000000000000000000000000000000000000000000000000000000000000000000                          0000000000                                                                  000030
102122445950001000000009034510032549PREGTIT29488192650212     000000000000593069470000000000000000000000000902060319000593069400000000000059306947040519000000006530023704157  000000000014300000000000000000000000000000000000000000000000000000000000000000000000000000000000000000000000000000000                          0000000000                                                                  000031
102122445950001000000009034510032549PREGTIT29594606987713     000000000000593071610000000000000000000000000902060319000593071600000000000059307161050519000000001500023704151  000000000014300000000000000000000000000000000000000000000000000000000000000000000000000000000000000000000000000000000                          7600000000                                                                  000032
102122445950001000000009034510032549PREGTIT29356398806220     000000000000593078110000000000000000000000000902060319000593078100000000000059307811010519000000000900023703451  000000000014300000000000000000000000000000000000000000000000000000000000000000000000000000000000000000000000000000000                          0000000000                                                                  000033
102122445950001000000009034510032549PREGTIT29594324830269     000000000000593100650000000000000000000000000902060319000593100600000000000059310065050519000000001250023703451  000000000014300000000000000000000000000000000000000000000000000000000000000000000000000000000000000000000000000000000                          0000000000                                                                  000034
102122445950001000000009034510032549PREGTIT29596711769166     000000000000593124590000000000000000000000000902060319000593124500000000000059312459050519000000001062523703451  000000000014300000000000000000000000000000000000000000000000000000000000000000000000000000000000000000000000000000000                          0000000000                                                                  000035
102122445950001000000009034510032549PREGTIT29597836640866     0000000000005931253P000000000000000000000000090206031900059312530000000000005931253P050519000000000950023703451  000000000014300000000000000000000000000000000000000000000000000000000000000000000000000000000000000000000000000000000                          0000000000                                                                  000036
102122445950001000000009034510032549PREGTIT29594972593030     000000000000593126370000000000000000000000000902060319000593126300000000000059312637050519000000000820023703451  000000000014300000000000000000000000000000000000000000000000000000000000000000000000000000000000000000000000000000000                          0000000000                                                                  000037
102122445950001000000009034510032549PREGTIT29595035797903     000000000000593135360000000000000000000000000902060319000593135300000000000059313536050519000000000950023703451  000000000014300000000000000000000000000000000000000000000000000000000000000000000000000000000000000000000000000000000                          0000000000                                                                  000038
102122445950001000000009034510032549PREGTIT29359060208085     000000000000593157760000000000000000000000000902060319000593157700000000000059315776020519000000002160023704151  000000000014300000000000000000000000000000000000000000000000000000000000000000000000000000000000000000000000000000000                          0000000000                                                                  000039
102122445950001000000009034510032549PREGTIT29355940263966     000000000000593179730000000000000000000000000902060319000593179700000000000059317973010519000000001000023703451  000000000014300000000000000000000000000000000000000000000000000000000000000000000000000000000000000000000000000000000                          0000000000                                                                  000040
102122445950001000000009034510032549PREGTIT29592815124475     000000000000593738300000000000000000000000000902060319000593738300000000000059373830050519000000000900023703451  000000000014300000000000000000000000000000000000000000000000000000000000000000000000000000000000000000000000000000000                          0000000000                                                                  000041
102122445950001000000009034510032549PREGTIT29598659595238     000000000000593974030000000000000000000000000902060319000593974000000000000059397403050519000000004580023700073  000000000014300000000000000000000000000000000000000000000000000000000000000000000000000000000000000000000000000000000                          0000000000                                                                  000042
102122445950001000000009034510032549PREGTIT29591538361108     000000000000593987010000000000000000000000000902060319000593987000000000000059398701050519000000002300023704151  000000000014300000000000000000000000000000000000000000000000000000000000000000000000000000000000000000000000000000000                          7600000000                                                                  000043
102122445950001000000009034510032549PREGTIT29353122474679     0000000000005940194P000000000000000000000000090206031900059401940000000000005940194P030519000000001400023700140  000000000014300000000000000000000000000000000000000000000000000000000000000000000000000000000000000000000000000000000                          0000000000                                                                  000044
102122445950001000000009034510032549PREGTIT29481858551543     000000000000594031360000000000000000000000000902060319000594031300000000000059403136040519000000003700023704151  000000000014300000000000000000000000000000000000000000000000000000000000000000000000000000000000000000000000000000000                          0000000000                                                                  000045
102122445950001000000009034510032549PREGTIT29596874812526     000000000000594066070000000000000000000000000902060319000594066000000000000059406607050519000000000975023704152  000000000014300000000000000000000000000000000000000000000000000000000000000000000000000000000000000000000000000000000                          0000000000                                                                  000046
102122445950001000000009034510032549PREGTIT29594111378552     0000000000005941281P000000000000000000000000090206031900059412810000000000005941281P050519000000001100023703451  000000000014300000000000000000000000000000000000000000000000000000000000000000000000000000000000000000000000000000000                          0000000000                                                                  000047
102122445950001000000009034510032549PREGTIT29596149891900     000000000000594654330000000000000000000000000902060319000594654300000000000059465433050519000000000500023703451  000000000014300000000000000000000000000000000000000000000000000000000000000000000000000000000000000000000000000000000                          0000000000                                                                  000048
102122445950001000000009034510032549PREGTIT29595780965665     000000000000594723670000000000000000000000000902060319000594723600000000000059472367050519000000001100023704144  000000000014300000000000000000000000000000000000000000000000000000000000000000000000000000000000000000000000000000000                          0000000000                                                                  000049
102122445950001000000009034510032549PREGTIT29353823179283     000000000000594729600000000000000000000000000902060319000594729600000000000059472960030519000000001000023703451  000000000014300000000000000000000000000000000000000000000000000000000000000000000000000000000000000000000000000000000                          7600000000                                                                  000050
102122445950001000000009034510032549PREGTIT29354865845822     000000000000594767100000000000000000000000000902060319000594767100000000000059476710030519000000001800023704151  000000000014300000000000000000000000000000000000000000000000000000000000000000000000000000000000000000000000000000000                          0000000000                                                                  000051
102122445950001000000009034510032549PREGTIT29597830276712     000000000000594831800000000000000000000000000902060319000594831800000000000059483180050519000000007833323704152  000000000014300000000000000000000000000000000000000000000000000000000000000000000000000000000000000000000000000000000                          0000000000                                                                  000052
102122445950001000000009034510032549PREGTIT29352864553145     000000000000594936070000000000000000000000000902060319000594936000000000000059493607010519000000003500023704144  000000000014300000000000000000000000000000000000000000000000000000000000000000000000000000000000000000000000000000000                          0000000000                                                                  000053
102122445950001000000009034510032549PREGTIT29351196051049     000000000000594940690000000000000000000000000902060319000594940600000000000059494069010519000000001062523703451  000000000014300000000000000000000000000000000000000000000000000000000000000000000000000000000000000000000000000000000                          0000000000                                                                  000054
102122445950001000000009034510032549PREGTIT29596468155847     000000000000594946970000000000000000000000000902060319000594946900000000000059494697050519000000000733423703451  000000000014300000000000000000000000000000000000000000000000000000000000000000000000000000000000000000000000000000000                          0000000000                                                                  000055
102122445950001000000009034510032549PREGTIT29351873130425     000000000000594994430000000000000000000000000902060319000594994400000000000059499443010519000000002666723704157  000000000014300000000000000000000000000000000000000000000000000000000000000000000000000000000000000000000000000000000                          7600000000                                                                  000056
102122445950001000000009034510032549PREGTIT29356245664788     000000000000595002040000000000000000000000000902060319000595002000000000000059500204010519000000001083523703451  000000000014300000000000000000000000000000000000000000000000000000000000000000000000000000000000000000000000000000000                          0000000000                                                                  000057
102122445950001000000009034510032549PREGTIT29357245700582     000000000000595006110000000000000000000000000902060319000595006100000000000059500611010519000000000833523703451  000000000014300000000000000000000000000000000000000000000000000000000000000000000000000000000000000000000000000000000                          0000000000                                                                  000058
102122445950001000000009034510032549PREGTIT29359243585637     000000000000595020610000000000000000000000000902060319000595020600000000000059502061010519000000001166723703451  000000000014300000000000000000000000000000000000000000000000000000000000000000000000000000000000000000000000000000000                          0000000000                                                                  000059
102122445950001000000009034510032549PREGTIT29354685089149     000000000000595024010000000000000000000000000902060319000595024000000000000059502401010519000000000714323703451  000000000014300000000000000000000000000000000000000000000000000000000000000000000000000000000000000000000000000000000                          0000000000                                                                  000060
102122445950001000000009034510032549PREGTIT29352668260878     000000000000595024790000000000000000000000000902060319000595024700000000000059502479010519000000001437523703451  000000000014300000000000000000000000000000000000000000000000000000000000000000000000000000000000000000000000000000000                          0000000000                                                                  000061
102122445950001000000009034510032549PREGTIT29596423941072     000000000000595042420000000000000000000000000902060319000595042400000000000059504242050519000000001583523703451  000000000014300000000000000000000000000000000000000000000000000000000000000000000000000000000000000000000000000000000                          0000000000                                                                  000062
102122445950001000000009034510032549PREGTIT29598486862339     000000000000595054000000000000000000000000000902060319000595054000000000000059505400050519000000000833523703451  000000000014300000000000000000000000000000000000000000000000000000000000000000000000000000000000000000000000000000000                          7600000000                                                                  000063
102122445950001000000009034510032549PREGTIT29357716786074     000000000000595054940000000000000000000000000902060319000595054900000000000059505494030519000000000583523703451  000000000014300000000000000000000000000000000000000000000000000000000000000000000000000000000000000000000000000000000                          0000000000                                                                  000064
102122445950001000000009034510032549PREGTIT29355292432821     000000000000595063180000000000000000000000000902060319000595063100000000000059506318030519000000001071523703451  000000000014300000000000000000000000000000000000000000000000000000000000000000000000000000000000000000000000000000000                          0000000000                                                                  000065
102122445950001000000009034510032549PREGTIT29594782530984     000000000000595067840000000000000000000000000902060319000595067800000000000059506784050519000000001000023703451  000000000014300000000000000000000000000000000000000000000000000000000000000000000000000000000000000000000000000000000                          0000000000                                                                  000066
102122445950001000000009034510032549PREGTIT29597034072507     000000000000595071950000000000000000000000000902060319000595071900000000000059507195050519000000001166723703451  000000000014300000000000000000000000000000000000000000000000000000000000000000000000000000000000000000000000000000000                          0000000000                                                                  000067
102122445950001000000009034510032549PREGTIT29592245217325     000000000000595073730000000000000000000000000902060319000595073700000000000059507373050519000000001166723703451  000000000014300000000000000000000000000000000000000000000000000000000000000000000000000000000000000000000000000000000                          0000000000                                                                  000068
102122445950001000000009034510032549PREGTIT29356492530918     000000000000595074380000000000000000000000000902060319000595074300000000000059507438030519000000000716723703451  000000000014300000000000000000000000000000000000000000000000000000000000000000000000000000000000000000000000000000000                          0000000000                                                                  000069
102122445950001000000009034510032549PREGTIT29355153263720     0000000000005951258P000000000000000000000000090206031900059512580000000000005951258P010519000000001000023703451  000000000014300000000000000000000000000000000000000000000000000000000000000000000000000000000000000000000000000000000                          0000000000                                                                  000070
102122445950001000000009034510032549PREGTIT29591942511556     000000000000595658880000000000000000000000000902060319000595658800000000000059565888050519000000001000023703451  000000000014300000000000000000000000000000000000000000000000000000000000000000000000000000000000000000000000000000000                          0000000000                                                                  000071
102122445950001000000009034510032549PREGTIT29352823986220     000000000000595676780000000000000000000000000902060319000595676700000000000059567678030519000000001416723703451  000000000014300000000000000000000000000000000000000000000000000000000000000000000000000000000000000000000000000000000                          0000000000                                                                  000072
102122445950001000000009034510032549PREGTIT29484295718976     0000000000005956864P000000000000000000000000090206031900059568640000000000005956864P040519000000001000023703451  000000000014300000000000000000000000000000000000000000000000000000000000000000000000000000000000000000000000000000000                          0000000000                                                                  000073
102122445950001000000009034510032549PREGTIT29598193673288     000000000000595717990000000000000000000000000902060319000595717900000000000059571799050519000000000950023703451  000000000014300000000000000000000000000000000000000000000000000000000000000000000000000000000000000000000000000000000                          0000000000                                                                  000074
102122445950001000000009034510032549PREGTIT29357333400924     000000000000595739530000000000000000000000000902060319000595739500000000000059573953010519000000001000023703451  000000000014300000000000000000000000000000000000000000000000000000000000000000000000000000000000000000000000000000000                          0000000000                                                                  000075
102122445950001000000009034510032549PREGTIT29357333028175     000000000000595750690000000000000000000000000902060319000595750600000000000059575069010519000000001480023704147  000000000014300000000000000000000000000000000000000000000000000000000000000000000000000000000000000000000000000000000                          0000000000                                                                  000076
102122445950001000000009034510032549PREGTIT29351734345758     000000000000595763240000000000000000000000000902060319000595763200000000000059576324020519000000001083523703451  000000000014300000000000000000000000000000000000000000000000000000000000000000000000000000000000000000000000000000000                          0000000000                                                                  000077
102122445950001000000009034510032549PREGTIT29599955501378     000000000000595772820000000000000000000000000902060319000595772800000000000059577282050519000000002111323703451  000000000014300000000000000000000000000000000000000000000000000000000000000000000000000000000000000000000000000000000                          0000000000                                                                  000078
102122445950001000000009034510032549PREGTIT29351951130827     000000000000595788820000000000000000000000000902060319000595788800000000000059578882020519000000001312523703451  000000000014300000000000000000000000000000000000000000000000000000000000000000000000000000000000000000000000000000000                          0000000000                                                                  000079
102122445950001000000009034510032549PREGTIT29598265411315     000000000000595831340000000000000000000000000902060319000595831300000000000059583134050519000000001140023704144  000000000014300000000000000000000000000000000000000000000000000000000000000000000000000000000000000000000000000000000                          7600000000                                                                  000080
102122445950001000000009034510032549PREGTIT29352139726748     000000000000595848740000000000000000000000000902060319000595848700000000000059584874010519000000004714323704144  000000000014300000000000000000000000000000000000000000000000000000000000000000000000000000000000000000000000000000000                          0000000000                                                                  000081
102122445950001000000009034510032549PREGTIT29594167961999     000000000000595853820000000000000000000000000902060319000595853800000000000059585382050519000000001000023703451  000000000014300000000000000000000000000000000000000000000000000000000000000000000000000000000000000000000000000000000                          0000000000                                                                  000082
102122445950001000000009034510032549PREGTIT29591941872015     000000000000595857730000000000000000000000000902060319000595857700000000000059585773050519000000001000023700408  000000000014300000000000000000000000000000000000000000000000000000000000000000000000000000000000000000000000000000000                          0000000000                                                                  000083
102122445950001000000009034510032549PREGTIT29356561076512     000000000000595894340000000000000000000000000902060319000595894300000000000059589434030519000000003870623700140  000000000014300000000000000000000000000000000000000000000000000000000000000000000000000000000000000000000000000000000                          0000000000                                                                  000084
102122445950001000000009034510032549PREGTIT29591197175739     000000000000595915010000000000000000000000000902060319000595915000000000000059591501050519000000001333323704147  000000000014300000000000000000000000000000000000000000000000000000000000000000000000000000000000000000000000000000000                          0000000000                                                                  000085
102122445950001000000009034510032549PREGTIT29359356062031     000000000000595943490000000000000000000000000902060319000595943400000000000059594349030519000000001000023703451  000000000014300000000000000000000000000000000000000000000000000000000000000000000000000000000000000000000000000000000                          0000000000                                                                  000086
102122445950001000000009034510032549PREGTIT29593736857403     000000000000595944540000000000000000000000000902060319000595944500000000000059594454050519000000001500023703451  000000000014300000000000000000000000000000000000000000000000000000000000000000000000000000000000000000000000000000000                          0000000000                                                                  000087
102122445950001000000009034510032549PREGTIT29599099578807     000000000000595983280000000000000000000000000902060319000595983200000000000059598328050519000000006000023704151  000000000014300000000000000000000000000000000000000000000000000000000000000000000000000000000000000000000000000000000                          7600000000                                                                  000088
102122445950001000000009034510032549PREGTIT29356044255929     000000000000595991970000000000000000000000000902060319000595991900000000000059599197030519000000000597923704157  000000000014300000000000000000000000000000000000000000000000000000000000000000000000000000000000000000000000000000000                          0000000000                                                                  000089
102122445950001000000009034510032549PREGTIT29598246911188     000000000000595994990000000000000000000000000902060319000595994900000000000059599499050519000000002000023703109  000000000014300000000000000000000000000000000000000000000000000000000000000000000000000000000000000000000000000000000                          0000000000                                                                  000090
102122445950001000000009034510032549PREGTIT29593742682499     000000000000595999010000000000000000000000000902060319000595999000000000000059599901050519000000001000023703109  000000000014300000000000000000000000000000000000000000000000000000000000000000000000000000000000000000000000000000000                          0000000000                                                                  000091
102122445950001000000009034510032549PREGTIT29355859085991     000000000000596034290000000000000000000000000902060319000596034200000000000059603429020519000000000600023704144  000000000014300000000000000000000000000000000000000000000000000000000000000000000000000000000000000000000000000000000                          0000000000                                                                  000092
102122445950001000000009034510032549PREGTIT29355395330939     000000000000596035420000000000000000000000000902060319000596035400000000000059603542020519000000000800023704144  000000000014300000000000000000000000000000000000000000000000000000000000000000000000000000000000000000000000000000000                          0000000000                                                                  000093
102122445950001000000009034510032549PREGTIT29356732245989     000000000000596036580000000000000000000000000902060319000596036500000000000059603658020519000000000800023704144  000000000014300000000000000000000000000000000000000000000000000000000000000000000000000000000000000000000000000000000                          0000000000                                                                  000094
102122445950001000000009034510032549PREGTIT29351934845468     000000000000596038010000000000000000000000000902060319000596038000000000000059603801020519000000000600023704144  000000000014300000000000000000000000000000000000000000000000000000000000000000000000000000000000000000000000000000000                          0000000000                                                                  000095
102122445950001000000009034510032549PREGTIT29352315058049     000000000000596039090000000000000000000000000902060319000596039000000000000059603909020519000000000600023704144  000000000014300000000000000000000000000000000000000000000000000000000000000000000000000000000000000000000000000000000                          0000000000                                                                  000096
102122445950001000000009034510032549PREGTIT29594743072262     000000000000596053750000000000000000000000000902060319000596053700000000000059605375050519000000002510023704144  000000000014300000000000000000000000000000000000000000000000000000000000000000000000000000000000000000000000000000000                          7600000000                                                                  000097
102122445950001000000009034510032549PREGTIT29355136591655     000000000000596059010000000000000000000000000902060319000596059000000000000059605901020519000000000400023704144  000000000014300000000000000000000000000000000000000000000000000000000000000000000000000000000000000000000000000000000                          0000000000                                                                  000098
102122445950001000000009034510032549PREGTIT29593920115712     000000000000596061500000000000000000000000000902060319000596061500000000000059606150050519000000000435223704157  000000000014300000000000000000000000000000000000000000000000000000000000000000000000000000000000000000000000000000000                          0000000000                                                                  000099
102122445950001000000009034510032549PREGTIT29593083870746     000000000000596581420000000000000000000000000902060319000596581400000000000059658142050519000000002760023703109  000000000014300000000000000000000000000000000000000000000000000000000000000000000000000000000000000000000000000000000                          0000000000                                                                  000100
102122445950001000000009034510032549PREGTIT29595099489167     000000000000596585250000000000000000000000000902060319000596585200000000000059658525050519000000001000023703109  000000000014300000000000000000000000000000000000000000000000000000000000000000000000000000000000000000000000000000000                          0000000000                                                                  000101
102122445950001000000009034510032549PREGTIT29593464478651     000000000000596586140000000000000000000000000902060319000596586100000000000059658614050519000000001200023703109  000000000014300000000000000000000000000000000000000000000000000000000000000000000000000000000000000000000000000000000                          0000000000                                                                  000102
102122445950001000000009034510032549PREGTIT29597076723558     0000000000005966469P000000000000000000000000090206031900059664690000000000005966469P050519000000001456723704144  000000000014300000000000000000000000000000000000000000000000000000000000000000000000000000000000000000000000000000000                          0000000000                                                                  000103
102122445950001000000009034510032549PREGTIT29595752550524     000000000000596673110000000000000000000000000902060319000596673100000000000059667311050519000000001760023703109  000000000014300000000000000000000000000000000000000000000000000000000000000000000000000000000000000000000000000000000                          0000000000                                                                  000104
102122445950001000000009034510032549PREGTIT29355970382077     000000000000596682610000000000000000000000000902060319000596682600000000000059668261010519000000012200023703451  000000000014300000000000000000000000000000000000000000000000000000000000000000000000000000000000000000000000000000000                          0000000000                                                                  000105
102122445950001000000009034510032549PREGTIT29599207718459     000000000000596710920000000000000000000000000902060319000596710900000000000059671092050519000000003300023704144  000000000014300000000000000000000000000000000000000000000000000000000000000000000000000000000000000000000000000000000                          0000000000                                                                  000106
102122445950001000000009034510032549PREGTIT29595659773527     000000000000596797940000000000000000000000000902060319000596797900000000000059679794050519000000002800023704151  000000000014300000000000000000000000000000000000000000000000000000000000000000000000000000000000000000000000000000000                          0000000000                                                                  000107
102122445950001000000009034510032549PREGTIT29591750837883     000000000000596873040000000000000000000000000902060319000596873000000000000059687304050519000000003000023703109  000000000014300000000000000000000000000000000000000000000000000000000000000000000000000000000000000000000000000000000                          0000000000                                                                  000108
102122445950001000000009034510032549PREGTIT29356256835518     000000000000596887340000000000000000000000000902060319000596887300000000000059688734010519000000001500023703109  000000000014300000000000000000000000000000000000000000000000000000000000000000000000000000000000000000000000000000000                          0000000000                                                                  000109
102122445950001000000009034510032549PREGTIT29594045801928     000000000000596909090000000000000000000000000902060319000596909000000000000059690909050519000000001950023704151  000000000014300000000000000000000000000000000000000000000000000000000000000000000000000000000000000000000000000000000                          0000000000                                                                  000110
102122445950001000000009034510032549PREGTIT29485539492190     000000000000596912980000000000000000000000000902060319000596912900000000000059691298040519000000000323823704157  000000000014300000000000000000000000000000000000000000000000000000000000000000000000000000000000000000000000000000000                          7600000000                                                                  000111
102122445950001000000009034510032549PREGTIT29591724839371     000000000000596918160000000000000000000000000902060319000596918100000000000059691816050519000000004300023704428  000000000014300000000000000000000000000000000000000000000000000000000000000000000000000000000000000000000000000000000                          0000000000                                                                  000112
102122445950001000000009034510032549PREGTIT29358206099946     0000000000005969209P000000000000000000000000090206031900059692090000000000005969209P020519000000001250023704422  000000000014300000000000000000000000000000000000000000000000000000000000000000000000000000000000000000000000000000000                          0000000000                                                                  000113
102122445950001000000009034510032549PREGTIT29354325185413     000000000000596924800000000000000000000000000902060319000596924800000000000059692480020519000000005000023704144  000000000014300000000000000000000000000000000000000000000000000000000000000000000000000000000000000000000000000000000                          0000000000                                                                  000114
102122445950001000000009034510032549PREGTIT29353193766342     000000000000596928120000000000000000000000000902060319000596928100000000000059692812020519000000001000023704422  000000000014300000000000000000000000000000000000000000000000000000000000000000000000000000000000000000000000000000000                          0000000000                                                                  000115
102122445950001000000009034510032549PREGTIT29354993972666     000000000000596933200000000000000000000000000902060319000596933200000000000059693320030519000000002400023704152  000000000014300000000000000000000000000000000000000000000000000000000000000000000000000000000000000000000000000000000                          0000000000                                                                  000116
102122445950001000000009034510032549PREGTIT29485937588479     000000000000596934600000000000000000000000000902060319000596934600000000000059693460040519000000001000023704144  000000000014300000000000000000000000000000000000000000000000000000000000000000000000000000000000000000000000000000000                          0000000000                                                                  000117
102122445950001000000009034510032549PREGTIT29482318044482     000000000000596936300000000000000000000000000902060319000596936300000000000059693630040519000000001200023704422  000000000014300000000000000000000000000000000000000000000000000000000000000000000000000000000000000000000000000000000                          0000000000                                                                  000118
102122445950001000000009034510032549PREGTIT29485965880341     000000000000596936810000000000000000000000000902060319000596936800000000000059693681040519000000001400023704422  000000000014300000000000000000000000000000000000000000000000000000000000000000000000000000000000000000000000000000000                          0000000000                                                                  000119
102122445950001000000009034510032549PREGTIT29356103792447     000000000000596938860000000000000000000000000902060319000596938800000000000059693886010519000000006000023704147  000000000014300000000000000000000000000000000000000000000000000000000000000000000000000000000000000000000000000000000                          0000000000                                                                  000120
102122445950001000000009034510032549PREGTIT29485398891282     000000000000596943190000000000000000000000000902060319000596943100000000000059694319040519000000001200023704422  000000000014300000000000000000000000000000000000000000000000000000000000000000000000000000000000000000000000000000000                          0000000000                                                                  000121
102122445950001000000009034510032549PREGTIT29357614105890     000000000000596944750000000000000000000000000902060319000596944700000000000059694475030519000000001100023704144  000000000014300000000000000000000000000000000000000000000000000000000000000000000000000000000000000000000000000000000                          0000000000                                                                  000122
102122445950001000000009034510032549PREGTIT29598544992767     000000000000596947340000000000000000000000000902060319000596947300000000000059694734050519000000000730023700140  000000000014300000000000000000000000000000000000000000000000000000000000000000000000000000000000000000000000000000000                          0000000000                                                                  000123
102122445950001000000009034510032549PREGTIT29482458742260     000000000000596948820000000000000000000000000902060319000596948800000000000059694882040519000000001000023704151  000000000014300000000000000000000000000000000000000000000000000000000000000000000000000000000000000000000000000000000                          0000000000                                                                  000124
102122445950001000000009034510032549PREGTIT29596323695911     000000000000597026800000000000000000000000000902060319000597026800000000000059702680050519000000001200023703109  000000000014300000000000000000000000000000000000000000000000000000000000000000000000000000000000000000000000000000000                          0000000000                                                                  000125
102122445950001000000009034510032549PREGTIT29595403143577     000000000000597528150000000000000000000000000902060319000597528100000000000059752815050519000000001050023703109  000000000014300000000000000000000000000000000000000000000000000000000000000000000000000000000000000000000000000000000                          0000000000                                                                  000126
102122445950001000000009034510032549PREGTIT29596957569863     000000000000597544780000000000000000000000000902060319000597544700000000000059754478050519000000003480023704151  000000000014300000000000000000000000000000000000000000000000000000000000000000000000000000000000000000000000000000000                          0000000000                                                                  000127
102122445950001000000009034510032549PREGTIT29599842631978     000000000000597552880000000000000000000000000902060319000597552800000000000059755288050519000000002460023704152  000000000014300000000000000000000000000000000000000000000000000000000000000000000000000000000000000000000000000000000                          0000000000                                                                  000128
102122445950001000000009034510032549PREGTIT29595693437771     000000000000597571670000000000000000000000000902060319000597571600000000000059757167050519000000001450023703109  000000000014300000000000000000000000000000000000000000000000000000000000000000000000000000000000000000000000000000000                          0000000000                                                                  000129
102122445950001000000009034510032549PREGTIT29597338138346     000000000000597572210000000000000000000000000902060319000597572200000000000059757221050519000000002800023704144  000000000014300000000000000000000000000000000000000000000000000000000000000000000000000000000000000000000000000000000                          0000000000                                                                  000130
102122445950001000000009034510032549PREGTIT29593583609825     000000000000597573020000000000000000000000000902060319000597573000000000000059757302050519000000001235023704157  000000000014300000000000000000000000000000000000000000000000000000000000000000000000000000000000000000000000000000000                          0000000000                                                                  000131
102122445950001000000009034510032549PREGTIT29599554249391     000000000000597573450000000000000000000000000902060319000597573400000000000059757345050519000000002780023704144  000000000014300000000000000000000000000000000000000000000000000000000000000000000000000000000000000000000000000000000                          0000000000                                                                  000132
102122445950001000000009034510032549PREGTIT29591546199826     000000000000597594290000000000000000000000000902060319000597594200000000000059759429050519000000001700023703109  000000000014300000000000000000000000000000000000000000000000000000000000000000000000000000000000000000000000000000000                          0000000000                                                                  000133
102122445950001000000009034510032549PREGTIT29598478748641     000000000000597598600000000000000000000000000902060319000597598600000000000059759860050519000000002866723703109  000000000014300000000000000000000000000000000000000000000000000000000000000000000000000000000000000000000000000000000                          0000000000                                                                  000134
102122445950001000000009034510032549PREGTIT29592726808488     000000000000597644570000000000000000000000000902060319000597644500000000000059764457050519000000001100023704144  000000000014300000000000000000000000000000000000000000000000000000000000000000000000000000000000000000000000000000000                          0000000000                                                                  000135
102122445950001000000009034510032549PREGTIT29358907978315     000000000000597645540000000000000000000000000902060319000597645500000000000059764554030519000000001100023704144  000000000014300000000000000000000000000000000000000000000000000000000000000000000000000000000000000000000000000000000                          0000000000                                                                  000136
102122445950001000000009034510032549PREGTIT29359363012827     000000000000597647240000000000000000000000000902060319000597647200000000000059764724020519000000002000023703451  000000000014300000000000000000000000000000000000000000000000000000000000000000000000000000000000000000000000000000000                          0000000000                                                                  000137
102122445950001000000009034510032549PREGTIT29354636844433     000000000000597649290000000000000000000000000902060319000597649200000000000059764929010519000000002700023703451  000000000014300000000000000000000000000000000000000000000000000000000000000000000000000000000000000000000000000000000                          0000000000                                                                  000138
102122445950001000000009034510032549PREGTIT29594320401110     000000000000597662390000000000000000000000000902060319000597662300000000000059766239050519000000004320023704157  000000000014300000000000000000000000000000000000000000000000000000000000000000000000000000000000000000000000000000000                          0000000000                                                                  000139
102122445950001000000009034510032549PREGTIT29594757455984     000000000000597709530000000000000000000000000902060319000597709500000000000059770953050519000000002470023704144  000000000014300000000000000000000000000000000000000000000000000000000000000000000000000000000000000000000000000000000                          0000000000                                                                  000140
102122445950001000000009034510032549PREGTIT29598010719695     000000000000597709960000000000000000000000000902060319000597709900000000000059770996050519000000001808023704144  000000000014300000000000000000000000000000000000000000000000000000000000000000000000000000000000000000000000000000000                          0000000000                                                                  000141
102122445950001000000009034510032549PREGTIT29354833018005     000000000000597716310000000000000000000000000902060319000597716300000000000059771631010519000000000550023704144  000000000014300000000000000000000000000000000000000000000000000000000000000000000000000000000000000000000000000000000                          0000000000                                                                  000142
102122445950001000000009034510032549PREGTIT29355628522038     000000000000597717630000000000000000000000000902060319000597717600000000000059771763010519000000000600023704144  000000000014300000000000000000000000000000000000000000000000000000000000000000000000000000000000000000000000000000000                          0000000000                                                                  000143
102122445950001000000009034510032549PREGTIT29355730052172     000000000000597719920000000000000000000000000902060319000597719900000000000059771992010519000000000360023704144  000000000014300000000000000000000000000000000000000000000000000000000000000000000000000000000000000000000000000000000                          0000000000                                                                  000144
102122445950001000000009034510032549PREGTIT29357352078722     000000000000597720930000000000000000000000000902060319000597720900000000000059772093020519000000000550023704144  000000000014300000000000000000000000000000000000000000000000000000000000000000000000000000000000000000000000000000000                          0000000000                                                                  000145
102122445950001000000009034510032549PREGTIT29358578662652     000000000000597723360000000000000000000000000902060319000597723300000000000059772336020519000000000300023704144  000000000014300000000000000000000000000000000000000000000000000000000000000000000000000000000000000000000000000000000                          0000000000                                                                  000146
102122445950001000000009034510032549PREGTIT29598686916832     000000000000597733080000000000000000000000000902060319000597733000000000000059773308050519000000000600023704144  000000000014300000000000000000000000000000000000000000000000000000000000000000000000000000000000000000000000000000000                          0000000000                                                                  000147
102122445950001000000009034510032549PREGTIT29354322838613     000000000000597740960000000000000000000000000902060319000597740900000000000059774096030519000000002902523704151  000000000014300000000000000000000000000000000000000000000000000000000000000000000000000000000000000000000000000000000                          7600000000                                                                  000148
102122445950001000000009034510032549PREGTIT29592298021916     000000000000597764710000000000000000000000000902060319000597764700000000000059776471050519000000002071423704144  000000000014300000000000000000000000000000000000000000000000000000000000000000000000000000000000000000000000000000000                          0000000000                                                                  000149
102122445950001000000009034510032549PREGTIT29597554377089     000000000000597767730000000000000000000000000902060319000597767700000000000059776773050519000000000988723704157  000000000014300000000000000000000000000000000000000000000000000000000000000000000000000000000000000000000000000000000                          0000000000                                                                  000150
102122445950001000000009034510032549PREGTIT29352975034167     000000000000597770440000000000000000000000000902060319000597770400000000000059777044010519000000000625023704422  000000000014300000000000000000000000000000000000000000000000000000000000000000000000000000000000000000000000000000000                          0000000000                                                                  000151
102122445950001000000009034510032549PREGTIT29351221342310     000000000000597770870000000000000000000000000902060319000597770800000000000059777087010519000000001000023704422  000000000014300000000000000000000000000000000000000000000000000000000000000000000000000000000000000000000000000000000                          0000000000                                                                  000152
102122445950001000000009034510032549PREGTIT29359298852640     000000000000597771410000000000000000000000000902060319000597771400000000000059777141010519000000001000023704422  000000000014300000000000000000000000000000000000000000000000000000000000000000000000000000000000000000000000000000000                          0000000000                                                                  000153
102122445950001000000009034510032549PREGTIT29355490380653     000000000000597771840000000000000000000000000902060319000597771800000000000059777184010519000000001000023704422  000000000014300000000000000000000000000000000000000000000000000000000000000000000000000000000000000000000000000000000                          0000000000                                                                  000154
102122445950001000000009034510032549PREGTIT29355166415981     000000000000597772220000000000000000000000000902060319000597772200000000000059777222010519000000001250023704422  000000000014300000000000000000000000000000000000000000000000000000000000000000000000000000000000000000000000000000000                          0000000000                                                                  000155
102122445950001000000009034510032549PREGTIT29358100641262     0000000000005977732P000000000000000000000000090206031900059777320000000000005977732P010519000000000830023700140  000000000014300000000000000000000000000000000000000000000000000000000000000000000000000000000000000000000000000000000                          0000000000                                                                  000156
102122445950001000000009034510032549PREGTIT29352869247003     000000000000597785040000000000000000000000000902060319000597785000000000000059778504010519000000002000023704274  000000000014300000000000000000000000000000000000000000000000000000000000000000000000000000000000000000000000000000000                          0000000000                                                                  000157
102122445950001000000009034510032549PREGTIT29596317463223     000000000000597796240000000000000000000000000902060319000597796200000000000059779624050519000000000529723704157  000000000014300000000000000000000000000000000000000000000000000000000000000000000000000000000000000000000000000000000                          0000000000                                                                  000158
102122445950001000000009034510032549PREGTIT29353117388391     000000000000597797560000000000000000000000000902060319000597797500000000000059779756020519000000000600023704422  000000000014300000000000000000000000000000000000000000000000000000000000000000000000000000000000000000000000000000000                          0000000000                                                                  000159
102122445950001000000009034510032549PREGTIT29355449629148     000000000000597803040000000000000000000000000902060319000597803000000000000059780304030519000000000744023704158  000000000014300000000000000000000000000000000000000000000000000000000000000000000000000000000000000000000000000000000                          0000000000                                                                  000160
102122445950001000000009034510032549PREGTIT29352651999091     000000000000597807700000000000000000000000000902060319000597807700000000000059780770030519000000000950023703451  000000000014300000000000000000000000000000000000000000000000000000000000000000000000000000000000000000000000000000000                          0000000000                                                                  000161
102122445950001000000009034510032549PREGTIT29356789416207     000000000000597808190000000000000000000000000902060319000597808100000000000059780819020519000000001960023703109  000000000014300000000000000000000000000000000000000000000000000000000000000000000000000000000000000000000000000000000                          0000000000                                                                  000162
102122445950001000000009034510032549PREGTIT29355882065006     000000000000597809670000000000000000000000000902060319000597809600000000000059780967030519000000005718023704144  000000000014300000000000000000000000000000000000000000000000000000000000000000000000000000000000000000000000000000000                          0000000000                                                                  000163
102122445950001000000009034510032549PREGTIT29355242859774     000000000000597811730000000000000000000000000902060319000597811700000000000059781173010519000000002370023704151  000000000014300000000000000000000000000000000000000000000000000000000000000000000000000000000000000000000000000000000                          0000000000                                                                  000164
102122445950001000000009034510032549PREGTIT29488997009193     000000000000597814750000000000000000000000000902060319000597814700000000000059781475040519000000001350023703109  000000000014300000000000000000000000000000000000000000000000000000000000000000000000000000000000000000000000000000000                          0000000000                                                                  000165
102122445950001000000009034510032549PREGTIT29598533945638     000000000000597815130000000000000000000000000902060319000597815100000000000059781513050519000000001148323704144  000000000014300000000000000000000000000000000000000000000000000000000000000000000000000000000000000000000000000000000                          0000000000                                                                  000166
102122445950001000000009034510032549PREGTIT29353190516171     000000000000597819710000000000000000000000000902060319000597819700000000000059781971010519000000001250023704422  000000000014300000000000000000000000000000000000000000000000000000000000000000000000000000000000000000000000000000000                          0000000000                                                                  000167
102122445950001000000009034510032549PREGTIT29354378781980     000000000000597827810000000000000000000000000902060319000597827800000000000059782781020519000000001125023703451  000000000014300000000000000000000000000000000000000000000000000000000000000000000000000000000000000000000000000000000                          0000000000                                                                  000168
102122445950001000000009034510032549PREGTIT29355507542971     0000000000005978282P000000000000000000000000090206031900059782820000000000005978282P020519000000000900023704151  000000000014300000000000000000000000000000000000000000000000000000000000000000000000000000000000000000000000000000000                          0000000000                                                                  000169
102122445950001000000009034510032549PREGTIT29591772965494     000000000000597833970000000000000000000000000902060319000597833900000000000059783397050519000000000518723704157  000000000014300000000000000000000000000000000000000000000000000000000000000000000000000000000000000000000000000000000                          0000000000                                                                  000170
102122445950001000000009034510032549PREGTIT29592047941726     000000000000597837530000000000000000000000000902060319000597837500000000000059783753050519000000000728523703451  000000000014300000000000000000000000000000000000000000000000000000000000000000000000000000000000000000000000000000000                          0000000000                                                                  000171
102122445950001000000009034510032549PREGTIT29596165368825     000000000000597839310000000000000000000000000902060319000597839300000000000059783931050519000000001672323703451  000000000014300000000000000000000000000000000000000000000000000000000000000000000000000000000000000000000000000000000                          0000000000                                                                  000172
102122445950001000000009034510032549PREGTIT29481341193268     000000000000597840320000000000000000000000000902060319000597840300000000000059784032040519000000001450023704422  000000000014300000000000000000000000000000000000000000000000000000000000000000000000000000000000000000000000000000000                          0000000000                                                                  000173
102122445950001000000009034510032549PREGTIT29484707653315     000000000000597851520000000000000000000000000902060319000597851500000000000059785152040519000000000275723704157  000000000014300000000000000000000000000000000000000000000000000000000000000000000000000000000000000000000000000000000                          7600000000                                                                  000174
102122445950001000000009034510032549PREGTIT29592745207241     000000000000597853140000000000000000000000000902060319000597853100000000000059785314050519000000001480023703451  000000000014300000000000000000000000000000000000000000000000000000000000000000000000000000000000000000000000000000000                          0000000000                                                                  000175
102122445950001000000009034510032549PREGTIT29593134806321     0000000000005978556P000000000000000000000000090206031900059785560000000000005978556P050519000000001049523703451  000000000014300000000000000000000000000000000000000000000000000000000000000000000000000000000000000000000000000000000                          0000000000                                                                  000176
102122445950001000000009034510032549PREGTIT29595030802227     000000000000597855940000000000000000000000000902060319000597855900000000000059785594050519000000001100023704422  000000000014300000000000000000000000000000000000000000000000000000000000000000000000000000000000000000000000000000000                          7600000000                                                                  000177
102122445950001000000009034510032549PREGTIT29599491486855     000000000000597859260000000000000000000000000902060319000597859200000000000059785926050519000000000590023704151  000000000014300000000000000000000000000000000000000000000000000000000000000000000000000000000000000000000000000000000                          0000000000                                                                  000178
102122445950001000000009034510032549PREGTIT29358933502990     000000000000598413970000000000000000000000000902060319000598413900000000000059841397030519000000000636323704157  000000000014300000000000000000000000000000000000000000000000000000000000000000000000000000000000000000000000000000000                          0000000000                                                                  000179
102122445950001000000009034510032549PREGTIT29598978252092     000000000000598417100000000000000000000000000902060319000598417100000000000059841710050519000000001066723704144  000000000014300000000000000000000000000000000000000000000000000000000000000000000000000000000000000000000000000000000                          0000000000                                                                  000180
102122445950001000000009034510032549PREGTIT29591361446455     000000000000598417450000000000000000000000000902060319000598417400000000000059841745050519000000001970023704144  000000000014300000000000000000000000000000000000000000000000000000000000000000000000000000000000000000000000000000000                          0000000000                                                                  000181
102122445950001000000009034510032549PREGTIT29592848334995     000000000000598424310000000000000000000000000902060319000598424300000000000059842431050519000000001833323703109  000000000014300000000000000000000000000000000000000000000000000000000000000000000000000000000000000000000000000000000                          0000000000                                                                  000182
102122445950001000000009034510032549PREGTIT29594427771381     000000000000598474680000000000000000000000000902060319000598474600000000000059847468050519000000001100023704144  000000000014300000000000000000000000000000000000000000000000000000000000000000000000000000000000000000000000000000000                          0000000000                                                                  000183
102122445950001000000009034510032549PREGTIT29596290173244     000000000000598474920000000000000000000000000902060319000598474900000000000059847492050519000000003383423704144  000000000014300000000000000000000000000000000000000000000000000000000000000000000000000000000000000000000000000000000                          0000000000                                                                  000184
102122445950001000000009034510032549PREGTIT29596165446833     000000000000598475220000000000000000000000000902060319000598475200000000000059847522050519000000001320023704144  000000000014300000000000000000000000000000000000000000000000000000000000000000000000000000000000000000000000000000000                          0000000000                                                                  000185
102122445950001000000009034510032549PREGTIT29359888176466     000000000000598495680000000000000000000000000902060319000598495600000000000059849568020519000000001650023700140  000000000014300000000000000000000000000000000000000000000000000000000000000000000000000000000000000000000000000000000                          0000000000                                                                  000186
102122445950001000000009034510032549PREGTIT29598225249457     000000000000598500190000000000000000000000000902060319000598500100000000000059850019050519000000001600023703109  000000000014300000000000000000000000000000000000000000000000000000000000000000000000000000000000000000000000000000000                          0000000000                                                                  000187
102122445950001000000009034510032549PREGTIT29595362014563     000000000000598512010000000000000000000000000902060319000598512000000000000059851201050519000000017800023704157  000000000014300000000000000000000000000000000000000000000000000000000000000000000000000000000000000000000000000000000                          7600000000                                                                  000188
102122445950001000000009034510032549PREGTIT29594053339933     000000000000598512520000000000000000000000000902060319000598512500000000000059851252050519000000017800023704157  000000000014300000000000000000000000000000000000000000000000000000000000000000000000000000000000000000000000000000000                          7600000000                                                                  000189
102122445950001000000009034510032549PREGTIT29595783416827     000000000000598529840000000000000000000000000902060319000598529800000000000059852984050519000000001226723704144  000000000014300000000000000000000000000000000000000000000000000000000000000000000000000000000000000000000000000000000                          0000000000                                                                  000190
102122445950001000000009034510032549PREGTIT29359439928879     000000000000598530500000000000000000000000000902060319000598530500000000000059853050020519000000000860023704144  000000000014300000000000000000000000000000000000000000000000000000000000000000000000000000000000000000000000000000000                          0000000000                                                                  000191
102122445950001000000009034510032549PREGTIT29592167798636     000000000000598531150000000000000000000000000902060319000598531100000000000059853115050519000000000430023704144  000000000014300000000000000000000000000000000000000000000000000000000000000000000000000000000000000000000000000000000                          0000000000                                                                  000192
102122445950001000000009034510032549PREGTIT29593022180220     000000000000598572770000000000000000000000000902060319000598572700000000000059857277050519000000001200023703451  000000000014300000000000000000000000000000000000000000000000000000000000000000000000000000000000000000000000000000000                          0000000000                                                                  000193
102122445950001000000009034510032549PREGTIT29598563017120     000000000000598594230000000000000000000000000902060319000598594200000000000059859423050519000000002400023703109  000000000014300000000000000000000000000000000000000000000000000000000000000000000000000000000000000000000000000000000                          0000000000                                                                  000194
102122445950001000000009034510032549PREGTIT29593528561712     000000000000598595040000000000000000000000000902060319000598595000000000000059859504050519000000002000023704152  000000000014300000000000000000000000000000000000000000000000000000000000000000000000000000000000000000000000000000000                          0000000000                                                                  000195
102122445950001000000009034510032549PREGTIT29352262225399     000000000000598602780000000000000000000000000902060319000598602700000000000059860278020519000000002100023704151  000000000014300000000000000000000000000000000000000000000000000000000000000000000000000000000000000000000000000000000                          0000000000                                                                  000196
102122445950001000000009034510032549PREGTIT29594835344764     000000000000598629390000000000000000000000000902060319000598629300000000000059862939050519000000000485723704157  000000000014300000000000000000000000000000000000000000000000000000000000000000000000000000000000000000000000000000000                          0000000000                                                                  000197
102122445950001000000009034510032549PREGTIT29592285771104     000000000000598629630000000000000000000000000902060319000598629600000000000059862963050519000000000522323704157  000000000014300000000000000000000000000000000000000000000000000000000000000000000000000000000000000000000000000000000                          0000000000                                                                  000198
102122445950001000000009034510032549PREGTIT29357017093996     000000000000598646560000000000000000000000000902060319000598646500000000000059864656020419000000001166723703109  000000000014300000000000000000000000000000000000000000000000000000000000000000000000000000000000000000000000000000000                          0000000000                                                                  000199
102122445950001000000009034510032549PREGTIT29357017093996     000000000000598646640000000000000000000000000902060319000598646600000000000059864664020519000000001166723703109  000000000014300000000000000000000000000000000000000000000000000000000000000000000000000000000000000000000000000000000                          0000000000                                                                  000200
102122445950001000000009034510032549PREGTIT29351495789703     000000000000598647370000000000000000000000000902060319000598647300000000000059864737150419000000004100023703451  000000000014300000000000000000000000000000000000000000000000000000000000000000000000000000000000000000000000000000000                          0000000000                                                                  000201
102122445950001000000009034510032549PREGTIT29353446290968     000000000000598648260000000000000000000000000902060319000598648200000000000059864826020419000000001340023703451  000000000014300000000000000000000000000000000000000000000000000000000000000000000000000000000000000000000000000000000                          0000000000                                                                  000202
102122445950001000000009034510032549PREGTIT29353446290968     000000000000598648340000000000000000000000000902060319000598648300000000000059864834020519000000001340023703451  000000000014300000000000000000000000000000000000000000000000000000000000000000000000000000000000000000000000000000000                          0000000000                                                                  000203
102122445950001000000009034510032549PREGTIT29358169963392     000000000000598648420000000000000000000000000902060319000598648400000000000059864842020419000000001560023704158  000000000014300000000000000000000000000000000000000000000000000000000000000000000000000000000000000000000000000000000                          0000000000                                                                  000204
102122445950001000000009034510032549PREGTIT29351952277024     000000000000598648500000000000000000000000000902060319000598648500000000000059864850070419000000000529023704157  000000000014300000000000000000000000000000000000000000000000000000000000000000000000000000000000000000000000000000000                          0000000000                                                                  000205
102122445950001000000009034510032549PREGTIT29358315096038     000000000000598648850000000000000000000000000902060319000598648800000000000059864885100419000000000573523704157  000000000014300000000000000000000000000000000000000000000000000000000000000000000000000000000000000000000000000000000                          0000000000                                                                  000206
102122445950001000000009034510032549PREGTIT29357548653971     000000000000598649070000000000000000000000000902060319000598649000000000000059864907180319000000001145023704157  000000000014300000000000000000000000000000000000000000000000000000000000000000000000000000000000000000000000000000000                          0000000000                                                                  000207
102122445950001000000009034510032549PREGTIT29353067878066     000000000000598649150000000000000000000000000902060319000598649100000000000059864915150419000000001000023703109  000000000014300000000000000000000000000000000000000000000000000000000000000000000000000000000000000000000000000000000                          0000000000                                                                  000208
102122445950001000000009034510032549PREGTIT29352093250242     000000000000598649740000000000000000000000000902060319000598649700000000000059864974100419000000002762023704152  000000000014300000000000000000000000000000000000000000000000000000000000000000000000000000000000000000000000000000000                          7600000000                                                                  000209
102122445950001000000009034510032549PREGTIT29352149646282     000000000000598650080000000000000000000000000902060319000598650000000000000059865008100419000000002500023704152  000000000014300000000000000000000000000000000000000000000000000000000000000000000000000000000000000000000000000000000                          0000000000                                                                  000210
102122445950001000000009034510032549PREGTIT29352881648134     000000000000598650400000000000000000000000000902060319000598650400000000000059865040020419000000001064123704151  000000000014300000000000000000000000000000000000000000000000000000000000000000000000000000000000000000000000000000000                          0000000000                                                                  000211
102122445950001000000009034510032549PREGTIT29352536348820     000000000000598650670000000000000000000000000902060319000598650600000000000059865067020419000000000747523704151  000000000014300000000000000000000000000000000000000000000000000000000000000000000000000000000000000000000000000000000                          0000000000                                                                  000212
102122445950001000000009034510032549PREGTIT29358436421333     000000000000598650830000000000000000000000000902060319000598650800000000000059865083100419000000000668323704157  000000000014300000000000000000000000000000000000000000000000000000000000000000000000000000000000000000000000000000000                          0000000000                                                                  000213
102122445950001000000009034510032549PREGTIT29352150973168     000000000000598651480000000000000000000000000902060319000598651400000000000059865148230419000000001000023704151  000000000014300000000000000000000000000000000000000000000000000000000000000000000000000000000000000000000000000000000                          7600000000                                                                  000214
102122445950001000000009034510032549PREGTIT29352617993156     000000000000598652370000000000000000000000000902060319000598652300000000000059865237070319000000040000023704151  000000000014300000000000000000000000000000000000000000000000000000000000000000000000000000000000000000000000000000000                          0000000000                                                                  000215
102122445950001000000009034510032549PREGTIT29354800635758     000000000000598652450000000000000000000000000902060319000598652400000000000059865245080319000000018039123704151  000000000014300000000000000000000000000000000000000000000000000000000000000000000000000000000000000000000000000000000                          0000000000                                                                  000216
102122445950001000000009034510032549PREGTIT29354500052937     000000000000598652530000000000000000000000000902060319000598652500000000000059865253100419000000000480723704157  000000000014300000000000000000000000000000000000000000000000000000000000000000000000000000000000000000000000000000000                          0000000000                                                                  000217
102122445950001000000009034510032549PREGTIT29358890916481     000000000000598652880000000000000000000000000902060319000598652800000000000059865288110319000000001200023703451  000000000014300000000000000000000000000000000000000000000000000000000000000000000000000000000000000000000000000000000                          0000000000                                                                  000218
102122445950001000000009034510032549PREGTIT29353346569687     000000000000598652960000000000000000000000000902060319000598652900000000000059865296150319000000002450023703451  000000000014300000000000000000000000000000000000000000000000000000000000000000000000000000000000000000000000000000000                          0000000000                                                                  000219
102122445950001000000009034510032549PREGTIT29353432193245     0000000000005986530P000000000000000000000000090206031900059865300000000000005986530P200219000000001000023704152  000000000014300000000000000000000000000000000000000000000000000000000000000000000000000000000000000000000000000000000                          0000000000                                                                  000220
102122445950001000000009034510032549PREGTIT29353432193245     000000000000598653180000000000000000000000000902060319000598653100000000000059865318200319000000001000023704152  000000000014300000000000000000000000000000000000000000000000000000000000000000000000000000000000000000000000000000000                          0000000000                                                                  000221
102122445950001000000009034510032549PREGTIT29363157560771     000000000000598653260000000000000000000000000902060319000598653200000000000059865326040419000000000500023704422  000000000014300000000000000000000000000000000000000000000000000000000000000000000000000000000000000000000000000000000                          0000000000                                                                  000222
102122445950001000000009034510032549PREGTIT29364586435428     000000000000598653340000000000000000000000000902060319000598653300000000000059865334040419000000000500023704422  000000000014300000000000000000000000000000000000000000000000000000000000000000000000000000000000000000000000000000000                          0000000000                                                                  000223
102122445950001000000009034510032549PREGTIT29362728480986     000000000000598653420000000000000000000000000902060319000598653400000000000059865342100419000000002100023704152  000000000014300000000000000000000000000000000000000000000000000000000000000000000000000000000000000000000000000000000                          0000000000                                                                  000224
102122445950001000000009034510032549PREGTIT29367513561795     000000000000598653690000000000000000000000000902060319000598653600000000000059865369040419000000002500023704422  000000000014300000000000000000000000000000000000000000000000000000000000000000000000000000000000000000000000000000000                          0000000000                                                                  000225
102122445950001000000009034510032549PREGTIT29363797840604     000000000000598653770000000000000000000000000902060319000598653700000000000059865377040419000000001000023704157  000000000014300000000000000000000000000000000000000000000000000000000000000000000000000000000000000000000000000000000                          0000000000                                                                  000226
102122445950001000000009034510032549PREGTIT29483797840604     000000000000598653850000000000000000000000000902060319000598653800000000000059865385040519000000001000023704157  000000000014300000000000000000000000000000000000000000000000000000000000000000000000000000000000000000000000000000000                          0000000000                                                                  000227
102122445950001000000009034510032549PREGTIT29372255999594     000000000000598653930000000000000000000000000902060319000598653900000000000059865393310319000000002934223703451  000000000014300000000000000000000000000000000000000000000000000000000000000000000000000000000000000000000000000000000                          0000000000                                                                  000228
102122445950001000000009034510032549PREGTIT29376176651405     000000000000598654070000000000000000000000000902060319000598654000000000000059865407040419000000000249023704157  000000000014300000000000000000000000000000000000000000000000000000000000000000000000000000000000000000000000000000000                          0000000000                                                                  000229
102122445950001000000009034510032549PREGTIT29372320600044     000000000000598654150000000000000000000000000902060319000598654100000000000059865415100319000000002600023704151  000000000014300000000000000000000000000000000000000000000000000000000000000000000000000000000000000000000000000000000                          0000000000                                                                  000230
102122445950001000000009034510032549PREGTIT29372320600044     000000000000598654230000000000000000000000000902060319000598654200000000000059865423100419000000002600023704151  000000000014300000000000000000000000000000000000000000000000000000000000000000000000000000000000000000000000000000000                          0000000000                                                                  000231
102122445950001000000009034510032549PREGTIT29383713441234     000000000000598655120000000000000000000000000902060319000598655100000000000059865512100419000000001350023704152  000000000014300000000000000000000000000000000000000000000000000000000000000000000000000000000000000000000000000000000                          0000000000                                                                  000232
102122445950001000000009034510032549PREGTIT29387993328277     000000000000598655200000000000000000000000000902060319000598655200000000000059865520100419000000003280023704152  000000000014300000000000000000000000000000000000000000000000000000000000000000000000000000000000000000000000000000000                          0000000000                                                                  000233
102122445950001000000009034510032549PREGTIT29487993328277     000000000000598655390000000000000000000000000902060319000598655300000000000059865539040519000000003280023704152  000000000014300000000000000000000000000000000000000000000000000000000000000000000000000000000000000000000000000000000                          0000000000                                                                  000234
102122445950001000000009034510032549PREGTIT29401266178977     000000000000598655710000000000000000000000000902060319000598655700000000000059865571030419000000012200023704151  000000000014300000000000000000000000000000000000000000000000000000000000000000000000000000000000000000000000000000000                          0000000000                                                                  000235
102122445950001000000009034510032549PREGTIT29401266178977     0000000000005986558P000000000000000000000000090206031900059865580000000000005986558P030519000000012200023704151  000000000014300000000000000000000000000000000000000000000000000000000000000000000000000000000000000000000000000000000                          0000000000                                                                  000236
102122445950001000000009034510032549PREGTIT29402407371525     000000000000598656950000000000000000000000000902060319000598656900000000000059865695300319000000005000023704151  000000000014300000000000000000000000000000000000000000000000000000000000000000000000000000000000000000000000000000000                          0000000000                                                                  000237
102122445950001000000009034510032549PREGTIT29404070672665     000000000000598657090000000000000000000000000902060319000598657000000000000059865709030419000000003333323704151  000000000014300000000000000000000000000000000000000000000000000000000000000000000000000000000000000000000000000000000                          0000000000                                                                  000238
102122445950001000000009034510032549PREGTIT29404070672665     000000000000598657170000000000000000000000000902060319000598657100000000000059865717030519000000003333323704151  000000000014300000000000000000000000000000000000000000000000000000000000000000000000000000000000000000000000000000000                          0000000000                                                                  000239
102122445950001000000009034510032549PREGTIT29402441713594     000000000000598657330000000000000000000000000902060319000598657300000000000059865733100419000000002000023704152  000000000014300000000000000000000000000000000000000000000000000000000000000000000000000000000000000000000000000000000                          0000000000                                                                  000240
102122445950001000000009034510032549PREGTIT29416388903156     0000000000005986575P000000000000000000000000090206031900059865750000000000005986575P080419000000002640023703451  000000000014300000000000000000000000000000000000000000000000000000000000000000000000000000000000000000000000000000000                          0000000000                                                                  000241
102122445950001000000009034510032549PREGTIT29443037814816     000000000000598658490000000000000000000000000902060319000598658400000000000059865849100319000000004600023704151  000000000014300000000000000000000000000000000000000000000000000000000000000000000000000000000000000000000000000000000                          0000000000                                                                  000242
102122445950001000000009034510032549PREGTIT29443037814816     000000000000598658570000000000000000000000000902060319000598658500000000000059865857100419000000004600023704151  000000000014300000000000000000000000000000000000000000000000000000000000000000000000000000000000000000000000000000000                          0000000000                                                                  000243
102122445950001000000009034510032549PREGTIT29457608728106     000000000000598659460000000000000000000000000902060319000598659400000000000059865946150319000000006655423704157  000000000014300000000000000000000000000000000000000000000000000000000000000000000000000000000000000000000000000000000                          0000000000                                                                  000244
102122445950001000000009034510032549PREGTIT29453951330520     000000000000598659540000000000000000000000000902060319000598659500000000000059865954200419000000000382523704157  000000000014300000000000000000000000000000000000000000000000000000000000000000000000000000000000000000000000000000000                          0000000000                                                                  000245
102122445950001000000009034510032549PREGTIT29488358220756     000000000000598659700000000000000000000000000902060319000598659700000000000059865970150319000000004500023704143  000000000014300000000000000000000000000000000000000000000000000000000000000000000000000000000000000000000000000000000                          0000000000                                                                  000246
102122445950001000000009034510032549PREGTIT29488358220756     000000000000598659890000000000000000000000000902060319000598659800000000000059865989150419000000004500023704143  000000000014300000000000000000000000000000000000000000000000000000000000000000000000000000000000000000000000000000000                          0000000000                                                                  000247
102122445950001000000009034510032549PREGTIT29637775057210     000000000000598660120000000000000000000000000902060319000598660100000000000059866012120419000000000781523704157  000000000014300000000000000000000000000000000000000000000000000000000000000000000000000000000000000000000000000000000                          0000000000                                                                  000248
