02RETORNO01COBRANCA       00000000000004852239ISPCN ADM DE COBRANCA DE TITUL237BRADESCO       2503190160000000610                                                                                                                                                                                                                                                                          260319         000001
102122445950001000000009034510032549PREGTIT31074745577946     000000000000589643470000000000000000000000000902250319000589643400000000000058964347220519000000004000023704151  000000000014300000000000000000000000000000000000000000000000000000000000000000000000000000000000000000000000000000000                          7600000000                                                                  000002
102122445950001000000009034510032549PREGTIT31079463984018     000000000000589771710000000000000000000000000902250319000589771700000000000058977171220519000000005000023704151  000000000014300000000000000000000000000000000000000000000000000000000000000000000000000000000000000000000000000000000                          0000000000                                                                  000003
102122445950001000000009034510032549PREGTIT31079552009784     000000000000589825580000000000000000000000000902250319000589825500000000000058982558220519000000002668023704151  000000000014300000000000000000000000000000000000000000000000000000000000000000000000000000000000000000000000000000000                          7600000000                                                                  000004
102122445950001000000009034510032549PREGTIT31075914858194     000000000000589854170000000000000000000000000902250319000589854100000000000058985417230519000000003700023704151  000000000014300000000000000000000000000000000000000000000000000000000000000000000000000000000000000000000000000000000                          0000000000                                                                  000005
102122445950001000000009034510032549PREGTIT31077485493595     000000000000589936730000000000000000000000000902250319000589936700000000000058993673230519000000004400023704151  000000000014300000000000000000000000000000000000000000000000000000000000000000000000000000000000000000000000000000000                          0000000000                                                                  000006
102122445950001000000009034510032549PREGTIT31077340062078     000000000000590924910000000000000000000000000902250319000590924900000000000059092491220519000000004000023704151  000000000014300000000000000000000000000000000000000000000000000000000000000000000000000000000000000000000000000000000                          0000000000                                                                  000007
102122445950001000000009034510032549PREGTIT31078884537609     000000000000591062630000000000000000000000000902250319000591062600000000000059106263220519000000001400023704152  000000000014300000000000000000000000000000000000000000000000000000000000000000000000000000000000000000000000000000000                          0000000000                                                                  000008
102122445950001000000009034510032549PREGTIT31076653353662     000000000000591718040000000000000000000000000902250319000591718000000000000059171804220519000000001500023703109  000000000014300000000000000000000000000000000000000000000000000000000000000000000000000000000000000000000000000000000                          0000000000                                                                  000009
102122445950001000000009034510032549PREGTIT31079377428649     000000000000591790230000000000000000000000000902250319000591790200000000000059179023220519000000002600023704151  000000000014300000000000000000000000000000000000000000000000000000000000000000000000000000000000000000000000000000000                          0000000000                                                                  000010
102122445950001000000009034510032549PREGTIT31076690459367     000000000000591800640000000000000000000000000902250319000591800600000000000059180064220519000000002000023704151  000000000014300000000000000000000000000000000000000000000000000000000000000000000000000000000000000000000000000000000                          0000000000                                                                  000011
102122445950001000000009034510032549PREGTIT31077060896476     000000000000591876890000000000000000000000000902250319000591876800000000000059187689240519000000005000023704151  000000000014300000000000000000000000000000000000000000000000000000000000000000000000000000000000000000000000000000000                          0000000000                                                                  000012
102122445950001000000009034510032549PREGTIT31079783566784     000000000000591895250000000000000000000000000902250319000591895200000000000059189525230519000000001500023703451  000000000014300000000000000000000000000000000000000000000000000000000000000000000000000000000000000000000000000000000                          0000000000                                                                  000013
102122445950001000000009034510032549PREGTIT31074285717875     000000000000592064890000000000000000000000000902250319000592064800000000000059206489220519000000002700023704151  000000000014300000000000000000000000000000000000000000000000000000000000000000000000000000000000000000000000000000000                          0000000000                                                                  000014
102122445950001000000009034510032549PREGTIT31077784673513     000000000000592659570000000000000000000000000902250319000592659500000000000059265957220519000000002400023704152  000000000014300000000000000000000000000000000000000000000000000000000000000000000000000000000000000000000000000000000                          0000000000                                                                  000015
102122445950001000000009034510032549PREGTIT31073441372608     000000000000592806460000000000000000000000000902250319000592806400000000000059280646220519000000002500023704151  000000000014300000000000000000000000000000000000000000000000000000000000000000000000000000000000000000000000000000000                          0000000000                                                                  000016
102122445950001000000009034510032549PREGTIT31075996196294     000000000000592808400000000000000000000000000902250319000592808400000000000059280840220519000000002300023704151  000000000014300000000000000000000000000000000000000000000000000000000000000000000000000000000000000000000000000000000                          0000000000                                                                  000017
102122445950001000000009034510032549PREGTIT31077975746053     000000000000592832890000000000000000000000000902250319000592832800000000000059283289220519000000000600023704151  000000000014300000000000000000000000000000000000000000000000000000000000000000000000000000000000000000000000000000000                          0000000000                                                                  000018
102122445950001000000009034510032549PREGTIT31072127874936     000000000000593858710000000000000000000000000902250319000593858700000000000059385871220519000000003900023704151  000000000014300000000000000000000000000000000000000000000000000000000000000000000000000000000000000000000000000000000                          0000000000                                                                  000019
102122445950001000000009034510032549PREGTIT31078136318383     000000000000593881880000000000000000000000000902250319000593881800000000000059388188240519000000005109223704157  000000000014300000000000000000000000000000000000000000000000000000000000000000000000000000000000000000000000000000000                          0000000000                                                                  000020
102122445950001000000009034510032549PREGTIT31076449539512     0000000000005940616P000000000000000000000000090225031900059406160000000000005940616P220519000000000950023704151  000000000014300000000000000000000000000000000000000000000000000000000000000000000000000000000000000000000000000000000                          0000000000                                                                  000021
102122445950001000000009034510032549PREGTIT31076959977075     000000000000594107950000000000000000000000000902250319000594107900000000000059410795220519000000003400023704151  000000000014300000000000000000000000000000000000000000000000000000000000000000000000000000000000000000000000000000000                          0000000000                                                                  000022
102122445950001000000009034510032549PREGTIT31071370762582     000000000000594761680000000000000000000000000902250319000594761600000000000059476168220519000000001480023704151  000000000014300000000000000000000000000000000000000000000000000000000000000000000000000000000000000000000000000000000                          0000000000                                                                  000023
102122445950001000000009034510032549PREGTIT31077201040685     000000000000594798840000000000000000000000000902250319000594798800000000000059479884220519000000002100023704151  000000000014300000000000000000000000000000000000000000000000000000000000000000000000000000000000000000000000000000000                          0000000000                                                                  000024
102122445950001000000009034510032549PREGTIT31078074710427     000000000000594834230000000000000000000000000902250319000594834200000000000059483423220519000000000833323704151  000000000014300000000000000000000000000000000000000000000000000000000000000000000000000000000000000000000000000000000                          0000000000                                                                  000025
102122445950001000000009034510032549PREGTIT31077307069458     000000000000594846750000000000000000000000000902250319000594846700000000000059484675220519000000003250023703451  000000000014300000000000000000000000000000000000000000000000000000000000000000000000000000000000000000000000000000000                          0000000000                                                                  000026
102122445950001000000009034510032549PREGTIT31074237879042     000000000000594847800000000000000000000000000902250319000594847800000000000059484780220519000000001100023704151  000000000014300000000000000000000000000000000000000000000000000000000000000000000000000000000000000000000000000000000                          0000000000                                                                  000027
102122445950001000000009034510032549PREGTIT31077569144455     000000000000594858250000000000000000000000000902250319000594858200000000000059485825220519000000001374023704151  000000000014300000000000000000000000000000000000000000000000000000000000000000000000000000000000000000000000000000000                          0000000000                                                                  000028
102122445950001000000009034510032549PREGTIT31072690729337     0000000000005948697P000000000000000000000000090225031900059486970000000000005948697P230519000000002975923704144  000000000014300000000000000000000000000000000000000000000000000000000000000000000000000000000000000000000000000000000                          0000000000                                                                  000029
102122445950001000000009034510032549PREGTIT31071482643778     000000000000594975210000000000000000000000000902250319000594975200000000000059497521240519000000003525023700140  000000000014300000000000000000000000000000000000000000000000000000000000000000000000000000000000000000000000000000000                          0000000000                                                                  000030
102122445950001000000009034510032549PREGTIT31071961771916     0000000000005950451P000000000000000000000000090225031900059504510000000000005950451P220519000000004316323704152  000000000014300000000000000000000000000000000000000000000000000000000000000000000000000000000000000000000000000000000                          0000000000                                                                  000031
102122445950001000000009034510032549PREGTIT31077316961549     000000000000595660270000000000000000000000000902250319000595660200000000000059566027220519000000001680023703451  000000000014300000000000000000000000000000000000000000000000000000000000000000000000000000000000000000000000000000000                          0000000000                                                                  000032
102122445950001000000009034510032549PREGTIT31072868508108     000000000000595805180000000000000000000000000902250319000595805100000000000059580518230519000000000900023704151  000000000014300000000000000000000000000000000000000000000000000000000000000000000000000000000000000000000000000000000                          0000000000                                                                  000033
102122445950001000000009034510032549PREGTIT31076099679126     000000000000595809170000000000000000000000000902250319000595809100000000000059580917220519000000004100023704151  000000000014300000000000000000000000000000000000000000000000000000000000000000000000000000000000000000000000000000000                          0000000000                                                                  000034
102122445950001000000009034510032549PREGTIT31071588387836     000000000000595814170000000000000000000000000902250319000595814100000000000059581417240519000000002300023704151  000000000014300000000000000000000000000000000000000000000000000000000000000000000000000000000000000000000000000000000                          0000000000                                                                  000035
102122445950001000000009034510032549PREGTIT31077066102404     000000000000595824560000000000000000000000000902250319000595824500000000000059582456220519000000001680023704151  000000000014300000000000000000000000000000000000000000000000000000000000000000000000000000000000000000000000000000000                          7600000000                                                                  000036
102122445950001000000009034510032549PREGTIT31075826903593     000000000000595832900000000000000000000000000902250319000595832900000000000059583290220519000000002720123704144  000000000014300000000000000000000000000000000000000000000000000000000000000000000000000000000000000000000000000000000                          7600000000                                                                  000037
102122445950001000000009034510032549PREGTIT31071913562756     000000000000595840680000000000000000000000000902250319000595840600000000000059584068230519000000000384123704157  000000000014300000000000000000000000000000000000000000000000000000000000000000000000000000000000000000000000000000000                          0000000000                                                                  000038
102122445950001000000009034510032549PREGTIT31079621936347     000000000000595874820000000000000000000000000902250319000595874800000000000059587482220519000000001980023704151  000000000014300000000000000000000000000000000000000000000000000000000000000000000000000000000000000000000000000000000                          7600000000                                                                  000039
102122445950001000000009034510032549PREGTIT31075432374618     000000000000595925590000000000000000000000000902250319000595925500000000000059592559220519000000002870023704151  000000000014300000000000000000000000000000000000000000000000000000000000000000000000000000000000000000000000000000000                          0000000000                                                                  000040
102122445950001000000009034510032549PREGTIT31075752563563     000000000000595975180000000000000000000000000902250319000595975100000000000059597518220519000000001100023704152  000000000014300000000000000000000000000000000000000000000000000000000000000000000000000000000000000000000000000000000                          0000000000                                                                  000041
102122445950001000000009034510032549PREGTIT31076426372047     000000000000596050570000000000000000000000000902250319000596050500000000000059605057220519000000002200023704151  000000000014300000000000000000000000000000000000000000000000000000000000000000000000000000000000000000000000000000000                          7600000000                                                                  000042
102122445950001000000009034510032549PREGTIT31076602648906     000000000000596655210000000000000000000000000902250319000596655200000000000059665521240519000000002600023703451  000000000014300000000000000000000000000000000000000000000000000000000000000000000000000000000000000000000000000000000                          0000000000                                                                  000043
102122445950001000000009034510032549PREGTIT31071444216647     000000000000596667060000000000000000000000000902250319000596667000000000000059666706230519000000003700023704151  000000000014300000000000000000000000000000000000000000000000000000000000000000000000000000000000000000000000000000000                          0000000000                                                                  000044
102122445950001000000009034510032549PREGTIT31073095084643     000000000000596690470000000000000000000000000902250319000596690400000000000059669047220519000000003500023704151  000000000014300000000000000000000000000000000000000000000000000000000000000000000000000000000000000000000000000000000                          0000000000                                                                  000045
102122445950001000000009034510032549PREGTIT31076004680866     000000000000596707380000000000000000000000000902250319000596707300000000000059670738220519000000002500023703451  000000000014300000000000000000000000000000000000000000000000000000000000000000000000000000000000000000000000000000000                          0000000000                                                                  000046
102122445950001000000009034510032549PREGTIT31079028875894     000000000000596783800000000000000000000000000902250319000596783800000000000059678380220519000000002500023704144  000000000014300000000000000000000000000000000000000000000000000000000000000000000000000000000000000000000000000000000                          7600000000                                                                  000047
102122445950001000000009034510032549PREGTIT31074902052688     0000000000005968223P000000000000000000000000090225031900059682230000000000005968223P220519000000002600023704151  000000000014300000000000000000000000000000000000000000000000000000000000000000000000000000000000000000000000000000000                          0000000000                                                                  000048
102122445950001000000009034510032549PREGTIT31078186701308     000000000000596850850000000000000000000000000902250319000596850800000000000059685085220519000000001000023704422  000000000014300000000000000000000000000000000000000000000000000000000000000000000000000000000000000000000000000000000                          0000000000                                                                  000049
102122445950001000000009034510032549PREGTIT31075581898225     000000000000596851580000000000000000000000000902250319000596851500000000000059685158220519000000001120023704422  000000000014300000000000000000000000000000000000000000000000000000000000000000000000000000000000000000000000000000000                          0000000000                                                                  000050
102122445950001000000009034510032549PREGTIT31077315108126     000000000000596853280000000000000000000000000902250319000596853200000000000059685328220519000000001200023704422  000000000014300000000000000000000000000000000000000000000000000000000000000000000000000000000000000000000000000000000                          0000000000                                                                  000051
102122445950001000000009034510032549PREGTIT31072038668853     000000000000596857430000000000000000000000000902250319000596857400000000000059685743240519000000002560023704151  000000000014300000000000000000000000000000000000000000000000000000000000000000000000000000000000000000000000000000000                          0000000000                                                                  000052
102122445950001000000009034510032549PREGTIT31076473444418     000000000000596859560000000000000000000000000902250319000596859500000000000059685956230519000000001100023704144  000000000014300000000000000000000000000000000000000000000000000000000000000000000000000000000000000000000000000000000                          0000000000                                                                  000053
102122445950001000000009034510032549PREGTIT31074525654166     000000000000596860570000000000000000000000000902250319000596860500000000000059686057230519000000000550023704144  000000000014300000000000000000000000000000000000000000000000000000000000000000000000000000000000000000000000000000000                          0000000000                                                                  000054
102122445950001000000009034510032549PREGTIT31072545296115     000000000000596861540000000000000000000000000902250319000596861500000000000059686154230519000000000550023704144  000000000014300000000000000000000000000000000000000000000000000000000000000000000000000000000000000000000000000000000                          7600000000                                                                  000055
102122445950001000000009034510032549PREGTIT31074672509419     000000000000596862510000000000000000000000000902250319000596862500000000000059686251230519000000000600023704144  000000000014300000000000000000000000000000000000000000000000000000000000000000000000000000000000000000000000000000000                          0000000000                                                                  000056
102122445950001000000009034510032549PREGTIT31071215828748     000000000000596865100000000000000000000000000902250319000596865100000000000059686510220519000000005600023703451  000000000014300000000000000000000000000000000000000000000000000000000000000000000000000000000000000000000000000000000                          0000000000                                                                  000057
102122445950001000000009034510032549PREGTIT31072082980531     000000000000596866180000000000000000000000000902250319000596866100000000000059686618230519000000001100023704144  000000000014300000000000000000000000000000000000000000000000000000000000000000000000000000000000000000000000000000000                          0000000000                                                                  000058
102122445950001000000009034510032549PREGTIT31075757933155     000000000000596867150000000000000000000000000902250319000596867100000000000059686715230519000000000950023704144  000000000014300000000000000000000000000000000000000000000000000000000000000000000000000000000000000000000000000000000                          0000000000                                                                  000059
102122445950001000000009034510032549PREGTIT31078473825359     000000000000596868120000000000000000000000000902250319000596868100000000000059686812230519000000000600023704144  000000000014300000000000000000000000000000000000000000000000000000000000000000000000000000000000000000000000000000000                          7600000000                                                                  000060
102122445950001000000009034510032549PREGTIT31071529946331     000000000000596870100000000000000000000000000902250319000596870100000000000059687010230519000000000400023704144  000000000014300000000000000000000000000000000000000000000000000000000000000000000000000000000000000000000000000000000                          0000000000                                                                  000061
102122445950001000000009034510032549PREGTIT31072539987948     000000000000596871180000000000000000000000000902250319000596871100000000000059687118230519000000001100023704144  000000000014300000000000000000000000000000000000000000000000000000000000000000000000000000000000000000000000000000000                          0000000000                                                                  000062
102122445950001000000009034510032549PREGTIT31073019166493     000000000000596873550000000000000000000000000902250319000596873500000000000059687355220519000000000800023704144  000000000014300000000000000000000000000000000000000000000000000000000000000000000000000000000000000000000000000000000                          7600000000                                                                  000063
102122445950001000000009034510032549PREGTIT31077181305748     000000000000596889120000000000000000000000000902250319000596889100000000000059688912220519000000004200023704151  000000000014300000000000000000000000000000000000000000000000000000000000000000000000000000000000000000000000000000000                          0000000000                                                                  000064
102122445950001000000009034510032549PREGTIT31079470321755     000000000000596902590000000000000000000000000902250319000596902500000000000059690259220519000000000990023703451  000000000014300000000000000000000000000000000000000000000000000000000000000000000000000000000000000000000000000000000                          0000000000                                                                  000065
102122445950001000000009034510032549PREGTIT31079944060457     000000000000596959350000000000000000000000000902250319000596959300000000000059695935220519000000001500023704151  000000000014300000000000000000000000000000000000000000000000000000000000000000000000000000000000000000000000000000000                          0000000000                                                                  000066
102122445950001000000009034510032549PREGTIT31071394903076     000000000000597021330000000000000000000000000902250319000597021300000000000059702133230519000000000970023704151  000000000014300000000000000000000000000000000000000000000000000000000000000000000000000000000000000000000000000000000                          0000000000                                                                  000067
102122445950001000000009034510032549PREGTIT31072555663432     000000000000597558140000000000000000000000000902250319000597558100000000000059755814220519000000000600023704144  000000000014300000000000000000000000000000000000000000000000000000000000000000000000000000000000000000000000000000000                          7600000000                                                                  000068
102122445950001000000009034510032549PREGTIT31073201519999     000000000000597559110000000000000000000000000902250319000597559100000000000059755911230519000000000600023704157  000000000014300000000000000000000000000000000000000000000000000000000000000000000000000000000000000000000000000000000                          7600000000                                                                  000069
102122445950001000000009034510032549PREGTIT31075956006964     000000000000597562170000000000000000000000000902250319000597562100000000000059756217230519000000000550023704144  000000000014300000000000000000000000000000000000000000000000000000000000000000000000000000000000000000000000000000000                          0000000000                                                                  000070
102122445950001000000009034510032549PREGTIT31072647377206     000000000000597566160000000000000000000000000902250319000597566100000000000059756616220519000000000400023704144  000000000014300000000000000000000000000000000000000000000000000000000000000000000000000000000000000000000000000000000                          0000000000                                                                  000071
102122445950001000000009034510032549PREGTIT31078454387812     000000000000597610750000000000000000000000000902250319000597610700000000000059761075220519000000002991523704151  000000000014300000000000000000000000000000000000000000000000000000000000000000000000000000000000000000000000000000000                          7600000000                                                                  000072
102122445950001000000009034510032549PREGTIT31074464479378     000000000000597652080000000000000000000000000902250319000597652000000000000059765208230519000000002500023703451  000000000014300000000000000000000000000000000000000000000000000000000000000000000000000000000000000000000000000000000                          0000000000                                                                  000073
102122445950001000000009034510032549PREGTIT31074850358619     000000000000597656820000000000000000000000000902250319000597656800000000000059765682220519000000003700023704151  000000000014300000000000000000000000000000000000000000000000000000000000000000000000000000000000000000000000000000000                          0000000000                                                                  000074
102122445950001000000009034510032549PREGTIT31071320172581     000000000000597660690000000000000000000000000902250319000597660600000000000059766069220519000000000299323704157  000000000014300000000000000000000000000000000000000000000000000000000000000000000000000000000000000000000000000000000                          0000000000                                                                  000075
102122445950001000000009034510032549PREGTIT31075201840040     000000000000597661070000000000000000000000000902250319000597661000000000000059766107220519000000003507423704144  000000000014300000000000000000000000000000000000000000000000000000000000000000000000000000000000000000000000000000000                          0000000000                                                                  000076
102122445950001000000009034510032549PREGTIT31072056145167     000000000000597674480000000000000000000000000902250319000597674400000000000059767448220519000000001241123704152  000000000014300000000000000000000000000000000000000000000000000000000000000000000000000000000000000000000000000000000                          0000000000                                                                  000077
102122445950001000000009034510032549PREGTIT31074075227557     000000000000597678120000000000000000000000000902250319000597678100000000000059767812220519000000000400023704144  000000000014300000000000000000000000000000000000000000000000000000000000000000000000000000000000000000000000000000000                          0000000000                                                                  000078
102122445950001000000009034510032549PREGTIT31073518178500     000000000000597680450000000000000000000000000902250319000597680400000000000059768045220519000000000600023704144  000000000014300000000000000000000000000000000000000000000000000000000000000000000000000000000000000000000000000000000                          7600000000                                                                  000079
102122445950001000000009034510032549PREGTIT31073546841997     000000000000597681850000000000000000000000000902250319000597681800000000000059768185230519000000000600023704157  000000000014300000000000000000000000000000000000000000000000000000000000000000000000000000000000000000000000000000000                          0000000000                                                                  000080
102122445950001000000009034510032549PREGTIT31075132242279     000000000000597686300000000000000000000000000902250319000597686300000000000059768630230519000000000600023704144  000000000014300000000000000000000000000000000000000000000000000000000000000000000000000000000000000000000000000000000                          0000000000                                                                  000081
102122445950001000000009034510032549PREGTIT31071629831467     000000000000597691220000000000000000000000000902250319000597691200000000000059769122230519000000001500023704151  000000000014300000000000000000000000000000000000000000000000000000000000000000000000000000000000000000000000000000000                          0000000000                                                                  000082
102122445950001000000009034510032549PREGTIT31076289548161     000000000000597701470000000000000000000000000902250319000597701400000000000059770147230519000000003236123704152  000000000014300000000000000000000000000000000000000000000000000000000000000000000000000000000000000000000000000000000                          0000000000                                                                  000083
102122445950001000000009034510032549PREGTIT31079925888458     000000000000597703330000000000000000000000000902250319000597703300000000000059770333230519000000001275023704151  000000000014300000000000000000000000000000000000000000000000000000000000000000000000000000000000000000000000000000000                          0000000000                                                                  000084
102122445950001000000009034510032549PREGTIT31074468161285     0000000000005977066P000000000000000000000000090225031900059770660000000000005977066P230519000000001560423704151  000000000014300000000000000000000000000000000000000000000000000000000000000000000000000000000000000000000000000000000                          0000000000                                                                  000085
102122445950001000000009034510032549PREGTIT31076737919631     000000000000597711940000000000000000000000000902250319000597711900000000000059771194230519000000000550023704144  000000000014300000000000000000000000000000000000000000000000000000000000000000000000000000000000000000000000000000000                          7600000000                                                                  000086
102122445950001000000009034510032549PREGTIT31074260703929     000000000000597727510000000000000000000000000902250319000597727500000000000059772751220519000000001460023704144  000000000014300000000000000000000000000000000000000000000000000000000000000000000000000000000000000000000000000000000                          0000000000                                                                  000087
102122445950001000000009034510032549PREGTIT31073096436274     000000000000597734210000000000000000000000000902250319000597734200000000000059773421230519000000000600023704144  000000000014300000000000000000000000000000000000000000000000000000000000000000000000000000000000000000000000000000000                          0000000000                                                                  000088
102122445950001000000009034510032549PREGTIT31075390148911     000000000000597738550000000000000000000000000902250319000597738500000000000059773855240519000000001000023704151  000000000014300000000000000000000000000000000000000000000000000000000000000000000000000000000000000000000000000000000                          0000000000                                                                  000089
102122445950001000000009034510032549PREGTIT31073592143783     000000000000597803980000000000000000000000000902250319000597803900000000000059780398230519000000001800023704151  000000000014300000000000000000000000000000000000000000000000000000000000000000000000000000000000000000000000000000000                          0000000000                                                                  000090
102122445950001000000009034510032549PREGTIT31075592796603     000000000000597863290000000000000000000000000902250319000597863200000000000059786329220519000000003163423704157  000000000014300000000000000000000000000000000000000000000000000000000000000000000000000000000000000000000000000000000                          7600000000                                                                  000091
102122445950001000000009034510032549PREGTIT31078254146265     000000000000597884880000000000000000000000000902250319000597884800000000000059788488220519000000001600023700408  000000000014300000000000000000000000000000000000000000000000000000000000000000000000000000000000000000000000000000000                          0000000000                                                                  000092
102122445950001000000009034510032549PREGTIT31078158065163     000000000000597908570000000000000000000000000902250319000597908500000000000059790857220519000000005800023704151  000000000014300000000000000000000000000000000000000000000000000000000000000000000000000000000000000000000000000000000                          7600000000                                                                  000093
102122445950001000000009034510032549PREGTIT31074450396253     000000000000598412650000000000000000000000000902250319000598412600000000000059841265220519000000003000023704151  000000000014300000000000000000000000000000000000000000000000000000000000000000000000000000000000000000000000000000000                          0000000000                                                                  000094
102122445950001000000009034510032549PREGTIT31073544808770     000000000000598523480000000000000000000000000902250319000598523400000000000059852348220519000000001866723704147  000000000014300000000000000000000000000000000000000000000000000000000000000000000000000000000000000000000000000000000                          0000000000                                                                  000095
102122445950001000000009034510032549PREGTIT31079929526108     000000000000598580790000000000000000000000000902250319000598580700000000000059858079230519000000001200023704422  000000000014300000000000000000000000000000000000000000000000000000000000000000000000000000000000000000000000000000000                          0000000000                                                                  000096
102122445950001000000009034510032549PREGTIT31074358381616     000000000000598583380000000000000000000000000902250319000598583300000000000059858338230519000000001000023703451  000000000014300000000000000000000000000000000000000000000000000000000000000000000000000000000000000000000000000000000                          0000000000                                                                  000097
102122445950001000000009034510032549PREGTIT31074608359485     000000000000598583890000000000000000000000000902250319000598583800000000000059858389230519000000000272323704157  000000000014300000000000000000000000000000000000000000000000000000000000000000000000000000000000000000000000000000000                          0000000000                                                                  000098
102122445950001000000009034510032549PREGTIT31071841836898     000000000000598584860000000000000000000000000902250319000598584800000000000059858486240519000000001200023704422  000000000014300000000000000000000000000000000000000000000000000000000000000000000000000000000000000000000000000000000                          0000000000                                                                  000099
102122445950001000000009034510032549PREGTIT31072603165639     000000000000598585240000000000000000000000000902250319000598585200000000000059858524240519000000001200023704422  000000000014300000000000000000000000000000000000000000000000000000000000000000000000000000000000000000000000000000000                          0000000000                                                                  000100
102122445950001000000009034510032549PREGTIT31079040993360     000000000000598585670000000000000000000000000902250319000598585600000000000059858567240519000000001400023704422  000000000014300000000000000000000000000000000000000000000000000000000000000000000000000000000000000000000000000000000                          7600000000                                                                  000101
102122445950001000000009034510032549PREGTIT31072059431427     000000000000598586050000000000000000000000000902250319000598586000000000000059858605240519000000001425023704422  000000000014300000000000000000000000000000000000000000000000000000000000000000000000000000000000000000000000000000000                          0000000000                                                                  000102
102122445950001000000009034510032549PREGTIT31071354865162     000000000000598586480000000000000000000000000902250319000598586400000000000059858648240519000000001112523704422  000000000014300000000000000000000000000000000000000000000000000000000000000000000000000000000000000000000000000000000                          0000000000                                                                  000103
102122445950001000000009034510032549PREGTIT31071908510318     000000000000598586800000000000000000000000000902250319000598586800000000000059858680240519000000001375023704422  000000000014300000000000000000000000000000000000000000000000000000000000000000000000000000000000000000000000000000000                          0000000000                                                                  000104
102122445950001000000009034510032549PREGTIT31079530230433     000000000000598587290000000000000000000000000902250319000598587200000000000059858729240519000000001250023703451  000000000014300000000000000000000000000000000000000000000000000000000000000000000000000000000000000000000000000000000                          0000000000                                                                  000105
102122445950001000000009034510032549PREGTIT31071654732777     000000000000598587610000000000000000000000000902250319000598587600000000000059858761240519000000001200023704422  000000000014300000000000000000000000000000000000000000000000000000000000000000000000000000000000000000000000000000000                          0000000000                                                                  000106
102122445950001000000009034510032549PREGTIT31074412425847     0000000000005985880P000000000000000000000000090225031900059858800000000000005985880P240519000000001875023704422  000000000014300000000000000000000000000000000000000000000000000000000000000000000000000000000000000000000000000000000                          0000000000                                                                  000107
102122445950001000000009034510032549PREGTIT31078683703848     000000000000598588420000000000000000000000000902250319000598588400000000000059858842220519000000001790023703451  000000000014300000000000000000000000000000000000000000000000000000000000000000000000000000000000000000000000000000000                          0000000000                                                                  000108
102122445950001000000009034510032549PREGTIT31071497698061     000000000000598589820000000000000000000000000902250319000598589800000000000059858982230519000000000750023704151  000000000014300000000000000000000000000000000000000000000000000000000000000000000000000000000000000000000000000000000                          0000000000                                                                  000109
102122445950001000000009034510032549PREGTIT31072616478982     000000000000598596600000000000000000000000000902250319000598596600000000000059859660220519000000005583323704144  000000000014300000000000000000000000000000000000000000000000000000000000000000000000000000000000000000000000000000000                          0000000000                                                                  000110
102122445950001000000009034510032549PREGTIT31077858762919     0000000000005986043P000000000000000000000000090225031900059860430000000000005986043P220519000000002500023704157  000000000014300000000000000000000000000000000000000000000000000000000000000000000000000000000000000000000000000000000                          0000000000                                                                  000111
102122445950001000000009034510032549PREGTIT31072150973168     000000000000598651560000000000000000000000000902250319000598651500000000000059865156230519000000001000023704151  000000000014300000000000000000000000000000000000000000000000000000000000000000000000000000000000000000000000000000000                          7600000000                                                                  000112
102122445950001000000009034510032549PREGTIT31079460225436     000000000000598675580000000000000000000000000902250319000598675500000000000059867558220519000000002000023704151  000000000014300000000000000000000000000000000000000000000000000000000000000000000000000000000000000000000000000000000                          0000000000                                                                  000113
102122445950001000000009034510032549PREGTIT31076797187853     000000000000598700360000000000000000000000000902250319000598700300000000000059870036220519000000003800023704151  000000000014300000000000000000000000000000000000000000000000000000000000000000000000000000000000000000000000000000000                          0000000000                                                                  000114
102122445950001000000009034510032549PREGTIT31078060141098     000000000000599299790000000000000000000000000902250319000599299700000000000059929979240519000000005000023704151  000000000014300000000000000000000000000000000000000000000000000000000000000000000000000000000000000000000000000000000                          0000000000                                                                  000115
102122445950001000000009034510032549PREGTIT31076961277743     000000000000599302410000000000000000000000000902250319000599302400000000000059930241220519000000001400023704151  000000000014300000000000000000000000000000000000000000000000000000000000000000000000000000000000000000000000000000000                          0000000000                                                                  000116
102122445950001000000009034510032549PREGTIT31074628614369     000000000000599303490000000000000000000000000902250319000599303400000000000059930349220519000000002228623703451  000000000014300000000000000000000000000000000000000000000000000000000000000000000000000000000000000000000000000000000                          0000000000                                                                  000117
102122445950001000000009034510032549PREGTIT31073266795513     000000000000599325030000000000000000000000000902250319000599325000000000000059932503230519000000002570023704151  000000000014300000000000000000000000000000000000000000000000000000000000000000000000000000000000000000000000000000000                          0000000000                                                                  000118
102122445950001000000009034510032549PREGTIT31073699177073     000000000000599402550000000000000000000000000902250319000599402500000000000059940255240519000000001125023703451  000000000014300000000000000000000000000000000000000000000000000000000000000000000000000000000000000000000000000000000                          0000000000                                                                  000119
102122445950001000000009034510032549PREGTIT31076046100502     0000000000005994031P000000000000000000000000090225031900059940310000000000005994031P240519000000001125023700408  000000000014300000000000000000000000000000000000000000000000000000000000000000000000000000000000000000000000000000000                          0000000000                                                                  000120
102122445950001000000009034510032549PREGTIT31075956581673     000000000000599403520000000000000000000000000902250319000599403500000000000059940352240519000000001500023700408  000000000014300000000000000000000000000000000000000000000000000000000000000000000000000000000000000000000000000000000                          0000000000                                                                  000121
102122445950001000000009034510032549PREGTIT31073105084912     000000000000599403950000000000000000000000000902250319000599403900000000000059940395240519000000001500023700408  000000000014300000000000000000000000000000000000000000000000000000000000000000000000000000000000000000000000000000000                          0000000000                                                                  000122
102122445950001000000009034510032549PREGTIT31073482576658     000000000000599404330000000000000000000000000902250319000599404300000000000059940433240519000000001000023703109  000000000014300000000000000000000000000000000000000000000000000000000000000000000000000000000000000000000000000000000                          0000000000                                                                  000123
102122445950001000000009034510032549PREGTIT31075398608239     000000000000599405570000000000000000000000000902250319000599405500000000000059940557240519000000001750023703109  000000000014300000000000000000000000000000000000000000000000000000000000000000000000000000000000000000000000000000000                          0000000000                                                                  000124
102122445950001000000009034510032549PREGTIT31078810915057     000000000000599406700000000000000000000000000902250319000599406700000000000059940670240519000000001500023703109  000000000014300000000000000000000000000000000000000000000000000000000000000000000000000000000000000000000000000000000                          0000000000                                                                  000125
102122445950001000000009034510032549PREGTIT31076644032945     000000000000599408590000000000000000000000000902250319000599408500000000000059940859240519000000001666723703109  000000000014300000000000000000000000000000000000000000000000000000000000000000000000000000000000000000000000000000000                          0000000000                                                                  000126
102122445950001000000009034510032549PREGTIT31072683353788     000000000000599408830000000000000000000000000902250319000599408800000000000059940883240519000000001666723703109  000000000014300000000000000000000000000000000000000000000000000000000000000000000000000000000000000000000000000000000                          0000000000                                                                  000127
102122445950001000000009034510032549PREGTIT31078710315517     000000000000599409130000000000000000000000000902250319000599409100000000000059940913240519000000001000023703109  000000000014300000000000000000000000000000000000000000000000000000000000000000000000000000000000000000000000000000000                          0000000000                                                                  000128
102122445950001000000009034510032549PREGTIT31072286629544     000000000000599411380000000000000000000000000902250319000599411300000000000059941138240519000000001950023703109  000000000014300000000000000000000000000000000000000000000000000000000000000000000000000000000000000000000000000000000                          0000000000                                                                  000129
102122445950001000000009034510032549PREGTIT31072218209492     000000000000599428190000000000000000000000000902250319000599428100000000000059942819220519000000001150023700408  000000000014300000000000000000000000000000000000000000000000000000000000000000000000000000000000000000000000000000000                          0000000000                                                                  000130
102122445950001000000009034510032549PREGTIT31076020670727     000000000000599430090000000000000000000000000902250319000599430000000000000059943009220519000000002400023700408  000000000014300000000000000000000000000000000000000000000000000000000000000000000000000000000000000000000000000000000                          0000000000                                                                  000131
102122445950001000000009034510032549PREGTIT31074430871055     000000000000599431650000000000000000000000000902250319000599431600000000000059943165220519000000001700023704151  000000000014300000000000000000000000000000000000000000000000000000000000000000000000000000000000000000000000000000000                          7600000000                                                                  000132
102122445950001000000009034510032549PREGTIT31072828816262     000000000000599433000000000000000000000000000902250319000599433000000000000059943300220519000000000975023700408  000000000014300000000000000000000000000000000000000000000000000000000000000000000000000000000000000000000000000000000                          0000000000                                                                  000133
102122445950001000000009034510032549PREGTIT31076182769180     000000000000599460750000000000000000000000000902250319000599460700000000000059946075220519000000000397023704157  000000000014300000000000000000000000000000000000000000000000000000000000000000000000000000000000000000000000000000000                          0000000000                                                                  000134
102122445950001000000009034510032549PREGTIT31075819732526     000000000000599467920000000000000000000000000902250319000599467900000000000059946792230519000000005000023704400  000000000014300000000000000000000000000000000000000000000000000000000000000000000000000000000000000000000000000000000                          0000000000                                                                  000135
102122445950001000000009034510032549PREGTIT31079533500199     000000000000599473570000000000000000000000000902250319000599473500000000000059947357220519000000003000023704151  000000000014300000000000000000000000000000000000000000000000000000000000000000000000000000000000000000000000000000000                          0000000000                                                                  000136
102122445950001000000009034510032549PREGTIT31075381289563     000000000000599505600000000000000000000000000902250319000599505600000000000059950560220519000000003200023704152  000000000014300000000000000000000000000000000000000000000000000000000000000000000000000000000000000000000000000000000                          0000000000                                                                  000137
102122445950001000000009034510032549PREGTIT31074939747696     000000000000599509940000000000000000000000000902250319000599509900000000000059950994220519000000000776323700073  000000000014300000000000000000000000000000000000000000000000000000000000000000000000000000000000000000000000000000000                          0000000000                                                                  000138
102122445950001000000009034510032549PREGTIT31077869052427     000000000000599524740000000000000000000000000902250319000599524700000000000059952474100419000000000580023704151  000000000014300000000000000000000000000000000000000000000000000000000000000000000000000000000000000000000000000000000                          0000000000                                                                  000139
102122445950001000000009034510032549PREGTIT31077869052427     000000000000599524820000000000000000000000000902250319000599524800000000000059952482100519000000000580023704151  000000000014300000000000000000000000000000000000000000000000000000000000000000000000000000000000000000000000000000000                          0000000000                                                                  000140
102122445950001000000009034510032549PREGTIT31079526344893     000000000000599525710000000000000000000000000902250319000599525700000000000059952571230419000000001100023700140  000000000014300000000000000000000000000000000000000000000000000000000000000000000000000000000000000000000000000000000                          0000000000                                                                  000141
102122445950001000000009034510032549PREGTIT31079526344893     0000000000005995258P000000000000000000000000090225031900059952580000000000005995258P230519000000001100023700140  000000000014300000000000000000000000000000000000000000000000000000000000000000000000000000000000000000000000000000000                          0000000000                                                                  000142
102122445950001000000009034510032549PREGTIT31079947258490     000000000000599525980000000000000000000000000902250319000599525900000000000059952598230419000000003550023704400  000000000014300000000000000000000000000000000000000000000000000000000000000000000000000000000000000000000000000000000                          0000000000                                                                  000143
102122445950001000000009034510032549PREGTIT31074019737425     000000000000599526520000000000000000000000000902250319000599526500000000000059952652100419000000008636723704151  000000000014300000000000000000000000000000000000000000000000000000000000000000000000000000000000000000000000000000000                          0000000000                                                                  000144
102122445950001000000009034510032549PREGTIT31074019737425     000000000000599526600000000000000000000000000902250319000599526600000000000059952660100519000000008636723704151  000000000014300000000000000000000000000000000000000000000000000000000000000000000000000000000000000000000000000000000                          0000000000                                                                  000145
102122445950001000000009034510032549PREGTIT31077765483467     000000000000599527170000000000000000000000000902250319000599527100000000000059952717260319000000001499023704428  000000000014300000000000000000000000000000000000000000000000000000000000000000000000000000000000000000000000000000000                          0000000000                                                                  000146
102122445950001000000009034510032549PREGTIT31077782256536     000000000000599527250000000000000000000000000902250319000599527200000000000059952725090419000000010129123704426  000000000014300000000000000000000000000000000000000000000000000000000000000000000000000000000000000000000000000000000                          0000000000                                                                  000147
102122445950001000000009034510032549PREGTIT31079670270064     000000000000599527330000000000000000000000000902250319000599527300000000000059952733080419000000002050023700140  000000000014300000000000000000000000000000000000000000000000000000000000000000000000000000000000000000000000000000000                          0000000000                                                                  000148
102122445950001000000009034510032549PREGTIT31079670270064     000000000000599527410000000000000000000000000902250319000599527400000000000059952741080519000000002050023700140  000000000014300000000000000000000000000000000000000000000000000000000000000000000000000000000000000000000000000000000                          0000000000                                                                  000149
102122445950001000000009034510032549PREGTIT31075379220685     0000000000005995275P000000000000000000000000090225031900059952750000000000005995275P230419000000000799023704144  000000000014300000000000000000000000000000000000000000000000000000000000000000000000000000000000000000000000000000000                          0000000000                                                                  000150
102122445950001000000009034510032549PREGTIT31075379220685     000000000000599527680000000000000000000000000902250319000599527600000000000059952768230519000000000799023704144  000000000014300000000000000000000000000000000000000000000000000000000000000000000000000000000000000000000000000000000                          0000000000                                                                  000151
102122445950001000000009034510032549PREGTIT31071720789641     000000000000599527760000000000000000000000000902250319000599527700000000000059952776050419000000000500023700140  000000000014300000000000000000000000000000000000000000000000000000000000000000000000000000000000000000000000000000000                          0000000000                                                                  000152
102122445950001000000009034510032549PREGTIT31078806421483     000000000000599527840000000000000000000000000902250319000599527800000000000059952784050419000000001537023704157  000000000014300000000000000000000000000000000000000000000000000000000000000000000000000000000000000000000000000000000                          0000000000                                                                  000153
102122445950001000000009034510032549PREGTIT31074216569335     000000000000599527920000000000000000000000000902250319000599527900000000000059952792060519000000016616223704151  000000000014300000000000000000000000000000000000000000000000000000000000000000000000000000000000000000000000000000000                          0000000000                                                                  000154
102122445950001000000009034510032549PREGTIT31073876258209     000000000000599528140000000000000000000000000902250319000599528100000000000059952814100419000000008329223704151  000000000014300000000000000000000000000000000000000000000000000000000000000000000000000000000000000000000000000000000                          0000000000                                                                  000155
102122445950001000000009034510032549PREGTIT31073876258209     000000000000599528220000000000000000000000000902250319000599528200000000000059952822100519000000008329223704151  000000000014300000000000000000000000000000000000000000000000000000000000000000000000000000000000000000000000000000000                          0000000000                                                                  000156
102122445950001000000009034510032549PREGTIT31073377823502     000000000000599529380000000000000000000000000902250319000599529300000000000059952938260319000000001508023704400  000000000014300000000000000000000000000000000000000000000000000000000000000000000000000000000000000000000000000000000                          0000000000                                                                  000157
102122445950001000000009034510032549PREGTIT31073985122802     000000000000599529460000000000000000000000000902250319000599529400000000000059952946230419000000002500023704422  000000000014300000000000000000000000000000000000000000000000000000000000000000000000000000000000000000000000000000000                          0000000000                                                                  000158
102122445950001000000009034510032549PREGTIT31079665374536     000000000000599529540000000000000000000000000902250319000599529500000000000059952954230419000000001500023704422  000000000014300000000000000000000000000000000000000000000000000000000000000000000000000000000000000000000000000000000                          0000000000                                                                  000159
102122445950001000000009034510032549PREGTIT31079665374536     000000000000599529620000000000000000000000000902250319000599529600000000000059952962230519000000001500023704422  000000000014300000000000000000000000000000000000000000000000000000000000000000000000000000000000000000000000000000000                          0000000000                                                                  000160
102122445950001000000009034510032549PREGTIT31076933038520     000000000000599529970000000000000000000000000902250319000599529900000000000059952997230419000000001000023704422  000000000014300000000000000000000000000000000000000000000000000000000000000000000000000000000000000000000000000000000                          7600000000                                                                  000161
102122445950001000000009034510032549PREGTIT31076933038520     000000000000599530040000000000000000000000000902250319000599530000000000000059953004230519000000001000023704422  000000000014300000000000000000000000000000000000000000000000000000000000000000000000000000000000000000000000000000000                          7600000000                                                                  000162
102122445950001000000009034510032549PREGTIT31073464250398     000000000000599530390000000000000000000000000902250319000599530300000000000059953039230419000000001957023704157  000000000014300000000000000000000000000000000000000000000000000000000000000000000000000000000000000000000000000000000                          0000000000                                                                  000163
102122445950001000000009034510032549PREGTIT31073929155990     000000000000599530470000000000000000000000000902250319000599530400000000000059953047230419000000000697723703451  000000000014300000000000000000000000000000000000000000000000000000000000000000000000000000000000000000000000000000000                          0000000000                                                                  000164
102122445950001000000009034510032549PREGTIT31073929155990     000000000000599530550000000000000000000000000902250319000599530500000000000059953055230519000000000697723703451  000000000014300000000000000000000000000000000000000000000000000000000000000000000000000000000000000000000000000000000                          0000000000                                                                  000165
102122445950001000000009034510032549PREGTIT31079575975491     000000000000599530710000000000000000000000000902250319000599530700000000000059953071230419000000000283023704157  000000000014300000000000000000000000000000000000000000000000000000000000000000000000000000000000000000000000000000000                          0000000000                                                                  000166
102122445950001000000009034510032549PREGTIT31079575975491     0000000000005995308P000000000000000000000000090225031900059953080000000000005995308P230519000000000283023704157  000000000014300000000000000000000000000000000000000000000000000000000000000000000000000000000000000000000000000000000                          0000000000                                                                  000167
102122445950001000000009034510032549PREGTIT31078267629634     000000000000599531010000000000000000000000000902250319000599531000000000000059953101230419000000000334523704157  000000000014300000000000000000000000000000000000000000000000000000000000000000000000000000000000000000000000000000000                          0000000000                                                                  000168
102122445950001000000009034510032549PREGTIT31078267629634     0000000000005995311P000000000000000000000000090225031900059953110000000000005995311P230519000000000334523704157  000000000014300000000000000000000000000000000000000000000000000000000000000000000000000000000000000000000000000000000                          0000000000                                                                  000169
102122445950001000000009034510032549PREGTIT31073613805373     000000000000599531280000000000000000000000000902250319000599531200000000000059953128240419000000001500023704422  000000000014300000000000000000000000000000000000000000000000000000000000000000000000000000000000000000000000000000000                          0000000000                                                                  000170
102122445950001000000009034510032549PREGTIT31073613805373     000000000000599531360000000000000000000000000902250319000599531300000000000059953136240519000000001500023704422  000000000014300000000000000000000000000000000000000000000000000000000000000000000000000000000000000000000000000000000                          0000000000                                                                  000171
102122445950001000000009034510032549PREGTIT31073152324958     000000000000599531600000000000000000000000000902250319000599531600000000000059953160240419000000001125023704422  000000000014300000000000000000000000000000000000000000000000000000000000000000000000000000000000000000000000000000000                          0000000000                                                                  000172
102122445950001000000009034510032549PREGTIT31073152324958     000000000000599531790000000000000000000000000902250319000599531700000000000059953179240519000000001125023704422  000000000014300000000000000000000000000000000000000000000000000000000000000000000000000000000000000000000000000000000                          0000000000                                                                  000173
102122445950001000000009034510032549PREGTIT31072453565907     000000000000599532090000000000000000000000000902250319000599532000000000000059953209240419000000001200023704422  000000000014300000000000000000000000000000000000000000000000000000000000000000000000000000000000000000000000000000000                          0000000000                                                                  000174
102122445950001000000009034510032549PREGTIT31072453565907     000000000000599532170000000000000000000000000902250319000599532100000000000059953217240519000000001200023704422  000000000014300000000000000000000000000000000000000000000000000000000000000000000000000000000000000000000000000000000                          0000000000                                                                  000175
102122445950001000000009034510032549PREGTIT31072483995627     0000000000005995325P000000000000000000000000090225031900059953250000000000005995325P240419000000001000023704422  000000000014300000000000000000000000000000000000000000000000000000000000000000000000000000000000000000000000000000000                          7600000000                                                                  000176
102122445950001000000009034510032549PREGTIT31072483995627     000000000000599532680000000000000000000000000902250319000599532600000000000059953268240519000000001000023704422  000000000014300000000000000000000000000000000000000000000000000000000000000000000000000000000000000000000000000000000                          7600000000                                                                  000177
102122445950001000000009034510032549PREGTIT31074259789805     000000000000599532840000000000000000000000000902250319000599532800000000000059953284240419000000001000023704422  000000000014300000000000000000000000000000000000000000000000000000000000000000000000000000000000000000000000000000000                          0000000000                                                                  000178
102122445950001000000009034510032549PREGTIT31074259789805     000000000000599532920000000000000000000000000902250319000599532900000000000059953292240519000000001000023704422  000000000014300000000000000000000000000000000000000000000000000000000000000000000000000000000000000000000000000000000                          0000000000                                                                  000179
102122445950001000000009034510032549PREGTIT31075319808170     000000000000599533300000000000000000000000000902250319000599533300000000000059953330240419000000001400023703451  000000000014300000000000000000000000000000000000000000000000000000000000000000000000000000000000000000000000000000000                          0000000000                                                                  000180
102122445950001000000009034510032549PREGTIT31075319808170     000000000000599533490000000000000000000000000902250319000599533400000000000059953349240519000000001400023703451  000000000014300000000000000000000000000000000000000000000000000000000000000000000000000000000000000000000000000000000                          0000000000                                                                  000181
102122445950001000000009034510032549PREGTIT31073950215892     000000000000599533810000000000000000000000000902250319000599533800000000000059953381150419000000004625023704144  000000000014300000000000000000000000000000000000000000000000000000000000000000000000000000000000000000000000000000000                          0000000000                                                                  000182
102122445950001000000009034510032549PREGTIT31076618214808     0000000000005995339P000000000000000000000000090225031900059953390000000000005995339P150419000000007555623704144  000000000014300000000000000000000000000000000000000000000000000000000000000000000000000000000000000000000000000000000                          0000000000                                                                  000183
102122445950001000000009034510032549PREGTIT31076481410728     000000000000599534030000000000000000000000000902250319000599534000000000000059953403040419000000001513023704144  000000000014300000000000000000000000000000000000000000000000000000000000000000000000000000000000000000000000000000000                          7600000000                                                                  000184
102122445950001000000009034510032549PREGTIT31075464602779     000000000000599534110000000000000000000000000902250319000599534100000000000059953411010419000000007000023704143  000000000014300000000000000000000000000000000000000000000000000000000000000000000000000000000000000000000000000000000                          7600000000                                                                  000185
102122445950001000000009034510032549PREGTIT31075464602779     0000000000005995342P000000000000000000000000090225031900059953420000000000005995342P010519000000007000023704143  000000000014300000000000000000000000000000000000000000000000000000000000000000000000000000000000000000000000000000000                          7600000000                                                                  000186
102122445950001000000009034510032549PREGTIT31079215398182     000000000000599534540000000000000000000000000902250319000599534500000000000059953454100419000000000750023704151  000000000014300000000000000000000000000000000000000000000000000000000000000000000000000000000000000000000000000000000                          0000000000                                                                  000187
102122445950001000000009034510032549PREGTIT31073377033947     000000000000599534620000000000000000000000000902250319000599534600000000000059953462280419000000000944623704157  000000000014300000000000000000000000000000000000000000000000000000000000000000000000000000000000000000000000000000000                          0000000000                                                                  000188
102122445950001000000009034510032549PREGTIT31077688877338     000000000000599535350000000000000000000000000902250319000599535300000000000059953535160419000000005573123704426  000000000014300000000000000000000000000000000000000000000000000000000000000000000000000000000000000000000000000000000                          0000000000                                                                  000189
102122445950001000000009034510032549PREGTIT31089790578223     000000000000599535510000000000000000000000000902250319000599535500000000000059953551200419000000002880023704151  000000000014300000000000000000000000000000000000000000000000000000000000000000000000000000000000000000000000000000000                          0000000000                                                                  000190
102122445950001000000009034510032549PREGTIT31089790578223     0000000000005995356P000000000000000000000000090225031900059953560000000000005995356P200519000000002880023704151  000000000014300000000000000000000000000000000000000000000000000000000000000000000000000000000000000000000000000000000                          0000000000                                                                  000191
102122445950001000000009034510032549PREGTIT31082755942828     000000000000599536670000000000000000000000000902250319000599536600000000000059953667250419000000001303323703451  000000000014300000000000000000000000000000000000000000000000000000000000000000000000000000000000000000000000000000000                          7600000000                                                                  000192
102122445950001000000009034510032549PREGTIT31091794763977     0000000000005995373P000000000000000000000000090225031900059953730000000000005995373P090419000000002500023700073  000000000014300000000000000000000000000000000000000000000000000000000000000000000000000000000000000000000000000000000                          0000000000                                                                  000193
102122445950001000000009034510032549PREGTIT31091794763977     000000000000599537480000000000000000000000000902250319000599537400000000000059953748090519000000002500023700073  000000000014300000000000000000000000000000000000000000000000000000000000000000000000000000000000000000000000000000000                          0000000000                                                                  000194
102122445950001000000009034510032549PREGTIT31093974685014     000000000000599538020000000000000000000000000902250319000599538000000000000059953802150419000000018300023704143  000000000014300000000000000000000000000000000000000000000000000000000000000000000000000000000000000000000000000000000                          7600000000                                                                  000195
102122445950001000000009034510032549PREGTIT31091938896137     000000000000599538100000000000000000000000000902250319000599538100000000000059953810100419000000002100023700073  000000000014300000000000000000000000000000000000000000000000000000000000000000000000000000000000000000000000000000000                          0000000000                                                                  000196
102122445950001000000009034510032549PREGTIT31091938896137     000000000000599538290000000000000000000000000902250319000599538200000000000059953829100519000000002100023700073  000000000014300000000000000000000000000000000000000000000000000000000000000000000000000000000000000000000000000000000                          0000000000                                                                  000197
102122445950001000000009034510032549PREGTIT31099913164046     000000000000599539340000000000000000000000000902250319000599539300000000000059953934100419000000002750023704143  000000000014300000000000000000000000000000000000000000000000000000000000000000000000000000000000000000000000000000000                          0000000000                                                                  000198
102122445950001000000009034510032549PREGTIT31099913164046     000000000000599539420000000000000000000000000902250319000599539400000000000059953942100519000000002750023704143  000000000014300000000000000000000000000000000000000000000000000000000000000000000000000000000000000000000000000000000                          0000000000                                                                  000199
102122445950001000000009034510032549PREGTIT31099561611012     000000000000599539770000000000000000000000000902250319000599539700000000000059953977200419000000003500023704143  000000000014300000000000000000000000000000000000000000000000000000000000000000000000000000000000000000000000000000000                          0000000000                                                                  000200
102122445950001000000009034510032549PREGTIT31099561611012     000000000000599539850000000000000000000000000902250319000599539800000000000059953985200519000000003500023704143  000000000014300000000000000000000000000000000000000000000000000000000000000000000000000000000000000000000000000000000                          0000000000                                                                  000201
102122445950001000000009034510032549PREGTIT31099045846652     000000000000599539930000000000000000000000000902250319000599539900000000000059953993190419000000004250023704143  000000000014300000000000000000000000000000000000000000000000000000000000000000000000000000000000000000000000000000000                          0000000000                                                                  000202
102122445950001000000009034510032549PREGTIT31099045846652     000000000000599540000000000000000000000000000902250319000599540000000000000059954000190519000000004250023704143  000000000014300000000000000000000000000000000000000000000000000000000000000000000000000000000000000000000000000000000                          0000000000                                                                  000203
102122445950001000000009034510032549PREGTIT31106398988043     0000000000005995406P000000000000000000000000090225031900059954060000000000005995406P010419000000035000023704151  000000000014300000000000000000000000000000000000000000000000000000000000000000000000000000000000000000000000000000000                          0000000000                                                                  000204
102122445950001000000009034510032549PREGTIT31106081249126     000000000000599541670000000000000000000000000902250319000599541600000000000059954167010419000000000600023704144  000000000014300000000000000000000000000000000000000000000000000000000000000000000000000000000000000000000000000000000                          0000000000                                                                  000205
102122445950001000000009034510032549PREGTIT31111158581185     000000000000599541750000000000000000000000000902250319000599541700000000000059954175150419000000002500023700073  000000000014300000000000000000000000000000000000000000000000000000000000000000000000000000000000000000000000000000000                          0000000000                                                                  000206
102122445950001000000009034510032549PREGTIT31111158581185     000000000000599541830000000000000000000000000902250319000599541800000000000059954183150519000000002500023700073  000000000014300000000000000000000000000000000000000000000000000000000000000000000000000000000000000000000000000000000                          0000000000                                                                  000207
102122445950001000000009034510032549PREGTIT31125420197695     000000000000599544180000000000000000000000000902250319000599544100000000000059954418100519000000001300023704151  000000000014300000000000000000000000000000000000000000000000000000000000000000000000000000000000000000000000000000000                          0000000000                                                                  000208
102122445950001000000009034510032549PREGTIT31131328637036     000000000000599545070000000000000000000000000902250319000599545000000000000059954507010419000000001700023704144  000000000014300000000000000000000000000000000000000000000000000000000000000000000000000000000000000000000000000000000                          0000000000                                                                  000209
102122445950001000000009034510032549PREGTIT31133629760270     000000000000599545150000000000000000000000000902250319000599545100000000000059954515010419000000002150023704144  000000000014300000000000000000000000000000000000000000000000000000000000000000000000000000000000000000000000000000000                          0000000000                                                                  000210
102122445950001000000009034510032549PREGTIT31132344426206     000000000000599545230000000000000000000000000902250319000599545200000000000059954523100419000000005200023700073  000000000014300000000000000000000000000000000000000000000000000000000000000000000000000000000000000000000000000000000                          7600000000                                                                  000211
102122445950001000000009034510032549PREGTIT31132344426206     000000000000599545310000000000000000000000000902250319000599545300000000000059954531100519000000005200023700073  000000000014300000000000000000000000000000000000000000000000000000000000000000000000000000000000000000000000000000000                          7600000000                                                                  000212
102122445950001000000009034510032549PREGTIT31134537363077     000000000000599546200000000000000000000000000902250319000599546200000000000059954620040419000000003140023704144  000000000014300000000000000000000000000000000000000000000000000000000000000000000000000000000000000000000000000000000                          0000000000                                                                  000213
102122445950001000000009034510032549PREGTIT31155383095505     000000000000599546470000000000000000000000000902250319000599546400000000000059954647250419000000003838023704144  000000000014300000000000000000000000000000000000000000000000000000000000000000000000000000000000000000000000000000000                          7600000000                                                                  000214
102122445950001000000009034510032549PREGTIT31165053420083     000000000000599546550000000000000000000000000902250319000599546500000000000059954655200419000000006500023704157  000000000014300000000000000000000000000000000000000000000000000000000000000000000000000000000000000000000000000000000                          0000000000                                                                  000215
102122445950001000000009034510032549PREGTIT31165053420083     000000000000599546630000000000000000000000000902250319000599546600000000000059954663200519000000006500023704157  000000000014300000000000000000000000000000000000000000000000000000000000000000000000000000000000000000000000000000000                          0000000000                                                                  000216
102122445950001000000009034510032549PREGTIT31162586523153     000000000000599547790000000000000000000000000902250319000599547700000000000059954779220419000000002435023704144  000000000014300000000000000000000000000000000000000000000000000000000000000000000000000000000000000000000000000000000                          0000000000                                                                  000217
102122445950001000000009034510032549PREGTIT31166017516623     000000000000599547870000000000000000000000000902250319000599547800000000000059954787150419000000004866723700073  000000000014300000000000000000000000000000000000000000000000000000000000000000000000000000000000000000000000000000000                          0000000000                                                                  000218
102122445950001000000009034510032549PREGTIT31166017516623     000000000000599547950000000000000000000000000902250319000599547900000000000059954795150519000000004866723700073  000000000014300000000000000000000000000000000000000000000000000000000000000000000000000000000000000000000000000000000                          0000000000                                                                  000219
102122445950001000000009034510032549PREGTIT31167082456789     000000000000599548840000000000000000000000000902250319000599548800000000000059954884250419000000002500023700073  000000000014300000000000000000000000000000000000000000000000000000000000000000000000000000000000000000000000000000000                          0000000000                                                                  000220
102122445950001000000009034510032549PREGTIT31163539195871     000000000000599549220000000000000000000000000902250319000599549200000000000059954922280419000000003500023704151  000000000014300000000000000000000000000000000000000000000000000000000000000000000000000000000000000000000000000000000                          0000000000                                                                  000221
102122445950001000000009034510032549PREGTIT31169483996981     0000000000005995504P000000000000000000000000090225031900059955040000000000005995504P100419000000001347423704157  000000000014300000000000000000000000000000000000000000000000000000000000000000000000000000000000000000000000000000000                          0000000000                                                                  000222
102122445950001000000009034510032549PREGTIT31163305166715     000000000000599550580000000000000000000000000902250319000599550500000000000059955058100519000000003005023704151  000000000014300000000000000000000000000000000000000000000000000000000000000000000000000000000000000000000000000000000                          0000000000                                                                  000223
102122445950001000000009034510032549PREGTIT31161563630215     000000000000599553250000000000000000000000000902250319000599553200000000000059955325150419000000004866723700073  000000000014300000000000000000000000000000000000000000000000000000000000000000000000000000000000000000000000000000000                          0000000000                                                                  000224
102122445950001000000009034510032549PREGTIT31161563630215     000000000000599553330000000000000000000000000902250319000599553300000000000059955333150519000000004866723700073  000000000014300000000000000000000000000000000000000000000000000000000000000000000000000000000000000000000000000000000                          0000000000                                                                  000225
102122445950001000000009034510032549PREGTIT31169690269889     000000000000599554570000000000000000000000000902250319000599554500000000000059955457100419000000002388623704144  000000000014300000000000000000000000000000000000000000000000000000000000000000000000000000000000000000000000000000000                          0000000000                                                                  000226
102122445950001000000009034510032549PREGTIT31169690269889     000000000000599554650000000000000000000000000902250319000599554600000000000059955465100519000000002388623704144  000000000014300000000000000000000000000000000000000000000000000000000000000000000000000000000000000000000000000000000                          0000000000                                                                  000227
102122445950001000000009034510032549PREGTIT31166401052305     000000000000599554730000000000000000000000000902250319000599554700000000000059955473080419000000004375023704144  000000000014300000000000000000000000000000000000000000000000000000000000000000000000000000000000000000000000000000000                          0000000000                                                                  000228
102122445950001000000009034510032549PREGTIT31167353277690     000000000000599554810000000000000000000000000902250319000599554800000000000059955481150419000000004860023704144  000000000014300000000000000000000000000000000000000000000000000000000000000000000000000000000000000000000000000000000                          0000000000                                                                  000229
102122445950001000000009034510032549PREGTIT31179598906433     0000000000005995549P000000000000000000000000090225031900059955490000000000005995549P250419000000000826723704422  000000000014300000000000000000000000000000000000000000000000000000000000000000000000000000000000000000000000000000000                          0000000000                                                                  000230
102122445950001000000009034510032549PREGTIT31172878915112     0000000000005995552P000000000000000000000000090225031900059955520000000000005995552P200419000000003600023700073  000000000014300000000000000000000000000000000000000000000000000000000000000000000000000000000000000000000000000000000                          7600000000                                                                  000231
102122445950001000000009034510032549PREGTIT31172878915112     000000000000599555380000000000000000000000000902250319000599555300000000000059955538200519000000003600023700073  000000000014300000000000000000000000000000000000000000000000000000000000000000000000000000000000000000000000000000000                          7600000000                                                                  000232
102122445950001000000009034510032549PREGTIT31172731800331     000000000000599555620000000000000000000000000902250319000599555600000000000059955562250419000000001225023703451  000000000014300000000000000000000000000000000000000000000000000000000000000000000000000000000000000000000000000000000                          0000000000                                                                  000233
102122445950001000000009034510032549PREGTIT31179454039985     000000000000599555970000000000000000000000000902250319000599555900000000000059955597010419000000011280023704144  000000000014300000000000000000000000000000000000000000000000000000000000000000000000000000000000000000000000000000000                          0000000000                                                                  000234
102122445950001000000009034510032549PREGTIT25546477129500     000000000000573810110000000000000000000000000906250319000573810100000000000057381011150319000000001333323701449  000000000000000000000000000000000000000000000000000000000000000000000000000000000000001368900000000003560000000000000   260319             00000000000000                                                                  000235
102122445950001000000009034510032549PREGTIT26408273184378     000000000000580131990000000000000000000000000906250319000580131900000000000058013199250319000000001000023703348  000000000000000000000000000000000000000000000000000000000000000000000000000000000000001000000000000000000000000000000   260319             00000000000000                                                                  000236
102122445950001000000009034510032549PREGTIT26405148746205     000000000000589842160000000000000000000000000906250319000589842100000000000058984216250319000000003000034101325  000000000000000000000000000000000000000000000000000000000000000000000000000000000000003000000000000000000000000000000   260319             00000000000000                                                                  000237
102122445950001000000009034510032549PREGTIT23664817587397     000000000000589904610000000000000000000000000906250319000589904600000000000058990461160219000000003000000102801  000000000000000000000000000000000000000000000000000000000000000000000000000000000000003134000000000013400000000000000   260319             00000000000000                                                                  000238
102122445950001000000009034510032549PREGTIT21936862197625     000000000000589941810000000000000000000000000906250319000589941800000000000058994181240119000000001460023701404  000000000000000000000000000000000000000000000000000000000000000000000000000000000000001549200000000008920000000000000   260319             00000000000000                                                                  000239
102122445950001000000009034510032549PREGTIT26408886748664     000000000000591044060000000000000000000000000906250319000591044000000000000059104406250319000000008060003303968  000000000000000000000000000000000000000000000000000000000000000000000000000000000000008060000000000000000000000000000   260319             00000000000000                                                                  000240
102122445950001000000009034510032549PREGTIT26407011057018     0000000000005916963P000000000000000000000000090625031900059169630000000000005916963P250319000000002420007000642  000000000000000000000000000000000000000000000000000000000000000000000000000000000000002420000000000000000000000000000   260319             00000000000000                                                                  000241
102122445950001000000009034510032549PREGTIT26621469850043     000000000000592884420000000000000000000000000906250319000592884400000000000059288442280319000000000800010403621  000000000000000000000000000000000000000000000000000000000000000000000000000000000000000800000000000000000000000000000   260319             00000000000000                                                                  000242
102122445950001000000009034510032549PREGTIT25546563804248     000000000000592933730000000000000000000000000906250319000592933700000000000059293373150319000000003180010403296  000000000000000000000000000000000000000000000000000000000000000000000000000000000000003264600000000008460000000000000   260319             00000000000000                                                                  000243
102122445950001000000009034510032549PREGTIT27166185046252     000000000000592979990000000000000000000000000906250319000592979900000000000059297999040419000000000750010400812  000000000000000000000000000000000000000000000000000000000000000000000000000000000000000750000000000000000000000000000   260319             00000000000000                                                                  000244
102122445950001000000009034510032549PREGTIT26405034569497     000000000000593129630000000000000000000000000906250319000593129600000000000059312963250319000000001000023705840  000000000000000000000000000000000000000000000000000000000000000000000000000000000000001000000000000000000000000000000   260319             00000000000000                                                                  000245
102122445950001000000009034510032549PREGTIT29036728526999     000000000000593756120000000000000000000000000906250319000593756100000000000059375612250319000000002900010401119  000000000000000000000000000000000000000000000000000000000000000000000000000000000000002900000000000000000000000000000   260319             00000000000000                                                                  000246
102122445950001000000009034510032549PREGTIT26402932116087     000000000000593884710000000000000000000000000906250319000593884700000000000059388471250319000000001300010400049  000000000000000000000000000000000000000000000000000000000000000000000000000000000000001300000000000000000000000000000   260319             00000000000000                                                                  000247
102122445950001000000009034510032549PREGTIT26405072772668     000000000000593906540000000000000000000000000906250319000593906500000000000059390654250319000000001350034100277  000000000000000000000000000000000000000000000000000000000000000000000000000000000000001350000000000000000000000000000   260319             00000000000000                                                                  000248
