02RETORNO01COBRANCA       00000000000004972103WC SISTEMAS E EQUIPAMENTOS DE 237BRADESCO       1103190160000000562                                                                                                                                                                                                                                                                          120319         000001
1020874591800017100000090345100240370REGTIT2606997275237856   000000009000598717770000000000000000000000000902110319997275237800000000900059871777150319000000001445123704144  000000000014300000000000000000000000000000000000000000000000000000000000000000000000000000000000000000000000000000000                          0000000000                                                                  000002
1020874591800017100000090345100240370REGTIT2606997275292474   000000009000598717850000000000000000000000000902110319997275292400000000900059871785150419000000001445123704144  000000000014300000000000000000000000000000000000000000000000000000000000000000000000000000000000000000000000000000000                          0000000000                                                                  000003
1020874591800017100000090345100240370REGTIT2606997275247865   000000009000598717930000000000000000000000000902110319997275247800000000900059871793150519000000001445123704144  000000000014300000000000000000000000000000000000000000000000000000000000000000000000000000000000000000000000000000000                          0000000000                                                                  000004
1020874591800017100000090345100240370REGTIT2606995834059608   000000009000598718070000000000000000000000000902110319995834059600000000900059871807110419000000001881823704157  000000000014300000000000000000000000000000000000000000000000000000000000000000000000000000000000000000000000000000000                          7600000000                                                                  000005
1020874591800017100000090345100240370REGTIT2606995834033859   000000009000598718150000000000000000000000000902110319995834033800000000900059871815110519000000001881823704157  000000000014300000000000000000000000000000000000000000000000000000000000000000000000000000000000000000000000000000000                          7600000000                                                                  000006
1020874591800017100000090345100240370REGTIT2607996979541241   000000009000598718230000000000000000000000000902110319996979541200000000900059871823120319000000002765023704144  000000000014300000000000000000000000000000000000000000000000000000000000000000000000000000000000000000000000000000000                          7600000000                                                                  000007
1020874591800017100000090345100240370REGTIT2607996979545819   000000009000598718310000000000000000000000000902110319996979545800000000900059871831120419000000002765023704144  000000000014300000000000000000000000000000000000000000000000000000000000000000000000000000000000000000000000000000000                          7600000000                                                                  000008
1020874591800017100000090345100240370REGTIT2607997142656879   0000000090005987184P000000000000000000000000090211031999714265680000000090005987184P120319000000001986323704144  000000000014300000000000000000000000000000000000000000000000000000000000000000000000000000000000000000000000000000000                          0000000000                                                                  000009
1020874591800017100000090345100240370REGTIT2607997278094504   000000009000598718580000000000000000000000000902110319997278094500000000900059871858140319000000001408623704144  000000000014300000000000000000000000000000000000000000000000000000000000000000000000000000000000000000000000000000000                          0000000000                                                                  000010
1020874591800017100000090345100240370REGTIT2607997278028629   000000009000598718660000000000000000000000000902110319997278028600000000900059871866140419000000001408623704144  000000000014300000000000000000000000000000000000000000000000000000000000000000000000000000000000000000000000000000000                          0000000000                                                                  000011
1020874591800017100000090345100240370REGTIT2607997278070927   000000009000598718740000000000000000000000000902110319997278070900000000900059871874140519000000001408623704144  000000000014300000000000000000000000000000000000000000000000000000000000000000000000000000000000000000000000000000000                          0000000000                                                                  000012
1020874591800017100000090345100240370REGTIT2607997054290858   000000009000598718820000000000000000000000000902110319997054290800000000900059871882140319000000001709223704144  000000000014300000000000000000000000000000000000000000000000000000000000000000000000000000000000000000000000000000000                          0000000000                                                                  000013
1020874591800017100000090345100240370REGTIT2607997054276146   000000009000598718900000000000000000000000000902110319997054276100000000900059871890140419000000001709223704144  000000000014300000000000000000000000000000000000000000000000000000000000000000000000000000000000000000000000000000000                          0000000000                                                                  000014
1020874591800017100000090345100240370REGTIT2607997054255480   000000009000598719040000000000000000000000000902110319997054255400000000900059871904140519000000001709223704144  000000000014300000000000000000000000000000000000000000000000000000000000000000000000000000000000000000000000000000000                          0000000000                                                                  000015
1020874591800017100000090345100240370REGTIT2607997108510651   000000009000598719120000000000000000000000000902110319997108510600000000900059871912140319000000001380123704144  000000000014300000000000000000000000000000000000000000000000000000000000000000000000000000000000000000000000000000000                          0000000000                                                                  000016
1020874591800017100000090345100240370REGTIT2607997108561189   000000009000598719200000000000000000000000000902110319997108561100000000900059871920140419000000001380123704144  000000000014300000000000000000000000000000000000000000000000000000000000000000000000000000000000000000000000000000000                          0000000000                                                                  000017
1020874591800017100000090345100240370REGTIT260799710855456    000000009000598719390000000000000000000000000902110319997108554500000000900059871939140519000000001380123704144  000000000014300000000000000000000000000000000000000000000000000000000000000000000000000000000000000000000000000000000                          0000000000                                                                  000018
1020874591800017100000090345100240370REGTIT2607997105765310   000000009000598719470000000000000000000000000902110319997105765300000000900059871947140319000000002240323704144  000000000014300000000000000000000000000000000000000000000000000000000000000000000000000000000000000000000000000000000                          0000000000                                                                  000019
1020874591800017100000090345100240370REGTIT2607997105799411   000000009000598719550000000000000000000000000902110319997105799400000000900059871955140419000000002240323704144  000000000014300000000000000000000000000000000000000000000000000000000000000000000000000000000000000000000000000000000                          0000000000                                                                  000020
1020874591800017100000090345100240370REGTIT2607996692794216   000000009000598719630000000000000000000000000902110319996692794200000000900059871963120319000000001698023704157  000000000014300000000000000000000000000000000000000000000000000000000000000000000000000000000000000000000000000000000                          0000000000                                                                  000021
1020874591800017100000090345100240370REGTIT2607996692774730   000000009000598719710000000000000000000000000902110319996692774700000000900059871971120419000000001698023704157  000000000014300000000000000000000000000000000000000000000000000000000000000000000000000000000000000000000000000000000                          0000000000                                                                  000022
1020874591800017100000090345100240370REGTIT2607996692776167   0000000090005987198P000000000000000000000000090211031999669277610000000090005987198P120519000000001698023704157  000000000014300000000000000000000000000000000000000000000000000000000000000000000000000000000000000000000000000000000                          0000000000                                                                  000023
1020874591800017100000090345100240370REGTIT2607997187710672   000000009000598719980000000000000000000000000902110319997187710600000000900059871998120319000000003321023704144  000000000014300000000000000000000000000000000000000000000000000000000000000000000000000000000000000000000000000000000                          0000000000                                                                  000024
1020874591800017100000090345100240370REGTIT2607996584770409   000000009000598720050000000000000000000000000902110319996584770400000000900059872005120319000000002622023704144  000000000014300000000000000000000000000000000000000000000000000000000000000000000000000000000000000000000000000000000                          0000000000                                                                  000025
1020874591800017100000090345100240370REGTIT2607996584763626   000000009000598720130000000000000000000000000902110319996584763600000000900059872013120419000000002622023704144  000000000014300000000000000000000000000000000000000000000000000000000000000000000000000000000000000000000000000000000                          0000000000                                                                  000026
1020874591800017100000090345100240370REGTIT2607996763340579   000000009000598720480000000000000000000000000902110319996763340500000000900059872048120319000000001448023704144  000000000014300000000000000000000000000000000000000000000000000000000000000000000000000000000000000000000000000000000                          0000000000                                                                  000027
1020874591800017100000090345100240370REGTIT2607996763327523   000000009000598720560000000000000000000000000902110319996763327500000000900059872056120419000000001448023704144  000000000014300000000000000000000000000000000000000000000000000000000000000000000000000000000000000000000000000000000                          0000000000                                                                  000028
1020874591800017100000090345100240370REGTIT18811811072568     000000000000595649030000000000000000000000000906110319181107256800000000000059564903301118000000000998023701272  000000000000000000000000000000000000000000000000000000000000000000000000000000000000001169400000000017140000000000000   120319035          00000000000000                                                                  000029
1020874591800017100000090345100240370REGTIT22981901064845     000000000000597146970000000000000000000000000906110319190106484500000000000059714697300119000000001848023700426  000000000000000000000000000000000000000000000000000000000000000000000000000000000000001996900000000014890000000000000   120319074          00000000000000                                                                  000030
1020874591800017100000090345100240370REGTIT22981901069891     000000000000597323340000000000000000000000000906110319190106989100000000000059732334300119000000001348034103722  000000000000000000000000000000000000000000000000000000000000000000000000000000000000001454900000000010690000000000000   120319078          00000000000000                                                                  000031
1020874591800017100000090345100240370REGTIT22981901071181     000000000000597381970000000000000000000000000906110319190107118100000000000059738197300119000000000998023705755  000000000000000000000000000000000000000000000000000000000000000000000000000000000000001077900000000007990000000000000   120319035          00000000000000                                                                  000032
1020874591800017100000090345100240370REGTIT22981901072607     000000000000597489820000000000000000000000000906110319190107260700000000000059748982300119000000000998003302190  000000000000000000000000000000000000000000000000000000000000000000000000000000000000001077900000000007990000000000000   120319078          00000000000000                                                                  000033
1020874591800017100000090345100240370REGTIT22981901072638     000000000000597492610000000000000000000000000906110319190107263800000000000059749261300119000000001025034103811  000000000000000000000000000000000000000000000000000000000000000000000000000000000000001105500000000008050000000000000   120319078          00000000000000                                                                  000034
1020874591800017100000090345100240370REGTIT24411902000366     0000000000005979173P000000000000000000000000090611031919020003660000000000005979173P280219000000000846934108622  000000000000000000000000000000000000000000000000000000000000000000000000000000000000000878100000000003120000000000000   120319078          00000000000000                                                                  000035
1020874591800017100000090345100240370REGTIT24411902001110     000000000000597917990000000000000000000000000906110319190200111000000000000059791799280219000000000699010402122  000000000000000000000000000000000000000000000000000000000000000000000000000000000000000723900000000002490000000000000   120319078          00000000000000                                                                  000036
1020874591800017100000090345100240370REGTIT24411902002024     000000000000597918450000000000000000000000000906110319190200202400000000000059791845280219000000000790003300084  000000000000000000000000000000000000000000000000000000000000000000000000000000000000000819000000000002900000000000000   120319078          00000000000000                                                                  000037
1020874591800017100000090345100240370REGTIT24411902006391     000000000000597921670000000000000000000000000906110319190200639100000000000059792167280219000000001348034109313  000000000000000000000000000000000000000000000000000000000000000000000000000000000000001396900000000004890000000000000   120319078          00000000000000                                                                  000038
1020874591800017100000090345100240370REGTIT24411902007765     000000000000597923530000000000000000000000000906110319190200776500000000000059792353280219000000006570323700619  000000000000000000000000000000000000000000000000000000000000000000000000000000000000006810600000000024030000000000000   120319035          00000000000000                                                                  000039
1020874591800017100000090345100240370REGTIT24411902010337     000000000000597925740000000000000000000000000906110319190201033700000000000059792574280219000000002297910400380  000000000000000000000000000000000000000000000000000000000000000000000000000000000000002381200000000008330000000000000   120319078          00000000000000                                                                  000040
1020874591800017100000090345100240370REGTIT24411902014157     000000000000597930070000000000000000000000000906110319190201415700000000000059793007280219000000001598023706606  000000000000000000000000000000000000000000000000000000000000000000000000000000000000001656300000000005830000000000000   120319002          00000000000000                                                                  000041
1020874591800017100000090345100240370REGTIT24411902019076     000000000000597933920000000000000000000000000906110319190201907600000000000059793392280219000000002948310401555  000000000000000000000000000000000000000000000000000000000000000000000000000000000000003055600000000010730000000000000   120319078          00000000000000                                                                  000042
1020874591800017100000090345100240370REGTIT24411902026874     000000000000597941000000000000000000000000000906110319190202687400000000000059794100280219000000002328602100116  000000000000000000000000000000000000000000000000000000000000000000000000000000000000002413600000000008500000000000000   120319078          00000000000000                                                                  000043
1020874591800017100000090345100240370REGTIT24411902033128     0000000000005979464P000000000000000000000000090611031919020331280000000000005979464P280219000000004028703303611  000000000000000000000000000000000000000000000000000000000000000000000000000000000000004175200000000014650000000000000   120319078          00000000000000                                                                  000044
1020874591800017100000090345100240370REGTIT24411902041196     000000000000597954680000000000000000000000000906110319190204119600000000000059795468280219000000001623023705930  000000000000000000000000000000000000000000000000000000000000000000000000000000000000001681800000000005880000000000000   120319035          00000000000000                                                                  000045
1020874591800017100000090345100240370REGTIT24411902044031     000000000000597957940000000000000000000000000906110319190204403100000000000059795794280219000000001200034103377  000000000000000000000000000000000000000000000000000000000000000000000000000000000000001243800000000004380000000000000   120319078          00000000000000                                                                  000046
1020874591800017100000090345100240370REGTIT24411902045732     000000000000597960060000000000000000000000000906110319190204573200000000000059796006280219000000006268903300287  000000000000000000000000000000000000000000000000000000000000000000000000000000000000006497600000000022870000000000000   120319078          00000000000000                                                                  000047
1020874591800017100000090345100240370REGTIT24411902048694     000000000000597963670000000000000000000000000906110319190204869400000000000059796367280219000000002045563300001  000000000000000000000000000000000000000000000000000000000000000000000000000000000000002120500000000007500000000000000   120319078          00000000000000                                                                  000048
1020874591800017100000090345100240370REGTIT24411902049965     000000000000597965610000000000000000000000000906110319190204996500000000000059796561280219000000000799010404126  000000000000000000000000000000000000000000000000000000000000000000000000000000000000000828100000000002910000000000000   120319078          00000000000000                                                                  000049
1020874591800017100000090345100240370REGTIT24411902052990     000000000000597970530000000000000000000000000906110319190205299000000000000059797053280219000000001797034107473  000000000000000000000000000000000000000000000000000000000000000000000000000000000000001862600000000006560000000000000   120319078          00000000000000                                                                  000050
1020874591800017100000090345100240370REGTIT24411902058035     000000000000597980250000000000000000000000000906110319190205803500000000000059798025280219000000003292223700354  000000000000000000000000000000000000000000000000000000000000000000000000000000000000003411900000000011970000000000000   120319035          00000000000000                                                                  000051
1020874591800017100000090345100240370REGTIT24411902058104     0000000000005979805P000000000000000000000000090611031919020581040000000000005979805P280219000000001878023705741  000000000000000000000000000000000000000000000000000000000000000000000000000000000000001946300000000006830000000000000   120319082          00000000000000                                                                  000052
1020874591800017100000090345100240370REGTIT24411902058360     000000000000597981810000000000000000000000000906110319190205836000000000000059798181280219000000003475510403864  000000000000000000000000000000000000000000000000000000000000000000000000000000000000003602200000000012670000000000000   120319078          00000000000000                                                                  000053
1020874591800017100000090345100240370REGTIT24411902058474     000000000000597982380000000000000000000000000906110319190205847400000000000059798238280219000000001551823702635  000000000000000000000000000000000000000000000000000000000000000000000000003517000000001200100000000000000000000000000   120319002          00000000000000                                                                  000054
1020874591800017100000090345100240370REGTIT24411902058552     000000000000597982620000000000000000000000000906110319190205855200000000000059798262280219000000001928023700417  000000000000000000000000000000000000000000000000000000000000000000000000000000000000001998400000000007040000000000000   120319002          00000000000000                                                                  000055
1020874591800017100000090345100240370REGTIT24411902059048     000000000000597985210000000000000000000000000906110319190205904800000000000059798521280219000000001389910404651  000000000000000000000000000000000000000000000000000000000000000000000000000000000000001440700000000005080000000000000   120319078          00000000000000                                                                  000056
1020874591800017100000090345100240370REGTIT24411902059290     000000000000597985800000000000000000000000000906110319190205929000000000000059798580280219000000001928010400380  000000000000000000000000000000000000000000000000000000000000000000000000000000000000001998400000000007040000000000000   120319078          00000000000000                                                                  000057
1020874591800017100000090345100240370REGTIT24411902060584     000000000000597989550000000000000000000000000906110319190206058400000000000059798955280219000000001878034107428  000000000000000000000000000000000000000000000000000000000000000000000000000000000000001946300000000006830000000000000   120319078          00000000000000                                                                  000058
1020874591800017100000090345100240370REGTIT24411902060726     000000000000597990130000000000000000000000000906110319190206072600000000000059799013280219000000001375110401695  000000000000000000000000000000000000000000000000000000000000000000000000000000000000001425700000000005060000000000000   120319078          00000000000000                                                                  000059
1020874591800017100000090345100240370REGTIT24411902061105     0000000000005979920P000000000000000000000000090611031919020611050000000000005979920P280219000000001528023703131  000000000000000000000000000000000000000000000000000000000000000000000000000000000000001583800000000005580000000000000   120319082          00000000000000                                                                  000060
1020874591800017100000090345100240370REGTIT24411902061511     000000000000597993150000000000000000000000000906110319190206151100000000000059799315280219000000002384623701428  000000000000000000000000000000000000000000000000000000000000000000000000000000000000002471800000000008720000000000000   120319035          00000000000000                                                                  000061
1020874591800017100000090345100240370REGTIT24411902062462     000000000000597999000000000000000000000000000906110319190206246200000000000059799900280219000000001798023702248  000000000000000000000000000000000000000000000000000000000000000000000000000000000000001863600000000006560000000000000   120319035          00000000000000                                                                  000062
1020874591800017100000090345100240370REGTIT24411902063085     0000000000005980050P000000000000000000000000090611031919020630850000000000005980050P280219000000001578000101216  000000000000000000000000000000000000000000000000000000000000000000000000000000000000001635900000000005790000000000000   120319078          00000000000000                                                                  000063
1020874591800017100000090345100240370REGTIT24411902063771     000000000000598012470000000000000000000000000906110319190206377100000000000059801247280219000000001448034102774  000000000000000000000000000000000000000000000000000000000000000000000000000000000000001501100000000005310000000000000   120319078          00000000000000                                                                  000064
1020874591800017100000090345100240370REGTIT24411902063802     0000000000005980128P000000000000000000000000090611031919020638020000000000005980128P280219000000001154023701369  000000000000000000000000000000000000000000000000000000000000000000000000000000000000001195700000000004170000000000000   120319035          00000000000000                                                                  000065
1020874591800017100000090345100240370REGTIT24411902063952     0000000000005980145P000000000000000000000000090611031919020639520000000000005980145P280219000000001848023700186  000000000000000000000000000000000000000000000000000000000000000000000000000000000000001915700000000006770000000000000   120319082          00000000000000                                                                  000066
1020874591800017100000090345100240370REGTIT24411902064235     000000000000598019210000000000000000000000000906110319190206423500000000000059801921280219000000001848000101265  000000000000000000000000000000000000000000000000000000000000000000000000000000000000001915700000000006770000000000000   120319078          00000000000000                                                                  000067
1020874591800017100000090345100240370REGTIT24411902064414     000000000000598021030000000000000000000000000906110319190206441400000000000059802103280219000000001299034100083  000000000000000000000000000000000000000000000000000000000000000000000000000000000000001345800000000004680000000000000   120319078          00000000000000                                                                  000068
1020874591800017100000090345100240370REGTIT24411902064472     000000000000598022270000000000000000000000000906110319190206447200000000000059802227280219000000001599010400386  000000000000000000000000000000000000000000000000000000000000000000000000000000000000001657300000000005830000000000000   120319078          00000000000000                                                                  000069
1020874591800017100000090345100240370REGTIT24411902064669     000000000000598025370000000000000000000000000906110319190206466900000000000059802537280219000000001898063300001  000000000000000000000000000000000000000000000000000000000000000000000000000000000000001966700000000006870000000000000   120319078          00000000000000                                                                  000070
1020874591800017100000090345100240370REGTIT24411902064757     000000000000598026930000000000000000000000000906110319190206475700000000000059802693280219000000001848010400382  000000000000000000000000000000000000000000000000000000000000000000000000000000000000001915700000000006770000000000000   120319078          00000000000000                                                                  000071
1020874591800017100000090345100240370REGTIT24411902064845     0000000000005980288P000000000000000000000000090611031919020648450000000000005980288P280219000000001848023700426  000000000000000000000000000000000000000000000000000000000000000000000000000000000000001915700000000006770000000000000   120319074          00000000000000                                                                  000072
1020874591800017100000090345100240370REGTIT24411902065244     000000000000598037110000000000000000000000000906110319190206524400000000000059803711280219000000001778034103730  000000000000000000000000000000000000000000000000000000000000000000000000000000000000001843200000000006520000000000000   120319078          00000000000000                                                                  000073
1020874591800017100000090345100240370REGTIT24411902065273     000000000000598038270000000000000000000000000906110319190206527300000000000059803827280219000000001498023700053  000000000000000000000000000000000000000000000000000000000000000000000000000000000000001552100000000005410000000000000   120319082          00000000000000                                                                  000074
1020874591800017100000090345100240370REGTIT24411902065306     000000000000598039400000000000000000000000000906110319190206530600000000000059803940280219000000001349023706606  000000000000000000000000000000000000000000000000000000000000000000000000000000000000001397900000000004890000000000000   120319035          00000000000000                                                                  000075
1020874591800017100000090345100240370REGTIT24411902065399     0000000000005980422P000000000000000000000000090611031919020653990000000000005980422P280219000000001448010400392  000000000000000000000000000000000000000000000000000000000000000000000000000000000000001501100000000005310000000000000   120319078          00000000000000                                                                  000076
1020874591800017100000090345100240370REGTIT24411902065525     000000000000598045720000000000000000000000000906110319190206552500000000000059804572280219000000001748034103495  000000000000000000000000000000000000000000000000000000000000000000000000000000000000001811500000000006350000000000000   120319078          00000000000000                                                                  000077
1020874591800017100000090345100240370REGTIT24411902065540     000000000000598046450000000000000000000000000906110319190206554000000000000059804645280219000000001748003304646  000000000000000000000000000000000000000000000000000000000000000000000000000000000000001811500000000006350000000000000   120319078          00000000000000                                                                  000078
1020874591800017100000090345100240370REGTIT24411902065725     0000000000005980520P000000000000000000000000090611031919020657250000000000005980520P280219000000001748074807139  000000000000000000000000000000000000000000000000000000000000000000000000000000000000001811500000000006350000000000000   120319078          00000000000000                                                                  000079
1020874591800017100000090345100240370REGTIT24411902065820     000000000000598055360000000000000000000000000906110319190206582000000000000059805536280219000000000699034100566  000000000000000000000000000000000000000000000000000000000000000000000000000000000000000723900000000002490000000000000   120319078          00000000000000                                                                  000080
1020874591800017100000090345100240370REGTIT24411902065894     000000000000598058110000000000000000000000000906110319190206589400000000000059805811280219000000001449010400731  000000000000000000000000000000000000000000000000000000000000000000000000000000000000001502100000000005310000000000000   120319078          00000000000000                                                                  000081
1020874591800017100000090345100240370REGTIT24411902066165     0000000000005980677P000000000000000000000000090611031919020661650000000000005980677P280219000000001748034103822  000000000000000000000000000000000000000000000000000000000000000000000000000000000000001811500000000006350000000000000   120319078          00000000000000                                                                  000082
1020874591800017100000090345100240370REGTIT24411902066178     000000000000598068260000000000000000000000000906110319190206617800000000000059806826280219000000001748010403915  000000000000000000000000000000000000000000000000000000000000000000000000000000000000001811500000000006350000000000000   120319078          00000000000000                                                                  000083
1020874591800017100000090345100240370REGTIT24411902066236     000000000000598070670000000000000000000000000906110319190206623600000000000059807067280219000000001748003303731  000000000000000000000000000000000000000000000000000000000000000000000000000000000000001811500000000006350000000000000   120319078          00000000000000                                                                  000084
1020874591800017100000090345100240370REGTIT24411902066270     000000000000598071990000000000000000000000000906110319190206627000000000000059807199280219000000001698074807014  000000000000000000000000000000000000000000000000000000000000000000000000000000000000001759400000000006140000000000000   120319078          00000000000000                                                                  000085
1020874591800017100000090345100240370REGTIT24411902066289     000000000000598072960000000000000000000000000906110319190206628900000000000059807296280219000000001348003303731  000000000000000000000000000000000000000000000000000000000000000000000000000000000000001396900000000004890000000000000   120319078          00000000000000                                                                  000086
1020874591800017100000090345100240370REGTIT24411902066300     000000000000598073340000000000000000000000000906110319190206630000000000000059807334280219000000001698000105712  000000000000000000000000000000000000000000000000000000000000000000000000000000000000001759400000000006140000000000000   120319078          00000000000000                                                                  000087
1020874591800017100000090345100240370REGTIT24411902066312     000000000000598073930000000000000000000000000906110319190206631200000000000059807393280219000000001528034107473  000000000000000000000000000000000000000000000000000000000000000000000000000000000000001583800000000005580000000000000   120319078          00000000000000                                                                  000088
1020874591800017100000090345100240370REGTIT24411902066375     000000000000598075710000000000000000000000000906110319190206637500000000000059807571280219000000001698010400478  000000000000000000000000000000000000000000000000000000000000000000000000000000000000001759400000000006140000000000000   120319078          00000000000000                                                                  000089
1020874591800017100000090345100240370REGTIT24411902066415     000000000000598077090000000000000000000000000906110319190206641500000000000059807709280219000000001698074807020  000000000000000000000000000000000000000000000000000000000000000000000000000000000000001759400000000006140000000000000   120319078          00000000000000                                                                  000090
1020874591800017100000090345100240370REGTIT24411902066569     000000000000598084380000000000000000000000000906110319190206656900000000000059808438280219000000001448010400913  000000000000000000000000000000000000000000000000000000000000000000000000000000000000001501100000000005310000000000000   120319078          00000000000000                                                                  000091
1020874591800017100000090345100240370REGTIT24411902066622     000000000000598086400000000000000000000000000906110319190206662200000000000059808640280219000000001349023701867  000000000000000000000000000000000000000000000000000000000000000000000000000000000000001397900000000004890000000000000   120319035          00000000000000                                                                  000092
1020874591800017100000090345100240370REGTIT24411902066660     000000000000598088290000000000000000000000000906110319190206666000000000000059808829280219000000001748010400370  000000000000000000000000000000000000000000000000000000000000000000000000000000000000001811500000000006350000000000000   120319078          00000000000000                                                                  000093
1020874591800017100000090345100240370REGTIT24411902066864     000000000000598096390000000000000000000000000906110319190206686400000000000059809639280219000000001548034103833  000000000000000000000000000000000000000000000000000000000000000000000000000000000000001604200000000005620000000000000   120319078          00000000000000                                                                  000094
1020874591800017100000090345100240370REGTIT24411902066891     000000000000598097010000000000000000000000000906110319190206689100000000000059809701280219000000001598003300993  000000000000000000000000000000000000000000000000000000000000000000000000000000000000001656300000000005830000000000000   120319078          00000000000000                                                                  000095
1020874591800017100000090345100240370REGTIT24411902066908     000000000000598097950000000000000000000000000906110319190206690800000000000059809795280219000000001117034103811  000000000000000000000000000000000000000000000000000000000000000000000000000000000000001158000000000004100000000000000   120319078          00000000000000                                                                  000096
1020874591800017100000090345100240370REGTIT24411902066981     000000000000598101300000000000000000000000000906110319190206698100000000000059810130280219000000001348010402122  000000000000000000000000000000000000000000000000000000000000000000000000000000000000001396900000000004890000000000000   120319078          00000000000000                                                                  000097
1020874591800017100000090345100240370REGTIT24411902067037     000000000000598104240000000000000000000000000906110319190206703700000000000059810424280219000000001388223700929  000000000000000000000000000000000000000000000000000000000000000000000000000000000000001439000000000005080000000000000   120319002          00000000000000                                                                  000098
1020874591800017100000090345100240370REGTIT24411902067061     000000000000598105560000000000000000000000000906110319190206706100000000000059810556280219000000001598000102456  000000000000000000000000000000000000000000000000000000000000000000000000005537000000001044300000000000000000000000000   120319078          00000000000000                                                                  000099
1020874591800017100000090345100240370REGTIT24411902067245     000000000000598113310000000000000000000000000906110319190206724500000000000059811331280219000000001598003302167  000000000000000000000000000000000000000000000000000000000000000000000000000000000000001656300000000005830000000000000   120319078          00000000000000                                                                  000100
1020874591800017100000090345100240370REGTIT24411902067303     000000000000598116170000000000000000000000000906110319190206730300000000000059811617280219000000001598010400368  000000000000000000000000000000000000000000000000000000000000000000000000000000000000001656300000000005830000000000000   120319078          00000000000000                                                                  000101
1020874591800017100000090345100240370REGTIT24411902067390     000000000000598119270000000000000000000000000906110319190206739000000000000059811927280219000000001149023700929  000000000000000000000000000000000000000000000000000000000000000000000000000000000000001190600000000004160000000000000   120319014          00000000000000                                                                  000102
1020874591800017100000090345100240370REGTIT24411902067392     000000000000598119350000000000000000000000000906110319190206739200000000000059811935280219000000001598023705903  000000000000000000000000000000000000000000000000000000000000000000000000000000000000001656300000000005830000000000000   120319074          00000000000000                                                                  000103
1020874591800017100000090345100240370REGTIT24411902067544     000000000000598126050000000000000000000000000906110319190206754400000000000059812605280219000000001598034103707  000000000000000000000000000000000000000000000000000000000000000000000000000000000000001656300000000005830000000000000   120319078          00000000000000                                                                  000104
1020874591800017100000090345100240370REGTIT24411902067549     000000000000598126210000000000000000000000000906110319190206754900000000000059812621280219000000001099003301609  000000000000000000000000000000000000000000000000000000000000000000000000000000000000001138500000000003950000000000000   120319078          00000000000000                                                                  000105
1020874591800017100000090345100240370REGTIT24411902067561     000000000000598126720000000000000000000000000906110319190206756100000000000059812672280219000000001598010402974  000000000000000000000000000000000000000000000000000000000000000000000000000000000000001656300000000005830000000000000   120319078          00000000000000                                                                  000106
1020874591800017100000090345100240370REGTIT24411902067594     000000000000598128420000000000000000000000000906110319190206759400000000000059812842280219000000001467923702157  000000000000000000000000000000000000000000000000000000000000000000000000000000000000001521400000000005350000000000000   120319002          00000000000000                                                                  000107
1020874591800017100000090345100240370REGTIT24411902067597     000000000000598128690000000000000000000000000906110319190206759700000000000059812869280219000000001598003304296  000000000000000000000000000000000000000000000000000000000000000000000000000000000000001656300000000005830000000000000   120319078          00000000000000                                                                  000108
1020874591800017100000090345100240370REGTIT24411902067647     000000000000598130320000000000000000000000000906110319190206764700000000000059813032280219000000001598023702596  000000000000000000000000000000000000000000000000000000000000000000000000000000000000001656300000000005830000000000000   120319066          00000000000000                                                                  000109
1020874591800017100000090345100240370REGTIT24411902067778     000000000000598134580000000000000000000000000906110319190206777800000000000059813458280219000000001499010403414  000000000000000000000000000000000000000000000000000000000000000000000000000000000000001553100000000005410000000000000   120319078          00000000000000                                                                  000110
1020874591800017100000090345100240370REGTIT24411902067955     000000000000598138490000000000000000000000000906110319190206795500000000000059813849280219000000001598010400375  000000000000000000000000000000000000000000000000000000000000000000000000000000000000001656300000000005830000000000000   120319078          00000000000000                                                                  000111
1020874591800017100000090345100240370REGTIT24411902067970     000000000000598139110000000000000000000000000906110319190206797000000000000059813911280219000000001598000100030  000000000000000000000000000000000000000000000000000000000000000000000000000000000000001656300000000005830000000000000   120319078          00000000000000                                                                  000112
1020874591800017100000090345100240370REGTIT24411902068024     000000000000598140630000000000000000000000000906110319190206802400000000000059814063280219000000001598034100158  000000000000000000000000000000000000000000000000000000000000000000000000000000000000001656300000000005830000000000000   120319078          00000000000000                                                                  000113
1020874591800017100000090345100240370REGTIT24411902068044     000000000000598141520000000000000000000000000906110319190206804400000000000059814152280219000000001598034107454  000000000000000000000000000000000000000000000000000000000000000000000000000000000000001656300000000005830000000000000   120319078          00000000000000                                                                  000114
1020874591800017100000090345100240370REGTIT24411902068100     000000000000598143060000000000000000000000000906110319190206810000000000000059814306280219000000001598000104755  000000000000000000000000000000000000000000000000000000000000000000000000000000000000001656300000000005830000000000000   120319078          00000000000000                                                                  000115
1020874591800017100000090345100240370REGTIT24411902068258     000000000000598148450000000000000000000000000906110319190206825800000000000059814845280219000000001448023705901  000000000000000000000000000000000000000000000000000000000000000000000000000000000000001501100000000005310000000000000   120319035          00000000000000                                                                  000116
1020874591800017100000090345100240370REGTIT24411902068306     000000000000598150350000000000000000000000000906110319190206830600000000000059815035280219000000001448004100073  000000000000000000000000000000000000000000000000000000000000000000000000000000000000001501100000000005310000000000000   120319078          00000000000000                                                                  000117
1020874591800017100000090345100240370REGTIT24411902068350     000000000000598151750000000000000000000000000906110319190206835000000000000059815175280219000000001460534107454  000000000000000000000000000000000000000000000000000000000000000000000000000000000000001513900000000005340000000000000   120319078          00000000000000                                                                  000118
1020874591800017100000090345100240370REGTIT24411902068605     000000000000598159650000000000000000000000000906110319190206860500000000000059815965280219000000000949010403915  000000000000000000000000000000000000000000000000000000000000000000000000000000000000000983300000000003430000000000000   120319078          00000000000000                                                                  000119
1020874591800017100000090345100240370REGTIT24411902068682     000000000000598162010000000000000000000000000906110319190206868200000000000059816201280219000000001448003301552  000000000000000000000000000000000000000000000000000000000000000000000000000000000000001501100000000005310000000000000   120319078          00000000000000                                                                  000120
1020874591800017100000090345100240370REGTIT24411902068697     000000000000598162600000000000000000000000000906110319190206869700000000000059816260280219000000001448000105970  000000000000000000000000000000000000000000000000000000000000000000000000000000000000001501100000000005310000000000000   120319078          00000000000000                                                                  000121
1020874591800017100000090345100240370REGTIT24411902068723     000000000000598163330000000000000000000000000906110319190206872300000000000059816333280219000000001011834102947  000000000000000000000000000000000000000000000000000000000000000000000000000000000000001048500000000003670000000000000   120319078          00000000000000                                                                  000122
1020874591800017100000090345100240370REGTIT24411902068832     000000000000598166940000000000000000000000000906110319190206883200000000000059816694280219000000001448010403866  000000000000000000000000000000000000000000000000000000000000000000000000000000000000001501100000000005310000000000000   120319078          00000000000000                                                                  000123
1020874591800017100000090345100240370REGTIT24411902068869     000000000000598168210000000000000000000000000906110319190206886900000000000059816821280219000000001448023703158  000000000000000000000000000000000000000000000000000000000000000000000000000000000000001501100000000005310000000000000   120319082          00000000000000                                                                  000124
1020874591800017100000090345100240370REGTIT24411902068906     000000000000598169020000000000000000000000000906110319190206890600000000000059816902280219000000001249023703158  000000000000000000000000000000000000000000000000000000000000000000000000000000000000001294800000000004580000000000000   120319082          00000000000000                                                                  000125
1020874591800017100000090345100240370REGTIT24411902069029     000000000000598171780000000000000000000000000906110319190206902900000000000059817178280219000000001099023705749  000000000000000000000000000000000000000000000000000000000000000000000000000000000000001138500000000003950000000000000   120319066          00000000000000                                                                  000126
1020874591800017100000090345100240370REGTIT24411902069065     000000000000598173210000000000000000000000000906110319190206906500000000000059817321280219000000001249023703949  000000000000000000000000000000000000000000000000000000000000000000000000000000000000001294800000000004580000000000000   120319082          00000000000000                                                                  000127
1020874591800017100000090345100240370REGTIT24411902069198     0000000000005981778P000000000000000000000000090611031919020691980000000000005981778P280219000000001448034105650  000000000000000000000000000000000000000000000000000000000000000000000000000000000000001501100000000005310000000000000   120319078          00000000000000                                                                  000128
1020874591800017100000090345100240370REGTIT24411902069264     000000000000598179170000000000000000000000000906110319190206926400000000000059817917280219000000001139034108116  000000000000000000000000000000000000000000000000000000000000000000000000000000000000001180400000000004140000000000000   120319078          00000000000000                                                                  000129
1020874591800017100000090345100240370REGTIT24411902069312     000000000000598180850000000000000000000000000906110319190206931200000000000059818085280219000000001448008500109  000000000000000000000000000000000000000000000000000000000000000000000000000000000000001501100000000005310000000000000   120319078          00000000000000                                                                  000130
1020874591800017100000090345100240370REGTIT24411902069373     000000000000598182630000000000000000000000000906110319190206937300000000000059818263280219000000001633003300968  000000000000000000000000000000000000000000000000000000000000000000000000000000000000001692000000000005900000000000000   120319078          00000000000000                                                                  000131
1020874591800017100000090345100240370REGTIT24411902069443     000000000000598184920000000000000000000000000906110319190206944300000000000059818492280219000000001149010401482  000000000000000000000000000000000000000000000000000000000000000000000000000000000000001190600000000004160000000000000   120319078          00000000000000                                                                  000132
1020874591800017100000090345100240370REGTIT24411902069459     000000000000598185220000000000000000000000000906110319190206945900000000000059818522280219000000001448034102929  000000000000000000000000000000000000000000000000000000000000000000000000000000000000001501100000000005310000000000000   120319078          00000000000000                                                                  000133
1020874591800017100000090345100240370REGTIT24411902069551     000000000000598187860000000000000000000000000906110319190206955100000000000059818786280219000000001448023706472  000000000000000000000000000000000000000000000000000000000000000000000000000000000000001501100000000005310000000000000   120319002          00000000000000                                                                  000134
1020874591800017100000090345100240370REGTIT24411902069634     000000000000598191030000000000000000000000000906110319190206963400000000000059819103280219000000001348000101622  000000000000000000000000000000000000000000000000000000000000000000000000000000000000001396900000000004890000000000000   120319078          00000000000000                                                                  000135
1020874591800017100000090345100240370REGTIT24411902069783     000000000000598196930000000000000000000000000906110319190206978300000000000059819693280219000000001050075604368  000000000000000000000000000000000000000000000000000000000000000000000000000000000000001088600000000003860000000000000   120319078          00000000000000                                                                  000136
1020874591800017100000090345100240370REGTIT24411902069823     000000000000598198390000000000000000000000000906110319190206982300000000000059819839280219000000001686934103730  000000000000000000000000000000000000000000000000000000000000000000000000000000000000001748100000000006120000000000000   120319078          00000000000000                                                                  000137
1020874591800017100000090345100240370REGTIT24411902069844     0000000000005981991P000000000000000000000000090611031919020698440000000000005981991P280219000000000799010401633  000000000000000000000000000000000000000000000000000000000000000000000000000000000000000828100000000002910000000000000   120319078          00000000000000                                                                  000138
1020874591800017100000090345100240370REGTIT24411902069891     000000000000598200390000000000000000000000000906110319190206989100000000000059820039280219000000001348034103722  000000000000000000000000000000000000000000000000000000000000000000000000000000000000001396900000000004890000000000000   120319078          00000000000000                                                                  000139
1020874591800017100000090345100240370REGTIT24411902069912     0000000000005982011P000000000000000000000000090611031919020699120000000000005982011P280219000000001547023703135  000000000000000000000000000000000000000000000000000000000000000000000000000000000000001603200000000005620000000000000   120319035          00000000000000                                                                  000140
1020874591800017100000090345100240370REGTIT24411902069914     000000000000598201280000000000000000000000000906110319190206991400000000000059820128280219000000001348010400441  000000000000000000000000000000000000000000000000000000000000000000000000000000000000001396900000000004890000000000000   120319078          00000000000000                                                                  000141
1020874591800017100000090345100240370REGTIT24411902069982     000000000000598203140000000000000000000000000906110319190206998200000000000059820314280219000000001483010402975  000000000000000000000000000000000000000000000000000000000000000000000000000000000000001536800000000005380000000000000   120319078          00000000000000                                                                  000142
1020874591800017100000090345100240370REGTIT24411902070016     000000000000598204890000000000000000000000000906110319190207001600000000000059820489280219000000000999004100165  000000000000000000000000000000000000000000000000000000000000000000000000000000000000001035400000000003640000000000000   120319078          00000000000000                                                                  000143
1020874591800017100000090345100240370REGTIT24411902070035     000000000000598205780000000000000000000000000906110319190207003500000000000059820578280219000000000899010403556  000000000000000000000000000000000000000000000000000000000000000000000000000000000000000931200000000003220000000000000   120319078          00000000000000                                                                  000144
1020874591800017100000090345100240370REGTIT24411902070206     000000000000598212560000000000000000000000000906110319190207020600000000000059821256280219000000001049010400374  000000000000000000000000000000000000000000000000000000000000000000000000000000000000001087500000000003850000000000000   120319078          00000000000000                                                                  000145
1020874591800017100000090345100240370REGTIT24411902070282     000000000000598215580000000000000000000000000906110319190207028200000000000059821558280219000000001348000104314  000000000000000000000000000000000000000000000000000000000000000000000000000000000000001396900000000004890000000000000   120319078          00000000000000                                                                  000146
1020874591800017100000090345100240370REGTIT24411902070409     0000000000005982204P000000000000000000000000090611031919020704090000000000005982204P280219000000001325023706378  000000000000000000000000000000000000000000000000000000000000000000000000000000000000001373500000000004850000000000000   120319002          00000000000000                                                                  000147
1020874591800017100000090345100240370REGTIT24411902070442     0000000000005982218P000000000000000000000000090611031919020704420000000000005982218P280219000000001348034103770  000000000000000000000000000000000000000000000000000000000000000000000000000000000000001396900000000004890000000000000   120319078          00000000000000                                                                  000148
1020874591800017100000090345100240370REGTIT24411902070465     000000000000598222440000000000000000000000000906110319190207046500000000000059822244280219000000001149034101538  000000000000000000000000000000000000000000000000000000000000000000000000000000000000001190600000000004160000000000000   120319078          00000000000000                                                                  000149
1020874591800017100000090345100240370REGTIT24411902070466     000000000000598222520000000000000000000000000906110319190207046600000000000059822252280219000000001149034101538  000000000000000000000000000000000000000000000000000000000000000000000000000000000000001190600000000004160000000000000   120319078          00000000000000                                                                  000150
1020874591800017100000090345100240370REGTIT24411902070536     000000000000598225380000000000000000000000000906110319190207053600000000000059822538280219000000001149007700001  000000000000000000000000000000000000000000000000000000000000000000000000000000000000001190600000000004160000000000000   120319078          00000000000000                                                                  000151
1020874591800017100000090345100240370REGTIT24411902070579     000000000000598227590000000000000000000000000906110319190207057900000000000059822759280219000000001348004100085  000000000000000000000000000000000000000000000000000000000000000000000000000000000000001396900000000004890000000000000   120319078          00000000000000                                                                  000152
1020874591800017100000090345100240370REGTIT24411902070595     000000000000598228560000000000000000000000000906110319190207059500000000000059822856280219000000001348003301002  000000000000000000000000000000000000000000000000000000000000000000000000000000000000001396900000000004890000000000000   120319078          00000000000000                                                                  000153
1020874591800017100000090345100240370REGTIT24411902070679     000000000000598232240000000000000000000000000906110319190207067900000000000059823224280219000000000944223700926  000000000000000000000000000000000000000000000000000000000000000000000000000000000000000978400000000003420000000000000   120319082          00000000000000                                                                  000154
1020874591800017100000090345100240370REGTIT24411902070684     000000000000598232590000000000000000000000000906110319190207068400000000000059823259280219000000001249034107222  000000000000000000000000000000000000000000000000000000000000000000000000000000000000001294800000000004580000000000000   120319078          00000000000000                                                                  000155
1020874591800017100000090345100240370REGTIT24411902070783     000000000000598236310000000000000000000000000906110319190207078300000000000059823631280219000000001348034102775  000000000000000000000000000000000000000000000000000000000000000000000000000000000000001396900000000004890000000000000   120319078          00000000000000                                                                  000156
1020874591800017100000090345100240370REGTIT24411902070795     000000000000598237200000000000000000000000000906110319190207079500000000000059823720280219000000001348010401282  000000000000000000000000000000000000000000000000000000000000000000000000000000000000001396900000000004890000000000000   120319078          00000000000000                                                                  000157
1020874591800017100000090345100240370REGTIT24411902070937     000000000000598243520000000000000000000000000906110319190207093700000000000059824352280219000000001348074807219  000000000000000000000000000000000000000000000000000000000000000000000000000000000000001396900000000004890000000000000   120319078          00000000000000                                                                  000158
1020874591800017100000090345100240370REGTIT24411902070940     000000000000598243790000000000000000000000000906110319190207094000000000000059824379280219000000001348010400788  000000000000000000000000000000000000000000000000000000000000000000000000000000000000001396900000000004890000000000000   120319078          00000000000000                                                                  000159
1020874591800017100000090345100240370REGTIT24411902070977     0000000000005982459P000000000000000000000000090611031919020709770000000000005982459P280219000000001098004100643  000000000000000000000000000000000000000000000000000000000000000000000000000000000000001137500000000003950000000000000   120319078          00000000000000                                                                  000160
1020874591800017100000090345100240370REGTIT24411902071077     000000000000598251110000000000000000000000000906110319190207107700000000000059825111280219000000000162003302044  000000000000000000000000000000000000000000000000000000000000000000000000000000000000000167400000000000540000000000000   120319078          00000000000000                                                                  000161
1020874591800017100000090345100240370REGTIT24411902071078     0000000000005982512P000000000000000000000000090611031919020710780000000000005982512P280219000000000998003301649  000000000000000000000000000000000000000000000000000000000000000000000000000000000000001034400000000003640000000000000   120319078          00000000000000                                                                  000162
1020874591800017100000090345100240370REGTIT24411902071089     000000000000598252270000000000000000000000000906110319190207108900000000000059825227280219000000000998010402863  000000000000000000000000000000000000000000000000000000000000000000000000000000000000001034400000000003640000000000000   120319078          00000000000000                                                                  000163
1020874591800017100000090345100240370REGTIT24411902071123     000000000000598253750000000000000000000000000906110319190207112300000000000059825375280219000000000998000105783  000000000000000000000000000000000000000000000000000000000000000000000000000000000000001034400000000003640000000000000   120319078          00000000000000                                                                  000164
1020874591800017100000090345100240370REGTIT24411902071134     000000000000598254130000000000000000000000000906110319190207113400000000000059825413280219000000000998003304646  000000000000000000000000000000000000000000000000000000000000000000000000000000000000001034400000000003640000000000000   120319078          00000000000000                                                                  000165
1020874591800017100000090345100240370REGTIT24411902071151     000000000000598254800000000000000000000000000906110319190207115100000000000059825480280219000000000799034101656  000000000000000000000000000000000000000000000000000000000000000000000000000000000000000828100000000002910000000000000   120319078          00000000000000                                                                  000166
1020874591800017100000090345100240370REGTIT24411902071167     000000000000598255370000000000000000000000000906110319190207116700000000000059825537280219000000000998010400393  000000000000000000000000000000000000000000000000000000000000000000000000000000000000001034400000000003640000000000000   120319078          00000000000000                                                                  000167
1020874591800017100000090345100240370REGTIT24411902071181     0000000000005982560P000000000000000000000000090611031919020711810000000000005982560P280219000000000998023705755  000000000000000000000000000000000000000000000000000000000000000000000000000000000000001034400000000003640000000000000   120319035          00000000000000                                                                  000168
1020874591800017100000090345100240370REGTIT24411902071193     000000000000598257150000000000000000000000000906110319190207119300000000000059825715280219000000000998004100041  000000000000000000000000000000000000000000000000000000000000000000000000000000000000001034400000000003640000000000000   120319078          00000000000000                                                                  000169
1020874591800017100000090345100240370REGTIT24411902071287     000000000000598263200000000000000000000000000906110319190207128700000000000059826320280219000000000799010401266  000000000000000000000000000000000000000000000000000000000000000000000000000000000000000828100000000002910000000000000   120319078          00000000000000                                                                  000170
1020874591800017100000090345100240370REGTIT24411902071304     000000000000598264520000000000000000000000000906110319190207130400000000000059826452280219000000000750010401266  000000000000000000000000000000000000000000000000000000000000000000000000000000000000000777100000000002710000000000000   120319078          00000000000000                                                                  000171
1020874591800017100000090345100240370REGTIT24411902071305     000000000000598264600000000000000000000000000906110319190207130500000000000059826460280219000000000750010401266  000000000000000000000000000000000000000000000000000000000000000000000000000000000000000777100000000002710000000000000   120319078          00000000000000                                                                  000172
1020874591800017100000090345100240370REGTIT24411902071320     000000000000598265760000000000000000000000000906110319190207132000000000000059826576280219000000001733010402863  000000000000000000000000000000000000000000000000000000000000000000000000000000000000001796200000000006320000000000000   120319078          00000000000000                                                                  000173
1020874591800017100000090345100240370REGTIT24411902071390     0000000000005982705P000000000000000000000000090611031919020713900000000000005982705P280219000000001590010403521  000000000000000000000000000000000000000000000000000000000000000000000000000000000000001648200000000005820000000000000   120319078          00000000000000                                                                  000174
1020874591800017100000090345100240370REGTIT24411902071404     000000000000598271490000000000000000000000000906110319190207140400000000000059827149280219000000000998010400375  000000000000000000000000000000000000000000000000000000000000000000000000000000000000001034400000000003640000000000000   120319078          00000000000000                                                                  000175
1020874591800017100000090345100240370REGTIT24411902071405     000000000000598271570000000000000000000000000906110319190207140500000000000059827157280219000000000799010400406  000000000000000000000000000000000000000000000000000000000000000000000000000000000000000828100000000002910000000000000   120319078          00000000000000                                                                  000176
1020874591800017100000090345100240370REGTIT24411902071411     0000000000005982719P000000000000000000000000090611031919020714110000000000005982719P280219000000000998034104080  000000000000000000000000000000000000000000000000000000000000000000000000000000000000001034400000000003640000000000000   120319078          00000000000000                                                                  000177
1020874591800017100000090345100240370REGTIT24411902071505     000000000000598277500000000000000000000000000906110319190207150500000000000059827750280219000000000998003304406  000000000000000000000000000000000000000000000000000000000000000000000000000000000000001034400000000003640000000000000   120319078          00000000000000                                                                  000178
1020874591800017100000090345100240370REGTIT24411902071534     000000000000598279550000000000000000000000000906110319190207153400000000000059827955280219000000001368010400371  000000000000000000000000000000000000000000000000000000000000000000000000000000000000001418400000000005040000000000000   120319078          00000000000000                                                                  000179
1020874591800017100000090345100240370REGTIT24411902071602     000000000000598283660000000000000000000000000906110319190207160200000000000059828366280219000000000998034103707  000000000000000000000000000000000000000000000000000000000000000000000000000000000000001034400000000003640000000000000   120319078          00000000000000                                                                  000180
1020874591800017100000090345100240370REGTIT24411902071667     000000000000598288030000000000000000000000000906110319190207166700000000000059828803280219000000000898010400403  000000000000000000000000000000000000000000000000000000000000000000000000000000000000000930200000000003220000000000000   120319078          00000000000000                                                                  000181
1020874591800017100000090345100240370REGTIT24411902071668     000000000000598288110000000000000000000000000906110319190207166800000000000059828811280219000000000998023703131  000000000000000000000000000000000000000000000000000000000000000000000000000000000000001034400000000003640000000000000   120319035          00000000000000                                                                  000182
1020874591800017100000090345100240370REGTIT24411902071677     000000000000598288540000000000000000000000000906110319190207167700000000000059828854280219000000000649023702933  000000000000000000000000000000000000000000000000000000000000000000000000000000000000000672900000000002390000000000000   120319035          00000000000000                                                                  000183
1020874591800017100000090345100240370REGTIT24411902071689     000000000000598289430000000000000000000000000906110319190207168900000000000059828943280219000000000499023702607  000000000000000000000000000000000000000000000000000000000000000000000000000000000000000516600000000001760000000000000   120319074          00000000000000                                                                  000184
1020874591800017100000090345100240370REGTIT24411902071722     000000000000598291840000000000000000000000000906110319190207172200000000000059829184280219000000000853003302102  000000000000000000000000000000000000000000000000000000000000000000000000000000000000000884300000000003130000000000000   120319078          00000000000000                                                                  000185
1020874591800017100000090345100240370REGTIT24411902071858     000000000000598300420000000000000000000000000906110319190207185800000000000059830042280219000000000699003304453  000000000000000000000000000000000000000000000000000000000000000000000000000000000000000723900000000002490000000000000   120319078          00000000000000                                                                  000186
1020874591800017100000090345100240370REGTIT24411902071861     000000000000598300770000000000000000000000000906110319190207186100000000000059830077280219000000001120010402937  000000000000000000000000000000000000000000000000000000000000000000000000000000000000001161100000000004110000000000000   120319078          00000000000000                                                                  000187
1020874591800017100000090345100240370REGTIT24411902071865     000000000000598301070000000000000000000000000906110319190207186500000000000059830107280219000000000998010403509  000000000000000000000000000000000000000000000000000000000000000000000000000000000000001034400000000003640000000000000   120319078          00000000000000                                                                  000188
1020874591800017100000090345100240370REGTIT24411902071958     000000000000598308160000000000000000000000000906110319190207195800000000000059830816280219000000001311510403342  000000000000000000000000000000000000000000000000000000000000000000000000000000000000001359700000000004820000000000000   120319078          00000000000000                                                                  000189
1020874591800017100000090345100240370REGTIT24411902071973     000000000000598309480000000000000000000000000906110319190207197300000000000059830948280219000000000998003300993  000000000000000000000000000000000000000000000000000000000000000000000000000000000000001034400000000003640000000000000   120319078          00000000000000                                                                  000190
1020874591800017100000090345100240370REGTIT24411902071995     000000000000598311030000000000000000000000000906110319190207199500000000000059831103280219000000000799010403414  000000000000000000000000000000000000000000000000000000000000000000000000000000000000000828100000000002910000000000000   120319078          00000000000000                                                                  000191
1020874591800017100000090345100240370REGTIT24411902072028     000000000000598313750000000000000000000000000906110319190207202800000000000059831375280219000000000998034109926  000000000000000000000000000000000000000000000000000000000000000000000000000000000000001034400000000003640000000000000   120319078          00000000000000                                                                  000192
1020874591800017100000090345100240370REGTIT24411902072056     0000000000005983157P000000000000000000000000090611031919020720560000000000005983157P280219000000001106023706633  000000000000000000000000000000000000000000000000000000000000000000000000000000000000001146800000000004080000000000000   120319074          00000000000000                                                                  000193
1020874591800017100000090345100240370REGTIT24411902072074     000000000000598317150000000000000000000000000906110319190207207400000000000059831715280219000000000998003300814  000000000000000000000000000000000000000000000000000000000000000000000000000000000000001034400000000003640000000000000   120319078          00000000000000                                                                  000194
1020874591800017100000090345100240370REGTIT24411902072117     000000000000598319520000000000000000000000000906110319190207211700000000000059831952280219000000000998003300813  000000000000000000000000000000000000000000000000000000000000000000000000000000000000001034400000000003640000000000000   120319078          00000000000000                                                                  000195
1020874591800017100000090345100240370REGTIT24411902072142     000000000000598321420000000000000000000000000906110319190207214200000000000059832142280219000000001197023703051  000000000000000000000000000000000000000000000000000000000000000000000000000000000000001240700000000004370000000000000   120319066          00000000000000                                                                  000196
1020874591800017100000090345100240370REGTIT24411902072168     000000000000598323200000000000000000000000000906110319190207216800000000000059832320280219000000000998003300814  000000000000000000000000000000000000000000000000000000000000000000000000000000000000001034400000000003640000000000000   120319078          00000000000000                                                                  000197
1020874591800017100000090345100240370REGTIT24411902072226     000000000000598327540000000000000000000000000906110319190207222600000000000059832754280219000000000998003301552  000000000000000000000000000000000000000000000000000000000000000000000000000000000000001034400000000003640000000000000   120319078          00000000000000                                                                  000198
1020874591800017100000090345100240370REGTIT24411902072230     000000000000598327700000000000000000000000000906110319190207223000000000000059832770280219000000000256034109282  000000000000000000000000000000000000000000000000000000000000000000000000000000000000000265500000000000950000000000000   120319078          00000000000000                                                                  000199
1020874591800017100000090345100240370REGTIT24411902072320     000000000000598334670000000000000000000000000906110319190207232000000000000059833467280219000000000998010403460  000000000000000000000000000000000000000000000000000000000000000000000000000000000000001034400000000003640000000000000   120319078          00000000000000                                                                  000200
1020874591800017100000090345100240370REGTIT24411902072323     000000000000598334910000000000000000000000000906110319190207232300000000000059833491280219000000001515934102947  000000000000000000000000000000000000000000000000000000000000000000000000000000000000001571500000000005560000000000000   120319078          00000000000000                                                                  000201
1020874591800017100000090345100240370REGTIT24411902072324     000000000000598335050000000000000000000000000906110319190207232400000000000059833505280219000000000998003301103  000000000000000000000000000000000000000000000000000000000000000000000000000000000000001034400000000003640000000000000   120319078          00000000000000                                                                  000202
1020874591800017100000090345100240370REGTIT24411902072355     000000000000598337340000000000000000000000000906110319190207235500000000000059833734280219000000000699010403342  000000000000000000000000000000000000000000000000000000000000000000000000000000000000000723900000000002490000000000000   120319078          00000000000000                                                                  000203
1020874591800017100000090345100240370REGTIT24411902072397     000000000000598340720000000000000000000000000906110319190207239700000000000059834072280219000000002386010400381  000000000000000000000000000000000000000000000000000000000000000000000000000000000000002473300000000008730000000000000   120319078          00000000000000                                                                  000204
1020874591800017100000090345100240370REGTIT24411902072458     000000000000598345010000000000000000000000000906110319190207245800000000000059834501280219000000000699034107501  000000000000000000000000000000000000000000000000000000000000000000000000000000000000000723900000000002490000000000000   120319078          00000000000000                                                                  000205
1020874591800017100000090345100240370REGTIT24411902072504     000000000000598348460000000000000000000000000906110319190207250400000000000059834846280219000000000998034108488  000000000000000000000000000000000000000000000000000000000000000000000000000000000000001034400000000003640000000000000   120319078          00000000000000                                                                  000206
1020874591800017100000090345100240370REGTIT24411902072513     000000000000598349270000000000000000000000000906110319190207251300000000000059834927280219000000000799000101547  000000000000000000000000000000000000000000000000000000000000000000000000000000000000000828100000000002910000000000000   120319078          00000000000000                                                                  000207
1020874591800017100000090345100240370REGTIT24411902072533     000000000000598350950000000000000000000000000906110319190207253300000000000059835095280219000000000799003302102  000000000000000000000000000000000000000000000000000000000000000000000000000000000000000828100000000002910000000000000   120319078          00000000000000                                                                  000208
1020874591800017100000090345100240370REGTIT24411902072543     000000000000598351760000000000000000000000000906110319190207254300000000000059835176280219000000001465000103845  000000000000000000000000000000000000000000000000000000000000000000000000000000000000001518500000000005350000000000000   120319078          00000000000000                                                                  000209
1020874591800017100000090345100240370REGTIT24411902072558     000000000000598353030000000000000000000000000906110319190207255800000000000059835303280219000000001396003300823  000000000000000000000000000000000000000000000000000000000000000000000000000000000000001447000000000005100000000000000   120319078          00000000000000                                                                  000210
1020874591800017100000090345100240370REGTIT24411902072566     000000000000598353700000000000000000000000000906110319190207256600000000000059835370280219000000000998010400517  000000000000000000000000000000000000000000000000000000000000000000000000000000000000001034400000000003640000000000000   120319078          00000000000000                                                                  000211
1020874591800017100000090345100240370REGTIT24411902072607     000000000000598356640000000000000000000000000906110319190207260700000000000059835664280219000000000998003302190  000000000000000000000000000000000000000000000000000000000000000000000000000000000000001034400000000003640000000000000   120319078          00000000000000                                                                  000212
1020874591800017100000090345100240370REGTIT24411902072638     000000000000598359230000000000000000000000000906110319190207263800000000000059835923280219000000000998034103811  000000000000000000000000000000000000000000000000000000000000000000000000000000000000001034400000000003640000000000000   120319078          00000000000000                                                                  000213
1020874591800017100000090345100240370REGTIT24411902072641     000000000000598359580000000000000000000000000906110319190207264100000000000059835958280219000000001480503303889  000000000000000000000000000000000000000000000000000000000000000000000000000000000000001534300000000005380000000000000   120319078          00000000000000                                                                  000214
1020874591800017100000090345100240370REGTIT24411902072664     000000000000598361640000000000000000000000000906110319190207266400000000000059836164280219000000000998023701867  000000000000000000000000000000000000000000000000000000000000000000000000000000000000001034400000000003640000000000000   120319035          00000000000000                                                                  000215
1020874591800017100000090345100240370REGTIT24411902072681     000000000000598363180000000000000000000000000906110319190207268100000000000059836318280219000000000998034107222  000000000000000000000000000000000000000000000000000000000000000000000000000000000000001034400000000003640000000000000   120319078          00000000000000                                                                  000216
1020874591800017100000090345100240370REGTIT24411902072684     000000000000598363420000000000000000000000000906110319190207268400000000000059836342280219000000000998003303407  000000000000000000000000000000000000000000000000000000000000000000000000000000000000001034400000000003640000000000000   120319078          00000000000000                                                                  000217
1020874591800017100000090345100240370REGTIT24411902072697     000000000000598364740000000000000000000000000906110319190207269700000000000059836474280219000000001010510401266  000000000000000000000000000000000000000000000000000000000000000000000000000000000000001047200000000003670000000000000   120319078          00000000000000                                                                  000218
1020874591800017100000090345100240370REGTIT24411902072708     000000000000598365710000000000000000000000000906110319190207270800000000000059836571280219000000000914003303335  000000000000000000000000000000000000000000000000000000000000000000000000000000000000000947600000000003360000000000000   120319078          00000000000000                                                                  000219
1020874591800017100000090345100240370REGTIT24411902072720     000000000000598366600000000000000000000000000906110319190207272000000000000059836660280219000000000998003303589  000000000000000000000000000000000000000000000000000000000000000000000000000000000000001034400000000003640000000000000   120319078          00000000000000                                                                  000220
1020874591800017100000090345100240370REGTIT24411902072755     000000000000598369540000000000000000000000000906110319190207275500000000000059836954280219000000000799010400385  000000000000000000000000000000000000000000000000000000000000000000000000000000000000000828100000000002910000000000000   120319078          00000000000000                                                                  000221
1020874591800017100000090345100240370REGTIT24411902072775     000000000000598371360000000000000000000000000906110319190207277500000000000059837136280219000000000998023705749  000000000000000000000000000000000000000000000000000000000000000000000000000000000000001034400000000003640000000000000   120319035          00000000000000                                                                  000222
1020874591800017100000090345100240370REGTIT24411902072788     0000000000005983725P000000000000000000000000090611031919020727880000000000005983725P280219000000000899003300950  000000000000000000000000000000000000000000000000000000000000000000000000000000000000000931200000000003220000000000000   120319078          00000000000000                                                                  000223
1020874591800017100000090345100240370REGTIT24411902072810     000000000000598374460000000000000000000000000906110319190207281000000000000059837446280219000000000998010400398  000000000000000000000000000000000000000000000000000000000000000000000000000000000000001034400000000003640000000000000   120319078          00000000000000                                                                  000224
1020874591800017100000090345100240370REGTIT24411902072819     000000000000598375350000000000000000000000000906110319190207281900000000000059837535280219000000000799010403509  000000000000000000000000000000000000000000000000000000000000000000000000000000000000000828100000000002910000000000000   120319078          00000000000000                                                                  000225
1020874591800017100000090345100240370REGTIT24411902072835     000000000000598376910000000000000000000000000906110319190207283500000000000059837691280219000000000998010400394  000000000000000000000000000000000000000000000000000000000000000000000000000000000000001034400000000003640000000000000   120319078          00000000000000                                                                  000226
1020874591800017100000090345100240370REGTIT24411902072857     000000000000598378880000000000000000000000000906110319190207285700000000000059837888280219000000000998010403387  000000000000000000000000000000000000000000000000000000000000000000000000000000000000001034400000000003640000000000000   120319078          00000000000000                                                                  000227
1020874591800017100000090345100240370REGTIT24411902072875     000000000000598380510000000000000000000000000906110319190207287500000000000059838051280219000000000998000101863  000000000000000000000000000000000000000000000000000000000000000000000000000000000000001034400000000003640000000000000   120319078          00000000000000                                                                  000228
1020874591800017100000090345100240370REGTIT24411902072914     000000000000598384180000000000000000000000000906110319190207291400000000000059838418280219000000000998010401627  000000000000000000000000000000000000000000000000000000000000000000000000000000000000001034400000000003640000000000000   120319078          00000000000000                                                                  000229
1020874591800017100000090345100240370REGTIT24411902072951     000000000000598387600000000000000000000000000906110319190207295100000000000059838760280219000000000998010404984  000000000000000000000000000000000000000000000000000000000000000000000000000000000000001034400000000003640000000000000   120319078          00000000000000                                                                  000230
1020874591800017100000090345100240370REGTIT24411902072954     000000000000598387950000000000000000000000000906110319190207295400000000000059838795280219000000000599003301220  000000000000000000000000000000000000000000000000000000000000000000000000000000000000000620800000000002180000000000000   120319078          00000000000000                                                                  000231
1020874591800017100000090345100240370REGTIT24411902072960     0000000000005983885P000000000000000000000000090611031919020729600000000000005983885P280219000000000799023702383  000000000000000000000000000000000000000000000000000000000000000000000000000000000000000828100000000002910000000000000   120319035          00000000000000                                                                  000232
1020874591800017100000090345100240370REGTIT24411902072968     000000000000598389300000000000000000000000000906110319190207296800000000000059838930280219000000000998003302190  000000000000000000000000000000000000000000000000000000000000000000000000000000000000001034400000000003640000000000000   120319078          00000000000000                                                                  000233
1020874591800017100000090345100240370REGTIT24411902072994     000000000000598391710000000000000000000000000906110319190207299400000000000059839171280219000000000998003304295  000000000000000000000000000000000000000000000000000000000000000000000000000000000000001034400000000003640000000000000   120319078          00000000000000                                                                  000234
1020874591800017100000090345100240370REGTIT24411902073028     000000000000598395030000000000000000000000000906110319190207302800000000000059839503280219000000000998023705693  000000000000000000000000000000000000000000000000000000000000000000000000000000000000001034400000000003640000000000000   120319066          00000000000000                                                                  000235
1020874591800017100000090345100240370REGTIT24411902073032     0000000000005983952P000000000000000000000000090611031919020730320000000000005983952P280219000000000998010400377  000000000000000000000000000000000000000000000000000000000000000000000000000000000000001034400000000003640000000000000   120319078          00000000000000                                                                  000236
1020874591800017100000090345100240370REGTIT24411902073053     000000000000598397240000000000000000000000000906110319190207305300000000000059839724280219000000000719034107407  000000000000000000000000000000000000000000000000000000000000000000000000000000000000000745400000000002640000000000000   120319078          00000000000000                                                                  000237
1020874591800017100000090345100240370REGTIT24411902073089     000000000000598400640000000000000000000000000906110319190207308900000000000059840064280219000000000998034102929  000000000000000000000000000000000000000000000000000000000000000000000000000000000000001034400000000003640000000000000   120319078          00000000000000                                                                  000238
1020874591800017100000090345100240370REGTIT2438996779211092   000000009000597906530000000000000000000000000906110319996779211000000000900059790653110319000000001938610403492  000000000000000000000000000000000000000000000000000000000000000000000000000000000000001938600000000000000000000000000   120319078          00000000000000                                                                  000239
1020874591800017100000090345100240370REGTIT2603997091438980   0000000090005986777P000000000000000000000000090611031999709143890000000090005986777P110319000000002025034102775  000000000000000000000000000000000000000000000000000000000000000000000000000000000000002025000000000000000000000000000   120319078          00000000000000                                                                  000240
1020874591800017100000090345100240370REGTIT2607997142656879   0000000090005987184P000000000000000000000000090611031999714265680000000090005987184P120319000000001986300101443  000000000000000000000000000000000000000000000000000000000000000000000000000000000000001986300000000000000000000000000   120319078          00000000000000                                                                  000241
1020874591800017100000090345100240370REGTIT2607997054290858   000000009000598718820000000000000000000000000906110319997054290800000000900059871882140319000000001709223706606  000000000000000000000000000000000000000000000000000000000000000000000000000000000000001709200000000000000000000000000   120319066          00000000000000                                                                  000242
1020874591800017100000090345100240370REGTIT2607997105765310   000000009000598719470000000000000000000000000906110319997105765300000000900059871947140319000000002240334106665  000000000000000000000000000000000000000000000000000000000000000000000000000000000000002240300000000000000000000000000   120319078          00000000000000                                                                  000243
1020874591800017100000090345100240370REGTIT2607997187710672   000000009000598719980000000000000000000000000906110319997187710600000000900059871998120319000000003321003302102  000000000000000000000000000000000000000000000000000000000000000000000000000000000000003321000000000000000000000000000   120319078          00000000000000                                                                  000244
1020874591800017100000090345100240370REGTIT22981901067660     0000000000005972515P000000000000000000000000090911031919010676600000000000005972515P300119000000001249023704150  000000000000000000000000000000000000000000000000000000000000000000000000000000000000000000000000000000000000000000000                          0000000000                                                                  000245
1020874591800017100000090345100240370REGTIT24411902032733     000000000000597945690000000000000000000000000909110319190203273300000000000059794569280219000000002540223704150  000000000000000000000000000000000000000000000000000000000000000000000000000000000000000000000000000000000000000000000                          0000000000                                                                  000246
1020874591800017100000090345100240370REGTIT24411902042776     000000000000597956700000000000000000000000000909110319190204277600000000000059795670280219000000002904523704150  000000000000000000000000000000000000000000000000000000000000000000000000000000000000000000000000000000000000000000000                          0000000000                                                                  000247
1020874591800017100000090345100240370REGTIT24411902046619     000000000000597961030000000000000000000000000909110319190204661900000000000059796103280219000000001897023704150  000000000000000000000000000000000000000000000000000000000000000000000000000000000000000000000000000000000000000000000                          0000000000                                                                  000248
