02RETORNO01COBRANCA       00000000000004852239ISPCN ADM DE COBRANCA DE TITUL237BRADESCO       1403190160000000603                                                                                                                                                                                                                                                                          150319         000001
102122445950001000000009034510032549PREGTIT30315070564676     000000000000575893640000000000000000000000000902140319000575893600000000000057589364130519000000005077123704158  000000000014300000000000000000000000000000000000000000000000000000000000000000000000000000000000000000000000000000000                          7600000000                                                                  000002
102122445950001000000009034510032549PREGTIT30313063706217     000000000000578317260000000000000000000000000902140319000578317200000000000057831726130519000000004500023704151  000000000014300000000000000000000000000000000000000000000000000000000000000000000000000000000000000000000000000000000                          0000000000                                                                  000003
102122445950001000000009034510032549PREGTIT30313397724102     000000000000589706300000000000000000000000000902140319000589706300000000000058970630130519000000000450023704157  000000000014300000000000000000000000000000000000000000000000000000000000000000000000000000000000000000000000000000000                          0000000000                                                                  000004
102122445950001000000009034510032549PREGTIT30313653346105     000000000000590902940000000000000000000000000902140319000590902900000000000059090294130519000000001000023704151  000000000014300000000000000000000000000000000000000000000000000000000000000000000000000000000000000000000000000000000                          0000000000                                                                  000005
102122445950001000000009034510032549PREGTIT30312458672510     000000000000592646830000000000000000000000000902140319000592646800000000000059264683130519000000001000023704144  000000000014300000000000000000000000000000000000000000000000000000000000000000000000000000000000000000000000000000000                          0000000000                                                                  000006
102122445950001000000009034510032549PREGTIT30313518480530     000000000000592892870000000000000000000000000902140319000592892800000000000059289287130519000000010000023704157  000000000014300000000000000000000000000000000000000000000000000000000000000000000000000000000000000000000000000000000                          7600000000                                                                  000007
102122445950001000000009034510032549PREGTIT30311443441580     000000000000593735200000000000000000000000000902140319000593735200000000000059373520130519000000000750023703451  000000000014300000000000000000000000000000000000000000000000000000000000000000000000000000000000000000000000000000000                          7600000000                                                                  000008
102122445950001000000009034510032549PREGTIT30311769723275     000000000000593788670000000000000000000000000902140319000593788600000000000059378867130519000000000950023703451  000000000014300000000000000000000000000000000000000000000000000000000000000000000000000000000000000000000000000000000                          0000000000                                                                  000009
102122445950001000000009034510032549PREGTIT30312602036210     000000000000594054220000000000000000000000000902140319000594054200000000000059405422130519000000005000023704151  000000000014300000000000000000000000000000000000000000000000000000000000000000000000000000000000000000000000000000000                          7600000000                                                                  000010
102122445950001000000009034510032549PREGTIT30317668992363     000000000000594731180000000000000000000000000902140319000594731100000000000059473118130519000000000961223704157  000000000014300000000000000000000000000000000000000000000000000000000000000000000000000000000000000000000000000000000                          0000000000                                                                  000011
102122445950001000000009034510032549PREGTIT30316623738598     000000000000595706950000000000000000000000000902140319000595706900000000000059570695130519000000005000023704151  000000000014300000000000000000000000000000000000000000000000000000000000000000000000000000000000000000000000000000000                          0000000000                                                                  000012
102122445950001000000009034510032549PREGTIT30318054038546     000000000000595707760000000000000000000000000902140319000595707700000000000059570776130519000000000511023704157  000000000014300000000000000000000000000000000000000000000000000000000000000000000000000000000000000000000000000000000                          0000000000                                                                  000013
102122445950001000000009034510032549PREGTIT30313546061428     000000000000595732010000000000000000000000000902140319000595732000000000000059573201130519000000001870023703451  000000000014300000000000000000000000000000000000000000000000000000000000000000000000000000000000000000000000000000000                          0000000000                                                                  000014
102122445950001000000009034510032549PREGTIT30316780330729     000000000000595734730000000000000000000000000902140319000595734700000000000059573473130519000000000750023703451  000000000014300000000000000000000000000000000000000000000000000000000000000000000000000000000000000000000000000000000                          0000000000                                                                  000015
102122445950001000000009034510032549PREGTIT30311500633925     000000000000596692170000000000000000000000000902140319000596692100000000000059669217130519000000000800023704144  000000000014300000000000000000000000000000000000000000000000000000000000000000000000000000000000000000000000000000000                          0000000000                                                                  000016
102122445950001000000009034510032549PREGTIT30313110476984     000000000000596697560000000000000000000000000902140319000596697500000000000059669756130519000000000964723704158  000000000014300000000000000000000000000000000000000000000000000000000000000000000000000000000000000000000000000000000                          0000000000                                                                  000017
102122445950001000000009034510032549PREGTIT30313387752878     000000000000596701340000000000000000000000000902140319000596701300000000000059670134130519000000000600023704144  000000000014300000000000000000000000000000000000000000000000000000000000000000000000000000000000000000000000000000000                          0000000000                                                                  000018
102122445950001000000009034510032549PREGTIT30313836762503     000000000000596702310000000000000000000000000902140319000596702300000000000059670231130519000000000600023704144  000000000014300000000000000000000000000000000000000000000000000000000000000000000000000000000000000000000000000000000                          0000000000                                                                  000019
102122445950001000000009034510032549PREGTIT30312619825601     000000000000596703470000000000000000000000000902140319000596703400000000000059670347130519000000003333323704157  000000000014300000000000000000000000000000000000000000000000000000000000000000000000000000000000000000000000000000000                          0000000000                                                                  000020
102122445950001000000009034510032549PREGTIT30314597363873     000000000000596704950000000000000000000000000902140319000596704900000000000059670495130519000000001200023704422  000000000014300000000000000000000000000000000000000000000000000000000000000000000000000000000000000000000000000000000                          0000000000                                                                  000021
102122445950001000000009034510032549PREGTIT30312218954935     000000000000596932070000000000000000000000000902140319000596932000000000000059693207130519000000001950023703451  000000000014300000000000000000000000000000000000000000000000000000000000000000000000000000000000000000000000000000000                          0000000000                                                                  000022
102122445950001000000009034510032549PREGTIT30319603639120     0000000000005977309P000000000000000000000000090214031900059773090000000000005977309P130519000000000750023704157  000000000014300000000000000000000000000000000000000000000000000000000000000000000000000000000000000000000000000000000                          0000000000                                                                  000023
102122445950001000000009034510032549PREGTIT30318444632602     000000000000597865900000000000000000000000000902140319000597865900000000000059786590130519000000001100023700408  000000000014300000000000000000000000000000000000000000000000000000000000000000000000000000000000000000000000000000000                          0000000000                                                                  000024
102122445950001000000009034510032549PREGTIT30317247578298     000000000000597867360000000000000000000000000902140319000597867300000000000059786736130519000000001000023700408  000000000014300000000000000000000000000000000000000000000000000000000000000000000000000000000000000000000000000000000                          0000000000                                                                  000025
102122445950001000000009034510032549PREGTIT30313160049195     000000000000597868170000000000000000000000000902140319000597868100000000000059786817130519000000001750023700408  000000000014300000000000000000000000000000000000000000000000000000000000000000000000000000000000000000000000000000000                          0000000000                                                                  000026
102122445950001000000009034510032549PREGTIT30315602743650     000000000000597869060000000000000000000000000902140319000597869000000000000059786906130519000000001320023700408  000000000014300000000000000000000000000000000000000000000000000000000000000000000000000000000000000000000000000000000                          0000000000                                                                  000027
102122445950001000000009034510032549PREGTIT30317301549907     000000000000597871390000000000000000000000000902140319000597871300000000000059787139130519000000001200023700408  000000000014300000000000000000000000000000000000000000000000000000000000000000000000000000000000000000000000000000000                          0000000000                                                                  000028
102122445950001000000009034510032549PREGTIT30312216419772     000000000000597881510000000000000000000000000902140319000597881500000000000059788151130519000000001500023700408  000000000014300000000000000000000000000000000000000000000000000000000000000000000000000000000000000000000000000000000                          0000000000                                                                  000029
102122445950001000000009034510032549PREGTIT30311494393977     000000000000597881940000000000000000000000000902140319000597881900000000000059788194130519000000001550023700408  000000000014300000000000000000000000000000000000000000000000000000000000000000000000000000000000000000000000000000000                          0000000000                                                                  000030
102122445950001000000009034510032549PREGTIT30313601777507     000000000000597882750000000000000000000000000902140319000597882700000000000059788275130519000000001500023700408  000000000014300000000000000000000000000000000000000000000000000000000000000000000000000000000000000000000000000000000                          0000000000                                                                  000031
102122445950001000000009034510032549PREGTIT30316004970471     000000000000598457830000000000000000000000000902140319000598457800000000000059845783130519000000001000023704422  000000000014300000000000000000000000000000000000000000000000000000000000000000000000000000000000000000000000000000000                          0000000000                                                                  000032
102122445950001000000009034510032549PREGTIT30317647573173     000000000000598458130000000000000000000000000902140319000598458100000000000059845813130519000000001000023704422  000000000014300000000000000000000000000000000000000000000000000000000000000000000000000000000000000000000000000000000                          0000000000                                                                  000033
102122445950001000000009034510032549PREGTIT30315700127565     000000000000598458480000000000000000000000000902140319000598458400000000000059845848130519000000001450023704422  000000000014300000000000000000000000000000000000000000000000000000000000000000000000000000000000000000000000000000000                          0000000000                                                                  000034
102122445950001000000009034510032549PREGTIT30312138512589     000000000000598548710000000000000000000000000902140319000598548700000000000059854871130519000000001359523704144  000000000014300000000000000000000000000000000000000000000000000000000000000000000000000000000000000000000000000000000                          0000000000                                                                  000035
102122445950001000000009034510032549PREGTIT30318996512794     000000000000598623350000000000000000000000000902140319000598623300000000000059862335130519000000006416723704143  000000000014300000000000000000000000000000000000000000000000000000000000000000000000000000000000000000000000000000000                          0000000000                                                                  000036
102122445950001000000009034510032549PREGTIT30316041984309     000000000000598624080000000000000000000000000902140319000598624000000000000059862408130519000000003927523704143  000000000014300000000000000000000000000000000000000000000000000000000000000000000000000000000000000000000000000000000                          7600000000                                                                  000037
102122445950001000000009034510032549PREGTIT30316277803261     000000000000598775370000000000000000000000000902140319000598775300000000000059877537130519000000001325023704422  000000000014300000000000000000000000000000000000000000000000000000000000000000000000000000000000000000000000000000000                          0000000000                                                                  000038
102122445950001000000009034510032549PREGTIT30318736940051     000000000000598778200000000000000000000000000902140319000598778200000000000059877820130519000000001000023703451  000000000014300000000000000000000000000000000000000000000000000000000000000000000000000000000000000000000000000000000                          0000000000                                                                  000039
102122445950001000000009034510032549PREGTIT30314869509442     000000000000599276310000000000000000000000000902140319000599276300000000000059927631130519000000003333323704151  000000000014300000000000000000000000000000000000000000000000000000000000000000000000000000000000000000000000000000000                          0000000000                                                                  000040
102122445950001000000009034510032549PREGTIT30314105718036     000000000000599286380000000000000000000000000902140319000599286300000000000059928638130419000000001060823703451  000000000014300000000000000000000000000000000000000000000000000000000000000000000000000000000000000000000000000000000                          0000000000                                                                  000041
102122445950001000000009034510032549PREGTIT30314105718036     000000000000599286460000000000000000000000000902140319000599286400000000000059928646130519000000001060823703451  000000000014300000000000000000000000000000000000000000000000000000000000000000000000000000000000000000000000000000000                          0000000000                                                                  000042
102122445950001000000009034510032549PREGTIT30314324637067     000000000000599286890000000000000000000000000902140319000599286800000000000059928689160419000000001200023703109  000000000014300000000000000000000000000000000000000000000000000000000000000000000000000000000000000000000000000000000                          0000000000                                                                  000043
102122445950001000000009034510032549PREGTIT30313588976706     000000000000599287270000000000000000000000000902140319000599287200000000000059928727150419000000002700023703109  000000000014300000000000000000000000000000000000000000000000000000000000000000000000000000000000000000000000000000000                          0000000000                                                                  000044
102122445950001000000009034510032549PREGTIT30327143702436     0000000000005992876P000000000000000000000000090214031900059928760000000000005992876P150419000000000153023704426  000000000014300000000000000000000000000000000000000000000000000000000000000000000000000000000000000000000000000000000                          7600000000                                                                  000045
102122445950001000000009034510032549PREGTIT30325271721730     000000000000599288160000000000000000000000000902140319000599288100000000000059928816140419000000000348023704157  000000000014300000000000000000000000000000000000000000000000000000000000000000000000000000000000000000000000000000000                          0000000000                                                                  000046
102122445950001000000009034510032549PREGTIT30331811118009     000000000000599288830000000000000000000000000902140319000599288800000000000059928883150319000000002000023703451  000000000014300000000000000000000000000000000000000000000000000000000000000000000000000000000000000000000000000000000                          7600000000                                                                  000047
102122445950001000000009034510032549PREGTIT30335935703586     000000000000599288910000000000000000000000000902140319000599288900000000000059928891140419000000002310023704144  000000000014300000000000000000000000000000000000000000000000000000000000000000000000000000000000000000000000000000000                          0000000000                                                                  000048
102122445950001000000009034510032549PREGTIT30334272883294     000000000000599289050000000000000000000000000902140319000599289000000000000059928905140419000000000375023703451  000000000014300000000000000000000000000000000000000000000000000000000000000000000000000000000000000000000000000000000                          0000000000                                                                  000049
102122445950001000000009034510032549PREGTIT30335820401459     000000000000599289210000000000000000000000000902140319000599289200000000000059928921200419000000003230023704151  000000000014300000000000000000000000000000000000000000000000000000000000000000000000000000000000000000000000000000000                          0000000000                                                                  000050
102122445950001000000009034510032549PREGTIT30344709323317     000000000000599294480000000000000000000000000902140319000599294400000000000059929448050419000000026280823704151  000000000014300000000000000000000000000000000000000000000000000000000000000000000000000000000000000000000000000000000                          0000000000                                                                  000051
102122445950001000000009034510032549PREGTIT30341791597712     000000000000599294560000000000000000000000000902140319000599294500000000000059929456050419000000007500023704144  000000000014300000000000000000000000000000000000000000000000000000000000000000000000000000000000000000000000000000000                          0000000000                                                                  000052
102122445950001000000009034510032549PREGTIT30347461648757     000000000000599294640000000000000000000000000902140319000599294600000000000059929464050419000000007500023704144  000000000014300000000000000000000000000000000000000000000000000000000000000000000000000000000000000000000000000000000                          0000000000                                                                  000053
102122445950001000000009034510032549PREGTIT30348088319483     000000000000599295100000000000000000000000000902140319000599295100000000000059929510100419000000004000023703451  000000000014300000000000000000000000000000000000000000000000000000000000000000000000000000000000000000000000000000000                          7600000000                                                                  000054
102122445950001000000009034510032549PREGTIT30348088319483     000000000000599295290000000000000000000000000902140319000599295200000000000059929529100519000000004000023703451  000000000014300000000000000000000000000000000000000000000000000000000000000000000000000000000000000000000000000000000                          7600000000                                                                  000055
102122445950001000000009034510032549PREGTIT30367789527931     000000000000599295450000000000000000000000000902140319000599295400000000000059929545150419000000000831723704144  000000000014300000000000000000000000000000000000000000000000000000000000000000000000000000000000000000000000000000000                          0000000000                                                                  000056
102122445950001000000009034510032549PREGTIT30366393987308     0000000000005992960P000000000000000000000000090214031900059929600000000000005992960P120419000000010000023704157  000000000014300000000000000000000000000000000000000000000000000000000000000000000000000000000000000000000000000000000                          0000000000                                                                  000057
102122445950001000000009034510032549PREGTIT30366393987308     000000000000599296180000000000000000000000000902140319000599296100000000000059929618120519000000010000023704157  000000000014300000000000000000000000000000000000000000000000000000000000000000000000000000000000000000000000000000000                          0000000000                                                                  000058
102122445950001000000009034510032549PREGTIT30376963742499     000000000000599296770000000000000000000000000902140319000599296700000000000059929677140419000000002148223704144  000000000014300000000000000000000000000000000000000000000000000000000000000000000000000000000000000000000000000000000                          0000000000                                                                  000059
102122445950001000000009034510032549PREGTIT30376585196811     000000000000599297660000000000000000000000000902140319000599297600000000000059929766090419000000002870023704151  000000000014300000000000000000000000000000000000000000000000000000000000000000000000000000000000000000000000000000000                          0000000000                                                                  000060
102122445950001000000009034510032549PREGTIT30376585196811     000000000000599297740000000000000000000000000902140319000599297700000000000059929774090519000000002870023704151  000000000014300000000000000000000000000000000000000000000000000000000000000000000000000000000000000000000000000000000                          0000000000                                                                  000061
102122445950001000000009034510032549PREGTIT30389792607463     000000000000599298470000000000000000000000000902140319000599298400000000000059929847140419000000000022523704157  000000000014300000000000000000000000000000000000000000000000000000000000000000000000000000000000000000000000000000000                          0000000000                                                                  000062
102122445950001000000009034510032549PREGTIT30397275095292     000000000000599299440000000000000000000000000902140319000599299400000000000059929944140419000000009000023704151  000000000014300000000000000000000000000000000000000000000000000000000000000000000000000000000000000000000000000000000                          0000000000                                                                  000063
102122445950001000000009034510032549PREGTIT30392049788555     000000000000599299520000000000000000000000000902140319000599299500000000000059929952250419000000003192823704151  000000000014300000000000000000000000000000000000000000000000000000000000000000000000000000000000000000000000000000000                          0000000000                                                                  000064
102122445950001000000009034510032549PREGTIT30398060141098     000000000000599299600000000000000000000000000902140319000599299600000000000059929960240419000000005000023704151  000000000014300000000000000000000000000000000000000000000000000000000000000000000000000000000000000000000000000000000                          0000000000                                                                  000065
102122445950001000000009034510032549PREGTIT30396761473574     000000000000599302090000000000000000000000000902140319000599302000000000000059930209150419000000001099323704144  000000000014300000000000000000000000000000000000000000000000000000000000000000000000000000000000000000000000000000000                          0000000000                                                                  000066
102122445950001000000009034510032549PREGTIT30396961277743     000000000000599302330000000000000000000000000902140319000599302300000000000059930233220419000000001400023704151  000000000014300000000000000000000000000000000000000000000000000000000000000000000000000000000000000000000000000000000                          0000000000                                                                  000067
102122445950001000000009034510032549PREGTIT30407617404899     000000000000599302920000000000000000000000000902140319000599302900000000000059930292050419000000002845423704144  000000000014300000000000000000000000000000000000000000000000000000000000000000000000000000000000000000000000000000000                          0000000000                                                                  000068
102122445950001000000009034510032549PREGTIT30405706141023     000000000000599303060000000000000000000000000902140319000599303000000000000059930306250319000000012253623704151  000000000014300000000000000000000000000000000000000000000000000000000000000000000000000000000000000000000000000000000                          0000000000                                                                  000069
102122445950001000000009034510032549PREGTIT30404628614369     000000000000599303140000000000000000000000000902140319000599303100000000000059930314140419000000006685723703451  000000000014300000000000000000000000000000000000000000000000000000000000000000000000000000000000000000000000000000000                          0000000000                                                                  000070
102122445950001000000009034510032549PREGTIT30404628614369     000000000000599303220000000000000000000000000902140319000599303200000000000059930322220319000000002228623703451  000000000014300000000000000000000000000000000000000000000000000000000000000000000000000000000000000000000000000000000                          0000000000                                                                  000071
102122445950001000000009034510032549PREGTIT30404628614369     000000000000599303300000000000000000000000000902140319000599303300000000000059930330220419000000002228623703451  000000000014300000000000000000000000000000000000000000000000000000000000000000000000000000000000000000000000000000000                          0000000000                                                                  000072
102122445950001000000009034510032549PREGTIT30408159407017     000000000000599303810000000000000000000000000902140319000599303800000000000059930381200319000000002925823704151  000000000014300000000000000000000000000000000000000000000000000000000000000000000000000000000000000000000000000000000                          0000000000                                                                  000073
102122445950001000000009034510032549PREGTIT30417778957154     000000000000599304030000000000000000000000000902140319000599304000000000000059930403100419000000006700023704152  000000000014300000000000000000000000000000000000000000000000000000000000000000000000000000000000000000000000000000000                          0000000000                                                                  000074
102122445950001000000009034510032549PREGTIT30417778957154     000000000000599304110000000000000000000000000902140319000599304100000000000059930411100519000000006700023704152  000000000014300000000000000000000000000000000000000000000000000000000000000000000000000000000000000000000000000000000                          0000000000                                                                  000075
102122445950001000000009034510032549PREGTIT25548948847817     000000000000566923740000000000000000000000000906140319000566923700000000000056692374150319000000005000010400644  000000000000000000000000000000000000000000000000000000000000000000000000000000000000005000000000000000000000000000000   150319             00000000000000                                                                  000076
102122445950001000000009034510032549PREGTIT25543751500004     000000000000590243210000000000000000000000000906140319000590243200000000000059024321150319000000000720010401108  000000000000000000000000000000000000000000000000000000000000000000000000000000000000000720000000000000000000000000000   150319             00000000000000                                                                  000077
102122445950001000000009034510032549PREGTIT25214734059580     000000000000591747060000000000000000000000000906140319000591747000000000000059174706100319000000004000000106888  000000000000000000000000000000000000000000000000000000000000000000000000000000000000004090800000000009080000000000000   150319             00000000000000                                                                  000078
102122445950001000000009034510032549PREGTIT26089911404392     000000000000591908250000000000000000000000000906140319000591908200000000000059190825200319000000000750010403548  000000000000000000000000000000000000000000000000000000000000000000000000000000000000000750000000000000000000000000000   150319             00000000000000                                                                  000079
102122445950001000000009034510032549PREGTIT21277076116258     000000000000592748670000000000000000000000000906140319000592748600000000000059274867150119000000000800023701031  000000000000000000000000000000000000000000000000000000000000000000000000000000000000000845000000000004500000000000000   150319             00000000000000                                                                  000080
102122445950001000000009034510032549PREGTIT23567076116258     000000000000592748750000000000000000000000000906140319000592748700000000000059274875150219000000000800023701031  000000000000000000000000000000000000000000000000000000000000000000000000000000000000000829500000000002950000000000000   150319             00000000000000                                                                  000081
102122445950001000000009034510032549PREGTIT26082131518386     000000000000593038830000000000000000000000000906140319000593038800000000000059303883200319000000001550034100773  000000000000000000000000000000000000000000000000000000000000000000000000000000000000001550000000000000000000000000000   150319             00000000000000                                                                  000082
102122445950001000000009034510032549PREGTIT23355734121782     000000000000593707930000000000000000000000000906140319000593707900000000000059370793110219000000001000000105989  000000000000000000000000000000000000000000000000000000000000000000000000000000000000001041700000000004170000000000000   150319             00000000000000                                                                  000083
102122445950001000000009034510032549PREGTIT25219086372906     000000000000595117290000000000000000000000000906140319000595117200000000000059511729100319000000001238010403492  000000000000000000000000000000000000000000000000000000000000000000000000000000000000001265900000000002790000000000000   150319             00000000000000                                                                  000084
102122445950001000000009034510032549PREGTIT26085826903593     000000000000595832740000000000000000000000000906140319000595832700000000000059583274220319000000002720123705751  000000000000000000000000000000000000000000000000000000000000000000000000000000000000002720100000000000000000000000000   150319             00000000000000                                                                  000085
102122445950001000000009034510032549PREGTIT24547004874083     000000000000595989480000000000000000000000000906140319000595989400000000000059598948010319000000000586710403753  000000000000000000000000000000000000000000000000000000000000000000000000000000000000000603600000000001690000000000000   150319             00000000000000                                                                  000086
102122445950001000000009034510032549PREGTIT25215722666175     000000000000596019810000000000000000000000000906140319000596019800000000000059601981100319000000010333323700963  000000000000000000000000000000000000000000000000000000000000000000000000000000000000010567500000000023420000000000000   150319             00000000000000                                                                  000087
102122445950001000000009034510032549PREGTIT25874621201997     000000000000596719390000000000000000000000000906140319000596719300000000000059671939180319000000002000023701011  000000000000000000000000000000000000000000000000000000000000000000000000000000000000002000000000000000000000000000000   150319             00000000000000                                                                  000088
102122445950001000000009034510032549PREGTIT25217136035942     000000000000596745040000000000000000000000000906140319000596745000000000000059674504100319000000002700000100459  000000000000000000000000000000000000000000000000000000000000000000000000000000000000002761200000000006120000000000000   150319             00000000000000                                                                  000089
102122445950001000000009034510032549PREGTIT26088392578152     000000000000596816160000000000000000000000000906140319000596816100000000000059681616200319000000000919510401756  000000000000000000000000000000000000000000000000000000000000000000000000000000000000000919500000000000000000000000000   150319             00000000000000                                                                  000090
102122445950001000000009034510032549PREGTIT25543169103653     000000000000596970830000000000000000000000000906140319000596970800000000000059697083140319000000003959734107444  000000000000000000000000000000000000000000000000000000000000000000000000000000000000003959700000000000000000000000000   150319             00000000000000                                                                  000091
102122445950001000000009034510032549PREGTIT25612652163207     000000000000597548850000000000000000000000000906140319000597548800000000000059754885140319000000000545610401756  000000000000000000000000000000000000000000000000000000000000000000000000000000000000000545600000000000000000000000000   150319             00000000000000                                                                  000092
102122445950001000000009034510032549PREGTIT25728720830211     000000000000597575310000000000000000000000000906140319000597575300000000000059757531150219000000001980010400257  000000000000000000000000000000000000000000000000000000000000000000000000000000000000002054700000000007470000000000000   150319             00000000000000                                                                  000093
102122445950001000000009034510032549PREGTIT25728720830211     0000000000005975754P000000000000000000000000090614031900059757540000000000005975754P150319000000001980010400257  000000000000000000000000000000000000000000000000000000000000000000000000000000000000001980000000000000000000000000000   150319             00000000000000                                                                  000094
102122445950001000000009034510032549PREGTIT25814265308483     000000000000597595420000000000000000000000000906140319000597595400000000000059759542280219000000002900010403218  000000000000000000000000000000000000000000000000000000000000000000000000000000000000002984600000000008460000000000000   150319             00000000000000                                                                  000095
102122445950001000000009034510032549PREGTIT26467763854083     000000000000597722390000000000000000000000000906140319000597722300000000000059772239110319000000003850000102600  000000000000000000000000000000000000000000000000000000000000000000000000000000000000003934800000000008480000000000000   150319             00000000000000                                                                  000096
102122445950001000000009034510032549PREGTIT26514322838613     000000000000597740290000000000000000000000000906140319000597740200000000000059774029150319000000002902523702405  000000000000000000000000000000000000000000000000000000000000000000000000000000000000002902500000000000000000000000000   150319             00000000000000                                                                  000097
102122445950001000000009034510032549PREGTIT27078450896412     000000000000597815640000000000000000000000000906140319000597815600000000000059781564150319000000001200010403596  000000000000000000000000000000000000000000000000000000000000000000000000000000000000001200000000000000000000000000000   150319             00000000000000                                                                  000098
102122445950001000000009034510032549PREGTIT27371224280372     000000000000597862130000000000000000000000000906140319000597862100000000000059786213200219000000004000003301236  000000000000000000000000000000000000000000000000000000000000000000000000000000000000004139400000000013940000000000000   150319             00000000000000                                                                  000099
102122445950001000000009034510032549PREGTIT27701913455757     000000000000597913220000000000000000000000000906140319000597913200000000000059791322280319000000004666723703348  000000000000000000000000000000000000000000000000000000000000000000000000000000000000004666700000000000000000000000000   150319             00000000000000                                                                  000100
102122445950001000000009034510032549PREGTIT27704092351905     000000000000597913300000000000000000000000000906140319000597913300000000000059791330280319000000004083823703348  000000000000000000000000000000000000000000000000000000000000000000000000000000000000004083800000000000000000000000000   150319             00000000000000                                                                  000101
102122445950001000000009034510032549PREGTIT27715917031123     0000000000005979156P000000000000000000000000090614031900059791560000000000005979156P140319000000050000000103433  000000000000000000000000000000000000000000000000000000000000000000000000000000000000050000000000000000000000000000000   150319             00000000000000                                                                  000102
102122445950001000000009034510032549PREGTIT27712388252942     000000000000598410280000000000000000000000000906140319000598410200000000000059841028140319000000013340000103433  000000000000000000000000000000000000000000000000000000000000000000000000000000000000013340000000000000000000000000000   150319             00000000000000                                                                  000103
102122445950001000000009034510032549PREGTIT27837191248416     000000000000598427840000000000000000000000000906140319000598427800000000000059842784160319000000002000010400551  000000000000000000000000000000000000000000000000000000000000000000000000000000000000002000000000000000000000000000000   150319             00000000000000                                                                  000104
102122445950001000000009034510032549PREGTIT27846282597453     000000000000598429620000000000000000000000000906140319000598429600000000000059842962170319000000001500000103214  000000000000000000000000000000000000000000000000000000000000000000000000000000000000001500000000000000000000000000000   150319             00000000000000                                                                  000105
102122445950001000000009034510032549PREGTIT28082322223823     000000000000598480570000000000000000000000000906140319000598480500000000000059848057140319000000003773874802101  000000000000000000000000000000000000000000000000000000000000000000000000000000000000003773800000000000000000000000000   150319             00000000000000                                                                  000106
102122445950001000000009034510032549PREGTIT28109094216004     000000000000598483320000000000000000000000000906140319000598483300000000000059848332140319000000002263000101622  000000000000000000000000000000000000000000000000000000000000000000000000000000000000002263000000000000000000000000000   150319             00000000000000                                                                  000107
102122445950001000000009034510032549PREGTIT28176468422864     000000000000598494010000000000000000000000000906140319000598494000000000000059849401150319000000000779810401227  000000000000000000000000000000000000000000000000000000000000000000000000000000000000000779800000000000000000000000000   150319             00000000000000                                                                  000108
102122445950001000000009034510032549PREGTIT28656534645039     000000000000598568580000000000000000000000000906140319000598568500000000000059856858140319000000002035075604368  000000000000000000000000000000000000000000000000000000000000000000000000000000000000002035000000000000000000000000000   150319             00000000000000                                                                  000109
102122445950001000000009034510032549PREGTIT28924780444668     000000000000598599380000000000000000000000000906140319000598599300000000000059859938150319000000002890010401266  000000000000000000000000000000000000000000000000000000000000000000000000000000000000002890000000000000000000000000000   150319             00000000000000                                                                  000110
102122445950001000000009034510032549PREGTIT28926682612279     000000000000598599460000000000000000000000000906140319000598599400000000000059859946150319000000004625010401266  000000000000000000000000000000000000000000000000000000000000000000000000000000000000004625000000000000000000000000000   150319             00000000000000                                                                  000111
102122445950001000000009034510032549PREGTIT29028620706337     000000000000598613980000000000000000000000000906140319000598613900000000000059861398130319000000004500023702995  000000000000000000000000000000000000000000000000000000000000000000000000000000000000004593000000000009300000000000000   150319             00000000000000                                                                  000112
102122445950001000000009034510032549PREGTIT29149145918451     000000000000598628580000000000000000000000000906140319000598628500000000000059862858150319000000002250010400357  000000000000000000000000000000000000000000000000000000000000000000000000000000000000002250000000000000000000000000000   150319             00000000000000                                                                  000113
102122445950001000000009034510032549PREGTIT29761473171632     000000000000598669340000000000000000000000000906140319000598669300000000000059866934140319000000009000023701369  000000000000000000000000000000000000000000000000000000000000000000000000000000000000009000000000000000000000000000000   150319             00000000000000                                                                  000114
102122445950001000000009034510032549PREGTIT30075782001643     000000000000598754450000000000000000000000000906140319000598754400000000000059875445200319000000000690010403252  000000000000000000000000000000000000000000000000000000000000000000000000000000000000000690000000000000000000000000000   150319             00000000000000                                                                  000115
102122445950001000000009034510032549PREGTIT30085762722218     000000000000598757040000000000000000000000000906140319000598757000000000000059875704200319000000000930023705247  000000000000000000000000000000000000000000000000000000000000000000000000000000000000000930000000000000000000000000000   150319             00000000000000                                                                  000116
102122445950001000000009034510032549PREGTIT30299779897191     000000000000599281150000000000000000000000000906140319000599281100000000000059928115140319000000010000023701369  000000000000000000000000000000000000000000000000000000000000000000000000000000000000010000000000000000000000000000000   150319             00000000000000                                                                  000117
102122445950001000000009034510032549PREGTIT25546046751977     000000000000589757640000000000000000000000000909140319000589757600000000000058975764140319000000000820023704150  000000000000000000000000000000000000000000000000000000000000000000000000000000000000000000000000000000000000000000000                          0000000000                                                                  000118
102122445950001000000009034510032549PREGTIT25543653346105     000000000000590902780000000000000000000000000909140319000590902700000000000059090278130319000000001000023704150  000000000000000000000000000000000000000000000000000000000000000000000000000000000000000000000000000000000000000000000                          0000000000                                                                  000119
102122445950001000000009034510032549PREGTIT25218769017387     000000000000591645220000000000000000000000000909140319000591645200000000000059164522100319000000002300023704150  000000000000000000000000000000000000000000000000000000000000000000000000000000000000000000000000000000000000000000000                          0000000000                                                                  000120
102122445950001000000009034510032549PREGTIT25218258077965     000000000000591762100000000000000000000000000909140319000591762100000000000059176210100319000000002590023704150  000000000000000000000000000000000000000000000000000000000000000000000000000000000000000000000000000000000000000000000                          0000000000                                                                  000121
102122445950001000000009034510032549PREGTIT23565960421421     000000000000591818420000000000000000000000000909140319000591818400000000000059181842140219000000001500023704150  000000000000000000000000000000000000000000000000000000000000000000000000000000000000000000000000000000000000000000000                          0000000000                                                                  000122
102122445950001000000009034510032549PREGTIT25214763757495     000000000000592072990000000000000000000000000909140319000592072900000000000059207299100319000000001500023704150  000000000000000000000000000000000000000000000000000000000000000000000000000000000000000000000000000000000000000000000                          0000000000                                                                  000123
102122445950001000000009034510032549PREGTIT24887851084445     000000000000592623890000000000000000000000000909140319000592623800000000000059262389050319000000000850023704150  000000000000000000000000000000000000000000000000000000000000000000000000000000000000000000000000000000000000000000000                          0000000000                                                                  000124
102122445950001000000009034510032549PREGTIT25127026269261     000000000000593061220000000000000000000000000909140319000593061200000000000059306122070319000000001500023704150  000000000000000000000000000000000000000000000000000000000000000000000000000000000000000000000000000000000000000000000                          0000000000                                                                  000125
102122445950001000000009034510032549PREGTIT25373672702088     000000000000593102270000000000000000000000000909140319000593102200000000000059310227060319000000001062523704150  000000000000000000000000000000000000000000000000000000000000000000000000000000000000000000000000000000000000000000000                          0000000000                                                                  000126
102122445950001000000009034510032549PREGTIT25379508801756     000000000000593132930000000000000000000000000909140319000593132900000000000059313293060319000000001333523704150  000000000000000000000000000000000000000000000000000000000000000000000000000000000000000000000000000000000000000000000                          0000000000                                                                  000127
102122445950001000000009034510032549PREGTIT25212726064034     000000000000593163810000000000000000000000000909140319000593163800000000000059316381100319000000001980023704150  000000000000000000000000000000000000000000000000000000000000000000000000000000000000000000000000000000000000000000000                          0000000000                                                                  000128
102122445950001000000009034510032549PREGTIT24545855837236     000000000000593178410000000000000000000000000909140319000593178400000000000059317841280219000000000700023704150  000000000000000000000000000000000000000000000000000000000000000000000000000000000000000000000000000000000000000000000                          0000000000                                                                  000129
102122445950001000000009034510032549PREGTIT25326605596041     000000000000593739970000000000000000000000000909140319000593739900000000000059373997110319000000000333523704150  000000000000000000000000000000000000000000000000000000000000000000000000000000000000000000000000000000000000000000000                          0000000000                                                                  000130
102122445950001000000009034510032549PREGTIT25371385894959     000000000000593774100000000000000000000000000909140319000593774100000000000059377410100319000000001000023704150  000000000000000000000000000000000000000000000000000000000000000000000000000000000000000000000000000000000000000000000                          0000000000                                                                  000131
102122445950001000000009034510032549PREGTIT25212312986771     000000000000593831000000000000000000000000000909140319000593831000000000000059383100100319000000001000023704150  000000000000000000000000000000000000000000000000000000000000000000000000000000000000000000000000000000000000000000000                          0000000000                                                                  000132
102122445950001000000009034510032549PREGTIT24324147350365     000000000000593952300000000000000000000000000909140319000593952300000000000059395230250219000000000950023704150  000000000000000000000000000000000000000000000000000000000000000000000000000000000000000000000000000000000000000000000                          0000000000                                                                  000133
102122445950001000000009034510032549PREGTIT25213420489550     000000000000593968730000000000000000000000000909140319000593968700000000000059396873100319000000010000023704150  000000000000000000000000000000000000000000000000000000000000000000000000000000000000000000000000000000000000000000000                          0000000000                                                                  000134
102122445950001000000009034510032549PREGTIT25211404419619     000000000000593988330000000000000000000000000909140319000593988300000000000059398833100319000000001000023704150  000000000000000000000000000000000000000000000000000000000000000000000000000000000000000000000000000000000000000000000                          0000000000                                                                  000135
102122445950001000000009034510032549PREGTIT25213429355811     000000000000594059450000000000000000000000000909140319000594059400000000000059405945100319000000000550023704150  000000000000000000000000000000000000000000000000000000000000000000000000000000000000000000000000000000000000000000000                          0000000000                                                                  000136
102122445950001000000009034510032549PREGTIT25482875189329     000000000000594092740000000000000000000000000909140319000594092700000000000059409274100319000000002000023704150  000000000000000000000000000000000000000000000000000000000000000000000000000000000000000000000000000000000000000000000                          0000000000                                                                  000137
102122445950001000000009034510032549PREGTIT25485844755797     000000000000594706660000000000000000000000000909140319000594706600000000000059470666100319000000001000023704150  000000000000000000000000000000000000000000000000000000000000000000000000000000000000000000000000000000000000000000000                          0000000000                                                                  000138
102122445950001000000009034510032549PREGTIT25127245409972     000000000000594862010000000000000000000000000909140319000594862000000000000059486201070319000000001055623704150  000000000000000000000000000000000000000000000000000000000000000000000000000000000000000000000000000000000000000000000                          0000000000                                                                  000139
102122445950001000000009034510032549PREGTIT25547171236409     000000000000594910270000000000000000000000000909140319000594910200000000000059491027140319000000000429823704150  000000000000000000000000000000000000000000000000000000000000000000000000000000000000000000000000000000000000000000000                          0000000000                                                                  000140
102122445950001000000009034510032549PREGTIT24549243585637     000000000000595020450000000000000000000000000909140319000595020400000000000059502045010319000000001166723704150  000000000000000000000000000000000000000000000000000000000000000000000000000000000000000000000000000000000000000000000                          0000000000                                                                  000141
102122445950001000000009034510032549PREGTIT24665292432821     000000000000595062960000000000000000000000000909140319000595062900000000000059506296030319000000001071523704150  000000000000000000000000000000000000000000000000000000000000000000000000000000000000000000000000000000000000000000000                          0000000000                                                                  000142
102122445950001000000009034510032549PREGTIT23886192525960     000000000000595080940000000000000000000000000909140319000595080900000000000059508094180219000000001666723704150  000000000000000000000000000000000000000000000000000000000000000000000000000000000000000000000000000000000000000000000                          0000000000                                                                  000143
102122445950001000000009034510032549PREGTIT25218129833419     000000000000595112650000000000000000000000000909140319000595112600000000000059511265100319000000015493223704150  000000000000000000000000000000000000000000000000000000000000000000000000000000000000000000000000000000000000000000000                          0000000000                                                                  000144
102122445950001000000009034510032549PREGTIT25127580032741     000000000000595136080000000000000000000000000909140319000595136000000000000059513608080319000000001000023704150  000000000000000000000000000000000000000000000000000000000000000000000000000000000000000000000000000000000000000000000                          0000000000                                                                  000145
102122445950001000000009034510032549PREGTIT25373196131512     000000000000595711950000000000000000000000000909140319000595711900000000000059571195100319000000001250023704150  000000000000000000000000000000000000000000000000000000000000000000000000000000000000000000000000000000000000000000000                          0000000000                                                                  000146
102122445950001000000009034510032549PREGTIT24097066102404     000000000000595824210000000000000000000000000909140319000595824200000000000059582421220219000000001680023704150  000000000000000000000000000000000000000000000000000000000000000000000000000000000000000000000000000000000000000000000                          0000000000                                                                  000147
102122445950001000000009034510032549PREGTIT24776442785014     000000000000596032160000000000000000000000000909140319000596032100000000000059603216040319000000000996723704150  000000000000000000000000000000000000000000000000000000000000000000000000000000000000000000000000000000000000000000000                          0000000000                                                                  000148
102122445950001000000009034510032549PREGTIT25218764992691     000000000000596054640000000000000000000000000909140319000596054600000000000059605464100319000000002600023704150  000000000000000000000000000000000000000000000000000000000000000000000000000000000000000000000000000000000000000000000                          0000000000                                                                  000149
102122445950001000000009034510032549PREGTIT25216929052981     000000000000596618010000000000000000000000000909140319000596618000000000000059661801100319000000000349323704150  000000000000000000000000000000000000000000000000000000000000000000000000000000000000000000000000000000000000000000000                          0000000000                                                                  000150
102122445950001000000009034510032549PREGTIT25216124105867     000000000000596620690000000000000000000000000909140319000596620600000000000059662069100319000000000950023704150  000000000000000000000000000000000000000000000000000000000000000000000000000000000000000000000000000000000000000000000                          0000000000                                                                  000151
102122445950001000000009034510032549PREGTIT25547807685248     000000000000596973340000000000000000000000000909140319000596973300000000000059697334150319000000010064123704150  000000000000000000000000000000000000000000000000000000000000000000000000000000000000000000000000000000000000000000000                          0000000000                                                                  000152
102122445950001000000009034510032549PREGTIT25436429976324     000000000000597007500000000000000000000000000909140319000597007500000000000059700750120319000000003668123704150  000000000000000000000000000000000000000000000000000000000000000000000000000000000000000000000000000000000000000000000                          0000000000                                                                  000153
102122445950001000000009034510032549PREGTIT25365800848619     000000000000597015600000000000000000000000000909140319000597015600000000000059701560100319000000003000023704150  000000000000000000000000000000000000000000000000000000000000000000000000000000000000000000000000000000000000000000000                          0000000000                                                                  000154
102122445950001000000009034510032549PREGTIT25411943562159     000000000000597025590000000000000000000000000909140319000597025500000000000059702559100319000000000430023704150  000000000000000000000000000000000000000000000000000000000000000000000000000000000000000000000000000000000000000000000                          0000000000                                                                  000155
102122445950001000000009034510032549PREGTIT26545994232280     000000000000597744010000000000000000000000000909140319000597744000000000000059774401100319000000002000023704150  000000000000000000000000000000000000000000000000000000000000000000000000000000000000000000000000000000000000000000000                          0000000000                                                                  000156
102122445950001000000009034510032549PREGTIT26668848540522     0000000000005977603P000000000000000000000000090914031900059776030000000000005977603P280219000000003580023704150  000000000000000000000000000000000000000000000000000000000000000000000000000000000000000000000000000000000000000000000                          0000000000                                                                  000157
102122445950001000000009034510032549PREGTIT27621530753874     000000000000597899130000000000000000000000000909140319000597899100000000000059789913100319000000000950023704150  000000000000000000000000000000000000000000000000000000000000000000000000000000000000000000000000000000000000000000000                          0000000000                                                                  000158
102122445950001000000009034510032549PREGTIT27669174251519     000000000000597906870000000000000000000000000909140319000597906800000000000059790687080319000000001500023704150  000000000000000000000000000000000000000000000000000000000000000000000000000000000000000000000000000000000000000000000                          0000000000                                                                  000159
102122445950001000000009034510032549PREGTIT28108349682750     000000000000598484800000000000000000000000000909140319000598484800000000000059848480140319000000003364123704150  000000000000000000000000000000000000000000000000000000000000000000000000000000000000000000000000000000000000000000000                          0000000000                                                                  000160
102122445950001000000009034510032549PREGTIT28115653727584     000000000000598486770000000000000000000000000909140319000598486700000000000059848677210219000000000949023704150  000000000000000000000000000000000000000000000000000000000000000000000000000000000000000000000000000000000000000000000                          0000000000                                                                  000161
102122445950001000000009034510032549PREGTIT28127853567384     000000000000598487230000000000000000000000000909140319000598487200000000000059848723140319000000001040023704150  000000000000000000000000000000000000000000000000000000000000000000000000000000000000000000000000000000000000000000000                          0000000000                                                                  000162
102122445950001000000009034510032549PREGTIT28542602434476     000000000000598557700000000000000000000000000909140319000598557700000000000059855770100319000000001000023704150  000000000000000000000000000000000000000000000000000000000000000000000000000000000000000000000000000000000000000000000                          0000000000                                                                  000163
102122445950001000000009034510032549PREGTIT29987734529135     000000000000598706720000000000000000000000000909140319000598706700000000000059870672090419000000007000023704150  000000000000000000000000000000000000000000000000000000000000000000000000000000000000000000000000000000000000000000000                          0000000000                                                                  000164
102122445950001000000009034510032549PREGTIT30077573239207     000000000000598750380000000000000000000000000909140319000598750300000000000059875038260319000000001041223704150  000000000000000000000000000000000000000000000000000000000000000000000000000000000000000000000000000000000000000000000                          0000000000                                                                  000165
102122445950001000000009034510032549PREGTIT30396046751977     000000000000589757640000000000000000000000000927140319000589757600000000000058975764140319000000000820023700000  000000000000000000000000000000000000000000000000000000000000000000000000000000000000000000000000000000000000000000000                          6000000000                                                                  000166
102122445950001000000009034510032549PREGTIT30311612180512     000000000000589863080000000000000000000000000927140319000589863000000000000058986308180219000000001100023700000  000000000000000000000000000000000000000000000000000000000000000000000000000000000000000000000000000000000000000000000                          6000000000                                                                  000167
102122445950001000000009034510032549PREGTIT30317273416072     000000000000589902080000000000000000000000000927140319000589902000000000000058990208210219000000000990023700000  000000000000000000000000000000000000000000000000000000000000000000000000000000000000000000000000000000000000000000000                          6000000000                                                                  000168
102122445950001000000009034510032549PREGTIT30316181555576     000000000000590233170000000000000000000000000927140319000590233100000000000059023317100319000000001200023700000  000000000000000000000000000000000000000000000000000000000000000000000000000000000000000000000000000000000000000000000                          6000000000                                                                  000169
102122445950001000000009034510032549PREGTIT30323653346105     000000000000590902780000000000000000000000000927140319000590902700000000000059090278130319000000001000023700000  000000000000000000000000000000000000000000000000000000000000000000000000000000000000000000000000000000000000000000000                          6000000000                                                                  000170
102122445950001000000009034510032549PREGTIT30358769017387     000000000000591645220000000000000000000000000927140319000591645200000000000059164522100319000000002300023700000  000000000000000000000000000000000000000000000000000000000000000000000000000000000000000000000000000000000000000000000                          6000000000                                                                  000171
102122445950001000000009034510032549PREGTIT30358258077965     000000000000591762100000000000000000000000000927140319000591762100000000000059176210100319000000002590023700000  000000000000000000000000000000000000000000000000000000000000000000000000000000000000000000000000000000000000000000000                          6000000000                                                                  000172
102122445950001000000009034510032549PREGTIT30312080297515     000000000000591793760000000000000000000000000927140319000591793700000000000059179376100319000000001529223700000  000000000000000000000000000000000000000000000000000000000000000000000000000000000000000000000000000000000000000000000                          6000000000                                                                  000173
102122445950001000000009034510032549PREGTIT30314475459700     000000000000591795890000000000000000000000000927140319000591795800000000000059179589050319000000001000023700000  000000000000000000000000000000000000000000000000000000000000000000000000000000000000000000000000000000000000000000000                          6000000000                                                                  000174
102122445950001000000009034510032549PREGTIT30345960421421     000000000000591818420000000000000000000000000927140319000591818400000000000059181842140219000000001500023700000  000000000000000000000000000000000000000000000000000000000000000000000000000000000000000000000000000000000000000000000                          6000000000                                                                  000175
102122445950001000000009034510032549PREGTIT30316300498325     000000000000591960840000000000000000000000000927140319000591960800000000000059196084260219000000000500023700000  000000000000000000000000000000000000000000000000000000000000000000000000000000000000000000000000000000000000000000000                          6000000000                                                                  000176
102122445950001000000009034510032549PREGTIT30316300498325     000000000000591960920000000000000000000000000927140319000591960900000000000059196092260319000000000500023700000  000000000000000000000000000000000000000000000000000000000000000000000000000000000000000000000000000000000000000000000                          6000000000                                                                  000177
102122445950001000000009034510032549PREGTIT30397851084445     000000000000592623890000000000000000000000000927140319000592623800000000000059262389050319000000000850023700000  000000000000000000000000000000000000000000000000000000000000000000000000000000000000000000000000000000000000000000000                          6000000000                                                                  000178
102122445950001000000009034510032549PREGTIT30314188011785     000000000000592626720000000000000000000000000927140319000592626700000000000059262672050319000000000687523700000  000000000000000000000000000000000000000000000000000000000000000000000000000000000000000000000000000000000000000000000                          6000000000                                                                  000179
102122445950001000000009034510032549PREGTIT30314552956637     0000000000005926733P000000000000000000000000092714031900059267330000000000005926733P100319000000001000023700000  000000000000000000000000000000000000000000000000000000000000000000000000000000000000000000000000000000000000000000000                          6000000000                                                                  000180
102122445950001000000009034510032549PREGTIT30316967431166     000000000000592775720000000000000000000000000927140319000592775700000000000059277572280219000000001150023700000  000000000000000000000000000000000000000000000000000000000000000000000000000000000000000000000000000000000000000000000                          6000000000                                                                  000181
102122445950001000000009034510032549PREGTIT30315370431024     000000000000592823120000000000000000000000000927140319000592823100000000000059282312200219000000000700023700000  000000000000000000000000000000000000000000000000000000000000000000000000000000000000000000000000000000000000000000000                          6000000000                                                                  000182
102122445950001000000009034510032549PREGTIT30317157298727     000000000000592903230000000000000000000000000927140319000592903200000000000059290323100319000000001000023700000  000000000000000000000000000000000000000000000000000000000000000000000000000000000000000000000000000000000000000000000                          6000000000                                                                  000183
102122445950001000000009034510032549PREGTIT30312531679111     000000000000592905600000000000000000000000000927140319000592905600000000000059290560210219000000001187523700000  000000000000000000000000000000000000000000000000000000000000000000000000000000000000000000000000000000000000000000000                          6000000000                                                                  000184
102122445950001000000009034510032549PREGTIT30314480560541     000000000000593011390000000000000000000000000927140319000593011300000000000059301139280219000000000700023700000  000000000000000000000000000000000000000000000000000000000000000000000000000000000000000000000000000000000000000000000                          6000000000                                                                  000185
102122445950001000000009034510032549PREGTIT30315639802589     000000000000593058190000000000000000000000000927140319000593058100000000000059305819100319000000001250023700000  000000000000000000000000000000000000000000000000000000000000000000000000000000000000000000000000000000000000000000000                          6000000000                                                                  000186
102122445950001000000009034510032549PREGTIT30337026269261     000000000000593061220000000000000000000000000927140319000593061200000000000059306122070319000000001500023700000  000000000000000000000000000000000000000000000000000000000000000000000000000000000000000000000000000000000000000000000                          6000000000                                                                  000187
102122445950001000000009034510032549PREGTIT30323672702088     000000000000593102270000000000000000000000000927140319000593102200000000000059310227060319000000001062523700000  000000000000000000000000000000000000000000000000000000000000000000000000000000000000000000000000000000000000000000000                          6000000000                                                                  000188
102122445950001000000009034510032549PREGTIT30314972593030     000000000000593126100000000000000000000000000927140319000593126100000000000059312610050319000000000820023700000  000000000000000000000000000000000000000000000000000000000000000000000000000000000000000000000000000000000000000000000                          6000000000                                                                  000189
102122445950001000000009034510032549PREGTIT30329508801756     000000000000593132930000000000000000000000000927140319000593132900000000000059313293060319000000001333523700000  000000000000000000000000000000000000000000000000000000000000000000000000000000000000000000000000000000000000000000000                          6000000000                                                                  000190
102122445950001000000009034510032549PREGTIT30315892143145     000000000000593134120000000000000000000000000927140319000593134100000000000059313412280219000000001000023700000  000000000000000000000000000000000000000000000000000000000000000000000000000000000000000000000000000000000000000000000                          6000000000                                                                  000191
102122445950001000000009034510032549PREGTIT30315043684707     000000000000593147100000000000000000000000000927140319000593147100000000000059314710080319000000000850023700000  000000000000000000000000000000000000000000000000000000000000000000000000000000000000000000000000000000000000000000000                          6000000000                                                                  000192
102122445950001000000009034510032549PREGTIT30352726064034     000000000000593163810000000000000000000000000927140319000593163800000000000059316381100319000000001980023700000  000000000000000000000000000000000000000000000000000000000000000000000000000000000000000000000000000000000000000000000                          6000000000                                                                  000193
102122445950001000000009034510032549PREGTIT30415855837236     000000000000593178410000000000000000000000000927140319000593178400000000000059317841280219000000000700023700000  000000000000000000000000000000000000000000000000000000000000000000000000000000000000000000000000000000000000000000000                          6000000000                                                                  000194
102122445950001000000009034510032549PREGTIT30316119317437     000000000000593725670000000000000000000000000927140319000593725600000000000059372567100319000000001000023700000  000000000000000000000000000000000000000000000000000000000000000000000000000000000000000000000000000000000000000000000                          6000000000                                                                  000195
102122445950001000000009034510032549PREGTIT30336605596041     000000000000593739970000000000000000000000000927140319000593739900000000000059373997110319000000000333523700000  000000000000000000000000000000000000000000000000000000000000000000000000000000000000000000000000000000000000000000000                          6000000000                                                                  000196
102122445950001000000009034510032549PREGTIT30321385894959     000000000000593774100000000000000000000000000927140319000593774100000000000059377410100319000000001000023700000  000000000000000000000000000000000000000000000000000000000000000000000000000000000000000000000000000000000000000000000                          6000000000                                                                  000197
102122445950001000000009034510032549PREGTIT30315252960137     000000000000593786110000000000000000000000000927140319000593786100000000000059378611050319000000001000023700000  000000000000000000000000000000000000000000000000000000000000000000000000000000000000000000000000000000000000000000000                          6000000000                                                                  000198
102122445950001000000009034510032549PREGTIT30332312986771     000000000000593831000000000000000000000000000927140319000593831000000000000059383100100319000000001000023700000  000000000000000000000000000000000000000000000000000000000000000000000000000000000000000000000000000000000000000000000                          6000000000                                                                  000199
102122445950001000000009034510032549PREGTIT30314463822286     0000000000005938915P000000000000000000000000092714031900059389150000000000005938915P280219000000000916723700000  000000000000000000000000000000000000000000000000000000000000000000000000000000000000000000000000000000000000000000000                          6000000000                                                                  000200
102122445950001000000009034510032549PREGTIT30316413449781     000000000000593898420000000000000000000000000927140319000593898400000000000059389842190319000000001000023700000  000000000000000000000000000000000000000000000000000000000000000000000000000000000000000000000000000000000000000000000                          6000000000                                                                  000201
102122445950001000000009034510032549PREGTIT30319643628170     000000000000593900340000000000000000000000000927140319000593900300000000000059390034280219000000000662523700000  000000000000000000000000000000000000000000000000000000000000000000000000000000000000000000000000000000000000000000000                          6000000000                                                                  000202
102122445950001000000009034510032549PREGTIT30312424262521     000000000000593939630000000000000000000000000927140319000593939600000000000059393963240219000000001000023700000  000000000000000000000000000000000000000000000000000000000000000000000000000000000000000000000000000000000000000000000                          6000000000                                                                  000203
102122445950001000000009034510032549PREGTIT30394147350365     000000000000593952300000000000000000000000000927140319000593952300000000000059395230250219000000000950023700000  000000000000000000000000000000000000000000000000000000000000000000000000000000000000000000000000000000000000000000000                          6000000000                                                                  000204
102122445950001000000009034510032549PREGTIT30319527692844     000000000000593958850000000000000000000000000927140319000593958800000000000059395885250219000000001000023700000  000000000000000000000000000000000000000000000000000000000000000000000000000000000000000000000000000000000000000000000                          6000000000                                                                  000205
102122445950001000000009034510032549PREGTIT30333420489550     000000000000593968730000000000000000000000000927140319000593968700000000000059396873100319000000010000023700000  000000000000000000000000000000000000000000000000000000000000000000000000000000000000000000000000000000000000000000000                          6000000000                                                                  000206
102122445950001000000009034510032549PREGTIT30391404419619     000000000000593988330000000000000000000000000927140319000593988300000000000059398833100319000000001000023700000  000000000000000000000000000000000000000000000000000000000000000000000000000000000000000000000000000000000000000000000                          6000000000                                                                  000207
102122445950001000000009034510032549PREGTIT30353429355811     000000000000594059450000000000000000000000000927140319000594059400000000000059405945100319000000000550023700000  000000000000000000000000000000000000000000000000000000000000000000000000000000000000000000000000000000000000000000000                          6000000000                                                                  000208
102122445950001000000009034510032549PREGTIT30314065937196     000000000000594063480000000000000000000000000927140319000594063400000000000059406348200219000000001758223700000  000000000000000000000000000000000000000000000000000000000000000000000000000000000000000000000000000000000000000000000                          6000000000                                                                  000209
102122445950001000000009034510032549PREGTIT30392875189329     000000000000594092740000000000000000000000000927140319000594092700000000000059409274100319000000002000023700000  000000000000000000000000000000000000000000000000000000000000000000000000000000000000000000000000000000000000000000000                          6000000000                                                                  000210
102122445950001000000009034510032549PREGTIT30415844755797     000000000000594706660000000000000000000000000927140319000594706600000000000059470666100319000000001000023700000  000000000000000000000000000000000000000000000000000000000000000000000000000000000000000000000000000000000000000000000                          6000000000                                                                  000211
102122445950001000000009034510032549PREGTIT30314654557990     000000000000594809630000000000000000000000000927140319000594809600000000000059480963100419000000000500023700000  000000000000000000000000000000000000000000000000000000000000000000000000000000000000000000000000000000000000000000000                          6000000000                                                                  000212
102122445950001000000009034510032549PREGTIT30337245409972     000000000000594862010000000000000000000000000927140319000594862000000000000059486201070319000000001055623700000  000000000000000000000000000000000000000000000000000000000000000000000000000000000000000000000000000000000000000000000                          6000000000                                                                  000213
102122445950001000000009034510032549PREGTIT30313303097511     000000000000594901520000000000000000000000000927140319000594901500000000000059490152190319000000000750023700000  000000000000000000000000000000000000000000000000000000000000000000000000000000000000000000000000000000000000000000000                          6000000000                                                                  000214
102122445950001000000009034510032549PREGTIT30327171236409     000000000000594910270000000000000000000000000927140319000594910200000000000059491027140319000000000429823700000  000000000000000000000000000000000000000000000000000000000000000000000000000000000000000000000000000000000000000000000                          6000000000                                                                  000215
102122445950001000000009034510032549PREGTIT30319597484477     000000000000594974160000000000000000000000000927140319000594974100000000000059497416150219000000000750023700000  000000000000000000000000000000000000000000000000000000000000000000000000000000000000000000000000000000000000000000000                          6000000000                                                                  000216
102122445950001000000009034510032549PREGTIT30319597484477     000000000000594974240000000000000000000000000927140319000594974200000000000059497424150319000000000750023700000  000000000000000000000000000000000000000000000000000000000000000000000000000000000000000000000000000000000000000000000                          6000000000                                                                  000217
102122445950001000000009034510032549PREGTIT30329243585637     000000000000595020450000000000000000000000000927140319000595020400000000000059502045010319000000001166723700000  000000000000000000000000000000000000000000000000000000000000000000000000000000000000000000000000000000000000000000000                          6000000000                                                                  000218
102122445950001000000009034510032549PREGTIT30318926520583     0000000000005950532P000000000000000000000000092714031900059505320000000000005950532P090319000000000833323700000  000000000000000000000000000000000000000000000000000000000000000000000000000000000000000000000000000000000000000000000                          6000000000                                                                  000219
102122445950001000000009034510032549PREGTIT30395292432821     000000000000595062960000000000000000000000000927140319000595062900000000000059506296030319000000001071523700000  000000000000000000000000000000000000000000000000000000000000000000000000000000000000000000000000000000000000000000000                          6000000000                                                                  000220
102122445950001000000009034510032549PREGTIT30346192525960     000000000000595080940000000000000000000000000927140319000595080900000000000059508094180219000000001666723700000  000000000000000000000000000000000000000000000000000000000000000000000000000000000000000000000000000000000000000000000                          6000000000                                                                  000221
102122445950001000000009034510032549PREGTIT30328129833419     000000000000595112650000000000000000000000000927140319000595112600000000000059511265100319000000015493223700000  000000000000000000000000000000000000000000000000000000000000000000000000000000000000000000000000000000000000000000000                          6000000000                                                                  000222
102122445950001000000009034510032549PREGTIT30337580032741     000000000000595136080000000000000000000000000927140319000595136000000000000059513608080319000000001000023700000  000000000000000000000000000000000000000000000000000000000000000000000000000000000000000000000000000000000000000000000                          6000000000                                                                  000223
102122445950001000000009034510032549PREGTIT30317090028201     000000000000595148840000000000000000000000000927140319000595148800000000000059514884100319000000000489023700000  000000000000000000000000000000000000000000000000000000000000000000000000000000000000000000000000000000000000000000000                          6000000000                                                                  000224
102122445950001000000009034510032549PREGTIT30316765853683     000000000000595670230000000000000000000000000927140319000595670200000000000059567023100319000000002500023700000  000000000000000000000000000000000000000000000000000000000000000000000000000000000000000000000000000000000000000000000                          6000000000                                                                  000225
102122445950001000000009034510032549PREGTIT30318054038546     0000000000005957075P000000000000000000000000092714031900059570750000000000005957075P130319000000000511023700000  000000000000000000000000000000000000000000000000000000000000000000000000000000000000000000000000000000000000000000000                          6000000000                                                                  000226
102122445950001000000009034510032549PREGTIT30323196131512     000000000000595711950000000000000000000000000927140319000595711900000000000059571195100319000000001250023700000  000000000000000000000000000000000000000000000000000000000000000000000000000000000000000000000000000000000000000000000                          6000000000                                                                  000227
102122445950001000000009034510032549PREGTIT30311705749932     000000000000595717050000000000000000000000000927140319000595717000000000000059571705120319000000001916723700000  000000000000000000000000000000000000000000000000000000000000000000000000000000000000000000000000000000000000000000000                          6000000000                                                                  000228
102122445950001000000009034510032549PREGTIT30318193673288     000000000000595717720000000000000000000000000927140319000595717700000000000059571772050319000000000950023700000  000000000000000000000000000000000000000000000000000000000000000000000000000000000000000000000000000000000000000000000                          6000000000                                                                  000229
102122445950001000000009034510032549PREGTIT30317333400924     000000000000595739370000000000000000000000000927140319000595739300000000000059573937010319000000001000023700000  000000000000000000000000000000000000000000000000000000000000000000000000000000000000000000000000000000000000000000000                          6000000000                                                                  000230
102122445950001000000009034510032549PREGTIT30311734345758     000000000000595763080000000000000000000000000927140319000595763000000000000059576308020319000000001083323700000  000000000000000000000000000000000000000000000000000000000000000000000000000000000000000000000000000000000000000000000                          6000000000                                                                  000231
102122445950001000000009034510032549PREGTIT30317084731422     000000000000595766420000000000000000000000000927140319000595766400000000000059576642060319000000001213523700000  000000000000000000000000000000000000000000000000000000000000000000000000000000000000000000000000000000000000000000000                          6000000000                                                                  000232
102122445950001000000009034510032549PREGTIT30312498593880     000000000000595811820000000000000000000000000927140319000595811800000000000059581182210219000000000916723700000  000000000000000000000000000000000000000000000000000000000000000000000000000000000000000000000000000000000000000000000                          6000000000                                                                  000233
102122445950001000000009034510032549PREGTIT30357066102404     000000000000595824210000000000000000000000000927140319000595824200000000000059582421220219000000001680023700000  000000000000000000000000000000000000000000000000000000000000000000000000000000000000000000000000000000000000000000000                          6000000000                                                                  000234
102122445950001000000009034510032549PREGTIT30312852917557     000000000000595864270000000000000000000000000927140319000595864200000000000059586427240219000000001390023700000  000000000000000000000000000000000000000000000000000000000000000000000000000000000000000000000000000000000000000000000                          6000000000                                                                  000235
102122445950001000000009034510032549PREGTIT30312852917557     000000000000595864350000000000000000000000000927140319000595864300000000000059586435240319000000001390023700000  000000000000000000000000000000000000000000000000000000000000000000000000000000000000000000000000000000000000000000000                          6000000000                                                                  000236
102122445950001000000009034510032549PREGTIT30316123885748     000000000000595865240000000000000000000000000927140319000595865200000000000059586524240219000000000437023700000  000000000000000000000000000000000000000000000000000000000000000000000000000000000000000000000000000000000000000000000                          6000000000                                                                  000237
102122445950001000000009034510032549PREGTIT30318359940027     000000000000595902540000000000000000000000000927140319000595902500000000000059590254080319000000000583323700000  000000000000000000000000000000000000000000000000000000000000000000000000000000000000000000000000000000000000000000000                          6000000000                                                                  000238
102122445950001000000009034510032549PREGTIT30319548962927     000000000000595920520000000000000000000000000927140319000595920500000000000059592052280219000000001125023700000  000000000000000000000000000000000000000000000000000000000000000000000000000000000000000000000000000000000000000000000                          6000000000                                                                  000239
102122445950001000000009034510032549PREGTIT30318871858078     0000000000005959733P000000000000000000000000092714031900059597330000000000005959733P150319000000004953123700000  000000000000000000000000000000000000000000000000000000000000000000000000000000000000000000000000000000000000000000000                          6000000000                                                                  000240
102122445950001000000009034510032549PREGTIT30318838531287     000000000000596008450000000000000000000000000927140319000596008400000000000059600845100319000000001832023700000  000000000000000000000000000000000000000000000000000000000000000000000000000000000000000000000000000000000000000000000                          6000000000                                                                  000241
102122445950001000000009034510032549PREGTIT30406442785014     000000000000596032160000000000000000000000000927140319000596032100000000000059603216040319000000000996723700000  000000000000000000000000000000000000000000000000000000000000000000000000000000000000000000000000000000000000000000000                          6000000000                                                                  000242
102122445950001000000009034510032549PREGTIT30358764992691     000000000000596054640000000000000000000000000927140319000596054600000000000059605464100319000000002600023700000  000000000000000000000000000000000000000000000000000000000000000000000000000000000000000000000000000000000000000000000                          6000000000                                                                  000243
102122445950001000000009034510032549PREGTIT30326929052981     000000000000596618010000000000000000000000000927140319000596618000000000000059661801100319000000000349323700000  000000000000000000000000000000000000000000000000000000000000000000000000000000000000000000000000000000000000000000000                          6000000000                                                                  000244
102122445950001000000009034510032549PREGTIT30396124105867     000000000000596620690000000000000000000000000927140319000596620600000000000059662069100319000000000950023700000  000000000000000000000000000000000000000000000000000000000000000000000000000000000000000000000000000000000000000000000                          6000000000                                                                  000245
102122445950001000000009034510032549PREGTIT30319726547064     000000000000596629480000000000000000000000000927140319000596629400000000000059662948150319000000000846723700000  000000000000000000000000000000000000000000000000000000000000000000000000000000000000000000000000000000000000000000000                          6000000000                                                                  000246
102122445950001000000009034510032549PREGTIT30327807685248     000000000000596973340000000000000000000000000927140319000596973300000000000059697334150319000000010064123700000  000000000000000000000000000000000000000000000000000000000000000000000000000000000000000000000000000000000000000000000                          6000000000                                                                  000247
102122445950001000000009034510032549PREGTIT30319709723898     000000000000596987130000000000000000000000000927140319000596987100000000000059698713100319000000001200023700000  000000000000000000000000000000000000000000000000000000000000000000000000000000000000000000000000000000000000000000000                          6000000000                                                                  000248
