02RETORNO01COBRANCA       00000000000004852239ISPCN ADM DE COBRANCA DE TITUL237BRADESCO       2603190160000000611                                                                                                                                                                                                                                                                          270319         000001
102122445950001000000009034510032549PREGTIT31188273184378     000000000000580132100000000000000000000000000902260319000580132100000000000058013210250519000000001000023704151  000000000014300000000000000000000000000000000000000000000000000000000000000000000000000000000000000000000000000000000                          7600000000                                                                  000002
102122445950001000000009034510032549PREGTIT31185148746205     000000000000589842320000000000000000000000000902260319000589842300000000000058984232250519000000003000023704144  000000000014300000000000000000000000000000000000000000000000000000000000000000000000000000000000000000000000000000000                          0000000000                                                                  000003
102122445950001000000009034510032549PREGTIT31181498430019     000000000000589954120000000000000000000000000902260319000589954100000000000058995412250519000000003900023700073  000000000014300000000000000000000000000000000000000000000000000000000000000000000000000000000000000000000000000000000                          0000000000                                                                  000004
102122445950001000000009034510032549PREGTIT31188756222066     000000000000589980710000000000000000000000000902260319000589980700000000000058998071250519000000005000023704151  000000000014300000000000000000000000000000000000000000000000000000000000000000000000000000000000000000000000000000000                          0000000000                                                                  000005
102122445950001000000009034510032549PREGTIT31185946427339     000000000000590793470000000000000000000000000902260319000590793400000000000059079347250519000000003700023704151  000000000014300000000000000000000000000000000000000000000000000000000000000000000000000000000000000000000000000000000                          7600000000                                                                  000006
102122445950001000000009034510032549PREGTIT31187921308312     000000000000591671140000000000000000000000000902260319000591671100000000000059167114250519000000002500023704151  000000000014300000000000000000000000000000000000000000000000000000000000000000000000000000000000000000000000000000000                          0000000000                                                                  000007
102122445950001000000009034510032549PREGTIT31187011057018     000000000000591696560000000000000000000000000902260319000591696500000000000059169656250519000000002420023700140  000000000014300000000000000000000000000000000000000000000000000000000000000000000000000000000000000000000000000000000                          0000000000                                                                  000008
102122445950001000000009034510032549PREGTIT31188207279956     000000000000591753970000000000000000000000000902260319000591753900000000000059175397250519000000001500023704151  000000000014300000000000000000000000000000000000000000000000000000000000000000000000000000000000000000000000000000000                          0000000000                                                                  000009
102122445950001000000009034510032549PREGTIT31189228516676     0000000000005918065P000000000000000000000000090226031900059180650000000000005918065P250519000000002100023704152  000000000014300000000000000000000000000000000000000000000000000000000000000000000000000000000000000000000000000000000                          0000000000                                                                  000010
102122445950001000000009034510032549PREGTIT31189973165492     000000000000591869840000000000000000000000000902260319000591869800000000000059186984250519000000004000023703451  000000000014300000000000000000000000000000000000000000000000000000000000000000000000000000000000000000000000000000000                          0000000000                                                                  000011
102122445950001000000009034510032549PREGTIT31188156632454     000000000000591890610000000000000000000000000902260319000591890600000000000059189061250519000000005000023704151  000000000014300000000000000000000000000000000000000000000000000000000000000000000000000000000000000000000000000000000                          0000000000                                                                  000012
102122445950001000000009034510032549PREGTIT31181683602192     000000000000592617140000000000000000000000000902260319000592617100000000000059261714250519000000001400023704151  000000000014300000000000000000000000000000000000000000000000000000000000000000000000000000000000000000000000000000000                          0000000000                                                                  000013
102122445950001000000009034510032549PREGTIT31186899935321     000000000000592697230000000000000000000000000902260319000592697200000000000059269723250519000000001800023703451  000000000014300000000000000000000000000000000000000000000000000000000000000000000000000000000000000000000000000000000                          0000000000                                                                  000014
102122445950001000000009034510032549PREGTIT31185476611260     000000000000592731000000000000000000000000000902260319000592731000000000000059273100250519000000003550023703451  000000000014300000000000000000000000000000000000000000000000000000000000000000000000000000000000000000000000000000000                          7600000000                                                                  000015
102122445950001000000009034510032549PREGTIT31187746064845     000000000000592824870000000000000000000000000902260319000592824800000000000059282487250519000000000700023703451  000000000014300000000000000000000000000000000000000000000000000000000000000000000000000000000000000000000000000000000                          0000000000                                                                  000016
102122445950001000000009034510032549PREGTIT31185140268959     000000000000592870980000000000000000000000000902260319000592870900000000000059287098250519000000005000023704157  000000000014300000000000000000000000000000000000000000000000000000000000000000000000000000000000000000000000000000000                          7600000000                                                                  000017
102122445950001000000009034510032549PREGTIT31183233908311     000000000000592885580000000000000000000000000902260319000592885500000000000059288558250519000000003090023703451  000000000014300000000000000000000000000000000000000000000000000000000000000000000000000000000000000000000000000000000                          0000000000                                                                  000018
102122445950001000000009034510032549PREGTIT31183583709609     000000000000592886550000000000000000000000000902260319000592886500000000000059288655250519000000002000023704152  000000000014300000000000000000000000000000000000000000000000000000000000000000000000000000000000000000000000000000000                          0000000000                                                                  000019
102122445950001000000009034510032549PREGTIT31183562745079     0000000000005929888P000000000000000000000000090226031900059298880000000000005929888P250519000000002500023704151  000000000014300000000000000000000000000000000000000000000000000000000000000000000000000000000000000000000000000000000                          0000000000                                                                  000020
102122445950001000000009034510032549PREGTIT31182133733096     000000000000593033790000000000000000000000000902260319000593033700000000000059303379250519000000003100023704151  000000000014300000000000000000000000000000000000000000000000000000000000000000000000000000000000000000000000000000000                          7600000000                                                                  000021
102122445950001000000009034510032549PREGTIT31185034569497     0000000000005931298P000000000000000000000000090226031900059312980000000000005931298P250519000000001000023704144  000000000014300000000000000000000000000000000000000000000000000000000000000000000000000000000000000000000000000000000                          7600000000                                                                  000022
102122445950001000000009034510032549PREGTIT31184361202965     000000000000593720600000000000000000000000000902260319000593720600000000000059372060250519000000005812123704151  000000000014300000000000000000000000000000000000000000000000000000000000000000000000000000000000000000000000000000000                          0000000000                                                                  000023
102122445950001000000009034510032549PREGTIT31196728526999     000000000000593756390000000000000000000000000902260319000593756300000000000059375639250519000000002900023703109  000000000014300000000000000000000000000000000000000000000000000000000000000000000000000000000000000000000000000000000                          0000000000                                                                  000024
102122445950001000000009034510032549PREGTIT31187005816151     000000000000593856500000000000000000000000000902260319000593856500000000000059385650250519000000001489623704157  000000000014300000000000000000000000000000000000000000000000000000000000000000000000000000000000000000000000000000000                          0000000000                                                                  000025
102122445950001000000009034510032549PREGTIT31182932116087     000000000000593884980000000000000000000000000902260319000593884900000000000059388498250519000000001300023704159  000000000014300000000000000000000000000000000000000000000000000000000000000000000000000000000000000000000000000000000                          0000000000                                                                  000026
102122445950001000000009034510032549PREGTIT31185072772668     000000000000593906700000000000000000000000000902260319000593906700000000000059390670250519000000001350023704152  000000000014300000000000000000000000000000000000000000000000000000000000000000000000000000000000000000000000000000000                          0000000000                                                                  000027
102122445950001000000009034510032549PREGTIT31186542719006     0000000000005939286P000000000000000000000000090226031900059392860000000000005939286P250519000000005175123704152  000000000014300000000000000000000000000000000000000000000000000000000000000000000000000000000000000000000000000000000                          0000000000                                                                  000028
102122445950001000000009034510032549PREGTIT31184147350365     000000000000593952650000000000000000000000000902260319000593952600000000000059395265250519000000000950023703451  000000000014300000000000000000000000000000000000000000000000000000000000000000000000000000000000000000000000000000000                          0000000000                                                                  000029
102122445950001000000009034510032549PREGTIT31183281007856     000000000000594088630000000000000000000000000902260319000594088600000000000059408863250519000000001333323704151  000000000014300000000000000000000000000000000000000000000000000000000000000000000000000000000000000000000000000000000                          0000000000                                                                  000030
102122445950001000000009034510032549PREGTIT31189967075449     000000000000594112600000000000000000000000000902260319000594112600000000000059411260250519000000001000023703451  000000000014300000000000000000000000000000000000000000000000000000000000000000000000000000000000000000000000000000000                          0000000000                                                                  000031
102122445950001000000009034510032549PREGTIT31184970323468     000000000000594643130000000000000000000000000902260319000594643100000000000059464313250519000000005600023704151  000000000014300000000000000000000000000000000000000000000000000000000000000000000000000000000000000000000000000000000                          0000000000                                                                  000032
102122445950001000000009034510032549PREGTIT31184961729380     000000000000594647040000000000000000000000000902260319000594647000000000000059464704250519000000001000023704151  000000000014300000000000000000000000000000000000000000000000000000000000000000000000000000000000000000000000000000000                          0000000000                                                                  000033
102122445950001000000009034510032549PREGTIT31185998789945     0000000000005947775P000000000000000000000000090226031900059477750000000000005947775P250519000000004200023704151  000000000014300000000000000000000000000000000000000000000000000000000000000000000000000000000000000000000000000000000                          0000000000                                                                  000034
102122445950001000000009034510032549PREGTIT31183045644971     000000000000594793290000000000000000000000000902260319000594793200000000000059479329250519000000004900023704151  000000000014300000000000000000000000000000000000000000000000000000000000000000000000000000000000000000000000000000000                          7600000000                                                                  000035
102122445950001000000009034510032549PREGTIT31186030086340     000000000000594818970000000000000000000000000902260319000594818900000000000059481897250519000000003190023703451  000000000014300000000000000000000000000000000000000000000000000000000000000000000000000000000000000000000000000000000                          0000000000                                                                  000036
102122445950001000000009034510032549PREGTIT31184547027411     000000000000594820280000000000000000000000000902260319000594820200000000000059482028250519000000002600023703451  000000000014300000000000000000000000000000000000000000000000000000000000000000000000000000000000000000000000000000000                          0000000000                                                                  000037
102122445950001000000009034510032549PREGTIT31187671334710     000000000000594830830000000000000000000000000902260319000594830800000000000059483083250519000000002230023703451  000000000014300000000000000000000000000000000000000000000000000000000000000000000000000000000000000000000000000000000                          0000000000                                                                  000038
102122445950001000000009034510032549PREGTIT31182840809246     0000000000005948554P000000000000000000000000090226031900059485540000000000005948554P250519000000001900023704152  000000000014300000000000000000000000000000000000000000000000000000000000000000000000000000000000000000000000000000000                          0000000000                                                                  000039
102122445950001000000009034510032549PREGTIT31184660486173     000000000000594909420000000000000000000000000902260319000594909400000000000059490942250519000000003000023704151  000000000014300000000000000000000000000000000000000000000000000000000000000000000000000000000000000000000000000000000                          0000000000                                                                  000040
102122445950001000000009034510032549PREGTIT31188385801493     000000000000594918840000000000000000000000000902260319000594918800000000000059491884250519000000001600023704151  000000000014300000000000000000000000000000000000000000000000000000000000000000000000000000000000000000000000000000000                          0000000000                                                                  000041
102122445950001000000009034510032549PREGTIT31183789051915     000000000000594919730000000000000000000000000902260319000594919700000000000059491973250519000000001500023704152  000000000014300000000000000000000000000000000000000000000000000000000000000000000000000000000000000000000000000000000                          0000000000                                                                  000042
102122445950001000000009034510032549PREGTIT31183857265880     000000000000594920740000000000000000000000000902260319000594920700000000000059492074250519000000002180023704152  000000000014300000000000000000000000000000000000000000000000000000000000000000000000000000000000000000000000000000000                          0000000000                                                                  000043
102122445950001000000009034510032549PREGTIT31185743571408     000000000000594948080000000000000000000000000902260319000594948000000000000059494808250519000000001239023703451  000000000014300000000000000000000000000000000000000000000000000000000000000000000000000000000000000000000000000000000                          0000000000                                                                  000044
102122445950001000000009034510032549PREGTIT31185222133240     000000000000595110520000000000000000000000000902260319000595110500000000000059511052250519000000002540023704151  000000000014300000000000000000000000000000000000000000000000000000000000000000000000000000000000000000000000000000000                          0000000000                                                                  000045
102122445950001000000009034510032549PREGTIT31185389947249     000000000000595674570000000000000000000000000902260319000595674500000000000059567457250519000000005300023704151  000000000014300000000000000000000000000000000000000000000000000000000000000000000000000000000000000000000000000000000                          0000000000                                                                  000046
102122445950001000000009034510032549PREGTIT31189070825059     000000000000595753520000000000000000000000000902260319000595753500000000000059575352250519000000000700023704157  000000000014300000000000000000000000000000000000000000000000000000000000000000000000000000000000000000000000000000000                          0000000000                                                                  000047
102122445950001000000009034510032549PREGTIT31181494497197     000000000000595800700000000000000000000000000902260319000595800700000000000059580070250519000000001000023704157  000000000014300000000000000000000000000000000000000000000000000000000000000000000000000000000000000000000000000000000                          7600000000                                                                  000048
102122445950001000000009034510032549PREGTIT31184153540229     000000000000595829280000000000000000000000000902260319000595829200000000000059582928250519000000006420023704151  000000000014300000000000000000000000000000000000000000000000000000000000000000000000000000000000000000000000000000000                          0000000000                                                                  000049
102122445950001000000009034510032549PREGTIT31183442777730     000000000000595833710000000000000000000000000902260319000595833700000000000059583371250519000000004000023704151  000000000014300000000000000000000000000000000000000000000000000000000000000000000000000000000000000000000000000000000                          0000000000                                                                  000050
102122445950001000000009034510032549PREGTIT31189922791860     000000000000595890350000000000000000000000000902260319000595890300000000000059589035250519000000000600023704144  000000000014300000000000000000000000000000000000000000000000000000000000000000000000000000000000000000000000000000000                          0000000000                                                                  000051
102122445950001000000009034510032549PREGTIT31184858723618     000000000000595903350000000000000000000000000902260319000595903300000000000059590335250519000000000800023704144  000000000014300000000000000000000000000000000000000000000000000000000000000000000000000000000000000000000000000000000                          0000000000                                                                  000052
102122445950001000000009034510032549PREGTIT31186410096362     000000000000595951910000000000000000000000000902260319000595951900000000000059595191250519000000002500023704157  000000000014300000000000000000000000000000000000000000000000000000000000000000000000000000000000000000000000000000000                          0000000000                                                                  000053
102122445950001000000009034510032549PREGTIT31188175989252     000000000000596032750000000000000000000000000902260319000596032700000000000059603275250519000000003900023704151  000000000014300000000000000000000000000000000000000000000000000000000000000000000000000000000000000000000000000000000                          0000000000                                                                  000054
102122445950001000000009034510032549PREGTIT31181674997611     000000000000596040260000000000000000000000000902260319000596040200000000000059604026250519000000002500023704151  000000000014300000000000000000000000000000000000000000000000000000000000000000000000000000000000000000000000000000000                          0000000000                                                                  000055
102122445950001000000009034510032549PREGTIT31188146008377     0000000000005966343P000000000000000000000000090226031900059663430000000000005966343P250519000000001000023704157  000000000014300000000000000000000000000000000000000000000000000000000000000000000000000000000000000000000000000000000                          7600000000                                                                  000056
102122445950001000000009034510032549PREGTIT31181514712493     0000000000005966715P000000000000000000000000090226031900059667150000000000005966715P250519000000001300023704151  000000000014300000000000000000000000000000000000000000000000000000000000000000000000000000000000000000000000000000000                          0000000000                                                                  000057
102122445950001000000009034510032549PREGTIT31187817320517     000000000000596728380000000000000000000000000902260319000596728300000000000059672838250519000000002644023704144  000000000014300000000000000000000000000000000000000000000000000000000000000000000000000000000000000000000000000000000                          0000000000                                                                  000058
102122445950001000000009034510032549PREGTIT31187122917580     000000000000596790930000000000000000000000000902260319000596790900000000000059679093250519000000001900023704151  000000000014300000000000000000000000000000000000000000000000000000000000000000000000000000000000000000000000000000000                          0000000000                                                                  000059
102122445950001000000009034510032549PREGTIT31182784993366     0000000000005968562P000000000000000000000000090226031900059685620000000000005968562P250519000000002200023704151  000000000014300000000000000000000000000000000000000000000000000000000000000000000000000000000000000000000000000000000                          0000000000                                                                  000060
102122445950001000000009034510032549PREGTIT31188657258103     000000000000596890210000000000000000000000000902260319000596890200000000000059689021250519000000003400023703451  000000000014300000000000000000000000000000000000000000000000000000000000000000000000000000000000000000000000000000000                          0000000000                                                                  000061
102122445950001000000009034510032549PREGTIT31185712640823     000000000000596911150000000000000000000000000902260319000596911100000000000059691115250519000000001450023703109  000000000014300000000000000000000000000000000000000000000000000000000000000000000000000000000000000000000000000000000                          0000000000                                                                  000062
102122445950001000000009034510032549PREGTIT31187686478814     000000000000596997440000000000000000000000000902260319000596997400000000000059699744250519000000002100023704151  000000000014300000000000000000000000000000000000000000000000000000000000000000000000000000000000000000000000000000000                          7600000000                                                                  000063
102122445950001000000009034510032549PREGTIT31186535484467     0000000000005970263P000000000000000000000000090226031900059702630000000000005970263P250519000000001200023703109  000000000014300000000000000000000000000000000000000000000000000000000000000000000000000000000000000000000000000000000                          0000000000                                                                  000064
102122445950001000000009034510032549PREGTIT31188743902242     000000000000597539940000000000000000000000000902260319000597539900000000000059753994250519000000005000023704151  000000000014300000000000000000000000000000000000000000000000000000000000000000000000000000000000000000000000000000000                          0000000000                                                                  000065
102122445950001000000009034510032549PREGTIT31185548949158     000000000000597569420000000000000000000000000902260319000597569400000000000059756942250519000000001540023704151  000000000014300000000000000000000000000000000000000000000000000000000000000000000000000000000000000000000000000000000                          0000000000                                                                  000066
102122445950001000000009034510032549PREGTIT31185486970937     000000000000597636980000000000000000000000000902260319000597636900000000000059763698250519000000004500023704157  000000000014300000000000000000000000000000000000000000000000000000000000000000000000000000000000000000000000000000000                          7600000000                                                                  000067
102122445950001000000009034510032549PREGTIT31188090870492     0000000000005976886P000000000000000000000000090226031900059768860000000000005976886P250519000000001700023703451  000000000014300000000000000000000000000000000000000000000000000000000000000000000000000000000000000000000000000000000                          7600000000                                                                  000068
102122445950001000000009034510032549PREGTIT31189834783400     0000000000005977228P000000000000000000000000090226031900059772280000000000005977228P250519000000005200023704151  000000000014300000000000000000000000000000000000000000000000000000000000000000000000000000000000000000000000000000000                          0000000000                                                                  000069
102122445950001000000009034510032549PREGTIT31187780336518     000000000000597742900000000000000000000000000902260319000597742900000000000059774290250519000000001600023704152  000000000014300000000000000000000000000000000000000000000000000000000000000000000000000000000000000000000000000000000                          7600000000                                                                  000070
102122445950001000000009034510032549PREGTIT31182836253171     000000000000597750330000000000000000000000000902260319000597750300000000000059775033250519000000003170023704144  000000000014300000000000000000000000000000000000000000000000000000000000000000000000000000000000000000000000000000000                          0000000000                                                                  000071
102122445950001000000009034510032549PREGTIT31187456666856     000000000000597775590000000000000000000000000902260319000597775500000000000059777559250519000000002790023704151  000000000014300000000000000000000000000000000000000000000000000000000000000000000000000000000000000000000000000000000                          0000000000                                                                  000072
102122445950001000000009034510032549PREGTIT31181785677543     000000000000597776560000000000000000000000000902260319000597776500000000000059777656250519000000000710023703451  000000000014300000000000000000000000000000000000000000000000000000000000000000000000000000000000000000000000000000000                          0000000000                                                                  000073
102122445950001000000009034510032549PREGTIT31188541970422     000000000000597826680000000000000000000000000902260319000597826600000000000059782668250519000000007600023704151  000000000014300000000000000000000000000000000000000000000000000000000000000000000000000000000000000000000000000000000                          0000000000                                                                  000074
102122445950001000000009034510032549PREGTIT31182288989312     000000000000597854620000000000000000000000000902260319000597854600000000000059785462250519000000001200023703109  000000000014300000000000000000000000000000000000000000000000000000000000000000000000000000000000000000000000000000000                          0000000000                                                                  000075
102122445950001000000009034510032549PREGTIT31182958873261     000000000000597865070000000000000000000000000902260319000597865000000000000059786507250519000000001000023700408  000000000014300000000000000000000000000000000000000000000000000000000000000000000000000000000000000000000000000000000                          0000000000                                                                  000076
102122445950001000000009034510032549PREGTIT31183501358036     000000000000597867790000000000000000000000000902260319000597867700000000000059786779250519000000000875023700408  000000000014300000000000000000000000000000000000000000000000000000000000000000000000000000000000000000000000000000000                          0000000000                                                                  000077
102122445950001000000009034510032549PREGTIT31182048696879     0000000000005978718P000000000000000000000000090226031900059787180000000000005978718P250519000000001300023700408  000000000014300000000000000000000000000000000000000000000000000000000000000000000000000000000000000000000000000000000                          0000000000                                                                  000078
102122445950001000000009034510032549PREGTIT31181812779783     000000000000597880460000000000000000000000000902260319000597880400000000000059788046250519000000001400023700408  000000000014300000000000000000000000000000000000000000000000000000000000000000000000000000000000000000000000000000000                          0000000000                                                                  000079
102122445950001000000009034510032549PREGTIT31185423878468     000000000000597897000000000000000000000000000902260319000597897000000000000059789700250519000000003450023704151  000000000014300000000000000000000000000000000000000000000000000000000000000000000000000000000000000000000000000000000                          0000000000                                                                  000080
102122445950001000000009034510032549PREGTIT31188781987805     000000000000598428810000000000000000000000000902260319000598428800000000000059842881250519000000001333323703109  000000000014300000000000000000000000000000000000000000000000000000000000000000000000000000000000000000000000000000000                          0000000000                                                                  000081
102122445950001000000009034510032549PREGTIT31189683233979     000000000000598430470000000000000000000000000902260319000598430400000000000059843047250519000000001333323703109  000000000014300000000000000000000000000000000000000000000000000000000000000000000000000000000000000000000000000000000                          0000000000                                                                  000082
102122445950001000000009034510032549PREGTIT31185598101665     0000000000005984311P000000000000000000000000090226031900059843110000000000005984311P250519000000002000023703109  000000000014300000000000000000000000000000000000000000000000000000000000000000000000000000000000000000000000000000000                          0000000000                                                                  000083
102122445950001000000009034510032549PREGTIT31186369669408     0000000000005984339P000000000000000000000000090226031900059843390000000000005984339P250519000000001433323703109  000000000014300000000000000000000000000000000000000000000000000000000000000000000000000000000000000000000000000000000                          0000000000                                                                  000084
102122445950001000000009034510032549PREGTIT31182705264948     000000000000598434460000000000000000000000000902260319000598434400000000000059843446250519000000002000023703109  000000000014300000000000000000000000000000000000000000000000000000000000000000000000000000000000000000000000000000000                          0000000000                                                                  000085
102122445950001000000009034510032549PREGTIT31188750381378     000000000000598460380000000000000000000000000902260319000598460300000000000059846038250519000000003900023704151  000000000014300000000000000000000000000000000000000000000000000000000000000000000000000000000000000000000000000000000                          7600000000                                                                  000086
102122445950001000000009034510032549PREGTIT31182304707330     000000000000598472980000000000000000000000000902260319000598472900000000000059847298250519000000001387323704151  000000000014300000000000000000000000000000000000000000000000000000000000000000000000000000000000000000000000000000000                          0000000000                                                                  000087
102122445950001000000009034510032549PREGTIT31185362014563     0000000000005985121P000000000000000000000000090226031900059851210000000000005985121P200519000000017800023704157  000000000014300000000000000000000000000000000000000000000000000000000000000000000000000000000000000000000000000000000                          7600000000                                                                  000088
102122445950001000000009034510032549PREGTIT31184053339933     000000000000598512600000000000000000000000000902260319000598512600000000000059851260210519000000017800023704157  000000000014300000000000000000000000000000000000000000000000000000000000000000000000000000000000000000000000000000000                          7600000000                                                                  000089
102122445950001000000009034510032549PREGTIT31189538577439     000000000000598514650000000000000000000000000902260319000598514600000000000059851465250519000000003800023704151  000000000014300000000000000000000000000000000000000000000000000000000000000000000000000000000000000000000000000000000                          0000000000                                                                  000090
102122445950001000000009034510032549PREGTIT31187437017663     000000000000598534330000000000000000000000000902260319000598534300000000000059853433250519000000004700023704151  000000000014300000000000000000000000000000000000000000000000000000000000000000000000000000000000000000000000000000000                          7600000000                                                                  000091
102122445950001000000009034510032549PREGTIT31185537079709     000000000000598582220000000000000000000000000902260319000598582200000000000059858222250519000000001400023703451  000000000014300000000000000000000000000000000000000000000000000000000000000000000000000000000000000000000000000000000                          7600000000                                                                  000092
102122445950001000000009034510032549PREGTIT31185610784780     000000000000598584430000000000000000000000000902260319000598584400000000000059858443250519000000002000023703451  000000000014300000000000000000000000000000000000000000000000000000000000000000000000000000000000000000000000000000000                          0000000000                                                                  000093
102122445950001000000009034510032549PREGTIT31182964510520     000000000000598594580000000000000000000000000902260319000598594500000000000059859458250519000000001820023703451  000000000014300000000000000000000000000000000000000000000000000000000000000000000000000000000000000000000000000000000                          0000000000                                                                  000094
102122445950001000000009034510032549PREGTIT31189854983799     000000000000598599110000000000000000000000000902260319000598599100000000000059859911250519000000001170023704422  000000000014300000000000000000000000000000000000000000000000000000000000000000000000000000000000000000000000000000000                          7600000000                                                                  000095
102122445950001000000009034510032549PREGTIT31187344262214     000000000000598599700000000000000000000000000902260319000598599700000000000059859970250519000000015000023704144  000000000014300000000000000000000000000000000000000000000000000000000000000000000000000000000000000000000000000000000                          7600000000                                                                  000096
102122445950001000000009034510032549PREGTIT31181437375479     000000000000598610450000000000000000000000000902260319000598610400000000000059861045250519000000004100023704151  000000000014300000000000000000000000000000000000000000000000000000000000000000000000000000000000000000000000000000000                          0000000000                                                                  000097
102122445950001000000009034510032549PREGTIT31185366252006     0000000000005986253P000000000000000000000000090226031900059862530000000000005986253P250519000000002200023704151  000000000014300000000000000000000000000000000000000000000000000000000000000000000000000000000000000000000000000000000                          0000000000                                                                  000098
102122445950001000000009034510032549PREGTIT31186195224788     000000000000598682950000000000000000000000000902260319000598682900000000000059868295250519000000004740023704151  000000000014300000000000000000000000000000000000000000000000000000000000000000000000000000000000000000000000000000000                          0000000000                                                                  000099
102122445950001000000009034510032549PREGTIT31187823465300     000000000000598698950000000000000000000000000902260319000598698900000000000059869895250519000000001455523704157  000000000014300000000000000000000000000000000000000000000000000000000000000000000000000000000000000000000000000000000                          0000000000                                                                  000100
102122445950001000000009034510032549PREGTIT31184455260468     000000000000598762390000000000000000000000000902260319000598762300000000000059876239250519000000001180023703451  000000000014300000000000000000000000000000000000000000000000000000000000000000000000000000000000000000000000000000000                          0000000000                                                                  000101
102122445950001000000009034510032549PREGTIT31181397749247     000000000000599273130000000000000000000000000902260319000599273100000000000059927313250519000000002500023704157  000000000014300000000000000000000000000000000000000000000000000000000000000000000000000000000000000000000000000000000                          7600000000                                                                  000102
102122445950001000000009034510032549PREGTIT31182870088033     000000000000599278870000000000000000000000000902260319000599278800000000000059927887250519000000003333323704151  000000000014300000000000000000000000000000000000000000000000000000000000000000000000000000000000000000000000000000000                          0000000000                                                                  000103
102122445950001000000009034510032549PREGTIT31182260040417     000000000000599312480000000000000000000000000902260319000599312400000000000059931248250519000000001166723704144  000000000014300000000000000000000000000000000000000000000000000000000000000000000000000000000000000000000000000000000                          7600000000                                                                  000104
102122445950001000000009034510032549PREGTIT31181915056001     000000000000599348320000000000000000000000000902260319000599348300000000000059934832250519000000000900023700408  000000000014300000000000000000000000000000000000000000000000000000000000000000000000000000000000000000000000000000000                          0000000000                                                                  000105
102122445950001000000009034510032549PREGTIT31182849191278     000000000000599351110000000000000000000000000902260319000599351100000000000059935111250519000000000750023700408  000000000014300000000000000000000000000000000000000000000000000000000000000000000000000000000000000000000000000000000                          0000000000                                                                  000106
102122445950001000000009034510032549PREGTIT31188494238692     000000000000599412510000000000000000000000000902260319000599412500000000000059941251250519000000001333323703109  000000000014300000000000000000000000000000000000000000000000000000000000000000000000000000000000000000000000000000000                          0000000000                                                                  000107
102122445950001000000009034510032549PREGTIT31184507665029     000000000000599433860000000000000000000000000902260319000599433800000000000059943386250519000000000625023700408  000000000014300000000000000000000000000000000000000000000000000000000000000000000000000000000000000000000000000000000                          0000000000                                                                  000108
102122445950001000000009034510032549PREGTIT31182547616817     0000000000005994353P000000000000000000000000090226031900059943530000000000005994353P250519000000004700023704152  000000000014300000000000000000000000000000000000000000000000000000000000000000000000000000000000000000000000000000000                          7600000000                                                                  000109
102122445950001000000009034510032549PREGTIT31184106941545     000000000000599436020000000000000000000000000902260319000599436000000000000059943602250519000000002640023704151  000000000014300000000000000000000000000000000000000000000000000000000000000000000000000000000000000000000000000000000                          0000000000                                                                  000110
102122445950001000000009034510032549PREGTIT31188156803150     000000000000599460320000000000000000000000000902260319000599460300000000000059946032250519000000001625023703109  000000000014300000000000000000000000000000000000000000000000000000000000000000000000000000000000000000000000000000000                          0000000000                                                                  000111
102122445950001000000009034510032549PREGTIT31182653545956     000000000000599498800000000000000000000000000902260319000599498800000000000059949880250519000000002000023700073  000000000014300000000000000000000000000000000000000000000000000000000000000000000000000000000000000000000000000000000                          0000000000                                                                  000112
102122445950001000000009034510032549PREGTIT31182755942828     000000000000599536750000000000000000000000000902260319000599536700000000000059953675250519000000001303323703451  000000000014300000000000000000000000000000000000000000000000000000000000000000000000000000000000000000000000000000000                          7600000000                                                                  000113
102122445950001000000009034510032549PREGTIT31189598906433     000000000000599555030000000000000000000000000902260319000599555000000000000059955503250519000000000826723704422  000000000014300000000000000000000000000000000000000000000000000000000000000000000000000000000000000000000000000000000                          0000000000                                                                  000114
102122445950001000000009034510032549PREGTIT31182731800331     000000000000599555700000000000000000000000000902260319000599555700000000000059955570250519000000001225023703451  000000000014300000000000000000000000000000000000000000000000000000000000000000000000000000000000000000000000000000000                          0000000000                                                                  000115
102122445950001000000009034510032549PREGTIT31189819511022     000000000000599556000000000000000000000000000902260319000599556000000000000059955600300319000000000750023704144  000000000014300000000000000000000000000000000000000000000000000000000000000000000000000000000000000000000000000000000                          0000000000                                                                  000116
102122445950001000000009034510032549PREGTIT31189819511022     000000000000599556190000000000000000000000000902260319000599556100000000000059955619300419000000000750023704144  000000000014300000000000000000000000000000000000000000000000000000000000000000000000000000000000000000000000000000000                          0000000000                                                                  000117
102122445950001000000009034510032549PREGTIT31187995773719     000000000000599556860000000000000000000000000902260319000599556800000000000059955686260419000000000888523704157  000000000014300000000000000000000000000000000000000000000000000000000000000000000000000000000000000000000000000000000                          0000000000                                                                  000118
102122445950001000000009034510032549PREGTIT31182011209647     000000000000599557670000000000000000000000000902260319000599557600000000000059955767290319000000000600023704157  000000000014300000000000000000000000000000000000000000000000000000000000000000000000000000000000000000000000000000000                          0000000000                                                                  000119
102122445950001000000009034510032549PREGTIT31194351364340     000000000000599557750000000000000000000000000902260319000599557700000000000059955775230419000000005000023704144  000000000014300000000000000000000000000000000000000000000000000000000000000000000000000000000000000000000000000000000                          0000000000                                                                  000120
102122445950001000000009034510032549PREGTIT31194351364340     000000000000599557830000000000000000000000000902260319000599557800000000000059955783230519000000005000023704144  000000000014300000000000000000000000000000000000000000000000000000000000000000000000000000000000000000000000000000000                          0000000000                                                                  000121
102122445950001000000009034510032549PREGTIT31194609878452     000000000000599558130000000000000000000000000902260319000599558100000000000059955813150419000000001880023703451  000000000014300000000000000000000000000000000000000000000000000000000000000000000000000000000000000000000000000000000                          7600000000                                                                  000122
102122445950001000000009034510032549PREGTIT31194609878452     000000000000599558210000000000000000000000000902260319000599558200000000000059955821150519000000001880023703451  000000000014300000000000000000000000000000000000000000000000000000000000000000000000000000000000000000000000000000000                          7600000000                                                                  000123
102122445950001000000009034510032549PREGTIT31194478282075     000000000000599558990000000000000000000000000902260319000599558900000000000059955899070419000000008000023704144  000000000014300000000000000000000000000000000000000000000000000000000000000000000000000000000000000000000000000000000                          0000000000                                                                  000124
102122445950001000000009034510032549PREGTIT31197426618258     000000000000599559020000000000000000000000000902260319000599559000000000000059955902080419000000006191023704151  000000000014300000000000000000000000000000000000000000000000000000000000000000000000000000000000000000000000000000000                          0000000000                                                                  000125
102122445950001000000009034510032549PREGTIT31196466265192     000000000000599559100000000000000000000000000902260319000599559100000000000059955910090419000000004500023704144  000000000014300000000000000000000000000000000000000000000000000000000000000000000000000000000000000000000000000000000                          7600000000                                                                  000126
102122445950001000000009034510032549PREGTIT31196466265192     000000000000599559290000000000000000000000000902260319000599559200000000000059955929240419000000004500023704144  000000000014300000000000000000000000000000000000000000000000000000000000000000000000000000000000000000000000000000000                          7600000000                                                                  000127
102122445950001000000009034510032549PREGTIT31203054613487     000000000000599559370000000000000000000000000902260319000599559300000000000059955937060519000000001200023703109  000000000014300000000000000000000000000000000000000000000000000000000000000000000000000000000000000000000000000000000                          0000000000                                                                  000128
102122445950001000000009034510032549PREGTIT31219724206705     0000000000005995597P000000000000000000000000090226031900059955970000000000005995597P200419000000000875023700408  000000000014300000000000000000000000000000000000000000000000000000000000000000000000000000000000000000000000000000000                          0000000000                                                                  000129
102122445950001000000009034510032549PREGTIT31219724206705     000000000000599559880000000000000000000000000902260319000599559800000000000059955988200519000000000875023700408  000000000014300000000000000000000000000000000000000000000000000000000000000000000000000000000000000000000000000000000                          0000000000                                                                  000130
102122445950001000000009034510032549PREGTIT31246735018504     000000000000599560460000000000000000000000000902260319000599560400000000000059956046260419000000022167523704151  000000000014300000000000000000000000000000000000000000000000000000000000000000000000000000000000000000000000000000000                          0000000000                                                                  000131
102122445950001000000009034510032549PREGTIT31242609225027     000000000000599560540000000000000000000000000902260319000599560500000000000059956054040419000000005519523704159  000000000014300000000000000000000000000000000000000000000000000000000000000000000000000000000000000000000000000000000                          7600000000                                                                  000132
102122445950001000000009034510032549PREGTIT31258420597306     000000000000599560700000000000000000000000000902260319000599560700000000000059956070260419000000037600023704426  000000000014300000000000000000000000000000000000000000000000000000000000000000000000000000000000000000000000000000000                          0000000000                                                                  000133
102122445950001000000009034510032549PREGTIT31257767946773     000000000000599560970000000000000000000000000902260319000599560900000000000059956097260419000000022400023704151  000000000014300000000000000000000000000000000000000000000000000000000000000000000000000000000000000000000000000000000                          7600000000                                                                  000134
102122445950001000000009034510032549PREGTIT31257696349177     000000000000599561780000000000000000000000000902260319000599561700000000000059956178260419000000016000023704151  000000000014300000000000000000000000000000000000000000000000000000000000000000000000000000000000000000000000000000000                          7600000000                                                                  000135
102122445950001000000009034510032549PREGTIT31251532429671     000000000000599561860000000000000000000000000902260319000599561800000000000059956186260419000000005000023704157  000000000014300000000000000000000000000000000000000000000000000000000000000000000000000000000000000000000000000000000                          0000000000                                                                  000136
102122445950001000000009034510032549PREGTIT31251928015760     000000000000599562080000000000000000000000000902260319000599562000000000000059956208260419000000046590023704151  000000000014300000000000000000000000000000000000000000000000000000000000000000000000000000000000000000000000000000000                          0000000000                                                                  000137
102122445950001000000009034510032549PREGTIT31255236157770     000000000000599562320000000000000000000000000902260319000599562300000000000059956232260419000000001000023700140  000000000014300000000000000000000000000000000000000000000000000000000000000000000000000000000000000000000000000000000                          0000000000                                                                  000138
102122445950001000000009034510032549PREGTIT31258009654171     000000000000599562590000000000000000000000000902260319000599562500000000000059956259260419000000027000023704151  000000000014300000000000000000000000000000000000000000000000000000000000000000000000000000000000000000000000000000000                          7600000000                                                                  000139
102122445950001000000009034510032549PREGTIT31259138684889     000000000000599562670000000000000000000000000902260319000599562600000000000059956267300319000000002500023704157  000000000014300000000000000000000000000000000000000000000000000000000000000000000000000000000000000000000000000000000                          7600000000                                                                  000140
102122445950001000000009034510032549PREGTIT31259138684889     000000000000599562750000000000000000000000000902260319000599562700000000000059956275300419000000002500023704157  000000000014300000000000000000000000000000000000000000000000000000000000000000000000000000000000000000000000000000000                          7600000000                                                                  000141
102122445950001000000009034510032549PREGTIT31255768378008     000000000000599562830000000000000000000000000902260319000599562800000000000059956283270319000000001500023703451  000000000014300000000000000000000000000000000000000000000000000000000000000000000000000000000000000000000000000000000                          0000000000                                                                  000142
102122445950001000000009034510032549PREGTIT31255768378008     000000000000599562910000000000000000000000000902260319000599562900000000000059956291150419000000001820023703451  000000000014300000000000000000000000000000000000000000000000000000000000000000000000000000000000000000000000000000000                          0000000000                                                                  000143
102122445950001000000009034510032549PREGTIT31255768378008     000000000000599563050000000000000000000000000902260319000599563000000000000059956305150519000000001820023703451  000000000014300000000000000000000000000000000000000000000000000000000000000000000000000000000000000000000000000000000                          0000000000                                                                  000144
102122445950001000000009034510032549PREGTIT31254873937678     000000000000599563210000000000000000000000000902260319000599563200000000000059956321260419000000043010023704151  000000000014300000000000000000000000000000000000000000000000000000000000000000000000000000000000000000000000000000000                          0000000000                                                                  000145
102122445950001000000009034510032549PREGTIT31257121173983     000000000000599563480000000000000000000000000902260319000599563400000000000059956348260419000000009028423704151  000000000014300000000000000000000000000000000000000000000000000000000000000000000000000000000000000000000000000000000                          0000000000                                                                  000146
102122445950001000000009034510032549PREGTIT31265312867015     000000000000599563640000000000000000000000000902260319000599563600000000000059956364260419000000015000023704151  000000000014300000000000000000000000000000000000000000000000000000000000000000000000000000000000000000000000000000000                          7600000000                                                                  000147
102122445950001000000009034510032549PREGTIT31268662948670     000000000000599563720000000000000000000000000902260319000599563700000000000059956372100419000000001134723704159  000000000014300000000000000000000000000000000000000000000000000000000000000000000000000000000000000000000000000000000                          0000000000                                                                  000148
102122445950001000000009034510032549PREGTIT31269369867394     000000000000599563800000000000000000000000000902260319000599563800000000000059956380240519000000002500023704157  000000000014300000000000000000000000000000000000000000000000000000000000000000000000000000000000000000000000000000000                          0000000000                                                                  000149
102122445950001000000009034510032549PREGTIT31267600254126     000000000000599564370000000000000000000000000902260319000599564300000000000059956437260419000000018500023703451  000000000014300000000000000000000000000000000000000000000000000000000000000000000000000000000000000000000000000000000                          7600000000                                                                  000150
102122445950001000000009034510032549PREGTIT31268925555720     000000000000599564610000000000000000000000000902260319000599564600000000000059956461260419000000005000023704151  000000000014300000000000000000000000000000000000000000000000000000000000000000000000000000000000000000000000000000000                          7600000000                                                                  000151
102122445950001000000009034510032549PREGTIT31268548146680     000000000000599564880000000000000000000000000902260319000599564800000000000059956488260419000000016000023704151  000000000014300000000000000000000000000000000000000000000000000000000000000000000000000000000000000000000000000000000                          7600000000                                                                  000152
102122445950001000000009034510032549PREGTIT31274564012814     0000000000005995650P000000000000000000000000090226031900059956500000000000005995650P260419000000024960023704151  000000000014300000000000000000000000000000000000000000000000000000000000000000000000000000000000000000000000000000000                          0000000000                                                                  000153
102122445950001000000009034510032549PREGTIT31274759960588     000000000000599565180000000000000000000000000902260319000599565100000000000059956518260419000000002500023704151  000000000014300000000000000000000000000000000000000000000000000000000000000000000000000000000000000000000000000000000                          0000000000                                                                  000154
102122445950001000000009034510032549PREGTIT31279760491392     000000000000599566900000000000000000000000000902260319000599566900000000000059956690220419000000011680023704152  000000000014300000000000000000000000000000000000000000000000000000000000000000000000000000000000000000000000000000000                          7600000000                                                                  000155
102122445950001000000009034510032549PREGTIT31272022265886     000000000000599567120000000000000000000000000902260319000599567100000000000059956712260419000000009990023704151  000000000014300000000000000000000000000000000000000000000000000000000000000000000000000000000000000000000000000000000                          7600000000                                                                  000156
102122445950001000000009034510032549PREGTIT31276799588170     000000000000599567390000000000000000000000000902260319000599567300000000000059956739260419000000017200023704151  000000000014300000000000000000000000000000000000000000000000000000000000000000000000000000000000000000000000000000000                          0000000000                                                                  000157
102122445950001000000009034510032549PREGTIT31272650639687     000000000000599567470000000000000000000000000902260319000599567400000000000059956747010419000000007127123704144  000000000014300000000000000000000000000000000000000000000000000000000000000000000000000000000000000000000000000000000                          7600000000                                                                  000158
102122445950001000000009034510032549PREGTIT31272650639687     000000000000599567550000000000000000000000000902260319000599567500000000000059956755080419000000007127123704144  000000000014300000000000000000000000000000000000000000000000000000000000000000000000000000000000000000000000000000000                          7600000000                                                                  000159
102122445950001000000009034510032549PREGTIT31276263943343     000000000000599567710000000000000000000000000902260319000599567700000000000059956771260419000000019800023704152  000000000014300000000000000000000000000000000000000000000000000000000000000000000000000000000000000000000000000000000                          0000000000                                                                  000160
102122445950001000000009034510032549PREGTIT31274416211379     0000000000005995678P000000000000000000000000090226031900059956780000000000005995678P100419000000003599523704144  000000000014300000000000000000000000000000000000000000000000000000000000000000000000000000000000000000000000000000000                          0000000000                                                                  000161
102122445950001000000009034510032549PREGTIT31274416211379     000000000000599567980000000000000000000000000902260319000599567900000000000059956798100519000000003599523704144  000000000014300000000000000000000000000000000000000000000000000000000000000000000000000000000000000000000000000000000                          0000000000                                                                  000162
102122445950001000000009034510032549PREGTIT31276878949792     000000000000599568360000000000000000000000000902260319000599568300000000000059956836260419000000006400023704151  000000000014300000000000000000000000000000000000000000000000000000000000000000000000000000000000000000000000000000000                          7600000000                                                                  000163
102122445950001000000009034510032549PREGTIT23246115993675     000000000000587585420000000000000000000000000906260319000587585400000000000058758542100219000000002800034101268  000000000000000000000000000000000000000000000000000000000000000000000000000000000000002939600000000013960000000000000   270319             00000000000000                                                                  000164
102122445950001000000009034510032549PREGTIT25216115993675     000000000000587585500000000000000000000000000906260319000587585500000000000058758550100319000000002800034101268  000000000000000000000000000000000000000000000000000000000000000000000000000000000000002886400000000008640000000000000   270319             00000000000000                                                                  000165
102122445950001000000009034510032549PREGTIT17652061104973     000000000000587993540000000000000000000000000906260319000587993500000000000058799354011218000000000654003301687  000000000000000000000000000000000000000000000000000000000000000000000000000000000000000713000000000005900000000000000   270319             00000000000000                                                                  000166
102122445950001000000009034510032549PREGTIT26737281562056     000000000000588703850000000000000000000000000906260319000588703800000000000058870385300319000000001333323702611  000000000000000000000000000000000000000000000000000000000000000000000000000000000000001333300000000000000000000000000   270319             00000000000000                                                                  000167
102122445950001000000009034510032549PREGTIT25544744235972     000000000000589549290000000000000000000000000906260319000589549200000000000058954929150319000000001670010404134  000000000000000000000000000000000000000000000000000000000000000000000000000000000000001715500000000004550000000000000   270319             00000000000000                                                                  000168
102122445950001000000009034510032549PREGTIT27712448652171     000000000000590298540000000000000000000000000906260319000590298500000000000059029854120419000000002956034106513  000000000000000000000000000000000000000000000000000000000000000000000000000000000000002956000000000000000000000000000   270319             00000000000000                                                                  000169
102122445950001000000009034510032549PREGTIT25372464945564     000000000000592079220000000000000000000000000906260319000592079200000000000059207922100319000000000950010402991  000000000000000000000000000000000000000000000000000000000000000000000000000000000000000978600000000002860000000000000   270319             00000000000000                                                                  000170
102122445950001000000009034510032549PREGTIT26082688593918     000000000000592640120000000000000000000000000906260319000592640100000000000059264012200319000000006100000100459  000000000000000000000000000000000000000000000000000000000000000000000000000000000000006246600000000014660000000000000   270319             00000000000000                                                                  000171
102122445950001000000009034510032549PREGTIT25487626360091     000000000000592993470000000000000000000000000906260319000592993400000000000059299347100319000000000875023703101  000000000000000000000000000000000000000000000000000000000000000000000000000000000000000902100000000002710000000000000   270319             00000000000000                                                                  000172
102122445950001000000009034510032549PREGTIT25216745520859     000000000000596711810000000000000000000000000906260319000596711800000000000059671181100319000000002500010404076  000000000000000000000000000000000000000000000000000000000000000000000000000000000000002577200000000007720000000000000   270319             00000000000000                                                                  000173
102122445950001000000009034510032549PREGTIT25661880896265     000000000000597566830000000000000000000000000906260319000597566800000000000059756683150319000000003500034106513  000000000000000000000000000000000000000000000000000000000000000000000000000000000000003595300000000009530000000000000   270319             00000000000000                                                                  000174
102122445950001000000009034510032549PREGTIT26041707557269     0000000000005976192P000000000000000000000000090626031900059761920000000000005976192P180219000000000976810403753  000000000000000000000000000000000000000000000000000000000000000000000000000000000000001021500000000004470000000000000   270319             00000000000000                                                                  000175
102122445950001000000009034510032549PREGTIT26469834783400     000000000000597722630000000000000000000000000906260319000597722600000000000059772263250319000000005200010400934  000000000000000000000000000000000000000000000000000000000000000000000000000000000000005307500000000010750000000000000   270319             00000000000000                                                                  000176
102122445950001000000009034510032549PREGTIT27717793895122     000000000000598410360000000000000000000000000906260319000598410300000000000059841036080319000000001000000102612  000000000000000000000000000000000000000000000000000000000000000000000000000000000000001032600000000003260000000000000   270319             00000000000000                                                                  000177
102122445950001000000009034510032549PREGTIT29201503072020     000000000000598634980000000000000000000000000906260319000598634900000000000059863498260319000000008500000104638  000000000000000000000000000000000000000000000000000000000000000000000000000000000000008500000000000000000000000000000   270319             00000000000000                                                                  000178
102122445950001000000009034510032549PREGTIT29207711395704     000000000000598635010000000000000000000000000906260319000598635000000000000059863501260319000000004947534108614  000000000000000000000000000000000000000000000000000000000000000000000000000000000000004947500000000000000000000000000   270319             00000000000000                                                                  000179
102122445950001000000009034510032549PREGTIT29233571163568     000000000000598637730000000000000000000000000906260319000598637700000000000059863773260319000000021300010403322  000000000000000000000000000000000000000000000000000000000000000000000000000000000000021300000000000000000000000000000   270319             00000000000000                                                                  000180
102122445950001000000009034510032549PREGTIT30095404337292     0000000000005987600P000000000000000000000000090626031900059876000000000000005987600P260319000000005127003300262  000000000000000000000000000000000000000000000000000000000000000000000000000000000000005127000000000000000000000000000   270319             00000000000000                                                                  000181
102122445950001000000009034510032549PREGTIT30122069534108     000000000000598765810000000000000000000000000906260319000598765800000000000059876581260319000000001514700100069  000000000000000000000000000000000000000000000000000000000000000000000000000000000000001514700000000000000000000000000   270319             00000000000000                                                                  000182
102122445950001000000009034510032549PREGTIT30335935703586     000000000000599288910000000000000000000000000906260319000599288900000000000059928891140419000000002310010402974  000000000000000000000000000000000000000000000000000000000000000000000000000000000000002310000000000000000000000000000   270319             00000000000000                                                                  000183
102122445950001000000009034510032549PREGTIT31015546632640     000000000000599484930000000000000000000000000906260319000599484900000000000059948493260319000000001080023705749  000000000000000000000000000000000000000000000000000000000000000000000000000000000000001080000000000000000000000000000   270319             00000000000000                                                                  000184
102122445950001000000009034510032549PREGTIT31077765483467     000000000000599527170000000000000000000000000906260319000599527100000000000059952717260319000000001499023700484  000000000000000000000000000000000000000000000000000000000000000000000000000000000000001499000000000000000000000000000   270319             00000000000000                                                                  000185
102122445950001000000009034510032549PREGTIT31131328637036     000000000000599545070000000000000000000000000906260319000599545000000000000059954507010419000000001700010400381  000000000000000000000000000000000000000000000000000000000000000000000000000000000000001700000000000000000000000000000   270319             00000000000000                                                                  000186
102122445950001000000009034510032549PREGTIT31133629760270     000000000000599545150000000000000000000000000906260319000599545100000000000059954515010419000000002150010400381  000000000000000000000000000000000000000000000000000000000000000000000000000000000000002150000000000000000000000000000   270319             00000000000000                                                                  000187
102122445950001000000009034510032549PREGTIT26084928989108     000000000000591847790000000000000000000000000909260319000591847700000000000059184779200319000000002200023704150  000000000000000000000000000000000000000000000000000000000000000000000000000000000000000000000000000000000000000000000                          0000000000                                                                  000188
102122445950001000000009034510032549PREGTIT26297060896476     000000000000591876620000000000000000000000000909260319000591876600000000000059187662240319000000005000023704150  000000000000000000000000000000000000000000000000000000000000000000000000000000000000000000000000000000000000000000000                          0000000000                                                                  000189
102122445950001000000009034510032549PREGTIT25439782520362     0000000000005920866P000000000000000000000000090926031900059208660000000000005920866P120319000000002300023704150  000000000000000000000000000000000000000000000000000000000000000000000000000000000000000000000000000000000000000000000                          0000000000                                                                  000190
102122445950001000000009034510032549PREGTIT26738466631894     000000000000592833780000000000000000000000000909260319000592833700000000000059283378300319000000001000023704150  000000000000000000000000000000000000000000000000000000000000000000000000000000000000000000000000000000000000000000000                          0000000000                                                                  000191
102122445950001000000009034510032549PREGTIT25873785486688     000000000000593801790000000000000000000000000909260319000593801700000000000059380179180319000000000583423704150  000000000000000000000000000000000000000000000000000000000000000000000000000000000000000000000000000000000000000000000                          0000000000                                                                  000192
102122445950001000000009034510032549PREGTIT25481209408976     000000000000594794260000000000000000000000000909260319000594794200000000000059479426100319000000000833423704150  000000000000000000000000000000000000000000000000000000000000000000000000000000000000000000000000000000000000000000000                          0000000000                                                                  000193
102122445950001000000009034510032549PREGTIT25765849431691     000000000000594794850000000000000000000000000909260319000594794800000000000059479485170319000000001000023704150  000000000000000000000000000000000000000000000000000000000000000000000000000000000000000000000000000000000000000000000                          0000000000                                                                  000194
102122445950001000000009034510032549PREGTIT26513165171307     000000000000594948830000000000000000000000000909260319000594948800000000000059494883260319000000000333423704150  000000000000000000000000000000000000000000000000000000000000000000000000000000000000000000000000000000000000000000000                          0000000000                                                                  000195
102122445950001000000009034510032549PREGTIT26087501699394     000000000000595749410000000000000000000000000909260319000595749400000000000059574941200319000000004398323704150  000000000000000000000000000000000000000000000000000000000000000000000000000000000000000000000000000000000000000000000                          0000000000                                                                  000196
102122445950001000000009034510032549PREGTIT26089125736339     000000000000596609370000000000000000000000000909260319000596609300000000000059660937200319000000001400023704150  000000000000000000000000000000000000000000000000000000000000000000000000000000000000000000000000000000000000000000000                          0000000000                                                                  000197
102122445950001000000009034510032549PREGTIT26625635010744     000000000000596896330000000000000000000000000909260319000596896300000000000059689633270319000000000280523704150  000000000000000000000000000000000000000000000000000000000000000000000000000000000000000000000000000000000000000000000                          0000000000                                                                  000198
102122445950001000000009034510032549PREGTIT25963886433016     000000000000597611720000000000000000000000000909260319000597611700000000000059761172170319000000000754023704150  000000000000000000000000000000000000000000000000000000000000000000000000000000000000000000000000000000000000000000000                          0000000000                                                                  000199
102122445950001000000009034510032549PREGTIT26053912186047     000000000000597620630000000000000000000000000909260319000597620600000000000059762063250219000000002555523704150  000000000000000000000000000000000000000000000000000000000000000000000000000000000000000000000000000000000000000000000                          0000000000                                                                  000200
102122445950001000000009034510032549PREGTIT27712006849451     000000000000597681260000000000000000000000000909260319000597681200000000000059768126100419000000002200023704150  000000000000000000000000000000000000000000000000000000000000000000000000000000000000000000000000000000000000000000000                          0000000000                                                                  000201
102122445950001000000009034510032549PREGTIT27473339784666     000000000000597883640000000000000000000000000909260319000597883600000000000059788364100319000000000376023704150  000000000000000000000000000000000000000000000000000000000000000000000000000000000000000000000000000000000000000000000                          0000000000                                                                  000202
102122445950001000000009034510032549PREGTIT17219181154316     000000000000576172870000000000000000000000000910260319000576172800000000000057617287251118000000006000023700000  000000000000000000000000000000000000000000000000000000000000000000000000000000000000000000000000000000000000000000000                          1600000000                                                                  000203
102122445950001000000009034510032549PREGTIT17213149856734     000000000000578503480000000000000000000000000910260319000578503400000000000057850348251118000000001670023700000  000000000000000000000000000000000000000000000000000000000000000000000000000000000000000000000000000000000000000000000                          1600000000                                                                  000204
102122445950001000000009034510032549PREGTIT17218237963757     000000000000578511820000000000000000000000000910260319000578511800000000000057851182251118000000001670023700000  000000000000000000000000000000000000000000000000000000000000000000000000000000000000000000000000000000000000000000000                          1600000000                                                                  000205
102122445950001000000009034510032549PREGTIT17215148205372     000000000000579002480000000000000000000000000910260319000579002400000000000057900248251118000000009367023700000  000000000000000000000000000000000000000000000000000000000000000000000000000000000000000000000000000000000000000000000                          1600000000                                                                  000206
102122445950001000000009034510032549PREGTIT17216222514481     000000000000581902520000000000000000000000000910260319000581902500000000000058190252251118000000002720023700000  000000000000000000000000000000000000000000000000000000000000000000000000000000000000000000000000000000000000000000000                          1600000000                                                                  000207
102122445950001000000009034510032549PREGTIT17217658965521     000000000000582083560000000000000000000000000910260319000582083500000000000058208356251118000000002590023700000  000000000000000000000000000000000000000000000000000000000000000000000000000000000000000000000000000000000000000000000                          1600000000                                                                  000208
102122445950001000000009034510032549PREGTIT17219454223766     000000000000583028910000000000000000000000000910260319000583028900000000000058302891251118000000003240023700000  000000000000000000000000000000000000000000000000000000000000000000000000000000000000000000000000000000000000000000000                          1600000000                                                                  000209
102122445950001000000009034510032549PREGTIT17219601415702     000000000000583137610000000000000000000000000910260319000583137600000000000058313761251118000000001300023700000  000000000000000000000000000000000000000000000000000000000000000000000000000000000000000000000000000000000000000000000                          1600000000                                                                  000210
102122445950001000000009034510032549PREGTIT17218545450423     0000000000005832657P000000000000000000000000091026031900058326570000000000005832657P251118000000003130023700000  000000000000000000000000000000000000000000000000000000000000000000000000000000000000000000000000000000000000000000000                          1600000000                                                                  000211
102122445950001000000009034510032549PREGTIT17211528912865     000000000000585397190000000000000000000000000910260319000585397100000000000058539719251118000000002200023700000  000000000000000000000000000000000000000000000000000000000000000000000000000000000000000000000000000000000000000000000                          1600000000                                                                  000212
102122445950001000000009034510032549PREGTIT17216344153843     000000000000585402370000000000000000000000000910260319000585402300000000000058540237251118000000000350023700000  000000000000000000000000000000000000000000000000000000000000000000000000000000000000000000000000000000000000000000000                          1600000000                                                                  000213
102122445950001000000009034510032549PREGTIT17212412956841     0000000000005855937P000000000000000000000000091026031900058559370000000000005855937P251118000000001000023700000  000000000000000000000000000000000000000000000000000000000000000000000000000000000000000000000000000000000000000000000                          1600000000                                                                  000214
102122445950001000000009034510032549PREGTIT17213732538682     000000000000586431920000000000000000000000000910260319000586431900000000000058643192251118000000017000023700000  000000000000000000000000000000000000000000000000000000000000000000000000000000000000000000000000000000000000000000000                          1600000000                                                                  000215
102122445950001000000009034510032549PREGTIT17212044871631     000000000000586435670000000000000000000000000910260319000586435600000000000058643567251118000000001233323700000  000000000000000000000000000000000000000000000000000000000000000000000000000000000000000000000000000000000000000000000                          1600000000                                                                  000216
102122445950001000000009034510032549PREGTIT17212578767877     000000000000586447170000000000000000000000000910260319000586447100000000000058644717251118000000000627823700000  000000000000000000000000000000000000000000000000000000000000000000000000000000000000000000000000000000000000000000000                          1600000000                                                                  000217
102122445950001000000009034510032549PREGTIT17219868113841     000000000000586448730000000000000000000000000910260319000586448700000000000058644873251118000000000750023700000  000000000000000000000000000000000000000000000000000000000000000000000000000000000000000000000000000000000000000000000                          1600000000                                                                  000218
102122445950001000000009034510032549PREGTIT17213008321436     000000000000586477400000000000000000000000000910260319000586477400000000000058647740251118000000000705023700000  000000000000000000000000000000000000000000000000000000000000000000000000000000000000000000000000000000000000000000000                          1600000000                                                                  000219
102122445950001000000009034510032549PREGTIT17217270510101     000000000000586554090000000000000000000000000910260319000586554000000000000058655409251118000000002250023700000  000000000000000000000000000000000000000000000000000000000000000000000000000000000000000000000000000000000000000000000                          1600000000                                                                  000220
102122445950001000000009034510032549PREGTIT17218158183640     000000000000586605260000000000000000000000000910260319000586605200000000000058660526251118000000003050023700000  000000000000000000000000000000000000000000000000000000000000000000000000000000000000000000000000000000000000000000000                          1600000000                                                                  000221
102122445950001000000009034510032549PREGTIT17213037390477     000000000000586703190000000000000000000000000910260319000586703100000000000058670319251118000000004900023700000  000000000000000000000000000000000000000000000000000000000000000000000000000000000000000000000000000000000000000000000                          1600000000                                                                  000222
102122445950001000000009034510032549PREGTIT17218135179301     000000000000587602100000000000000000000000000910260319000587602100000000000058760210251118000000001000023700000  000000000000000000000000000000000000000000000000000000000000000000000000000000000000000000000000000000000000000000000                          1600000000                                                                  000223
102122445950001000000009034510032549PREGTIT17213926190245     000000000000587619770000000000000000000000000910260319000587619700000000000058761977251118000000002200023700000  000000000000000000000000000000000000000000000000000000000000000000000000000000000000000000000000000000000000000000000                          1600000000                                                                  000224
102122445950001000000009034510032549PREGTIT17213594178391     000000000000587705850000000000000000000000000910260319000587705800000000000058770585251118000000002200023700000  000000000000000000000000000000000000000000000000000000000000000000000000000000000000000000000000000000000000000000000                          1600000000                                                                  000225
102122445950001000000009034510032549PREGTIT17216157733549     000000000000587757300000000000000000000000000910260319000587757300000000000058775730251118000000002900023700000  000000000000000000000000000000000000000000000000000000000000000000000000000000000000000000000000000000000000000000000                          1600000000                                                                  000226
102122445950001000000009034510032549PREGTIT17211249725752     000000000000587857280000000000000000000000000910260319000587857200000000000058785728251118000000001000023700000  000000000000000000000000000000000000000000000000000000000000000000000000000000000000000000000000000000000000000000000                          1600000000                                                                  000227
102122445950001000000009034510032549PREGTIT17219429234340     0000000000005880319P000000000000000000000000091026031900058803190000000000005880319P251118000000002466723700000  000000000000000000000000000000000000000000000000000000000000000000000000000000000000000000000000000000000000000000000                          1600000000                                                                  000228
102122445950001000000009034510032549PREGTIT17218015080218     000000000000589027670000000000000000000000000910260319000589027600000000000058902767251118000000002600023700000  000000000000000000000000000000000000000000000000000000000000000000000000000000000000000000000000000000000000000000000                          1600000000                                                                  000229
102122445950001000000009034510032549PREGTIT17217252570994     000000000000589533100000000000000000000000000910260319000589533100000000000058953310251118000000003000023700000  000000000000000000000000000000000000000000000000000000000000000000000000000000000000000000000000000000000000000000000                          1600000000                                                                  000230
102122445950001000000009034510032549PREGTIT17217169376922     000000000000589696400000000000000000000000000910260319000589696400000000000058969640251118000000000900023700000  000000000000000000000000000000000000000000000000000000000000000000000000000000000000000000000000000000000000000000000                          1600000000                                                                  000231
102122445950001000000009034510032549PREGTIT17216709148333     000000000000589700370000000000000000000000000910260319000589700300000000000058970037251118000000001000023700000  000000000000000000000000000000000000000000000000000000000000000000000000000000000000000000000000000000000000000000000                          1600000000                                                                  000232
102122445950001000000009034510032549PREGTIT17214004984882     0000000000005898965P000000000000000000000000091026031900058989650000000000005898965P251118000000004900023700000  000000000000000000000000000000000000000000000000000000000000000000000000000000000000000000000000000000000000000000000                          1600000000                                                                  000233
102122445950001000000009034510032549PREGTIT17211498430019     000000000000589953580000000000000000000000000910260319000589953500000000000058995358251118000000003900023700000  000000000000000000000000000000000000000000000000000000000000000000000000000000000000000000000000000000000000000000000                          1600000000                                                                  000234
102122445950001000000009034510032549PREGTIT17218756222066     000000000000589980120000000000000000000000000910260319000589980100000000000058998012251118000000005000023700000  000000000000000000000000000000000000000000000000000000000000000000000000000000000000000000000000000000000000000000000                          1600000000                                                                  000235
102122445950001000000009034510032549PREGTIT17217427303911     000000000000590153570000000000000000000000000910260319000590153500000000000059015357251118000000000417023700000  000000000000000000000000000000000000000000000000000000000000000000000000000000000000000000000000000000000000000000000                          1600000000                                                                  000236
102122445950001000000009034510032549PREGTIT17218049756743     0000000000005909432P000000000000000000000000091026031900059094320000000000005909432P251118000000003400023700000  000000000000000000000000000000000000000000000000000000000000000000000000000000000000000000000000000000000000000000000                          1600000000                                                                  000237
102122445950001000000009034510032549PREGTIT17211591837596     000000000000590944270000000000000000000000000910260319000590944200000000000059094427251118000000002200023700000  000000000000000000000000000000000000000000000000000000000000000000000000000000000000000000000000000000000000000000000                          1600000000                                                                  000238
102122445950001000000009034510032549PREGTIT17215163666941     000000000000590961360000000000000000000000000910260319000590961300000000000059096136251118000000000783423700000  000000000000000000000000000000000000000000000000000000000000000000000000000000000000000000000000000000000000000000000                          1600000000                                                                  000239
102122445950001000000009034510032549PREGTIT17213505032132     000000000000590977600000000000000000000000000910260319000590977600000000000059097760251118000000000775823700000  000000000000000000000000000000000000000000000000000000000000000000000000000000000000000000000000000000000000000000000                          1600000000                                                                  000240
102122445950001000000009034510032549PREGTIT17218105697619     000000000000590978170000000000000000000000000910260319000590978100000000000059097817251118000000001166723700000  000000000000000000000000000000000000000000000000000000000000000000000000000000000000000000000000000000000000000000000                          1600000000                                                                  000241
102122445950001000000009034510032549PREGTIT17211406413146     000000000000590992400000000000000000000000000910260319000590992400000000000059099240251118000000002760023700000  000000000000000000000000000000000000000000000000000000000000000000000000000000000000000000000000000000000000000000000                          1600000000                                                                  000242
102122445950001000000009034510032549PREGTIT17211210755643     000000000000591030000000000000000000000000000910260319000591030000000000000059103000251118000000001333323700000  000000000000000000000000000000000000000000000000000000000000000000000000000000000000000000000000000000000000000000000                          1600000000                                                                  000243
102122445950001000000009034510032549PREGTIT17218267905103     000000000000591100150000000000000000000000000910260319000591100100000000000059110015251118000000001250023700000  000000000000000000000000000000000000000000000000000000000000000000000000000000000000000000000000000000000000000000000                          1600000000                                                                  000244
102122445950001000000009034510032549PREGTIT17214670025106     0000000000005911181P000000000000000000000000091026031900059111810000000000005911181P251118000000001250023700000  000000000000000000000000000000000000000000000000000000000000000000000000000000000000000000000000000000000000000000000                          1600000000                                                                  000245
102122445950001000000009034510032549PREGTIT17219751051151     0000000000005916493P000000000000000000000000091026031900059164930000000000005916493P251118000000001000023700000  000000000000000000000000000000000000000000000000000000000000000000000000000000000000000000000000000000000000000000000                          1600000000                                                                  000246
102122445950001000000009034510032549PREGTIT17218156632454     000000000000591890020000000000000000000000000910260319000591890000000000000059189002251118000000005000023700000  000000000000000000000000000000000000000000000000000000000000000000000000000000000000000000000000000000000000000000000                          1600000000                                                                  000247
102122445950001000000009034510032549PREGTIT17214522770067     000000000000591899750000000000000000000000000910260319000591899700000000000059189975251118000000001200023700000  000000000000000000000000000000000000000000000000000000000000000000000000000000000000000000000000000000000000000000000                          1600000000                                                                  000248
