02RETORNO01COBRANCA       00000000000004972103WC SISTEMAS E EQUIPAMENTOS DE 237BRADESCO       2703190160000000574                                                                                                                                                                                                                                                                          280319         000001
1020874591800017100000090345100240370REGTIT2670996100357613   000000009000599590380000000000000000000000000902270319996100357600000000900059959038290319000000001721423704144  000000000014300000000000000000000000000000000000000000000000000000000000000000000000000000000000000000000000000000000                          0000000000                                                                  000002
1020874591800017100000090345100240370REGTIT2670996100380143   000000009000599590460000000000000000000000000902270319996100380100000000900059959046280419000000001721423704144  000000000014300000000000000000000000000000000000000000000000000000000000000000000000000000000000000000000000000000000                          0000000000                                                                  000003
1020874591800017100000090345100240370REGTIT2670997204532560   000000009000599590540000000000000000000000000902270319997204532500000000900059959054290319000000004791023704144  000000000014300000000000000000000000000000000000000000000000000000000000000000000000000000000000000000000000000000000                          0000000000                                                                  000004
1020874591800017100000090345100240370REGTIT2670997259543139   000000009000599590700000000000000000000000000902270319997259543100000000900059959070050419000000002397023704157  000000000014300000000000000000000000000000000000000000000000000000000000000000000000000000000000000000000000000000000                          0000000000                                                                  000005
1020874591800017100000090345100240370REGTIT26709973465423     000000009000599590890000000000000000000000000902270319997346542300000000900059959089050419000000001800023704144  000000000014300000000000000000000000000000000000000000000000000000000000000000000000000000000000000000000000000000000                          0000000000                                                                  000006
1020874591800017100000090345100240370REGTIT267099631178257    000000009000599590970000000000000000000000000902270319996311782500000000900059959097080419000000004497023704144  000000000014300000000000000000000000000000000000000000000000000000000000000000000000000000000000000000000000000000000                          0000000000                                                                  000007
1020874591800017100000090345100240370REGTIT2670997327937748   000000009000599591000000000000000000000000000902270319997327937700000000900059959100080419000000002397023704144  000000000014300000000000000000000000000000000000000000000000000000000000000000000000000000000000000000000000000000000                          0000000000                                                                  000008
1020874591800017100000090345100240370REGTIT2670997280053888   000000009000599591190000000000000000000000000902270319997280053800000000900059959119080419000000002397023704144  000000000014300000000000000000000000000000000000000000000000000000000000000000000000000000000000000000000000000000000                          7600000000                                                                  000009
1020874591800017100000090345100240370REGTIT267099721685537    000000009000599591270000000000000000000000000902270319997216855300000000900059959127010419000000002397023704144  000000000014300000000000000000000000000000000000000000000000000000000000000000000000000000000000000000000000000000000                          0000000000                                                                  000010
1020874591800017100000090345100240370REGTIT2670997287627398   000000009000599591350000000000000000000000000902270319997287627300000000900059959135020419000000001500023704144  000000000014300000000000000000000000000000000000000000000000000000000000000000000000000000000000000000000000000000000                          0000000000                                                                  000011
1020874591800017100000090345100240370REGTIT2670997349719431   000000009000599591430000000000000000000000000902270319997349719400000000900059959143020419000000001800023704157  000000000014300000000000000000000000000000000000000000000000000000000000000000000000000000000000000000000000000000000                          0000000000                                                                  000012
1020874591800017100000090345100240370REGTIT2670997287627332   000000009000599591510000000000000000000000000902270319997287627300000000900059959151020419000000001500023704144  000000000014300000000000000000000000000000000000000000000000000000000000000000000000000000000000000000000000000000000                          0000000000                                                                  000013
1020874591800017100000090345100240370REGTIT2670997216187411   0000000090005995916P000000000000000000000000090227031999721618740000000090005995916P050419000000001800023704144  000000000014300000000000000000000000000000000000000000000000000000000000000000000000000000000000000000000000000000000                          7600000000                                                                  000014
1020874591800017100000090345100240370REGTIT2670996747688267   000000009000599591780000000000000000000000000902270319996747688200000000900059959178080419000000003297023704144  000000000014300000000000000000000000000000000000000000000000000000000000000000000000000000000000000000000000000000000                          7600000000                                                                  000015
1020874591800017100000090345100240370REGTIT2670997031057101   000000009000599591860000000000000000000000000902270319997031057100000000900059959186080419000000003147023704144  000000000014300000000000000000000000000000000000000000000000000000000000000000000000000000000000000000000000000000000                          0000000000                                                                  000016
1020874591800017100000090345100240370REGTIT26701903000073     000000000000598781420000000000000000000000000903270319190300007300000000000059878142290319000000000049523704144  000000000000000000000000000000000000000000000000000000000000000000000000000000000000000000000000000000000000000000000                          4600000000                                                                  000017
1020874591800017100000090345100240370REGTIT26701903000764     000000000000598782150000000000000000000000000903270319190300076400000000000059878215290319000000046820623704144  000000000000000000000000000000000000000000000000000000000000000000000000000000000000000000000000000000000000000000000                          4600000000                                                                  000018
1020874591800017100000090345100240370REGTIT24411902057576     000000000000597978860000000000000000000000000906270319190205757600000000000059797886280219000000000899010402122  000000000000000000000000000000000000000000000000000000000000000000000000000000000000000952000000000005300000000000000   280319078          00000000000000                                                                  000019
1020874591800017100000090345100240370REGTIT24411902065864     000000000000598056840000000000000000000000000906270319190206586400000000000059805684280219000000000998023703135  000000000000000000000000000000000000000000000000000000000000000000000000000000000000001058400000000006040000000000000   280319082          00000000000000                                                                  000020
1020874591800017100000090345100240370REGTIT24411902067193     000000000000598110560000000000000000000000000906270319190206719300000000000059811056280219000000001250010404538  000000000000000000000000000000000000000000000000000000000000000000000000000000000000001326300000000007630000000000000   280319078          00000000000000                                                                  000021
1020874591800017100000090345100240370REGTIT24411902070349     000000000000598217790000000000000000000000000906270319190207034900000000000059821779280219000000001249034103812  000000000000000000000000000000000000000000000000000000000000000000000000000000000000001325200000000007620000000000000   280319078          00000000000000                                                                  000022
1020874591800017100000090345100240370REGTIT24411902070368     000000000000598218760000000000000000000000000906270319190207036800000000000059821876280219000000001214074801001  000000000000000000000000000000000000000000000000000000000000000000000000000000000000001286800000000007280000000000000   280319078          00000000000000                                                                  000023
1020874591800017100000090345100240370REGTIT24411902070700     000000000000598233050000000000000000000000000906270319190207070000000000000059823305280219000000001150074807057  000000000000000000000000000000000000000000000000000000000000000000000000000000000000001218900000000006890000000000000   280319078          00000000000000                                                                  000024
1020874591800017100000090345100240370REGTIT24411902070969     000000000000598245490000000000000000000000000906270319190207096900000000000059824549280219000000001049034107222  000000000000000000000000000000000000000000000000000000000000000000000000000000000000001113100000000006410000000000000   280319078          00000000000000                                                                  000025
1020874591800017100000090345100240370REGTIT24411902071303     000000000000598264440000000000000000000000000906270319190207130300000000000059826444280219000000000998010401001  000000000000000000000000000000000000000000000000000000000000000000000000000000000000001058400000000006040000000000000   280319078          00000000000000                                                                  000026
1020874591800017100000090345100240370REGTIT24411902071940     000000000000598306970000000000000000000000000906270319190207194000000000000059830697280219000000000998010400406  000000000000000000000000000000000000000000000000000000000000000000000000000000000000001058400000000006040000000000000   280319078          00000000000000                                                                  000027
1020874591800017100000090345100240370REGTIT24411902072054     000000000000598315530000000000000000000000000906270319190207205400000000000059831553280219000000000799003303731  000000000000000000000000000000000000000000000000000000000000000000000000000000000000000847300000000004830000000000000   280319078          00000000000000                                                                  000028
1020874591800017100000090345100240370REGTIT24411902072169     000000000000598323390000000000000000000000000906270319190207216900000000000059832339280219000000000998003300808  000000000000000000000000000000000000000000000000000000000000000000000000000000000000001058400000000006040000000000000   280319078          00000000000000                                                                  000029
1020874591800017100000090345100240370REGTIT24411902072247     000000000000598329080000000000000000000000000906270319190207224700000000000059832908280219000000001163903302190  000000000000000000000000000000000000000000000000000000000000000000000000000000000000001233000000000006910000000000000   280319078          00000000000000                                                                  000030
1020874591800017100000090345100240370REGTIT24411902072440     000000000000598343740000000000000000000000000906270319190207244000000000000059834374280219000000000899003304646  000000000000000000000000000000000000000000000000000000000000000000000000000000000000000952000000000005300000000000000   280319078          00000000000000                                                                  000031
1020874591800017100000090345100240370REGTIT24411902072587     000000000000598355080000000000000000000000000906270319190207258700000000000059835508280219000000000799000100995  000000000000000000000000000000000000000000000000000000000000000000000000000000000000000847300000000004830000000000000   280319078          00000000000000                                                                  000032
1020874591800017100000090345100240370REGTIT24411902072654     000000000000598360750000000000000000000000000906270319190207265400000000000059836075280219000000000998034109926  000000000000000000000000000000000000000000000000000000000000000000000000000000000000001058400000000006040000000000000   280319078          00000000000000                                                                  000033
1020874591800017100000090345100240370REGTIT26211903005609     000000000000598785760000000000000000000000000906270319190300560900000000000059878576290319000000001389034100185  000000000000000000000000000000000000000000000000000000000000000000000000000000000000001389000000000000000000000000000   280319078          00000000000000                                                                  000034
1020874591800017100000090345100240370REGTIT26211903005655     000000000000598786060000000000000000000000000906270319190300565500000000000059878606290319000000007283810400370  000000000000000000000000000000000000000000000000000000000000000000000000000000000000007283800000000000000000000000000   280319078          00000000000000                                                                  000035
1020874591800017100000090345100240370REGTIT26211903010578     000000000000598790250000000000000000000000000906270319190301057800000000000059879025290319000000002025504100597  000000000000000000000000000000000000000000000000000000000000000000000000000000000000002025500000000000000000000000000   280319078          00000000000000                                                                  000036
1020874591800017100000090345100240370REGTIT26211903011615     000000000000598791140000000000000000000000000906270319190301161500000000000059879114290319000000001816910400179  000000000000000000000000000000000000000000000000000000000000000000000000000000000000001816900000000000000000000000000   280319078          00000000000000                                                                  000037
1020874591800017100000090345100240370REGTIT26211903011906     000000000000598791570000000000000000000000000906270319190301190600000000000059879157290319000000000989034109180  000000000000000000000000000000000000000000000000000000000000000000000000000000000000000989000000000000000000000000000   280319078          00000000000000                                                                  000038
1020874591800017100000090345100240370REGTIT26211903013248     000000000000598793430000000000000000000000000906270319190301324800000000000059879343290319000000005518723700348  000000000000000000000000000000000000000000000000000000000000000000000000000000000000005518700000000000000000000000000   280319035          00000000000000                                                                  000039
1020874591800017100000090345100240370REGTIT26211903016351     000000000000598795560000000000000000000000000906270319190301635100000000000059879556290319000000002626775600360  000000000000000000000000000000000000000000000000000000000000000000000000000000000000002626700000000000000000000000000   280319078          00000000000000                                                                  000040
1020874591800017100000090345100240370REGTIT26211903017197     000000000000598796370000000000000000000000000906270319190301719700000000000059879637290319000000002798710400527  000000000000000000000000000000000000000000000000000000000000000000000000000000000000002798700000000000000000000000000   280319078          00000000000000                                                                  000041
1020874591800017100000090345100240370REGTIT26211903017363     000000000000598796530000000000000000000000000906270319190301736300000000000059879653290319000000002173103304345  000000000000000000000000000000000000000000000000000000000000000000000000000000000000002173100000000000000000000000000   280319078          00000000000000                                                                  000042
1020874591800017100000090345100240370REGTIT26211903018469     000000000000598797260000000000000000000000000906270319190301846900000000000059879726290319000000002456810404759  000000000000000000000000000000000000000000000000000000000000000000000000000000000000002456800000000000000000000000000   280319078          00000000000000                                                                  000043
1020874591800017100000090345100240370REGTIT26211903020486     000000000000598798310000000000000000000000000906270319190302048600000000000059879831290319000000002479303300681  000000000000000000000000000000000000000000000000000000000000000000000000000000000000002479300000000000000000000000000   280319078          00000000000000                                                                  000044
1020874591800017100000090345100240370REGTIT26211903026181     000000000000598803840000000000000000000000000906270319190302618100000000000059880384290319000000002986510404704  000000000000000000000000000000000000000000000000000000000000000000000000000000000000002986500000000000000000000000000   280319078          00000000000000                                                                  000045
1020874591800017100000090345100240370REGTIT26211903032733     000000000000598809290000000000000000000000000906270319190303273300000000000059880929290319000000002740210403312  000000000000000000000000000000000000000000000000000000000000000000000000000000000000002740200000000000000000000000000   280319078          00000000000000                                                                  000046
1020874591800017100000090345100240370REGTIT26211903034627     000000000000598811510000000000000000000000000906270319190303462700000000000059881151290319000000007933300104231  000000000000000000000000000000000000000000000000000000000000000000000000000000000000007933300000000000000000000000000   280319078          00000000000000                                                                  000047
1020874591800017100000090345100240370REGTIT26211903036069     000000000000598813210000000000000000000000000906270319190303606900000000000059881321290319000000002358323700594  000000000000000000000000000000000000000000000000000000000000000000000000000000000000002358300000000000000000000000000   280319014          00000000000000                                                                  000048
1020874591800017100000090345100240370REGTIT26211903039472     000000000000598815690000000000000000000000000906270319190303947200000000000059881569290319000000001448034106868  000000000000000000000000000000000000000000000000000000000000000000000000000000000000001448000000000000000000000000000   280319078          00000000000000                                                                  000049
1020874591800017100000090345100240370REGTIT26211903039700     000000000000598815770000000000000000000000000906270319190303970000000000000059881577290319000000000998010400403  000000000000000000000000000000000000000000000000000000000000000000000000000000000000000998000000000000000000000000000   280319078          00000000000000                                                                  000050
1020874591800017100000090345100240370REGTIT26211903040714     000000000000598817040000000000000000000000000906270319190304071400000000000059881704290319000000000998034108614  000000000000000000000000000000000000000000000000000000000000000000000000000000000000000998000000000000000000000000000   280319078          00000000000000                                                                  000051
1020874591800017100000090345100240370REGTIT26211903040740     000000000000598817390000000000000000000000000906270319190304074000000000000059881739290319000000000699074807020  000000000000000000000000000000000000000000000000000000000000000000000000000000000000000699000000000000000000000000000   280319078          00000000000000                                                                  000052
1020874591800017100000090345100240370REGTIT26211903043890     000000000000598820850000000000000000000000000906270319190304389000000000000059882085290319000000006159874807115  000000000000000000000000000000000000000000000000000000000000000000000000000000000000006159800000000000000000000000000   280319078          00000000000000                                                                  000053
1020874591800017100000090345100240370REGTIT26211903044317     000000000000598821820000000000000000000000000906270319190304431700000000000059882182290319000000000998034100566  000000000000000000000000000000000000000000000000000000000000000000000000000000000000000998000000000000000000000000000   280319078          00000000000000                                                                  000054
1020874591800017100000090345100240370REGTIT26211903045288     000000000000598822710000000000000000000000000906270319190304528800000000000059882271290319000000001845023702015  000000000000000000000000000000000000000000000000000000000000000000000000000000000000001845000000000000000000000000000   280319002          00000000000000                                                                  000055
1020874591800017100000090345100240370REGTIT26211903045954     000000000000598823870000000000000000000000000906270319190304595400000000000059882387290319000000002282434100757  000000000000000000000000000000000000000000000000000000000000000000000000000000000000002282400000000000000000000000000   280319078          00000000000000                                                                  000056
1020874591800017100000090345100240370REGTIT26211903046868     0000000000005988245P000000000000000000000000090627031919030468680000000000005988245P290319000000000998010401266  000000000000000000000000000000000000000000000000000000000000000000000000000000000000000998000000000000000000000000000   280319078          00000000000000                                                                  000057
1020874591800017100000090345100240370REGTIT26211903049848     000000000000598828240000000000000000000000000906270319190304984800000000000059882824290319000000001330423700181  000000000000000000000000000000000000000000000000000000000000000000000000000000000000001330400000000000000000000000000   280319082          00000000000000                                                                  000058
1020874591800017100000090345100240370REGTIT26211903051135     000000000000598830300000000000000000000000000906270319190305113500000000000059883030290319000000001049003304453  000000000000000000000000000000000000000000000000000000000000000000000000000000000000001049000000000000000000000000000   280319078          00000000000000                                                                  000059
1020874591800017100000090345100240370REGTIT26211903052408     0000000000005988326P000000000000000000000000090627031919030524080000000000005988326P290319000000002409074801139  000000000000000000000000000000000000000000000000000000000000000000000000000000000000002409000000000000000000000000000   280319078          00000000000000                                                                  000060
1020874591800017100000090345100240370REGTIT26211903052705     000000000000598832860000000000000000000000000906270319190305270500000000000059883286290319000000002044023701569  000000000000000000000000000000000000000000000000000000000000000000000000000000000000002044000000000000000000000000000   280319082          00000000000000                                                                  000061
1020874591800017100000090345100240370REGTIT26211903052921     000000000000598833080000000000000000000000000906270319190305292100000000000059883308290319000000002094023700203  000000000000000000000000000000000000000000000000000000000000000000000000000000000000002094000000000000000000000000000   280319082          00000000000000                                                                  000062
1020874591800017100000090345100240370REGTIT26211903056057     000000000000598838550000000000000000000000000906270319190305605700000000000059883855290319000000001943010400795  000000000000000000000000000000000000000000000000000000000000000000000000000000000000001943000000000000000000000000000   280319078          00000000000000                                                                  000063
1020874591800017100000090345100240370REGTIT26211903056908     000000000000598839870000000000000000000000000906270319190305690800000000000059883987290319000000001828000100195  000000000000000000000000000000000000000000000000000000000000000000000000000000000000001828000000000000000000000000000   280319078          00000000000000                                                                  000064
1020874591800017100000090345100240370REGTIT26211903062416     000000000000598859470000000000000000000000000906270319190306241600000000000059885947290319000000001878023706213  000000000000000000000000000000000000000000000000000000000000000000000000000000000000001878000000000000000000000000000   280319035          00000000000000                                                                  000065
1020874591800017100000090345100240370REGTIT26211903062763     000000000000598862850000000000000000000000000906270319190306276300000000000059886285290319000000001500000107817  000000000000000000000000000000000000000000000000000000000000000000000000000000000000001500000000000000000000000000000   280319078          00000000000000                                                                  000066
1020874591800017100000090345100240370REGTIT26211903063077     000000000000598865520000000000000000000000000906270319190306307700000000000059886552290319000000001798010403866  000000000000000000000000000000000000000000000000000000000000000000000000000000000000001798000000000000000000000000000   280319078          00000000000000                                                                  000067
1020874591800017100000090345100240370REGTIT26211903063641     000000000000598871170000000000000000000000000906270319190306364100000000000059887117290319000000001899034103788  000000000000000000000000000000000000000000000000000000000000000000000000000000000000001899000000000000000000000000000   280319078          00000000000000                                                                  000068
1020874591800017100000090345100240370REGTIT26211903063654     000000000000598871250000000000000000000000000906270319190306365400000000000059887125290319000000001763034107473  000000000000000000000000000000000000000000000000000000000000000000000000000000000000001763000000000000000000000000000   280319078          00000000000000                                                                  000069
1020874591800017100000090345100240370REGTIT26211903063761     000000000000598872490000000000000000000000000906270319190306376100000000000059887249290319000000001454023706248  000000000000000000000000000000000000000000000000000000000000000000000000000000000000001454000000000000000000000000000   280319082          00000000000000                                                                  000070
1020874591800017100000090345100240370REGTIT26211903063843     000000000000598873540000000000000000000000000906270319190306384300000000000059887354290319000000000799034106663  000000000000000000000000000000000000000000000000000000000000000000000000000000000000000799000000000000000000000000000   280319078          00000000000000                                                                  000071
1020874591800017100000090345100240370REGTIT26211903063982     000000000000598875320000000000000000000000000906270319190306398200000000000059887532290319000000001348074800718  000000000000000000000000000000000000000000000000000000000000000000000000000000000000001348000000000000000000000000000   280319078          00000000000000                                                                  000072
1020874591800017100000090345100240370REGTIT26211903064052     000000000000598876480000000000000000000000000906270319190306405200000000000059887648290319000000001749034100273  000000000000000000000000000000000000000000000000000000000000000000000000000000000000001749000000000000000000000000000   280319078          00000000000000                                                                  000073
1020874591800017100000090345100240370REGTIT26211903064242     000000000000598879310000000000000000000000000906270319190306424200000000000059887931290319000000001848010400391  000000000000000000000000000000000000000000000000000000000000000000000000000000000000001848000000000000000000000000000   280319078          00000000000000                                                                  000074
1020874591800017100000090345100240370REGTIT26211903064481     000000000000598882290000000000000000000000000906270319190306448100000000000059888229290319000000001649074807419  000000000000000000000000000000000000000000000000000000000000000000000000000000000000001649000000000000000000000000000   280319078          00000000000000                                                                  000075
1020874591800017100000090345100240370REGTIT26211903064532     000000000000598882610000000000000000000000000906270319190306453200000000000059888261290319000000001749023700439  000000000000000000000000000000000000000000000000000000000000000000000000000000000000001749000000000000000000000000000   280319082          00000000000000                                                                  000076
1020874591800017100000090345100240370REGTIT26211903064809     000000000000598887840000000000000000000000000906270319190306480900000000000059888784290319000000001348010401282  000000000000000000000000000000000000000000000000000000000000000000000000000000000000001348000000000000000000000000000   280319078          00000000000000                                                                  000077
1020874591800017100000090345100240370REGTIT26211903064810     000000000000598887920000000000000000000000000906270319190306481000000000000059888792290319000000001348010401282  000000000000000000000000000000000000000000000000000000000000000000000000000000000000001348000000000000000000000000000   280319078          00000000000000                                                                  000078
1020874591800017100000090345100240370REGTIT26211903064961     000000000000598889970000000000000000000000000906270319190306496100000000000059888997290319000000001868003304388  000000000000000000000000000000000000000000000000000000000000000000000000000000000000001868000000000000000000000000000   280319078          00000000000000                                                                  000079
1020874591800017100000090345100240370REGTIT26211903065143     000000000000598894380000000000000000000000000906270319190306514300000000000059889438290319000000001748010402997  000000000000000000000000000000000000000000000000000000000000000000000000000000000000001748000000000000000000000000000   280319078          00000000000000                                                                  000080
1020874591800017100000090345100240370REGTIT26211903065220     000000000000598896080000000000000000000000000906270319190306522000000000000059889608290319000000001299004101136  000000000000000000000000000000000000000000000000000000000000000000000000000000000000001299000000000000000000000000000   280319078          00000000000000                                                                  000081
1020874591800017100000090345100240370REGTIT26211903065447     000000000000598903120000000000000000000000000906270319190306544700000000000059890312290319000000001748003304540  000000000000000000000000000000000000000000000000000000000000000000000000000000000000001748000000000000000000000000000   280319078          00000000000000                                                                  000082
1020874591800017100000090345100240370REGTIT26211903065548     000000000000598906220000000000000000000000000906270319190306554800000000000059890622290319000000001748010403866  000000000000000000000000000000000000000000000000000000000000000000000000000000000000001748000000000000000000000000000   280319078          00000000000000                                                                  000083
1020874591800017100000090345100240370REGTIT26211903065636     000000000000598908510000000000000000000000000906270319190306563600000000000059890851290319000000001740010403387  000000000000000000000000000000000000000000000000000000000000000000000000000000000000001740000000000000000000000000000   280319078          00000000000000                                                                  000084
1020874591800017100000090345100240370REGTIT26211903065700     000000000000598909910000000000000000000000000906270319190306570000000000000059890991290319000000001748010402001  000000000000000000000000000000000000000000000000000000000000000000000000000000000000001748000000000000000000000000000   280319078          00000000000000                                                                  000085
1020874591800017100000090345100240370REGTIT26211903065718     000000000000598910920000000000000000000000000906270319190306571800000000000059891092290319000000001498063300001  000000000000000000000000000000000000000000000000000000000000000000000000000000000000001498000000000000000000000000000   280319078          00000000000000                                                                  000086
1020874591800017100000090345100240370REGTIT26211903065733     000000000000598912110000000000000000000000000906270319190306573300000000000059891211290319000000001598023702871  000000000000000000000000000000000000000000000000000000000000000000000000000000000000001598000000000000000000000000000   280319035          00000000000000                                                                  000087
1020874591800017100000090345100240370REGTIT26211903065775     000000000000598913510000000000000000000000000906270319190306577500000000000059891351290319000000001748010400406  000000000000000000000000000000000000000000000000000000000000000000000000000000000000001748000000000000000000000000000   280319078          00000000000000                                                                  000088
1020874591800017100000090345100240370REGTIT26211903065878     000000000000598916610000000000000000000000000906270319190306587800000000000059891661290319000000001748010400376  000000000000000000000000000000000000000000000000000000000000000000000000000000000000001748000000000000000000000000000   280319078          00000000000000                                                                  000089
1020874591800017100000090345100240370REGTIT26211903066112     000000000000598924470000000000000000000000000906270319190306611200000000000059892447290319000000001199010404341  000000000000000000000000000000000000000000000000000000000000000000000000000000000000001199000000000000000000000000000   280319078          00000000000000                                                                  000090
1020874591800017100000090345100240370REGTIT26211903066169     000000000000598926920000000000000000000000000906270319190306616900000000000059892692290319000000001199010404341  000000000000000000000000000000000000000000000000000000000000000000000000000000000000001199000000000000000000000000000   280319078          00000000000000                                                                  000091
1020874591800017100000090345100240370REGTIT26211903066195     000000000000598928110000000000000000000000000906270319190306619500000000000059892811290319000000000999010402997  000000000000000000000000000000000000000000000000000000000000000000000000000000000000000999000000000000000000000000000   280319078          00000000000000                                                                  000092
1020874591800017100000090345100240370REGTIT26211903066280     000000000000598931410000000000000000000000000906270319190306628000000000000059893141290319000000001698010400998  000000000000000000000000000000000000000000000000000000000000000000000000000000000000001698000000000000000000000000000   280319078          00000000000000                                                                  000093
1020874591800017100000090345100240370REGTIT26211903066302     000000000000598932300000000000000000000000000906270319190306630200000000000059893230290319000000001319003301220  000000000000000000000000000000000000000000000000000000000000000000000000000000000000001319000000000000000000000000000   280319078          00000000000000                                                                  000094
1020874591800017100000090345100240370REGTIT26211903066329     000000000000598933540000000000000000000000000906270319190306632900000000000059893354290319000000001698034109926  000000000000000000000000000000000000000000000000000000000000000000000000000000000000001698000000000000000000000000000   280319078          00000000000000                                                                  000095
1020874591800017100000090345100240370REGTIT26211903066415     000000000000598935910000000000000000000000000906270319190306641500000000000059893591290319000000001698074807020  000000000000000000000000000000000000000000000000000000000000000000000000000000000000001698000000000000000000000000000   280319078          00000000000000                                                                  000096
1020874591800017100000090345100240370REGTIT26211903066478     000000000000598939820000000000000000000000000906270319190306647800000000000059893982290319000000001490023701348  000000000000000000000000000000000000000000000000000000000000000000000000000000000000001490000000000000000000000000000   280319035          00000000000000                                                                  000097
1020874591800017100000090345100240370REGTIT26211903066553     000000000000598942880000000000000000000000000906270319190306655300000000000059894288290319000000001698034103377  000000000000000000000000000000000000000000000000000000000000000000000000000000000000001698000000000000000000000000000   280319078          00000000000000                                                                  000098
1020874591800017100000090345100240370REGTIT26211903066565     000000000000598943180000000000000000000000000906270319190306656500000000000059894318290319000000000949010400374  000000000000000000000000000000000000000000000000000000000000000000000000000000000000000949000000000000000000000000000   280319078          00000000000000                                                                  000099
1020874591800017100000090345100240370REGTIT26211903066575     000000000000598943500000000000000000000000000906270319190306657500000000000059894350290319000000001348010404609  000000000000000000000000000000000000000000000000000000000000000000000000000000000000001348000000000000000000000000000   280319078          00000000000000                                                                  000100
1020874591800017100000090345100240370REGTIT26211903066593     000000000000598944230000000000000000000000000906270319190306659300000000000059894423290319000000001698010403387  000000000000000000000000000000000000000000000000000000000000000000000000000000000000001698000000000000000000000000000   280319078          00000000000000                                                                  000101
1020874591800017100000090345100240370REGTIT26211903066808     000000000000598952090000000000000000000000000906270319190306680800000000000059895209290319000000001698010403557  000000000000000000000000000000000000000000000000000000000000000000000000000000000000001698000000000000000000000000000   280319078          00000000000000                                                                  000102
1020874591800017100000090345100240370REGTIT26211903066893     000000000000598955270000000000000000000000000906270319190306689300000000000059895527290319000000001698003301253  000000000000000000000000000000000000000000000000000000000000000000000000000000000000001698000000000000000000000000000   280319078          00000000000000                                                                  000103
1020874591800017100000090345100240370REGTIT26211903066895     000000000000598955430000000000000000000000000906270319190306689500000000000059895543290319000000001698010403492  000000000000000000000000000000000000000000000000000000000000000000000000000000000000001698000000000000000000000000000   280319078          00000000000000                                                                  000104
1020874591800017100000090345100240370REGTIT26211903067021     000000000000598961160000000000000000000000000906270319190306702100000000000059896116290319000000001698034101688  000000000000000000000000000000000000000000000000000000000000000000000000000000000000001698000000000000000000000000000   280319078          00000000000000                                                                  000105
1020874591800017100000090345100240370REGTIT26211903067201     000000000000598968840000000000000000000000000906270319190306720100000000000059896884290319000000001046510400998  000000000000000000000000000000000000000000000000000000000000000000000000000000000000001046500000000000000000000000000   280319078          00000000000000                                                                  000106
1020874591800017100000090345100240370REGTIT26211903067215     000000000000598969650000000000000000000000000906270319190306721500000000000059896965290319000000001297123700780  000000000000000000000000000000000000000000000000000000000000000000000000000000000000001297100000000000000000000000000   280319002          00000000000000                                                                  000107
1020874591800017100000090345100240370REGTIT26211903067400     000000000000598977080000000000000000000000000906270319190306740000000000000059897708290319000000001598010400375  000000000000000000000000000000000000000000000000000000000000000000000000000000000000001598000000000000000000000000000   280319078          00000000000000                                                                  000108
1020874591800017100000090345100240370REGTIT26211903067401     000000000000598977160000000000000000000000000906270319190306740100000000000059897716290319000000001598010400375  000000000000000000000000000000000000000000000000000000000000000000000000000000000000001598000000000000000000000000000   280319078          00000000000000                                                                  000109
1020874591800017100000090345100240370REGTIT26211903067440     000000000000598979020000000000000000000000000906270319190306744000000000000059897902290319000000001128023702006  000000000000000000000000000000000000000000000000000000000000000000000000000000000000001128000000000000000000000000000   280319066          00000000000000                                                                  000110
1020874591800017100000090345100240370REGTIT26211903067487     000000000000598981000000000000000000000000000906270319190306748700000000000059898100290319000000001399010400370  000000000000000000000000000000000000000000000000000000000000000000000000000000000000001399000000000000000000000000000   280319078          00000000000000                                                                  000111
1020874591800017100000090345100240370REGTIT26211903067536     000000000000598982830000000000000000000000000906270319190306753600000000000059898283290319000000001598034102774  000000000000000000000000000000000000000000000000000000000000000000000000000000000000001598000000000000000000000000000   280319078          00000000000000                                                                  000112
1020874591800017100000090345100240370REGTIT26211903067647     000000000000598987550000000000000000000000000906270319190306764700000000000059898755290319000000001598010403379  000000000000000000000000000000000000000000000000000000000000000000000000000000000000001598000000000000000000000000000   280319078          00000000000000                                                                  000113
1020874591800017100000090345100240370REGTIT26211903067968     000000000000598996030000000000000000000000000906270319190306796800000000000059899603290319000000001555010402997  000000000000000000000000000000000000000000000000000000000000000000000000000000000000001555000000000000000000000000000   280319078          00000000000000                                                                  000114
1020874591800017100000090345100240370REGTIT26211903068060     000000000000598999050000000000000000000000000906270319190306806000000000000059899905290319000000000799003303079  000000000000000000000000000000000000000000000000000000000000000000000000000000000000000799000000000000000000000000000   280319078          00000000000000                                                                  000115
1020874591800017100000090345100240370REGTIT26211903068075     000000000000598999640000000000000000000000000906270319190306807500000000000059899964290319000000001598034108594  000000000000000000000000000000000000000000000000000000000000000000000000000000000000001598000000000000000000000000000   280319078          00000000000000                                                                  000116
1020874591800017100000090345100240370REGTIT26211903068404     000000000000599010470000000000000000000000000906270319190306840400000000000059901047290319000000000199004100152  000000000000000000000000000000000000000000000000000000000000000000000000000000000000000199000000000000000000000000000   280319078          00000000000000                                                                  000117
1020874591800017100000090345100240370REGTIT26211903068417     0000000000005990108P000000000000000000000000090627031919030684170000000000005990108P290319000000001099003301462  000000000000000000000000000000000000000000000000000000000000000000000000000000000000001099000000000000000000000000000   280319078          00000000000000                                                                  000118
1020874591800017100000090345100240370REGTIT26211903068418     000000000000599010980000000000000000000000000906270319190306841800000000000059901098290319000000001249003301462  000000000000000000000000000000000000000000000000000000000000000000000000000000000000001249000000000000000000000000000   280319078          00000000000000                                                                  000119
1020874591800017100000090345100240370REGTIT26211903068469     000000000000599012250000000000000000000000000906270319190306846900000000000059901225290319000000001349003304296  000000000000000000000000000000000000000000000000000000000000000000000000000000000000001349000000000000000000000000000   280319078          00000000000000                                                                  000120
1020874591800017100000090345100240370REGTIT26211903068711     000000000000599019770000000000000000000000000906270319190306871100000000000059901977290319000000001448034103701  000000000000000000000000000000000000000000000000000000000000000000000000000000000000001448000000000000000000000000000   280319078          00000000000000                                                                  000121
1020874591800017100000090345100240370REGTIT26211903068718     000000000000599019930000000000000000000000000906270319190306871800000000000059901993290319000000001448003300813  000000000000000000000000000000000000000000000000000000000000000000000000000000000000001448000000000000000000000000000   280319078          00000000000000                                                                  000122
1020874591800017100000090345100240370REGTIT26211903068770     000000000000599021400000000000000000000000000906270319190306877000000000000059902140290319000000001448023702281  000000000000000000000000000000000000000000000000000000000000000000000000000000000000001448000000000000000000000000000   280319002          00000000000000                                                                  000123
1020874591800017100000090345100240370REGTIT26211903068847     000000000000599023960000000000000000000000000906270319190306884700000000000059902396290319000000001469000104733  000000000000000000000000000000000000000000000000000000000000000000000000000000000000001469000000000000000000000000000   280319078          00000000000000                                                                  000124
1020874591800017100000090345100240370REGTIT26211903069368     000000000000599038560000000000000000000000000906270319190306936800000000000059903856290319000000001198003300951  000000000000000000000000000000000000000000000000000000000000000000000000000000000000001198000000000000000000000000000   280319078          00000000000000                                                                  000125
1020874591800017100000090345100240370REGTIT26211903069379     000000000000599038990000000000000000000000000906270319190306937900000000000059903899290319000000001448010400372  000000000000000000000000000000000000000000000000000000000000000000000000000000000000001448000000000000000000000000000   280319078          00000000000000                                                                  000126
1020874591800017100000090345100240370REGTIT26211903069614     000000000000599046660000000000000000000000000906270319190306961400000000000059904666290319000000001448003303731  000000000000000000000000000000000000000000000000000000000000000000000000000000000000001448000000000000000000000000000   280319078          00000000000000                                                                  000127
1020874591800017100000090345100240370REGTIT26211903069738     000000000000599051150000000000000000000000000906270319190306973800000000000059905115290319000000001348023701369  000000000000000000000000000000000000000000000000000000000000000000000000000000000000001348000000000000000000000000000   280319035          00000000000000                                                                  000128
1020874591800017100000090345100240370REGTIT26211903069868     000000000000599055490000000000000000000000000906270319190306986800000000000059905549290319000000001348010403344  000000000000000000000000000000000000000000000000000000000000000000000000000000000000001348000000000000000000000000000   280319078          00000000000000                                                                  000129
1020874591800017100000090345100240370REGTIT26211903069888     000000000000599055650000000000000000000000000906270319190306988800000000000059905565290319000000001198010400389  000000000000000000000000000000000000000000000000000000000000000000000000000000000000001198000000000000000000000000000   280319078          00000000000000                                                                  000130
1020874591800017100000090345100240370REGTIT26211903070063     000000000000599062000000000000000000000000000906270319190307006300000000000059906200290319000000001098034108799  000000000000000000000000000000000000000000000000000000000000000000000000000000000000001098000000000000000000000000000   280319078          00000000000000                                                                  000131
1020874591800017100000090345100240370REGTIT26211903070103     000000000000599063830000000000000000000000000906270319190307010300000000000059906383290319000000001348010403453  000000000000000000000000000000000000000000000000000000000000000000000000000000000000001348000000000000000000000000000   280319078          00000000000000                                                                  000132
1020874591800017100000090345100240370REGTIT26211903070119     000000000000599064210000000000000000000000000906270319190307011900000000000059906421290319000000001149000100630  000000000000000000000000000000000000000000000000000000000000000000000000000000000000001149000000000000000000000000000   280319078          00000000000000                                                                  000133
1020874591800017100000090345100240370REGTIT26211903070233     0000000000005990688P000000000000000000000000090627031919030702330000000000005990688P290319000000001160110401630  000000000000000000000000000000000000000000000000000000000000000000000000000000000000001160100000000000000000000000000   280319078          00000000000000                                                                  000134
1020874591800017100000090345100240370REGTIT26211903070267     000000000000599070020000000000000000000000000906270319190307026700000000000059907002290319000000001637023700450  000000000000000000000000000000000000000000000000000000000000000000000000000000000000001637000000000000000000000000000   280319035          00000000000000                                                                  000135
1020874591800017100000090345100240370REGTIT26211903070292     0000000000005990710P000000000000000000000000090627031919030702920000000000005990710P290319000000001149003303415  000000000000000000000000000000000000000000000000000000000000000000000000000000000000001149000000000000000000000000000   280319078          00000000000000                                                                  000136
1020874591800017100000090345100240370REGTIT26211903070419     000000000000599075680000000000000000000000000906270319190307041900000000000059907568290319000000001149034100274  000000000000000000000000000000000000000000000000000000000000000000000000000000000000001149000000000000000000000000000   280319078          00000000000000                                                                  000137
1020874591800017100000090345100240370REGTIT26211903070421     000000000000599075760000000000000000000000000906270319190307042100000000000059907576290319000000002027034100274  000000000000000000000000000000000000000000000000000000000000000000000000000000000000002027000000000000000000000000000   280319078          00000000000000                                                                  000138
1020874591800017100000090345100240370REGTIT26211903070641     000000000000599085050000000000000000000000000906270319190307064100000000000059908505290319000000001189003303600  000000000000000000000000000000000000000000000000000000000000000000000000000000000000001189000000000000000000000000000   280319078          00000000000000                                                                  000139
1020874591800017100000090345100240370REGTIT26211903070954     000000000000599097650000000000000000000000000906270319190307095400000000000059909765290319000000001149003301220  000000000000000000000000000000000000000000000000000000000000000000000000000000000000001149000000000000000000000000000   280319078          00000000000000                                                                  000140
1020874591800017100000090345100240370REGTIT26211903070990     000000000000599099270000000000000000000000000906270319190307099000000000000059909927290319000000000998023702069  000000000000000000000000000000000000000000000000000000000000000000000000000000000000000998000000000000000000000000000   280319066          00000000000000                                                                  000141
1020874591800017100000090345100240370REGTIT26211903070994     000000000000599099430000000000000000000000000906270319190307099400000000000059909943290319000000001348034100941  000000000000000000000000000000000000000000000000000000000000000000000000000000000000001348000000000000000000000000000   280319078          00000000000000                                                                  000142
1020874591800017100000090345100240370REGTIT26211903071031     000000000000599101860000000000000000000000000906270319190307103100000000000059910186290319000000001129075604368  000000000000000000000000000000000000000000000000000000000000000000000000000000000000001129000000000000000000000000000   280319078          00000000000000                                                                  000143
1020874591800017100000090345100240370REGTIT26211903071104     000000000000599105500000000000000000000000000906270319190307110400000000000059910550290319000000000998003302102  000000000000000000000000000000000000000000000000000000000000000000000000000000000000000998000000000000000000000000000   280319078          00000000000000                                                                  000144
1020874591800017100000090345100240370REGTIT26211903071463     000000000000599125450000000000000000000000000906270319190307146300000000000059912545290319000000000500003300993  000000000000000000000000000000000000000000000000000000000000000000000000000000000000000500000000000000000000000000000   280319078          00000000000000                                                                  000145
1020874591800017100000090345100240370REGTIT26211903071491     000000000000599126850000000000000000000000000906270319190307149100000000000059912685290319000000000998074800725  000000000000000000000000000000000000000000000000000000000000000000000000000000000000000998000000000000000000000000000   280319078          00000000000000                                                                  000146
1020874591800017100000090345100240370REGTIT26211903071519     000000000000599129010000000000000000000000000906270319190307151900000000000059912901290319000000001194034107222  000000000000000000000000000000000000000000000000000000000000000000000000000000000000001194000000000000000000000000000   280319078          00000000000000                                                                  000147
1020874591800017100000090345100240370REGTIT26211903071617     000000000000599134870000000000000000000000000906270319190307161700000000000059913487290319000000000499010403387  000000000000000000000000000000000000000000000000000000000000000000000000000000000000000499000000000000000000000000000   280319078          00000000000000                                                                  000148
1020874591800017100000090345100240370REGTIT26211903071618     000000000000599134950000000000000000000000000906270319190307161800000000000059913495290319000000000499003302189  000000000000000000000000000000000000000000000000000000000000000000000000000000000000000499000000000000000000000000000   280319078          00000000000000                                                                  000149
1020874591800017100000090345100240370REGTIT26211903071627     000000000000599135250000000000000000000000000906270319190307162700000000000059913525290319000000000998034107063  000000000000000000000000000000000000000000000000000000000000000000000000000000000000000998000000000000000000000000000   280319078          00000000000000                                                                  000150
1020874591800017100000090345100240370REGTIT26211903071678     000000000000599138510000000000000000000000000906270319190307167800000000000059913851290319000000000998034106663  000000000000000000000000000000000000000000000000000000000000000000000000000000000000000998000000000000000000000000000   280319078          00000000000000                                                                  000151
1020874591800017100000090345100240370REGTIT26211903071834     000000000000599148660000000000000000000000000906270319190307183400000000000059914866290319000000000998010400913  000000000000000000000000000000000000000000000000000000000000000000000000000000000000000998000000000000000000000000000   280319078          00000000000000                                                                  000152
1020874591800017100000090345100240370REGTIT26211903071858     000000000000599150050000000000000000000000000906270319190307185800000000000059915005290319000000000699003301258  000000000000000000000000000000000000000000000000000000000000000000000000000000000000000699000000000000000000000000000   280319078          00000000000000                                                                  000153
1020874591800017100000090345100240370REGTIT26211903071870     000000000000599151100000000000000000000000000906270319190307187000000000000059915110290319000000000998003300348  000000000000000000000000000000000000000000000000000000000000000000000000000000000000000998000000000000000000000000000   280319078          00000000000000                                                                  000154
1020874591800017100000090345100240370REGTIT26211903071894     000000000000599152850000000000000000000000000906270319190307189400000000000059915285290319000000000998023706346  000000000000000000000000000000000000000000000000000000000000000000000000000000000000000998000000000000000000000000000   280319035          00000000000000                                                                  000155
1020874591800017100000090345100240370REGTIT26211903071906     000000000000599153820000000000000000000000000906270319190307190600000000000059915382290319000000000998000100473  000000000000000000000000000000000000000000000000000000000000000000000000000000000000000998000000000000000000000000000   280319078          00000000000000                                                                  000156
1020874591800017100000090345100240370REGTIT26211903072007     000000000000599161250000000000000000000000000906270319190307200700000000000059916125290319000000000998023702125  000000000000000000000000000000000000000000000000000000000000000000000000000000000000000998000000000000000000000000000   280319074          00000000000000                                                                  000157
1020874591800017100000090345100240370REGTIT26211903072009     000000000000599161410000000000000000000000000906270319190307200900000000000059916141290319000000001299023705758  000000000000000000000000000000000000000000000000000000000000000000000000000000000000001299000000000000000000000000000   280319035          00000000000000                                                                  000158
1020874591800017100000090345100240370REGTIT26211903072098     000000000000599167290000000000000000000000000906270319190307209800000000000059916729290319000000000998003303731  000000000000000000000000000000000000000000000000000000000000000000000000000000000000000998000000000000000000000000000   280319078          00000000000000                                                                  000159
1020874591800017100000090345100240370REGTIT26211903072099     000000000000599167370000000000000000000000000906270319190307209900000000000059916737290319000000000998003303731  000000000000000000000000000000000000000000000000000000000000000000000000000000000000000998000000000000000000000000000   280319078          00000000000000                                                                  000160
1020874591800017100000090345100240370REGTIT26211903072195     000000000000599173260000000000000000000000000906270319190307219500000000000059917326290319000000000799023702995  000000000000000000000000000000000000000000000000000000000000000000000000000000000000000799000000000000000000000000000   280319074          00000000000000                                                                  000161
1020874591800017100000090345100240370REGTIT26211903072211     0000000000005991744P000000000000000000000000090627031919030722110000000000005991744P290319000000000998003301270  000000000000000000000000000000000000000000000000000000000000000000000000000000000000000998000000000000000000000000000   280319078          00000000000000                                                                  000162
1020874591800017100000090345100240370REGTIT26211903072540     000000000000599197360000000000000000000000000906270319190307254000000000000059919736290319000000000880010403877  000000000000000000000000000000000000000000000000000000000000000000000000000000000000000880000000000000000000000000000   280319078          00000000000000                                                                  000163
1020874591800017100000090345100240370REGTIT26211903072595     000000000000599201570000000000000000000000000906270319190307259500000000000059920157290319000000000998010403511  000000000000000000000000000000000000000000000000000000000000000000000000000000000000000998000000000000000000000000000   280319078          00000000000000                                                                  000164
1020874591800017100000090345100240370REGTIT26211903072612     000000000000599202620000000000000000000000000906270319190307261200000000000059920262290319000000000799013301067  000000000000000000000000000000000000000000000000000000000000000000000000000000000000000799000000000000000000000000000   280319078          00000000000000                                                                  000165
1020874591800017100000090345100240370REGTIT26211903072621     000000000000599203350000000000000000000000000906270319190307262100000000000059920335290319000000000799034109207  000000000000000000000000000000000000000000000000000000000000000000000000000000000000000799000000000000000000000000000   280319078          00000000000000                                                                  000166
1020874591800017100000090345100240370REGTIT26211903072691     000000000000599208900000000000000000000000000906270319190307269100000000000059920890290319000000000998034106663  000000000000000000000000000000000000000000000000000000000000000000000000000000000000000998000000000000000000000000000   280319078          00000000000000                                                                  000167
1020874591800017100000090345100240370REGTIT26211903072718     000000000000599211020000000000000000000000000906270319190307271800000000000059921102290319000000000799023701964  000000000000000000000000000000000000000000000000000000000000000000000000000000000000000799000000000000000000000000000   280319082          00000000000000                                                                  000168
1020874591800017100000090345100240370REGTIT26211903072770     000000000000599215360000000000000000000000000906270319190307277000000000000059921536290319000000000998023701197  000000000000000000000000000000000000000000000000000000000000000000000000000000000000000998000000000000000000000000000   280319066          00000000000000                                                                  000169
1020874591800017100000090345100240370REGTIT26211903072804     000000000000599217810000000000000000000000000906270319190307280400000000000059921781290319000000000998023700426  000000000000000000000000000000000000000000000000000000000000000000000000000000000000000998000000000000000000000000000   280319035          00000000000000                                                                  000170
1020874591800017100000090345100240370REGTIT26211903072846     000000000000599221090000000000000000000000000906270319190307284600000000000059922109290319000000000998000103530  000000000000000000000000000000000000000000000000000000000000000000000000000000000000000998000000000000000000000000000   280319078          00000000000000                                                                  000171
1020874591800017100000090345100240370REGTIT26211903072897     000000000000599225240000000000000000000000000906270319190307289700000000000059922524290319000000000998010402204  000000000000000000000000000000000000000000000000000000000000000000000000000000000000000998000000000000000000000000000   280319078          00000000000000                                                                  000172
1020874591800017100000090345100240370REGTIT26211903072902     000000000000599225750000000000000000000000000906270319190307290200000000000059922575290319000000000799010403557  000000000000000000000000000000000000000000000000000000000000000000000000000000000000000799000000000000000000000000000   280319078          00000000000000                                                                  000173
1020874591800017100000090345100240370REGTIT26211903072935     000000000000599228690000000000000000000000000906270319190307293500000000000059922869290319000000000998023702022  000000000000000000000000000000000000000000000000000000000000000000000000000000000000000998000000000000000000000000000   280319082          00000000000000                                                                  000174
1020874591800017100000090345100240370REGTIT26211903072991     000000000000599233690000000000000000000000000906270319190307299100000000000059923369290319000000000998023705718  000000000000000000000000000000000000000000000000000000000000000000000000000000000000000998000000000000000000000000000   280319066          00000000000000                                                                  000175
1020874591800017100000090345100240370REGTIT26211903072992     000000000000599233770000000000000000000000000906270319190307299200000000000059923377290319000000000998010403915  000000000000000000000000000000000000000000000000000000000000000000000000000000000000000998000000000000000000000000000   280319078          00000000000000                                                                  000176
1020874591800017100000090345100240370REGTIT26211903073030     000000000000599237330000000000000000000000000906270319190307303000000000000059923733290319000000000998010402864  000000000000000000000000000000000000000000000000000000000000000000000000000000000000000998000000000000000000000000000   280319078          00000000000000                                                                  000177
1020874591800017100000090345100240370REGTIT26211903073070     000000000000599241010000000000000000000000000906270319190307307000000000000059924101290319000000001074610401627  000000000000000000000000000000000000000000000000000000000000000000000000000000000000001074600000000000000000000000000   280319078          00000000000000                                                                  000178
1020874591800017100000090345100240370REGTIT26211903073106     0000000000005992442P000000000000000000000000090627031919030731060000000000005992442P290319000000000998010402863  000000000000000000000000000000000000000000000000000000000000000000000000000000000000000998000000000000000000000000000   280319078          00000000000000                                                                  000179
1020874591800017100000090345100240370REGTIT26211903073129     000000000000599246320000000000000000000000000906270319190307312900000000000059924632290319000000000998010400382  000000000000000000000000000000000000000000000000000000000000000000000000000000000000000998000000000000000000000000000   280319078          00000000000000                                                                  000180
1020874591800017100000090345100240370REGTIT26211903073170     000000000000599249770000000000000000000000000906270319190307317000000000000059924977290319000000001043010402252  000000000000000000000000000000000000000000000000000000000000000000000000000000000000001043000000000000000000000000000   280319078          00000000000000                                                                  000181
1020874591800017100000090345100240370REGTIT26211903073220     000000000000599254420000000000000000000000000906270319190307322000000000000059925442290319000000000898000101265  000000000000000000000000000000000000000000000000000000000000000000000000000000000000000898000000000000000000000000000   280319078          00000000000000                                                                  000182
1020874591800017100000090345100240370REGTIT26211903073278     000000000000599259810000000000000000000000000906270319190307327800000000000059925981290319000000000998023700050  000000000000000000000000000000000000000000000000000000000000000000000000000000000000000998000000000000000000000000000   280319082          00000000000000                                                                  000183
1020874591800017100000090345100240370REGTIT26211903073307     000000000000599262440000000000000000000000000906270319190307330700000000000059926244290319000000001651823700489  000000000000000000000000000000000000000000000000000000000000000000000000000000000000001651800000000000000000000000000   280319066          00000000000000                                                                  000184
1020874591800017100000090345100240370REGTIT26211903073342     000000000000599265700000000000000000000000000906270319190307334200000000000059926570290319000000000799010403510  000000000000000000000000000000000000000000000000000000000000000000000000000000000000000799000000000000000000000000000   280319078          00000000000000                                                                  000185
1020874591800017100000090345100240370REGTIT26211903073349     000000000000599266350000000000000000000000000906270319190307334900000000000059926635290319000000000998010402155  000000000000000000000000000000000000000000000000000000000000000000000000000000000000000998000000000000000000000000000   280319078          00000000000000                                                                  000186
1020874591800017100000090345100240370REGTIT26211903073377     000000000000599268990000000000000000000000000906270319190307337700000000000059926899290319000000000799034108425  000000000000000000000000000000000000000000000000000000000000000000000000000000000000000799000000000000000000000000000   280319078          00000000000000                                                                  000187
1020874591800017100000090345100240370REGTIT26211903073378     000000000000599269020000000000000000000000000906270319190307337800000000000059926902290319000000000799010400731  000000000000000000000000000000000000000000000000000000000000000000000000000000000000000799000000000000000000000000000   280319078          00000000000000                                                                  000188
1020874591800017100000090345100240370REGTIT253299709699635    000000009000598576260000000000000000000000000906270319997096996300000000900059857626060219000000002250034107222  000000000000000000000000000000000000000000000000000000000000000000000000000000000000002461600000000021160000000000000   280319078          00000000000000                                                                  000189
1020874591800017100000090345100240370REGTIT2557996627594682   000000009000598617040000000000000000000000000906270319996627594600000000900059861704270319000000002421610403322  000000000000000000000000000000000000000000000000000000000000000000000000000000000000002421600000000000000000000000000   280319078          00000000000000                                                                  000190
1020874591800017100000090345100240370REGTIT2637997193359918   000000009000599383910000000000000000000000000906270319997193359900000000900059938391200319000000001330610402974  000000000000000000000000000000000000000000000000000000000000000000000000000000000000001371200000000004060000000000000   280319078          00000000000000                                                                  000191
1020874591800017100000090345100240370REGTIT2638997185776055   000000009000599387820000000000000000000000000906270319997185776000000000900059938782280319000000001953034101656  000000000000000000000000000000000000000000000000000000000000000000000000000000000000001953000000000000000000000000000   280319078          00000000000000                                                                  000192
1020874591800017100000090345100240370REGTIT2641997310644031   000000009000599421780000000000000000000000000906270319997310644000000000900059942178290319000000002397010402863  000000000000000000000000000000000000000000000000000000000000000000000000000000000000002397000000000000000000000000000   280319078          00000000000000                                                                  000193
1020874591800017100000090345100240370REGTIT2648996250162740   000000009000599483620000000000000000000000000906270319996250162700000000900059948362010419000000003897010400998  000000000000000000000000000000000000000000000000000000000000000000000000000000000000003897000000000000000000000000000   280319078          00000000000000                                                                  000194
1020874591800017100000090345100240370REGTIT2660993875695744   000000009000599564380000000000000000000000000906270319993875695700000000900059956438270319000000008550874800718  000000000000000000000000000000000000000000000000000000000000000000000000000000000000008550800000000000000000000000000   280319078          00000000000000                                                                  000195
1020874591800017100000090345100240370REGTIT18811811072389     000000000000595632490000000000000000000000000909270319181107238900000000000059563249301118000000000899023704150  000000000000000000000000000000000000000000000000000000000000000000000000000000000000000000000000000000000000000000000                          0000000000                                                                  000196
1020874591800017100000090345100240370REGTIT20751812008369     000000000000596078900000000000000000000000000909270319181200836900000000000059607890281218000000002467023704150  000000000000000000000000000000000000000000000000000000000000000000000000000000000000000000000000000000000000000000000                          0000000000                                                                  000197
1020874591800017100000090345100240370REGTIT20751812064121     000000000000596177720000000000000000000000000909270319181206412100000000000059617772281218000000003397023704150  000000000000000000000000000000000000000000000000000000000000000000000000000000000000000000000000000000000000000000000                          0000000000                                                                  000198
1020874591800017100000090345100240370REGTIT20751812067197     0000000000005962762P000000000000000000000000090927031918120671970000000000005962762P281218000000002597023704150  000000000000000000000000000000000000000000000000000000000000000000000000000000000000000000000000000000000000000000000                          0000000000                                                                  000199
1020874591800017100000090345100240370REGTIT20751812070577     000000000000596401380000000000000000000000000909270319181207057700000000000059640138281218000000002397023704150  000000000000000000000000000000000000000000000000000000000000000000000000000000000000000000000000000000000000000000000                          0000000000                                                                  000200
1020874591800017100000090345100240370REGTIT20751812072389     000000000000596529850000000000000000000000000909270319181207238900000000000059652985281218000000000899023704150  000000000000000000000000000000000000000000000000000000000000000000000000000000000000000000000000000000000000000000000                          0000000000                                                                  000201
1020874591800017100000090345100240370REGTIT20751812072815     000000000000596569560000000000000000000000000909270319181207281500000000000059656956281218000000000998023704150  000000000000000000000000000000000000000000000000000000000000000000000000000000000000000000000000000000000000000000000                          0000000000                                                                  000202
1020874591800017100000090345100240370REGTIT22981901008369     000000000000597039460000000000000000000000000909270319190100836900000000000059703946300119000000001383023704150  000000000000000000000000000000000000000000000000000000000000000000000000000000000000000000000000000000000000000000000                          0000000000                                                                  000203
1020874591800017100000090345100240370REGTIT22981901064121     000000000000597135180000000000000000000000000909270319190106412100000000000059713518300119000000001848023704150  000000000000000000000000000000000000000000000000000000000000000000000000000000000000000000000000000000000000000000000                          0000000000                                                                  000204
1020874591800017100000090345100240370REGTIT22981901067197     000000000000597231140000000000000000000000000909270319190106719700000000000059723114300119000000001448023704150  000000000000000000000000000000000000000000000000000000000000000000000000000000000000000000000000000000000000000000000                          0000000000                                                                  000205
1020874591800017100000090345100240370REGTIT22981901070577     000000000000597351710000000000000000000000000909270319190107057700000000000059735171300119000000001348023704150  000000000000000000000000000000000000000000000000000000000000000000000000000000000000000000000000000000000000000000000                          0000000000                                                                  000206
1020874591800017100000090345100240370REGTIT22981901072389     000000000000597470800000000000000000000000000909270319190107238900000000000059747080300119000000000899023704150  000000000000000000000000000000000000000000000000000000000000000000000000000000000000000000000000000000000000000000000                          0000000000                                                                  000207
1020874591800017100000090345100240370REGTIT22981901072763     000000000000597504210000000000000000000000000909270319190107276300000000000059750421300119000000005126823704150  000000000000000000000000000000000000000000000000000000000000000000000000000000000000000000000000000000000000000000000                          0000000000                                                                  000208
1020874591800017100000090345100240370REGTIT22981901072815     000000000000597509360000000000000000000000000909270319190107281500000000000059750936300119000000000998023704150  000000000000000000000000000000000000000000000000000000000000000000000000000000000000000000000000000000000000000000000                          0000000000                                                                  000209
1020874591800017100000090345100240370REGTIT24411902008369     000000000000597924180000000000000000000000000909270319190200836900000000000059792418280219000000001383023704150  000000000000000000000000000000000000000000000000000000000000000000000000000000000000000000000000000000000000000000000                          0000000000                                                                  000210
1020874591800017100000090345100240370REGTIT24411902064121     000000000000598017350000000000000000000000000909270319190206412100000000000059801735280219000000001848023704150  000000000000000000000000000000000000000000000000000000000000000000000000000000000000000000000000000000000000000000000                          0000000000                                                                  000211
1020874591800017100000090345100240370REGTIT24411902067197     000000000000598110800000000000000000000000000909270319190206719700000000000059811080280219000000001448023704150  000000000000000000000000000000000000000000000000000000000000000000000000000000000000000000000000000000000000000000000                          0000000000                                                                  000212
1020874591800017100000090345100240370REGTIT24411902070577     000000000000598227320000000000000000000000000909270319190207057700000000000059822732280219000000001348023704150  000000000000000000000000000000000000000000000000000000000000000000000000000000000000000000000000000000000000000000000                          0000000000                                                                  000213
1020874591800017100000090345100240370REGTIT24411902072389     000000000000598340050000000000000000000000000909270319190207238900000000000059834005280219000000000899023704150  000000000000000000000000000000000000000000000000000000000000000000000000000000000000000000000000000000000000000000000                          0000000000                                                                  000214
1020874591800017100000090345100240370REGTIT24411902072763     000000000000598370200000000000000000000000000909270319190207276300000000000059837020280219000000004168523704150  000000000000000000000000000000000000000000000000000000000000000000000000000000000000000000000000000000000000000000000                          0000000000                                                                  000215
1020874591800017100000090345100240370REGTIT24411902072815     000000000000598374970000000000000000000000000909270319190207281500000000000059837497280219000000000998023704150  000000000000000000000000000000000000000000000000000000000000000000000000000000000000000000000000000000000000000000000                          0000000000                                                                  000216
1020874591800017100000090345100240370REGTIT26211903001068     000000000000598782230000000000000000000000000909270319190300106800000000000059878223290319000000000211523704150  000000000000000000000000000000000000000000000000000000000000000000000000000000000000000000000000000000000000000000000                          0000000000                                                                  000217
1020874591800017100000090345100240370REGTIT26211903004835     000000000000598784520000000000000000000000000909270319190300483500000000000059878452290319000000000049523704150  000000000000000000000000000000000000000000000000000000000000000000000000000000000000000000000000000000000000000000000                          0000000000                                                                  000218
1020874591800017100000090345100240370REGTIT26211903008369     0000000000005987886P000000000000000000000000090927031919030083690000000000005987886P290319000000001383023704150  000000000000000000000000000000000000000000000000000000000000000000000000000000000000000000000000000000000000000000000                          0000000000                                                                  000219
1020874591800017100000090345100240370REGTIT26211903040933     000000000000598817630000000000000000000000000909270319190304093300000000000059881763290319000000000049523704150  000000000000000000000000000000000000000000000000000000000000000000000000000000000000000000000000000000000000000000000                          0000000000                                                                  000220
1020874591800017100000090345100240370REGTIT26211903064121     000000000000598877450000000000000000000000000909270319190306412100000000000059887745290319000000001848023704150  000000000000000000000000000000000000000000000000000000000000000000000000000000000000000000000000000000000000000000000                          0000000000                                                                  000221
1020874591800017100000090345100240370REGTIT26211903067197     000000000000598968680000000000000000000000000909270319190306719700000000000059896868290319000000001448023704150  000000000000000000000000000000000000000000000000000000000000000000000000000000000000000000000000000000000000000000000                          0000000000                                                                  000222
1020874591800017100000090345100240370REGTIT26211903070577     000000000000599081490000000000000000000000000909270319190307057700000000000059908149290319000000001099023704150  000000000000000000000000000000000000000000000000000000000000000000000000000000000000000000000000000000000000000000000                          0000000000                                                                  000223
1020874591800017100000090345100240370REGTIT26211903072389     000000000000599187210000000000000000000000000909270319190307238900000000000059918721290319000000000899023704150  000000000000000000000000000000000000000000000000000000000000000000000000000000000000000000000000000000000000000000000                          0000000000                                                                  000224
1020874591800017100000090345100240370REGTIT26211903072763     000000000000599214630000000000000000000000000909270319190307276300000000000059921463290319000000001299023704150  000000000000000000000000000000000000000000000000000000000000000000000000000000000000000000000000000000000000000000000                          0000000000                                                                  000225
1020874591800017100000090345100240370REGTIT26211903072815     000000000000599218700000000000000000000000000909270319190307281500000000000059921870290319000000000998023704150  000000000000000000000000000000000000000000000000000000000000000000000000000000000000000000000000000000000000000000000                          0000000000                                                                  000226
1020874591800017100000090345100240370REGTIT2637997056416084   000000009000599385100000000000000000000000000909270319997056416000000000900059938510200319000000003691023704150  000000000000000000000000000000000000000000000000000000000000000000000000000000000000000000000000000000000000000000000                          0000000000                                                                  000227
1020874591800017100000090345100240370REGTIT14711809072100     000000000000593680630000000000000000000000000910270319180907210000000000000059368063261118000000000998023700000  000000000000000000000000000000000000000000000000000000000000000000000000000000000000000000000000000000000000000000000                          1600000000                                                                  000228
1020874591800017100000090345100240370REGTIT16601810035548     000000000000594165800000000000000000000000000910270319181003554800000000000059416580261118000000001649023700000  000000000000000000000000000000000000000000000000000000000000000000000000000000000000000000000000000000000000000000000                          1600000000                                                                  000229
1020874591800017100000090345100240370REGTIT16601810069704     000000000000594438550000000000000000000000000910270319181006970400000000000059443855261118000000001348023700000  000000000000000000000000000000000000000000000000000000000000000000000000000000000000000000000000000000000000000000000                          1600000000                                                                  000230
1020874591800017100000090345100240370REGTIT16601810070507     000000000000594476720000000000000000000000000910270319181007050700000000000059447672261118000000001348023700000  000000000000000000000000000000000000000000000000000000000000000000000000000000000000000000000000000000000000000000000                          1600000000                                                                  000231
1020874591800017100000090345100240370REGTIT16601810071447     0000000000005945413P000000000000000000000000091027031918100714470000000000005945413P261118000000000799023700000  000000000000000000000000000000000000000000000000000000000000000000000000000000000000000000000000000000000000000000000                          1600000000                                                                  000232
1020874591800017100000090345100240370REGTIT16601810071672     000000000000594561160000000000000000000000000910270319181007167200000000000059456116261118000000000800023700000  000000000000000000000000000000000000000000000000000000000000000000000000000000000000000000000000000000000000000000000                          1600000000                                                                  000233
1020874591800017100000090345100240370REGTIT16601810072045     000000000000594596380000000000000000000000000910270319181007204500000000000059459638261118000000000998023700000  000000000000000000000000000000000000000000000000000000000000000000000000000000000000000000000000000000000000000000000                          1600000000                                                                  000234
1020874591800017100000090345100240370REGTIT16601810072100     000000000000594601640000000000000000000000000910270319181007210000000000000059460164261118000000000998023700000  000000000000000000000000000000000000000000000000000000000000000000000000000000000000000000000000000000000000000000000                          1600000000                                                                  000235
1020874591800017100000090345100240370REGTIT16601810072227     000000000000594613570000000000000000000000000910270319181007222700000000000059461357261118000000000799023700000  000000000000000000000000000000000000000000000000000000000000000000000000000000000000000000000000000000000000000000000                          1600000000                                                                  000236
1020874591800017100000090345100240370REGTIT16601810072328     000000000000594623100000000000000000000000000910270319181007232800000000000059462310261118000000000998023700000  000000000000000000000000000000000000000000000000000000000000000000000000000000000000000000000000000000000000000000000                          1600000000                                                                  000237
1020874591800017100000090345100240370REGTIT1975996859449309   0000000090005958283P000000000000000000000000091027031999685944930000000090005958283P261118000000001847323700000  000000000000000000000000000000000000000000000000000000000000000000000000000000000000000000000000000000000000000000000                          1600000000                                                                  000238
1020874591800017100000090345100240370REGTIT1986997178168750   000000009000595841820000000000000000000000000910270319997178168700000000900059584182261118000000001996023700000  000000000000000000000000000000000000000000000000000000000000000000000000000000000000000000000000000000000000000000000                          1600000000                                                                  000239
1020874591800017100000090345100240370REGTIT26211903056183     0000000000005988388P000000000000000000000000091227031919030561830000000000005988388P290319000000001150023704150  000000000000000000000000000000000000000000000000000000000000040100000000000000000000000000000000000000000000000000000                          0000000000                                                                  000240
1020874591800017100000090345100240370REGTIT26701812070577     000000000000596401380000000000000000000000000927270319181207057700000000000059640138281218000000002397023700000  000000000000000000000000000000000000000000000000000000000000000000000000000000000000000000000000000000000000000000000                          6000000000                                                                  000241
1020874591800017100000090345100240370REGTIT26701901070577     000000000000597351710000000000000000000000000927270319190107057700000000000059735171300119000000001348023700000  000000000000000000000000000000000000000000000000000000000000000000000000000000000000000000000000000000000000000000000                          6000000000                                                                  000242
1020874591800017100000090345100240370REGTIT26701901072763     000000000000597504210000000000000000000000000927270319190107276300000000000059750421300119000000005126823700000  000000000000000000000000000000000000000000000000000000000000000000000000000000000000000000000000000000000000000000000                          6000000000                                                                  000243
1020874591800017100000090345100240370REGTIT26701902070577     000000000000598227320000000000000000000000000927270319190207057700000000000059822732280219000000001348023700000  000000000000000000000000000000000000000000000000000000000000000000000000000000000000000000000000000000000000000000000                          6000000000                                                                  000244
1020874591800017100000090345100240370REGTIT26701902072763     000000000000598370200000000000000000000000000927270319190207276300000000000059837020280219000000004168523700000  000000000000000000000000000000000000000000000000000000000000000000000000000000000000000000000000000000000000000000000                          6000000000                                                                  000245
1020874591800017100000090345100240370REGTIT26691903001068     000000000000598782230000000000000000000000000927270319190300106800000000000059878223290319000000000211523700000  000000000000000000000000000000000000000000000000000000000000000000000000000000000000000000000000000000000000000000000                          6000000000                                                                  000246
1020874591800017100000090345100240370REGTIT26691903004835     000000000000598784520000000000000000000000000927270319190300483500000000000059878452290319000000000049523700000  000000000000000000000000000000000000000000000000000000000000000000000000000000000000000000000000000000000000000000000                          6000000000                                                                  000247
1020874591800017100000090345100240370REGTIT26691903040933     000000000000598817630000000000000000000000000927270319190304093300000000000059881763290319000000000049523700000  000000000000000000000000000000000000000000000000000000000000000000000000000000000000000000000000000000000000000000000                          6000000000                                                                  000248
