02RETORNO01COBRANCA       00000000000004972103WC SISTEMAS E EQUIPAMENTOS DE 237BRADESCO       0103190160000000558                                                                                                                                                                                                                                                                          060319         000001
1020874591800017100000090345100240370REGTIT2584997313731037   000000009000598643710000000000000000000000000902010319997313731000000000900059864371060319000000000315723704157  000000000014300000000000000000000000000000000000000000000000000000000000000000000000000000000000000000000000000000000                          0000000000                                                                  000002
1020874591800017100000090345100240370REGTIT2576996953630872   000000009000598632190000000000000000000000000903010319996953630800000000900059863219280219000000002900023704426  000000000000000000000000000000000000000000000000000000000000000000000000000000000000000000000000000000000000000000000                          0963000000                                                                  000003
1020874591800017100000090345100240370REGTIT257699695365780    000000009000598632270000000000000000000000000903010319996953657800000000900059863227150319000000002900023704426  000000000000000000000000000000000000000000000000000000000000000000000000000000000000000000000000000000000000000000000                          0963000000                                                                  000004
1020874591800017100000090345100240370REGTIT2576997304454821   000000009000598633400000000000000000000000000903010319997304454800000000900059863340070319000000001500023704144  000000000000000000000000000000000000000000000000000000000000000000000000000000000000000000000000000000000000000000000                          0963000000                                                                  000005
1020874591800017100000090345100240370REGTIT2575996616943491   000000009000598633670000000000000000000000000903010319996616943400000000900059863367010319000000002700023704144  000000000000000000000000000000000000000000000000000000000000000000000000000000000000000000000000000000000000000000000                          0900000000                                                                  000006
1020874591800017100000090345100240370REGTIT2576997267481110   000000009000598633830000000000000000000000000903010319997267481100000000900059863383010319000000001500023704144  000000000000000000000000000000000000000000000000000000000000000000000000000000000000000000000000000000000000000000000                          0963000000                                                                  000007
1020874591800017100000090345100240370REGTIT2575997264323365   000000009000598633910000000000000000000000000903010319997264323300000000900059863391010319000000000998023704144  000000000000000000000000000000000000000000000000000000000000000000000000000000000000000000000000000000000000000000000                          0900000000                                                                  000008
1020874591800017100000090345100240370REGTIT2576997180165090   000000009000598634050000000000000000000000000903010319997180165000000000900059863405080319000000001800023704144  000000000000000000000000000000000000000000000000000000000000000000000000000000000000000000000000000000000000000000000                          0963000000                                                                  000009
1020874591800017100000090345100240370REGTIT2576997203839971   000000009000598634130000000000000000000000000903010319997203839900000000900059863413080319000000002397023704144  000000000000000000000000000000000000000000000000000000000000000000000000000000000000000000000000000000000000000000000                          0963000000                                                                  000010
1020874591800017100000090345100240370REGTIT2585997313731037   000000009000598643710000000000000000000000000903010319997313731000000000900059864371060319000000000315723704157  000000000000000000000000000000000000000000000000000000000000000000000000000000000000000000000000000000000000000000000                          6300000000                                                                  000011
1020874591800017100000090345100240370REGTIT20751812071705     000000000000596472210000000000000000000000000906010319181207170500000000000059647221281218000000001399042200172  000000000000000000000000000000000000000000000000000000000000000000000000000000000000001559200000000016020000000000000   060319078          00000000000000                                                                  000012
1020874591800017100000090345100240370REGTIT22981901021610     000000000000597051590000000000000000000000000906010319190102161000000000000059705159300119000000003062875603039  000000000000000000000000000000000000000000000000000000000000000000000000000000000000003262000000000019920000000000000   060319078          00000000000000                                                                  000013
1020874591800017100000090345100240370REGTIT22981901055683     000000000000597091620000000000000000000000000906010319190105568300000000000059709162300119000000001598010403684  000000000000000000000000000000000000000000000000000000000000000000000000000000000000001701900000000010390000000000000   060319078          00000000000000                                                                  000014
1020874591800017100000090345100240370REGTIT22981901058495     000000000000597099520000000000000000000000000906010319190105849500000000000059709952300119000000002319874801426  000000000000000000000000000000000000000000000000000000000000000000000000000000000000002471100000000015130000000000000   060319078          00000000000000                                                                  000015
1020874591800017100000090345100240370REGTIT22981901069694     000000000000597315750000000000000000000000000906010319190106969400000000000059731575300119000000001348034101325  000000000000000000000000000000000000000000000000000000000000000000000000000000000000001434900000000008690000000000000   060319078          00000000000000                                                                  000016
1020874591800017100000090345100240370REGTIT22981901071695     000000000000597417160000000000000000000000000906010319190107169500000000000059741716300119000000000998023703285  000000000000000000000000000000000000000000000000000000000000000000000000000000000000001062900000000006490000000000000   060319066          00000000000000                                                                  000017
1020874591800017100000090345100240370REGTIT22981901072803     000000000000597508120000000000000000000000000906010319190107280300000000000059750812300119000000000998010400385  000000000000000000000000000000000000000000000000000000000000000000000000000000000000001062900000000006490000000000000   060319078          00000000000000                                                                  000018
1020874591800017100000090345100240370REGTIT22981901072887     000000000000597516220000000000000000000000000906010319190107288700000000000059751622300119000000000799075600210  000000000000000000000000000000000000000000000000000000000000000000000000000000000000000850900000000005190000000000000   060319078          00000000000000                                                                  000019
1020874591800017100000090345100240370REGTIT24411902002614     000000000000597918610000000000000000000000000906010319190200261400000000000059791861280219000000001084003301548  000000000000000000000000000000000000000000000000000000000000000000000000000000000000001107200000000002320000000000000   060319078          00000000000000                                                                  000020
1020874591800017100000090345100240370REGTIT24411902005226     0000000000005979206P000000000000000000000000090601031919020052260000000000005979206P280219000000004146323700114  000000000000000000000000000000000000000000000000000000000000000000000000000000000000004235400000000008910000000000000   060319035          00000000000000                                                                  000021
1020874591800017100000090345100240370REGTIT24411902006733     000000000000597922130000000000000000000000000906010319190200673300000000000059792213280219000000001254010402553  000000000000000000000000000000000000000000000000000000000000000000000000000000000000001280900000000002690000000000000   060319078          00000000000000                                                                  000022
1020874591800017100000090345100240370REGTIT24411902007232     000000000000597922720000000000000000000000000906010319190200723200000000000059792272280219000000002271123700071  000000000000000000000000000000000000000000000000000000000000000000000000000000000000002319900000000004880000000000000   060319074          00000000000000                                                                  000023
1020874591800017100000090345100240370REGTIT24411902007307     000000000000597922990000000000000000000000000906010319190200730700000000000059792299280219000000002098134104012  000000000000000000000000000000000000000000000000000000000000000000000000000000000000002143100000000004500000000000000   060319078          00000000000000                                                                  000024
1020874591800017100000090345100240370REGTIT24411902008227     000000000000597923960000000000000000000000000906010319190200822700000000000059792396280219000000002252908500102  000000000000000000000000000000000000000000000000000000000000000000000000000000000000002301300000000004840000000000000   060319078          00000000000000                                                                  000025
1020874591800017100000090345100240370REGTIT24411902012107     000000000000597927520000000000000000000000000906010319190201210700000000000059792752280219000000002737303303412  000000000000000000000000000000000000000000000000000000000000000000000000000000000000002796100000000005880000000000000   060319078          00000000000000                                                                  000026
1020874591800017100000090345100240370REGTIT24411902017421     000000000000597932520000000000000000000000000906010319190201742100000000000059793252280219000000002532074807195  000000000000000000000000000000000000000000000000000000000000000000000000000000000000002586400000000005440000000000000   060319078          00000000000000                                                                  000027
1020874591800017100000090345100240370REGTIT24411902021606     000000000000597935460000000000000000000000000906010319190202160600000000000059793546280219000000002632503300814  000000000000000000000000000000000000000000000000000000000000000000000000000000000000002689000000000005650000000000000   060319078          00000000000000                                                                  000028
1020874591800017100000090345100240370REGTIT24411902021610     000000000000597935540000000000000000000000000906010319190202161000000000000059793554280219000000002546075603039  000000000000000000000000000000000000000000000000000000000000000000000000000000000000002600700000000005470000000000000   060319078          00000000000000                                                                  000029
1020874591800017100000090345100240370REGTIT24411902023580     000000000000597937320000000000000000000000000906010319190202358000000000000059793732280219000000002419834101235  000000000000000000000000000000000000000000000000000000000000000000000000000000000000002471700000000005190000000000000   060319078          00000000000000                                                                  000030
1020874591800017100000090345100240370REGTIT24411902025298     000000000000597939100000000000000000000000000906010319190202529800000000000059793910280219000000001183010403915  000000000000000000000000000000000000000000000000000000000000000000000000000000000000001208400000000002540000000000000   060319078          00000000000000                                                                  000031
1020874591800017100000090345100240370REGTIT24411902026400     000000000000597940110000000000000000000000000906010319190202640000000000000059794011280219000000001599010404144  000000000000000000000000000000000000000000000000000000000000000000000000000000000000001633300000000003430000000000000   060319078          00000000000000                                                                  000032
1020874591800017100000090345100240370REGTIT24411902026472     0000000000005979402P000000000000000000000000090601031919020264720000000000005979402P280219000000001835834108613  000000000000000000000000000000000000000000000000000000000000000000000000000000000000001875300000000003950000000000000   060319078          00000000000000                                                                  000033
1020874591800017100000090345100240370REGTIT24411902030382     000000000000597943800000000000000000000000000906010319190203038200000000000059794380280219000000002882410400314  000000000000000000000000000000000000000000000000000000000000000000000000000000000000002944300000000006190000000000000   060319078          00000000000000                                                                  000034
1020874591800017100000090345100240370REGTIT24411902034038     000000000000597947040000000000000000000000000906010319190203403800000000000059794704280219000000000998074801420  000000000000000000000000000000000000000000000000000000000000000000000000000000000000001019400000000002140000000000000   060319078          00000000000000                                                                  000035
1020874591800017100000090345100240370REGTIT24411902035052     000000000000597948870000000000000000000000000906010319190203505200000000000059794887280219000000001749000102936  000000000000000000000000000000000000000000000000000000000000000000000000000000000000001786500000000003750000000000000   060319078          00000000000000                                                                  000036
1020874591800017100000090345100240370REGTIT24411902035440     000000000000597949250000000000000000000000000906010319190203544000000000000059794925280219000000001348063300001  000000000000000000000000000000000000000000000000000000000000000000000000000000000000001376900000000002890000000000000   060319078          00000000000000                                                                  000037
1020874591800017100000090345100240370REGTIT24411902035972     000000000000597949760000000000000000000000000906010319190203597200000000000059794976280219000000001721034100200  000000000000000000000000000000000000000000000000000000000000000000000000000000000000001758000000000003700000000000000   060319078          00000000000000                                                                  000038
1020874591800017100000090345100240370REGTIT24411902039433     000000000000597952470000000000000000000000000906010319190203943300000000000059795247280219000000002290634105654  000000000000000000000000000000000000000000000000000000000000000000000000000000000000002339800000000004920000000000000   060319078          00000000000000                                                                  000039
1020874591800017100000090345100240370REGTIT24411902040057     000000000000597953010000000000000000000000000906010319190204005700000000000059795301280219000000001299010401318  000000000000000000000000000000000000000000000000000000000000000000000000000000000000001326800000000002780000000000000   060319078          00000000000000                                                                  000040
1020874591800017100000090345100240370REGTIT24411902041263     000000000000597954760000000000000000000000000906010319190204126300000000000059795476280219000000001150000101243  000000000000000000000000000000000000000000000000000000000000000000000000000000000000001174700000000002470000000000000   060319078          00000000000000                                                                  000041
1020874591800017100000090345100240370REGTIT24411902041498     000000000000597955140000000000000000000000000906010319190204149800000000000059795514280219000000001899075603249  000000000000000000000000000000000000000000000000000000000000000000000000000000000000001939700000000004070000000000000   060319078          00000000000000                                                                  000042
1020874591800017100000090345100240370REGTIT24411902042260     000000000000597955650000000000000000000000000906010319190204226000000000000059795565280219000000002371103303412  000000000000000000000000000000000000000000000000000000000000000000000000000000000000002422100000000005100000000000000   060319078          00000000000000                                                                  000043
1020874591800017100000090345100240370REGTIT24411902044232     000000000000597958320000000000000000000000000906010319190204423200000000000059795832280219000000002231510402122  000000000000000000000000000000000000000000000000000000000000000000000000000000000000002279400000000004790000000000000   060319078          00000000000000                                                                  000044
1020874591800017100000090345100240370REGTIT24411902045815     000000000000597960220000000000000000000000000906010319190204581500000000000059796022280219000000003599010400333  000000000000000000000000000000000000000000000000000000000000000000000000000000000000003676300000000007730000000000000   060319078          00000000000000                                                                  000045
1020874591800017100000090345100240370REGTIT24411902051956     000000000000597968470000000000000000000000000906010319190205195600000000000059796847280219000000003738100101430  000000000000000000000000000000000000000000000000000000000000000000000000000000000000003818400000000008030000000000000   060319078          00000000000000                                                                  000046
1020874591800017100000090345100240370REGTIT24411902051995     000000000000597968630000000000000000000000000906010319190205199500000000000059796863280219000000001894010402974  000000000000000000000000000000000000000000000000000000000000000000000000000000000000001934600000000004060000000000000   060319078          00000000000000                                                                  000047
1020874591800017100000090345100240370REGTIT24411902053597     000000000000597971340000000000000000000000000906010319190205359700000000000059797134280219000000001576910400371  000000000000000000000000000000000000000000000000000000000000000000000000000000000000001610800000000003390000000000000   060319078          00000000000000                                                                  000048
1020874591800017100000090345100240370REGTIT24411902055814     0000000000005979755P000000000000000000000000090601031919020558140000000000005979755P280219000000006061310400731  000000000000000000000000000000000000000000000000000000000000000000000000000000000000006191600000000013030000000000000   060319078          00000000000000                                                                  000049
1020874591800017100000090345100240370REGTIT24411902055891     000000000000597975680000000000000000000000000906010319190205589100000000000059797568280219000000001348034107122  000000000000000000000000000000000000000000000000000000000000000000000000000000000000001376900000000002890000000000000   060319078          00000000000000                                                                  000050
1020874591800017100000090345100240370REGTIT24411902056493     0000000000005979769P000000000000000000000000090601031919020564930000000000005979769P280219000000001874000108908  000000000000000000000000000000000000000000000000000000000000000000000000000000000000001914200000000004020000000000000   060319078          00000000000000                                                                  000051
1020874591800017100000090345100240370REGTIT24411902057647     000000000000597979080000000000000000000000000906010319190205764700000000000059797908280219000000001011500102537  000000000000000000000000000000000000000000000000000000000000000000000000000000000000001033200000000002170000000000000   060319078          00000000000000                                                                  000052
1020874591800017100000090345100240370REGTIT24411902058495     000000000000597982540000000000000000000000000906010319190205849500000000000059798254280219000000001928074801426  000000000000000000000000000000000000000000000000000000000000000000000000000000000000001969400000000004140000000000000   060319078          00000000000000                                                                  000053
1020874591800017100000090345100240370REGTIT24411902060168     0000000000005979884P000000000000000000000000090601031919020601680000000000005979884P280219000000001928010401757  000000000000000000000000000000000000000000000000000000000000000000000000000000000000001969400000000004140000000000000   060319078          00000000000000                                                                  000054
1020874591800017100000090345100240370REGTIT24411902060820     000000000000597990640000000000000000000000000906010319190206082000000000000059799064280219000000000626010401932  000000000000000000000000000000000000000000000000000000000000000000000000000000000000000639400000000001340000000000000   060319078          00000000000000                                                                  000055
1020874591800017100000090345100240370REGTIT24411902061220     000000000000597992340000000000000000000000000906010319190206122000000000000059799234280219000000001099000100192  000000000000000000000000000000000000000000000000000000000000000000000000000000000000001122500000000002350000000000000   060319078          00000000000000                                                                  000056
1020874591800017100000090345100240370REGTIT24411902061268     000000000000597992500000000000000000000000000906010319190206126800000000000059799250280219000000001878074807347  000000000000000000000000000000000000000000000000000000000000000000000000000000000000001918300000000004030000000000000   060319078          00000000000000                                                                  000057
1020874591800017100000090345100240370REGTIT24411902061767     000000000000597994470000000000000000000000000906010319190206176700000000000059799447280219000000007737475604355  000000000000000000000000000000000000000000000000000000000000000000000000000000000000007903700000000016630000000000000   060319078          00000000000000                                                                  000058
1020874591800017100000090345100240370REGTIT24411902061783     000000000000597994630000000000000000000000000906010319190206178300000000000059799463280219000000002316974801169  000000000000000000000000000000000000000000000000000000000000000000000000000000000000002366700000000004980000000000000   060319078          00000000000000                                                                  000059
1020874591800017100000090345100240370REGTIT24411902062239     000000000000597996840000000000000000000000000906010319190206223900000000000059799684280219000000003173004100011  000000000000000000000000000000000000000000000000000000000000000000000000000000000000003241200000000006820000000000000   060319078          00000000000000                                                                  000060
1020874591800017100000090345100240370REGTIT24411902062450     000000000000597998970000000000000000000000000906010319190206245000000000000059799897280219000000001199023703159  000000000000000000000000000000000000000000000000000000000000000000000000000000000000001224700000000002570000000000000   060319002          00000000000000                                                                  000061
1020874591800017100000090345100240370REGTIT24411902062553     000000000000597999780000000000000000000000000906010319190206255300000000000059799978280219000000001785100102421  000000000000000000000000000000000000000000000000000000000000000000000000000000000000001823500000000003840000000000000   060319078          00000000000000                                                                  000062
1020874591800017100000090345100240370REGTIT24411902062644     000000000000598000540000000000000000000000000906010319190206264400000000000059800054280219000000001878023701941  000000000000000000000000000000000000000000000000000000000000000000000000000000000000001918300000000004030000000000000   060319082          00000000000000                                                                  000063
1020874591800017100000090345100240370REGTIT24411902062768     000000000000598002080000000000000000000000000906010319190206276800000000000059800208280219000000001854275604368  000000000000000000000000000000000000000000000000000000000000000000000000000000000000001894000000000003980000000000000   060319078          00000000000000                                                                  000064
1020874591800017100000090345100240370REGTIT24411902063011     000000000000598004290000000000000000000000000906010319190206301100000000000059800429280219000000001678023702023  000000000000000000000000000000000000000000000000000000000000000000000000000000000000001714000000000003600000000000000   060319082          00000000000000                                                                  000065
1020874591800017100000090345100240370REGTIT24411902063045     000000000000598004610000000000000000000000000906010319190206304500000000000059800461280219000000000910010403379  000000000000000000000000000000000000000000000000000000000000000000000000000000000000000929600000000001960000000000000   060319078          00000000000000                                                                  000066
1020874591800017100000090345100240370REGTIT24411902063097     000000000000598005340000000000000000000000000906010319190206309700000000000059800534280219000000001610534107473  000000000000000000000000000000000000000000000000000000000000000000000000006784000000000932100000000000000000000000000   060319078          00000000000000                                                                  000067
1020874591800017100000090345100240370REGTIT24411902063315     000000000000598007200000000000000000000000000906010319190206331500000000000059800720280219000000001449075601625  000000000000000000000000000000000000000000000000000000000000000000000000000000000000001480100000000003110000000000000   060319078          00000000000000                                                                  000068
1020874591800017100000090345100240370REGTIT24411902063519     000000000000598009410000000000000000000000000906010319190206351900000000000059800941280219000000001699034102947  000000000000000000000000000000000000000000000000000000000000000000000000000000000000001735400000000003640000000000000   060319078          00000000000000                                                                  000069
1020874591800017100000090345100240370REGTIT24411902063770     000000000000598012390000000000000000000000000906010319190206377000000000000059801239280219000000001737010401265  000000000000000000000000000000000000000000000000000000000000000000000000000000000000001774300000000003730000000000000   060319078          00000000000000                                                                  000070
1020874591800017100000090345100240370REGTIT24411902063823     0000000000005980131P000000000000000000000000090601031919020638230000000000005980131P280219000000001761510402975  000000000000000000000000000000000000000000000000000000000000000000000000000000000000001799300000000003780000000000000   060319078          00000000000000                                                                  000071
1020874591800017100000090345100240370REGTIT24411902063864     000000000000598013600000000000000000000000000906010319190206386400000000000059801360280219000000002050634100616  000000000000000000000000000000000000000000000000000000000000000000000000000000000000002094700000000004410000000000000   060319078          00000000000000                                                                  000072
1020874591800017100000090345100240370REGTIT24411902064021     000000000000598015810000000000000000000000000906010319190206402100000000000059801581280219000000001749034107407  000000000000000000000000000000000000000000000000000000000000000000000000000000000000001786500000000003750000000000000   060319078          00000000000000                                                                  000073
1020874591800017100000090345100240370REGTIT24411902064058     000000000000598016700000000000000000000000000906010319190206405800000000000059801670280219000000002153074800136  000000000000000000000000000000000000000000000000000000000000000000000000000000000000002199200000000004620000000000000   060319078          00000000000000                                                                  000074
1020874591800017100000090345100240370REGTIT24411902064061     000000000000598016890000000000000000000000000906010319190206406100000000000059801689280219000000001448010400386  000000000000000000000000000000000000000000000000000000000000000000000000000000000000001479100000000003110000000000000   060319078          00000000000000                                                                  000075
1020874591800017100000090345100240370REGTIT24411902064450     000000000000598021620000000000000000000000000906010319190206445000000000000059802162280219000000001798074807379  000000000000000000000000000000000000000000000000000000000000000000000000000000000000001836600000000003860000000000000   060319078          00000000000000                                                                  000076
1020874591800017100000090345100240370REGTIT24411902064830     000000000000598028550000000000000000000000000906010319190206483000000000000059802855280219000000001848034103834  000000000000000000000000000000000000000000000000000000000000000000000000000000000000001887700000000003970000000000000   060319078          00000000000000                                                                  000077
1020874591800017100000090345100240370REGTIT24411902065109     000000000000598033550000000000000000000000000906010319190206510900000000000059803355280219000000001648034108411  000000000000000000000000000000000000000000000000000000000000000000000000000000000000001683400000000003540000000000000   060319078          00000000000000                                                                  000078
1020874591800017100000090345100240370REGTIT24411902065177     000000000000598035410000000000000000000000000906010319190206517700000000000059803541280219000000001878074807339  000000000000000000000000000000000000000000000000000000000000000000000000000000000000001918300000000004030000000000000   060319078          00000000000000                                                                  000079
1020874591800017100000090345100240370REGTIT24411902065286     000000000000598038860000000000000000000000000906010319190206528600000000000059803886280219000000001748000102755  000000000000000000000000000000000000000000000000000000000000000000000000000000000000001785500000000003750000000000000   060319078          00000000000000                                                                  000080
1020874591800017100000090345100240370REGTIT24411902065328     000000000000598040330000000000000000000000000906010319190206532800000000000059804033280219000000001748010401266  000000000000000000000000000000000000000000000000000000000000000000000000000000000000001785500000000003750000000000000   060319078          00000000000000                                                                  000081
1020874591800017100000090345100240370REGTIT24411902065391     000000000000598042030000000000000000000000000906010319190206539100000000000059804203280219000000001748023702178  000000000000000000000000000000000000000000000000000000000000000000000000000000000000001785500000000003750000000000000   060319066          00000000000000                                                                  000082
1020874591800017100000090345100240370REGTIT24411902065438     000000000000598043270000000000000000000000000906010319190206543800000000000059804327280219000000001954710401102  000000000000000000000000000000000000000000000000000000000000000000000000000000000000001996600000000004190000000000000   060319078          00000000000000                                                                  000083
1020874591800017100000090345100240370REGTIT24411902065460     000000000000598043860000000000000000000000000906010319190206546000000000000059804386280219000000001769034103722  000000000000000000000000000000000000000000000000000000000000000000000000000000000000001807000000000003800000000000000   060319078          00000000000000                                                                  000084
1020874591800017100000090345100240370REGTIT24411902065593     000000000000598047930000000000000000000000000906010319190206559300000000000059804793280219000000001748003300813  000000000000000000000000000000000000000000000000000000000000000000000000000000000000001785500000000003750000000000000   060319078          00000000000000                                                                  000085
1020874591800017100000090345100240370REGTIT24411902065685     000000000000598050130000000000000000000000000906010319190206568500000000000059805013280219000000001530610400997  000000000000000000000000000000000000000000000000000000000000000000000000000000000000001563500000000003290000000000000   060319078          00000000000000                                                                  000086
1020874591800017100000090345100240370REGTIT24411902065736     000000000000598052850000000000000000000000000906010319190206573600000000000059805285280219000000001748075604340  000000000000000000000000000000000000000000000000000000000000000000000000000000000000001785500000000003750000000000000   060319078          00000000000000                                                                  000087
1020874591800017100000090345100240370REGTIT24411902065922     000000000000598058970000000000000000000000000906010319190206592200000000000059805897280219000000001748004100080  000000000000000000000000000000000000000000000000000000000000000000000000000000000000001785500000000003750000000000000   060319078          00000000000000                                                                  000088
1020874591800017100000090345100240370REGTIT24411902066025     000000000000598062060000000000000000000000000906010319190206602500000000000059806206280219000000001633934103892  000000000000000000000000000000000000000000000000000000000000000000000000000000000000001669000000000003510000000000000   060319078          00000000000000                                                                  000089
1020874591800017100000090345100240370REGTIT24411902066192     000000000000598069070000000000000000000000000906010319190206619200000000000059806907280219000000001748010403915  000000000000000000000000000000000000000000000000000000000000000000000000000000000000001785500000000003750000000000000   060319078          00000000000000                                                                  000090
1020874591800017100000090345100240370REGTIT24411902066196     000000000000598069230000000000000000000000000906010319190206619600000000000059806923280219000000001398034100616  000000000000000000000000000000000000000000000000000000000000000000000000000000000000001428000000000003000000000000000   060319078          00000000000000                                                                  000091
1020874591800017100000090345100240370REGTIT24411902066335     000000000000598074820000000000000000000000000906010319190206633500000000000059807482280219000000001698010401282  000000000000000000000000000000000000000000000000000000000000000000000000000000000000001734400000000003640000000000000   060319078          00000000000000                                                                  000092
1020874591800017100000090345100240370REGTIT24411902066371     000000000000598075470000000000000000000000000906010319190206637100000000000059807547280219000000001698004100213  000000000000000000000000000000000000000000000000000000000000000000000000000000000000001698000000000000000000000000000   060319078          00000000000000                                                                  000093
1020874591800017100000090345100240370REGTIT24411902066437     000000000000598078140000000000000000000000000906010319190206643700000000000059807814280219000000001458010400372  000000000000000000000000000000000000000000000000000000000000000000000000000000000000001489300000000003130000000000000   060319078          00000000000000                                                                  000094
1020874591800017100000090345100240370REGTIT24411902066459     000000000000598079700000000000000000000000000906010319190206645900000000000059807970280219000000003699023702607  000000000000000000000000000000000000000000000000000000000000000000000000000000000000003778400000000007940000000000000   060319035          00000000000000                                                                  000095
1020874591800017100000090345100240370REGTIT24411902066474     000000000000598080630000000000000000000000000906010319190206647400000000000059808063280219000000001698010400383  000000000000000000000000000000000000000000000000000000000000000000000000000000000000001734400000000003640000000000000   060319078          00000000000000                                                                  000096
1020874591800017100000090345100240370REGTIT24411902066572     000000000000598084460000000000000000000000000906010319190206657200000000000059808446280219000000001698075602386  000000000000000000000000000000000000000000000000000000000000000000000000000000000000001734400000000003640000000000000   060319078          00000000000000                                                                  000097
1020874591800017100000090345100240370REGTIT24411902066756     0000000000005980923P000000000000000000000000090601031919020667560000000000005980923P280219000000001698074807379  000000000000000000000000000000000000000000000000000000000000000000000000000000000000001734400000000003640000000000000   060319078          00000000000000                                                                  000098
1020874591800017100000090345100240370REGTIT24411902066789     000000000000598093370000000000000000000000000906010319190206678900000000000059809337280219000000001307600102396  000000000000000000000000000000000000000000000000000000000000000000000000000000000000001335700000000002810000000000000   060319078          00000000000000                                                                  000099
1020874591800017100000090345100240370REGTIT24411902066810     000000000000598093960000000000000000000000000906010319190206681000000000000059809396280219000000001548004100213  000000000000000000000000000000000000000000000000000000000000000000000000000000000000001548000000000000000000000000000   060319078          00000000000000                                                                  000100
1020874591800017100000090345100240370REGTIT24411902066921     000000000000598098840000000000000000000000000906010319190206692100000000000059809884280219000000001698010401266  000000000000000000000000000000000000000000000000000000000000000000000000000000000000001734400000000003640000000000000   060319078          00000000000000                                                                  000101
1020874591800017100000090345100240370REGTIT24411902066985     000000000000598101570000000000000000000000000906010319190206698500000000000059810157280219000000001548023702737  000000000000000000000000000000000000000000000000000000000000000000000000000000000000001581200000000003320000000000000   060319002          00000000000000                                                                  000102
1020874591800017100000090345100240370REGTIT24411902067021     000000000000598103430000000000000000000000000906010319190206702100000000000059810343280219000000001698034101688  000000000000000000000000000000000000000000000000000000000000000000000000000000000000001734400000000003640000000000000   060319078          00000000000000                                                                  000103
1020874591800017100000090345100240370REGTIT24411902067044     000000000000598104670000000000000000000000000906010319190206704400000000000059810467280219000000001698023706021  000000000000000000000000000000000000000000000000000000000000000000000000000000000000001734400000000003640000000000000   060319074          00000000000000                                                                  000104
1020874591800017100000090345100240370REGTIT24411902067095     000000000000598107340000000000000000000000000906010319190206709500000000000059810734280219000000001698034108766  000000000000000000000000000000000000000000000000000000000000000000000000000000000000001734400000000003640000000000000   060319078          00000000000000                                                                  000105
1020874591800017100000090345100240370REGTIT24411902067118     000000000000598108150000000000000000000000000906010319190206711800000000000059810815280219000000001698023705717  000000000000000000000000000000000000000000000000000000000000000000000000000000000000001734400000000003640000000000000   060319082          00000000000000                                                                  000106
1020874591800017100000090345100240370REGTIT24411902067146     000000000000598108660000000000000000000000000906010319190206714600000000000059810866280219000000001698034102947  000000000000000000000000000000000000000000000000000000000000000000000000000000000000001734400000000003640000000000000   060319078          00000000000000                                                                  000107
1020874591800017100000090345100240370REGTIT24411902067154     000000000000598108820000000000000000000000000906010319190206715400000000000059810882280219000000001698034100616  000000000000000000000000000000000000000000000000000000000000000000000000000000000000001734400000000003640000000000000   060319078          00000000000000                                                                  000108
1020874591800017100000090345100240370REGTIT24411902067248     000000000000598113660000000000000000000000000906010319190206724800000000000059811366280219000000001722034108488  000000000000000000000000000000000000000000000000000000000000000000000000000000000000001759000000000003700000000000000   060319078          00000000000000                                                                  000109
1020874591800017100000090345100240370REGTIT24411902067276     000000000000598114630000000000000000000000000906010319190206727600000000000059811463280219000000001598075604368  000000000000000000000000000000000000000000000000000000000000000000000000000000000000001632300000000003430000000000000   060319078          00000000000000                                                                  000110
1020874591800017100000090345100240370REGTIT24411902067348     000000000000598117810000000000000000000000000906010319190206734800000000000059811781280219000000001598000101433  000000000000000000000000000000000000000000000000000000000000000000000000000000000000001632300000000003430000000000000   060319078          00000000000000                                                                  000111
1020874591800017100000090345100240370REGTIT24411902067362     000000000000598118460000000000000000000000000906010319190206736200000000000059811846280219000000001499010400375  000000000000000000000000000000000000000000000000000000000000000000000000000000000000001531100000000003210000000000000   060319078          00000000000000                                                                  000112
1020874591800017100000090345100240370REGTIT24411902067414     000000000000598120440000000000000000000000000906010319190206741400000000000059812044280219000000001449003300975  000000000000000000000000000000000000000000000000000000000000000000000000000000000000001480100000000003110000000000000   060319078          00000000000000                                                                  000113
1020874591800017100000090345100240370REGTIT24411902067428     000000000000598121170000000000000000000000000906010319190206742800000000000059812117280219000000001448003300110  000000000000000000000000000000000000000000000000000000000000000000000000000000000000001479100000000003110000000000000   060319078          00000000000000                                                                  000114
1020874591800017100000090345100240370REGTIT24411902067434     000000000000598121410000000000000000000000000906010319190206743400000000000059812141280219000000001398075603236  000000000000000000000000000000000000000000000000000000000000000000000000000000000000001428000000000003000000000000000   060319078          00000000000000                                                                  000115
1020874591800017100000090345100240370REGTIT24411902067446     000000000000598122060000000000000000000000000906010319190206744600000000000059812206280219000000001598003303417  000000000000000000000000000000000000000000000000000000000000000000000000000000000000001632300000000003430000000000000   060319078          00000000000000                                                                  000116
1020874591800017100000090345100240370REGTIT24411902067520     000000000000598125320000000000000000000000000906010319190206752000000000000059812532280219000000001598034109926  000000000000000000000000000000000000000000000000000000000000000000000000000000000000001632300000000003430000000000000   060319078          00000000000000                                                                  000117
1020874591800017100000090345100240370REGTIT24411902067557     000000000000598126480000000000000000000000000906010319190206755700000000000059812648280219000000001098034101517  000000000000000000000000000000000000000000000000000000000000000000000000000000000000001121500000000002350000000000000   060319078          00000000000000                                                                  000118
1020874591800017100000090345100240370REGTIT24411902067570     000000000000598127450000000000000000000000000906010319190206757000000000000059812745280219000000001598004100410  000000000000000000000000000000000000000000000000000000000000000000000000000000000000001632300000000003430000000000000   060319078          00000000000000                                                                  000119
1020874591800017100000090345100240370REGTIT24411902067729     000000000000598132880000000000000000000000000906010319190206772900000000000059813288280219000000001199023702125  000000000000000000000000000000000000000000000000000000000000000000000000000000000000001224700000000002570000000000000   060319035          00000000000000                                                                  000120
1020874591800017100000090345100240370REGTIT24411902067768     000000000000598134150000000000000000000000000906010319190206776800000000000059813415280219000000001371010400385  000000000000000000000000000000000000000000000000000000000000000000000000000000000000001400500000000002950000000000000   060319078          00000000000000                                                                  000121
1020874591800017100000090345100240370REGTIT24411902067783     000000000000598134740000000000000000000000000906010319190206778300000000000059813474280219000000001313023706453  000000000000000000000000000000000000000000000000000000000000000000000000000000000000001341200000000002820000000000000   060319035          00000000000000                                                                  000122
1020874591800017100000090345100240370REGTIT24411902067883     000000000000598137090000000000000000000000000906010319190206788300000000000059813709280219000000001275510403379  000000000000000000000000000000000000000000000000000000000000000000000000000000000000001302900000000002740000000000000   060319078          00000000000000                                                                  000123
1020874591800017100000090345100240370REGTIT24411902068081     000000000000598142760000000000000000000000000906010319190206808100000000000059814276280219000000001472510403118  000000000000000000000000000000000000000000000000000000000000000000000000000000000000001504100000000003160000000000000   060319078          00000000000000                                                                  000124
1020874591800017100000090345100240370REGTIT24411902068177     000000000000598145510000000000000000000000000906010319190206817700000000000059814551280219000000001198034103836  000000000000000000000000000000000000000000000000000000000000000000000000000000000000001223700000000002570000000000000   060319078          00000000000000                                                                  000125
1020874591800017100000090345100240370REGTIT24411902068248     000000000000598147990000000000000000000000000906010319190206824800000000000059814799280219000000000894003302102  000000000000000000000000000000000000000000000000000000000000000000000000000000000000000913100000000001910000000000000   060319078          00000000000000                                                                  000126
1020874591800017100000090345100240370REGTIT24411902068279     000000000000598149180000000000000000000000000906010319190206827900000000000059814918280219000000001448074807374  000000000000000000000000000000000000000000000000000000000000000000000000000000000000001479100000000003110000000000000   060319078          00000000000000                                                                  000127
1020874591800017100000090345100240370REGTIT24411902068378     000000000000598152800000000000000000000000000906010319190206837800000000000059815280280219000000001448023702366  000000000000000000000000000000000000000000000000000000000000000000000000000000000000001479100000000003110000000000000   060319082          00000000000000                                                                  000128
1020874591800017100000090345100240370REGTIT24411902068508     000000000000598156200000000000000000000000000906010319190206850800000000000059815620280219000000000799003302102  000000000000000000000000000000000000000000000000000000000000000000000000000000000000000816100000000001710000000000000   060319078          00000000000000                                                                  000129
1020874591800017100000090345100240370REGTIT24411902068681     000000000000598161980000000000000000000000000906010319190206868100000000000059816198280219000000001448034100566  000000000000000000000000000000000000000000000000000000000000000000000000000000000000001479100000000003110000000000000   060319078          00000000000000                                                                  000130
1020874591800017100000090345100240370REGTIT24411902068964     000000000000598170030000000000000000000000000906010319190206896400000000000059817003280219000000001328003300810  000000000000000000000000000000000000000000000000000000000000000000000000000000000000001356500000000002850000000000000   060319078          00000000000000                                                                  000131
1020874591800017100000090345100240370REGTIT24411902069161     0000000000005981764P000000000000000000000000090601031919020691610000000000005981764P280219000000001448034106242  000000000000000000000000000000000000000000000000000000000000000000000000000000000000001479100000000003110000000000000   060319078          00000000000000                                                                  000132
1020874591800017100000090345100240370REGTIT24411902069173     000000000000598176900000000000000000000000000906010319190206917300000000000059817690280219000000001149023703286  000000000000000000000000000000000000000000000000000000000000000000000000000000000000001173600000000002460000000000000   060319035          00000000000000                                                                  000133
1020874591800017100000090345100240370REGTIT24411902069187     000000000000598177470000000000000000000000000906010319190206918700000000000059817747280219000000001448003300975  000000000000000000000000000000000000000000000000000000000000000000000000000000000000001479100000000003110000000000000   060319078          00000000000000                                                                  000134
1020874591800017100000090345100240370REGTIT24411902069406     000000000000598183790000000000000000000000000906010319190206940600000000000059818379280219000000001348010401971  000000000000000000000000000000000000000000000000000000000000000000000000000000000000001376900000000002890000000000000   060319078          00000000000000                                                                  000135
1020874591800017100000090345100240370REGTIT24411902069469     000000000000598185490000000000000000000000000906010319190206946900000000000059818549280219000000001252963300001  000000000000000000000000000000000000000000000000000000000000000000000000000000000000001252900000000000000000000000000   060319078          00000000000000                                                                  000136
1020874591800017100000090345100240370REGTIT24411902069588     000000000000598189640000000000000000000000000906010319190206958800000000000059818964280219000000001900534101325  000000000000000000000000000000000000000000000000000000000000000000000000000000000000001941400000000004090000000000000   060319078          00000000000000                                                                  000137
1020874591800017100000090345100240370REGTIT24411902069711     000000000000598193910000000000000000000000000906010319190206971100000000000059819391280219000000001348010403509  000000000000000000000000000000000000000000000000000000000000000000000000000000000000001376900000000002890000000000000   060319078          00000000000000                                                                  000138
1020874591800017100000090345100240370REGTIT24411902069732     000000000000598195020000000000000000000000000906010319190206973200000000000059819502280219000000001348000103530  000000000000000000000000000000000000000000000000000000000000000000000000000000000000001376900000000002890000000000000   060319078          00000000000000                                                                  000139
1020874591800017100000090345100240370REGTIT24411902069749     000000000000598195530000000000000000000000000906010319190206974900000000000059819553280219000000001198023702604  000000000000000000000000000000000000000000000000000000000000000000000000000000000000001223700000000002570000000000000   060319035          00000000000000                                                                  000140
1020874591800017100000090345100240370REGTIT24411902069919     000000000000598201520000000000000000000000000906010319190206991900000000000059820152280219000000001158034109926  000000000000000000000000000000000000000000000000000000000000000000000000000000000000001182800000000002480000000000000   060319078          00000000000000                                                                  000141
1020874591800017100000090345100240370REGTIT24411902069938     000000000000598202170000000000000000000000000906010319190206993800000000000059820217280219000000003879023700689  000000000000000000000000000000000000000000000000000000000000000000000000000000000000003962300000000008330000000000000   060319035          00000000000000                                                                  000142
1020874591800017100000090345100240370REGTIT24411902070068     000000000000598207130000000000000000000000000906010319190207006800000000000059820713280219000000000998010400887  000000000000000000000000000000000000000000000000000000000000000000000000000000000000001019400000000002140000000000000   060319078          00000000000000                                                                  000143
1020874591800017100000090345100240370REGTIT24411902070070     0000000000005982073P000000000000000000000000090601031919020700700000000000005982073P280219000000000998010400887  000000000000000000000000000000000000000000000000000000000000000000000000000000000000001019400000000002140000000000000   060319078          00000000000000                                                                  000144
1020874591800017100000090345100240370REGTIT24411902070233     000000000000598213880000000000000000000000000906010319190207023300000000000059821388280219000000001063110402122  000000000000000000000000000000000000000000000000000000000000000000000000000000000000001085900000000002280000000000000   060319078          00000000000000                                                                  000145
1020874591800017100000090345100240370REGTIT24411902070286     000000000000598215740000000000000000000000000906010319190207028600000000000059821574280219000000001622900100299  000000000000000000000000000000000000000000000000000000000000000000000000000000000000001657700000000003480000000000000   060319078          00000000000000                                                                  000146
1020874591800017100000090345100240370REGTIT24411902070319     000000000000598217280000000000000000000000000906010319190207031900000000000059821728280219000000001249023705908  000000000000000000000000000000000000000000000000000000000000000000000000000000000000001275800000000002680000000000000   060319074          00000000000000                                                                  000147
1020874591800017100000090345100240370REGTIT24411902070403     000000000000598220230000000000000000000000000906010319190207040300000000000059822023280219000000001035874807374  000000000000000000000000000000000000000000000000000000000000000000000000000000000000001058100000000002230000000000000   060319078          00000000000000                                                                  000148
1020874591800017100000090345100240370REGTIT24411902070416     000000000000598220900000000000000000000000000906010319190207041600000000000059822090280219000000000649710400370  000000000000000000000000000000000000000000000000000000000000000000000000000000000000000663600000000001390000000000000   060319078          00000000000000                                                                  000149
1020874591800017100000090345100240370REGTIT24411902070423     000000000000598221390000000000000000000000000906010319190207042300000000000059822139280219000000001348010403509  000000000000000000000000000000000000000000000000000000000000000000000000000000000000001376900000000002890000000000000   060319078          00000000000000                                                                  000150
1020874591800017100000090345100240370REGTIT24411902070469     000000000000598222870000000000000000000000000906010319190207046900000000000059822287280219000000001781910400377  000000000000000000000000000000000000000000000000000000000000000000000000000000000000001820200000000003830000000000000   060319078          00000000000000                                                                  000151
1020874591800017100000090345100240370REGTIT24411902070504     000000000000598224140000000000000000000000000906010319190207050400000000000059822414280219000000000754023700027  000000000000000000000000000000000000000000000000000000000000000000000000000000000000000770100000000001610000000000000   060319074          00000000000000                                                                  000152
1020874591800017100000090345100240370REGTIT24411902070525     000000000000598225030000000000000000000000000906010319190207052500000000000059822503280219000000001348010401628  000000000000000000000000000000000000000000000000000000000000000000000000000000000000001376900000000002890000000000000   060319078          00000000000000                                                                  000153
1020874591800017100000090345100240370REGTIT24411902070628     000000000000598230030000000000000000000000000906010319190207062800000000000059823003280219000000001022434105520  000000000000000000000000000000000000000000000000000000000000000000000000000000000000001044300000000002190000000000000   060319078          00000000000000                                                                  000154
1020874591800017100000090345100240370REGTIT24411902070640     000000000000598230970000000000000000000000000906010319190207064000000000000059823097280219000000001348034100256  000000000000000000000000000000000000000000000000000000000000000000000000000000000000001376900000000002890000000000000   060319078          00000000000000                                                                  000155
1020874591800017100000090345100240370REGTIT24411902070761     000000000000598235340000000000000000000000000906010319190207076100000000000059823534280219000000000998023705840  000000000000000000000000000000000000000000000000000000000000000000000000000000000000001019400000000002140000000000000   060319035          00000000000000                                                                  000156
1020874591800017100000090345100240370REGTIT24411902070784     0000000000005982364P000000000000000000000000090601031919020707840000000000005982364P280219000000001348003300800  000000000000000000000000000000000000000000000000000000000000000000000000000000000000001376900000000002890000000000000   060319078          00000000000000                                                                  000157
1020874591800017100000090345100240370REGTIT24411902070807     000000000000598237710000000000000000000000000906010319190207080700000000000059823771280219000000000998023705717  000000000000000000000000000000000000000000000000000000000000000000000000000000000000001019400000000002140000000000000   060319035          00000000000000                                                                  000158
1020874591800017100000090345100240370REGTIT24411902070832     000000000000598239250000000000000000000000000906010319190207083200000000000059823925280219000000001255003300823  000000000000000000000000000000000000000000000000000000000000000000000000000000000000001282000000000002700000000000000   060319078          00000000000000                                                                  000159
1020874591800017100000090345100240370REGTIT24411902070856     000000000000598240180000000000000000000000000906010319190207085600000000000059824018280219000000001375023703158  000000000000000000000000000000000000000000000000000000000000000000000000000000000000001404600000000002960000000000000   060319082          00000000000000                                                                  000160
1020874591800017100000090345100240370REGTIT24411902070863     000000000000598240500000000000000000000000000906010319190207086300000000000059824050280219000000001348023706535  000000000000000000000000000000000000000000000000000000000000000000000000000000000000001376900000000002890000000000000   060319035          00000000000000                                                                  000161
1020874591800017100000090345100240370REGTIT24411902070865     000000000000598240770000000000000000000000000906010319190207086500000000000059824077280219000000001099010401632  000000000000000000000000000000000000000000000000000000000000000000000000000000000000001122500000000002350000000000000   060319078          00000000000000                                                                  000162
1020874591800017100000090345100240370REGTIT24411902070888     0000000000005982414P000000000000000000000000090601031919020708880000000000005982414P280219000000002040023701616  000000000000000000000000000000000000000000000000000000000000000000000000000000000000002083900000000004390000000000000   060319035          00000000000000                                                                  000163
1020874591800017100000090345100240370REGTIT24411902070974     000000000000598245730000000000000000000000000906010319190207097400000000000059824573280219000000001348000104297  000000000000000000000000000000000000000000000000000000000000000000000000000000000000001376900000000002890000000000000   060319078          00000000000000                                                                  000164
1020874591800017100000090345100240370REGTIT24411902071026     000000000000598248830000000000000000000000000906010319190207102600000000000059824883280219000000000949063300001  000000000000000000000000000000000000000000000000000000000000000000000000000000000000000969300000000002030000000000000   060319078          00000000000000                                                                  000165
1020874591800017100000090345100240370REGTIT24411902071047     000000000000598249990000000000000000000000000906010319190207104700000000000059824999280219000000001149000105712  000000000000000000000000000000000000000000000000000000000000000000000000000000000000001173600000000002460000000000000   060319078          00000000000000                                                                  000166
1020874591800017100000090345100240370REGTIT24411902071050     000000000000598250140000000000000000000000000906010319190207105000000000000059825014280219000000001149003302102  000000000000000000000000000000000000000000000000000000000000000000000000000000000000001173600000000002460000000000000   060319078          00000000000000                                                                  000167
1020874591800017100000090345100240370REGTIT24411902071060     000000000000598250730000000000000000000000000906010319190207106000000000000059825073280219000000001547063300001  000000000000000000000000000000000000000000000000000000000000000000000000000000000000001580200000000003320000000000000   060319078          00000000000000                                                                  000168
1020874591800017100000090345100240370REGTIT24411902071088     000000000000598252190000000000000000000000000906010319190207108800000000000059825219280219000000001334710403510  000000000000000000000000000000000000000000000000000000000000000000000000000000000000001363300000000002860000000000000   060319078          00000000000000                                                                  000169
1020874591800017100000090345100240370REGTIT24411902071095     000000000000598252430000000000000000000000000906010319190207109500000000000059825243280219000000000998010402997  000000000000000000000000000000000000000000000000000000000000000000000000000000000000001019400000000002140000000000000   060319078          00000000000000                                                                  000170
1020874591800017100000090345100240370REGTIT24411902071218     000000000000598258550000000000000000000000000906010319190207121800000000000059825855280219000000000998034107501  000000000000000000000000000000000000000000000000000000000000000000000000000000000000001019400000000002140000000000000   060319078          00000000000000                                                                  000171
1020874591800017100000090345100240370REGTIT24411902071233     000000000000598259360000000000000000000000000906010319190207123300000000000059825936280219000000000998010400389  000000000000000000000000000000000000000000000000000000000000000000000000000000000000001019400000000002140000000000000   060319078          00000000000000                                                                  000172
1020874591800017100000090345100240370REGTIT24411902071253     0000000000005982610P000000000000000000000000090601031919020712530000000000005982610P280219000000000998023702810  000000000000000000000000000000000000000000000000000000000000000000000000000000000000001019400000000002140000000000000   060319035          00000000000000                                                                  000173
1020874591800017100000090345100240370REGTIT24411902071292     000000000000598263630000000000000000000000000906010319190207129200000000000059826363280219000000000998000100764  000000000000000000000000000000000000000000000000000000000000000000000000000000000000000998000000000000000000000000000   060319078          00000000000000                                                                  000174
1020874591800017100000090345100240370REGTIT24411902071299     000000000000598264280000000000000000000000000906010319190207129900000000000059826428280219000000000799034109299  000000000000000000000000000000000000000000000000000000000000000000000000000000000000000816100000000001710000000000000   060319078          00000000000000                                                                  000175
1020874591800017100000090345100240370REGTIT24411902071338     000000000000598267110000000000000000000000000906010319190207133800000000000059826711280219000000000750023706151  000000000000000000000000000000000000000000000000000000000000000000000000000000000000000766100000000001610000000000000   060319082          00000000000000                                                                  000176
1020874591800017100000090345100240370REGTIT24411902071356     000000000000598268430000000000000000000000000906010319190207135600000000000059826843280219000000000899034105650  000000000000000000000000000000000000000000000000000000000000000000000000000000000000000918200000000001920000000000000   060319078          00000000000000                                                                  000177
1020874591800017100000090345100240370REGTIT24411902071468     000000000000598275210000000000000000000000000906010319190207146800000000000059827521280219000000000998023702193  000000000000000000000000000000000000000000000000000000000000000000000000000000000000001019400000000002140000000000000   060319014          00000000000000                                                                  000178
1020874591800017100000090345100240370REGTIT24411902071585     000000000000598282690000000000000000000000000906010319190207158500000000000059828269280219000000000799010401952  000000000000000000000000000000000000000000000000000000000000000000000000000000000000000816100000000001710000000000000   060319078          00000000000000                                                                  000179
1020874591800017100000090345100240370REGTIT24411902071594     000000000000598283230000000000000000000000000906010319190207159400000000000059828323280219000000000599003300808  000000000000000000000000000000000000000000000000000000000000000000000000000000000000000611800000000001280000000000000   060319078          00000000000000                                                                  000180
1020874591800017100000090345100240370REGTIT24411902071600     000000000000598283580000000000000000000000000906010319190207160000000000000059828358280219000000001067034104522  000000000000000000000000000000000000000000000000000000000000000000000000000000000000001089900000000002290000000000000   060319078          00000000000000                                                                  000181
1020874591800017100000090345100240370REGTIT24411902071680     000000000000598288890000000000000000000000000906010319190207168000000000000059828889280219000000000799003301258  000000000000000000000000000000000000000000000000000000000000000000000000000000000000000816100000000001710000000000000   060319078          00000000000000                                                                  000182
1020874591800017100000090345100240370REGTIT24411902071695     000000000000598289940000000000000000000000000906010319190207169500000000000059828994280219000000000998023703285  000000000000000000000000000000000000000000000000000000000000000000000000000000000000001019400000000002140000000000000   060319066          00000000000000                                                                  000183
1020874591800017100000090345100240370REGTIT24411902071744     000000000000598293110000000000000000000000000906010319190207174400000000000059829311280219000000000998010402155  000000000000000000000000000000000000000000000000000000000000000000000000000000000000001019400000000002140000000000000   060319078          00000000000000                                                                  000184
1020874591800017100000090345100240370REGTIT24411902071752     000000000000598293620000000000000000000000000906010319190207175200000000000059829362280219000000000998004100831  000000000000000000000000000000000000000000000000000000000000000000000000000000000000001019400000000002140000000000000   060319078          00000000000000                                                                  000185
1020874591800017100000090345100240370REGTIT24411902071765     000000000000598294780000000000000000000000000906010319190207176500000000000059829478280219000000000998010403866  000000000000000000000000000000000000000000000000000000000000000000000000000000000000001019400000000002140000000000000   060319078          00000000000000                                                                  000186
1020874591800017100000090345100240370REGTIT24411902071766     000000000000598294860000000000000000000000000906010319190207176600000000000059829486280219000000000998075604368  000000000000000000000000000000000000000000000000000000000000000000000000000000000000001019400000000002140000000000000   060319078          00000000000000                                                                  000187
1020874591800017100000090345100240370REGTIT24411902071784     000000000000598295830000000000000000000000000906010319190207178400000000000059829583280219000000000998010400369  000000000000000000000000000000000000000000000000000000000000000000000000000000000000001019400000000002140000000000000   060319078          00000000000000                                                                  000188
1020874591800017100000090345100240370REGTIT24411902071799     000000000000598296720000000000000000000000000906010319190207179900000000000059829672280219000000000899023705840  000000000000000000000000000000000000000000000000000000000000000000000000000000000000000918200000000001920000000000000   060319035          00000000000000                                                                  000189
1020874591800017100000090345100240370REGTIT24411902071800     000000000000598296800000000000000000000000000906010319190207180000000000000059829680280219000000000899023705840  000000000000000000000000000000000000000000000000000000000000000000000000000000000000000918200000000001920000000000000   060319035          00000000000000                                                                  000190
1020874591800017100000090345100240370REGTIT24411902071839     000000000000598299230000000000000000000000000906010319190207183900000000000059829923280219000000000650010401952  000000000000000000000000000000000000000000000000000000000000000000000000000000000000000664000000000001400000000000000   060319078          00000000000000                                                                  000191
1020874591800017100000090345100240370REGTIT24411902071859     000000000000598300500000000000000000000000000906010319190207185900000000000059830050280219000000000799010403915  000000000000000000000000000000000000000000000000000000000000000000000000000000000000000816100000000001710000000000000   060319078          00000000000000                                                                  000192
1020874591800017100000090345100240370REGTIT24411902071860     000000000000598300690000000000000000000000000906010319190207186000000000000059830069280219000000000998010401266  000000000000000000000000000000000000000000000000000000000000000000000000000000000000001019400000000002140000000000000   060319078          00000000000000                                                                  000193
1020874591800017100000090345100240370REGTIT24411902071886     0000000000005983028P000000000000000000000000090601031919020718860000000000005983028P280219000000000799003303415  000000000000000000000000000000000000000000000000000000000000000000000000000000000000000816100000000001710000000000000   060319078          00000000000000                                                                  000194
1020874591800017100000090345100240370REGTIT24411902071893     000000000000598303280000000000000000000000000906010319190207189300000000000059830328280219000000000903034102775  000000000000000000000000000000000000000000000000000000000000000000000000000000000000000922400000000001940000000000000   060319078          00000000000000                                                                  000195
1020874591800017100000090345100240370REGTIT24411902071896     000000000000598303520000000000000000000000000906010319190207189600000000000059830352280219000000000998034100932  000000000000000000000000000000000000000000000000000000000000000000000000000000000000001019400000000002140000000000000   060319078          00000000000000                                                                  000196
1020874591800017100000090345100240370REGTIT24411902071923     000000000000598305730000000000000000000000000906010319190207192300000000000059830573280219000000000998023700780  000000000000000000000000000000000000000000000000000000000000000000000000000000000000001019400000000002140000000000000   060319035          00000000000000                                                                  000197
1020874591800017100000090345100240370REGTIT24411902071936     000000000000598306700000000000000000000000000906010319190207193600000000000059830670280219000000000998034102924  000000000000000000000000000000000000000000000000000000000000000000000000000000000000001019400000000002140000000000000   060319078          00000000000000                                                                  000198
1020874591800017100000090345100240370REGTIT24411902071966     000000000000598308750000000000000000000000000906010319190207196600000000000059830875280219000000000998023705750  000000000000000000000000000000000000000000000000000000000000000000000000000000000000001019400000000002140000000000000   060319035          00000000000000                                                                  000199
1020874591800017100000090345100240370REGTIT24411902071970     000000000000598309130000000000000000000000000906010319190207197000000000000059830913280219000000000998003300800  000000000000000000000000000000000000000000000000000000000000000000000000000000000000001019400000000002140000000000000   060319078          00000000000000                                                                  000200
1020874591800017100000090345100240370REGTIT24411902072010     000000000000598312350000000000000000000000000906010319190207201000000000000059831235280219000000000998003300800  000000000000000000000000000000000000000000000000000000000000000000000000000000000000001019400000000002140000000000000   060319078          00000000000000                                                                  000201
1020874591800017100000090345100240370REGTIT24411902072012     000000000000598312510000000000000000000000000906010319190207201200000000000059831251280219000000000799034107764  000000000000000000000000000000000000000000000000000000000000000000000000000000000000000816100000000001710000000000000   060319078          00000000000000                                                                  000202
1020874591800017100000090345100240370REGTIT24411902072023     000000000000598313400000000000000000000000000906010319190207202300000000000059831340280219000000000998003301220  000000000000000000000000000000000000000000000000000000000000000000000000000000000000001019400000000002140000000000000   060319078          00000000000000                                                                  000203
1020874591800017100000090345100240370REGTIT24411902072131     000000000000598320610000000000000000000000000906010319190207213100000000000059832061280219000000000998023702394  000000000000000000000000000000000000000000000000000000000000000000000000000000000000001019400000000002140000000000000   060319066          00000000000000                                                                  000204
1020874591800017100000090345100240370REGTIT24411902072134     000000000000598320960000000000000000000000000906010319190207213400000000000059832096280219000000000998023701219  000000000000000000000000000000000000000000000000000000000000000000000000000000000000001019400000000002140000000000000   060319035          00000000000000                                                                  000205
1020874591800017100000090345100240370REGTIT24411902072136     0000000000005983210P000000000000000000000000090601031919020721360000000000005983210P280219000000000998034105650  000000000000000000000000000000000000000000000000000000000000000000000000000000000000001019400000000002140000000000000   060319078          00000000000000                                                                  000206
1020874591800017100000090345100240370REGTIT24411902072187     000000000000598324950000000000000000000000000906010319190207218700000000000059832495280219000000000998003301548  000000000000000000000000000000000000000000000000000000000000000000000000000000000000001019400000000002140000000000000   060319078          00000000000000                                                                  000207
1020874591800017100000090345100240370REGTIT24411902072207     000000000000598326490000000000000000000000000906010319190207220700000000000059832649280219000000000998003301012  000000000000000000000000000000000000000000000000000000000000000000000000000000000000001019400000000002140000000000000   060319078          00000000000000                                                                  000208
1020874591800017100000090345100240370REGTIT24411902072216     000000000000598327030000000000000000000000000906010319190207221600000000000059832703280219000000000799003300813  000000000000000000000000000000000000000000000000000000000000000000000000000000000000000816100000000001710000000000000   060319078          00000000000000                                                                  000209
1020874591800017100000090345100240370REGTIT24411902072257     000000000000598329750000000000000000000000000906010319190207225700000000000059832975280219000000000998034104522  000000000000000000000000000000000000000000000000000000000000000000000000000000000000001019400000000002140000000000000   060319078          00000000000000                                                                  000210
1020874591800017100000090345100240370REGTIT24411902072264     000000000000598329910000000000000000000000000906010319190207226400000000000059832991280219000000000699034108425  000000000000000000000000000000000000000000000000000000000000000000000000000000000000000713900000000001490000000000000   060319078          00000000000000                                                                  000211
1020874591800017100000090345100240370REGTIT24411902072280     000000000000598331140000000000000000000000000906010319190207228000000000000059833114280219000000000799023701345  000000000000000000000000000000000000000000000000000000000000000000000000000000000000000816100000000001710000000000000   060319035          00000000000000                                                                  000212
1020874591800017100000090345100240370REGTIT24411902072305     000000000000598333510000000000000000000000000906010319190207230500000000000059833351280219000000001010503302256  000000000000000000000000000000000000000000000000000000000000000000000000000000000000001032200000000002170000000000000   060319078          00000000000000                                                                  000213
1020874591800017100000090345100240370REGTIT24411902072357     000000000000598337500000000000000000000000000906010319190207235700000000000059833750280219000000000998023701219  000000000000000000000000000000000000000000000000000000000000000000000000000000000000001019400000000002140000000000000   060319035          00000000000000                                                                  000214
1020874591800017100000090345100240370REGTIT24411902072358     000000000000598337690000000000000000000000000906010319190207235800000000000059833769280219000000001197074808130  000000000000000000000000000000000000000000000000000000000000000000000000000000000000001222700000000002570000000000000   060319078          00000000000000                                                                  000215
1020874591800017100000090345100240370REGTIT24411902072366     000000000000598338150000000000000000000000000906010319190207236600000000000059833815280219000000000998000105712  000000000000000000000000000000000000000000000000000000000000000000000000000000000000001019400000000002140000000000000   060319078          00000000000000                                                                  000216
1020874591800017100000090345100240370REGTIT24411902072387     0000000000005983398P000000000000000000000000090601031919020723870000000000005983398P280219000000000998010400377  000000000000000000000000000000000000000000000000000000000000000000000000000000000000001019400000000002140000000000000   060319078          00000000000000                                                                  000217
1020874591800017100000090345100240370REGTIT24411902072395     000000000000598340560000000000000000000000000906010319190207239500000000000059834056280219000000001022510400403  000000000000000000000000000000000000000000000000000000000000000000000000000000000000001044400000000002190000000000000   060319078          00000000000000                                                                  000218
1020874591800017100000090345100240370REGTIT24411902072502     0000000000005983482P000000000000000000000000090601031919020725020000000000005983482P280219000000000998023703287  000000000000000000000000000000000000000000000000000000000000000000000000000000000000001019400000000002140000000000000   060319066          00000000000000                                                                  000219
1020874591800017100000090345100240370REGTIT24411902072521     000000000000598349940000000000000000000000000906010319190207252100000000000059834994280219000000000998034109926  000000000000000000000000000000000000000000000000000000000000000000000000000000000000001019400000000002140000000000000   060319078          00000000000000                                                                  000220
1020874591800017100000090345100240370REGTIT24411902072529     000000000000598350790000000000000000000000000906010319190207252900000000000059835079280219000000000811500101443  000000000000000000000000000000000000000000000000000000000000000000000000000000000000000828900000000001740000000000000   060319078          00000000000000                                                                  000221
1020874591800017100000090345100240370REGTIT24411902072549     000000000000598352220000000000000000000000000906010319190207254900000000000059835222280219000000000998034104081  000000000000000000000000000000000000000000000000000000000000000000000000000000000000001019400000000002140000000000000   060319078          00000000000000                                                                  000222
1020874591800017100000090345100240370REGTIT24411902072606     000000000000598356560000000000000000000000000906010319190207260600000000000059835656280219000000000799023701952  000000000000000000000000000000000000000000000000000000000000000000000000000000000000000816100000000001710000000000000   060319035          00000000000000                                                                  000223
1020874591800017100000090345100240370REGTIT24411902072616     000000000000598357370000000000000000000000000906010319190207261600000000000059835737280219000000000998007700001  000000000000000000000000000000000000000000000000000000000000000000000000000000000000001019400000000002140000000000000   060319078          00000000000000                                                                  000224
1020874591800017100000090345100240370REGTIT24411902072640     0000000000005983594P000000000000000000000000090601031919020726400000000000005983594P280219000000000998003301552  000000000000000000000000000000000000000000000000000000000000000000000000000000000000001019400000000002140000000000000   060319078          00000000000000                                                                  000225
1020874591800017100000090345100240370REGTIT24411902072694     0000000000005983644P000000000000000000000000090601031919020726940000000000005983644P280219000000000998023705751  000000000000000000000000000000000000000000000000000000000000000000000000000000000000001019400000000002140000000000000   060319066          00000000000000                                                                  000226
1020874591800017100000090345100240370REGTIT24411902072728     000000000000598367250000000000000000000000000906010319190207272800000000000059836725280219000000000799010402997  000000000000000000000000000000000000000000000000000000000000000000000000000000000000000816100000000001710000000000000   060319078          00000000000000                                                                  000227
1020874591800017100000090345100240370REGTIT24411902072739     000000000000598368300000000000000000000000000906010319190207273900000000000059836830280219000000000998023706376  000000000000000000000000000000000000000000000000000000000000000000000000000000000000001019400000000002140000000000000   060319082          00000000000000                                                                  000228
1020874591800017100000090345100240370REGTIT24411902072759     000000000000598369890000000000000000000000000906010319190207275900000000000059836989280219000000000799034100942  000000000000000000000000000000000000000000000000000000000000000000000000000000000000000816100000000001710000000000000   060319078          00000000000000                                                                  000229
1020874591800017100000090345100240370REGTIT24411902072762     000000000000598370120000000000000000000000000906010319190207276200000000000059837012280219000000000998003302190  000000000000000000000000000000000000000000000000000000000000000000000000000000000000001019400000000002140000000000000   060319078          00000000000000                                                                  000230
1020874591800017100000090345100240370REGTIT24411902072808     0000000000005983742P000000000000000000000000090601031919020728080000000000005983742P280219000000001066934107378  000000000000000000000000000000000000000000000000000000000000000000000000000000000000001089800000000002290000000000000   060319078          00000000000000                                                                  000231
1020874591800017100000090345100240370REGTIT24411902072887     000000000000598381750000000000000000000000000906010319190207288700000000000059838175280219000000000799075600210  000000000000000000000000000000000000000000000000000000000000000000000000000000000000000816100000000001710000000000000   060319078          00000000000000                                                                  000232
1020874591800017100000090345100240370REGTIT24411902072897     000000000000598382560000000000000000000000000906010319190207289700000000000059838256280219000000000998010402204  000000000000000000000000000000000000000000000000000000000000000000000000000000000000001019400000000002140000000000000   060319078          00000000000000                                                                  000233
1020874591800017100000090345100240370REGTIT24411902072905     000000000000598383370000000000000000000000000906010319190207290500000000000059838337280219000000000898010402863  000000000000000000000000000000000000000000000000000000000000000000000000000000000000000917200000000001920000000000000   060319078          00000000000000                                                                  000234
1020874591800017100000090345100240370REGTIT24411902072911     000000000000598383880000000000000000000000000906010319190207291100000000000059838388280219000000000998034105954  000000000000000000000000000000000000000000000000000000000000000000000000000000000000001019400000000002140000000000000   060319078          00000000000000                                                                  000235
1020874591800017100000090345100240370REGTIT24411902072932     000000000000598385820000000000000000000000000906010319190207293200000000000059838582280219000000000867910402975  000000000000000000000000000000000000000000000000000000000000000000000000000000000000000886500000000001860000000000000   060319078          00000000000000                                                                  000236
1020874591800017100000090345100240370REGTIT24411902072939     000000000000598386470000000000000000000000000906010319190207293900000000000059838647280219000000000998075604340  000000000000000000000000000000000000000000000000000000000000000000000000000000000000001019400000000002140000000000000   060319078          00000000000000                                                                  000237
1020874591800017100000090345100240370REGTIT24411902072944     000000000000598386980000000000000000000000000906010319190207294400000000000059838698280219000000002888023702069  000000000000000000000000000000000000000000000000000000000000000000000000000000000000002950000000000006200000000000000   060319035          00000000000000                                                                  000238
1020874591800017100000090345100240370REGTIT24411902072965     000000000000598389060000000000000000000000000906010319190207296500000000000059838906280219000000000998023706706  000000000000000000000000000000000000000000000000000000000000000000000000000000000000001019400000000002140000000000000   060319074          00000000000000                                                                  000239
1020874591800017100000090345100240370REGTIT24411902072979     000000000000598390310000000000000000000000000906010319190207297900000000000059839031280219000000000998010404538  000000000000000000000000000000000000000000000000000000000000000000000000000000000000001019400000000002140000000000000   060319078          00000000000000                                                                  000240
1020874591800017100000090345100240370REGTIT24411902073021     000000000000598394300000000000000000000000000906010319190207302100000000000059839430280219000000000998034107501  000000000000000000000000000000000000000000000000000000000000000000000000000041000000000993900000000000000000000000000   060319078          00000000000000                                                                  000241
1020874591800017100000090345100240370REGTIT24411902073038     000000000000598395700000000000000000000000000906010319190207303800000000000059839570280219000000000998034107378  000000000000000000000000000000000000000000000000000000000000000000000000000000000000001019400000000002140000000000000   060319078          00000000000000                                                                  000242
1020874591800017100000090345100240370REGTIT24411902073041     000000000000598396000000000000000000000000000906010319190207304100000000000059839600280219000000000750910402997  000000000000000000000000000000000000000000000000000000000000000000000000000000000000000767000000000001610000000000000   060319078          00000000000000                                                                  000243
1020874591800017100000090345100240370REGTIT24411902073047     0000000000005983966P000000000000000000000000090601031919020730470000000000005983966P280219000000000998034100942  000000000000000000000000000000000000000000000000000000000000000000000000000000000000001019400000000002140000000000000   060319078          00000000000000                                                                  000244
1020874591800017100000090345100240370REGTIT24411902073050     000000000000598396940000000000000000000000000906010319190207305000000000000059839694280219000000000799023705840  000000000000000000000000000000000000000000000000000000000000000000000000000000000000000816100000000001710000000000000   060319074          00000000000000                                                                  000245
1020874591800017100000090345100240370REGTIT24411902073061     000000000000598398050000000000000000000000000906010319190207306100000000000059839805280219000000000998010402997  000000000000000000000000000000000000000000000000000000000000000000000000000000000000001019400000000002140000000000000   060319078          00000000000000                                                                  000246
1020874591800017100000090345100240370REGTIT24411902073082     000000000000598399960000000000000000000000000906010319190207308200000000000059839996280219000000001204003303972  000000000000000000000000000000000000000000000000000000000000000000000000000000000000001229800000000002580000000000000   060319078          00000000000000                                                                  000247
1020874591800017100000090345100240370REGTIT24411902073091     000000000000598400800000000000000000000000000906010319190207309100000000000059840080280219000000000799023701952  000000000000000000000000000000000000000000000000000000000000000000000000000000000000000816100000000001710000000000000   060319082          00000000000000                                                                  000248
