02RETORNO01COBRANCA       00000000000004972103WC SISTEMAS E EQUIPAMENTOS DE 237BRADESCO       2802190160000000557                                                                                                                                                                                                                                                                          010319         000001
1020874591800017100000090345100240370REGTIT2570996953630872   000000009000598632190000000000000000000000000902280219996953630800000000900059863219280219000000002900023704426  000000000014300000000000000000000000000000000000000000000000000000000000000000000000000000000000000000000000000000000                          0000000000                                                                  000002
1020874591800017100000090345100240370REGTIT257099695365780    000000009000598632270000000000000000000000000902280219996953657800000000900059863227150319000000002900023704426  000000000014300000000000000000000000000000000000000000000000000000000000000000000000000000000000000000000000000000000                          0000000000                                                                  000003
1020874591800017100000090345100240370REGTIT2571997304454821   000000009000598633400000000000000000000000000902280219997304454800000000900059863340070319000000001500023704144  000000000014300000000000000000000000000000000000000000000000000000000000000000000000000000000000000000000000000000000                          0000000000                                                                  000004
1020874591800017100000090345100240370REGTIT2571996616943491   000000009000598633670000000000000000000000000902280219996616943400000000900059863367010319000000002700023704144  000000000014300000000000000000000000000000000000000000000000000000000000000000000000000000000000000000000000000000000                          7600000000                                                                  000005
1020874591800017100000090345100240370REGTIT2571997267481110   000000009000598633830000000000000000000000000902280219997267481100000000900059863383010319000000001500023704144  000000000014300000000000000000000000000000000000000000000000000000000000000000000000000000000000000000000000000000000                          0000000000                                                                  000006
1020874591800017100000090345100240370REGTIT2571997264323365   000000009000598633910000000000000000000000000902280219997264323300000000900059863391010319000000000998023704144  000000000014300000000000000000000000000000000000000000000000000000000000000000000000000000000000000000000000000000000                          7600000000                                                                  000007
1020874591800017100000090345100240370REGTIT2571997180165090   000000009000598634050000000000000000000000000902280219997180165000000000900059863405080319000000001800023704144  000000000014300000000000000000000000000000000000000000000000000000000000000000000000000000000000000000000000000000000                          0000000000                                                                  000008
1020874591800017100000090345100240370REGTIT2571997203839971   000000009000598634130000000000000000000000000902280219997203839900000000900059863413080319000000002397023704144  000000000014300000000000000000000000000000000000000000000000000000000000000000000000000000000000000000000000000000000                          0000000000                                                                  000009
1020874591800017100000090345100240370REGTIT2572996953630872   000000009000598632190000000000000000000000000903280219996953630800000000900059863219280219000000002900023704426  000000000000000000000000000000000000000000000000000000000000000000000000000000000000000000000000000000000000000000000                          6300000000                                                                  000010
1020874591800017100000090345100240370REGTIT257199695365780    000000009000598632270000000000000000000000000903280219996953657800000000900059863227150319000000002900023704426  000000000000000000000000000000000000000000000000000000000000000000000000000000000000000000000000000000000000000000000                          6300000000                                                                  000011
1020874591800017100000090345100240370REGTIT2572997304454821   000000009000598633400000000000000000000000000903280219997304454800000000900059863340070319000000001500023704144  000000000000000000000000000000000000000000000000000000000000000000000000000000000000000000000000000000000000000000000                          6300000000                                                                  000012
1020874591800017100000090345100240370REGTIT2573996616943491   000000009000598633670000000000000000000000000903280219996616943400000000900059863367010319000000002700023704144  000000000000000000000000000000000000000000000000000000000000000000000000000000000000000000000000000000000000000000000                          6300000000                                                                  000013
1020874591800017100000090345100240370REGTIT2572997267481110   000000009000598633830000000000000000000000000903280219997267481100000000900059863383010319000000001500023704144  000000000000000000000000000000000000000000000000000000000000000000000000000000000000000000000000000000000000000000000                          6300000000                                                                  000014
1020874591800017100000090345100240370REGTIT2573997264323365   000000009000598633910000000000000000000000000903280219997264323300000000900059863391010319000000000998023704144  000000000000000000000000000000000000000000000000000000000000000000000000000000000000000000000000000000000000000000000                          6300000000                                                                  000015
1020874591800017100000090345100240370REGTIT2572997180165090   000000009000598634050000000000000000000000000903280219997180165000000000900059863405080319000000001800023704144  000000000000000000000000000000000000000000000000000000000000000000000000000000000000000000000000000000000000000000000                          6300000000                                                                  000016
1020874591800017100000090345100240370REGTIT2573997203839971   000000009000598634130000000000000000000000000903280219997203839900000000900059863413080319000000002397023704144  000000000000000000000000000000000000000000000000000000000000000000000000000000000000000000000000000000000000000000000                          6300000000                                                                  000017
1020874591800017100000090345100240370REGTIT20751812064228     000000000000596179770000000000000000000000000906280219181206422800000000000059617977281218000000003112903304008  000000000000000000000000000000000000000000000000000000000000000000000000010234000000002089500000000000000000000000000   010319078          00000000000000                                                                  000018
1020874591800017100000090345100240370REGTIT20751812066510     000000000000596245070000000000000000000000000906280219181206651000000000000059624507281218000000003097000105878  000000000000000000000000000000000000000000000000000000000000000000000000000000000000003444100000000034710000000000000   010319078          00000000000000                                                                  000019
1020874591800017100000090345100240370REGTIT20751812070309     000000000000596389230000000000000000000000000906280219181207030900000000000059638923281218000000002397003302102  000000000000000000000000000000000000000000000000000000000000000000000000000000000000002668100000000027110000000000000   010319078          00000000000000                                                                  000020
1020874591800017100000090345100240370REGTIT20751812072307     000000000000596521950000000000000000000000000906280219181207230700000000000059652195281218000000001797023705724  000000000000000000000000000000000000000000000000000000000000000000000000000000000000002000300000000020330000000000000   010319066          00000000000000                                                                  000021
1020874591800017100000090345100240370REGTIT20751812072308     000000000000596522090000000000000000000000000906280219181207230800000000000059652209281218000000001797003300814  000000000000000000000000000000000000000000000000000000000000000000000000000000000000002000300000000020330000000000000   010319078          00000000000000                                                                  000022
1020874591800017100000090345100240370REGTIT20751812072564     000000000000596546000000000000000000000000000906280219181207256400000000000059654600281218000000000998003300812  000000000000000000000000000000000000000000000000000000000000000000000000000000000000001110900000000011290000000000000   010319078          00000000000000                                                                  000023
1020874591800017100000090345100240370REGTIT20751812072654     000000000000596554370000000000000000000000000906280219181207265400000000000059655437281218000000000998034109926  000000000000000000000000000000000000000000000000000000000000000000000000000000000000001110900000000011290000000000000   010319078          00000000000000                                                                  000024
1020874591800017100000090345100240370REGTIT22981901015252     000000000000597046160000000000000000000000000906280219190101525200000000000059704616300119000000002199034105865  000000000000000000000000000000000000000000000000000000000000000000000000000000000000002338600000000013960000000000000   010319078          00000000000000                                                                  000025
1020874591800017100000090345100240370REGTIT22981901067901     000000000000597258180000000000000000000000000906280219190106790100000000000059725818300119000000001598023702596  000000000000000000000000000000000000000000000000000000000000000000000000000000000000001699500000000010150000000000000   010319066          00000000000000                                                                  000026
1020874591800017100000090345100240370REGTIT22981901069421     0000000000005973065P000000000000000000000000090628021919010694210000000000005973065P300119000000001448010400371  000000000000000000000000000000000000000000000000000000000000000000000000000000000000001540700000000009270000000000000   010319078          00000000000000                                                                  000027
1020874591800017100000090345100240370REGTIT22981901070700     000000000000597357400000000000000000000000000906280219190107070000000000000059735740300119000000001150074807057  000000000000000000000000000000000000000000000000000000000000000000000000000000000000001222300000000007230000000000000   010319078          00000000000000                                                                  000028
1020874591800017100000090345100240370REGTIT22981901070724     000000000000597358640000000000000000000000000906280219190107072400000000000059735864300119000000001348003301258  000000000000000000000000000000000000000000000000000000000000000000000000000000000000001432900000000008490000000000000   010319078          00000000000000                                                                  000029
1020874591800017100000090345100240370REGTIT22981901070794     000000000000597361860000000000000000000000000906280219190107079400000000000059736186300119000000001383310402553  000000000000000000000000000000000000000000000000000000000000000000000000000000000000001471800000000008850000000000000   010319078          00000000000000                                                                  000030
1020874591800017100000090345100240370REGTIT22981901071837     000000000000597427120000000000000000000000000906280219190107183700000000000059742712300119000000000899003302167  000000000000000000000000000000000000000000000000000000000000000000000000000000000000000954600000000005560000000000000   010319078          00000000000000                                                                  000031
1020874591800017100000090345100240370REGTIT22981901072307     0000000000005974636P000000000000000000000000090628021919010723070000000000005974636P300119000000000998023705724  000000000000000000000000000000000000000000000000000000000000000000000000000000000000001061400000000006340000000000000   010319066          00000000000000                                                                  000032
1020874591800017100000090345100240370REGTIT22981901072308     000000000000597463780000000000000000000000000906280219190107230800000000000059746378300119000000000998003300814  000000000000000000000000000000000000000000000000000000000000000000000000000000000000001061400000000006340000000000000   010319078          00000000000000                                                                  000033
1020874591800017100000090345100240370REGTIT22981901072341     000000000000597466610000000000000000000000000906280219190107234100000000000059746661300119000000000850034103377  000000000000000000000000000000000000000000000000000000000000000000000000000000000000000904700000000005470000000000000   010319078          00000000000000                                                                  000034
1020874591800017100000090345100240370REGTIT22981901072564     000000000000597485830000000000000000000000000906280219190107256400000000000059748583300119000000000998003300812  000000000000000000000000000000000000000000000000000000000000000000000000000000000000001061400000000006340000000000000   010319078          00000000000000                                                                  000035
1020874591800017100000090345100240370REGTIT22981901072585     000000000000597487880000000000000000000000000906280219190107258500000000000059748788300119000000000998003300975  000000000000000000000000000000000000000000000000000000000000000000000000000000000000001061400000000006340000000000000   010319078          00000000000000                                                                  000036
1020874591800017100000090345100240370REGTIT22981901072654     000000000000597494150000000000000000000000000906280219190107265400000000000059749415300119000000000998034109926  000000000000000000000000000000000000000000000000000000000000000000000000000000000000001061400000000006340000000000000   010319078          00000000000000                                                                  000037
1020874591800017100000090345100240370REGTIT22981901072809     000000000000597508710000000000000000000000000906280219190107280900000000000059750871300119000000000998034103822  000000000000000000000000000000000000000000000000000000000000000000000000000000000000001061400000000006340000000000000   010319078          00000000000000                                                                  000038
1020874591800017100000090345100240370REGTIT22981901072861     000000000000597513710000000000000000000000000906280219190107286100000000000059751371300119000000000799010402864  000000000000000000000000000000000000000000000000000000000000000000000000000000000000000849700000000005070000000000000   010319078          00000000000000                                                                  000039
1020874591800017100000090345100240370REGTIT22981901072879     000000000000597515410000000000000000000000000906280219190107287900000000000059751541300119000000000998023705721  000000000000000000000000000000000000000000000000000000000000000000000000000000000000001061400000000006340000000000000   010319014          00000000000000                                                                  000040
1020874591800017100000090345100240370REGTIT24411902000439     000000000000597917480000000000000000000000000906280219190200043900000000000059791748280219000000003166934103835  000000000000000000000000000000000000000000000000000000000000000000000000000000000000003166900000000000000000000000000   010319078          00000000000000                                                                  000041
1020874591800017100000090345100240370REGTIT24411902000730     000000000000597917560000000000000000000000000906280219190200073000000000000059791756280219000000001668734103811  000000000000000000000000000000000000000000000000000000000000000000000000000000000000001668700000000000000000000000000   010319078          00000000000000                                                                  000042
1020874591800017100000090345100240370REGTIT24411902000748     000000000000597917640000000000000000000000000906280219190200074800000000000059791764280219000000001667023701360  000000000000000000000000000000000000000000000000000000000000000000000000000000000000001667000000000000000000000000000   010319035          00000000000000                                                                  000043
1020874591800017100000090345100240370REGTIT24411902001426     000000000000597918100000000000000000000000000906280219190200142600000000000059791810280219000000002753534100942  000000000000000000000000000000000000000000000000000000000000000000000000000000000000002753500000000000000000000000000   010319078          00000000000000                                                                  000044
1020874591800017100000090345100240370REGTIT24411902001450     000000000000597918290000000000000000000000000906280219190200145000000000000059791829280219000000002941234103720  000000000000000000000000000000000000000000000000000000000000000000000000000000000000002941200000000000000000000000000   010319078          00000000000000                                                                  000045
1020874591800017100000090345100240370REGTIT24411902002251     000000000000597918530000000000000000000000000906280219190200225100000000000059791853280219000000000950034107367  000000000000000000000000000000000000000000000000000000000000000000000000000000000000000950000000000000000000000000000   010319078          00000000000000                                                                  000046
1020874591800017100000090345100240370REGTIT24411902002731     0000000000005979187P000000000000000000000000090628021919020027310000000000005979187P280219000000001503134102775  000000000000000000000000000000000000000000000000000000000000000000000000000000000000001503100000000000000000000000000   010319078          00000000000000                                                                  000047
1020874591800017100000090345100240370REGTIT24411902002986     000000000000597918880000000000000000000000000906280219190200298600000000000059791888280219000000000884034109926  000000000000000000000000000000000000000000000000000000000000000000000000000000000000000884000000000000000000000000000   010319078          00000000000000                                                                  000048
1020874591800017100000090345100240370REGTIT24411902003866     0000000000005979190P000000000000000000000000090628021919020038660000000000005979190P280219000000000826003300814  000000000000000000000000000000000000000000000000000000000000000000000000000000000000000826000000000000000000000000000   010319078          00000000000000                                                                  000049
1020874591800017100000090345100240370REGTIT24411902004073     000000000000597919180000000000000000000000000906280219190200407300000000000059791918280219000000002815134100616  000000000000000000000000000000000000000000000000000000000000000000000000000000000000002815100000000000000000000000000   010319078          00000000000000                                                                  000050
1020874591800017100000090345100240370REGTIT24411902004249     000000000000597919260000000000000000000000000906280219190200424900000000000059791926280219000000000998000100982  000000000000000000000000000000000000000000000000000000000000000000000000000000000000000998000000000000000000000000000   010319078          00000000000000                                                                  000051
1020874591800017100000090345100240370REGTIT24411902004277     000000000000597919340000000000000000000000000906280219190200427700000000000059791934280219000000002344710401896  000000000000000000000000000000000000000000000000000000000000000000000000000000000000002344700000000000000000000000000   010319078          00000000000000                                                                  000052
1020874591800017100000090345100240370REGTIT24411902004606     000000000000597919770000000000000000000000000906280219190200460600000000000059791977280219000000001748003301615  000000000000000000000000000000000000000000000000000000000000000000000000000000000000001748000000000000000000000000000   010319078          00000000000000                                                                  000053
1020874591800017100000090345100240370REGTIT24411902004945     000000000000597920270000000000000000000000000906280219190200494500000000000059792027280219000000002913400101644  000000000000000000000000000000000000000000000000000000000000000000000000000000000000002913400000000000000000000000000   010319078          00000000000000                                                                  000054
1020874591800017100000090345100240370REGTIT24411902005172     000000000000597920510000000000000000000000000906280219190200517200000000000059792051280219000000001999023700114  000000000000000000000000000000000000000000000000000000000000000000000000000000000000001999000000000000000000000000000   010319035          00000000000000                                                                  000055
1020874591800017100000090345100240370REGTIT24411902005273     000000000000597920780000000000000000000000000906280219190200527300000000000059792078280219000000002313010401011  000000000000000000000000000000000000000000000000000000000000000000000000000000000000002313000000000000000000000000000   010319078          00000000000000                                                                  000056
1020874591800017100000090345100240370REGTIT24411902005473     000000000000597920940000000000000000000000000906280219190200547300000000000059792094280219000000001912610400406  000000000000000000000000000000000000000000000000000000000000000000000000000000000000001912600000000000000000000000000   010319078          00000000000000                                                                  000057
1020874591800017100000090345100240370REGTIT24411902005580     000000000000597921080000000000000000000000000906280219190200558000000000000059792108280219000000001502034100566  000000000000000000000000000000000000000000000000000000000000000000000000000000000000001502000000000000000000000000000   010319078          00000000000000                                                                  000058
1020874591800017100000090345100240370REGTIT24411902005593     000000000000597921160000000000000000000000000906280219190200559300000000000059792116280219000000000068910401266  000000000000000000000000000000000000000000000000000000000000000000000000000000000000000068900000000000000000000000000   010319078          00000000000000                                                                  000059
1020874591800017100000090345100240370REGTIT24411902006416     000000000000597921750000000000000000000000000906280219190200641600000000000059792175280219000000003065000102755  000000000000000000000000000000000000000000000000000000000000000000000000000000000000003065000000000000000000000000000   010319078          00000000000000                                                                  000060
1020874591800017100000090345100240370REGTIT24411902006610     000000000000597921830000000000000000000000000906280219190200661000000000000059792183280219000000002058634100024  000000000000000000000000000000000000000000000000000000000000000000000000000000000000002058600000000000000000000000000   010319078          00000000000000                                                                  000061
1020874591800017100000090345100240370REGTIT24411902006732     000000000000597922050000000000000000000000000906280219190200673200000000000059792205280219000000000998034108622  000000000000000000000000000000000000000000000000000000000000000000000000000000000000000998000000000000000000000000000   010319078          00000000000000                                                                  000062
1020874591800017100000090345100240370REGTIT24411902007041     000000000000597922480000000000000000000000000906280219190200704100000000000059792248280219000000001723510400997  000000000000000000000000000000000000000000000000000000000000000000000000000000000000001723500000000000000000000000000   010319078          00000000000000                                                                  000063
1020874591800017100000090345100240370REGTIT24411902007099     000000000000597922640000000000000000000000000906280219190200709900000000000059792264280219000000001924034108397  000000000000000000000000000000000000000000000000000000000000000000000000000000000000001924000000000000000000000000000   010319078          00000000000000                                                                  000064
1020874591800017100000090345100240370REGTIT24411902007233     000000000000597922800000000000000000000000000906280219190200723300000000000059792280280219000000002309074807032  000000000000000000000000000000000000000000000000000000000000000000000000000000000000002309000000000000000000000000000   010319078          00000000000000                                                                  000065
1020874591800017100000090345100240370REGTIT24411902007371     000000000000597923020000000000000000000000000906280219190200737100000000000059792302280219000000001593000105712  000000000000000000000000000000000000000000000000000000000000000000000000000000000000001593000000000000000000000000000   010319078          00000000000000                                                                  000066
1020874591800017100000090345100240370REGTIT24411902007399     000000000000597923100000000000000000000000000906280219190200739900000000000059792310280219000000001552500101432  000000000000000000000000000000000000000000000000000000000000000000000000000000000000001552500000000000000000000000000   010319078          00000000000000                                                                  000067
1020874591800017100000090345100240370REGTIT24411902007659     000000000000597923450000000000000000000000000906280219190200765900000000000059792345280219000000004355475600001  000000000000000000000000000000000000000000000000000000000000000000000000000000000000004355400000000000000000000000000   010319078          00000000000000                                                                  000068
1020874591800017100000090345100240370REGTIT24411902007964     0000000000005979237P000000000000000000000000090628021919020079640000000000005979237P280219000000001922334108613  000000000000000000000000000000000000000000000000000000000000000000000000000000000000001922300000000000000000000000000   010319078          00000000000000                                                                  000069
1020874591800017100000090345100240370REGTIT24411902008333     0000000000005979240P000000000000000000000000090628021919020083330000000000005979240P280219000000000819534103730  000000000000000000000000000000000000000000000000000000000000000000000000000000000000000819500000000000000000000000000   010319078          00000000000000                                                                  000070
1020874591800017100000090345100240370REGTIT24411902009035     000000000000597924690000000000000000000000000906280219190200903500000000000059792469280219000000002487723707187  000000000000000000000000000000000000000000000000000000000000000000000000000000000000002487700000000000000000000000000   010319074          00000000000000                                                                  000071
1020874591800017100000090345100240370REGTIT24411902009304     000000000000597924770000000000000000000000000906280219190200930400000000000059792477280219000000003120400100069  000000000000000000000000000000000000000000000000000000000000000000000000000000000000003120400000000000000000000000000   010319078          00000000000000                                                                  000072
1020874591800017100000090345100240370REGTIT24411902009347     000000000000597924930000000000000000000000000906280219190200934700000000000059792493280219000000002907834103722  000000000000000000000000000000000000000000000000000000000000000000000000000000000000002907800000000000000000000000000   010319078          00000000000000                                                                  000073
1020874591800017100000090345100240370REGTIT24411902009359     000000000000597925070000000000000000000000000906280219190200935900000000000059792507280219000000003155410402990  000000000000000000000000000000000000000000000000000000000000000000000000000000000000003155400000000000000000000000000   010319078          00000000000000                                                                  000074
1020874591800017100000090345100240370REGTIT24411902009590     000000000000597925150000000000000000000000000906280219190200959000000000000059792515280219000000002842310403522  000000000000000000000000000000000000000000000000000000000000000000000000000000000000002842300000000000000000000000000   010319078          00000000000000                                                                  000075
1020874591800017100000090345100240370REGTIT24411902009665     000000000000597925230000000000000000000000000906280219190200966500000000000059792523280219000000003022934100076  000000000000000000000000000000000000000000000000000000000000000000000000000000000000003022900000000000000000000000000   010319078          00000000000000                                                                  000076
1020874591800017100000090345100240370REGTIT24411902010074     000000000000597925580000000000000000000000000906280219190201007400000000000059792558280219000000001448000104829  000000000000000000000000000000000000000000000000000000000000000000000000000000000000001448000000000000000000000000000   010319078          00000000000000                                                                  000077
1020874591800017100000090345100240370REGTIT24411902010106     000000000000597925660000000000000000000000000906280219190201010600000000000059792566280219000000002325523700129  000000000000000000000000000000000000000000000000000000000000000000000000000000000000002325500000000000000000000000000   010319066          00000000000000                                                                  000078
1020874591800017100000090345100240370REGTIT24411902010424     000000000000597925820000000000000000000000000906280219190201042400000000000059792582280219000000003261403300162  000000000000000000000000000000000000000000000000000000000000000000000000000000000000003261400000000000000000000000000   010319078          00000000000000                                                                  000079
1020874591800017100000090345100240370REGTIT24411902010754     000000000000597926200000000000000000000000000906280219190201075400000000000059792620280219000000004009623700606  000000000000000000000000000000000000000000000000000000000000000000000000000000000000004009600000000000000000000000000   010319035          00000000000000                                                                  000080
1020874591800017100000090345100240370REGTIT24411902011001     000000000000597926390000000000000000000000000906280219190201100100000000000059792639280219000000002096008400002  000000000000000000000000000000000000000000000000000000000000000000000000000000000000002096000000000000000000000000000   010319078          00000000000000                                                                  000081
1020874591800017100000090345100240370REGTIT24411902011112     000000000000597926470000000000000000000000000906280219190201111200000000000059792647280219000000003150123702094  000000000000000000000000000000000000000000000000000000000000000000000000000000000000003150100000000000000000000000000   010319035          00000000000000                                                                  000082
1020874591800017100000090345100240370REGTIT24411902011595     000000000000597926710000000000000000000000000906280219190201159500000000000059792671280219000000002155910402974  000000000000000000000000000000000000000000000000000000000000000000000000000000000000002155900000000000000000000000000   010319078          00000000000000                                                                  000083
1020874591800017100000090345100240370REGTIT24411902011774     000000000000597927010000000000000000000000000906280219190201177400000000000059792701280219000000001448000103263  000000000000000000000000000000000000000000000000000000000000000000000000000000000000001448000000000000000000000000000   010319078          00000000000000                                                                  000084
1020874591800017100000090345100240370REGTIT24411902011906     000000000000597927280000000000000000000000000906280219190201190600000000000059792728280219000000000989034109180  000000000000000000000000000000000000000000000000000000000000000000000000000000000000000989000000000000000000000000000   010319078          00000000000000                                                                  000085
1020874591800017100000090345100240370REGTIT24411902012042     000000000000597927440000000000000000000000000906280219190201204200000000000059792744280219000000002815074807192  000000000000000000000000000000000000000000000000000000000000000000000000000000000000002815000000000000000000000000000   010319078          00000000000000                                                                  000086
1020874591800017100000090345100240370REGTIT24411902012130     000000000000597927600000000000000000000000000906280219190201213000000000000059792760280219000000001348034103707  000000000000000000000000000000000000000000000000000000000000000000000000000000000000001348000000000000000000000000000   010319078          00000000000000                                                                  000087
1020874591800017100000090345100240370REGTIT24411902012310     000000000000597927790000000000000000000000000906280219190201231000000000000059792779280219000000002586500100963  000000000000000000000000000000000000000000000000000000000000000000000000000000000000002586500000000000000000000000000   010319078          00000000000000                                                                  000088
1020874591800017100000090345100240370REGTIT24411902012537     000000000000597927870000000000000000000000000906280219190201253700000000000059792787280219000000001149075604368  000000000000000000000000000000000000000000000000000000000000000000000000000000000000001149000000000000000000000000000   010319078          00000000000000                                                                  000089
1020874591800017100000090345100240370REGTIT24411902012575     000000000000597928090000000000000000000000000906280219190201257500000000000059792809280219000000003838123702507  000000000000000000000000000000000000000000000000000000000000000000000000000000000000003838100000000000000000000000000   010319035          00000000000000                                                                  000090
1020874591800017100000090345100240370REGTIT24411902012601     000000000000597928170000000000000000000000000906280219190201260100000000000059792817280219000000003342010400080  000000000000000000000000000000000000000000000000000000000000000000000000000000000000003342000000000000000000000000000   010319078          00000000000000                                                                  000091
1020874591800017100000090345100240370REGTIT24411902012648     000000000000597928250000000000000000000000000906280219190201264800000000000059792825280219000000001373034100273  000000000000000000000000000000000000000000000000000000000000000000000000000000000000001373000000000000000000000000000   010319078          00000000000000                                                                  000092
1020874591800017100000090345100240370REGTIT24411902012673     000000000000597928330000000000000000000000000906280219190201267300000000000059792833280219000000001894034100940  000000000000000000000000000000000000000000000000000000000000000000000000000000000000001894000000000000000000000000000   010319078          00000000000000                                                                  000093
1020874591800017100000090345100240370REGTIT24411902012843     0000000000005979285P000000000000000000000000090628021919020128430000000000005979285P280219000000001524034101579  000000000000000000000000000000000000000000000000000000000000000000000000000000000000001524000000000000000000000000000   010319078          00000000000000                                                                  000094
1020874591800017100000090345100240370REGTIT24411902012981     000000000000597928760000000000000000000000000906280219190201298100000000000059792876280219000000002245034100212  000000000000000000000000000000000000000000000000000000000000000000000000000000000000002245000000000000000000000000000   010319078          00000000000000                                                                  000095
1020874591800017100000090345100240370REGTIT24411902013102     000000000000597928920000000000000000000000000906280219190201310200000000000059792892280219000000001740710401264  000000000000000000000000000000000000000000000000000000000000000000000000000000000000001740700000000000000000000000000   010319078          00000000000000                                                                  000096
1020874591800017100000090345100240370REGTIT24411902013383     000000000000597929220000000000000000000000000906280219190201338300000000000059792922280219000000003244200100170  000000000000000000000000000000000000000000000000000000000000000000000000000000000000003244200000000000000000000000000   010319078          00000000000000                                                                  000097
1020874591800017100000090345100240370REGTIT24411902013411     000000000000597929490000000000000000000000000906280219190201341100000000000059792949280219000000002730003300189  000000000000000000000000000000000000000000000000000000000000000000000000000000000000002730000000000000000000000000000   010319078          00000000000000                                                                  000098
1020874591800017100000090345100240370REGTIT24411902013590     000000000000597929810000000000000000000000000906280219190201359000000000000059792981280219000000002638407000059  000000000000000000000000000000000000000000000000000000000000000000000000000000000000002638400000000000000000000000000   010319078          00000000000000                                                                  000099
1020874591800017100000090345100240370REGTIT24411902014634     000000000000597930310000000000000000000000000906280219190201463400000000000059793031280219000000001861503300328  000000000000000000000000000000000000000000000000000000000000000000000000000000000000001861500000000000000000000000000   010319078          00000000000000                                                                  000100
1020874591800017100000090345100240370REGTIT24411902015252     0000000000005979304P000000000000000000000000090628021919020152520000000000005979304P280219000000002199034105865  000000000000000000000000000000000000000000000000000000000000000000000000000000000000002199000000000000000000000000000   010319078          00000000000000                                                                  000101
1020874591800017100000090345100240370REGTIT24411902015999     000000000000597930740000000000000000000000000906280219190201599900000000000059793074280219000000001649010402716  000000000000000000000000000000000000000000000000000000000000000000000000000000000000001649000000000000000000000000000   010319078          00000000000000                                                                  000102
1020874591800017100000090345100240370REGTIT24411902016238     000000000000597931040000000000000000000000000906280219190201623800000000000059793104280219000000001448000101119  000000000000000000000000000000000000000000000000000000000000000000000000000000000000001448000000000000000000000000000   010319078          00000000000000                                                                  000103
1020874591800017100000090345100240370REGTIT24411902016351     000000000000597931200000000000000000000000000906280219190201635100000000000059793120280219000000002626710400408  000000000000000000000000000000000000000000000000000000000000000000000000000000000000002626700000000000000000000000000   010319078          00000000000000                                                                  000104
1020874591800017100000090345100240370REGTIT24411902016574     000000000000597931550000000000000000000000000906280219190201657400000000000059793155280219000000005266704101008  000000000000000000000000000000000000000000000000000000000000000000000000000000000000005266700000000000000000000000000   010319078          00000000000000                                                                  000105
1020874591800017100000090345100240370REGTIT24411902016787     0000000000005979318P000000000000000000000000090628021919020167870000000000005979318P280219000000001906875603061  000000000000000000000000000000000000000000000000000000000000000000000000000000000000001906800000000000000000000000000   010319078          00000000000000                                                                  000106
1020874591800017100000090345100240370REGTIT24411902016990     000000000000597931980000000000000000000000000906280219190201699000000000000059793198280219000000003077234108991  000000000000000000000000000000000000000000000000000000000000000000000000000000000000003077200000000000000000000000000   010319078          00000000000000                                                                  000107
1020874591800017100000090345100240370REGTIT24411902017084     000000000000597932010000000000000000000000000906280219190201708400000000000059793201280219000000001889010400020  000000000000000000000000000000000000000000000000000000000000000000000000000000000000001889000000000000000000000000000   010319078          00000000000000                                                                  000108
1020874591800017100000090345100240370REGTIT24411902017212     000000000000597932360000000000000000000000000906280219190201721200000000000059793236280219000000002511234106399  000000000000000000000000000000000000000000000000000000000000000000000000000000000000002511200000000000000000000000000   010319078          00000000000000                                                                  000109
1020874591800017100000090345100240370REGTIT24411902017462     000000000000597932790000000000000000000000000906280219190201746200000000000059793279280219000000000799034102929  000000000000000000000000000000000000000000000000000000000000000000000000000000000000000799000000000000000000000000000   010319078          00000000000000                                                                  000110
1020874591800017100000090345100240370REGTIT24411902018721     000000000000597933330000000000000000000000000906280219190201872100000000000059793333280219000000003581004100165  000000000000000000000000000000000000000000000000000000000000000000000000000000000000003581000000000000000000000000000   010319078          00000000000000                                                                  000111
1020874591800017100000090345100240370REGTIT24411902018894     000000000000597933410000000000000000000000000906280219190201889400000000000059793341280219000000002966810400490  000000000000000000000000000000000000000000000000000000000000000000000000000000000000002966800000000000000000000000000   010319078          00000000000000                                                                  000112
1020874591800017100000090345100240370REGTIT24411902018905     0000000000005979335P000000000000000000000000090628021919020189050000000000005979335P280219000000002220434100202  000000000000000000000000000000000000000000000000000000000000000000000000000000000000002220400000000000000000000000000   010319078          00000000000000                                                                  000113
1020874591800017100000090345100240370REGTIT24411902018920     000000000000597933680000000000000000000000000906280219190201892000000000000059793368280219000000003606534103377  000000000000000000000000000000000000000000000000000000000000000000000000000000000000003606500000000000000000000000000   010319078          00000000000000                                                                  000114
1020874591800017100000090345100240370REGTIT24411902018923     000000000000597933760000000000000000000000000906280219190201892300000000000059793376280219000000004109400102755  000000000000000000000000000000000000000000000000000000000000000000000000000000000000004109400000000000000000000000000   010319078          00000000000000                                                                  000115
1020874591800017100000090345100240370REGTIT24411902019171     000000000000597934060000000000000000000000000906280219190201917100000000000059793406280219000000001969034106245  000000000000000000000000000000000000000000000000000000000000000000000000000000000000001969000000000000000000000000000   010319078          00000000000000                                                                  000116
1020874591800017100000090345100240370REGTIT24411902021016     0000000000005979349P000000000000000000000000090628021919020210160000000000005979349P280219000000004650034108623  000000000000000000000000000000000000000000000000000000000000000000000000000000000000004650000000000000000000000000000   010319078          00000000000000                                                                  000117
1020874591800017100000090345100240370REGTIT24411902021604     000000000000597935380000000000000000000000000906280219190202160400000000000059793538280219000000003701023700963  000000000000000000000000000000000000000000000000000000000000000000000000000000000000003701000000000000000000000000000   010319074          00000000000000                                                                  000118
1020874591800017100000090345100240370REGTIT24411902021779     000000000000597935700000000000000000000000000906280219190202177900000000000059793570280219000000001645575602386  000000000000000000000000000000000000000000000000000000000000000000000000000000000000001645500000000000000000000000000   010319078          00000000000000                                                                  000119
1020874591800017100000090345100240370REGTIT24411902021973     000000000000597936000000000000000000000000000906280219190202197300000000000059793600280219000000002641834100691  000000000000000000000000000000000000000000000000000000000000000000000000000000000000002641800000000000000000000000000   010319078          00000000000000                                                                  000120
1020874591800017100000090345100240370REGTIT24411902022178     000000000000597936190000000000000000000000000906280219190202217800000000000059793619280219000000002944775600220  000000000000000000000000000000000000000000000000000000000000000000000000000000000000002944700000000000000000000000000   010319078          00000000000000                                                                  000121
1020874591800017100000090345100240370REGTIT24411902022466     000000000000597936270000000000000000000000000906280219190202246600000000000059793627280219000000001836934107411  000000000000000000000000000000000000000000000000000000000000000000000000000000000000001836900000000000000000000000000   010319078          00000000000000                                                                  000122
1020874591800017100000090345100240370REGTIT24411902022568     000000000000597936350000000000000000000000000906280219190202256800000000000059793635280219000000003600000106610  000000000000000000000000000000000000000000000000000000000000000000000000000000000000003600000000000000000000000000000   010319078          00000000000000                                                                  000123
1020874591800017100000090345100240370REGTIT24411902022629     000000000000597936510000000000000000000000000906280219190202262900000000000059793651280219000000002469334101669  000000000000000000000000000000000000000000000000000000000000000000000000000000000000002469300000000000000000000000000   010319078          00000000000000                                                                  000124
1020874591800017100000090345100240370REGTIT24411902023153     000000000000597936940000000000000000000000000906280219190202315300000000000059793694280219000000025091110403312  000000000000000000000000000000000000000000000000000000000000000000000000000000000000025091100000000000000000000000000   010319078          00000000000000                                                                  000125
1020874591800017100000090345100240370REGTIT24411902023436     000000000000597937160000000000000000000000000906280219190202343600000000000059793716280219000000002515010400419  000000000000000000000000000000000000000000000000000000000000000000000000000000000000002515000000000000000000000000000   010319078          00000000000000                                                                  000126
1020874591800017100000090345100240370REGTIT24411902023784     000000000000597937400000000000000000000000000906280219190202378400000000000059793740280219000000001863300102463  000000000000000000000000000000000000000000000000000000000000000000000000000000000000001863300000000000000000000000000   010319078          00000000000000                                                                  000127
1020874591800017100000090345100240370REGTIT24411902023956     000000000000597937670000000000000000000000000906280219190202395600000000000059793767280219000000002612704100243  000000000000000000000000000000000000000000000000000000000000000000000000000000000000002612700000000000000000000000000   010319078          00000000000000                                                                  000128
1020874591800017100000090345100240370REGTIT24411902024356     000000000000597937830000000000000000000000000906280219190202435600000000000059793783280219000000001810023701973  000000000000000000000000000000000000000000000000000000000000000000000000000000000000001810000000000000000000000000000   010319035          00000000000000                                                                  000129
1020874591800017100000090345100240370REGTIT24411902024523     000000000000597937910000000000000000000000000906280219190202452300000000000059793791280219000000002992963400019  000000000000000000000000000000000000000000000000000000000000000000000000000000000000002992900000000000000000000000000   010319078          00000000000000                                                                  000130
1020874591800017100000090345100240370REGTIT24411902024530     000000000000597938050000000000000000000000000906280219190202453000000000000059793805280219000000002457900107849  000000000000000000000000000000000000000000000000000000000000000000000000000000000000002457900000000000000000000000000   010319078          00000000000000                                                                  000131
1020874591800017100000090345100240370REGTIT24411902024560     000000000000597938130000000000000000000000000906280219190202456000000000000059793813280219000000002626700106527  000000000000000000000000000000000000000000000000000000000000000000000000000000000000002626700000000000000000000000000   010319078          00000000000000                                                                  000132
1020874591800017100000090345100240370REGTIT24411902024601     000000000000597938210000000000000000000000000906280219190202460100000000000059793821280219000000002798203304537  000000000000000000000000000000000000000000000000000000000000000000000000000000000000002798200000000000000000000000000   010319078          00000000000000                                                                  000133
1020874591800017100000090345100240370REGTIT24411902024619     0000000000005979383P000000000000000000000000090628021919020246190000000000005979383P280219000000002909675604364  000000000000000000000000000000000000000000000000000000000000000000000000000000000000002909600000000000000000000000000   010319078          00000000000000                                                                  000134
1020874591800017100000090345100240370REGTIT24411902024625     000000000000597938480000000000000000000000000906280219190202462500000000000059793848280219000000002419874807446  000000000000000000000000000000000000000000000000000000000000000000000000000000000000002419800000000000000000000000000   010319078          00000000000000                                                                  000135
1020874591800017100000090345100240370REGTIT24411902024878     000000000000597938640000000000000000000000000906280219190202487800000000000059793864280219000000001198000100728  000000000000000000000000000000000000000000000000000000000000000000000000000000000000001198000000000000000000000000000   010319078          00000000000000                                                                  000136
1020874591800017100000090345100240370REGTIT24411902024916     000000000000597938720000000000000000000000000906280219190202491600000000000059793872280219000000003542910400467  000000000000000000000000000000000000000000000000000000000000000000000000000000000000003542900000000000000000000000000   010319078          00000000000000                                                                  000137
1020874591800017100000090345100240370REGTIT24411902024940     000000000000597938800000000000000000000000000906280219190202494000000000000059793880280219000000002049010400369  000000000000000000000000000000000000000000000000000000000000000000000000000000000000002049000000000000000000000000000   010319078          00000000000000                                                                  000138
1020874591800017100000090345100240370REGTIT24411902025082     000000000000597938990000000000000000000000000906280219190202508200000000000059793899280219000000001944010400846  000000000000000000000000000000000000000000000000000000000000000000000000000000000000001944000000000000000000000000000   010319078          00000000000000                                                                  000139
1020874591800017100000090345100240370REGTIT24411902025366     000000000000597939290000000000000000000000000906280219190202536600000000000059793929280219000000003178975604340  000000000000000000000000000000000000000000000000000000000000000000000000000000000000003178900000000000000000000000000   010319078          00000000000000                                                                  000140
1020874591800017100000090345100240370REGTIT24411902025569     000000000000597939450000000000000000000000000906280219190202556900000000000059793945280219000000003303523700139  000000000000000000000000000000000000000000000000000000000000000000000000000000000000003303500000000000000000000000000   010319035          00000000000000                                                                  000141
1020874591800017100000090345100240370REGTIT24411902025980     0000000000005979397P000000000000000000000000090628021919020259800000000000005979397P280219000000005726210402284  000000000000000000000000000000000000000000000000000000000000000000000000000000000000005726200000000000000000000000000   010319078          00000000000000                                                                  000142
1020874591800017100000090345100240370REGTIT24411902026159     000000000000597939880000000000000000000000000906280219190202615900000000000059793988280219000000001974003301619  000000000000000000000000000000000000000000000000000000000000000000000000000000000000001974000000000000000000000000000   010319078          00000000000000                                                                  000143
1020874591800017100000090345100240370REGTIT24411902026169     000000000000597939960000000000000000000000000906280219190202616900000000000059793996280219000000001348034108560  000000000000000000000000000000000000000000000000000000000000000000000000000000000000001348000000000000000000000000000   010319078          00000000000000                                                                  000144
1020874591800017100000090345100240370REGTIT24411902026181     000000000000597940030000000000000000000000000906280219190202618100000000000059794003280219000000002431510402897  000000000000000000000000000000000000000000000000000000000000000000000000000000000000002431500000000000000000000000000   010319078          00000000000000                                                                  000145
1020874591800017100000090345100240370REGTIT24411902026657     000000000000597940540000000000000000000000000906280219190202665700000000000059794054280219000000002609334103844  000000000000000000000000000000000000000000000000000000000000000000000000000000000000002609300000000000000000000000000   010319078          00000000000000                                                                  000146
1020874591800017100000090345100240370REGTIT24411902026691     000000000000597940620000000000000000000000000906280219190202669100000000000059794062280219000000002447034106870  000000000000000000000000000000000000000000000000000000000000000000000000000000000000002447000000000000000000000000000   010319078          00000000000000                                                                  000147
1020874591800017100000090345100240370REGTIT24411902026864     000000000000597940970000000000000000000000000906280219190202686400000000000059794097280219000000001485000101235  000000000000000000000000000000000000000000000000000000000000000000000000000000000000001485000000000000000000000000000   010319078          00000000000000                                                                  000148
1020874591800017100000090345100240370REGTIT24411902027180     000000000000597941190000000000000000000000000906280219190202718000000000000059794119280219000000002255410403441  000000000000000000000000000000000000000000000000000000000000000000000000000000000000002255400000000000000000000000000   010319078          00000000000000                                                                  000149
1020874591800017100000090345100240370REGTIT24411902027582     000000000000597941430000000000000000000000000906280219190202758200000000000059794143280219000000001921634108111  000000000000000000000000000000000000000000000000000000000000000000000000000000000000001921600000000000000000000000000   010319078          00000000000000                                                                  000150
1020874591800017100000090345100240370REGTIT24411902027703     0000000000005979416P000000000000000000000000090628021919020277030000000000005979416P280219000000001531910400463  000000000000000000000000000000000000000000000000000000000000000000000000000000000000001531900000000000000000000000000   010319078          00000000000000                                                                  000151
1020874591800017100000090345100240370REGTIT24411902027773     000000000000597941780000000000000000000000000906280219190202777300000000000059794178280219000000001198010403915  000000000000000000000000000000000000000000000000000000000000000000000000000000000000001198000000000000000000000000000   010319078          00000000000000                                                                  000152
1020874591800017100000090345100240370REGTIT24411902028103     000000000000597942160000000000000000000000000906280219190202810300000000000059794216280219000000002531200100206  000000000000000000000000000000000000000000000000000000000000000000000000000000000000002531200000000000000000000000000   010319078          00000000000000                                                                  000153
1020874591800017100000090345100240370REGTIT24411902028167     000000000000597942240000000000000000000000000906280219190202816700000000000059794224280219000000002620508500101  000000000000000000000000000000000000000000000000000000000000000000000000000000000000002620500000000000000000000000000   010319078          00000000000000                                                                  000154
1020874591800017100000090345100240370REGTIT24411902028213     000000000000597942320000000000000000000000000906280219190202821300000000000059794232280219000000003511223701977  000000000000000000000000000000000000000000000000000000000000000000000000000000000000003511200000000000000000000000000   010319082          00000000000000                                                                  000155
1020874591800017100000090345100240370REGTIT24411902028281     000000000000597942400000000000000000000000000906280219190202828100000000000059794240280219000000002419534103761  000000000000000000000000000000000000000000000000000000000000000000000000000000000000002419500000000000000000000000000   010319078          00000000000000                                                                  000156
1020874591800017100000090345100240370REGTIT24411902028505     000000000000597942670000000000000000000000000906280219190202850500000000000059794267280219000000002828600103428  000000000000000000000000000000000000000000000000000000000000000000000000000000000000002828600000000000000000000000000   010319078          00000000000000                                                                  000157
1020874591800017100000090345100240370REGTIT24411902028748     000000000000597942750000000000000000000000000906280219190202874800000000000059794275280219000000002331223700256  000000000000000000000000000000000000000000000000000000000000000000000000000000000000002331200000000000000000000000000   010319035          00000000000000                                                                  000158
1020874591800017100000090345100240370REGTIT24411902028935     000000000000597943050000000000000000000000000906280219190202893500000000000059794305280219000000003494400100273  000000000000000000000000000000000000000000000000000000000000000000000000000000000000003494400000000000000000000000000   010319078          00000000000000                                                                  000159
1020874591800017100000090345100240370REGTIT24411902029291     000000000000597943210000000000000000000000000906280219190202929100000000000059794321280219000000004367923703769  000000000000000000000000000000000000000000000000000000000000000000000000000000000000004367900000000000000000000000000   010319035          00000000000000                                                                  000160
1020874591800017100000090345100240370REGTIT24411902029377     0000000000005979433P000000000000000000000000090628021919020293770000000000005979433P280219000000003355123701259  000000000000000000000000000000000000000000000000000000000000000000000000000000000000003355100000000000000000000000000   010319002          00000000000000                                                                  000161
1020874591800017100000090345100240370REGTIT24411902029908     000000000000597943640000000000000000000000000906280219190202990800000000000059794364280219000000002518075601885  000000000000000000000000000000000000000000000000000000000000000000000000000000000000002518000000000000000000000000000   010319078          00000000000000                                                                  000162
1020874591800017100000090345100240370REGTIT24411902030626     000000000000597944020000000000000000000000000906280219190203062600000000000059794402280219000000003739000102414  000000000000000000000000000000000000000000000000000000000000000000000000000000000000003739000000000000000000000000000   010319078          00000000000000                                                                  000163
1020874591800017100000090345100240370REGTIT24411902031582     000000000000597944290000000000000000000000000906280219190203158200000000000059794429280219000000002417623701620  000000000000000000000000000000000000000000000000000000000000000000000000000000000000002417600000000000000000000000000   010319035          00000000000000                                                                  000164
1020874591800017100000090345100240370REGTIT24411902031773     000000000000597944530000000000000000000000000906280219190203177300000000000059794453280219000000002420200103184  000000000000000000000000000000000000000000000000000000000000000000000000000000000000002420200000000000000000000000000   010319078          00000000000000                                                                  000165
1020874591800017100000090345100240370REGTIT24411902032269     000000000000597944880000000000000000000000000906280219190203226900000000000059794488280219000000002484000100518  000000000000000000000000000000000000000000000000000000000000000000000000000000000000002484000000000000000000000000000   010319078          00000000000000                                                                  000166
1020874591800017100000090345100240370REGTIT24411902032277     000000000000597944960000000000000000000000000906280219190203227700000000000059794496280219000000002510675601748  000000000000000000000000000000000000000000000000000000000000000000000000000000000000002510600000000000000000000000000   010319078          00000000000000                                                                  000167
1020874591800017100000090345100240370REGTIT24411902032278     0000000000005979450P000000000000000000000000090628021919020322780000000000005979450P280219000000003295923701334  000000000000000000000000000000000000000000000000000000000000000000000000000000000000003295900000000000000000000000000   010319082          00000000000000                                                                  000168
1020874591800017100000090345100240370REGTIT24411902032435     000000000000597945260000000000000000000000000906280219190203243500000000000059794526280219000000002480500106800  000000000000000000000000000000000000000000000000000000000000000000000000000000000000002480500000000000000000000000000   010319078          00000000000000                                                                  000169
1020874591800017100000090345100240370REGTIT24411902032543     000000000000597945340000000000000000000000000906280219190203254300000000000059794534280219000000002580900106800  000000000000000000000000000000000000000000000000000000000000000000000000000000000000002580900000000000000000000000000   010319078          00000000000000                                                                  000170
1020874591800017100000090345100240370REGTIT24411902032629     000000000000597945420000000000000000000000000906280219190203262900000000000059794542280219000000002216610400377  000000000000000000000000000000000000000000000000000000000000000000000000000000000000002216600000000000000000000000000   010319078          00000000000000                                                                  000171
1020874591800017100000090345100240370REGTIT24411902032712     000000000000597945500000000000000000000000000906280219190203271200000000000059794550280219000000002354023702690  000000000000000000000000000000000000000000000000000000000000000000000000000000000000002354000000000000000000000000000   010319035          00000000000000                                                                  000172
1020874591800017100000090345100240370REGTIT24411902032769     000000000000597945930000000000000000000000000906280219190203276900000000000059794593280219000000002382034100498  000000000000000000000000000000000000000000000000000000000000000000000000000000000000002382000000000000000000000000000   010319078          00000000000000                                                                  000173
1020874591800017100000090345100240370REGTIT24411902032838     000000000000597946070000000000000000000000000906280219190203283800000000000059794607280219000000002310600100189  000000000000000000000000000000000000000000000000000000000000000000000000000000000000002310600000000000000000000000000   010319078          00000000000000                                                                  000174
1020874591800017100000090345100240370REGTIT24411902032902     000000000000597946150000000000000000000000000906280219190203290200000000000059794615280219000000001606075603074  000000000000000000000000000000000000000000000000000000000000000000000000000000000000001606000000000000000000000000000   010319078          00000000000000                                                                  000175
1020874591800017100000090345100240370REGTIT24411902032918     000000000000597946230000000000000000000000000906280219190203291800000000000059794623280219000000002382075601865  000000000000000000000000000000000000000000000000000000000000000000000000000000000000002382000000000000000000000000000   010319078          00000000000000                                                                  000176
1020874591800017100000090345100240370REGTIT24411902033164     000000000000597946580000000000000000000000000906280219190203316400000000000059794658280219000000003090634101293  000000000000000000000000000000000000000000000000000000000000000000000000000000000000003090600000000000000000000000000   010319078          00000000000000                                                                  000177
1020874591800017100000090345100240370REGTIT24411902034032     000000000000597946900000000000000000000000000906280219190203403200000000000059794690280219000000001373023702841  000000000000000000000000000000000000000000000000000000000000000000000000000000000000001373000000000000000000000000000   010319035          00000000000000                                                                  000178
1020874591800017100000090345100240370REGTIT24411902034152     000000000000597947120000000000000000000000000906280219190203415200000000000059794712280219000000002018003303442  000000000000000000000000000000000000000000000000000000000000000000000000000000000000002018000000000000000000000000000   010319078          00000000000000                                                                  000179
1020874591800017100000090345100240370REGTIT24411902034413     000000000000597947470000000000000000000000000906280219190203441300000000000059794747280219000000002678023700509  000000000000000000000000000000000000000000000000000000000000000000000000000000000000002678000000000000000000000000000   010319074          00000000000000                                                                  000180
1020874591800017100000090345100240370REGTIT24411902034438     000000000000597947550000000000000000000000000906280219190203443800000000000059794755280219000000002795000100234  000000000000000000000000000000000000000000000000000000000000000000000000000000000000002795000000000000000000000000000   010319078          00000000000000                                                                  000181
1020874591800017100000090345100240370REGTIT24411902034537     000000000000597947630000000000000000000000000906280219190203453700000000000059794763280219000000002278123702841  000000000000000000000000000000000000000000000000000000000000000000000000000000000000002278100000000000000000000000000   010319035          00000000000000                                                                  000182
1020874591800017100000090345100240370REGTIT24411902034552     000000000000597947710000000000000000000000000906280219190203455200000000000059794771280219000000002317500100921  000000000000000000000000000000000000000000000000000000000000000000000000000000000000002317500000000000000000000000000   010319078          00000000000000                                                                  000183
1020874591800017100000090345100240370REGTIT24411902034561     0000000000005979478P000000000000000000000000090628021919020345610000000000005979478P280219000000001299010401209  000000000000000000000000000000000000000000000000000000000000000000000000000000000000001299000000000000000000000000000   010319078          00000000000000                                                                  000184
1020874591800017100000090345100240370REGTIT24411902034733     000000000000597948010000000000000000000000000906280219190203473300000000000059794801280219000000002317500100504  000000000000000000000000000000000000000000000000000000000000000000000000000000000000002317500000000000000000000000000   010319078          00000000000000                                                                  000185
1020874591800017100000090345100240370REGTIT24411902034768     0000000000005979481P000000000000000000000000090628021919020347680000000000005979481P280219000000001977103303104  000000000000000000000000000000000000000000000000000000000000000000000000000000000000001977100000000000000000000000000   010319078          00000000000000                                                                  000186
1020874591800017100000090345100240370REGTIT24411902034782     000000000000597948280000000000000000000000000906280219190203478200000000000059794828280219000000005004800100554  000000000000000000000000000000000000000000000000000000000000000000000000000000000000005004800000000000000000000000000   010319078          00000000000000                                                                  000187
1020874591800017100000090345100240370REGTIT24411902034915     000000000000597948440000000000000000000000000906280219190203491500000000000059794844280219000000002358323703784  000000000000000000000000000000000000000000000000000000000000000000000000000000000000002358300000000000000000000000000   010319035          00000000000000                                                                  000188
1020874591800017100000090345100240370REGTIT24411902034938     000000000000597948520000000000000000000000000906280219190203493800000000000059794852280219000000002546507000252  000000000000000000000000000000000000000000000000000000000000000000000000000000000000002546500000000000000000000000000   010319078          00000000000000                                                                  000189
1020874591800017100000090345100240370REGTIT24411902035360     000000000000597949090000000000000000000000000906280219190203536000000000000059794909280219000000001748010401038  000000000000000000000000000000000000000000000000000000000000000000000000000000000000001748000000000000000000000000000   010319078          00000000000000                                                                  000190
1020874591800017100000090345100240370REGTIT24411902035375     000000000000597949170000000000000000000000000906280219190203537500000000000059794917280219000000002361774807125  000000000000000000000000000000000000000000000000000000000000000000000000000000000000002361700000000000000000000000000   010319078          00000000000000                                                                  000191
1020874591800017100000090345100240370REGTIT24411902035493     000000000000597949330000000000000000000000000906280219190203549300000000000059794933280219000000001587034104880  000000000000000000000000000000000000000000000000000000000000000000000000000000000000001587000000000000000000000000000   010319078          00000000000000                                                                  000192
1020874591800017100000090345100240370REGTIT24411902035536     000000000000597949410000000000000000000000000906280219190203553600000000000059794941280219000000002277510403204  000000000000000000000000000000000000000000000000000000000000000000000000000000000000002277500000000000000000000000000   010319078          00000000000000                                                                  000193
1020874591800017100000090345100240370REGTIT24411902035540     0000000000005979495P000000000000000000000000090628021919020355400000000000005979495P280219000000001739034107473  000000000000000000000000000000000000000000000000000000000000000000000000000000000000001739000000000000000000000000000   010319078          00000000000000                                                                  000194
1020874591800017100000090345100240370REGTIT24411902035684     000000000000597949680000000000000000000000000906280219190203568400000000000059794968280219000000001452834100273  000000000000000000000000000000000000000000000000000000000000000000000000000000000000001452800000000000000000000000000   010319078          00000000000000                                                                  000195
1020874591800017100000090345100240370REGTIT24411902036069     000000000000597949840000000000000000000000000906280219190203606900000000000059794984280219000000002358323700594  000000000000000000000000000000000000000000000000000000000000000000000000000000000000002358300000000000000000000000000   010319014          00000000000000                                                                  000196
1020874591800017100000090345100240370REGTIT24411902036404     0000000000005979500P000000000000000000000000090628021919020364040000000000005979500P280219000000002278034100897  000000000000000000000000000000000000000000000000000000000000000000000000000000000000002278000000000000000000000000000   010319078          00000000000000                                                                  000197
1020874591800017100000090345100240370REGTIT24411902037157     000000000000597950340000000000000000000000000906280219190203715700000000000059795034280219000000001098003303272  000000000000000000000000000000000000000000000000000000000000000000000000000000000000001098000000000000000000000000000   010319078          00000000000000                                                                  000198
1020874591800017100000090345100240370REGTIT24411902037355     000000000000597950500000000000000000000000000906280219190203735500000000000059795050280219000000003413874809036  000000000000000000000000000000000000000000000000000000000000000000000000000000000000003413800000000000000000000000000   010319078          00000000000000                                                                  000199
1020874591800017100000090345100240370REGTIT24411902038727     000000000000597951660000000000000000000000000906280219190203872700000000000059795166280219000000000998003300968  000000000000000000000000000000000000000000000000000000000000000000000000000000000000000998000000000000000000000000000   010319078          00000000000000                                                                  000200
1020874591800017100000090345100240370REGTIT24411902038922     000000000000597951740000000000000000000000000906280219190203892200000000000059795174280219000000002231910403755  000000000000000000000000000000000000000000000000000000000000000000000000000000000000002231900000000000000000000000000   010319078          00000000000000                                                                  000201
1020874591800017100000090345100240370REGTIT24411902038962     000000000000597951820000000000000000000000000906280219190203896200000000000059795182280219000000001500034106083  000000000000000000000000000000000000000000000000000000000000000000000000000000000000001500000000000000000000000000000   010319078          00000000000000                                                                  000202
1020874591800017100000090345100240370REGTIT24411902039022     000000000000597951900000000000000000000000000906280219190203902200000000000059795190280219000000000999004101141  000000000000000000000000000000000000000000000000000000000000000000000000000000000000000999000000000000000000000000000   010319078          00000000000000                                                                  000203
1020874591800017100000090345100240370REGTIT24411902039100     000000000000597952040000000000000000000000000906280219190203910000000000000059795204280219000000001429010403170  000000000000000000000000000000000000000000000000000000000000000000000000000000000000001429000000000000000000000000000   010319078          00000000000000                                                                  000204
1020874591800017100000090345100240370REGTIT24411902039249     000000000000597952200000000000000000000000000906280219190203924900000000000059795220280219000000010337500100773  000000000000000000000000000000000000000000000000000000000000000000000000000000000000010337500000000000000000000000000   010319078          00000000000000                                                                  000205
1020874591800017100000090345100240370REGTIT24411902039990     000000000000597952980000000000000000000000000906280219190203999000000000000059795298280219000000002419300101534  000000000000000000000000000000000000000000000000000000000000000000000000000000000000002419300000000000000000000000000   010319078          00000000000000                                                                  000206
1020874591800017100000090345100240370REGTIT24411902040344     000000000000597953360000000000000000000000000906280219190204034400000000000059795336280219000000002068510402093  000000000000000000000000000000000000000000000000000000000000000000000000000000000000002068500000000000000000000000000   010319078          00000000000000                                                                  000207
1020874591800017100000090345100240370REGTIT24411902040353     000000000000597953440000000000000000000000000906280219190204035300000000000059795344280219000000001434034109926  000000000000000000000000000000000000000000000000000000000000000000000000000000000000001434000000000000000000000000000   010319078          00000000000000                                                                  000208
1020874591800017100000090345100240370REGTIT24411902040470     000000000000597953790000000000000000000000000906280219190204047000000000000059795379280219000000001714010401318  000000000000000000000000000000000000000000000000000000000000000000000000000000000000001714000000000000000000000000000   010319078          00000000000000                                                                  000209
1020874591800017100000090345100240370REGTIT24411902040778     000000000000597954250000000000000000000000000906280219190204077800000000000059795425280219000000003804634105443  000000000000000000000000000000000000000000000000000000000000000000000000000000000000003804600000000000000000000000000   010319078          00000000000000                                                                  000210
1020874591800017100000090345100240370REGTIT24411902041334     000000000000597954840000000000000000000000000906280219190204133400000000000059795484280219000000001148034109713  000000000000000000000000000000000000000000000000000000000000000000000000000000000000001148000000000000000000000000000   010319078          00000000000000                                                                  000211
1020874591800017100000090345100240370REGTIT24411902041426     000000000000597954920000000000000000000000000906280219190204142600000000000059795492280219000000001864010400846  000000000000000000000000000000000000000000000000000000000000000000000000000000000000001864000000000000000000000000000   010319078          00000000000000                                                                  000212
1020874591800017100000090345100240370REGTIT24411902041459     000000000000597955060000000000000000000000000906280219190204145900000000000059795506280219000000001548000100509  000000000000000000000000000000000000000000000000000000000000000000000000000000000000001548000000000000000000000000000   010319078          00000000000000                                                                  000213
1020874591800017100000090345100240370REGTIT24411902041723     000000000000597955300000000000000000000000000906280219190204172300000000000059795530280219000000001348010401282  000000000000000000000000000000000000000000000000000000000000000000000000000000000000001348000000000000000000000000000   010319078          00000000000000                                                                  000214
1020874591800017100000090345100240370REGTIT24411902041915     000000000000597955490000000000000000000000000906280219190204191500000000000059795549280219000000002439410403168  000000000000000000000000000000000000000000000000000000000000000000000000000000000000002439400000000000000000000000000   010319078          00000000000000                                                                  000215
1020874591800017100000090345100240370REGTIT24411902042375     000000000000597956110000000000000000000000000906280219190204237500000000000059795611280219000000001066934103730  000000000000000000000000000000000000000000000000000000000000000000000000000000000000001066900000000000000000000000000   010319078          00000000000000                                                                  000216
1020874591800017100000090345100240370REGTIT24411902042596     000000000000597956460000000000000000000000000906280219190204259600000000000059795646280219000000000699010402122  000000000000000000000000000000000000000000000000000000000000000000000000000000000000000699000000000000000000000000000   010319078          00000000000000                                                                  000217
1020874591800017100000090345100240370REGTIT24411902042607     000000000000597956540000000000000000000000000906280219190204260700000000000059795654280219000000002811310404939  000000000000000000000000000000000000000000000000000000000000000000000000000000000000002811300000000000000000000000000   010319078          00000000000000                                                                  000218
1020874591800017100000090345100240370REGTIT24411902042947     000000000000597957000000000000000000000000000906280219190204294700000000000059795700280219000000000799075604340  000000000000000000000000000000000000000000000000000000000000000000000000000000000000000799000000000000000000000000000   010319078          00000000000000                                                                  000219
1020874591800017100000090345100240370REGTIT24411902043670     000000000000597957350000000000000000000000000906280219190204367000000000000059795735280219000000003416275604425  000000000000000000000000000000000000000000000000000000000000000000000000000000000000003416200000000000000000000000000   010319078          00000000000000                                                                  000220
1020874591800017100000090345100240370REGTIT24411902043890     0000000000005979576P000000000000000000000000090628021919020438900000000000005979576P280219000000004420874807115  000000000000000000000000000000000000000000000000000000000000000000000000000000000000004420800000000000000000000000000   010319078          00000000000000                                                                  000221
1020874591800017100000090345100240370REGTIT24411902044067     000000000000597958080000000000000000000000000906280219190204406700000000000059795808280219000000000998010403866  000000000000000000000000000000000000000000000000000000000000000000000000000000000000000998000000000000000000000000000   010319078          00000000000000                                                                  000222
1020874591800017100000090345100240370REGTIT24411902044111     000000000000597958160000000000000000000000000906280219190204411100000000000059795816280219000000005944923707988  000000000000000000000000000000000000000000000000000000000000000000000000000000000000005944900000000000000000000000000   010319066          00000000000000                                                                  000223
1020874591800017100000090345100240370REGTIT24411902044282     000000000000597958400000000000000000000000000906280219190204428200000000000059795840280219000000003043503304408  000000000000000000000000000000000000000000000000000000000000000000000000000000000000003043500000000000000000000000000   010319078          00000000000000                                                                  000224
1020874591800017100000090345100240370REGTIT24411902044309     000000000000597958590000000000000000000000000906280219190204430900000000000059795859280219000000001448003301552  000000000000000000000000000000000000000000000000000000000000000000000000000000000000001448000000000000000000000000000   010319078          00000000000000                                                                  000225
1020874591800017100000090345100240370REGTIT24411902044377     000000000000597958750000000000000000000000000906280219190204437700000000000059795875280219000000002990934100083  000000000000000000000000000000000000000000000000000000000000000000000000000000000000002990900000000000000000000000000   010319078          00000000000000                                                                  000226
1020874591800017100000090345100240370REGTIT24411902044990     000000000000597959050000000000000000000000000906280219190204499000000000000059795905280219000000002563523702223  000000000000000000000000000000000000000000000000000000000000000000000000000000000000002563500000000000000000000000000   010319035          00000000000000                                                                  000227
1020874591800017100000090345100240370REGTIT24411902045113     000000000000597959130000000000000000000000000906280219190204511300000000000059795913280219000000002605200102324  000000000000000000000000000000000000000000000000000000000000000000000000000000000000002605200000000000000000000000000   010319078          00000000000000                                                                  000228
1020874591800017100000090345100240370REGTIT24411902045154     000000000000597959210000000000000000000000000906280219190204515400000000000059795921280219000000003119334107473  000000000000000000000000000000000000000000000000000000000000000000000000000000000000003119300000000000000000000000000   010319078          00000000000000                                                                  000229
1020874591800017100000090345100240370REGTIT24411902045288     000000000000597959480000000000000000000000000906280219190204528800000000000059795948280219000000001748023702015  000000000000000000000000000000000000000000000000000000000000000000000000000000000000001748000000000000000000000000000   010319002          00000000000000                                                                  000230
1020874591800017100000090345100240370REGTIT24411902045494     000000000000597959640000000000000000000000000906280219190204549400000000000059795964280219000000002291100108719  000000000000000000000000000000000000000000000000000000000000000000000000000000000000002291100000000000000000000000000   010319078          00000000000000                                                                  000231
1020874591800017100000090345100240370REGTIT24411902045808     000000000000597960140000000000000000000000000906280219190204580800000000000059796014280219000000002188074800728  000000000000000000000000000000000000000000000000000000000000000000000000000000000000002188000000000000000000000000000   010319078          00000000000000                                                                  000232
1020874591800017100000090345100240370REGTIT24411902045834     000000000000597960300000000000000000000000000906280219190204583400000000000059796030280219000000001299010400967  000000000000000000000000000000000000000000000000000000000000000000000000000000000000001299000000000000000000000000000   010319078          00000000000000                                                                  000233
1020874591800017100000090345100240370REGTIT24411902045871     000000000000597960490000000000000000000000000906280219190204587100000000000059796049280219000000001874000102911  000000000000000000000000000000000000000000000000000000000000000000000000000000000000001874000000000000000000000000000   010319078          00000000000000                                                                  000234
1020874591800017100000090345100240370REGTIT24411902045954     000000000000597960650000000000000000000000000906280219190204595400000000000059796065280219000000002213534100757  000000000000000000000000000000000000000000000000000000000000000000000000000000000000002213500000000000000000000000000   010319078          00000000000000                                                                  000235
1020874591800017100000090345100240370REGTIT24411902046119     000000000000597960730000000000000000000000000906280219190204611900000000000059796073280219000000000799010401398  000000000000000000000000000000000000000000000000000000000000000000000000000000000000000799000000000000000000000000000   010319078          00000000000000                                                                  000236
1020874591800017100000090345100240370REGTIT24411902046776     000000000000597961110000000000000000000000000906280219190204677600000000000059796111280219000000002726923701641  000000000000000000000000000000000000000000000000000000000000000000000000000000000000002726900000000000000000000000000   010319074          00000000000000                                                                  000237
1020874591800017100000090345100240370REGTIT24411902046868     000000000000597961380000000000000000000000000906280219190204686800000000000059796138280219000000000998010401282  000000000000000000000000000000000000000000000000000000000000000000000000000000000000000998000000000000000000000000000   010319078          00000000000000                                                                  000238
1020874591800017100000090345100240370REGTIT24411902046996     000000000000597961700000000000000000000000000906280219190204699600000000000059796170280219000000002107534106868  000000000000000000000000000000000000000000000000000000000000000000000000000000000000002107500000000000000000000000000   010319078          00000000000000                                                                  000239
1020874591800017100000090345100240370REGTIT24411902047007     000000000000597961890000000000000000000000000906280219190204700700000000000059796189280219000000000998034100942  000000000000000000000000000000000000000000000000000000000000000000000000000000000000000998000000000000000000000000000   010319078          00000000000000                                                                  000240
1020874591800017100000090345100240370REGTIT24411902047124     000000000000597961970000000000000000000000000906280219190204712400000000000059796197280219000000002226100103629  000000000000000000000000000000000000000000000000000000000000000000000000000000000000002226100000000000000000000000000   010319078          00000000000000                                                                  000241
1020874591800017100000090345100240370REGTIT24411902047199     000000000000597962270000000000000000000000000906280219190204719900000000000059796227280219000000002180800100466  000000000000000000000000000000000000000000000000000000000000000000000000000000000000002180800000000000000000000000000   010319078          00000000000000                                                                  000242
1020874591800017100000090345100240370REGTIT24411902047318     000000000000597962350000000000000000000000000906280219190204731800000000000059796235280219000000001877510404119  000000000000000000000000000000000000000000000000000000000000000000000000000000000000001877500000000000000000000000000   010319078          00000000000000                                                                  000243
1020874591800017100000090345100240370REGTIT24411902047351     000000000000597962430000000000000000000000000906280219190204735100000000000059796243280219000000002103034100083  000000000000000000000000000000000000000000000000000000000000000000000000000000000000002103000000000000000000000000000   010319078          00000000000000                                                                  000244
1020874591800017100000090345100240370REGTIT24411902047396     000000000000597962510000000000000000000000000906280219190204739600000000000059796251280219000000002907023701205  000000000000000000000000000000000000000000000000000000000000000000000000000000000000002907000000000000000000000000000   010319035          00000000000000                                                                  000245
1020874591800017100000090345100240370REGTIT24411902047441     000000000000597962780000000000000000000000000906280219190204744100000000000059796278280219000000002828075604355  000000000000000000000000000000000000000000000000000000000000000000000000000000000000002828000000000000000000000000000   010319078          00000000000000                                                                  000246
1020874591800017100000090345100240370REGTIT24411902047624     000000000000597963080000000000000000000000000906280219190204762400000000000059796308280219000000001938323700173  000000000000000000000000000000000000000000000000000000000000000000000000000000000000001938300000000000000000000000000   010319074          00000000000000                                                                  000247
1020874591800017100000090345100240370REGTIT24411902048273     000000000000597963320000000000000000000000000906280219190204827300000000000059796332280219000000002102074809013  000000000000000000000000000000000000000000000000000000000000000000000000000000000000002102000000000000000000000000000   010319078          00000000000000                                                                  000248
