02RETORNO01COBRANCA       00000000000004852239ISPCN ADM DE COBRANCA DE TITUL237BRADESCO       1103190160000000600                                                                                                                                                                                                                                                                          120319         000001
102122445950001000000009034510032549PREGTIT29982421829998     000000000000575317220000000000000000000000000902110319000575317200000000000057531722090519000000001333323704151  000000000014300000000000000000000000000000000000000000000000000000000000000000000000000000000000000000000000000000000                          0000000000                                                                  000002
102122445950001000000009034510032549PREGTIT29989823917200     0000000000005801957P000000000000000000000000090211031900058019570000000000005801957P090519000000004000023704151  000000000014300000000000000000000000000000000000000000000000000000000000000000000000000000000000000000000000000000000                          0000000000                                                                  000003
102122445950001000000009034510032549PREGTIT29987726020059     0000000000005819701P000000000000000000000000090211031900058197010000000000005819701P100519000000003310023704151  000000000014300000000000000000000000000000000000000000000000000000000000000000000000000000000000000000000000000000000                          0000000000                                                                  000004
102122445950001000000009034510032549PREGTIT29984873786225     000000000000582035590000000000000000000000000902110319000582035500000000000058203559080519000000005500023704151  000000000014300000000000000000000000000000000000000000000000000000000000000000000000000000000000000000000000000000000                          0000000000                                                                  000005
102122445950001000000009034510032549PREGTIT29988948476583     000000000000588844160000000000000000000000000902110319000588844100000000000058884416100519000000000700023704159  000000000014300000000000000000000000000000000000000000000000000000000000000000000000000000000000000000000000000000000                          0000000000                                                                  000006
102122445950001000000009034510032549PREGTIT29981391722787     0000000000005888453P000000000000000000000000090211031900058884530000000000005888453P100519000000000700023704159  000000000014300000000000000000000000000000000000000000000000000000000000000000000000000000000000000000000000000000000                          0000000000                                                                  000007
102122445950001000000009034510032549PREGTIT30053779780653     000000000000588895070000000000000000000000000902110319000588895000000000000058889507100519000000003250023704158  000000000014300000000000000000000000000000000000000000000000000000000000000000000000000000000000000000000000000000000                          0000000000                                                                  000008
102122445950001000000009034510032549PREGTIT29986672525753     000000000000589016040000000000000000000000000902110319000589016000000000000058901604080519000000005000023704152  000000000014300000000000000000000000000000000000000000000000000000000000000000000000000000000000000000000000000000000                          0000000000                                                                  000009
102122445950001000000009034510032549PREGTIT29987120754313     000000000000589065680000000000000000000000000902110319000589065600000000000058906568100519000000003500023704151  000000000014300000000000000000000000000000000000000000000000000000000000000000000000000000000000000000000000000000000                          0000000000                                                                  000010
102122445950001000000009034510032549PREGTIT29989495722754     000000000000589588780000000000000000000000000902110319000589588700000000000058958878090519000000005500023704157  000000000014300000000000000000000000000000000000000000000000000000000000000000000000000000000000000000000000000000000                          0000000000                                                                  000011
102122445950001000000009034510032549PREGTIT29989804421584     000000000000589633400000000000000000000000000902110319000589633400000000000058963340100519000000001916623704151  000000000014300000000000000000000000000000000000000000000000000000000000000000000000000000000000000000000000000000000                          7600000000                                                                  000012
102122445950001000000009034510032549PREGTIT29987287572808     000000000000589671920000000000000000000000000902110319000589671900000000000058967192100519000000003000023704151  000000000014300000000000000000000000000000000000000000000000000000000000000000000000000000000000000000000000000000000                          0000000000                                                                  000013
102122445950001000000009034510032549PREGTIT29987797334885     000000000000589968340000000000000000000000000902110319000589968300000000000058996834080519000000002200023704151  000000000014300000000000000000000000000000000000000000000000000000000000000000000000000000000000000000000000000000000                          0000000000                                                                  000014
102122445950001000000009034510032549PREGTIT30058698427987     000000000000589990270000000000000000000000000902110319000589990200000000000058999027100519000000003250023704144  000000000014300000000000000000000000000000000000000000000000000000000000000000000000000000000000000000000000000000000                          0000000000                                                                  000015
102122445950001000000009034510032549PREGTIT29988159293168     000000000000590237400000000000000000000000000902110319000590237400000000000059023740080519000000002830023704151  000000000014300000000000000000000000000000000000000000000000000000000000000000000000000000000000000000000000000000000                          0000000000                                                                  000016
102122445950001000000009034510032549PREGTIT30037467476642     000000000000590988990000000000000000000000000902110319000590988900000000000059098899100519000000000800023703451  000000000014300000000000000000000000000000000000000000000000000000000000000000000000000000000000000000000000000000000                          0000000000                                                                  000017
102122445950001000000009034510032549PREGTIT29988417550168     000000000000591054960000000000000000000000000902110319000591054900000000000059105496100519000000004200023704151  000000000014300000000000000000000000000000000000000000000000000000000000000000000000000000000000000000000000000000000                          7600000000                                                                  000018
102122445950001000000009034510032549PREGTIT29989990125087     000000000000591072190000000000000000000000000902110319000591072100000000000059107219100519000000002900023704274  000000000014300000000000000000000000000000000000000000000000000000000000000000000000000000000000000000000000000000000                          0000000000                                                                  000019
102122445950001000000009034510032549PREGTIT29981681650442     0000000000005910936P000000000000000000000000090211031900059109360000000000005910936P080519000000001900023704151  000000000014300000000000000000000000000000000000000000000000000000000000000000000000000000000000000000000000000000000                          0000000000                                                                  000020
102122445950001000000009034510032549PREGTIT29987798532454     000000000000591101710000000000000000000000000902110319000591101700000000000059110171100519000000002000023704426  000000000014300000000000000000000000000000000000000000000000000000000000000000000000000000000000000000000000000000000                          7600000000                                                                  000021
102122445950001000000009034510032549PREGTIT29985615489288     000000000000591102790000000000000000000000000902110319000591102700000000000059110279100519000000001790023704151  000000000014300000000000000000000000000000000000000000000000000000000000000000000000000000000000000000000000000000000                          7600000000                                                                  000022
102122445950001000000009034510032549PREGTIT29987539133106     0000000000005911245P000000000000000000000000090211031900059112450000000000005911245P100519000000003150023703451  000000000014300000000000000000000000000000000000000000000000000000000000000000000000000000000000000000000000000000000                          0000000000                                                                  000023
102122445950001000000009034510032549PREGTIT29982156277464     000000000000591634020000000000000000000000000902110319000591634000000000000059163402100519000000001680023704151  000000000014300000000000000000000000000000000000000000000000000000000000000000000000000000000000000000000000000000000                          0000000000                                                                  000024
102122445950001000000009034510032549PREGTIT29982430510433     000000000000591667460000000000000000000000000902110319000591667400000000000059166746100519000000003500023704151  000000000014300000000000000000000000000000000000000000000000000000000000000000000000000000000000000000000000000000000                          7600000000                                                                  000025
102122445950001000000009034510032549PREGTIT29983974742744     000000000000591716260000000000000000000000000902110319000591716200000000000059171626100519000000005000023704151  000000000014300000000000000000000000000000000000000000000000000000000000000000000000000000000000000000000000000000000                          0000000000                                                                  000026
102122445950001000000009034510032549PREGTIT29984734059580     000000000000591747220000000000000000000000000902110319000591747200000000000059174722100519000000004000023704151  000000000014300000000000000000000000000000000000000000000000000000000000000000000000000000000000000000000000000000000                          0000000000                                                                  000027
102122445950001000000009034510032549PREGTIT29988258077965     000000000000591762370000000000000000000000000902110319000591762300000000000059176237100519000000002590023703451  000000000014300000000000000000000000000000000000000000000000000000000000000000000000000000000000000000000000000000000                          0000000000                                                                  000028
102122445950001000000009034510032549PREGTIT29985215634749     000000000000591776080000000000000000000000000902110319000591776000000000000059177608090519000000001000023703451  000000000014300000000000000000000000000000000000000000000000000000000000000000000000000000000000000000000000000000000                          0000000000                                                                  000029
102122445950001000000009034510032549PREGTIT29982080297515     000000000000591793920000000000000000000000000902110319000591793900000000000059179392100519000000001529223704144  000000000014300000000000000000000000000000000000000000000000000000000000000000000000000000000000000000000000000000000                          7600000000                                                                  000030
102122445950001000000009034510032549PREGTIT29986029713716     000000000000591797400000000000000000000000000902110319000591797400000000000059179740080519000000002500023704151  000000000014300000000000000000000000000000000000000000000000000000000000000000000000000000000000000000000000000000000                          0000000000                                                                  000031
102122445950001000000009034510032549PREGTIT29986421346304     000000000000591801880000000000000000000000000902110319000591801800000000000059180188100519000000001500023704151  000000000014300000000000000000000000000000000000000000000000000000000000000000000000000000000000000000000000000000000                          7600000000                                                                  000032
102122445950001000000009034510032549PREGTIT29987717104939     000000000000591844500000000000000000000000000902110319000591844500000000000059184450100519000000005000023704157  000000000014300000000000000000000000000000000000000000000000000000000000000000000000000000000000000000000000000000000                          0000000000                                                                  000033
102122445950001000000009034510032549PREGTIT29985299494361     0000000000005919216P000000000000000000000000090211031900059192160000000000005919216P100519000000002500023704151  000000000014300000000000000000000000000000000000000000000000000000000000000000000000000000000000000000000000000000000                          0000000000                                                                  000034
102122445950001000000009034510032549PREGTIT29981461101120     000000000000591979940000000000000000000000000902110319000591979900000000000059197994100519000000000480023703451  000000000014300000000000000000000000000000000000000000000000000000000000000000000000000000000000000000000000000000000                          0000000000                                                                  000035
102122445950001000000009034510032549PREGTIT29988370831741     000000000000591987020000000000000000000000000902110319000591987000000000000059198702100519000000001990023703451  000000000014300000000000000000000000000000000000000000000000000000000000000000000000000000000000000000000000000000000                          0000000000                                                                  000036
102122445950001000000009034510032549PREGTIT29981195049165     000000000000592005960000000000000000000000000902110319000592005900000000000059200596100519000000005980023703451  000000000014300000000000000000000000000000000000000000000000000000000000000000000000000000000000000000000000000000000                          0000000000                                                                  000037
102122445950001000000009034510032549PREGTIT29987816114810     000000000000592022970000000000000000000000000902110319000592022900000000000059202297100519000000001939923703451  000000000014300000000000000000000000000000000000000000000000000000000000000000000000000000000000000000000000000000000                          0000000000                                                                  000038
102122445950001000000009034510032549PREGTIT29986245446039     000000000000592059970000000000000000000000000902110319000592059900000000000059205997100519000000001230023703451  000000000014300000000000000000000000000000000000000000000000000000000000000000000000000000000000000000000000000000000                          7600000000                                                                  000039
102122445950001000000009034510032549PREGTIT29981681883430     0000000000005920611P000000000000000000000000090211031900059206110000000000005920611P100519000000004420023703451  000000000014300000000000000000000000000000000000000000000000000000000000000000000000000000000000000000000000000000000                          0000000000                                                                  000040
102122445950001000000009034510032549PREGTIT29984763757495     000000000000592073100000000000000000000000000902110319000592073100000000000059207310100519000000001500023704151  000000000014300000000000000000000000000000000000000000000000000000000000000000000000000000000000000000000000000000000                          0000000000                                                                  000041
102122445950001000000009034510032549PREGTIT29982464945564     000000000000592079490000000000000000000000000902110319000592079400000000000059207949100519000000000950023703451  000000000014300000000000000000000000000000000000000000000000000000000000000000000000000000000000000000000000000000000                          0000000000                                                                  000042
102122445950001000000009034510032549PREGTIT29985755425923     000000000000592097200000000000000000000000000902110319000592097200000000000059209720100519000000000480023704151  000000000014300000000000000000000000000000000000000000000000000000000000000000000000000000000000000000000000000000000                          0000000000                                                                  000043
102122445950001000000009034510032549PREGTIT29989595730048     000000000000592584380000000000000000000000000902110319000592584300000000000059258438100519000000002100023703451  000000000014300000000000000000000000000000000000000000000000000000000000000000000000000000000000000000000000000000000                          0000000000                                                                  000044
102122445950001000000009034510032549PREGTIT29981125811735     0000000000005925890P000000000000000000000000090211031900059258900000000000005925890P090519000000001480023704151  000000000014300000000000000000000000000000000000000000000000000000000000000000000000000000000000000000000000000000000                          7600000000                                                                  000045
102122445950001000000009034510032549PREGTIT29984237266311     000000000000592598840000000000000000000000000902110319000592598800000000000059259884090519000000000400523704157  000000000014300000000000000000000000000000000000000000000000000000000000000000000000000000000000000000000000000000000                          0000000000                                                                  000046
102122445950001000000009034510032549PREGTIT29988543980866     000000000000592604320000000000000000000000000902110319000592604300000000000059260432100519000000003570023704428  000000000014300000000000000000000000000000000000000000000000000000000000000000000000000000000000000000000000000000000                          0000000000                                                                  000047
102122445950001000000009034510032549PREGTIT29983077257470     000000000000592614120000000000000000000000000902110319000592614100000000000059261412100519000000003400023704151  000000000014300000000000000000000000000000000000000000000000000000000000000000000000000000000000000000000000000000000                          7600000000                                                                  000048
102122445950001000000009034510032549PREGTIT29982164066189     000000000000592634310000000000000000000000000902110319000592634300000000000059263431100519000000002408323704151  000000000014300000000000000000000000000000000000000000000000000000000000000000000000000000000000000000000000000000000                          7600000000                                                                  000049
102122445950001000000009034510032549PREGTIT29983928015000     0000000000005926683P000000000000000000000000090211031900059266830000000000005926683P100519000000003931923704152  000000000014300000000000000000000000000000000000000000000000000000000000000000000000000000000000000000000000000000000                          0000000000                                                                  000050
102122445950001000000009034510032549PREGTIT29984552956637     000000000000592673560000000000000000000000000902110319000592673500000000000059267356100519000000001000023703451  000000000014300000000000000000000000000000000000000000000000000000000000000000000000000000000000000000000000000000000                          0000000000                                                                  000051
102122445950001000000009034510032549PREGTIT29988652209780     000000000000592762070000000000000000000000000902110319000592762000000000000059276207100519000000000680023704151  000000000014300000000000000000000000000000000000000000000000000000000000000000000000000000000000000000000000000000000                          0000000000                                                                  000052
102122445950001000000009034510032549PREGTIT29982532118049     000000000000592763040000000000000000000000000902110319000592763000000000000059276304100519000000002290023704151  000000000014300000000000000000000000000000000000000000000000000000000000000000000000000000000000000000000000000000000                          0000000000                                                                  000053
102122445950001000000009034510032549PREGTIT29981763557121     000000000000592768430000000000000000000000000902110319000592768400000000000059276843100519000000003000023704151  000000000014300000000000000000000000000000000000000000000000000000000000000000000000000000000000000000000000000000000                          0000000000                                                                  000054
102122445950001000000009034510032549PREGTIT29982961462202     000000000000592786170000000000000000000000000902110319000592786100000000000059278617100519000000008100023704151  000000000014300000000000000000000000000000000000000000000000000000000000000000000000000000000000000000000000000000000                          0000000000                                                                  000055
102122445950001000000009034510032549PREGTIT29989596094153     000000000000592787490000000000000000000000000902110319000592787400000000000059278749100519000000001380023704151  000000000014300000000000000000000000000000000000000000000000000000000000000000000000000000000000000000000000000000000                          0000000000                                                                  000056
102122445950001000000009034510032549PREGTIT29981267540463     000000000000592793030000000000000000000000000902110319000592793000000000000059279303080519000000001980023703451  000000000014300000000000000000000000000000000000000000000000000000000000000000000000000000000000000000000000000000000                          0000000000                                                                  000057
102122445950001000000009034510032549PREGTIT29988968267382     000000000000592837770000000000000000000000000902110319000592837700000000000059283777080519000000002100023704151  000000000014300000000000000000000000000000000000000000000000000000000000000000000000000000000000000000000000000000000                          0000000000                                                                  000058
102122445950001000000009034510032549PREGTIT29989679384330     000000000000592839470000000000000000000000000902110319000592839400000000000059283947100519000000003800023704151  000000000014300000000000000000000000000000000000000000000000000000000000000000000000000000000000000000000000000000000                          7600000000                                                                  000059
102122445950001000000009034510032549PREGTIT29983805474531     0000000000005928417P000000000000000000000000090211031900059284170000000000005928417P100519000000002980023703451  000000000014300000000000000000000000000000000000000000000000000000000000000000000000000000000000000000000000000000000                          0000000000                                                                  000060
102122445950001000000009034510032549PREGTIT29982119378319     000000000000592859070000000000000000000000000902110319000592859000000000000059285907100519000000005000023704157  000000000014300000000000000000000000000000000000000000000000000000000000000000000000000000000000000000000000000000000                          0000000000                                                                  000061
102122445950001000000009034510032549PREGTIT29988676623337     000000000000592868490000000000000000000000000902110319000592868400000000000059286849100519000000003000023704157  000000000014300000000000000000000000000000000000000000000000000000000000000000000000000000000000000000000000000000000                          0000000000                                                                  000062
102122445950001000000009034510032549PREGTIT29989746472318     000000000000592872410000000000000000000000000902110319000592872400000000000059287241100519000000006000023704157  000000000014300000000000000000000000000000000000000000000000000000000000000000000000000000000000000000000000000000000                          0000000000                                                                  000063
102122445950001000000009034510032549PREGTIT29987157298727     0000000000005929034P000000000000000000000000090211031900059290340000000000005929034P100519000000001000023703451  000000000014300000000000000000000000000000000000000000000000000000000000000000000000000000000000000000000000000000000                          0000000000                                                                  000064
102122445950001000000009034510032549PREGTIT29986860810737     000000000000592921640000000000000000000000000902110319000592921600000000000059292164100519000000000890023704151  000000000014300000000000000000000000000000000000000000000000000000000000000000000000000000000000000000000000000000000                          0000000000                                                                  000065
102122445950001000000009034510032549PREGTIT30033900584176     000000000000592955030000000000000000000000000902110319000592955000000000000059295503100519000000000300023703451  000000000014300000000000000000000000000000000000000000000000000000000000000000000000000000000000000000000000000000000                          0000000000                                                                  000066
102122445950001000000009034510032549PREGTIT29987533377317     000000000000592971740000000000000000000000000902110319000592971700000000000059297174100519000000001000023704151  000000000014300000000000000000000000000000000000000000000000000000000000000000000000000000000000000000000000000000000                          0000000000                                                                  000067
102122445950001000000009034510032549PREGTIT29989742044380     000000000000592984990000000000000000000000000902110319000592984900000000000059298499100519000000000900023703451  000000000014300000000000000000000000000000000000000000000000000000000000000000000000000000000000000000000000000000000                          0000000000                                                                  000068
102122445950001000000009034510032549PREGTIT29989288525539     000000000000592990450000000000000000000000000902110319000592990400000000000059299045100519000000002500023704151  000000000014300000000000000000000000000000000000000000000000000000000000000000000000000000000000000000000000000000000                          0000000000                                                                  000069
102122445950001000000009034510032549PREGTIT29982941104769     000000000000592991850000000000000000000000000902110319000592991800000000000059299185100519000000004133423704151  000000000014300000000000000000000000000000000000000000000000000000000000000000000000000000000000000000000000000000000                          0000000000                                                                  000070
102122445950001000000009034510032549PREGTIT29987626360091     000000000000592993630000000000000000000000000902110319000592993600000000000059299363100519000000000875023703451  000000000014300000000000000000000000000000000000000000000000000000000000000000000000000000000000000000000000000000000                          0000000000                                                                  000071
102122445950001000000009034510032549PREGTIT29985639802589     000000000000593058350000000000000000000000000902110319000593058300000000000059305835100519000000001250023703451  000000000014300000000000000000000000000000000000000000000000000000000000000000000000000000000000000000000000000000000                          0000000000                                                                  000072
102122445950001000000009034510032549PREGTIT29989496404445     000000000000593064910000000000000000000000000902110319000593064900000000000059306491080519000000002000023704151  000000000014300000000000000000000000000000000000000000000000000000000000000000000000000000000000000000000000000000000                          0000000000                                                                  000073
102122445950001000000009034510032549PREGTIT29987859842657     000000000000593075520000000000000000000000000902110319000593075500000000000059307552100519000000003000023704144  000000000014300000000000000000000000000000000000000000000000000000000000000000000000000000000000000000000000000000000                          0000000000                                                                  000074
102122445950001000000009034510032549PREGTIT29984419638365     000000000000593101460000000000000000000000000902110319000593101400000000000059310146080519000000001400023703451  000000000014300000000000000000000000000000000000000000000000000000000000000000000000000000000000000000000000000000000                          7600000000                                                                  000075
102122445950001000000009034510032549PREGTIT29982576492557     000000000000593116300000000000000000000000000902110319000593116300000000000059311630100519000000002500023704151  000000000014300000000000000000000000000000000000000000000000000000000000000000000000000000000000000000000000000000000                          7600000000                                                                  000076
102122445950001000000009034510032549PREGTIT29985043684707     000000000000593147370000000000000000000000000902110319000593147300000000000059314737080519000000000850023703451  000000000014300000000000000000000000000000000000000000000000000000000000000000000000000000000000000000000000000000000                          0000000000                                                                  000077
102122445950001000000009034510032549PREGTIT29989183736277     000000000000593149310000000000000000000000000902110319000593149300000000000059314931100519000000003340023704151  000000000014300000000000000000000000000000000000000000000000000000000000000000000000000000000000000000000000000000000                          0000000000                                                                  000078
102122445950001000000009034510032549PREGTIT29981581550944     000000000000593151050000000000000000000000000902110319000593151000000000000059315105100519000000000775023703451  000000000014300000000000000000000000000000000000000000000000000000000000000000000000000000000000000000000000000000000                          0000000000                                                                  000079
102122445950001000000009034510032549PREGTIT29986867149691     000000000000593162090000000000000000000000000902110319000593162000000000000059316209080519000000001080023703451  000000000014300000000000000000000000000000000000000000000000000000000000000000000000000000000000000000000000000000000                          0000000000                                                                  000080
102122445950001000000009034510032549PREGTIT29989086673843     000000000000593163060000000000000000000000000902110319000593163000000000000059316306100519000000005200023704151  000000000014300000000000000000000000000000000000000000000000000000000000000000000000000000000000000000000000000000000                          7600000000                                                                  000081
102122445950001000000009034510032549PREGTIT29982726064034     000000000000593164030000000000000000000000000902110319000593164000000000000059316403100519000000001980023704151  000000000014300000000000000000000000000000000000000000000000000000000000000000000000000000000000000000000000000000000                          0000000000                                                                  000082
102122445950001000000009034510032549PREGTIT29986049693566     000000000000593165000000000000000000000000000902110319000593165000000000000059316500100519000000003080023704151  000000000014300000000000000000000000000000000000000000000000000000000000000000000000000000000000000000000000000000000                          0000000000                                                                  000083
102122445950001000000009034510032549PREGTIT29988066662674     000000000000593721920000000000000000000000000902110319000593721900000000000059372192100519000000000875023703451  000000000014300000000000000000000000000000000000000000000000000000000000000000000000000000000000000000000000000000000                          0000000000                                                                  000084
102122445950001000000009034510032549PREGTIT29985792293424     000000000000593723700000000000000000000000000902110319000593723700000000000059372370080519000000000770023703451  000000000014300000000000000000000000000000000000000000000000000000000000000000000000000000000000000000000000000000000                          0000000000                                                                  000085
102122445950001000000009034510032549PREGTIT29982210416495     000000000000593730910000000000000000000000000902110319000593730900000000000059373091100519000000001375023703451  000000000014300000000000000000000000000000000000000000000000000000000000000000000000000000000000000000000000000000000                          0000000000                                                                  000086
102122445950001000000009034510032549PREGTIT29988916393154     000000000000593770700000000000000000000000000902110319000593770700000000000059377070100519000000001990023703451  000000000014300000000000000000000000000000000000000000000000000000000000000000000000000000000000000000000000000000000                          0000000000                                                                  000087
102122445950001000000009034510032549PREGTIT29982091783868     000000000000593772830000000000000000000000000902110319000593772800000000000059377283100519000000003150023704151  000000000014300000000000000000000000000000000000000000000000000000000000000000000000000000000000000000000000000000000                          0000000000                                                                  000088
102122445950001000000009034510032549PREGTIT29989059246331     000000000000593790220000000000000000000000000902110319000593790200000000000059379022100519000000001800023704151  000000000014300000000000000000000000000000000000000000000000000000000000000000000000000000000000000000000000000000000                          0000000000                                                                  000089
102122445950001000000009034510032549PREGTIT29987499371576     000000000000593794480000000000000000000000000902110319000593794400000000000059379448100519000000001062523703451  000000000014300000000000000000000000000000000000000000000000000000000000000000000000000000000000000000000000000000000                          0000000000                                                                  000090
102122445950001000000009034510032549PREGTIT29985416208861     0000000000005938087P000000000000000000000000090211031900059380870000000000005938087P100519000000004500023704144  000000000014300000000000000000000000000000000000000000000000000000000000000000000000000000000000000000000000000000000                          0000000000                                                                  000091
102122445950001000000009034510032549PREGTIT29985878237407     000000000000593825620000000000000000000000000902110319000593825600000000000059382562100519000000000850023703451  000000000014300000000000000000000000000000000000000000000000000000000000000000000000000000000000000000000000000000000                          0000000000                                                                  000092
102122445950001000000009034510032549PREGTIT29982312986771     000000000000593831270000000000000000000000000902110319000593831200000000000059383127100519000000001000023703451  000000000014300000000000000000000000000000000000000000000000000000000000000000000000000000000000000000000000000000000                          0000000000                                                                  000093
102122445950001000000009034510032549PREGTIT29986270781329     000000000000593849480000000000000000000000000902110319000593849400000000000059384948100519000000001100023704152  000000000014300000000000000000000000000000000000000000000000000000000000000000000000000000000000000000000000000000000                          0000000000                                                                  000094
102122445950001000000009034510032549PREGTIT29986518410791     000000000000593914130000000000000000000000000902110319000593914100000000000059391413080519000000000800023703451  000000000014300000000000000000000000000000000000000000000000000000000000000000000000000000000000000000000000000000000                          0000000000                                                                  000095
102122445950001000000009034510032549PREGTIT29989177071361     000000000000593924600000000000000000000000000902110319000593924600000000000059392460100519000000006307723704144  000000000014300000000000000000000000000000000000000000000000000000000000000000000000000000000000000000000000000000000                          7600000000                                                                  000096
102122445950001000000009034510032549PREGTIT29985843847567     000000000000593938900000000000000000000000000902110319000593938900000000000059393890100519000000001497523703109  000000000014300000000000000000000000000000000000000000000000000000000000000000000000000000000000000000000000000000000                          0000000000                                                                  000097
102122445950001000000009034510032549PREGTIT29983420489550     0000000000005939689P000000000000000000000000090211031900059396890000000000005939689P100519000000010000023704151  000000000014300000000000000000000000000000000000000000000000000000000000000000000000000000000000000000000000000000000                          7600000000                                                                  000098
102122445950001000000009034510032549PREGTIT29988260825561     000000000000593971790000000000000000000000000902110319000593971700000000000059397179100519000000001100023704151  000000000014300000000000000000000000000000000000000000000000000000000000000000000000000000000000000000000000000000000                          0000000000                                                                  000099
102122445950001000000009034510032549PREGTIT29983437244473     000000000000593976400000000000000000000000000902110319000593976400000000000059397640100519000000001800023704151  000000000014300000000000000000000000000000000000000000000000000000000000000000000000000000000000000000000000000000000                          0000000000                                                                  000100
102122445950001000000009034510032549PREGTIT29981404419619     0000000000005939885P000000000000000000000000090211031900059398850000000000005939885P100519000000001000023704151  000000000014300000000000000000000000000000000000000000000000000000000000000000000000000000000000000000000000000000000                          7600000000                                                                  000101
102122445950001000000009034510032549PREGTIT29984486898932     000000000000593997590000000000000000000000000902110319000593997500000000000059399759100519000000003400023703451  000000000014300000000000000000000000000000000000000000000000000000000000000000000000000000000000000000000000000000000                          0000000000                                                                  000102
102122445950001000000009034510032549PREGTIT29989768947168     000000000000594000640000000000000000000000000902110319000594000600000000000059400064080519000000001950023704151  000000000014300000000000000000000000000000000000000000000000000000000000000000000000000000000000000000000000000000000                          0000000000                                                                  000103
102122445950001000000009034510032549PREGTIT29986633833845     000000000000594002420000000000000000000000000902110319000594002400000000000059400242100519000000002300023704151  000000000014300000000000000000000000000000000000000000000000000000000000000000000000000000000000000000000000000000000                          0000000000                                                                  000104
102122445950001000000009034510032549PREGTIT30056723406083     000000000000594043610000000000000000000000000902110319000594043600000000000059404361100519000000001990023704158  000000000014300000000000000000000000000000000000000000000000000000000000000000000000000000000000000000000000000000000                          0000000000                                                                  000105
102122445950001000000009034510032549PREGTIT29982422790928     000000000000594050740000000000000000000000000902110319000594050700000000000059405074100519000000005280023704151  000000000014300000000000000000000000000000000000000000000000000000000000000000000000000000000000000000000000000000000                          0000000000                                                                  000106
102122445950001000000009034510032549PREGTIT29983429355811     000000000000594059610000000000000000000000000902110319000594059600000000000059405961100519000000000550023704151  000000000014300000000000000000000000000000000000000000000000000000000000000000000000000000000000000000000000000000000                          0000000000                                                                  000107
102122445950001000000009034510032549PREGTIT29985225566435     000000000000594060540000000000000000000000000902110319000594060500000000000059406054100519000000002070023704151  000000000014300000000000000000000000000000000000000000000000000000000000000000000000000000000000000000000000000000000                          0000000000                                                                  000108
102122445950001000000009034510032549PREGTIT29986038185792     000000000000594062590000000000000000000000000902110319000594062500000000000059406259100519000000001250023704151  000000000014300000000000000000000000000000000000000000000000000000000000000000000000000000000000000000000000000000000                          0000000000                                                                  000109
102122445950001000000009034510032549PREGTIT30038550552394     000000000000594068950000000000000000000000000902110319000594068900000000000059406895100519000000003460023704157  000000000014300000000000000000000000000000000000000000000000000000000000000000000000000000000000000000000000000000000                          7600000000                                                                  000110
102122445950001000000009034510032549PREGTIT29986892473734     000000000000594103960000000000000000000000000902110319000594103900000000000059410396100519000000001000023704151  000000000014300000000000000000000000000000000000000000000000000000000000000000000000000000000000000000000000000000000                          0000000000                                                                  000111
102122445950001000000009034510032549PREGTIT29985796682846     000000000000594113760000000000000000000000000902110319000594113700000000000059411376100519000000001480023704151  000000000014300000000000000000000000000000000000000000000000000000000000000000000000000000000000000000000000000000000                          0000000000                                                                  000112
102122445950001000000009034510032549PREGTIT29981415210751     000000000000594126900000000000000000000000000902110319000594126900000000000059412690100519000000002400023704428  000000000014300000000000000000000000000000000000000000000000000000000000000000000000000000000000000000000000000000000                          0000000000                                                                  000113
102122445950001000000009034510032549PREGTIT29982660683786     000000000000594650850000000000000000000000000902110319000594650800000000000059465085100519000000003000023704151  000000000014300000000000000000000000000000000000000000000000000000000000000000000000000000000000000000000000000000000                          0000000000                                                                  000114
102122445950001000000009034510032549PREGTIT29982196251857     000000000000594664800000000000000000000000000902110319000594664800000000000059466480090519000000002050023703451  000000000014300000000000000000000000000000000000000000000000000000000000000000000000000000000000000000000000000000000                          0000000000                                                                  000115
102122445950001000000009034510032549PREGTIT29982649307279     0000000000005946660P000000000000000000000000090211031900059466600000000000005946660P100519000000000575123704157  000000000014300000000000000000000000000000000000000000000000000000000000000000000000000000000000000000000000000000000                          0000000000                                                                  000116
102122445950001000000009034510032549PREGTIT29985559749719     000000000000594670610000000000000000000000000902110319000594670600000000000059467061100519000000000688623704157  000000000014300000000000000000000000000000000000000000000000000000000000000000000000000000000000000000000000000000000                          0000000000                                                                  000117
102122445950001000000009034510032549PREGTIT29983187223726     000000000000594682030000000000000000000000000902110319000594682000000000000059468203100519000000001810023704151  000000000014300000000000000000000000000000000000000000000000000000000000000000000000000000000000000000000000000000000                          0000000000                                                                  000118
102122445950001000000009034510032549PREGTIT29985774402129     000000000000594684590000000000000000000000000902110319000594684500000000000059468459100519000000001000023703451  000000000014300000000000000000000000000000000000000000000000000000000000000000000000000000000000000000000000000000000                          0000000000                                                                  000119
102122445950001000000009034510032549PREGTIT29984742436363     000000000000594699860000000000000000000000000902110319000594699800000000000059469986100519000000001500023704151  000000000014300000000000000000000000000000000000000000000000000000000000000000000000000000000000000000000000000000000                          0000000000                                                                  000120
102122445950001000000009034510032549PREGTIT29984259330837     000000000000594700890000000000000000000000000902110319000594700800000000000059470089100519000000000780023704151  000000000014300000000000000000000000000000000000000000000000000000000000000000000000000000000000000000000000000000000                          0000000000                                                                  000121
102122445950001000000009034510032549PREGTIT29985250992385     000000000000594703800000000000000000000000000902110319000594703800000000000059470380080519000000001000023703451  000000000014300000000000000000000000000000000000000000000000000000000000000000000000000000000000000000000000000000000                          0000000000                                                                  000122
102122445950001000000009034510032549PREGTIT29986068378061     000000000000594705260000000000000000000000000902110319000594705200000000000059470526100519000000001650123703451  000000000014300000000000000000000000000000000000000000000000000000000000000000000000000000000000000000000000000000000                          0000000000                                                                  000123
102122445950001000000009034510032549PREGTIT29989077754273     0000000000005947193P000000000000000000000000090211031900059471930000000000005947193P100519000000001500023703451  000000000014300000000000000000000000000000000000000000000000000000000000000000000000000000000000000000000000000000000                          0000000000                                                                  000124
102122445950001000000009034510032549PREGTIT29984130454365     000000000000594739830000000000000000000000000902110319000594739800000000000059473983100519000000001900023704151  000000000014300000000000000000000000000000000000000000000000000000000000000000000000000000000000000000000000000000000                          0000000000                                                                  000125
102122445950001000000009034510032549PREGTIT29989160407893     000000000000594763970000000000000000000000000902110319000594763900000000000059476397080519000000001337523703451  000000000014300000000000000000000000000000000000000000000000000000000000000000000000000000000000000000000000000000000                          0000000000                                                                  000126
102122445950001000000009034510032549PREGTIT29986284156872     000000000000594779970000000000000000000000000902110319000594779900000000000059477997100519000000002850023704151  000000000014300000000000000000000000000000000000000000000000000000000000000000000000000000000000000000000000000000000                          0000000000                                                                  000127
102122445950001000000009034510032549PREGTIT29984654557990     000000000000594809710000000000000000000000000902110319000594809700000000000059480971100519000000000500023703451  000000000014300000000000000000000000000000000000000000000000000000000000000000000000000000000000000000000000000000000                          0000000000                                                                  000128
102122445950001000000009034510032549PREGTIT29983960320312     000000000000594828500000000000000000000000000902110319000594828500000000000059482850100519000000000750023703451  000000000014300000000000000000000000000000000000000000000000000000000000000000000000000000000000000000000000000000000                          0000000000                                                                  000129
102122445950001000000009034510032549PREGTIT29989985667897     000000000000594849500000000000000000000000000902110319000594849500000000000059484950100519000000001200023704151  000000000014300000000000000000000000000000000000000000000000000000000000000000000000000000000000000000000000000000000                          0000000000                                                                  000130
102122445950001000000009034510032549PREGTIT29981796061876     000000000000594871940000000000000000000000000902110319000594871900000000000059487194100519000000004900023704151  000000000014300000000000000000000000000000000000000000000000000000000000000000000000000000000000000000000000000000000                          0000000000                                                                  000131
102122445950001000000009034510032549PREGTIT30036321765151     000000000000594881310000000000000000000000000902110319000594881300000000000059488131100519000000001000023704157  000000000014300000000000000000000000000000000000000000000000000000000000000000000000000000000000000000000000000000000                          7600000000                                                                  000132
102122445950001000000009034510032549PREGTIT29986225464041     000000000000594894560000000000000000000000000902110319000594894500000000000059489456100519000000001300023704151  000000000014300000000000000000000000000000000000000000000000000000000000000000000000000000000000000000000000000000000                          7600000000                                                                  000133
102122445950001000000009034510032549PREGTIT29983170224084     000000000000594895450000000000000000000000000902110319000594895400000000000059489545100519000000001166723703451  000000000014300000000000000000000000000000000000000000000000000000000000000000000000000000000000000000000000000000000                          7600000000                                                                  000134
102122445950001000000009034510032549PREGTIT29988130830104     000000000000594898390000000000000000000000000902110319000594898300000000000059489839100519000000001250023703451  000000000014300000000000000000000000000000000000000000000000000000000000000000000000000000000000000000000000000000000                          0000000000                                                                  000135
102122445950001000000009034510032549PREGTIT29988886496544     000000000000594899360000000000000000000000000902110319000594899300000000000059489936100519000000001900023703451  000000000014300000000000000000000000000000000000000000000000000000000000000000000000000000000000000000000000000000000                          0000000000                                                                  000136
102122445950001000000009034510032549PREGTIT29982980626494     000000000000594905940000000000000000000000000902110319000594905900000000000059490594100519000000003200023704157  000000000014300000000000000000000000000000000000000000000000000000000000000000000000000000000000000000000000000000000                          0000000000                                                                  000137
102122445950001000000009034510032549PREGTIT29988653426145     000000000000594934020000000000000000000000000902110319000594934000000000000059493402100519000000003000023704151  000000000014300000000000000000000000000000000000000000000000000000000000000000000000000000000000000000000000000000000                          0000000000                                                                  000138
102122445950001000000009034510032549PREGTIT29985283325422     000000000000594946030000000000000000000000000902110319000594946000000000000059494603100519000000000479823704157  000000000014300000000000000000000000000000000000000000000000000000000000000000000000000000000000000000000000000000000                          0000000000                                                                  000139
102122445950001000000009034510032549PREGTIT29986533394112     0000000000005949655P000000000000000000000000090211031900059496550000000000005949655P100519000000019500023704151  000000000014300000000000000000000000000000000000000000000000000000000000000000000000000000000000000000000000000000000                          0000000000                                                                  000140
102122445950001000000009034510032549PREGTIT29984831697261     000000000000594992650000000000000000000000000902110319000594992600000000000059499265100519000000003000023704151  000000000014300000000000000000000000000000000000000000000000000000000000000000000000000000000000000000000000000000000                          0000000000                                                                  000141
102122445950001000000009034510032549PREGTIT30032072959240     0000000000005949980P000000000000000000000000090211031900059499800000000000005949980P100519000000001000023704144  000000000014300000000000000000000000000000000000000000000000000000000000000000000000000000000000000000000000000000000                          7600000000                                                                  000142
102122445950001000000009034510032549PREGTIT29982629804549     000000000000595009990000000000000000000000000902110319000595009900000000000059500999100519000000000930023704151  000000000014300000000000000000000000000000000000000000000000000000000000000000000000000000000000000000000000000000000                          0000000000                                                                  000143
102122445950001000000009034510032549PREGTIT29985351874542     000000000000595026060000000000000000000000000902110319000595026000000000000059502606100519000000004200023703451  000000000014300000000000000000000000000000000000000000000000000000000000000000000000000000000000000000000000000000000                          0000000000                                                                  000144
102122445950001000000009034510032549PREGTIT29983627053052     0000000000005950319P000000000000000000000000090211031900059503190000000000005950319P100519000000000682123704157  000000000014300000000000000000000000000000000000000000000000000000000000000000000000000000000000000000000000000000000                          0000000000                                                                  000145
102122445950001000000009034510032549PREGTIT29981490846516     000000000000595050280000000000000000000000000902110319000595050200000000000059505028100519000000000950023704151  000000000014300000000000000000000000000000000000000000000000000000000000000000000000000000000000000000000000000000000                          0000000000                                                                  000146
102122445950001000000009034510032549PREGTIT29988926520583     000000000000595053460000000000000000000000000902110319000595053400000000000059505346090519000000000833523703451  000000000014300000000000000000000000000000000000000000000000000000000000000000000000000000000000000000000000000000000                          0000000000                                                                  000147
102122445950001000000009034510032549PREGTIT29989455264475     000000000000595056990000000000000000000000000902110319000595056900000000000059505699100519000000000680023704151  000000000014300000000000000000000000000000000000000000000000000000000000000000000000000000000000000000000000000000000                          0000000000                                                                  000148
102122445950001000000009034510032549PREGTIT29984100013180     000000000000595061990000000000000000000000000902110319000595061900000000000059506199100519000000001490023704152  000000000014300000000000000000000000000000000000000000000000000000000000000000000000000000000000000000000000000000000                          0000000000                                                                  000149
102122445950001000000009034510032549PREGTIT29988487173107     000000000000595064580000000000000000000000000902110319000595064500000000000059506458100519000000004400023704151  000000000014300000000000000000000000000000000000000000000000000000000000000000000000000000000000000000000000000000000                          7600000000                                                                  000150
102122445950001000000009034510032549PREGTIT29982251545848     000000000000595066280000000000000000000000000902110319000595066200000000000059506628100519000000000937523703451  000000000014300000000000000000000000000000000000000000000000000000000000000000000000000000000000000000000000000000000                          7600000000                                                                  000151
102122445950001000000009034510032549PREGTIT29982563781142     0000000000005950725P000000000000000000000000090211031900059507250000000000005950725P100519000000001200023704151  000000000014300000000000000000000000000000000000000000000000000000000000000000000000000000000000000000000000000000000                          0000000000                                                                  000152
102122445950001000000009034510032549PREGTIT29985938557046     000000000000595080510000000000000000000000000902110319000595080500000000000059508051080519000000000733423703451  000000000014300000000000000000000000000000000000000000000000000000000000000000000000000000000000000000000000000000000                          0000000000                                                                  000153
102122445950001000000009034510032549PREGTIT29981971581549     000000000000595081590000000000000000000000000902110319000595081500000000000059508159100519000000001416723703451  000000000014300000000000000000000000000000000000000000000000000000000000000000000000000000000000000000000000000000000                          0000000000                                                                  000154
102122445950001000000009034510032549PREGTIT29986198639401     000000000000595091390000000000000000000000000902110319000595091300000000000059509139100519000000001083423703451  000000000014300000000000000000000000000000000000000000000000000000000000000000000000000000000000000000000000000000000                          0000000000                                                                  000155
102122445950001000000009034510032549PREGTIT30039980929208     000000000000595099370000000000000000000000000902110319000595099300000000000059509937100519000000000800023703451  000000000014300000000000000000000000000000000000000000000000000000000000000000000000000000000000000000000000000000000                          0000000000                                                                  000156
102122445950001000000009034510032549PREGTIT29983917226770     000000000000595106170000000000000000000000000902110319000595106100000000000059510617100519000000000680023704151  000000000014300000000000000000000000000000000000000000000000000000000000000000000000000000000000000000000000000000000                          0000000000                                                                  000157
102122445950001000000009034510032549PREGTIT29985723333934     0000000000005951132P000000000000000000000000090211031900059511320000000000005951132P100519000000004100023704151  000000000014300000000000000000000000000000000000000000000000000000000000000000000000000000000000000000000000000000000                          0000000000                                                                  000158
102122445950001000000009034510032549PREGTIT29988141161062     000000000000595127840000000000000000000000000902110319000595127800000000000059512784100519000000001616723703451  000000000014300000000000000000000000000000000000000000000000000000000000000000000000000000000000000000000000000000000                          0000000000                                                                  000159
102122445950001000000009034510032549PREGTIT29989538826963     000000000000595135510000000000000000000000000902110319000595135500000000000059513551080519000000001100023703451  000000000014300000000000000000000000000000000000000000000000000000000000000000000000000000000000000000000000000000000                          0000000000                                                                  000160
102122445950001000000009034510032549PREGTIT29987580032741     000000000000595136240000000000000000000000000902110319000595136200000000000059513624080519000000001000023703451  000000000014300000000000000000000000000000000000000000000000000000000000000000000000000000000000000000000000000000000                          0000000000                                                                  000161
102122445950001000000009034510032549PREGTIT29987121449973     000000000000595143370000000000000000000000000902110319000595143300000000000059514337100519000000005000023704426  000000000014300000000000000000000000000000000000000000000000000000000000000000000000000000000000000000000000000000000                          0000000000                                                                  000162
102122445950001000000009034510032549PREGTIT29982608639966     000000000000595655350000000000000000000000000902110319000595655300000000000059565535100519000000001700023704151  000000000014300000000000000000000000000000000000000000000000000000000000000000000000000000000000000000000000000000000                          7600000000                                                                  000163
102122445950001000000009034510032549PREGTIT29983932220364     000000000000595656670000000000000000000000000902110319000595656600000000000059565667100519000000001125023703451  000000000014300000000000000000000000000000000000000000000000000000000000000000000000000000000000000000000000000000000                          0000000000                                                                  000164
102122445950001000000009034510032549PREGTIT29984761720270     000000000000595661240000000000000000000000000902110319000595661200000000000059566124100519000000001500023704151  000000000014300000000000000000000000000000000000000000000000000000000000000000000000000000000000000000000000000000000                          0000000000                                                                  000165
102122445950001000000009034510032549PREGTIT29988782648295     000000000000595671390000000000000000000000000902110319000595671300000000000059567139080519000000000666723703451  000000000014300000000000000000000000000000000000000000000000000000000000000000000000000000000000000000000000000000000                          0000000000                                                                  000166
102122445950001000000009034510032549PREGTIT29987158156608     000000000000595671980000000000000000000000000902110319000595671900000000000059567198080519000000001583523703451  000000000014300000000000000000000000000000000000000000000000000000000000000000000000000000000000000000000000000000000                          0000000000                                                                  000167
102122445950001000000009034510032549PREGTIT29983524923432     000000000000595672520000000000000000000000000902110319000595672500000000000059567252080519000000000857123703451  000000000014300000000000000000000000000000000000000000000000000000000000000000000000000000000000000000000000000000000                          0000000000                                                                  000168
102122445950001000000009034510032549PREGTIT29982631252805     000000000000595673090000000000000000000000000902110319000595673000000000000059567309100519000000001750023704152  000000000014300000000000000000000000000000000000000000000000000000000000000000000000000000000000000000000000000000000                          0000000000                                                                  000169
102122445950001000000009034510032549PREGTIT29983324679744     000000000000595682080000000000000000000000000902110319000595682000000000000059568208100519000000001332523703451  000000000014300000000000000000000000000000000000000000000000000000000000000000000000000000000000000000000000000000000                          0000000000                                                                  000170
102122445950001000000009034510032549PREGTIT29982170260283     000000000000595691230000000000000000000000000902110319000595691200000000000059569123090519000000001000023703451  000000000014300000000000000000000000000000000000000000000000000000000000000000000000000000000000000000000000000000000                          7600000000                                                                  000171
102122445950001000000009034510032549PREGTIT29981175038408     000000000000595692040000000000000000000000000902110319000595692000000000000059569204100519000000003027523704144  000000000014300000000000000000000000000000000000000000000000000000000000000000000000000000000000000000000000000000000                          0000000000                                                                  000172
102122445950001000000009034510032549PREGTIT29983196131512     000000000000595712170000000000000000000000000902110319000595712100000000000059571217100519000000001250023703451  000000000014300000000000000000000000000000000000000000000000000000000000000000000000000000000000000000000000000000000                          0000000000                                                                  000173
102122445950001000000009034510032549PREGTIT29987153441177     000000000000595787420000000000000000000000000902110319000595787400000000000059578742100519000000001337523703451  000000000014300000000000000000000000000000000000000000000000000000000000000000000000000000000000000000000000000000000                          0000000000                                                                  000174
102122445950001000000009034510032549PREGTIT30035002878751     000000000000595799430000000000000000000000000902110319000595799400000000000059579943100519000000001000023703451  000000000014300000000000000000000000000000000000000000000000000000000000000000000000000000000000000000000000000000000                          7600000000                                                                  000175
102122445950001000000009034510032549PREGTIT29984861787478     000000000000595857140000000000000000000000000902110319000595857100000000000059585714100519000000000600023704157  000000000014300000000000000000000000000000000000000000000000000000000000000000000000000000000000000000000000000000000                          0000000000                                                                  000176
102122445950001000000009034510032549PREGTIT29984711577606     000000000000595859350000000000000000000000000902110319000595859300000000000059585935100519000000001520023704159  000000000014300000000000000000000000000000000000000000000000000000000000000000000000000000000000000000000000000000000                          0000000000                                                                  000177
102122445950001000000009034510032549PREGTIT29989741193730     000000000000595861680000000000000000000000000902110319000595861600000000000059586168100519000000002166723703451  000000000014300000000000000000000000000000000000000000000000000000000000000000000000000000000000000000000000000000000                          0000000000                                                                  000178
102122445950001000000009034510032549PREGTIT29988640222280     000000000000595862300000000000000000000000000902110319000595862300000000000059586230100519000000001000023703451  000000000014300000000000000000000000000000000000000000000000000000000000000000000000000000000000000000000000000000000                          0000000000                                                                  000179
102122445950001000000009034510032549PREGTIT29996219650295     000000000000595869740000000000000000000000000902110319000595869700000000000059586974100519000000001300023700408  000000000014300000000000000000000000000000000000000000000000000000000000000000000000000000000000000000000000000000000                          0000000000                                                                  000180
102122445950001000000009034510032549PREGTIT29996627439243     000000000000595872100000000000000000000000000902110319000595872100000000000059587210100519000000001000023700408  000000000014300000000000000000000000000000000000000000000000000000000000000000000000000000000000000000000000000000000                          0000000000                                                                  000181
102122445950001000000009034510032549PREGTIT29985380694207     000000000000595885270000000000000000000000000902110319000595885200000000000059588527100519000000001916723704147  000000000014300000000000000000000000000000000000000000000000000000000000000000000000000000000000000000000000000000000                          0000000000                                                                  000182
102122445950001000000009034510032549PREGTIT29988359940027     000000000000595902700000000000000000000000000902110319000595902700000000000059590270080519000000000583523703451  000000000014300000000000000000000000000000000000000000000000000000000000000000000000000000000000000000000000000000000                          0000000000                                                                  000183
102122445950001000000009034510032549PREGTIT29984985451727     000000000000595921680000000000000000000000000902110319000595921600000000000059592168100519000000000650023704151  000000000014300000000000000000000000000000000000000000000000000000000000000000000000000000000000000000000000000000000                          0000000000                                                                  000184
102122445950001000000009034510032549PREGTIT29989841902591     000000000000595933930000000000000000000000000902110319000595933900000000000059593393090519000000000970023703451  000000000014300000000000000000000000000000000000000000000000000000000000000000000000000000000000000000000000000000000                          0000000000                                                                  000185
102122445950001000000009034510032549PREGTIT29986531758933     0000000000005959974P000000000000000000000000090211031900059599740000000000005959974P100519000000001333323703109  000000000014300000000000000000000000000000000000000000000000000000000000000000000000000000000000000000000000000000000                          0000000000                                                                  000186
102122445950001000000009034510032549PREGTIT29981306793755     000000000000595998470000000000000000000000000902110319000595998400000000000059599847100519000000000950023703109  000000000014300000000000000000000000000000000000000000000000000000000000000000000000000000000000000000000000000000000                          0000000000                                                                  000187
102122445950001000000009034510032549PREGTIT30008838531287     000000000000596008610000000000000000000000000902110319000596008600000000000059600861100519000000001832023704144  000000000014300000000000000000000000000000000000000000000000000000000000000000000000000000000000000000000000000000000                          0000000000                                                                  000188
102122445950001000000009034510032549PREGTIT29983037380414     000000000000596009500000000000000000000000000902110319000596009500000000000059600950100519000000001500023704151  000000000014300000000000000000000000000000000000000000000000000000000000000000000000000000000000000000000000000000000                          0000000000                                                                  000189
102122445950001000000009034510032549PREGTIT29986980221246     000000000000596011750000000000000000000000000902110319000596011700000000000059601175090519000000001060023703451  000000000014300000000000000000000000000000000000000000000000000000000000000000000000000000000000000000000000000000000                          0000000000                                                                  000190
102122445950001000000009034510032549PREGTIT29982527530147     000000000000596020580000000000000000000000000902110319000596020500000000000059602058100519000000002300023704151  000000000014300000000000000000000000000000000000000000000000000000000000000000000000000000000000000000000000000000000                          0000000000                                                                  000191
102122445950001000000009034510032549PREGTIT29984127394188     000000000000596029020000000000000000000000000902110319000596029000000000000059602902100519000000002800023704157  000000000014300000000000000000000000000000000000000000000000000000000000000000000000000000000000000000000000000000000                          0000000000                                                                  000192
102122445950001000000009034510032549PREGTIT29982651692065     000000000000596047190000000000000000000000000902110319000596047100000000000059604719100519000000001320023704147  000000000014300000000000000000000000000000000000000000000000000000000000000000000000000000000000000000000000000000000                          0000000000                                                                  000193
102122445950001000000009034510032549PREGTIT29981314678167     000000000000596048160000000000000000000000000902110319000596048100000000000059604816100519000000000850023704152  000000000014300000000000000000000000000000000000000000000000000000000000000000000000000000000000000000000000000000000                          0000000000                                                                  000194
102122445950001000000009034510032549PREGTIT29986584648812     000000000000596049130000000000000000000000000902110319000596049100000000000059604913100519000000002500023704152  000000000014300000000000000000000000000000000000000000000000000000000000000000000000000000000000000000000000000000000                          7600000000                                                                  000195
102122445950001000000009034510032549PREGTIT29987531641622     0000000000005960526P000000000000000000000000090211031900059605260000000000005960526P100519000000000650023703451  000000000014300000000000000000000000000000000000000000000000000000000000000000000000000000000000000000000000000000000                          0000000000                                                                  000196
102122445950001000000009034510032549PREGTIT29988764992691     000000000000596054800000000000000000000000000902110319000596054800000000000059605480100519000000002600023704151  000000000014300000000000000000000000000000000000000000000000000000000000000000000000000000000000000000000000000000000                          0000000000                                                                  000197
102122445950001000000009034510032549PREGTIT29989596160786     000000000000596066810000000000000000000000000902110319000596066800000000000059606681100519000000001000023703451  000000000014300000000000000000000000000000000000000000000000000000000000000000000000000000000000000000000000000000000                          0000000000                                                                  000198
102122445950001000000009034510032549PREGTIT29986303164631     000000000000596579440000000000000000000000000902110319000596579400000000000059657944100519000000003890023704428  000000000014300000000000000000000000000000000000000000000000000000000000000000000000000000000000000000000000000000000                          0000000000                                                                  000199
102122445950001000000009034510032549PREGTIT29985173591367     000000000000596580530000000000000000000000000902110319000596580500000000000059658053100519000000000646523704157  000000000014300000000000000000000000000000000000000000000000000000000000000000000000000000000000000000000000000000000                          0000000000                                                                  000200
102122445950001000000009034510032549PREGTIT29983374046766     000000000000596584280000000000000000000000000902110319000596584200000000000059658428100519000000005000023704151  000000000014300000000000000000000000000000000000000000000000000000000000000000000000000000000000000000000000000000000                          0000000000                                                                  000201
102122445950001000000009034510032549PREGTIT29989274899301     000000000000596590090000000000000000000000000902110319000596590000000000000059659009100519000000002100023704151  000000000014300000000000000000000000000000000000000000000000000000000000000000000000000000000000000000000000000000000                          7600000000                                                                  000202
102122445950001000000009034510032549PREGTIT29988787746901     000000000000596592540000000000000000000000000902110319000596592500000000000059659254100519000000001680023703451  000000000014300000000000000000000000000000000000000000000000000000000000000000000000000000000000000000000000000000000                          0000000000                                                                  000203
102122445950001000000009034510032549PREGTIT29988863381880     000000000000596597500000000000000000000000000902110319000596597500000000000059659750100519000000000540923704157  000000000014300000000000000000000000000000000000000000000000000000000000000000000000000000000000000000000000000000000                          0000000000                                                                  000204
102122445950001000000009034510032549PREGTIT29982691095727     000000000000596598230000000000000000000000000902110319000596598200000000000059659823100519000000001000023704426  000000000014300000000000000000000000000000000000000000000000000000000000000000000000000000000000000000000000000000000                          7600000000                                                                  000205
102122445950001000000009034510032549PREGTIT29983237033432     000000000000596612590000000000000000000000000902110319000596612500000000000059661259100519000000000502623704157  000000000014300000000000000000000000000000000000000000000000000000000000000000000000000000000000000000000000000000000                          0000000000                                                                  000206
102122445950001000000009034510032549PREGTIT29986741892707     000000000000596614290000000000000000000000000902110319000596614200000000000059661429080519000000001000023704422  000000000014300000000000000000000000000000000000000000000000000000000000000000000000000000000000000000000000000000000                          0000000000                                                                  000207
102122445950001000000009034510032549PREGTIT29984178738585     000000000000596629990000000000000000000000000902110319000596629900000000000059662999100519000000001400023704151  000000000014300000000000000000000000000000000000000000000000000000000000000000000000000000000000000000000000000000000                          0000000000                                                                  000208
102122445950001000000009034510032549PREGTIT29986665090235     0000000000005966309P000000000000000000000000090211031900059663090000000000005966309P100519000000002300023704151  000000000014300000000000000000000000000000000000000000000000000000000000000000000000000000000000000000000000000000000                          0000000000                                                                  000209
102122445950001000000009034510032549PREGTIT29983057662227     000000000000596631970000000000000000000000000902110319000596631900000000000059663197100519000000003300023704151  000000000014300000000000000000000000000000000000000000000000000000000000000000000000000000000000000000000000000000000                          0000000000                                                                  000210
102122445950001000000009034510032549PREGTIT29985070826386     000000000000596632940000000000000000000000000902110319000596632900000000000059663294100519000000002800023704151  000000000014300000000000000000000000000000000000000000000000000000000000000000000000000000000000000000000000000000000                          0000000000                                                                  000211
102122445950001000000009034510032549PREGTIT29983365586093     0000000000005966374P000000000000000000000000090211031900059663740000000000005966374P100519000000000587523704157  000000000014300000000000000000000000000000000000000000000000000000000000000000000000000000000000000000000000000000000                          0000000000                                                                  000212
102122445950001000000009034510032549PREGTIT29982688792856     000000000000596638630000000000000000000000000902110319000596638600000000000059663863100519000000001460023704147  000000000014300000000000000000000000000000000000000000000000000000000000000000000000000000000000000000000000000000000                          0000000000                                                                  000213
102122445950001000000009034510032549PREGTIT29988269034561     000000000000596648000000000000000000000000000902110319000596648000000000000059664800100519000000000728023704157  000000000014300000000000000000000000000000000000000000000000000000000000000000000000000000000000000000000000000000000                          0000000000                                                                  000214
102122445950001000000009034510032549PREGTIT29984848126764     000000000000596649240000000000000000000000000902110319000596649200000000000059664924100519000000001450023704157  000000000014300000000000000000000000000000000000000000000000000000000000000000000000000000000000000000000000000000000                          0000000000                                                                  000215
102122445950001000000009034510032549PREGTIT29983565182441     000000000000596657420000000000000000000000000902110319000596657400000000000059665742100519000000002500023704428  000000000014300000000000000000000000000000000000000000000000000000000000000000000000000000000000000000000000000000000                          0000000000                                                                  000216
102122445950001000000009034510032549PREGTIT29985236478274     000000000000596709910000000000000000000000000902110319000596709900000000000059670991100519000000001180023704152  000000000014300000000000000000000000000000000000000000000000000000000000000000000000000000000000000000000000000000000                          0000000000                                                                  000217
102122445950001000000009034510032549PREGTIT29986745520859     000000000000596712030000000000000000000000000902110319000596712000000000000059671203100519000000002500023704151  000000000014300000000000000000000000000000000000000000000000000000000000000000000000000000000000000000000000000000000                          0000000000                                                                  000218
102122445950001000000009034510032549PREGTIT29983054602849     000000000000596713350000000000000000000000000902110319000596713300000000000059671335100519000000002352623704157  000000000014300000000000000000000000000000000000000000000000000000000000000000000000000000000000000000000000000000000                          0000000000                                                                  000219
102122445950001000000009034510032549PREGTIT29987462437719     000000000000596722930000000000000000000000000902110319000596722900000000000059672293100519000000001760023703109  000000000014300000000000000000000000000000000000000000000000000000000000000000000000000000000000000000000000000000000                          0000000000                                                                  000220
102122445950001000000009034510032549PREGTIT29987136035942     000000000000596745200000000000000000000000000902110319000596745200000000000059674520100519000000002700023704151  000000000014300000000000000000000000000000000000000000000000000000000000000000000000000000000000000000000000000000000                          0000000000                                                                  000221
102122445950001000000009034510032549PREGTIT29982524208997     000000000000596800670000000000000000000000000902110319000596800600000000000059680067100519000000000669323704157  000000000014300000000000000000000000000000000000000000000000000000000000000000000000000000000000000000000000000000000                          0000000000                                                                  000222
102122445950001000000009034510032549PREGTIT30079945243899     000000000000596805390000000000000000000000000902110319000596805300000000000059680539080519000000002571423704151  000000000014300000000000000000000000000000000000000000000000000000000000000000000000000000000000000000000000000000000                          7600000000                                                                  000223
102122445950001000000009034510032549PREGTIT29985449476867     000000000000596810710000000000000000000000000902110319000596810700000000000059681071100519000000001000023704151  000000000014300000000000000000000000000000000000000000000000000000000000000000000000000000000000000000000000000000000                          0000000000                                                                  000224
102122445950001000000009034510032549PREGTIT29983988525457     000000000000596818610000000000000000000000000902110319000596818600000000000059681861100519000000004058323704144  000000000014300000000000000000000000000000000000000000000000000000000000000000000000000000000000000000000000000000000                          0000000000                                                                  000225
102122445950001000000009034510032549PREGTIT29982563371078     000000000000596821320000000000000000000000000902110319000596821300000000000059682132100519000000001000023704157  000000000014300000000000000000000000000000000000000000000000000000000000000000000000000000000000000000000000000000000                          0000000000                                                                  000226
102122445950001000000009034510032549PREGTIT29989770703100     000000000000596829810000000000000000000000000902110319000596829800000000000059682981100519000000000661323704157  000000000014300000000000000000000000000000000000000000000000000000000000000000000000000000000000000000000000000000000                          0000000000                                                                  000227
102122445950001000000009034510032549PREGTIT29985952159095     000000000000596832360000000000000000000000000902110319000596832300000000000059683236100519000000000389623704157  000000000014300000000000000000000000000000000000000000000000000000000000000000000000000000000000000000000000000000000                          0000000000                                                                  000228
102122445950001000000009034510032549PREGTIT29987733981054     000000000000596832870000000000000000000000000902110319000596832800000000000059683287100519000000000517023704157  000000000014300000000000000000000000000000000000000000000000000000000000000000000000000000000000000000000000000000000                          0000000000                                                                  000229
102122445950001000000009034510032549PREGTIT29982965044925     000000000000596833410000000000000000000000000902110319000596833400000000000059683341100519000000000534623704151  000000000014300000000000000000000000000000000000000000000000000000000000000000000000000000000000000000000000000000000                          0000000000                                                                  000230
102122445950001000000009034510032549PREGTIT29984326704218     000000000000596835700000000000000000000000000902110319000596835700000000000059683570100519000000003600023704151  000000000014300000000000000000000000000000000000000000000000000000000000000000000000000000000000000000000000000000000                          0000000000                                                                  000231
102122445950001000000009034510032549PREGTIT29984499628614     000000000000596854090000000000000000000000000902110319000596854000000000000059685409100519000000002600023704151  000000000014300000000000000000000000000000000000000000000000000000000000000000000000000000000000000000000000000000000                          0000000000                                                                  000232
102122445950001000000009034510032549PREGTIT29988428726568     000000000000596855060000000000000000000000000902110319000596855000000000000059685506100519000000001800023703451  000000000014300000000000000000000000000000000000000000000000000000000000000000000000000000000000000000000000000000000                          7600000000                                                                  000233
102122445950001000000009034510032549PREGTIT29984262247561     000000000000596864560000000000000000000000000902110319000596864500000000000059686456100519000000003200023704151  000000000014300000000000000000000000000000000000000000000000000000000000000000000000000000000000000000000000000000000                          0000000000                                                                  000234
102122445950001000000009034510032549PREGTIT29984404063071     000000000000596874440000000000000000000000000902110319000596874400000000000059687444100519000000001700023703109  000000000014300000000000000000000000000000000000000000000000000000000000000000000000000000000000000000000000000000000                          7600000000                                                                  000235
102122445950001000000009034510032549PREGTIT29983095825219     000000000000596875090000000000000000000000000902110319000596875000000000000059687509100519000000001000023704147  000000000014300000000000000000000000000000000000000000000000000000000000000000000000000000000000000000000000000000000                          0000000000                                                                  000236
102122445950001000000009034510032549PREGTIT29982597856972     000000000000596877110000000000000000000000000902110319000596877100000000000059687711100519000000001850023704151  000000000014300000000000000000000000000000000000000000000000000000000000000000000000000000000000000000000000000000000                          0000000000                                                                  000237
102122445950001000000009034510032549PREGTIT29985682822387     000000000000596892420000000000000000000000000902110319000596892400000000000059689242100519000000004825023704144  000000000014300000000000000000000000000000000000000000000000000000000000000000000000000000000000000000000000000000000                          0000000000                                                                  000238
102122445950001000000009034510032549PREGTIT29987626844379     000000000000596894040000000000000000000000000902110319000596894000000000000059689404100519000000002457023704428  000000000014300000000000000000000000000000000000000000000000000000000000000000000000000000000000000000000000000000000                          0000000000                                                                  000239
102122445950001000000009034510032549PREGTIT29983781496932     000000000000596904020000000000000000000000000902110319000596904000000000000059690402080519000000001100023704151  000000000014300000000000000000000000000000000000000000000000000000000000000000000000000000000000000000000000000000000                          7600000000                                                                  000240
102122445950001000000009034510032549PREGTIT29985015780673     000000000000596910690000000000000000000000000902110319000596910600000000000059691069080519000000000305823704157  000000000014300000000000000000000000000000000000000000000000000000000000000000000000000000000000000000000000000000000                          0000000000                                                                  000241
102122445950001000000009034510032549PREGTIT29982664518617     000000000000596915060000000000000000000000000902110319000596915000000000000059691506100519000000001820023704147  000000000014300000000000000000000000000000000000000000000000000000000000000000000000000000000000000000000000000000000                          0000000000                                                                  000242
102122445950001000000009034510032549PREGTIT29982131473529     000000000000596918830000000000000000000000000902110319000596918800000000000059691883100519000000002400023704151  000000000014300000000000000000000000000000000000000000000000000000000000000000000000000000000000000000000000000000000                          0000000000                                                                  000243
102122445950001000000009034510032549PREGTIT29983673614466     000000000000596919800000000000000000000000000902110319000596919800000000000059691980100519000000004825023704144  000000000014300000000000000000000000000000000000000000000000000000000000000000000000000000000000000000000000000000000                          0000000000                                                                  000244
102122445950001000000009034510032549PREGTIT29984304367212     000000000000596921380000000000000000000000000902110319000596921300000000000059692138100519000000000332323704157  000000000014300000000000000000000000000000000000000000000000000000000000000000000000000000000000000000000000000000000                          0000000000                                                                  000245
102122445950001000000009034510032549PREGTIT29987684424738     000000000000596926690000000000000000000000000902110319000596926600000000000059692669100519000000001500023704426  000000000014300000000000000000000000000000000000000000000000000000000000000000000000000000000000000000000000000000000                          0000000000                                                                  000246
102122445950001000000009034510032549PREGTIT29985893498431     000000000000596928710000000000000000000000000902110319000596928700000000000059692871100519000000002200023703109  000000000014300000000000000000000000000000000000000000000000000000000000000000000000000000000000000000000000000000000                          0000000000                                                                  000247
102122445950001000000009034510032549PREGTIT29984226017966     0000000000005969291P000000000000000000000000090211031900059692910000000000005969291P100519000000000221623704157  000000000014300000000000000000000000000000000000000000000000000000000000000000000000000000000000000000000000000000000                          0000000000                                                                  000248
