02RETORNO01COBRANCA       00000000000004852239ISPCN ADM DE COBRANCA DE TITUL237BRADESCO       2703190160000000612                                                                                                                                                                                                                                                                          280319         000001
102122445950001000000009034510032549PREGTIT31293067558122     000000000000563940710000000000000000000000000902270319000563940700000000000056394071260519000000005000023700408  000000000014300000000000000000000000000000000000000000000000000000000000000000000000000000000000000000000000000000000                          0000000000                                                                  000002
102122445950001000000009034510032549PREGTIT31297364249705     000000000000586864600000000000000000000000000902270319000586864600000000000058686460260519000000002500023704151  000000000014300000000000000000000000000000000000000000000000000000000000000000000000000000000000000000000000000000000                          0000000000                                                                  000003
102122445950001000000009034510032549PREGTIT31295507406902     000000000000590934040000000000000000000000000902270319000590934000000000000059093404260519000000003500023703451  000000000014300000000000000000000000000000000000000000000000000000000000000000000000000000000000000000000000000000000                          0000000000                                                                  000004
102122445950001000000009034510032549PREGTIT31291485712946     000000000000591913250000000000000000000000000902270319000591913200000000000059191325260519000000003500023704151  000000000014300000000000000000000000000000000000000000000000000000000000000000000000000000000000000000000000000000000                          0000000000                                                                  000005
102122445950001000000009034510032549PREGTIT31295946828292     0000000000005919488P000000000000000000000000090227031900059194880000000000005919488P260519000000001000023703451  000000000014300000000000000000000000000000000000000000000000000000000000000000000000000000000000000000000000000000000                          0000000000                                                                  000006
102122445950001000000009034510032549PREGTIT31297542255541     000000000000592609120000000000000000000000000902270319000592609100000000000059260912260519000000002320023704428  000000000014300000000000000000000000000000000000000000000000000000000000000000000000000000000000000000000000000000000                          0000000000                                                                  000007
102122445950001000000009034510032549PREGTIT31298125277074     000000000000593816630000000000000000000000000902270319000593816600000000000059381663260519000000002800023704151  000000000014300000000000000000000000000000000000000000000000000000000000000000000000000000000000000000000000000000000                          0000000000                                                                  000008
102122445950001000000009034510032549PREGTIT31299215327592     000000000000593942770000000000000000000000000902270319000593942700000000000059394277260519000000000670023703451  000000000014300000000000000000000000000000000000000000000000000000000000000000000000000000000000000000000000000000000                          0000000000                                                                  000009
102122445950001000000009034510032549PREGTIT31294753751311     000000000000594030200000000000000000000000000902270319000594030200000000000059403020260519000000001500023703451  000000000014300000000000000000000000000000000000000000000000000000000000000000000000000000000000000000000000000000000                          0000000000                                                                  000010
102122445950001000000009034510032549PREGTIT31295742842410     000000000000595011030000000000000000000000000902270319000595011000000000000059501103260519000000003300023703451  000000000014300000000000000000000000000000000000000000000000000000000000000000000000000000000000000000000000000000000                          0000000000                                                                  000011
102122445950001000000009034510032549PREGTIT31294441182787     000000000000595022230000000000000000000000000902270319000595022200000000000059502223260519000000001944923704151  000000000014300000000000000000000000000000000000000000000000000000000000000000000000000000000000000000000000000000000                          0000000000                                                                  000012
102122445950001000000009034510032549PREGTIT31291461175572     000000000000596878190000000000000000000000000902270319000596878100000000000059687819260519000000001990023704151  000000000014300000000000000000000000000000000000000000000000000000000000000000000000000000000000000000000000000000000                          0000000000                                                                  000013
102122445950001000000009034510032549PREGTIT31298586339073     000000000000596884240000000000000000000000000902270319000596884200000000000059688424260519000000000550023704144  000000000014300000000000000000000000000000000000000000000000000000000000000000000000000000000000000000000000000000000                          0000000000                                                                  000014
102122445950001000000009034510032549PREGTIT31292652612452     000000000000597546130000000000000000000000000902270319000597546100000000000059754613120519000000003750023704428  000000000014300000000000000000000000000000000000000000000000000000000000000000000000000000000000000000000000000000000                          0000000000                                                                  000015
102122445950001000000009034510032549PREGTIT31293501170178     000000000000597546990000000000000000000000000902270319000597546900000000000059754699100519000000003800023704428  000000000014300000000000000000000000000000000000000000000000000000000000000000000000000000000000000000000000000000000                          0000000000                                                                  000016
102122445950001000000009034510032549PREGTIT31297961385146     000000000000597746730000000000000000000000000902270319000597746700000000000059774673260519000000002250023704428  000000000014300000000000000000000000000000000000000000000000000000000000000000000000000000000000000000000000000000000                          0000000000                                                                  000017
102122445950001000000009034510032549PREGTIT31295128362373     000000000000597751220000000000000000000000000902270319000597751200000000000059775122260519000000000425023704157  000000000014300000000000000000000000000000000000000000000000000000000000000000000000000000000000000000000000000000000                          0000000000                                                                  000018
102122445950001000000009034510032549PREGTIT31298952598215     000000000000597751650000000000000000000000000902270319000597751600000000000059775165260519000000001200023703109  000000000014300000000000000000000000000000000000000000000000000000000000000000000000000000000000000000000000000000000                          7600000000                                                                  000019
102122445950001000000009034510032549PREGTIT31294004732142     000000000000597752380000000000000000000000000902270319000597752300000000000059775238260519000000002083323704144  000000000014300000000000000000000000000000000000000000000000000000000000000000000000000000000000000000000000000000000                          0000000000                                                                  000020
102122445950001000000009034510032549PREGTIT31293624822062     000000000000597752970000000000000000000000000902270319000597752900000000000059775297260519000000001200023704151  000000000014300000000000000000000000000000000000000000000000000000000000000000000000000000000000000000000000000000000                          0000000000                                                                  000021
102122445950001000000009034510032549PREGTIT31293156027599     000000000000598579270000000000000000000000000902270319000598579200000000000059857927260519000000001190023704151  000000000014300000000000000000000000000000000000000000000000000000000000000000000000000000000000000000000000000000000                          0000000000                                                                  000022
102122445950001000000009034510032549PREGTIT31295250709570     000000000000598602350000000000000000000000000902270319000598602300000000000059860235260519000000001170023704422  000000000014300000000000000000000000000000000000000000000000000000000000000000000000000000000000000000000000000000000                          7600000000                                                                  000023
102122445950001000000009034510032549PREGTIT31291848900645     000000000000598607310000000000000000000000000902270319000598607300000000000059860731260519000000001025023704144  000000000014300000000000000000000000000000000000000000000000000000000000000000000000000000000000000000000000000000000                          0000000000                                                                  000024
102122445950001000000009034510032549PREGTIT31294986207145     000000000000598613120000000000000000000000000902270319000598613100000000000059861312260519000000000883423704151  000000000014300000000000000000000000000000000000000000000000000000000000000000000000000000000000000000000000000000000                          0000000000                                                                  000025
102122445950001000000009034510032549PREGTIT31297672519928     0000000000005986138P000000000000000000000000090227031900059861380000000000005986138P260519000000001000023704422  000000000014300000000000000000000000000000000000000000000000000000000000000000000000000000000000000000000000000000000                          0000000000                                                                  000026
102122445950001000000009034510032549PREGTIT31297995773719     000000000000599556940000000000000000000000000902270319000599556900000000000059955694260519000000000888523704157  000000000014300000000000000000000000000000000000000000000000000000000000000000000000000000000000000000000000000000000                          0000000000                                                                  000027
102122445950001000000009034510032549PREGTIT31294759960588     000000000000599565260000000000000000000000000902270319000599565200000000000059956526260519000000002500023704151  000000000014300000000000000000000000000000000000000000000000000000000000000000000000000000000000000000000000000000000                          0000000000                                                                  000028
102122445950001000000009034510032549PREGTIT31282194356260     000000000000599568440000000000000000000000000902270319000599568400000000000059956844100419000000020666523703109  000000000014300000000000000000000000000000000000000000000000000000000000000000000000000000000000000000000000000000000                          7600000000                                                                  000029
102122445950001000000009034510032549PREGTIT31284635799026     000000000000599568520000000000000000000000000902270319000599568500000000000059956852270319000000042000023704157  000000000014300000000000000000000000000000000000000000000000000000000000000000000000000000000000000000000000000000000                          0000000000                                                                  000030
102122445950001000000009034510032549PREGTIT31284635799026     000000000000599568600000000000000000000000000902270319000599568600000000000059956860280319000000042000023704157  000000000014300000000000000000000000000000000000000000000000000000000000000000000000000000000000000000000000000000000                          0000000000                                                                  000031
102122445950001000000009034510032549PREGTIT31284635799026     000000000000599568790000000000000000000000000902270319000599568700000000000059956879290319000000042000023704157  000000000014300000000000000000000000000000000000000000000000000000000000000000000000000000000000000000000000000000000                          0000000000                                                                  000032
102122445950001000000009034510032549PREGTIT31284635799026     000000000000599568870000000000000000000000000902270319000599568800000000000059956887300319000000042000023704157  000000000014300000000000000000000000000000000000000000000000000000000000000000000000000000000000000000000000000000000                          0000000000                                                                  000033
102122445950001000000009034510032549PREGTIT31286109715609     000000000000599568950000000000000000000000000902270319000599568900000000000059956895010419000000007257623704144  000000000014300000000000000000000000000000000000000000000000000000000000000000000000000000000000000000000000000000000                          7600000000                                                                  000034
102122445950001000000009034510032549PREGTIT31286109715609     000000000000599569090000000000000000000000000902270319000599569000000000000059956909010519000000007257623704144  000000000014300000000000000000000000000000000000000000000000000000000000000000000000000000000000000000000000000000000                          7600000000                                                                  000035
102122445950001000000009034510032549PREGTIT31299261546192     000000000000599569170000000000000000000000000902270319000599569100000000000059956917050419000000001718023704157  000000000014300000000000000000000000000000000000000000000000000000000000000000000000000000000000000000000000000000000                          0000000000                                                                  000036
102122445950001000000009034510032549PREGTIT31299261546192     000000000000599569250000000000000000000000000902270319000599569200000000000059956925050519000000001718023704157  000000000014300000000000000000000000000000000000000000000000000000000000000000000000000000000000000000000000000000000                          0000000000                                                                  000037
102122445950001000000009034510032549PREGTIT31292120764834     000000000000599569680000000000000000000000000902270319000599569600000000000059956968100419000000001235023704144  000000000014300000000000000000000000000000000000000000000000000000000000000000000000000000000000000000000000000000000                          0000000000                                                                  000038
102122445950001000000009034510032549PREGTIT31292120764834     000000000000599569760000000000000000000000000902270319000599569700000000000059956976100519000000001235023704144  000000000014300000000000000000000000000000000000000000000000000000000000000000000000000000000000000000000000000000000                          0000000000                                                                  000039
102122445950001000000009034510032549PREGTIT31296455754054     0000000000005995700P000000000000000000000000090227031900059957000000000000005995700P100419000000001796023704144  000000000014300000000000000000000000000000000000000000000000000000000000000000000000000000000000000000000000000000000                          0000000000                                                                  000040
102122445950001000000009034510032549PREGTIT31296455754054     000000000000599570180000000000000000000000000902270319000599570100000000000059957018100519000000001796023704144  000000000014300000000000000000000000000000000000000000000000000000000000000000000000000000000000000000000000000000000                          0000000000                                                                  000041
102122445950001000000009034510032549PREGTIT31295899251943     000000000000599570500000000000000000000000000902270319000599570500000000000059957050220419000000015402623704152  000000000014300000000000000000000000000000000000000000000000000000000000000000000000000000000000000000000000000000000                          7600000000                                                                  000042
102122445950001000000009034510032549PREGTIT31297549320732     000000000000599570770000000000000000000000000902270319000599570700000000000059957077270419000000016150023704151  000000000014300000000000000000000000000000000000000000000000000000000000000000000000000000000000000000000000000000000                          0000000000                                                                  000043
102122445950001000000009034510032549PREGTIT31291600974951     000000000000599570930000000000000000000000000902270319000599570900000000000059957093270419000000013320023704151  000000000014300000000000000000000000000000000000000000000000000000000000000000000000000000000000000000000000000000000                          7600000000                                                                  000044
102122445950001000000009034510032549PREGTIT31294659300603     000000000000599571150000000000000000000000000902270319000599571100000000000059957115270419000000017000023704151  000000000014300000000000000000000000000000000000000000000000000000000000000000000000000000000000000000000000000000000                          7600000000                                                                  000045
102122445950001000000009034510032549PREGTIT31297411575979     000000000000599571310000000000000000000000000902270319000599571300000000000059957131270419000000020000023704151  000000000014300000000000000000000000000000000000000000000000000000000000000000000000000000000000000000000000000000000                          7600000000                                                                  000046
102122445950001000000009034510032549PREGTIT31299883072165     000000000000599571580000000000000000000000000902270319000599571500000000000059957158270419000000004000023704151  000000000014300000000000000000000000000000000000000000000000000000000000000000000000000000000000000000000000000000000                          0000000000                                                                  000047
102122445950001000000009034510032549PREGTIT31293350416570     000000000000599571740000000000000000000000000902270319000599571700000000000059957174270419000000006330023704151  000000000014300000000000000000000000000000000000000000000000000000000000000000000000000000000000000000000000000000000                          7600000000                                                                  000048
102122445950001000000009034510032549PREGTIT31295549063131     000000000000599571900000000000000000000000000902270319000599571900000000000059957190270419000000004250023704151  000000000014300000000000000000000000000000000000000000000000000000000000000000000000000000000000000000000000000000000                          7600000000                                                                  000049
102122445950001000000009034510032549PREGTIT31296210041033     000000000000599572120000000000000000000000000902270319000599572100000000000059957212270419000000002300023704422  000000000014300000000000000000000000000000000000000000000000000000000000000000000000000000000000000000000000000000000                          7600000000                                                                  000050
102122445950001000000009034510032549PREGTIT31308752574121     000000000000599572390000000000000000000000000902270319000599572300000000000059957239270419000000003900023704151  000000000014300000000000000000000000000000000000000000000000000000000000000000000000000000000000000000000000000000000                          0000000000                                                                  000051
102122445950001000000009034510032549PREGTIT31305129689098     000000000000599572470000000000000000000000000902270319000599572400000000000059957247050419000000002000023700073  000000000014300000000000000000000000000000000000000000000000000000000000000000000000000000000000000000000000000000000                          0000000000                                                                  000052
102122445950001000000009034510032549PREGTIT31305129689098     000000000000599572550000000000000000000000000902270319000599572500000000000059957255050519000000002000023700073  000000000014300000000000000000000000000000000000000000000000000000000000000000000000000000000000000000000000000000000                          0000000000                                                                  000053
102122445950001000000009034510032549PREGTIT31304962620428     000000000000599573280000000000000000000000000902270319000599573200000000000059957328270419000000005470023704151  000000000014300000000000000000000000000000000000000000000000000000000000000000000000000000000000000000000000000000000                          7600000000                                                                  000054
102122445950001000000009034510032549PREGTIT31309572345527     000000000000599573440000000000000000000000000902270319000599573400000000000059957344270419000000003260023704151  000000000014300000000000000000000000000000000000000000000000000000000000000000000000000000000000000000000000000000000                          0000000000                                                                  000055
102122445950001000000009034510032549PREGTIT31306673971782     000000000000599573520000000000000000000000000902270319000599573500000000000059957352080519000000001625023700408  000000000014300000000000000000000000000000000000000000000000000000000000000000000000000000000000000000000000000000000                          0000000000                                                                  000056
102122445950001000000009034510032549PREGTIT31305516842553     000000000000599574090000000000000000000000000902270319000599574000000000000059957409270419000000010000023704151  000000000014300000000000000000000000000000000000000000000000000000000000000000000000000000000000000000000000000000000                          0000000000                                                                  000057
102122445950001000000009034510032549PREGTIT31309532536537     000000000000599574250000000000000000000000000902270319000599574200000000000059957425270419000000003000023704151  000000000014300000000000000000000000000000000000000000000000000000000000000000000000000000000000000000000000000000000                          0000000000                                                                  000058
102122445950001000000009034510032549PREGTIT31306444095327     000000000000599574410000000000000000000000000902270319000599574400000000000059957441270419000000010000023704151  000000000014300000000000000000000000000000000000000000000000000000000000000000000000000000000000000000000000000000000                          0000000000                                                                  000059
102122445950001000000009034510032549PREGTIT31309269123334     000000000000599574680000000000000000000000000902270319000599574600000000000059957468270419000000025000023704151  000000000014300000000000000000000000000000000000000000000000000000000000000000000000000000000000000000000000000000000                          0000000000                                                                  000060
102122445950001000000009034510032549PREGTIT31318919964511     000000000000599574840000000000000000000000000902270319000599574800000000000059957484270419000000007400023704151  000000000014300000000000000000000000000000000000000000000000000000000000000000000000000000000000000000000000000000000                          7600000000                                                                  000061
102122445950001000000009034510032549PREGTIT31314219428706     000000000000599574920000000000000000000000000902270319000599574900000000000059957492150419000000002100023704151  000000000014300000000000000000000000000000000000000000000000000000000000000000000000000000000000000000000000000000000                          0000000000                                                                  000062
102122445950001000000009034510032549PREGTIT31314219428706     000000000000599575060000000000000000000000000902270319000599575000000000000059957506150519000000002100023704151  000000000014300000000000000000000000000000000000000000000000000000000000000000000000000000000000000000000000000000000                          0000000000                                                                  000063
102122445950001000000009034510032549PREGTIT31318036795395     000000000000599576030000000000000000000000000902270319000599576000000000000059957603270419000000025000023704151  000000000014300000000000000000000000000000000000000000000000000000000000000000000000000000000000000000000000000000000                          0000000000                                                                  000064
102122445950001000000009034510032549PREGTIT31313643372286     0000000000005995762P000000000000000000000000090227031900059957620000000000005995762P270419000000014500023704151  000000000014300000000000000000000000000000000000000000000000000000000000000000000000000000000000000000000000000000000                          0000000000                                                                  000065
102122445950001000000009034510032549PREGTIT31317497550832     000000000000599576380000000000000000000000000902270319000599576300000000000059957638160419000000002100023703451  000000000014300000000000000000000000000000000000000000000000000000000000000000000000000000000000000000000000000000000                          0000000000                                                                  000066
102122445950001000000009034510032549PREGTIT31317497550832     000000000000599576460000000000000000000000000902270319000599576400000000000059957646160519000000002100023703451  000000000014300000000000000000000000000000000000000000000000000000000000000000000000000000000000000000000000000000000                          0000000000                                                                  000067
102122445950001000000009034510032549PREGTIT31312942755694     000000000000599577350000000000000000000000000902270319000599577300000000000059957735020419000000003900023704157  000000000014300000000000000000000000000000000000000000000000000000000000000000000000000000000000000000000000000000000                          0000000000                                                                  000068
102122445950001000000009034510032549PREGTIT31318406765200     000000000000599577430000000000000000000000000902270319000599577400000000000059957743100519000000005200023704151  000000000014300000000000000000000000000000000000000000000000000000000000000000000000000000000000000000000000000000000                          0000000000                                                                  000069
102122445950001000000009034510032549PREGTIT31312533600909     000000000000599578830000000000000000000000000902270319000599578800000000000059957883270419000000025000023704602  000000000014300000000000000000000000000000000000000000000000000000000000000000000000000000000000000000000000000000000                          0000000000                                                                  000070
102122445950001000000009034510032549PREGTIT31314609660663     000000000000599579050000000000000000000000000902270319000599579000000000000059957905270419000000015840023704151  000000000014300000000000000000000000000000000000000000000000000000000000000000000000000000000000000000000000000000000                          0000000000                                                                  000071
102122445950001000000009034510032549PREGTIT31313152128880     000000000000599579130000000000000000000000000902270319000599579100000000000059957913270419000000002500023700140  000000000014300000000000000000000000000000000000000000000000000000000000000000000000000000000000000000000000000000000                          0000000000                                                                  000072
102122445950001000000009034510032549PREGTIT31313179018592     000000000000599579560000000000000000000000000902270319000599579500000000000059957956270419000000030000023704151  000000000014300000000000000000000000000000000000000000000000000000000000000000000000000000000000000000000000000000000                          0000000000                                                                  000073
102122445950001000000009034510032549PREGTIT31311620198802     000000000000599579640000000000000000000000000902270319000599579600000000000059957964100419000000002500023700140  000000000014300000000000000000000000000000000000000000000000000000000000000000000000000000000000000000000000000000000                          0000000000                                                                  000074
102122445950001000000009034510032549PREGTIT31311620198802     000000000000599579720000000000000000000000000902270319000599579700000000000059957972100519000000002500023700140  000000000014300000000000000000000000000000000000000000000000000000000000000000000000000000000000000000000000000000000                          0000000000                                                                  000075
102122445950001000000009034510032549PREGTIT31311466221631     000000000000599580060000000000000000000000000902270319000599580000000000000059958006270419000000006000023704151  000000000014300000000000000000000000000000000000000000000000000000000000000000000000000000000000000000000000000000000                          0000000000                                                                  000076
102122445950001000000009034510032549PREGTIT31317586653054     000000000000599580220000000000000000000000000902270319000599580200000000000059958022270419000000020000023704151  000000000014300000000000000000000000000000000000000000000000000000000000000000000000000000000000000000000000000000000                          7600000000                                                                  000077
102122445950001000000009034510032549PREGTIT31327475786536     000000000000599580490000000000000000000000000902270319000599580400000000000059958049270419000000017000023703451  000000000014300000000000000000000000000000000000000000000000000000000000000000000000000000000000000000000000000000000                          7600000000                                                                  000078
102122445950001000000009034510032549PREGTIT31328726714555     000000000000599580570000000000000000000000000902270319000599580500000000000059958057270419000000006222423704151  000000000014300000000000000000000000000000000000000000000000000000000000000000000000000000000000000000000000000000000                          0000000000                                                                  000079
102122445950001000000009034510032549PREGTIT31322346731196     000000000000599580730000000000000000000000000902270319000599580700000000000059958073160419000000001700023703451  000000000014300000000000000000000000000000000000000000000000000000000000000000000000000000000000000000000000000000000                          0000000000                                                                  000080
102122445950001000000009034510032549PREGTIT31322346731196     000000000000599580810000000000000000000000000902270319000599580800000000000059958081160519000000001700023703451  000000000014300000000000000000000000000000000000000000000000000000000000000000000000000000000000000000000000000000000                          0000000000                                                                  000081
102122445950001000000009034510032549PREGTIT31337701058689     000000000000599581890000000000000000000000000902270319000599581800000000000059958189270419000000007013323704151  000000000014300000000000000000000000000000000000000000000000000000000000000000000000000000000000000000000000000000000                          0000000000                                                                  000082
102122445950001000000009034510032549PREGTIT31339602058293     000000000000599582000000000000000000000000000902270319000599582000000000000059958200270419000000015750023704151  000000000014300000000000000000000000000000000000000000000000000000000000000000000000000000000000000000000000000000000                          0000000000                                                                  000083
102122445950001000000009034510032549PREGTIT31334754872967     000000000000599582270000000000000000000000000902270319000599582200000000000059958227270419000000020000023704151  000000000014300000000000000000000000000000000000000000000000000000000000000000000000000000000000000000000000000000000                          7600000000                                                                  000084
102122445950001000000009034510032549PREGTIT31336313088002     000000000000599582430000000000000000000000000902270319000599582400000000000059958243270419000000017940023704151  000000000014300000000000000000000000000000000000000000000000000000000000000000000000000000000000000000000000000000000                          0000000000                                                                  000085
102122445950001000000009034510032549PREGTIT31349844568595     0000000000005995826P000000000000000000000000090227031900059958260000000000005995826P270419000000041250023704151  000000000014300000000000000000000000000000000000000000000000000000000000000000000000000000000000000000000000000000000                          0000000000                                                                  000086
102122445950001000000009034510032549PREGTIT31348180810585     000000000000599582780000000000000000000000000902270319000599582700000000000059958278250419000000002381823703451  000000000014300000000000000000000000000000000000000000000000000000000000000000000000000000000000000000000000000000000                          0000000000                                                                  000087
102122445950001000000009034510032549PREGTIT31348180810585     000000000000599582860000000000000000000000000902270319000599582800000000000059958286250519000000002381823703451  000000000014300000000000000000000000000000000000000000000000000000000000000000000000000000000000000000000000000000000                          0000000000                                                                  000088
102122445950001000000009034510032549PREGTIT31344291471665     000000000000599583320000000000000000000000000902270319000599583300000000000059958332270419000000040520023704151  000000000014300000000000000000000000000000000000000000000000000000000000000000000000000000000000000000000000000000000                          0000000000                                                                  000089
102122445950001000000009034510032549PREGTIT31345018455108     000000000000599583400000000000000000000000000902270319000599583400000000000059958340150419000000002296423704426  000000000014300000000000000000000000000000000000000000000000000000000000000000000000000000000000000000000000000000000                          0000000000                                                                  000090
102122445950001000000009034510032549PREGTIT31342285805613     000000000000599583670000000000000000000000000902270319000599583600000000000059958367270419000000024800023704151  000000000014300000000000000000000000000000000000000000000000000000000000000000000000000000000000000000000000000000000                          0000000000                                                                  000091
102122445950001000000009034510032549PREGTIT31342566776263     000000000000599583830000000000000000000000000902270319000599583800000000000059958383270419000000010750023704151  000000000014300000000000000000000000000000000000000000000000000000000000000000000000000000000000000000000000000000000                          0000000000                                                                  000092
102122445950001000000009034510032549PREGTIT31341887349196     000000000000599584050000000000000000000000000902270319000599584000000000000059958405270419000000004950023704151  000000000014300000000000000000000000000000000000000000000000000000000000000000000000000000000000000000000000000000000                          0000000000                                                                  000093
102122445950001000000009034510032549PREGTIT31342637887054     000000000000599584130000000000000000000000000902270319000599584100000000000059958413080419000000003561123704157  000000000014300000000000000000000000000000000000000000000000000000000000000000000000000000000000000000000000000000000                          0000000000                                                                  000094
102122445950001000000009034510032549PREGTIT31342637887054     000000000000599584210000000000000000000000000902270319000599584200000000000059958421180419000000003561123704157  000000000014300000000000000000000000000000000000000000000000000000000000000000000000000000000000000000000000000000000                          0000000000                                                                  000095
102122445950001000000009034510032549PREGTIT31344396693056     000000000000599584480000000000000000000000000902270319000599584400000000000059958448270419000000003000023704151  000000000014300000000000000000000000000000000000000000000000000000000000000000000000000000000000000000000000000000000                          0000000000                                                                  000096
102122445950001000000009034510032549PREGTIT31342226043235     000000000000599584560000000000000000000000000902270319000599584500000000000059958456050419000000000315023704144  000000000014300000000000000000000000000000000000000000000000000000000000000000000000000000000000000000000000000000000                          0000000000                                                                  000097
102122445950001000000009034510032549PREGTIT31345396775379     000000000000599584720000000000000000000000000902270319000599584700000000000059958472270419000000013000023704151  000000000014300000000000000000000000000000000000000000000000000000000000000000000000000000000000000000000000000000000                          0000000000                                                                  000098
102122445950001000000009034510032549PREGTIT31357659183202     000000000000599584990000000000000000000000000902270319000599584900000000000059958499270419000000050000023704151  000000000014300000000000000000000000000000000000000000000000000000000000000000000000000000000000000000000000000000000                          0000000000                                                                  000099
102122445950001000000009034510032549PREGTIT31359963319454     000000000000599585100000000000000000000000000902270319000599585100000000000059958510270419000000024500023704151  000000000014300000000000000000000000000000000000000000000000000000000000000000000000000000000000000000000000000000000                          0000000000                                                                  000100
102122445950001000000009034510032549PREGTIT31352275311822     000000000000599585290000000000000000000000000902270319000599585200000000000059958529050419000000018490023704144  000000000014300000000000000000000000000000000000000000000000000000000000000000000000000000000000000000000000000000000                          0000000000                                                                  000101
102122445950001000000009034510032549PREGTIT31352956523729     000000000000599585370000000000000000000000000902270319000599585300000000000059958537100519000000000439523704157  000000000014300000000000000000000000000000000000000000000000000000000000000000000000000000000000000000000000000000000                          0000000000                                                                  000102
102122445950001000000009034510032549PREGTIT31355339798244     000000000000599585960000000000000000000000000902270319000599585900000000000059958596050419000000030000023704144  000000000014300000000000000000000000000000000000000000000000000000000000000000000000000000000000000000000000000000000                          0000000000                                                                  000103
102122445950001000000009034510032549PREGTIT31359081194876     0000000000005995860P000000000000000000000000090227031900059958600000000000005995860P050419000000022000023704144  000000000014300000000000000000000000000000000000000000000000000000000000000000000000000000000000000000000000000000000                          0000000000                                                                  000104
102122445950001000000009034510032549PREGTIT31353265178232     000000000000599586180000000000000000000000000902270319000599586100000000000059958618270419000000004120023704400  000000000014300000000000000000000000000000000000000000000000000000000000000000000000000000000000000000000000000000000                          7600000000                                                                  000105
102122445950001000000009034510032549PREGTIT31353776787730     000000000000599586260000000000000000000000000902270319000599586200000000000059958626100519000000000458323704157  000000000014300000000000000000000000000000000000000000000000000000000000000000000000000000000000000000000000000000000                          0000000000                                                                  000106
102122445950001000000009034510032549PREGTIT31368004479486     000000000000599586690000000000000000000000000902270319000599586600000000000059958669160419000000006450023704144  000000000014300000000000000000000000000000000000000000000000000000000000000000000000000000000000000000000000000000000                          0000000000                                                                  000107
102122445950001000000009034510032549PREGTIT31367280771806     000000000000599586770000000000000000000000000902270319000599586700000000000059958677180419000000002975623704151  000000000014300000000000000000000000000000000000000000000000000000000000000000000000000000000000000000000000000000000                          0000000000                                                                  000108
102122445950001000000009034510032549PREGTIT31367280771806     000000000000599586850000000000000000000000000902270319000599586800000000000059958685180519000000002975623704151  000000000014300000000000000000000000000000000000000000000000000000000000000000000000000000000000000000000000000000000                          0000000000                                                                  000109
102122445950001000000009034510032549PREGTIT31367733922815     000000000000599587150000000000000000000000000902270319000599587100000000000059958715110419000000003500023704400  000000000014300000000000000000000000000000000000000000000000000000000000000000000000000000000000000000000000000000000                          7600000000                                                                  000110
102122445950001000000009034510032549PREGTIT31368243238292     000000000000599587230000000000000000000000000902270319000599587200000000000059958723110419000000001620023704400  000000000014300000000000000000000000000000000000000000000000000000000000000000000000000000000000000000000000000000000                          7600000000                                                                  000111
102122445950001000000009034510032549PREGTIT31367969785841     0000000000005995874P000000000000000000000000090227031900059958740000000000005995874P270419000000046620023704151  000000000014300000000000000000000000000000000000000000000000000000000000000000000000000000000000000000000000000000000                          7600000000                                                                  000112
102122445950001000000009034510032549PREGTIT31366884707887     000000000000599587660000000000000000000000000902270319000599587600000000000059958766270419000000009990023704151  000000000014300000000000000000000000000000000000000000000000000000000000000000000000000000000000000000000000000000000                          0000000000                                                                  000113
102122445950001000000009034510032549PREGTIT31362236831705     000000000000599587820000000000000000000000000902270319000599587800000000000059958782270419000000002900023704151  000000000014300000000000000000000000000000000000000000000000000000000000000000000000000000000000000000000000000000000                          0000000000                                                                  000114
102122445950001000000009034510032549PREGTIT31367427084644     000000000000599588040000000000000000000000000902270319000599588000000000000059958804270419000000004500023704151  000000000014300000000000000000000000000000000000000000000000000000000000000000000000000000000000000000000000000000000                          7600000000                                                                  000115
102122445950001000000009034510032549PREGTIT31364030185387     000000000000599588120000000000000000000000000902270319000599588100000000000059958812110419000000000700023704400  000000000014300000000000000000000000000000000000000000000000000000000000000000000000000000000000000000000000000000000                          7600000000                                                                  000116
102122445950001000000009034510032549PREGTIT31363584323910     000000000000599588390000000000000000000000000902270319000599588300000000000059958839270419000000022000023704151  000000000014300000000000000000000000000000000000000000000000000000000000000000000000000000000000000000000000000000000                          0000000000                                                                  000117
102122445950001000000009034510032549PREGTIT31377884163670     000000000000599588550000000000000000000000000902270319000599588500000000000059958855270419000000005000023704151  000000000014300000000000000000000000000000000000000000000000000000000000000000000000000000000000000000000000000000000                          0000000000                                                                  000118
102122445950001000000009034510032549PREGTIT31379780721060     000000000000599588710000000000000000000000000902270319000599588700000000000059958871270419000000029700023704151  000000000014300000000000000000000000000000000000000000000000000000000000000000000000000000000000000000000000000000000                          0000000000                                                                  000119
102122445950001000000009034510032549PREGTIT31373768560555     000000000000599588980000000000000000000000000902270319000599588900000000000059958898270419000000024750023704151  000000000014300000000000000000000000000000000000000000000000000000000000000000000000000000000000000000000000000000000                          7600000000                                                                  000120
102122445950001000000009034510032549PREGTIT31375788552102     0000000000005995891P000000000000000000000000090227031900059958910000000000005995891P270419000000035000023704159  000000000014300000000000000000000000000000000000000000000000000000000000000000000000000000000000000000000000000000000                          0000000000                                                                  000121
102122445950001000000009034510032549PREGTIT31376712891078     000000000000599589360000000000000000000000000902270319000599589300000000000059958936270419000000019800023704151  000000000014300000000000000000000000000000000000000000000000000000000000000000000000000000000000000000000000000000000                          0000000000                                                                  000122
102122445950001000000009034510032549PREGTIT31379027209997     000000000000599589440000000000000000000000000902270319000599589400000000000059958944250419000000004500023704144  000000000014300000000000000000000000000000000000000000000000000000000000000000000000000000000000000000000000000000000                          7600000000                                                                  000123
102122445950001000000009034510032549PREGTIT31372093113706     000000000000599589600000000000000000000000000902270319000599589600000000000059958960270419000000009700023704151  000000000014300000000000000000000000000000000000000000000000000000000000000000000000000000000000000000000000000000000                          0000000000                                                                  000124
102122445950001000000009034510032549PREGTIT31372685581801     000000000000599589790000000000000000000000000902270319000599589700000000000059958979250419000000008750023704144  000000000014300000000000000000000000000000000000000000000000000000000000000000000000000000000000000000000000000000000                          0000000000                                                                  000125
102122445950001000000009034510032549PREGTIT31372359181100     000000000000599589950000000000000000000000000902270319000599589900000000000059958995270419000000010800023704151  000000000014300000000000000000000000000000000000000000000000000000000000000000000000000000000000000000000000000000000                          0000000000                                                                  000126
102122445950001000000009034510032549PREGTIT31371240224631     000000000000599590020000000000000000000000000902270319000599590000000000000059959002100419000000001850023704157  000000000014300000000000000000000000000000000000000000000000000000000000000000000000000000000000000000000000000000000                          0000000000                                                                  000127
102122445950001000000009034510032549PREGTIT31371240224631     000000000000599590100000000000000000000000000902270319000599590100000000000059959010100519000000001850023704157  000000000014300000000000000000000000000000000000000000000000000000000000000000000000000000000000000000000000000000000                          0000000000                                                                  000128
102122445950001000000009034510032549PREGTIT31384851075472     0000000000005995907P000000000000000000000000090227031900059959070000000000005995907P270419000000000902023704151  000000000014300000000000000000000000000000000000000000000000000000000000000000000000000000000000000000000000000000000                          0000000000                                                                  000129
102122445950001000000009034510032549PREGTIT31383822775996     000000000000599592070000000000000000000000000902270319000599592000000000000059959207270419000000003000023704422  000000000014300000000000000000000000000000000000000000000000000000000000000000000000000000000000000000000000000000000                          0000000000                                                                  000130
102122445950001000000009034510032549PREGTIT26622352244957     000000000000594092070000000000000000000000000906270319000594092000000000000059409207270319000000002400010400410  000000000000000000000000000000000000000000000000000000000000000000000000000000000000002400000000000000000000000000000   280319             00000000000000                                                                  000131
102122445950001000000009034510032549PREGTIT26733466252154     000000000000595129540000000000000000000000000906270319000595129500000000000059512954300319000000001000023703101  000000000000000000000000000000000000000000000000000000000000000000000000000000000000001000000000000000000000000000000   280319             00000000000000                                                                  000132
102122445950001000000009034510032549PREGTIT22216064030321     000000000000595926480000000000000000000000000906270319000595926400000000000059592648270119000000004000010402864  000000000000000000000000000000000000000000000000000000000000000000000000000000000000004239300000000023930000000000000   280319             00000000000000                                                                  000133
102122445950001000000009034510032549PREGTIT26628355515201     000000000000595926990000000000000000000000000906270319000595926900000000000059592699270319000000001000010402864  000000000000000000000000000000000000000000000000000000000000000000000000000000000000001000000000000000000000000000000   280319             00000000000000                                                                  000134
102122445950001000000009034510032549PREGTIT26621325889999     000000000000596693650000000000000000000000000906270319000596693600000000000059669365280319000000001750023701821  000000000000000000000000000000000000000000000000000000000000000000000000000000000000001750000000000000000000000000000   280319             00000000000000                                                                  000135
102122445950001000000009034510032549PREGTIT26621352951721     000000000000596732730000000000000000000000000906270319000596732700000000000059673273280319000000003333423701842  000000000000000000000000000000000000000000000000000000000000000000000000000000000000003333400000000000000000000000000   280319             00000000000000                                                                  000136
102122445950001000000009034510032549PREGTIT26629406811396     000000000000596834220000000000000000000000000906270319000596834200000000000059683422280319000000003147510403363  000000000000000000000000000000000000000000000000000000000000000000000000000000000000003147500000000000000000000000000   280319             00000000000000                                                                  000137
102122445950001000000009034510032549PREGTIT25542218954935     000000000000596931850000000000000000000000000906270319000596931800000000000059693185130319000000001950010404223  000000000000000000000000000000000000000000000000000000000000000000000000000000000000002007200000000005720000000000000   280319             00000000000000                                                                  000138
102122445950001000000009034510032549PREGTIT26942869247003     000000000000597784900000000000000000000000000906270319000597784900000000000059778490010419000000002000004100982  000000000000000000000000000000000000000000000000000000000000000000000000000000000000002000000000000000000000000000000   280319             00000000000000                                                                  000139
102122445950001000000009034510032549PREGTIT27302288989312     000000000000597854380000000000000000000000000906270319000597854300000000000059785438250219000000001200010401882  000000000000000000000000000000000000000000000000000000000000000000000000000000000000001248000000000004800000000000000   280319             00000000000000                                                                  000140
102122445950001000000009034510032549PREGTIT27302288989312     000000000000597854460000000000000000000000000906270319000597854400000000000059785446250319000000001200010401882  000000000000000000000000000000000000000000000000000000000000000000000000000000000000001225600000000002560000000000000   280319             00000000000000                                                                  000141
102122445950001000000009034510032549PREGTIT28653110362721     000000000000598568310000000000000000000000000906270319000598568300000000000059856831220319000000002752307000792  000000000000000000000000000000000000000000000000000000000000000000000000000000000000002816300000000006400000000000000   280319             00000000000000                                                                  000142
102122445950001000000009034510032549PREGTIT29009333663206     000000000000598610020000000000000000000000000906270319000598610000000000000059861002270319000000003390010403521  000000000000000000000000000000000000000000000000000000000000000000000000000000000000003390000000000000000000000000000   280319             00000000000000                                                                  000143
102122445950001000000009034510032549PREGTIT29121396597242     000000000000598626370000000000000000000000000906270319000598626300000000000059862637270319000000000996023703710  000000000000000000000000000000000000000000000000000000000000000000000000000000000000000996000000000000000000000000000   280319             00000000000000                                                                  000144
102122445950001000000009034510032549PREGTIT29127671815695     000000000000598626880000000000000000000000000906270319000598626800000000000059862688200319000000001199023701972  000000000000000000000000000000000000000000000000000000000000000000000000000000000000001236900000000003790000000000000   280319             00000000000000                                                                  000145
102122445950001000000009034510032549PREGTIT29138327022215     000000000000598628230000000000000000000000000906270319000598628200000000000059862823270319000000001966703302189  000000000000000000000000000000000000000000000000000000000000000000000000000000000000001966700000000000000000000000000   280319             00000000000000                                                                  000146
102122445950001000000009034510032549PREGTIT29701895637102     0000000000005986625P000000000000000000000000090627031900059866250000000000005986625P270319000000002220023700926  000000000000000000000000000000000000000000000000000000000000000000000000000000000000002220000000000000000000000000000   280319             00000000000000                                                                  000147
102122445950001000000009034510032549PREGTIT29764024595953     000000000000598669260000000000000000000000000906270319000598669200000000000059866926150319000000007000010403509  000000000000000000000000000000000000000000000000000000000000000000000000000000000000007196400000000019640000000000000   280319             00000000000000                                                                  000148
102122445950001000000009034510032549PREGTIT30296149500670     000000000000599281230000000000000000000000000906270319000599281200000000000059928123270319000000006790034106896  000000000000000000000000000000000000000000000000000000000000000000000000000000000000006790000000000000000000000000000   280319             00000000000000                                                                  000149
102122445950001000000009034510032549PREGTIT30839018855268     000000000000599415960000000000000000000000000906270319000599415900000000000059941596270319000000001600003300206  000000000000000000000000000000000000000000000000000000000000000000000000000000000000001600000000000000000000000000000   280319             00000000000000                                                                  000150
102122445950001000000009034510032549PREGTIT31052396812219     000000000000599507220000000000000000000000000906270319000599507200000000000059950722270319000000002280034103833  000000000000000000000000000000000000000000000000000000000000000000000000000000000000002280000000000000000000000000000   280319             00000000000000                                                                  000151
102122445950001000000009034510032549PREGTIT31106081249126     000000000000599541670000000000000000000000000906270319000599541600000000000059954167010419000000000600010401266  000000000000000000000000000000000000000000000000000000000000000000000000000000000000000600000000000000000000000000000   280319             00000000000000                                                                  000152
102122445950001000000009034510032549PREGTIT31284635799026     000000000000599568520000000000000000000000000906270319000599568500000000000059956852270319000000042000074800725  000000000000000000000000000000000000000000000000000000000000000000000000000000000000042000000000000000000000000000000   280319             00000000000000                                                                  000153
102122445950001000000009034510032549PREGTIT31352275311822     000000000000599585290000000000000000000000000906270319000599585200000000000059958529050419000000018490000100355  000000000000000000000000000000000000000000000000000000000000000000000000000000000000018490000000000000000000000000000   280319             00000000000000                                                                  000154
102122445950001000000009034510032549PREGTIT31355339798244     000000000000599585960000000000000000000000000906270319000599585900000000000059958596050419000000030000003303908  000000000000000000000000000000000000000000000000000000000000000000000000000000000000030000000000000000000000000000000   280319             00000000000000                                                                  000155
102122445950001000000009034510032549PREGTIT31359081194876     0000000000005995860P000000000000000000000000090627031900059958600000000000005995860P050419000000022000003303908  000000000000000000000000000000000000000000000000000000000000000000000000000000000000022000000000000000000000000000000   280319             00000000000000                                                                  000156
102122445950001000000009034510032549PREGTIT25436896803039     000000000000591686840000000000000000000000000909270319000591686800000000000059168684120319000000000531623704150  000000000000000000000000000000000000000000000000000000000000000000000000000000000000000000000000000000000000000000000                          0000000000                                                                  000157
102122445950001000000009034510032549PREGTIT25541443441580     000000000000593735040000000000000000000000000909270319000593735000000000000059373504130319000000000750023704150  000000000000000000000000000000000000000000000000000000000000000000000000000000000000000000000000000000000000000000000                          0000000000                                                                  000158
102122445950001000000009034510032549PREGTIT25547553346815     000000000000595040640000000000000000000000000909270319000595040600000000000059504064150319000000000562523704150  000000000000000000000000000000000000000000000000000000000000000000000000000000000000000000000000000000000000000000000                          0000000000                                                                  000159
102122445950001000000009034510032549PREGTIT25488908830558     000000000000595677320000000000000000000000000909270319000595677300000000000059567732070319000000001615823704150  000000000000000000000000000000000000000000000000000000000000000000000000000000000000000000000000000000000000000000000                          0000000000                                                                  000160
102122445950001000000009034510032549PREGTIT26086906776444     000000000000595779160000000000000000000000000909270319000595779100000000000059577916200319000000001700023704150  000000000000000000000000000000000000000000000000000000000000000000000000000000000000000000000000000000000000000000000                          0000000000                                                                  000161
102122445950001000000009034510032549PREGTIT26514669330823     000000000000595888880000000000000000000000000909270319000595888800000000000059588888260319000000001095023704150  000000000000000000000000000000000000000000000000000000000000000000000000000000000000000000000000000000000000000000000                          0000000000                                                                  000162
102122445950001000000009034510032549PREGTIT24544859865316     000000000000595918700000000000000000000000000909270319000595918700000000000059591870280219000000001225023704150  000000000000000000000000000000000000000000000000000000000000000000000000000000000000000000000000000000000000000000000                          0000000000                                                                  000163
102122445950001000000009034510032549PREGTIT24547282528695     000000000000595922300000000000000000000000000909270319000595922300000000000059592230280219000000001300023704150  000000000000000000000000000000000000000000000000000000000000000000000000000000000000000000000000000000000000000000000                          0000000000                                                                  000164
102122445950001000000009034510032549PREGTIT24883464478651     000000000000596585920000000000000000000000000909270319000596585900000000000059658592050319000000001200023704150  000000000000000000000000000000000000000000000000000000000000000000000000000000000000000000000000000000000000000000000                          0000000000                                                                  000165
102122445950001000000009034510032549PREGTIT26627561714752     000000000000596717260000000000000000000000000909270319000596717200000000000059671726270319000000000441023704150  000000000000000000000000000000000000000000000000000000000000000000000000000000000000000000000000000000000000000000000                          0000000000                                                                  000166
102122445950001000000009034510032549PREGTIT25543011789048     000000000000596732140000000000000000000000000909270319000596732100000000000059673214150319000000000523823704150  000000000000000000000000000000000000000000000000000000000000000000000000000000000000000000000000000000000000000000000                          0000000000                                                                  000167
102122445950001000000009034510032549PREGTIT26084075571517     000000000000596809110000000000000000000000000909270319000596809100000000000059680911200319000000004400023704150  000000000000000000000000000000000000000000000000000000000000000000000000000000000000000000000000000000000000000000000                          0000000000                                                                  000168
102122445950001000000009034510032549PREGTIT26124464479378     000000000000597651860000000000000000000000000909270319000597651800000000000059765186210319000000002500023704150  000000000000000000000000000000000000000000000000000000000000000000000000000000000000000000000000000000000000000000000                          0000000000                                                                  000169
102122445950001000000009034510032549PREGTIT26283500471611     000000000000597685680000000000000000000000000909270319000597685600000000000059768568200319000000001450023704150  000000000000000000000000000000000000000000000000000000000000000000000000000000000000000000000000000000000000000000000                          0000000000                                                                  000170
102122445950001000000009034510032549PREGTIT27654587654893     000000000000597905710000000000000000000000000909270319000597905700000000000059790571280319000000000450023704150  000000000000000000000000000000000000000000000000000000000000000000000000000000000000000000000000000000000000000000000                          0000000000                                                                  000171
102122445950001000000009034510032549PREGTIT27987260228022     000000000000598459100000000000000000000000000909270319000598459100000000000059845910100319000000002640023704150  000000000000000000000000000000000000000000000000000000000000000000000000000000000000000000000000000000000000000000000                          0000000000                                                                  000172
102122445950001000000009034510032549PREGTIT29004986207145     000000000000598612900000000000000000000000000909270319000598612900000000000059861290260319000000000883323704150  000000000000000000000000000000000000000000000000000000000000000000000000000000000000000000000000000000000000000000000                          0000000000                                                                  000173
102122445950001000000009034510032549PREGTIT29115366252006     000000000000598625130000000000000000000000000909270319000598625100000000000059862513250319000000002200023704150  000000000000000000000000000000000000000000000000000000000000000000000000000000000000000000000000000000000000000000000                          0000000000                                                                  000174
102122445950001000000009034510032549PREGTIT17328399409126     000000000000563940120000000000000000000000000910270319000563940100000000000056394012261118000000005000023700000  000000000000000000000000000000000000000000000000000000000000000000000000000000000000000000000000000000000000000000000                          1600000000                                                                  000175
102122445950001000000009034510032549PREGTIT17326620865075     000000000000564251710000000000000000000000000910270319000564251700000000000056425171261118000000002500023700000  000000000000000000000000000000000000000000000000000000000000000000000000000000000000000000000000000000000000000000000                          1600000000                                                                  000176
102122445950001000000009034510032549PREGTIT17322692165395     000000000000585549550000000000000000000000000910270319000585549500000000000058554955261118000000015900023700000  000000000000000000000000000000000000000000000000000000000000000000000000000000000000000000000000000000000000000000000                          1600000000                                                                  000177
102122445950001000000009034510032549PREGTIT17324798734481     000000000000586653820000000000000000000000000910270319000586653800000000000058665382261118000000008000023700000  000000000000000000000000000000000000000000000000000000000000000000000000000000000000000000000000000000000000000000000                          1600000000                                                                  000178
102122445950001000000009034510032549PREGTIT17325147217640     000000000000588013160000000000000000000000000910270319000588013100000000000058801316261118000000000950023700000  000000000000000000000000000000000000000000000000000000000000000000000000000000000000000000000000000000000000000000000                          1600000000                                                                  000179
102122445950001000000009034510032549PREGTIT17322401593832     000000000000588777620000000000000000000000000910270319000588777600000000000058877762261118000000002750023700000  000000000000000000000000000000000000000000000000000000000000000000000000000000000000000000000000000000000000000000000                          1600000000                                                                  000180
102122445950001000000009034510032549PREGTIT17322009997181     000000000000588887800000000000000000000000000910270319000588887800000000000058888780261118000000000800023700000  000000000000000000000000000000000000000000000000000000000000000000000000000000000000000000000000000000000000000000000                          1600000000                                                                  000181
102122445950001000000009034510032549PREGTIT17323684121531     000000000000590186820000000000000000000000000910270319000590186800000000000059018682261118000000001116723700000  000000000000000000000000000000000000000000000000000000000000000000000000000000000000000000000000000000000000000000000                          1600000000                                                                  000182
102122445950001000000009034510032549PREGTIT17326256731872     000000000000591004430000000000000000000000000910270319000591004400000000000059100443261118000000000833323700000  000000000000000000000000000000000000000000000000000000000000000000000000000000000000000000000000000000000000000000000                          1600000000                                                                  000183
102122445950001000000009034510032549PREGTIT17322011444465     000000000000591151300000000000000000000000000910270319000591151300000000000059115130261118000000000900023700000  000000000000000000000000000000000000000000000000000000000000000000000000000000000000000000000000000000000000000000000                          1600000000                                                                  000184
102122445950001000000009034510032549PREGTIT17323163456999     000000000000591856270000000000000000000000000910270319000591856200000000000059185627261118000000001333323700000  000000000000000000000000000000000000000000000000000000000000000000000000000000000000000000000000000000000000000000000                          1600000000                                                                  000185
102122445950001000000009034510032549PREGTIT17322278327122     000000000000591903960000000000000000000000000910270319000591903900000000000059190396261118000000002900023700000  000000000000000000000000000000000000000000000000000000000000000000000000000000000000000000000000000000000000000000000                          1600000000                                                                  000186
102122445950001000000009034510032549PREGTIT17323607079374     000000000000591915030000000000000000000000000910270319000591915000000000000059191503261118000000002575023700000  000000000000000000000000000000000000000000000000000000000000000000000000000000000000000000000000000000000000000000000                          1600000000                                                                  000187
102122445950001000000009034510032549PREGTIT17329663799516     000000000000591915460000000000000000000000000910270319000591915400000000000059191546261118000000000950023700000  000000000000000000000000000000000000000000000000000000000000000000000000000000000000000000000000000000000000000000000                          1600000000                                                                  000188
102122445950001000000009034510032549PREGTIT17327851783351     000000000000591949600000000000000000000000000910270319000591949600000000000059194960261118000000001083323700000  000000000000000000000000000000000000000000000000000000000000000000000000000000000000000000000000000000000000000000000                          1600000000                                                                  000189
102122445950001000000009034510032549PREGTIT17327542255541     000000000000592608580000000000000000000000000910270319000592608500000000000059260858261118000000002320023700000  000000000000000000000000000000000000000000000000000000000000000000000000000000000000000000000000000000000000000000000                          1600000000                                                                  000190
102122445950001000000009034510032549PREGTIT17326260703648     000000000000592638570000000000000000000000000910270319000592638500000000000059263857261118000000001000023700000  000000000000000000000000000000000000000000000000000000000000000000000000000000000000000000000000000000000000000000000                          1600000000                                                                  000191
102122445950001000000009034510032549PREGTIT17329708794272     0000000000005928627P000000000000000000000000091027031900059286270000000000005928627P261118000000000500023700000  000000000000000000000000000000000000000000000000000000000000000000000000000000000000000000000000000000000000000000000                          1600000000                                                                  000192
102122445950001000000009034510032549PREGTIT17325361778967     000000000000592863850000000000000000000000000910270319000592863800000000000059286385261118000000000666723700000  000000000000000000000000000000000000000000000000000000000000000000000000000000000000000000000000000000000000000000000                          1600000000                                                                  000193
102122445950001000000009034510032549PREGTIT17323734514059     000000000000592879180000000000000000000000000910270319000592879100000000000059287918261118000000001200023700000  000000000000000000000000000000000000000000000000000000000000000000000000000000000000000000000000000000000000000000000                          1600000000                                                                  000194
102122445950001000000009034510032549PREGTIT17322115113991     000000000000592879690000000000000000000000000910270319000592879600000000000059287969261118000000001000023700000  000000000000000000000000000000000000000000000000000000000000000000000000000000000000000000000000000000000000000000000                          1600000000                                                                  000195
102122445950001000000009034510032549PREGTIT17328958056871     000000000000592879930000000000000000000000000910270319000592879900000000000059287993261118000000001000023700000  000000000000000000000000000000000000000000000000000000000000000000000000000000000000000000000000000000000000000000000                          1600000000                                                                  000196
102122445950001000000009034510032549PREGTIT17321808557427     000000000000592880350000000000000000000000000910270319000592880300000000000059288035261118000000001000023700000  000000000000000000000000000000000000000000000000000000000000000000000000000000000000000000000000000000000000000000000                          1600000000                                                                  000197
102122445950001000000009034510032549PREGTIT17327719295422     000000000000592880940000000000000000000000000910270319000592880900000000000059288094261118000000001325023700000  000000000000000000000000000000000000000000000000000000000000000000000000000000000000000000000000000000000000000000000                          1600000000                                                                  000198
102122445950001000000009034510032549PREGTIT17323097711428     000000000000592881590000000000000000000000000910270319000592881500000000000059288159261118000000001200023700000  000000000000000000000000000000000000000000000000000000000000000000000000000000000000000000000000000000000000000000000                          1600000000                                                                  000199
102122445950001000000009034510032549PREGTIT17326981055591     000000000000592881910000000000000000000000000910270319000592881900000000000059288191261118000000000450023700000  000000000000000000000000000000000000000000000000000000000000000000000000000000000000000000000000000000000000000000000                          1600000000                                                                  000200
102122445950001000000009034510032549PREGTIT17323266927910     000000000000593073900000000000000000000000000910270319000593073900000000000059307390261118000000001521323700000  000000000000000000000000000000000000000000000000000000000000000000000000000000000000000000000000000000000000000000000                          1600000000                                                                  000201
102122445950001000000009034510032549PREGTIT17328125277074     000000000000593816040000000000000000000000000910270319000593816000000000000059381604261118000000002800023700000  000000000000000000000000000000000000000000000000000000000000000000000000000000000000000000000000000000000000000000000                          1600000000                                                                  000202
102122445950001000000009034510032549PREGTIT17322053873932     000000000000593916500000000000000000000000000910270319000593916500000000000059391650261118000000001350023700000  000000000000000000000000000000000000000000000000000000000000000000000000000000000000000000000000000000000000000000000                          1600000000                                                                  000203
102122445950001000000009034510032549PREGTIT17323189854000     000000000000593918550000000000000000000000000910270319000593918500000000000059391855261118000000003000023700000  000000000000000000000000000000000000000000000000000000000000000000000000000000000000000000000000000000000000000000000                          1600000000                                                                  000204
102122445950001000000009034510032549PREGTIT17323148768320     000000000000593926060000000000000000000000000910270319000593926000000000000059392606261118000000000284723700000  000000000000000000000000000000000000000000000000000000000000000000000000000000000000000000000000000000000000000000000                          1600000000                                                                  000205
102122445950001000000009034510032549PREGTIT17328877041625     000000000000593931220000000000000000000000000910270319000593931200000000000059393122261118000000001800023700000  000000000000000000000000000000000000000000000000000000000000000000000000000000000000000000000000000000000000000000000                          1600000000                                                                  000206
102122445950001000000009034510032549PREGTIT17365817812859     000000000000593941530000000000000000000000000910270319000593941500000000000059394153261118000000000733323700000  000000000000000000000000000000000000000000000000000000000000000000000000000000000000000000000000000000000000000000000                          1600000000                                                                  000207
102122445950001000000009034510032549PREGTIT17369215327592     000000000000593942180000000000000000000000000910270319000593942100000000000059394218261118000000000670023700000  000000000000000000000000000000000000000000000000000000000000000000000000000000000000000000000000000000000000000000000                          1600000000                                                                  000208
102122445950001000000009034510032549PREGTIT17513369071810     000000000000593978020000000000000000000000000910270319000593978000000000000059397802261118000000020000023700000  000000000000000000000000000000000000000000000000000000000000000000000000000000000000000000000000000000000000000000000                          1600000000                                                                  000209
102122445950001000000009034510032549PREGTIT17562254337204     000000000000594004200000000000000000000000000910270319000594004200000000000059400420261118000000001666723700000  000000000000000000000000000000000000000000000000000000000000000000000000000000000000000000000000000000000000000000000                          1600000000                                                                  000210
102122445950001000000009034510032549PREGTIT17664753751311     000000000000594029620000000000000000000000000910270319000594029600000000000059402962261118000000001500023700000  000000000000000000000000000000000000000000000000000000000000000000000000000000000000000000000000000000000000000000000                          1600000000                                                                  000211
102122445950001000000009034510032549PREGTIT19473450738278     000000000000594890490000000000000000000000000910270319000594890400000000000059489049261118000000000850023700000  000000000000000000000000000000000000000000000000000000000000000000000000000000000000000000000000000000000000000000000                          1600000000                                                                  000212
102122445950001000000009034510032549PREGTIT19476284550610     0000000000005948909P000000000000000000000000091027031900059489090000000000005948909P261118000000001060023700000  000000000000000000000000000000000000000000000000000000000000000000000000000000000000000000000000000000000000000000000                          1600000000                                                                  000213
102122445950001000000009034510032549PREGTIT19526821004735     0000000000005949025P000000000000000000000000091027031900059490250000000000005949025P261118000000000900023700000  000000000000000000000000000000000000000000000000000000000000000000000000000000000000000000000000000000000000000000000                          1600000000                                                                  000214
102122445950001000000009034510032549PREGTIT19521883011894     000000000000594903060000000000000000000000000910270319000594903000000000000059490306261118000000001060023700000  000000000000000000000000000000000000000000000000000000000000000000000000000000000000000000000000000000000000000000000                          1600000000                                                                  000215
102122445950001000000009034510032549PREGTIT19642172433795     000000000000594926350000000000000000000000000910270319000594926300000000000059492635261118000000006550023700000  000000000000000000000000000000000000000000000000000000000000000000000000000000000000000000000000000000000000000000000                          1600000000                                                                  000216
102122445950001000000009034510032549PREGTIT19669793617129     000000000000594931780000000000000000000000000910270319000594931700000000000059493178261118000000001300023700000  000000000000000000000000000000000000000000000000000000000000000000000000000000000000000000000000000000000000000000000                          1600000000                                                                  000217
102122445950001000000009034510032549PREGTIT19705486893235     000000000000594938790000000000000000000000000910270319000594938700000000000059493879261118000000000533823700000  000000000000000000000000000000000000000000000000000000000000000000000000000000000000000000000000000000000000000000000                          1600000000                                                                  000218
102122445950001000000009034510032549PREGTIT20453326154988     000000000000595062530000000000000000000000000910270319000595062500000000000059506253261118000000002850023700000  000000000000000000000000000000000000000000000000000000000000000000000000000000000000000000000000000000000000000000000                          1600000000                                                                  000219
102122445950001000000009034510032549PREGTIT21825187615412     000000000000595836730000000000000000000000000910270319000595836700000000000059583673261118000000006700023700000  000000000000000000000000000000000000000000000000000000000000000000000000000000000000000000000000000000000000000000000                          1600000000                                                                  000220
102122445950001000000009034510032549PREGTIT21894838205257     000000000000595842620000000000000000000000000910270319000595842600000000000059584262261118000000044400023700000  000000000000000000000000000000000000000000000000000000000000000000000000000000000000000000000000000000000000000000000                          1600000000                                                                  000221
102122445950001000000009034510032549PREGTIT31284928989108     000000000000591847790000000000000000000000000927270319000591847700000000000059184779200319000000002200023700000  000000000000000000000000000000000000000000000000000000000000000000000000000000000000000000000000000000000000000000000                          6000000000                                                                  000222
102122445950001000000009034510032549PREGTIT31287060896476     000000000000591876620000000000000000000000000927270319000591876600000000000059187662240319000000005000023700000  000000000000000000000000000000000000000000000000000000000000000000000000000000000000000000000000000000000000000000000                          6000000000                                                                  000223
102122445950001000000009034510032549PREGTIT31289782520362     0000000000005920866P000000000000000000000000092727031900059208660000000000005920866P120319000000002300023700000  000000000000000000000000000000000000000000000000000000000000000000000000000000000000000000000000000000000000000000000                          6000000000                                                                  000224
102122445950001000000009034510032549PREGTIT31288466631894     000000000000592833780000000000000000000000000927270319000592833700000000000059283378300319000000001000023700000  000000000000000000000000000000000000000000000000000000000000000000000000000000000000000000000000000000000000000000000                          6000000000                                                                  000225
102122445950001000000009034510032549PREGTIT31331443441580     000000000000593735040000000000000000000000000927270319000593735000000000000059373504130319000000000750023700000  000000000000000000000000000000000000000000000000000000000000000000000000000000000000000000000000000000000000000000000                          6000000000                                                                  000226
102122445950001000000009034510032549PREGTIT31283785486688     000000000000593801790000000000000000000000000927270319000593801700000000000059380179180319000000000583423700000  000000000000000000000000000000000000000000000000000000000000000000000000000000000000000000000000000000000000000000000                          6000000000                                                                  000227
102122445950001000000009034510032549PREGTIT31281209408976     000000000000594794260000000000000000000000000927270319000594794200000000000059479426100319000000000833423700000  000000000000000000000000000000000000000000000000000000000000000000000000000000000000000000000000000000000000000000000                          6000000000                                                                  000228
102122445950001000000009034510032549PREGTIT31285849431691     000000000000594794850000000000000000000000000927270319000594794800000000000059479485170319000000001000023700000  000000000000000000000000000000000000000000000000000000000000000000000000000000000000000000000000000000000000000000000                          6000000000                                                                  000229
102122445950001000000009034510032549PREGTIT31283165171307     000000000000594948830000000000000000000000000927270319000594948800000000000059494883260319000000000333423700000  000000000000000000000000000000000000000000000000000000000000000000000000000000000000000000000000000000000000000000000                          6000000000                                                                  000230
102122445950001000000009034510032549PREGTIT31337553346815     000000000000595040640000000000000000000000000927270319000595040600000000000059504064150319000000000562523700000  000000000000000000000000000000000000000000000000000000000000000000000000000000000000000000000000000000000000000000000                          6000000000                                                                  000231
102122445950001000000009034510032549PREGTIT31338908830558     000000000000595677320000000000000000000000000927270319000595677300000000000059567732070319000000001615823700000  000000000000000000000000000000000000000000000000000000000000000000000000000000000000000000000000000000000000000000000                          6000000000                                                                  000232
102122445950001000000009034510032549PREGTIT31287501699394     000000000000595749410000000000000000000000000927270319000595749400000000000059574941200319000000004398323700000  000000000000000000000000000000000000000000000000000000000000000000000000000000000000000000000000000000000000000000000                          6000000000                                                                  000233
102122445950001000000009034510032549PREGTIT31306906776444     000000000000595779160000000000000000000000000927270319000595779100000000000059577916200319000000001700023700000  000000000000000000000000000000000000000000000000000000000000000000000000000000000000000000000000000000000000000000000                          6000000000                                                                  000234
102122445950001000000009034510032549PREGTIT31374669330823     000000000000595888880000000000000000000000000927270319000595888800000000000059588888260319000000001095023700000  000000000000000000000000000000000000000000000000000000000000000000000000000000000000000000000000000000000000000000000                          6000000000                                                                  000235
102122445950001000000009034510032549PREGTIT31324859865316     000000000000595918700000000000000000000000000927270319000595918700000000000059591870280219000000001225023700000  000000000000000000000000000000000000000000000000000000000000000000000000000000000000000000000000000000000000000000000                          6000000000                                                                  000236
102122445950001000000009034510032549PREGTIT31317282528695     000000000000595922300000000000000000000000000927270319000595922300000000000059592230280219000000001300023700000  000000000000000000000000000000000000000000000000000000000000000000000000000000000000000000000000000000000000000000000                          6000000000                                                                  000237
102122445950001000000009034510032549PREGTIT31303464478651     000000000000596585920000000000000000000000000927270319000596585900000000000059658592050319000000001200023700000  000000000000000000000000000000000000000000000000000000000000000000000000000000000000000000000000000000000000000000000                          6000000000                                                                  000238
102122445950001000000009034510032549PREGTIT31289125736339     000000000000596609370000000000000000000000000927270319000596609300000000000059660937200319000000001400023700000  000000000000000000000000000000000000000000000000000000000000000000000000000000000000000000000000000000000000000000000                          6000000000                                                                  000239
102122445950001000000009034510032549PREGTIT31347561714752     000000000000596717260000000000000000000000000927270319000596717200000000000059671726270319000000000441023700000  000000000000000000000000000000000000000000000000000000000000000000000000000000000000000000000000000000000000000000000                          6000000000                                                                  000240
102122445950001000000009034510032549PREGTIT31364075571517     000000000000596809110000000000000000000000000927270319000596809100000000000059680911200319000000004400023700000  000000000000000000000000000000000000000000000000000000000000000000000000000000000000000000000000000000000000000000000                          6000000000                                                                  000241
102122445950001000000009034510032549PREGTIT31285635010744     000000000000596896330000000000000000000000000927270319000596896300000000000059689633270319000000000280523700000  000000000000000000000000000000000000000000000000000000000000000000000000000000000000000000000000000000000000000000000                          6000000000                                                                  000242
102122445950001000000009034510032549PREGTIT31283886433016     000000000000597611720000000000000000000000000927270319000597611700000000000059761172170319000000000754023700000  000000000000000000000000000000000000000000000000000000000000000000000000000000000000000000000000000000000000000000000                          6000000000                                                                  000243
102122445950001000000009034510032549PREGTIT31283912186047     000000000000597620630000000000000000000000000927270319000597620600000000000059762063250219000000002555523700000  000000000000000000000000000000000000000000000000000000000000000000000000000000000000000000000000000000000000000000000                          6000000000                                                                  000244
102122445950001000000009034510032549PREGTIT31374464479378     000000000000597651860000000000000000000000000927270319000597651800000000000059765186210319000000002500023700000  000000000000000000000000000000000000000000000000000000000000000000000000000000000000000000000000000000000000000000000                          6000000000                                                                  000245
102122445950001000000009034510032549PREGTIT31282006849451     000000000000597681260000000000000000000000000927270319000597681200000000000059768126100419000000002200023700000  000000000000000000000000000000000000000000000000000000000000000000000000000000000000000000000000000000000000000000000                          6000000000                                                                  000246
102122445950001000000009034510032549PREGTIT31363500471611     000000000000597685680000000000000000000000000927270319000597685600000000000059768568200319000000001450023700000  000000000000000000000000000000000000000000000000000000000000000000000000000000000000000000000000000000000000000000000                          6000000000                                                                  000247
102122445950001000000009034510032549PREGTIT31283339784666     000000000000597883640000000000000000000000000927270319000597883600000000000059788364100319000000000376023700000  000000000000000000000000000000000000000000000000000000000000000000000000000000000000000000000000000000000000000000000                          6000000000                                                                  000248
