02RETORNO01COBRANCA       00000000000004852239ISPCN ADM DE COBRANCA DE TITUL237BRADESCO       2203190160000000609                                                                                                                                                                                                                                                                          250319         000001
102122445950001000000009034510032549PREGTIT30974313784568     000000000000591841750000000000000000000000000902220319000591841700000000000059184175210519000000001000023704151  000000000014300000000000000000000000000000000000000000000000000000000000000000000000000000000000000000000000000000000                          0000000000                                                                  000002
102122445950001000000009034510032549PREGTIT30978431690169     000000000000591911120000000000000000000000000902220319000591911100000000000059191112210519000000000920023704159  000000000014300000000000000000000000000000000000000000000000000000000000000000000000000000000000000000000000000000000                          0000000000                                                                  000003
102122445950001000000009034510032549PREGTIT30979152180651     000000000000595706280000000000000000000000000902220319000595706200000000000059570628210519000000000790823704157  000000000014300000000000000000000000000000000000000000000000000000000000000000000000000000000000000000000000000000000                          0000000000                                                                  000004
102122445950001000000009034510032549PREGTIT30975502032699     0000000000005958033P000000000000000000000000090222031900059580330000000000005958033P210519000000000566723704157  000000000014300000000000000000000000000000000000000000000000000000000000000000000000000000000000000000000000000000000                          0000000000                                                                  000005
102122445950001000000009034510032549PREGTIT30972498593880     000000000000595812120000000000000000000000000902220319000595812100000000000059581212210519000000000916723703451  000000000014300000000000000000000000000000000000000000000000000000000000000000000000000000000000000000000000000000000                          0000000000                                                                  000006
102122445950001000000009034510032549PREGTIT30972306587439     000000000000596043360000000000000000000000000902220319000596043300000000000059604336210519000000002800023704151  000000000014300000000000000000000000000000000000000000000000000000000000000000000000000000000000000000000000000000000                          0000000000                                                                  000007
102122445950001000000009034510032549PREGTIT30972717377593     000000000000596607160000000000000000000000000902220319000596607100000000000059660716210519000000001700023704151  000000000014300000000000000000000000000000000000000000000000000000000000000000000000000000000000000000000000000000000                          0000000000                                                                  000008
102122445950001000000009034510032549PREGTIT30973041699868     000000000000596610540000000000000000000000000902220319000596610500000000000059661054210519000000000510723704157  000000000014300000000000000000000000000000000000000000000000000000000000000000000000000000000000000000000000000000000                          0000000000                                                                  000009
102122445950001000000009034510032549PREGTIT30974215988475     000000000000596650920000000000000000000000000902220319000596650900000000000059665092210519000000003600023704151  000000000014300000000000000000000000000000000000000000000000000000000000000000000000000000000000000000000000000000000                          0000000000                                                                  000010
102122445950001000000009034510032549PREGTIT30975878415782     000000000000596726760000000000000000000000000902220319000596726700000000000059672676210519000000001089523704157  000000000014300000000000000000000000000000000000000000000000000000000000000000000000000000000000000000000000000000000                          0000000000                                                                  000011
102122445950001000000009034510032549PREGTIT30979672286262     000000000000596846150000000000000000000000000902220319000596846100000000000059684615210519000000000963023704157  000000000014300000000000000000000000000000000000000000000000000000000000000000000000000000000000000000000000000000000                          0000000000                                                                  000012
102122445950001000000009034510032549PREGTIT30975994210570     000000000000597624890000000000000000000000000902220319000597624800000000000059762489210519000000001350023704151  000000000014300000000000000000000000000000000000000000000000000000000000000000000000000000000000000000000000000000000                          0000000000                                                                  000013
102122445950001000000009034510032549PREGTIT30978253375614     000000000000597634500000000000000000000000000902220319000597634500000000000059763450210519000000005660023704151  000000000014300000000000000000000000000000000000000000000000000000000000000000000000000000000000000000000000000000000                          0000000000                                                                  000014
102122445950001000000009034510032549PREGTIT30973707556807     000000000000597653640000000000000000000000000902220319000597653600000000000059765364210519000000001000023704422  000000000014300000000000000000000000000000000000000000000000000000000000000000000000000000000000000000000000000000000                          0000000000                                                                  000015
102122445950001000000009034510032549PREGTIT30974129538507     000000000000597654880000000000000000000000000902220319000597654800000000000059765488210519000000000653823704157  000000000014300000000000000000000000000000000000000000000000000000000000000000000000000000000000000000000000000000000                          0000000000                                                                  000016
102122445950001000000009034510032549PREGTIT30979774573350     000000000000597715340000000000000000000000000902220319000597715300000000000059771534210519000000001638023704152  000000000014300000000000000000000000000000000000000000000000000000000000000000000000000000000000000000000000000000000                          0000000000                                                                  000017
102122445950001000000009034510032549PREGTIT30972488061421     000000000000597763820000000000000000000000000902220319000597763800000000000059776382210519000000001269123704157  000000000014300000000000000000000000000000000000000000000000000000000000000000000000000000000000000000000000000000000                          0000000000                                                                  000018
102122445950001000000009034510032549PREGTIT30971874040013     000000000000598488120000000000000000000000000902220319000598488100000000000059848812210519000000001000023704151  000000000014300000000000000000000000000000000000000000000000000000000000000000000000000000000000000000000000000000000                          0000000000                                                                  000019
102122445950001000000009034510032549PREGTIT30972704271003     000000000000598564670000000000000000000000000902220319000598564600000000000059856467210519000000000656723704151  000000000014300000000000000000000000000000000000000000000000000000000000000000000000000000000000000000000000000000000                          0000000000                                                                  000020
102122445950001000000009034510032549PREGTIT30975936546218     000000000000598567930000000000000000000000000902220319000598567900000000000059856793210519000000001090023704151  000000000014300000000000000000000000000000000000000000000000000000000000000000000000000000000000000000000000000000000                          0000000000                                                                  000021
102122445950001000000009034510032549PREGTIT30972282658798     000000000000598569040000000000000000000000000902220319000598569000000000000059856904210519000000004807823704426  000000000014300000000000000000000000000000000000000000000000000000000000000000000000000000000000000000000000000000000                          0000000000                                                                  000022
102122445950001000000009034510032549PREGTIT30976715109774     000000000000598569470000000000000000000000000902220319000598569400000000000059856947210519000000004807823704426  000000000014300000000000000000000000000000000000000000000000000000000000000000000000000000000000000000000000000000000                          0000000000                                                                  000023
102122445950001000000009034510032549PREGTIT30974762845776     0000000000005985698P000000000000000000000000090222031900059856980000000000005985698P210519000000000499723700073  000000000014300000000000000000000000000000000000000000000000000000000000000000000000000000000000000000000000000000000                          0000000000                                                                  000024
102122445950001000000009034510032549PREGTIT30973528561712     000000000000598595120000000000000000000000000902220319000598595100000000000059859512210519000000002000023704152  000000000014300000000000000000000000000000000000000000000000000000000000000000000000000000000000000000000000000000000                          0000000000                                                                  000025
102122445950001000000009034510032549PREGTIT30971944955334     000000000000599428860000000000000000000000000902220319000599428800000000000059942886210519000000001500023700408  000000000014300000000000000000000000000000000000000000000000000000000000000000000000000000000000000000000000000000000                          0000000000                                                                  000026
102122445950001000000009034510032549PREGTIT30976564290461     000000000000599430410000000000000000000000000902220319000599430400000000000059943041210519000000001100023700408  000000000014300000000000000000000000000000000000000000000000000000000000000000000000000000000000000000000000000000000                          0000000000                                                                  000027
102122445950001000000009034510032549PREGTIT30974239078892     000000000000599432620000000000000000000000000902220319000599432600000000000059943262210519000000001000023700408  000000000014300000000000000000000000000000000000000000000000000000000000000000000000000000000000000000000000000000000                          0000000000                                                                  000028
102122445950001000000009034510032549PREGTIT30977991639566     0000000000005994451P000000000000000000000000090222031900059944510000000000005994451P150419000000000890023700073  000000000014300000000000000000000000000000000000000000000000000000000000000000000000000000000000000000000000000000000                          0000000000                                                                  000029
102122445950001000000009034510032549PREGTIT30977991639566     000000000000599445280000000000000000000000000902220319000599445200000000000059944528150519000000000890023700073  000000000014300000000000000000000000000000000000000000000000000000000000000000000000000000000000000000000000000000000                          0000000000                                                                  000030
102122445950001000000009034510032549PREGTIT30978832241677     000000000000599446760000000000000000000000000902220319000599446700000000000059944676150419000000000890023700073  000000000014300000000000000000000000000000000000000000000000000000000000000000000000000000000000000000000000000000000                          0000000000                                                                  000031
102122445950001000000009034510032549PREGTIT30978832241677     000000000000599446840000000000000000000000000902220319000599446800000000000059944684150519000000000890023700073  000000000014300000000000000000000000000000000000000000000000000000000000000000000000000000000000000000000000000000000                          0000000000                                                                  000032
102122445950001000000009034510032549PREGTIT30972931322997     000000000000599448380000000000000000000000000902220319000599448300000000000059944838150419000000001033823700073  000000000014300000000000000000000000000000000000000000000000000000000000000000000000000000000000000000000000000000000                          0000000000                                                                  000033
102122445950001000000009034510032549PREGTIT30972931322997     000000000000599448460000000000000000000000000902220319000599448400000000000059944846150519000000001033823700073  000000000014300000000000000000000000000000000000000000000000000000000000000000000000000000000000000000000000000000000                          0000000000                                                                  000034
102122445950001000000009034510032549PREGTIT30978763120985     000000000000599449940000000000000000000000000902220319000599449900000000000059944994150419000000000890023700073  000000000014300000000000000000000000000000000000000000000000000000000000000000000000000000000000000000000000000000000                          0000000000                                                                  000035
102122445950001000000009034510032549PREGTIT30978763120985     000000000000599450010000000000000000000000000902220319000599450000000000000059945001150519000000000890023700073  000000000014300000000000000000000000000000000000000000000000000000000000000000000000000000000000000000000000000000000                          0000000000                                                                  000036
102122445950001000000009034510032549PREGTIT30971273945872     0000000000005994515P000000000000000000000000090222031900059945150000000000005994515P150419000000000890023700073  000000000014300000000000000000000000000000000000000000000000000000000000000000000000000000000000000000000000000000000                          0000000000                                                                  000037
102122445950001000000009034510032549PREGTIT30971273945872     000000000000599451680000000000000000000000000902220319000599451600000000000059945168150519000000000890023700073  000000000014300000000000000000000000000000000000000000000000000000000000000000000000000000000000000000000000000000000                          0000000000                                                                  000038
102122445950001000000009034510032549PREGTIT30978166753827     000000000000599453540000000000000000000000000902220319000599453500000000000059945354150519000000017420023704157  000000000014300000000000000000000000000000000000000000000000000000000000000000000000000000000000000000000000000000000                          0000000000                                                                  000039
102122445950001000000009034510032549PREGTIT30997014914217     000000000000599456050000000000000000000000000902220319000599456000000000000059945605150419000000000890023700073  000000000014300000000000000000000000000000000000000000000000000000000000000000000000000000000000000000000000000000000                          0000000000                                                                  000040
102122445950001000000009034510032549PREGTIT30997014914217     000000000000599456130000000000000000000000000902220319000599456100000000000059945613150519000000000890023700073  000000000014300000000000000000000000000000000000000000000000000000000000000000000000000000000000000000000000000000000                          0000000000                                                                  000041
102122445950001000000009034510032549PREGTIT30999677332354     000000000000599457610000000000000000000000000902220319000599457600000000000059945761220419000000010098523703451  000000000014300000000000000000000000000000000000000000000000000000000000000000000000000000000000000000000000000000000                          7600000000                                                                  000042
102122445950001000000009034510032549PREGTIT30995349278371     0000000000005994577P000000000000000000000000090222031900059945770000000000005994577P150419000000000890023700073  000000000014300000000000000000000000000000000000000000000000000000000000000000000000000000000000000000000000000000000                          7600000000                                                                  000043
102122445950001000000009034510032549PREGTIT30995349278371     000000000000599457880000000000000000000000000902220319000599457800000000000059945788150519000000000890023700073  000000000014300000000000000000000000000000000000000000000000000000000000000000000000000000000000000000000000000000000                          7600000000                                                                  000044
102122445950001000000009034510032549PREGTIT30996866038102     000000000000599460160000000000000000000000000902220319000599460100000000000059946016300319000000005000023703109  000000000014300000000000000000000000000000000000000000000000000000000000000000000000000000000000000000000000000000000                          0000000000                                                                  000045
102122445950001000000009034510032549PREGTIT30998156803150     000000000000599460240000000000000000000000000902220319000599460200000000000059946024250419000000001625023703109  000000000014300000000000000000000000000000000000000000000000000000000000000000000000000000000000000000000000000000000                          0000000000                                                                  000046
102122445950001000000009034510032549PREGTIT30996182769180     000000000000599460670000000000000000000000000902220319000599460600000000000059946067220419000000000397023704157  000000000014300000000000000000000000000000000000000000000000000000000000000000000000000000000000000000000000000000000                          0000000000                                                                  000047
102122445950001000000009034510032549PREGTIT30999741809811     0000000000005994613P000000000000000000000000090222031900059946130000000000005994613P150419000000001033823700073  000000000014300000000000000000000000000000000000000000000000000000000000000000000000000000000000000000000000000000000                          0000000000                                                                  000048
102122445950001000000009034510032549PREGTIT30999741809811     000000000000599461480000000000000000000000000902220319000599461400000000000059946148150519000000001033823700073  000000000014300000000000000000000000000000000000000000000000000000000000000000000000000000000000000000000000000000000                          0000000000                                                                  000049
102122445950001000000009034510032549PREGTIT30994143856465     000000000000599462960000000000000000000000000902220319000599462900000000000059946296150419000000000865023700073  000000000014300000000000000000000000000000000000000000000000000000000000000000000000000000000000000000000000000000000                          0000000000                                                                  000050
102122445950001000000009034510032549PREGTIT30994143856465     0000000000005994630P000000000000000000000000090222031900059946300000000000005994630P150519000000000865023700073  000000000014300000000000000000000000000000000000000000000000000000000000000000000000000000000000000000000000000000000                          0000000000                                                                  000051
102122445950001000000009034510032549PREGTIT30994943615852     000000000000599464580000000000000000000000000902220319000599464500000000000059946458150419000000000865023700073  000000000014300000000000000000000000000000000000000000000000000000000000000000000000000000000000000000000000000000000                          0000000000                                                                  000052
102122445950001000000009034510032549PREGTIT30994943615852     000000000000599464660000000000000000000000000902220319000599464600000000000059946466150519000000000865023700073  000000000014300000000000000000000000000000000000000000000000000000000000000000000000000000000000000000000000000000000                          0000000000                                                                  000053
102122445950001000000009034510032549PREGTIT30993716476923     0000000000005994661P000000000000000000000000090222031900059946610000000000005994661P150419000000000890023700073  000000000014300000000000000000000000000000000000000000000000000000000000000000000000000000000000000000000000000000000                          7600000000                                                                  000054
102122445950001000000009034510032549PREGTIT30993716476923     000000000000599466280000000000000000000000000902220319000599466200000000000059946628150519000000000890023700073  000000000014300000000000000000000000000000000000000000000000000000000000000000000000000000000000000000000000000000000                          7600000000                                                                  000055
102122445950001000000009034510032549PREGTIT30995819732526     000000000000599467760000000000000000000000000902220319000599467700000000000059946776230319000000005000023704400  000000000014300000000000000000000000000000000000000000000000000000000000000000000000000000000000000000000000000000000                          0000000000                                                                  000056
102122445950001000000009034510032549PREGTIT30995819732526     000000000000599467840000000000000000000000000902220319000599467800000000000059946784230419000000005000023704400  000000000014300000000000000000000000000000000000000000000000000000000000000000000000000000000000000000000000000000000                          0000000000                                                                  000057
102122445950001000000009034510032549PREGTIT30991925754199     000000000000599468730000000000000000000000000902220319000599468700000000000059946873150419000000000890023700073  000000000014300000000000000000000000000000000000000000000000000000000000000000000000000000000000000000000000000000000                          0000000000                                                                  000058
102122445950001000000009034510032549PREGTIT30991925754199     000000000000599468810000000000000000000000000902220319000599468800000000000059946881150519000000000890023700073  000000000014300000000000000000000000000000000000000000000000000000000000000000000000000000000000000000000000000000000                          0000000000                                                                  000059
102122445950001000000009034510032549PREGTIT31001319755961     000000000000599470390000000000000000000000000902220319000599470300000000000059947039150419000000000890023700073  000000000014300000000000000000000000000000000000000000000000000000000000000000000000000000000000000000000000000000000                          0000000000                                                                  000060
102122445950001000000009034510032549PREGTIT31001319755961     000000000000599470470000000000000000000000000902220319000599470400000000000059947047150519000000000890023700073  000000000014300000000000000000000000000000000000000000000000000000000000000000000000000000000000000000000000000000000                          0000000000                                                                  000061
102122445950001000000009034510032549PREGTIT31005569403477     000000000000599471950000000000000000000000000902220319000599471900000000000059947195060419000000002600023704144  000000000014300000000000000000000000000000000000000000000000000000000000000000000000000000000000000000000000000000000                          7600000000                                                                  000062
102122445950001000000009034510032549PREGTIT31005569403477     000000000000599472090000000000000000000000000902220319000599472000000000000059947209060519000000002600023704144  000000000014300000000000000000000000000000000000000000000000000000000000000000000000000000000000000000000000000000000                          7600000000                                                                  000063
102122445950001000000009034510032549PREGTIT31003276676870     000000000000599472170000000000000000000000000902220319000599472100000000000059947217260419000000002600023704144  000000000014300000000000000000000000000000000000000000000000000000000000000000000000000000000000000000000000000000000                          7600000000                                                                  000064
102122445950001000000009034510032549PREGTIT31008605019338     000000000000599472250000000000000000000000000902220319000599472200000000000059947225180419000000004000023704400  000000000014300000000000000000000000000000000000000000000000000000000000000000000000000000000000000000000000000000000                          0000000000                                                                  000065
102122445950001000000009034510032549PREGTIT31008605019338     000000000000599472330000000000000000000000000902220319000599472300000000000059947233180519000000004000023704400  000000000014300000000000000000000000000000000000000000000000000000000000000000000000000000000000000000000000000000000                          0000000000                                                                  000066
102122445950001000000009034510032549PREGTIT31009533500199     000000000000599473490000000000000000000000000902220319000599473400000000000059947349220419000000003000023704151  000000000014300000000000000000000000000000000000000000000000000000000000000000000000000000000000000000000000000000000                          0000000000                                                                  000067
102122445950001000000009034510032549PREGTIT31016940414338     000000000000599475430000000000000000000000000902220319000599475400000000000059947543200419000000003000023704400  000000000014300000000000000000000000000000000000000000000000000000000000000000000000000000000000000000000000000000000                          7600000000                                                                  000068
102122445950001000000009034510032549PREGTIT31016940414338     000000000000599475510000000000000000000000000902220319000599475500000000000059947551200519000000003000023704400  000000000014300000000000000000000000000000000000000000000000000000000000000000000000000000000000000000000000000000000                          7600000000                                                                  000069
102122445950001000000009034510032549PREGTIT31014197554182     000000000000599477990000000000000000000000000902220319000599477900000000000059947799180419000000004166723704400  000000000014300000000000000000000000000000000000000000000000000000000000000000000000000000000000000000000000000000000                          0000000000                                                                  000070
102122445950001000000009034510032549PREGTIT31014197554182     000000000000599478020000000000000000000000000902220319000599478000000000000059947802180519000000004166723704400  000000000014300000000000000000000000000000000000000000000000000000000000000000000000000000000000000000000000000000000                          0000000000                                                                  000071
102122445950001000000009034510032549PREGTIT31019078926402     000000000000599478880000000000000000000000000902220319000599478800000000000059947888200419000000004166723704400  000000000014300000000000000000000000000000000000000000000000000000000000000000000000000000000000000000000000000000000                          0000000000                                                                  000072
102122445950001000000009034510032549PREGTIT31019078926402     000000000000599478960000000000000000000000000902220319000599478900000000000059947896200519000000004166723704400  000000000014300000000000000000000000000000000000000000000000000000000000000000000000000000000000000000000000000000000                          0000000000                                                                  000073
102122445950001000000009034510032549PREGTIT31016383064587     000000000000599480510000000000000000000000000902220319000599480500000000000059948051150419000000002650023700073  000000000014300000000000000000000000000000000000000000000000000000000000000000000000000000000000000000000000000000000                          0000000000                                                                  000074
102122445950001000000009034510032549PREGTIT31016383064587     0000000000005994806P000000000000000000000000090222031900059948060000000000005994806P150519000000002650023700073  000000000014300000000000000000000000000000000000000000000000000000000000000000000000000000000000000000000000000000000                          0000000000                                                                  000075
102122445950001000000009034510032549PREGTIT31013397536944     000000000000599483960000000000000000000000000902220319000599483900000000000059948396100419000000001700023700073  000000000014300000000000000000000000000000000000000000000000000000000000000000000000000000000000000000000000000000000                          0000000000                                                                  000076
102122445950001000000009034510032549PREGTIT31013397536944     0000000000005994840P000000000000000000000000090222031900059948400000000000005994840P100519000000001700023700073  000000000014300000000000000000000000000000000000000000000000000000000000000000000000000000000000000000000000000000000                          0000000000                                                                  000077
102122445950001000000009034510032549PREGTIT31015546632640     000000000000599484930000000000000000000000000902220319000599484900000000000059948493260319000000001080023704144  000000000014300000000000000000000000000000000000000000000000000000000000000000000000000000000000000000000000000000000                          7600000000                                                                  000078
102122445950001000000009034510032549PREGTIT31024207256684     000000000000599485070000000000000000000000000902220319000599485000000000000059948507120419000000004400023700073  000000000014300000000000000000000000000000000000000000000000000000000000000000000000000000000000000000000000000000000                          0000000000                                                                  000079
102122445950001000000009034510032549PREGTIT31024207256684     000000000000599485150000000000000000000000000902220319000599485100000000000059948515120519000000004400023700073  000000000014300000000000000000000000000000000000000000000000000000000000000000000000000000000000000000000000000000000                          0000000000                                                                  000080
102122445950001000000009034510032549PREGTIT31026034853003     000000000000599486040000000000000000000000000902220319000599486000000000000059948604200419000000000633023703451  000000000014300000000000000000000000000000000000000000000000000000000000000000000000000000000000000000000000000000000                          0000000000                                                                  000081
102122445950001000000009034510032549PREGTIT31026034853003     000000000000599486120000000000000000000000000902220319000599486100000000000059948612200519000000000633023703451  000000000014300000000000000000000000000000000000000000000000000000000000000000000000000000000000000000000000000000000                          0000000000                                                                  000082
102122445950001000000009034510032549PREGTIT31039744466936     000000000000599486550000000000000000000000000902220319000599486500000000000059948655070519000000006075023704157  000000000014300000000000000000000000000000000000000000000000000000000000000000000000000000000000000000000000000000000                          0000000000                                                                  000083
102122445950001000000009034510032549PREGTIT31032203448836     000000000000599487360000000000000000000000000902220319000599487300000000000059948736070419000000022400023704157  000000000014300000000000000000000000000000000000000000000000000000000000000000000000000000000000000000000000000000000                          0000000000                                                                  000084
102122445950001000000009034510032549PREGTIT31036988558404     000000000000599488090000000000000000000000000902220319000599488000000000000059948809300319000000000200023704144  000000000014300000000000000000000000000000000000000000000000000000000000000000000000000000000000000000000000000000000                          7600000000                                                                  000085
102122445950001000000009034510032549PREGTIT31036400892229     000000000000599488170000000000000000000000000902220319000599488100000000000059948817100419000000002533323704400  000000000014300000000000000000000000000000000000000000000000000000000000000000000000000000000000000000000000000000000                          0000000000                                                                  000086
102122445950001000000009034510032549PREGTIT31036400892229     000000000000599488250000000000000000000000000902220319000599488200000000000059948825100519000000002533323704400  000000000014300000000000000000000000000000000000000000000000000000000000000000000000000000000000000000000000000000000                          0000000000                                                                  000087
102122445950001000000009034510032549PREGTIT31038194839383     000000000000599489300000000000000000000000000902220319000599489300000000000059948930150419000000000890023700073  000000000014300000000000000000000000000000000000000000000000000000000000000000000000000000000000000000000000000000000                          0000000000                                                                  000088
102122445950001000000009034510032549PREGTIT31038194839383     000000000000599489490000000000000000000000000902220319000599489400000000000059948949150519000000000890023700073  000000000014300000000000000000000000000000000000000000000000000000000000000000000000000000000000000000000000000000000                          0000000000                                                                  000089
102122445950001000000009034510032549PREGTIT31034877217974     000000000000599490820000000000000000000000000902220319000599490800000000000059949082100419000000001000023704144  000000000014300000000000000000000000000000000000000000000000000000000000000000000000000000000000000000000000000000000                          0000000000                                                                  000090
102122445950001000000009034510032549PREGTIT31034877217974     000000000000599490900000000000000000000000000902220319000599490900000000000059949090100519000000001000023704144  000000000014300000000000000000000000000000000000000000000000000000000000000000000000000000000000000000000000000000000                          0000000000                                                                  000091
102122445950001000000009034510032549PREGTIT31039591877369     000000000000599492010000000000000000000000000902220319000599492000000000000059949201100419000000010220023703451  000000000014300000000000000000000000000000000000000000000000000000000000000000000000000000000000000000000000000000000                          0000000000                                                                  000092
102122445950001000000009034510032549PREGTIT31039591877369     0000000000005994921P000000000000000000000000090222031900059949210000000000005994921P100419000000002044023703451  000000000014300000000000000000000000000000000000000000000000000000000000000000000000000000000000000000000000000000000                          0000000000                                                                  000093
102122445950001000000009034510032549PREGTIT31039591877369     000000000000599492280000000000000000000000000902220319000599492200000000000059949228100519000000002044023703451  000000000014300000000000000000000000000000000000000000000000000000000000000000000000000000000000000000000000000000000                          0000000000                                                                  000094
102122445950001000000009034510032549PREGTIT31039065250328     000000000000599492600000000000000000000000000902220319000599492600000000000059949260150419000000000890023700073  000000000014300000000000000000000000000000000000000000000000000000000000000000000000000000000000000000000000000000000                          0000000000                                                                  000095
102122445950001000000009034510032549PREGTIT31039065250328     000000000000599492790000000000000000000000000902220319000599492700000000000059949279150519000000000890023700073  000000000014300000000000000000000000000000000000000000000000000000000000000000000000000000000000000000000000000000000                          0000000000                                                                  000096
102122445950001000000009034510032549PREGTIT31032649375220     000000000000599493840000000000000000000000000902220319000599493800000000000059949384100419000000005040023704400  000000000014300000000000000000000000000000000000000000000000000000000000000000000000000000000000000000000000000000000                          0000000000                                                                  000097
102122445950001000000009034510032549PREGTIT31032649375220     000000000000599493920000000000000000000000000902220319000599493900000000000059949392100519000000005040023704400  000000000014300000000000000000000000000000000000000000000000000000000000000000000000000000000000000000000000000000000                          0000000000                                                                  000098
102122445950001000000009034510032549PREGTIT31034098025539     000000000000599496000000000000000000000000000902220319000599496000000000000059949600050419000000002049223703451  000000000014300000000000000000000000000000000000000000000000000000000000000000000000000000000000000000000000000000000                          0000000000                                                                  000099
102122445950001000000009034510032549PREGTIT31034098025539     000000000000599496190000000000000000000000000902220319000599496100000000000059949619050419000000001024623703451  000000000014300000000000000000000000000000000000000000000000000000000000000000000000000000000000000000000000000000000                          0000000000                                                                  000100
102122445950001000000009034510032549PREGTIT31034098025539     000000000000599496270000000000000000000000000902220319000599496200000000000059949627050519000000001024623703451  000000000014300000000000000000000000000000000000000000000000000000000000000000000000000000000000000000000000000000000                          0000000000                                                                  000101
102122445950001000000009034510032549PREGTIT31036876371254     000000000000599496350000000000000000000000000902220319000599496300000000000059949635070419000000002520023700073  000000000014300000000000000000000000000000000000000000000000000000000000000000000000000000000000000000000000000000000                          0000000000                                                                  000102
102122445950001000000009034510032549PREGTIT31036876371254     000000000000599496430000000000000000000000000902220319000599496400000000000059949643070519000000002520023700073  000000000014300000000000000000000000000000000000000000000000000000000000000000000000000000000000000000000000000000000                          0000000000                                                                  000103
102122445950001000000009034510032549PREGTIT31046747341048     000000000000599498480000000000000000000000000902220319000599498400000000000059949848120419000000003150023704144  000000000014300000000000000000000000000000000000000000000000000000000000000000000000000000000000000000000000000000000                          7600000000                                                                  000104
102122445950001000000009034510032549PREGTIT31046919204807     000000000000599498560000000000000000000000000902220319000599498500000000000059949856220419000000023005223704151  000000000014300000000000000000000000000000000000000000000000000000000000000000000000000000000000000000000000000000000                          7600000000                                                                  000105
102122445950001000000009034510032549PREGTIT31042653545956     000000000000599498720000000000000000000000000902220319000599498700000000000059949872250419000000002000023700073  000000000014300000000000000000000000000000000000000000000000000000000000000000000000000000000000000000000000000000000                          0000000000                                                                  000106
102122445950001000000009034510032549PREGTIT31042459644778     000000000000599501100000000000000000000000000902220319000599501100000000000059950110150419000000000690023700073  000000000014300000000000000000000000000000000000000000000000000000000000000000000000000000000000000000000000000000000                          0000000000                                                                  000107
102122445950001000000009034510032549PREGTIT31042459644778     000000000000599501290000000000000000000000000902220319000599501200000000000059950129150519000000000690023700073  000000000014300000000000000000000000000000000000000000000000000000000000000000000000000000000000000000000000000000000                          0000000000                                                                  000108
102122445950001000000009034510032549PREGTIT31047919313162     0000000000005995020P000000000000000000000000090222031900059950200000000000005995020P150419000000000976323700073  000000000014300000000000000000000000000000000000000000000000000000000000000000000000000000000000000000000000000000000                          0000000000                                                                  000109
102122445950001000000009034510032549PREGTIT31047919313162     000000000000599502180000000000000000000000000902220319000599502100000000000059950218150519000000000976323700073  000000000014300000000000000000000000000000000000000000000000000000000000000000000000000000000000000000000000000000000                          0000000000                                                                  000110
102122445950001000000009034510032549PREGTIT31048156555319     000000000000599502850000000000000000000000000902220319000599502800000000000059950285080419000000004710023703451  000000000014300000000000000000000000000000000000000000000000000000000000000000000000000000000000000000000000000000000                          0000000000                                                                  000111
102122445950001000000009034510032549PREGTIT31044918955158     000000000000599502930000000000000000000000000902220319000599502900000000000059950293150419000000000690023700073  000000000014300000000000000000000000000000000000000000000000000000000000000000000000000000000000000000000000000000000                          7600000000                                                                  000112
102122445950001000000009034510032549PREGTIT31044918955158     000000000000599503070000000000000000000000000902220319000599503000000000000059950307150519000000000690023700073  000000000014300000000000000000000000000000000000000000000000000000000000000000000000000000000000000000000000000000000                          7600000000                                                                  000113
102122445950001000000009034510032549PREGTIT31058418097657     000000000000599503820000000000000000000000000902220319000599503800000000000059950382150419000000001676323700073  000000000014300000000000000000000000000000000000000000000000000000000000000000000000000000000000000000000000000000000                          0000000000                                                                  000114
102122445950001000000009034510032549PREGTIT31058418097657     000000000000599503900000000000000000000000000902220319000599503900000000000059950390150519000000001676323700073  000000000014300000000000000000000000000000000000000000000000000000000000000000000000000000000000000000000000000000000                          0000000000                                                                  000115
102122445950001000000009034510032549PREGTIT31052218203639     000000000000599504630000000000000000000000000902220319000599504600000000000059950463150419000000000690023700073  000000000014300000000000000000000000000000000000000000000000000000000000000000000000000000000000000000000000000000000                          0000000000                                                                  000116
102122445950001000000009034510032549PREGTIT31052218203639     000000000000599504710000000000000000000000000902220319000599504700000000000059950471150519000000000690023700073  000000000014300000000000000000000000000000000000000000000000000000000000000000000000000000000000000000000000000000000                          0000000000                                                                  000117
102122445950001000000009034510032549PREGTIT31055381289563     000000000000599505520000000000000000000000000902220319000599505500000000000059950552100419000000003200023704152  000000000014300000000000000000000000000000000000000000000000000000000000000000000000000000000000000000000000000000000                          0000000000                                                                  000118
102122445950001000000009034510032549PREGTIT31053343123209     000000000000599506090000000000000000000000000902220319000599506000000000000059950609120419000000005940023703451  000000000014300000000000000000000000000000000000000000000000000000000000000000000000000000000000000000000000000000000                          0000000000                                                                  000119
102122445950001000000009034510032549PREGTIT31053343123209     000000000000599506170000000000000000000000000902220319000599506100000000000059950617120519000000005940023703451  000000000014300000000000000000000000000000000000000000000000000000000000000000000000000000000000000000000000000000000                          0000000000                                                                  000120
102122445950001000000009034510032549PREGTIT31052396812219     000000000000599507220000000000000000000000000902220319000599507200000000000059950722270319000000002280023704144  000000000014300000000000000000000000000000000000000000000000000000000000000000000000000000000000000000000000000000000                          0000000000                                                                  000121
102122445950001000000009034510032549PREGTIT31052250317314     000000000000599507570000000000000000000000000902220319000599507500000000000059950757150419000000000690023700073  000000000014300000000000000000000000000000000000000000000000000000000000000000000000000000000000000000000000000000000                          0000000000                                                                  000122
102122445950001000000009034510032549PREGTIT31052250317314     000000000000599507650000000000000000000000000902220319000599507600000000000059950765150519000000000690023700073  000000000014300000000000000000000000000000000000000000000000000000000000000000000000000000000000000000000000000000000                          0000000000                                                                  000123
102122445950001000000009034510032549PREGTIT31055538404455     000000000000599508620000000000000000000000000902220319000599508600000000000059950862100419000000002320023704144  000000000014300000000000000000000000000000000000000000000000000000000000000000000000000000000000000000000000000000000                          0000000000                                                                  000124
102122445950001000000009034510032549PREGTIT31059543430354     000000000000599508700000000000000000000000000902220319000599508700000000000059950870150419000000000690023700073  000000000014300000000000000000000000000000000000000000000000000000000000000000000000000000000000000000000000000000000                          0000000000                                                                  000125
102122445950001000000009034510032549PREGTIT31059543430354     000000000000599508890000000000000000000000000902220319000599508800000000000059950889150519000000000690023700073  000000000014300000000000000000000000000000000000000000000000000000000000000000000000000000000000000000000000000000000                          0000000000                                                                  000126
102122445950001000000009034510032549PREGTIT31054939747696     000000000000599509860000000000000000000000000902220319000599509800000000000059950986220419000000000776323700073  000000000014300000000000000000000000000000000000000000000000000000000000000000000000000000000000000000000000000000000                          0000000000                                                                  000127
102122445950001000000009034510032549PREGTIT31053706680345     000000000000599510600000000000000000000000000902220319000599510600000000000059951060150419000000000876323700073  000000000014300000000000000000000000000000000000000000000000000000000000000000000000000000000000000000000000000000000                          0000000000                                                                  000128
102122445950001000000009034510032549PREGTIT31053706680345     000000000000599510790000000000000000000000000902220319000599510700000000000059951079150519000000000876323700073  000000000014300000000000000000000000000000000000000000000000000000000000000000000000000000000000000000000000000000000                          0000000000                                                                  000129
102122445950001000000009034510032549PREGTIT31052852005358     000000000000599511410000000000000000000000000902220319000599511400000000000059951141040419000000001857723704426  000000000014300000000000000000000000000000000000000000000000000000000000000000000000000000000000000000000000000000000                          7600000000                                                                  000130
102122445950001000000009034510032549PREGTIT31059503734157     0000000000005995115P000000000000000000000000090222031900059951150000000000005995115P150419000000000876323700073  000000000014300000000000000000000000000000000000000000000000000000000000000000000000000000000000000000000000000000000                          0000000000                                                                  000131
102122445950001000000009034510032549PREGTIT31059503734157     000000000000599511680000000000000000000000000902220319000599511600000000000059951168150519000000000876323700073  000000000014300000000000000000000000000000000000000000000000000000000000000000000000000000000000000000000000000000000                          0000000000                                                                  000132
102122445950001000000009034510032549PREGTIT31056169572315     000000000000599512300000000000000000000000000902220319000599512300000000000059951230150419000000000776323700073  000000000014300000000000000000000000000000000000000000000000000000000000000000000000000000000000000000000000000000000                          0000000000                                                                  000133
102122445950001000000009034510032549PREGTIT31056169572315     000000000000599512490000000000000000000000000902220319000599512400000000000059951249150519000000000776323700073  000000000014300000000000000000000000000000000000000000000000000000000000000000000000000000000000000000000000000000000                          0000000000                                                                  000134
102122445950001000000009034510032549PREGTIT31065940778247     000000000000599513110000000000000000000000000902220319000599513100000000000059951311150419000000000776323700073  000000000014300000000000000000000000000000000000000000000000000000000000000000000000000000000000000000000000000000000                          0000000000                                                                  000135
102122445950001000000009034510032549PREGTIT31065940778247     0000000000005995132P000000000000000000000000090222031900059951320000000000005995132P150519000000000776323700073  000000000014300000000000000000000000000000000000000000000000000000000000000000000000000000000000000000000000000000000                          0000000000                                                                  000136
102122445950001000000009034510032549PREGTIT31063270750020     000000000000599513970000000000000000000000000902220319000599513900000000000059951397150419000000001076323700073  000000000014300000000000000000000000000000000000000000000000000000000000000000000000000000000000000000000000000000000                          0000000000                                                                  000137
102122445950001000000009034510032549PREGTIT31063270750020     000000000000599514000000000000000000000000000902220319000599514000000000000059951400150519000000001076323700073  000000000014300000000000000000000000000000000000000000000000000000000000000000000000000000000000000000000000000000000                          0000000000                                                                  000138
102122445950001000000009034510032549PREGTIT31066542525278     000000000000599514780000000000000000000000000902220319000599514700000000000059951478150419000000000776323700073  000000000014300000000000000000000000000000000000000000000000000000000000000000000000000000000000000000000000000000000                          0000000000                                                                  000139
102122445950001000000009034510032549PREGTIT31066542525278     000000000000599514860000000000000000000000000902220319000599514800000000000059951486150519000000000776323700073  000000000014300000000000000000000000000000000000000000000000000000000000000000000000000000000000000000000000000000000                          0000000000                                                                  000140
102122445950001000000009034510032549PREGTIT31063014181078     000000000000599515590000000000000000000000000902220319000599515500000000000059951559150419000000000776323700073  000000000014300000000000000000000000000000000000000000000000000000000000000000000000000000000000000000000000000000000                          0000000000                                                                  000141
102122445950001000000009034510032549PREGTIT31063014181078     000000000000599515670000000000000000000000000902220319000599515600000000000059951567150519000000000776323700073  000000000014300000000000000000000000000000000000000000000000000000000000000000000000000000000000000000000000000000000                          0000000000                                                                  000142
102122445950001000000009034510032549PREGTIT31066153531082     0000000000005995163P000000000000000000000000090222031900059951630000000000005995163P150419000000000776323700073  000000000014300000000000000000000000000000000000000000000000000000000000000000000000000000000000000000000000000000000                          0000000000                                                                  000143
102122445950001000000009034510032549PREGTIT31066153531082     000000000000599516480000000000000000000000000902220319000599516400000000000059951648150519000000000776323700073  000000000014300000000000000000000000000000000000000000000000000000000000000000000000000000000000000000000000000000000                          0000000000                                                                  000144
102122445950001000000009034510032549PREGTIT31061945332714     000000000000599517100000000000000000000000000902220319000599517100000000000059951710150419000000000776323700073  000000000014300000000000000000000000000000000000000000000000000000000000000000000000000000000000000000000000000000000                          0000000000                                                                  000145
102122445950001000000009034510032549PREGTIT31061945332714     000000000000599517290000000000000000000000000902220319000599517200000000000059951729150519000000000776323700073  000000000014300000000000000000000000000000000000000000000000000000000000000000000000000000000000000000000000000000000                          0000000000                                                                  000146
102122445950001000000009034510032549PREGTIT31066587228621     000000000000599517960000000000000000000000000902220319000599517900000000000059951796220419000000004930023704144  000000000014300000000000000000000000000000000000000000000000000000000000000000000000000000000000000000000000000000000                          0000000000                                                                  000147
102122445950001000000009034510032549PREGTIT31062144753527     0000000000005995180P000000000000000000000000090222031900059951800000000000005995180P150419000000000776323700073  000000000014300000000000000000000000000000000000000000000000000000000000000000000000000000000000000000000000000000000                          0000000000                                                                  000148
102122445950001000000009034510032549PREGTIT31062144753527     000000000000599518180000000000000000000000000902220319000599518100000000000059951818150519000000000776323700073  000000000014300000000000000000000000000000000000000000000000000000000000000000000000000000000000000000000000000000000                          0000000000                                                                  000149
102122445950001000000009034510032549PREGTIT31063013211894     000000000000599518850000000000000000000000000902220319000599518800000000000059951885150419000000001176323700073  000000000014300000000000000000000000000000000000000000000000000000000000000000000000000000000000000000000000000000000                          0000000000                                                                  000150
102122445950001000000009034510032549PREGTIT31063013211894     000000000000599518930000000000000000000000000902220319000599518900000000000059951893150519000000001176323700073  000000000014300000000000000000000000000000000000000000000000000000000000000000000000000000000000000000000000000000000                          0000000000                                                                  000151
102122445950001000000009034510032549PREGTIT31066532542908     000000000000599519660000000000000000000000000902220319000599519600000000000059951966150419000000000776323700073  000000000014300000000000000000000000000000000000000000000000000000000000000000000000000000000000000000000000000000000                          0000000000                                                                  000152
102122445950001000000009034510032549PREGTIT31066532542908     000000000000599519740000000000000000000000000902220319000599519700000000000059951974150519000000000776323700073  000000000014300000000000000000000000000000000000000000000000000000000000000000000000000000000000000000000000000000000                          0000000000                                                                  000153
102122445950001000000009034510032549PREGTIT31062320736878     000000000000599520400000000000000000000000000902220319000599520400000000000059952040150419000000000690023700073  000000000014300000000000000000000000000000000000000000000000000000000000000000000000000000000000000000000000000000000                          0000000000                                                                  000154
102122445950001000000009034510032549PREGTIT31062320736878     000000000000599520590000000000000000000000000902220319000599520500000000000059952059150519000000000690023700073  000000000014300000000000000000000000000000000000000000000000000000000000000000000000000000000000000000000000000000000                          0000000000                                                                  000155
102122445950001000000009034510032549PREGTIT31064382785889     0000000000005995213P000000000000000000000000090222031900059952130000000000005995213P150419000000000776323700073  000000000014300000000000000000000000000000000000000000000000000000000000000000000000000000000000000000000000000000000                          0000000000                                                                  000156
102122445950001000000009034510032549PREGTIT31064382785889     000000000000599521480000000000000000000000000902220319000599521400000000000059952148150519000000000776323700073  000000000014300000000000000000000000000000000000000000000000000000000000000000000000000000000000000000000000000000000                          0000000000                                                                  000157
102122445950001000000009034510032549PREGTIT31062449118950     000000000000599522100000000000000000000000000902220319000599522100000000000059952210150419000000000690023700073  000000000014300000000000000000000000000000000000000000000000000000000000000000000000000000000000000000000000000000000                          0000000000                                                                  000158
102122445950001000000009034510032549PREGTIT31062449118950     000000000000599522290000000000000000000000000902220319000599522200000000000059952229150519000000000690023700073  000000000014300000000000000000000000000000000000000000000000000000000000000000000000000000000000000000000000000000000                          0000000000                                                                  000159
102122445950001000000009034510032549PREGTIT31067813990198     0000000000005995230P000000000000000000000000090222031900059952300000000000005995230P150419000000000776323700073  000000000014300000000000000000000000000000000000000000000000000000000000000000000000000000000000000000000000000000000                          0000000000                                                                  000160
102122445950001000000009034510032549PREGTIT31067813990198     000000000000599523180000000000000000000000000902220319000599523100000000000059952318150519000000000776323700073  000000000014300000000000000000000000000000000000000000000000000000000000000000000000000000000000000000000000000000000                          0000000000                                                                  000161
102122445950001000000009034510032549PREGTIT31065043275662     000000000000599523850000000000000000000000000902220319000599523800000000000059952385150419000000000690023700073  000000000014300000000000000000000000000000000000000000000000000000000000000000000000000000000000000000000000000000000                          0000000000                                                                  000162
102122445950001000000009034510032549PREGTIT31065043275662     000000000000599523930000000000000000000000000902220319000599523900000000000059952393150519000000000690023700073  000000000014300000000000000000000000000000000000000000000000000000000000000000000000000000000000000000000000000000000                          0000000000                                                                  000163
102122445950001000000009034510032549PREGTIT26403746198059     000000000000588729650000000000000000000000000906220319000588729600000000000058872965250319000000001000075601572  000000000000000000000000000000000000000000000000000000000000000000000000000000000000001000000000000000000000000000000   250319             00000000000000                                                                  000164
102122445950001000000009034510032549PREGTIT26089050405733     000000000000589903130000000000000000000000000906220319000589903100000000000058990313220319000000000950023703101  000000000000000000000000000000000000000000000000000000000000000000000000000000000000000950000000000000000000000000000   250319             00000000000000                                                                  000165
102122445950001000000009034510032549PREGTIT18856829335900     000000000000590800000000000000000000000000000906220319000590800000000000000059080000161218000000002700003300181  000000000000000000000000000000000000000000000000000000000000000000000000000000000000002926800000000022680000000000000   250319             00000000000000                                                                  000166
102122445950001000000009034510032549PREGTIT26087784673513     000000000000592659300000000000000000000000000906220319000592659300000000000059265930220319000000002400000106503  000000000000000000000000000000000000000000000000000000000000000000000000000000000000002400000000000000000000000000000   250319             00000000000000                                                                  000167
102122445950001000000009034510032549PREGTIT21932133733096     000000000000593033360000000000000000000000000906220319000593033300000000000059303336250119000000003100034101634  000000000000000000000000000000000000000000000000000000000000000000000000000000000000003279600000000017960000000000000   250319             00000000000000                                                                  000168
102122445950001000000009034510032549PREGTIT26084514784270     000000000000593040570000000000000000000000000906220319000593040500000000000059304057200319000000001100003304048  000000000000000000000000000000000000000000000000000000000000000000000000000000000000001123400000000002340000000000000   250319             00000000000000                                                                  000169
102122445950001000000009034510032549PREGTIT26088330466395     000000000000594702400000000000000000000000000906220319000594702400000000000059470240200319000000000200034100551  000000000000000000000000000000000000000000000000000000000000000000000000000000000000000204200000000000420000000000000   250319             00000000000000                                                                  000170
102122445950001000000009034510032549PREGTIT26089555821522     000000000000594774660000000000000000000000000906220319000594774600000000000059477466200319000000003100000107849  000000000000000000000000000000000000000000000000000000000000000000000000000000000000003166200000000006620000000000000   250319             00000000000000                                                                  000171
102122445950001000000009034510032549PREGTIT26624235902424     0000000000005950465P000000000000000000000000090622031900059504650000000000005950465P270319000000030000010400404  000000000000000000000000000000000000000000000000000000000000000000000000000000000000030000000000000000000000000000000   250319             00000000000000                                                                  000172
102122445950001000000009034510032549PREGTIT26081375328285     000000000000595075860000000000000000000000000906220319000595075800000000000059507586220319000000001800003302167  000000000000000000000000000000000000000000000000000000000000000000000000000000000000001800000000000000000000000000000   250319             00000000000000                                                                  000173
102122445950001000000009034510032549PREGTIT26085741487840     000000000000595684290000000000000000000000000906220319000595684200000000000059568429200319000000002716710400479  000000000000000000000000000000000000000000000000000000000000000000000000000000000000002774600000000005790000000000000   250319             00000000000000                                                                  000174
102122445950001000000009034510032549PREGTIT28036170761187     000000000000595698830000000000000000000000000906220319000595698800000000000059569883150419000000001200010400016  000000000000000000000000000000000000000000000000000000000000000000000000000000000000001200000000000000000000000000000   250319             00000000000000                                                                  000175
102122445950001000000009034510032549PREGTIT26086099679126     000000000000595808950000000000000000000000000906220319000595808900000000000059580895220319000000004100000101818  000000000000000000000000000000000000000000000000000000000000000000000000000000000000004100000000000000000000000000000   250319             00000000000000                                                                  000176
102122445950001000000009034510032549PREGTIT22925643537508     000000000000595895660000000000000000000000000906220319000595895600000000000059589566050219000000001133410400998  000000000000000000000000000000000000000000000000000000000000000000000000000000000000001192000000000005860000000000000   250319             00000000000000                                                                  000177
102122445950001000000009034510032549PREGTIT26738693901441     000000000000595950510000000000000000000000000906220319000595950500000000000059595051300319000000003000010403866  000000000000000000000000000000000000000000000000000000000000000000000000000000000000003000000000000000000000000000000   250319             00000000000000                                                                  000178
102122445950001000000009034510032549PREGTIT24321674997611     000000000000596039920000000000000000000000000906220319000596039900000000000059603992250219000000002500010400357  000000000000000000000000000000000000000000000000000000000000000000000000000000000000002592500000000009250000000000000   250319             00000000000000                                                                  000179
102122445950001000000009034510032549PREGTIT26086426372047     000000000000596050300000000000000000000000000906220319000596050300000000000059605030220319000000002200010400960  000000000000000000000000000000000000000000000000000000000000000000000000000000000000002200000000000000000000000000000   250319             00000000000000                                                                  000180
102122445950001000000009034510032549PREGTIT23141921217416     000000000000596625140000000000000000000000000906220319000596625100000000000059662514090219000000000600003304646  000000000000000000000000000000000000000000000000000000000000000000000000000000000000000653000000000005300000000000000   250319             00000000000000                                                                  000181
102122445950001000000009034510032549PREGTIT24998515443007     000000000000596943350000000000000000000000000906220319000596943300000000000059694335080319000000000600034106896  000000000000000000000000000000000000000000000000000000000000000000000000000000000000000626000000000002600000000000000   250319             00000000000000                                                                  000182
102122445950001000000009034510032549PREGTIT26089665119184     000000000000596945720000000000000000000000000906220319000596945700000000000059694572220319000000002333334109274  000000000000000000000000000000000000000000000000000000000000000000000000000000000000002333300000000000000000000000000   250319             00000000000000                                                                  000183
102122445950001000000009034510032549PREGTIT25871295393990     000000000000596971990000000000000000000000000906220319000596971900000000000059697199180319000000005374000102600  000000000000000000000000000000000000000000000000000000000000000000000000000000000000005495800000000012180000000000000   250319             00000000000000                                                                  000184
102122445950001000000009034510032549PREGTIT26297016076375     0000000000005976595P000000000000000000000000090622031900059765950000000000005976595P240319000000000700010402925  000000000000000000000000000000000000000000000000000000000000000000000000000000000000000700000000000000000000000000000   250319             00000000000000                                                                  000185
102122445950001000000009034510032549PREGTIT26205201840040     000000000000597660850000000000000000000000000906220319000597660800000000000059766085220319000000003507410401266  000000000000000000000000000000000000000000000000000000000000000000000000000000000000003507400000000000000000000000000   250319             00000000000000                                                                  000186
102122445950001000000009034510032549PREGTIT26514322838613     000000000000597740370000000000000000000000000906220319000597740300000000000059774037220319000000002902523702405  000000000000000000000000000000000000000000000000000000000000000000000000000000000000002902500000000000000000000000000   250319             00000000000000                                                                  000187
102122445950001000000009034510032549PREGTIT27556244839723     000000000000597895810000000000000000000000000906220319000597895800000000000059789581100319000000001150010403915  000000000000000000000000000000000000000000000000000000000000000000000000000000000000001182600000000003260000000000000   250319             00000000000000                                                                  000188
102122445950001000000009034510032549PREGTIT27829843622383     000000000000598424820000000000000000000000000906220319000598424800000000000059842482220319000000020750000103433  000000000000000000000000000000000000000000000000000000000000000000000000000000000000020750000000000000000000000000000   250319             00000000000000                                                                  000189
102122445950001000000009034510032549PREGTIT27895499170944     000000000000598441080000000000000000000000000906220319000598441000000000000059844108200319000000001714304100219  000000000000000000000000000000000000000000000000000000000000000000000000000000000000001750700000000003640000000000000   250319             00000000000000                                                                  000190
102122445950001000000009034510032549PREGTIT28022304707330     000000000000598472710000000000000000000000000906220319000598472700000000000059847271250319000000001387323707714  000000000000000000000000000000000000000000000000000000000000000000000000000000000000001387300000000000000000000000000   250319             00000000000000                                                                  000191
102122445950001000000009034510032549PREGTIT28604514163202     000000000000598562110000000000000000000000000906220319000598562100000000000059856211210319000000004010034108116  000000000000000000000000000000000000000000000000000000000000000000000000000000000000004092900000000008290000000000000   250319             00000000000000                                                                  000192
102122445950001000000009034510032549PREGTIT28749807559040     000000000000598577570000000000000000000000000906220319000598577500000000000059857757220319000000001920034102929  000000000000000000000000000000000000000000000000000000000000000000000000000000000000001920000000000000000000000000000   250319             00000000000000                                                                  000193
102122445950001000000009034510032549PREGTIT28811497698061     000000000000598589660000000000000000000000000906220319000598589600000000000059858966230319000000000750000106657  000000000000000000000000000000000000000000000000000000000000000000000000000000000000000750000000000000000000000000000   250319             00000000000000                                                                  000194
102122445950001000000009034510032549PREGTIT29705590199426     000000000000598662920000000000000000000000000906220319000598662900000000000059866292210319000000002245003301586  000000000000000000000000000000000000000000000000000000000000000000000000000000000000002291400000000004640000000000000   250319             00000000000000                                                                  000195
102122445950001000000009034510032549PREGTIT30498864636951     000000000000599322870000000000000000000000000906220319000599322800000000000059932287220319000000041580023705710  000000000000000000000000000000000000000000000000000000000000000000000000000000000000041580000000000000000000000000000   250319             00000000000000                                                                  000196
102122445950001000000009034510032549PREGTIT30626990341453     000000000000599360020000000000000000000000000906220319000599360000000000000059936002220319000000013500034102929  000000000000000000000000000000000000000000000000000000000000000000000000000000000000013500000000000000000000000000000   250319             00000000000000                                                                  000197
102122445950001000000009034510032549PREGTIT30863958319495     000000000000599423550000000000000000000000000906220319000599423500000000000059942355270319000000001669500100297  000000000000000000000000000000000000000000000000000000000000000000000000000000000000001669500000000000000000000000000   250319             00000000000000                                                                  000198
102122445950001000000009034510032549PREGTIT24996221078634     000000000000590292690000000000000000000000000909220319000590292600000000000059029269080319000000002300023704150  000000000000000000000000000000000000000000000000000000000000000000000000000000000000000000000000000000000000000000000                          0000000000                                                                  000199
102122445950001000000009034510032549PREGTIT26085570973298     000000000000592783900000000000000000000000000909220319000592783900000000000059278390200319000000000900023704150  000000000000000000000000000000000000000000000000000000000000000000000000000000000000000000000000000000000000000000000                          0000000000                                                                  000200
102122445950001000000009034510032549PREGTIT24888916571926     000000000000592848700000000000000000000000000909220319000592848700000000000059284870050319000000001000023704150  000000000000000000000000000000000000000000000000000000000000000000000000000000000000000000000000000000000000000000000                          0000000000                                                                  000201
102122445950001000000009034510032549PREGTIT26086441697656     000000000000594845190000000000000000000000000909220319000594845100000000000059484519200319000000000816723704150  000000000000000000000000000000000000000000000000000000000000000000000000000000000000000000000000000000000000000000000                          0000000000                                                                  000202
102122445950001000000009034510032549PREGTIT24546208402924     000000000000595951240000000000000000000000000909220319000595951200000000000059595124280219000000001648823704150  000000000000000000000000000000000000000000000000000000000000000000000000000000000000000000000000000000000000000000000                          0000000000                                                                  000203
102122445950001000000009034510032549PREGTIT26626208402924     000000000000595951320000000000000000000000000909220319000595951300000000000059595132280319000000001648823704150  000000000000000000000000000000000000000000000000000000000000000000000000000000000000000000000000000000000000000000000                          0000000000                                                                  000204
102122445950001000000009034510032549PREGTIT25213037380414     000000000000596009340000000000000000000000000909220319000596009300000000000059600934100319000000001500023704150  000000000000000000000000000000000000000000000000000000000000000000000000000000000000000000000000000000000000000000000                          0000000000                                                                  000205
102122445950001000000009034510032549PREGTIT24994224998003     000000000000596604570000000000000000000000000909220319000596604500000000000059660457070319000000003200023704150  000000000000000000000000000000000000000000000000000000000000000000000000000000000000000000000000000000000000000000000                          0000000000                                                                  000206
102122445950001000000009034510032549PREGTIT26089129801856     000000000000596982330000000000000000000000000909220319000596982300000000000059698233200319000000001540023704150  000000000000000000000000000000000000000000000000000000000000000000000000000000000000000000000000000000000000000000000                          0000000000                                                                  000207
102122445950001000000009034510032549PREGTIT26089510050424     000000000000597027100000000000000000000000000909220319000597027100000000000059702710200319000000001348823704150  000000000000000000000000000000000000000000000000000000000000000000000000000000000000000000000000000000000000000000000                          0000000000                                                                  000208
102122445950001000000009034510032549PREGTIT26624162869242     000000000000597754320000000000000000000000000909220319000597754300000000000059775432200319000000000402523704150  000000000000000000000000000000000000000000000000000000000000000000000000000000000000000000000000000000000000000000000                          0000000000                                                                  000209
102122445950001000000009034510032549PREGTIT27186704749324     000000000000597836480000000000000000000000000909220319000597836400000000000059783648050319000000002620023704150  000000000000000000000000000000000000000000000000000000000000000000000000000000000000000000000000000000000000000000000                          0000000000                                                                  000210
102122445950001000000009034510032549PREGTIT27282745207241     000000000000597852920000000000000000000000000909220319000597852900000000000059785292050319000000001480023704150  000000000000000000000000000000000000000000000000000000000000000000000000000000000000000000000000000000000000000000000                          0000000000                                                                  000211
102122445950001000000009034510032549PREGTIT27408229263168     0000000000005978623P000000000000000000000000090922031900059786230000000000005978623P150319000000001300023704150  000000000000000000000000000000000000000000000000000000000000000000000000000000000000000000000000000000000000000000000                          0000000000                                                                  000212
102122445950001000000009034510032549PREGTIT28477669070180     000000000000598550880000000000000000000000000909220319000598550800000000000059855088200319000000000712323704150  000000000000000000000000000000000000000000000000000000000000000000000000000000000000000000000000000000000000000000000                          0000000000                                                                  000213
102122445950001000000009034510032549PREGTIT29097021390981     0000000000005986222P000000000000000000000000090922031900059862220000000000005986222P270319000000004150023704150  000000000000000000000000000000000000000000000000000000000000000000000000000000000000000000000000000000000000000000000                          0000000000                                                                  000214
102122445950001000000009034510032549PREGTIT30557374686470     000000000000599344410000000000000000000000000909220319000599344400000000000059934441200319000000007999923704150  000000000000000000000000000000000000000000000000000000000000000000000000000000000000000000000000000000000000000000000                          0000000000                                                                  000215
102122445950001000000009034510032549PREGTIT16995440796195     000000000000584245980000000000000000000000000910220319000584245900000000000058424598211118000000002000023700000  000000000000000000000000000000000000000000000000000000000000000000000000000000000000000000000000000000000000000000000                          1600000000                                                                  000216
102122445950001000000009034510032549PREGTIT16997045238046     000000000000586529490000000000000000000000000910220319000586529400000000000058652949211118000000003000023700000  000000000000000000000000000000000000000000000000000000000000000000000000000000000000000000000000000000000000000000000                          1600000000                                                                  000217
102122445950001000000009034510032549PREGTIT16991414746861     000000000000586531120000000000000000000000000910220319000586531100000000000058653112211118000000001780023700000  000000000000000000000000000000000000000000000000000000000000000000000000000000000000000000000000000000000000000000000                          1600000000                                                                  000218
102122445950001000000009034510032549PREGTIT16992987384518     000000000000586547470000000000000000000000000910220319000586547400000000000058654747211118000000002500023700000  000000000000000000000000000000000000000000000000000000000000000000000000000000000000000000000000000000000000000000000                          1600000000                                                                  000219
102122445950001000000009034510032549PREGTIT16997271952119     000000000000586836660000000000000000000000000910220319000586836600000000000058683666211118000000003448523700000  000000000000000000000000000000000000000000000000000000000000000000000000000000000000000000000000000000000000000000000                          1600000000                                                                  000220
102122445950001000000009034510032549PREGTIT16994180531220     000000000000587559770000000000000000000000000910220319000587559700000000000058755977211118000000003583023700000  000000000000000000000000000000000000000000000000000000000000000000000000000000000000000000000000000000000000000000000                          1600000000                                                                  000221
102122445950001000000009034510032549PREGTIT16996167957372     000000000000587909850000000000000000000000000910220319000587909800000000000058790985211118000000001100023700000  000000000000000000000000000000000000000000000000000000000000000000000000000000000000000000000000000000000000000000000                          1600000000                                                                  000222
102122445950001000000009034510032549PREGTIT16999137516621     000000000000588082990000000000000000000000000910220319000588082900000000000058808299211118000000003815123700000  000000000000000000000000000000000000000000000000000000000000000000000000000000000000000000000000000000000000000000000                          1600000000                                                                  000223
102122445950001000000009034510032549PREGTIT16993842702462     000000000000588625600000000000000000000000000910220319000588625600000000000058862560211118000000000850023700000  000000000000000000000000000000000000000000000000000000000000000000000000000000000000000000000000000000000000000000000                          1600000000                                                                  000224
102122445950001000000009034510032549PREGTIT16992473313547     000000000000589833250000000000000000000000000910220319000589833200000000000058983325211118000000000600023700000  000000000000000000000000000000000000000000000000000000000000000000000000000000000000000000000000000000000000000000000                          1600000000                                                                  000225
102122445950001000000009034510032549PREGTIT16992408910637     000000000000589872070000000000000000000000000910220319000589872000000000000058987207211118000000001050023700000  000000000000000000000000000000000000000000000000000000000000000000000000000000000000000000000000000000000000000000000                          1600000000                                                                  000226
102122445950001000000009034510032549PREGTIT16993278590444     000000000000590311070000000000000000000000000910220319000590311000000000000059031107211118000000002830023700000  000000000000000000000000000000000000000000000000000000000000000000000000000000000000000000000000000000000000000000000                          1600000000                                                                  000227
102122445950001000000009034510032549PREGTIT16996063314560     000000000000590920090000000000000000000000000910220319000590920000000000000059092009211118000000000500023700000  000000000000000000000000000000000000000000000000000000000000000000000000000000000000000000000000000000000000000000000                          1600000000                                                                  000228
102122445950001000000009034510032549PREGTIT16996510590107     000000000000590946480000000000000000000000000910220319000590946400000000000059094648211118000000001140023700000  000000000000000000000000000000000000000000000000000000000000000000000000000000000000000000000000000000000000000000000                          1600000000                                                                  000229
102122445950001000000009034510032549PREGTIT16995611969592     0000000000005917627P000000000000000000000000091022031900059176270000000000005917627P211118000000001278023700000  000000000000000000000000000000000000000000000000000000000000000000000000000000000000000000000000000000000000000000000                          1600000000                                                                  000230
102122445950001000000009034510032549PREGTIT16998431690169     000000000000591910580000000000000000000000000910220319000591910500000000000059191058211118000000000920023700000  000000000000000000000000000000000000000000000000000000000000000000000000000000000000000000000000000000000000000000000                          1600000000                                                                  000231
102122445950001000000009034510032549PREGTIT16999591245407     000000000000592783230000000000000000000000000910220319000592783200000000000059278323211118000000002000023700000  000000000000000000000000000000000000000000000000000000000000000000000000000000000000000000000000000000000000000000000                          1600000000                                                                  000232
102122445950001000000009034510032549PREGTIT16997736813214     000000000000592794350000000000000000000000000910220319000592794300000000000059279435211118000000001125023700000  000000000000000000000000000000000000000000000000000000000000000000000000000000000000000000000000000000000000000000000                          1600000000                                                                  000233
102122445950001000000009034510032549PREGTIT16994315570145     000000000000592795590000000000000000000000000910220319000592795500000000000059279559211118000000003666723700000  000000000000000000000000000000000000000000000000000000000000000000000000000000000000000000000000000000000000000000000                          1600000000                                                                  000234
102122445950001000000009034510032549PREGTIT16997162288025     000000000000592800340000000000000000000000000910220319000592800300000000000059280034211118000000001200023700000  000000000000000000000000000000000000000000000000000000000000000000000000000000000000000000000000000000000000000000000                          1600000000                                                                  000235
102122445950001000000009034510032549PREGTIT16991503110643     000000000000593004770000000000000000000000000910220319000593004700000000000059300477211118000000002000023700000  000000000000000000000000000000000000000000000000000000000000000000000000000000000000000000000000000000000000000000000                          1600000000                                                                  000236
102122445950001000000009034510032549PREGTIT16991950206657     000000000000593806750000000000000000000000000910220319000593806700000000000059380675211118000000003518723700000  000000000000000000000000000000000000000000000000000000000000000000000000000000000000000000000000000000000000000000000                          1600000000                                                                  000237
102122445950001000000009034510032549PREGTIT16994833544190     000000000000593845140000000000000000000000000910220319000593845100000000000059384514211118000000000950023700000  000000000000000000000000000000000000000000000000000000000000000000000000000000000000000000000000000000000000000000000                          1600000000                                                                  000238
102122445950001000000009034510032549PREGTIT17738682494382     000000000000594049300000000000000000000000000910220319000594049300000000000059404930211118000000000833323700000  000000000000000000000000000000000000000000000000000000000000000000000000000000000000000000000000000000000000000000000                          1600000000                                                                  000239
102122445950001000000009034510032549PREGTIT18427453497834     000000000000594701270000000000000000000000000910220319000594701200000000000059470127211118000000017250023700000  000000000000000000000000000000000000000000000000000000000000000000000000000000000000000000000000000000000000000000000                          1600000000                                                                  000240
102122445950001000000009034510032549PREGTIT19592202608055     000000000000594921980000000000000000000000000910220319000594921900000000000059492198211118000000002043723700000  000000000000000000000000000000000000000000000000000000000000000000000000000000000000000000000000000000000000000000000                          1600000000                                                                  000241
102122445950001000000009034510032549PREGTIT19929916262982     000000000000594980560000000000000000000000000910220319000594980500000000000059498056211118000000004400023700000  000000000000000000000000000000000000000000000000000000000000000000000000000000000000000000000000000000000000000000000                          1600000000                                                                  000242
102122445950001000000009034510032549PREGTIT21072101009189     000000000000595713140000000000000000000000000910220319000595713100000000000059571314211118000000001100023700000  000000000000000000000000000000000000000000000000000000000000000000000000000000000000000000000000000000000000000000000                          1600000000                                                                  000243
102122445950001000000009034510032549PREGTIT30974745577946     000000000000589643120000000000000000000000000927220319000589643100000000000058964312220219000000004000023700000  000000000000000000000000000000000000000000000000000000000000000000000000000000000000000000000000000000000000000000000                          6000000000                                                                  000244
102122445950001000000009034510032549PREGTIT30979050405733     000000000000589903050000000000000000000000000927220319000589903000000000000058990305220219000000000950023700000  000000000000000000000000000000000000000000000000000000000000000000000000000000000000000000000000000000000000000000000                          6000000000                                                                  000245
102122445950001000000009034510032549PREGTIT31046221078634     000000000000590292690000000000000000000000000927220319000590292600000000000059029269080319000000002300023700000  000000000000000000000000000000000000000000000000000000000000000000000000000000000000000000000000000000000000000000000                          6000000000                                                                  000246
102122445950001000000009034510032549PREGTIT30975776076929     000000000000591024700000000000000000000000000927220319000591024700000000000059102470270219000000001250023700000  000000000000000000000000000000000000000000000000000000000000000000000000000000000000000000000000000000000000000000000                          6000000000                                                                  000247
102122445950001000000009034510032549PREGTIT30972121493385     000000000000591751170000000000000000000000000927220319000591751100000000000059175117120419000000001055623700000  000000000000000000000000000000000000000000000000000000000000000000000000000000000000000000000000000000000000000000000                          6000000000                                                                  000248
