02RETORNO01COBRANCA       00000000000004972103WC SISTEMAS E EQUIPAMENTOS DE 237BRADESCO       1303190160000000564                                                                                                                                                                                                                                                                          140319         000001
1020874591800017100000090345100240370REGTIT26211903000106     000000000000598781500000000000000000000000000902130319190300010600000000000059878150290319000000001448023704144  000000000014300000000000000000000000000000000000000000000000000000000000000000000000000000000000000000000000000000000                          0000000000                                                                  000002
1020874591800017100000090345100240370REGTIT26211903000243     000000000000598781690000000000000000000000000902130319190300024300000000000059878169290319000000003345223704144  000000000014300000000000000000000000000000000000000000000000000000000000000000000000000000000000000000000000000000000                          7600000000                                                                  000003
1020874591800017100000090345100240370REGTIT26211903000366     000000000000598781770000000000000000000000000902130319190300036600000000000059878177290319000000000690023704144  000000000014300000000000000000000000000000000000000000000000000000000000000000000000000000000000000000000000000000000                          0000000000                                                                  000004
1020874591800017100000090345100240370REGTIT26211903000439     000000000000598781850000000000000000000000000902130319190300043900000000000059878185290319000000003153923704144  000000000014300000000000000000000000000000000000000000000000000000000000000000000000000000000000000000000000000000000                          7600000000                                                                  000005
1020874591800017100000090345100240370REGTIT26211903000730     000000000000598781930000000000000000000000000902130319190300073000000000000059878193290319000000001668723704144  000000000014300000000000000000000000000000000000000000000000000000000000000000000000000000000000000000000000000000000                          0000000000                                                                  000006
1020874591800017100000090345100240370REGTIT26211903000748     000000000000598782070000000000000000000000000902130319190300074800000000000059878207290319000000001598023704157  000000000014300000000000000000000000000000000000000000000000000000000000000000000000000000000000000000000000000000000                          7600000000                                                                  000007
1020874591800017100000090345100240370REGTIT26211903001068     000000000000598782230000000000000000000000000902130319190300106800000000000059878223290319000000000211523704144  000000000014300000000000000000000000000000000000000000000000000000000000000000000000000000000000000000000000000000000                          7600000000                                                                  000008
1020874591800017100000090345100240370REGTIT26211903001110     000000000000598782310000000000000000000000000902130319190300111000000000000059878231290319000000000699023704144  000000000014300000000000000000000000000000000000000000000000000000000000000000000000000000000000000000000000000000000                          0000000000                                                                  000009
1020874591800017100000090345100240370REGTIT26211903001308     0000000000005987824P000000000000000000000000090213031919030013080000000000005987824P290319000000000799023704144  000000000014300000000000000000000000000000000000000000000000000000000000000000000000000000000000000000000000000000000                          7600000000                                                                  000010
1020874591800017100000090345100240370REGTIT26211903001426     000000000000598782580000000000000000000000000902130319190300142600000000000059878258290319000000002753523704144  000000000014300000000000000000000000000000000000000000000000000000000000000000000000000000000000000000000000000000000                          7600000000                                                                  000011
1020874591800017100000090345100240370REGTIT26211903001450     000000000000598782660000000000000000000000000902130319190300145000000000000059878266290319000000002941223704144  000000000014300000000000000000000000000000000000000000000000000000000000000000000000000000000000000000000000000000000                          7600000000                                                                  000012
1020874591800017100000090345100240370REGTIT26211903001495     000000000000598782740000000000000000000000000902130319190300149500000000000059878274290319000000000699023704144  000000000014300000000000000000000000000000000000000000000000000000000000000000000000000000000000000000000000000000000                          0000000000                                                                  000013
1020874591800017100000090345100240370REGTIT26211903001911     000000000000598782820000000000000000000000000902130319190300191100000000000059878282290319000000000049523704144  000000000014300000000000000000000000000000000000000000000000000000000000000000000000000000000000000000000000000000000                          7600000000                                                                  000014
1020874591800017100000090345100240370REGTIT26211903002024     000000000000598782900000000000000000000000000902130319190300202400000000000059878290290319000000000790023704144  000000000014300000000000000000000000000000000000000000000000000000000000000000000000000000000000000000000000000000000                          0000000000                                                                  000015
1020874591800017100000090345100240370REGTIT26211903002251     000000000000598783040000000000000000000000000902130319190300225100000000000059878304290319000000000950023704144  000000000014300000000000000000000000000000000000000000000000000000000000000000000000000000000000000000000000000000000                          0000000000                                                                  000016
1020874591800017100000090345100240370REGTIT26211903002614     000000000000598783120000000000000000000000000902130319190300261400000000000059878312290319000000000899023704157  000000000014300000000000000000000000000000000000000000000000000000000000000000000000000000000000000000000000000000000                          0000000000                                                                  000017
1020874591800017100000090345100240370REGTIT26211903002731     000000000000598783200000000000000000000000000902130319190300273100000000000059878320290319000000001503123704158  000000000014300000000000000000000000000000000000000000000000000000000000000000000000000000000000000000000000000000000                          7600000000                                                                  000018
1020874591800017100000090345100240370REGTIT26211903002986     000000000000598783390000000000000000000000000902130319190300298600000000000059878339290319000000000884023704144  000000000014300000000000000000000000000000000000000000000000000000000000000000000000000000000000000000000000000000000                          0000000000                                                                  000019
1020874591800017100000090345100240370REGTIT26211903003233     000000000000598783470000000000000000000000000902130319190300323300000000000059878347290319000000001698023704144  000000000014300000000000000000000000000000000000000000000000000000000000000000000000000000000000000000000000000000000                          0000000000                                                                  000020
1020874591800017100000090345100240370REGTIT26211903003866     000000000000598783550000000000000000000000000902130319190300386600000000000059878355290319000000001787523704144  000000000014300000000000000000000000000000000000000000000000000000000000000000000000000000000000000000000000000000000                          0000000000                                                                  000021
1020874591800017100000090345100240370REGTIT26211903004073     000000000000598783630000000000000000000000000902130319190300407300000000000059878363290319000000003228923704144  000000000014300000000000000000000000000000000000000000000000000000000000000000000000000000000000000000000000000000000                          0000000000                                                                  000022
1020874591800017100000090345100240370REGTIT26211903004249     000000000000598783710000000000000000000000000902130319190300424900000000000059878371290319000000001135823704144  000000000014300000000000000000000000000000000000000000000000000000000000000000000000000000000000000000000000000000000                          0000000000                                                                  000023
1020874591800017100000090345100240370REGTIT26211903004277     0000000000005987838P000000000000000000000000090213031919030042770000000000005987838P290319000000002467223704143  000000000014300000000000000000000000000000000000000000000000000000000000000000000000000000000000000000000000000000000                          7600000000                                                                  000024
1020874591800017100000090345100240370REGTIT26211903004421     000000000000598783980000000000000000000000000902130319190300442100000000000059878398290319000000001400023704157  000000000014300000000000000000000000000000000000000000000000000000000000000000000000000000000000000000000000000000000                          0000000000                                                                  000025
1020874591800017100000090345100240370REGTIT26211903004521     000000000000598784010000000000000000000000000902130319190300452100000000000059878401290319000000002785723704428  000000000014300000000000000000000000000000000000000000000000000000000000000000000000000000000000000000000000000000000                          0000000000                                                                  000026
1020874591800017100000090345100240370REGTIT26211903004525     0000000000005987841P000000000000000000000000090213031919030045250000000000005987841P290319000000000799023704144  000000000014300000000000000000000000000000000000000000000000000000000000000000000000000000000000000000000000000000000                          0000000000                                                                  000027
1020874591800017100000090345100240370REGTIT26211903004606     000000000000598784280000000000000000000000000902130319190300460600000000000059878428290319000000001748023704274  000000000014300000000000000000000000000000000000000000000000000000000000000000000000000000000000000000000000000000000                          0000000000                                                                  000028
1020874591800017100000090345100240370REGTIT26211903004776     000000000000598784360000000000000000000000000902130319190300477600000000000059878436290319000000002778323704157  000000000014300000000000000000000000000000000000000000000000000000000000000000000000000000000000000000000000000000000                          0000000000                                                                  000029
1020874591800017100000090345100240370REGTIT26211903004782     000000000000598784440000000000000000000000000902130319190300478200000000000059878444290319000000001348023704157  000000000014300000000000000000000000000000000000000000000000000000000000000000000000000000000000000000000000000000000                          0000000000                                                                  000030
1020874591800017100000090345100240370REGTIT26211903004835     000000000000598784520000000000000000000000000902130319190300483500000000000059878452290319000000000049523704426  000000000014300000000000000000000000000000000000000000000000000000000000000000000000000000000000000000000000000000000                          0000000000                                                                  000031
1020874591800017100000090345100240370REGTIT26211903004836     000000000000598784600000000000000000000000000902130319190300483600000000000059878460290319000000000187423704426  000000000014300000000000000000000000000000000000000000000000000000000000000000000000000000000000000000000000000000000                          0000000000                                                                  000032
1020874591800017100000090345100240370REGTIT26211903004945     000000000000598784790000000000000000000000000902130319190300494500000000000059878479290319000000002913423703451  000000000014300000000000000000000000000000000000000000000000000000000000000000000000000000000000000000000000000000000                          0000000000                                                                  000033
1020874591800017100000090345100240370REGTIT26211903005108     000000000000598784870000000000000000000000000902130319190300510800000000000059878487290319000000002109323704143  000000000014300000000000000000000000000000000000000000000000000000000000000000000000000000000000000000000000000000000                          0000000000                                                                  000034
1020874591800017100000090345100240370REGTIT26211903005164     000000000000598784950000000000000000000000000902130319190300516400000000000059878495290319000000001877123704151  000000000014300000000000000000000000000000000000000000000000000000000000000000000000000000000000000000000000000000000                          0000000000                                                                  000035
1020874591800017100000090345100240370REGTIT26211903005172     000000000000598785090000000000000000000000000902130319190300517200000000000059878509290319000000001999023704151  000000000014300000000000000000000000000000000000000000000000000000000000000000000000000000000000000000000000000000000                          0000000000                                                                  000036
1020874591800017100000090345100240370REGTIT26211903005226     000000000000598785170000000000000000000000000902130319190300522600000000000059878517290319000000005134323704151  000000000014300000000000000000000000000000000000000000000000000000000000000000000000000000000000000000000000000000000                          0000000000                                                                  000037
1020874591800017100000090345100240370REGTIT26211903005273     000000000000598785250000000000000000000000000902130319190300527300000000000059878525290319000000002000523704143  000000000014300000000000000000000000000000000000000000000000000000000000000000000000000000000000000000000000000000000                          0000000000                                                                  000038
1020874591800017100000090345100240370REGTIT26211903005292     000000000000598785330000000000000000000000000902130319190300529200000000000059878533290319000000002234123704144  000000000014300000000000000000000000000000000000000000000000000000000000000000000000000000000000000000000000000000000                          0000000000                                                                  000039
1020874591800017100000090345100240370REGTIT26211903005473     000000000000598785410000000000000000000000000902130319190300547300000000000059878541290319000000001962623704144  000000000014300000000000000000000000000000000000000000000000000000000000000000000000000000000000000000000000000000000                          0000000000                                                                  000040
1020874591800017100000090345100240370REGTIT26211903005580     0000000000005987855P000000000000000000000000090213031919030055800000000000005987855P290319000000001502023704144  000000000014300000000000000000000000000000000000000000000000000000000000000000000000000000000000000000000000000000000                          0000000000                                                                  000041
1020874591800017100000090345100240370REGTIT26211903005609     000000000000598785760000000000000000000000000902130319190300560900000000000059878576290319000000001389023704151  000000000014300000000000000000000000000000000000000000000000000000000000000000000000000000000000000000000000000000000                          7600000000                                                                  000042
1020874591800017100000090345100240370REGTIT26211903005613     000000000000598785840000000000000000000000000902130319190300561300000000000059878584290319000000002875123704144  000000000014300000000000000000000000000000000000000000000000000000000000000000000000000000000000000000000000000000000                          0000000000                                                                  000043
1020874591800017100000090345100240370REGTIT26211903005641     000000000000598785920000000000000000000000000902130319190300564100000000000059878592290319000000001760523704144  000000000014300000000000000000000000000000000000000000000000000000000000000000000000000000000000000000000000000000000                          0000000000                                                                  000044
1020874591800017100000090345100240370REGTIT26211903005655     000000000000598786060000000000000000000000000902130319190300565500000000000059878606290319000000007283823704144  000000000014300000000000000000000000000000000000000000000000000000000000000000000000000000000000000000000000000000000                          0000000000                                                                  000045
1020874591800017100000090345100240370REGTIT26211903006391     000000000000598786140000000000000000000000000902130319190300639100000000000059878614290319000000001348023704144  000000000014300000000000000000000000000000000000000000000000000000000000000000000000000000000000000000000000000000000                          0000000000                                                                  000046
1020874591800017100000090345100240370REGTIT26211903006416     000000000000598786220000000000000000000000000902130319190300641600000000000059878622290319000000003647023704144  000000000014300000000000000000000000000000000000000000000000000000000000000000000000000000000000000000000000000000000                          7600000000                                                                  000047
1020874591800017100000090345100240370REGTIT26211903006610     000000000000598786300000000000000000000000000902130319190300661000000000000059878630290319000000003607123704152  000000000014300000000000000000000000000000000000000000000000000000000000000000000000000000000000000000000000000000000                          7600000000                                                                  000048
1020874591800017100000090345100240370REGTIT26211903006670     000000000000598786490000000000000000000000000902130319190300667000000000000059878649290319000000002037023704144  000000000014300000000000000000000000000000000000000000000000000000000000000000000000000000000000000000000000000000000                          0000000000                                                                  000049
1020874591800017100000090345100240370REGTIT26211903006732     000000000000598786570000000000000000000000000902130319190300673200000000000059878657290319000000001152523704144  000000000014300000000000000000000000000000000000000000000000000000000000000000000000000000000000000000000000000000000                          7600000000                                                                  000050
1020874591800017100000090345100240370REGTIT26211903006733     000000000000598786650000000000000000000000000902130319190300673300000000000059878665290319000000001254023704144  000000000014300000000000000000000000000000000000000000000000000000000000000000000000000000000000000000000000000000000                          0000000000                                                                  000051
1020874591800017100000090345100240370REGTIT26211903006854     000000000000598786730000000000000000000000000902130319190300685400000000000059878673290319000000001150023704144  000000000014300000000000000000000000000000000000000000000000000000000000000000000000000000000000000000000000000000000                          0000000000                                                                  000052
1020874591800017100000090345100240370REGTIT26211903006995     000000000000598786810000000000000000000000000902130319190300699500000000000059878681290319000000004793123704151  000000000014300000000000000000000000000000000000000000000000000000000000000000000000000000000000000000000000000000000                          0000000000                                                                  000053
1020874591800017100000090345100240370REGTIT26211903007041     0000000000005987869P000000000000000000000000090213031919030070410000000000005987869P290319000000001699023704144  000000000014300000000000000000000000000000000000000000000000000000000000000000000000000000000000000000000000000000000                          7600000000                                                                  000054
1020874591800017100000090345100240370REGTIT26211903007051     000000000000598787030000000000000000000000000902130319190300705100000000000059878703290319000000002425023704144  000000000014300000000000000000000000000000000000000000000000000000000000000000000000000000000000000000000000000000000                          0000000000                                                                  000055
1020874591800017100000090345100240370REGTIT26211903007099     000000000000598787110000000000000000000000000902130319190300709900000000000059878711290319000000001936523704151  000000000014300000000000000000000000000000000000000000000000000000000000000000000000000000000000000000000000000000000                          0000000000                                                                  000056
1020874591800017100000090345100240370REGTIT26211903007232     0000000000005987872P000000000000000000000000090213031919030072320000000000005987872P290319000000002271123704144  000000000014300000000000000000000000000000000000000000000000000000000000000000000000000000000000000000000000000000000                          0000000000                                                                  000057
1020874591800017100000090345100240370REGTIT26211903007233     000000000000598787380000000000000000000000000902130319190300723300000000000059878738290319000000002187023704144  000000000014300000000000000000000000000000000000000000000000000000000000000000000000000000000000000000000000000000000                          0000000000                                                                  000058
1020874591800017100000090345100240370REGTIT26211903007307     000000000000598787460000000000000000000000000902130319190300730700000000000059878746290319000000002503823704157  000000000014300000000000000000000000000000000000000000000000000000000000000000000000000000000000000000000000000000000                          0000000000                                                                  000059
1020874591800017100000090345100240370REGTIT26211903007371     000000000000598787540000000000000000000000000902130319190300737100000000000059878754290319000000001778023704144  000000000014300000000000000000000000000000000000000000000000000000000000000000000000000000000000000000000000000000000                          0000000000                                                                  000060
1020874591800017100000090345100240370REGTIT26211903007399     000000000000598787620000000000000000000000000902130319190300739900000000000059878762290319000000002270023704144  000000000014300000000000000000000000000000000000000000000000000000000000000000000000000000000000000000000000000000000                          0000000000                                                                  000061
1020874591800017100000090345100240370REGTIT26211903007433     000000000000598787700000000000000000000000000902130319190300743300000000000059878770290319000000001464323704144  000000000014300000000000000000000000000000000000000000000000000000000000000000000000000000000000000000000000000000000                          7600000000                                                                  000062
1020874591800017100000090345100240370REGTIT26211903007585     000000000000598787890000000000000000000000000902130319190300758500000000000059878789290319000000002654523704143  000000000014300000000000000000000000000000000000000000000000000000000000000000000000000000000000000000000000000000000                          7600000000                                                                  000063
1020874591800017100000090345100240370REGTIT26211903007659     000000000000598787970000000000000000000000000902130319190300765900000000000059878797290319000000005857423704144  000000000014300000000000000000000000000000000000000000000000000000000000000000000000000000000000000000000000000000000                          7600000000                                                                  000064
1020874591800017100000090345100240370REGTIT26211903007765     000000000000598788000000000000000000000000000902130319190300776500000000000059878800290319000000005314623704151  000000000014300000000000000000000000000000000000000000000000000000000000000000000000000000000000000000000000000000000                          0000000000                                                                  000065
1020874591800017100000090345100240370REGTIT26211903007895     000000000000598788190000000000000000000000000902130319190300789500000000000059878819290319000000002650423704428  000000000014300000000000000000000000000000000000000000000000000000000000000000000000000000000000000000000000000000000                          0000000000                                                                  000066
1020874591800017100000090345100240370REGTIT26211903007964     000000000000598788270000000000000000000000000902130319190300796400000000000059878827290319000000001833323704144  000000000014300000000000000000000000000000000000000000000000000000000000000000000000000000000000000000000000000000000                          7600000000                                                                  000067
1020874591800017100000090345100240370REGTIT26211903008176     000000000000598788350000000000000000000000000902130319190300817600000000000059878835290319000000000687723704426  000000000014300000000000000000000000000000000000000000000000000000000000000000000000000000000000000000000000000000000                          0000000000                                                                  000068
1020874591800017100000090345100240370REGTIT26211903008227     000000000000598788430000000000000000000000000902130319190300822700000000000059878843290319000000002187923704143  000000000014300000000000000000000000000000000000000000000000000000000000000000000000000000000000000000000000000000000                          7600000000                                                                  000069
1020874591800017100000090345100240370REGTIT26211903008333     000000000000598788510000000000000000000000000902130319190300833300000000000059878851290319000000000819523703451  000000000014300000000000000000000000000000000000000000000000000000000000000000000000000000000000000000000000000000000                          0000000000                                                                  000070
1020874591800017100000090345100240370REGTIT26211903008369     0000000000005987886P000000000000000000000000090213031919030083690000000000005987886P290319000000001383023704144  000000000014300000000000000000000000000000000000000000000000000000000000000000000000000000000000000000000000000000000                          0000000000                                                                  000071
1020874591800017100000090345100240370REGTIT26211903008385     000000000000598788780000000000000000000000000902130319190300838500000000000059878878290319000000003894623703451  000000000014300000000000000000000000000000000000000000000000000000000000000000000000000000000000000000000000000000000                          0000000000                                                                  000072
1020874591800017100000090345100240370REGTIT26211903008607     000000000000598788860000000000000000000000000902130319190300860700000000000059878886290319000000002729823703451  000000000014300000000000000000000000000000000000000000000000000000000000000000000000000000000000000000000000000000000                          0000000000                                                                  000073
1020874591800017100000090345100240370REGTIT26211903008696     000000000000598788940000000000000000000000000902130319190300869600000000000059878894290319000000001398123704144  000000000014300000000000000000000000000000000000000000000000000000000000000000000000000000000000000000000000000000000                          0000000000                                                                  000074
1020874591800017100000090345100240370REGTIT26211903008720     000000000000598789080000000000000000000000000902130319190300872000000000000059878908290319000000001845523704436  000000000014300000000000000000000000000000000000000000000000000000000000000000000000000000000000000000000000000000000                          0000000000                                                                  000075
1020874591800017100000090345100240370REGTIT26211903009035     000000000000598789160000000000000000000000000902130319190300903500000000000059878916290319000000002260923704274  000000000014300000000000000000000000000000000000000000000000000000000000000000000000000000000000000000000000000000000                          0000000000                                                                  000076
1020874591800017100000090345100240370REGTIT26211903009304     000000000000598789240000000000000000000000000902130319190300930400000000000059878924290319000000002935423704159  000000000014300000000000000000000000000000000000000000000000000000000000000000000000000000000000000000000000000000000                          0000000000                                                                  000077
1020874591800017100000090345100240370REGTIT26211903009339     000000000000598789320000000000000000000000000902130319190300933900000000000059878932290319000000001443623704143  000000000014300000000000000000000000000000000000000000000000000000000000000000000000000000000000000000000000000000000                          7600000000                                                                  000078
1020874591800017100000090345100240370REGTIT26211903009347     000000000000598789400000000000000000000000000902130319190300934700000000000059878940290319000000002639923704144  000000000014300000000000000000000000000000000000000000000000000000000000000000000000000000000000000000000000000000000                          7600000000                                                                  000079
1020874591800017100000090345100240370REGTIT26211903009359     000000000000598789590000000000000000000000000902130319190300935900000000000059878959290319000000004047123704152  000000000014300000000000000000000000000000000000000000000000000000000000000000000000000000000000000000000000000000000                          0000000000                                                                  000080
1020874591800017100000090345100240370REGTIT26211903009590     000000000000598789670000000000000000000000000902130319190300959000000000000059878967290319000000002767323703451  000000000014300000000000000000000000000000000000000000000000000000000000000000000000000000000000000000000000000000000                          0000000000                                                                  000081
1020874591800017100000090345100240370REGTIT26211903009665     000000000000598789750000000000000000000000000902130319190300966500000000000059878975290319000000002881923704152  000000000014300000000000000000000000000000000000000000000000000000000000000000000000000000000000000000000000000000000                          0000000000                                                                  000082
1020874591800017100000090345100240370REGTIT26211903009957     000000000000598789830000000000000000000000000902130319190300995700000000000059878983290319000000002228023704144  000000000014300000000000000000000000000000000000000000000000000000000000000000000000000000000000000000000000000000000                          0000000000                                                                  000083
1020874591800017100000090345100240370REGTIT26211903010074     000000000000598789910000000000000000000000000902130319190301007400000000000059878991290319000000001448023703451  000000000014300000000000000000000000000000000000000000000000000000000000000000000000000000000000000000000000000000000                          7600000000                                                                  000084
1020874591800017100000090345100240370REGTIT26211903010337     000000000000598790090000000000000000000000000902130319190301033700000000000059879009290319000000004314923703451  000000000014300000000000000000000000000000000000000000000000000000000000000000000000000000000000000000000000000000000                          0000000000                                                                  000085
1020874591800017100000090345100240370REGTIT26211903010424     000000000000598790170000000000000000000000000902130319190301042400000000000059879017290319000000003424923704144  000000000014300000000000000000000000000000000000000000000000000000000000000000000000000000000000000000000000000000000                          0000000000                                                                  000086
1020874591800017100000090345100240370REGTIT26211903010578     000000000000598790250000000000000000000000000902130319190301057800000000000059879025290319000000002025523704426  000000000014300000000000000000000000000000000000000000000000000000000000000000000000000000000000000000000000000000000                          7600000000                                                                  000087
1020874591800017100000090345100240370REGTIT26211903010583     000000000000598790330000000000000000000000000902130319190301058300000000000059879033290319000000002924523704143  000000000014300000000000000000000000000000000000000000000000000000000000000000000000000000000000000000000000000000000                          0000000000                                                                  000088
1020874591800017100000090345100240370REGTIT26211903010708     000000000000598790410000000000000000000000000902130319190301070800000000000059879041290319000000003174523703451  000000000014300000000000000000000000000000000000000000000000000000000000000000000000000000000000000000000000000000000                          7600000000                                                                  000089
1020874591800017100000090345100240370REGTIT26211903010754     0000000000005987905P000000000000000000000000090213031919030107540000000000005987905P290319000000007142123704428  000000000014300000000000000000000000000000000000000000000000000000000000000000000000000000000000000000000000000000000                          7600000000                                                                  000090
1020874591800017100000090345100240370REGTIT26211903011001     000000000000598790680000000000000000000000000902130319190301100100000000000059879068290319000000002027123704144  000000000014300000000000000000000000000000000000000000000000000000000000000000000000000000000000000000000000000000000                          7600000000                                                                  000091
1020874591800017100000090345100240370REGTIT26211903011112     000000000000598790760000000000000000000000000902130319190301111200000000000059879076290319000000002693123704428  000000000014300000000000000000000000000000000000000000000000000000000000000000000000000000000000000000000000000000000                          0000000000                                                                  000092
1020874591800017100000090345100240370REGTIT26211903011258     000000000000598790840000000000000000000000000902130319190301125800000000000059879084290319000000001929023704144  000000000014300000000000000000000000000000000000000000000000000000000000000000000000000000000000000000000000000000000                          0000000000                                                                  000093
1020874591800017100000090345100240370REGTIT26211903011421     000000000000598790920000000000000000000000000902130319190301142100000000000059879092290319000000002116023704144  000000000014300000000000000000000000000000000000000000000000000000000000000000000000000000000000000000000000000000000                          0000000000                                                                  000094
1020874591800017100000090345100240370REGTIT26211903011595     000000000000598791060000000000000000000000000902130319190301159500000000000059879106290319000000002287423704144  000000000014300000000000000000000000000000000000000000000000000000000000000000000000000000000000000000000000000000000                          0000000000                                                                  000095
1020874591800017100000090345100240370REGTIT26211903011615     000000000000598791140000000000000000000000000902130319190301161500000000000059879114290319000000001816923704400  000000000014300000000000000000000000000000000000000000000000000000000000000000000000000000000000000000000000000000000                          7600000000                                                                  000096
1020874591800017100000090345100240370REGTIT26211903011774     000000000000598791300000000000000000000000000902130319190301177400000000000059879130290319000000001448023704157  000000000014300000000000000000000000000000000000000000000000000000000000000000000000000000000000000000000000000000000                          0000000000                                                                  000097
1020874591800017100000090345100240370REGTIT26211903011848     000000000000598791490000000000000000000000000902130319190301184800000000000059879149290319000000000998023704144  000000000014300000000000000000000000000000000000000000000000000000000000000000000000000000000000000000000000000000000                          7600000000                                                                  000098
1020874591800017100000090345100240370REGTIT26211903011906     000000000000598791570000000000000000000000000902130319190301190600000000000059879157290319000000000989023704157  000000000014300000000000000000000000000000000000000000000000000000000000000000000000000000000000000000000000000000000                          0000000000                                                                  000099
1020874591800017100000090345100240370REGTIT26211903011932     000000000000598791650000000000000000000000000902130319190301193200000000000059879165290319000000002700223704151  000000000014300000000000000000000000000000000000000000000000000000000000000000000000000000000000000000000000000000000                          0000000000                                                                  000100
1020874591800017100000090345100240370REGTIT26211903012042     000000000000598791730000000000000000000000000902130319190301204200000000000059879173290319000000003393523704157  000000000014300000000000000000000000000000000000000000000000000000000000000000000000000000000000000000000000000000000                          0000000000                                                                  000101
1020874591800017100000090345100240370REGTIT26211903012107     000000000000598791810000000000000000000000000902130319190301210700000000000059879181290319000000002737323704151  000000000014300000000000000000000000000000000000000000000000000000000000000000000000000000000000000000000000000000000                          0000000000                                                                  000102
1020874591800017100000090345100240370REGTIT26211903012130     0000000000005987919P000000000000000000000000090213031919030121300000000000005987919P290319000000001348023704144  000000000014300000000000000000000000000000000000000000000000000000000000000000000000000000000000000000000000000000000                          7600000000                                                                  000103
1020874591800017100000090345100240370REGTIT26211903012310     000000000000598792030000000000000000000000000902130319190301231000000000000059879203290319000000002586523704159  000000000014300000000000000000000000000000000000000000000000000000000000000000000000000000000000000000000000000000000                          0000000000                                                                  000104
1020874591800017100000090345100240370REGTIT26211903012537     000000000000598792110000000000000000000000000902130319190301253700000000000059879211290319000000002130023704157  000000000014300000000000000000000000000000000000000000000000000000000000000000000000000000000000000000000000000000000                          7600000000                                                                  000105
1020874591800017100000090345100240370REGTIT26211903012545     0000000000005987922P000000000000000000000000090213031919030125450000000000005987922P290319000000000500023704144  000000000014300000000000000000000000000000000000000000000000000000000000000000000000000000000000000000000000000000000                          0000000000                                                                  000106
1020874591800017100000090345100240370REGTIT26211903012575     000000000000598792380000000000000000000000000902130319190301257500000000000059879238290319000000003751523704400  000000000014300000000000000000000000000000000000000000000000000000000000000000000000000000000000000000000000000000000                          0000000000                                                                  000107
1020874591800017100000090345100240370REGTIT26211903012601     000000000000598792460000000000000000000000000902130319190301260100000000000059879246290319000000003570723703451  000000000014300000000000000000000000000000000000000000000000000000000000000000000000000000000000000000000000000000000                          7600000000                                                                  000108
1020874591800017100000090345100240370REGTIT26211903012648     000000000000598792540000000000000000000000000902130319190301264800000000000059879254290319000000001397523704144  000000000014300000000000000000000000000000000000000000000000000000000000000000000000000000000000000000000000000000000                          7600000000                                                                  000109
1020874591800017100000090345100240370REGTIT26211903012673     000000000000598792620000000000000000000000000902130319190301267300000000000059879262290319000000001894023704152  000000000014300000000000000000000000000000000000000000000000000000000000000000000000000000000000000000000000000000000                          7600000000                                                                  000110
1020874591800017100000090345100240370REGTIT26211903012834     000000000000598792700000000000000000000000000902130319190301283400000000000059879270290319000000003307123704151  000000000014300000000000000000000000000000000000000000000000000000000000000000000000000000000000000000000000000000000                          0000000000                                                                  000111
1020874591800017100000090345100240370REGTIT26211903012843     000000000000598792890000000000000000000000000902130319190301284300000000000059879289290319000000001386523704426  000000000014300000000000000000000000000000000000000000000000000000000000000000000000000000000000000000000000000000000                          0000000000                                                                  000112
1020874591800017100000090345100240370REGTIT26211903012920     000000000000598792970000000000000000000000000902130319190301292000000000000059879297290319000000001448023704144  000000000014300000000000000000000000000000000000000000000000000000000000000000000000000000000000000000000000000000000                          0000000000                                                                  000113
1020874591800017100000090345100240370REGTIT26211903012981     000000000000598793000000000000000000000000000902130319190301298100000000000059879300290319000000002127023704152  000000000014300000000000000000000000000000000000000000000000000000000000000000000000000000000000000000000000000000000                          0000000000                                                                  000114
1020874591800017100000090345100240370REGTIT26211903013012     000000000000598793190000000000000000000000000902130319190301301200000000000059879319290319000000002636023704426  000000000014300000000000000000000000000000000000000000000000000000000000000000000000000000000000000000000000000000000                          0000000000                                                                  000115
1020874591800017100000090345100240370REGTIT26211903013102     000000000000598793270000000000000000000000000902130319190301310200000000000059879327290319000000001349023704157  000000000014300000000000000000000000000000000000000000000000000000000000000000000000000000000000000000000000000000000                          0000000000                                                                  000116
1020874591800017100000090345100240370REGTIT26211903013125     000000000000598793350000000000000000000000000902130319190301312500000000000059879335290319000000000598023704157  000000000014300000000000000000000000000000000000000000000000000000000000000000000000000000000000000000000000000000000                          0000000000                                                                  000117
1020874591800017100000090345100240370REGTIT26211903013248     000000000000598793430000000000000000000000000902130319190301324800000000000059879343290319000000005518723704143  000000000014300000000000000000000000000000000000000000000000000000000000000000000000000000000000000000000000000000000                          7600000000                                                                  000118
1020874591800017100000090345100240370REGTIT26211903013383     000000000000598793510000000000000000000000000902130319190301338300000000000059879351290319000000001887023703451  000000000014300000000000000000000000000000000000000000000000000000000000000000000000000000000000000000000000000000000                          0000000000                                                                  000119
1020874591800017100000090345100240370REGTIT26211903013393     0000000000005987936P000000000000000000000000090213031919030133930000000000005987936P290319000000002802123704400  000000000014300000000000000000000000000000000000000000000000000000000000000000000000000000000000000000000000000000000                          7600000000                                                                  000120
1020874591800017100000090345100240370REGTIT26211903013411     000000000000598793780000000000000000000000000902130319190301341100000000000059879378290319000000002730023704426  000000000014300000000000000000000000000000000000000000000000000000000000000000000000000000000000000000000000000000000                          0000000000                                                                  000121
1020874591800017100000090345100240370REGTIT26211903013437     000000000000598793860000000000000000000000000902130319190301343700000000000059879386290319000000001398023704426  000000000014300000000000000000000000000000000000000000000000000000000000000000000000000000000000000000000000000000000                          0000000000                                                                  000122
1020874591800017100000090345100240370REGTIT26211903013453     000000000000598793940000000000000000000000000902130319190301345300000000000059879394290319000000001570023704157  000000000014300000000000000000000000000000000000000000000000000000000000000000000000000000000000000000000000000000000                          0000000000                                                                  000123
1020874591800017100000090345100240370REGTIT26211903013545     000000000000598794080000000000000000000000000902130319190301354500000000000059879408290319000000001934023704400  000000000014300000000000000000000000000000000000000000000000000000000000000000000000000000000000000000000000000000000                          0000000000                                                                  000124
1020874591800017100000090345100240370REGTIT26211903013590     000000000000598794160000000000000000000000000902130319190301359000000000000059879416290319000000002476923704428  000000000014300000000000000000000000000000000000000000000000000000000000000000000000000000000000000000000000000000000                          0000000000                                                                  000125
1020874591800017100000090345100240370REGTIT26211903013982     000000000000598794240000000000000000000000000902130319190301398200000000000059879424290319000000004151023704151  000000000014300000000000000000000000000000000000000000000000000000000000000000000000000000000000000000000000000000000                          0000000000                                                                  000126
1020874591800017100000090345100240370REGTIT26211903014157     000000000000598794320000000000000000000000000902130319190301415700000000000059879432290319000000001598023704144  000000000014300000000000000000000000000000000000000000000000000000000000000000000000000000000000000000000000000000000                          0000000000                                                                  000127
1020874591800017100000090345100240370REGTIT26211903014347     000000000000598794400000000000000000000000000902130319190301434700000000000059879440290319000000001768523704400  000000000014300000000000000000000000000000000000000000000000000000000000000000000000000000000000000000000000000000000                          0000000000                                                                  000128
1020874591800017100000090345100240370REGTIT26211903014467     000000000000598794590000000000000000000000000902130319190301446700000000000059879459290319000000003111023700321  000000000014300000000000000000000000000000000000000000000000000000000000000000000000000000000000000000000000000000000                          0000000000                                                                  000129
1020874591800017100000090345100240370REGTIT26211903014634     000000000000598794670000000000000000000000000902130319190301463400000000000059879467290319000000001936523704151  000000000014300000000000000000000000000000000000000000000000000000000000000000000000000000000000000000000000000000000                          0000000000                                                                  000130
1020874591800017100000090345100240370REGTIT26211903015252     000000000000598794750000000000000000000000000902130319190301525200000000000059879475290319000000002199023704152  000000000014300000000000000000000000000000000000000000000000000000000000000000000000000000000000000000000000000000000                          0000000000                                                                  000131
1020874591800017100000090345100240370REGTIT26211903015552     000000000000598794830000000000000000000000000902130319190301555200000000000059879483290319000000001598023703451  000000000014300000000000000000000000000000000000000000000000000000000000000000000000000000000000000000000000000000000                          0000000000                                                                  000132
1020874591800017100000090345100240370REGTIT26211903015700     000000000000598794910000000000000000000000000902130319190301570000000000000059879491290319000000003131623704143  000000000014300000000000000000000000000000000000000000000000000000000000000000000000000000000000000000000000000000000                          7600000000                                                                  000133
1020874591800017100000090345100240370REGTIT26211903015999     000000000000598795050000000000000000000000000902130319190301599900000000000059879505290319000000001649023704426  000000000014300000000000000000000000000000000000000000000000000000000000000000000000000000000000000000000000000000000                          0000000000                                                                  000134
1020874591800017100000090345100240370REGTIT26211903016024     000000000000598795130000000000000000000000000902130319190301602400000000000059879513290319000000002926723704144  000000000014300000000000000000000000000000000000000000000000000000000000000000000000000000000000000000000000000000000                          0000000000                                                                  000135
1020874591800017100000090345100240370REGTIT26211903016178     000000000000598795210000000000000000000000000902130319190301617800000000000059879521290319000000001754723704151  000000000014300000000000000000000000000000000000000000000000000000000000000000000000000000000000000000000000000000000                          0000000000                                                                  000136
1020874591800017100000090345100240370REGTIT26211903016238     0000000000005987953P000000000000000000000000090213031919030162380000000000005987953P290319000000001448023700408  000000000014300000000000000000000000000000000000000000000000000000000000000000000000000000000000000000000000000000000                          0000000000                                                                  000137
1020874591800017100000090345100240370REGTIT26211903016324     000000000000598795480000000000000000000000000902130319190301632400000000000059879548290319000000000049523704152  000000000014300000000000000000000000000000000000000000000000000000000000000000000000000000000000000000000000000000000                          0000000000                                                                  000138
1020874591800017100000090345100240370REGTIT26211903016351     000000000000598795560000000000000000000000000902130319190301635100000000000059879556290319000000002626723704143  000000000014300000000000000000000000000000000000000000000000000000000000000000000000000000000000000000000000000000000                          7600000000                                                                  000139
1020874591800017100000090345100240370REGTIT26211903016363     000000000000598795640000000000000000000000000902130319190301636300000000000059879564290319000000002875123704144  000000000014300000000000000000000000000000000000000000000000000000000000000000000000000000000000000000000000000000000                          0000000000                                                                  000140
1020874591800017100000090345100240370REGTIT26211903016574     000000000000598795720000000000000000000000000902130319190301657400000000000059879572290319000000003776023703451  000000000014300000000000000000000000000000000000000000000000000000000000000000000000000000000000000000000000000000000                          0000000000                                                                  000141
1020874591800017100000090345100240370REGTIT26211903016600     000000000000598795800000000000000000000000000902130319190301660000000000000059879580290319000000001368023704144  000000000014300000000000000000000000000000000000000000000000000000000000000000000000000000000000000000000000000000000                          0000000000                                                                  000142
1020874591800017100000090345100240370REGTIT26211903016782     000000000000598795990000000000000000000000000902130319190301678200000000000059879599290319000000003940023704426  000000000014300000000000000000000000000000000000000000000000000000000000000000000000000000000000000000000000000000000                          7600000000                                                                  000143
1020874591800017100000090345100240370REGTIT26211903016787     000000000000598796020000000000000000000000000902130319190301678700000000000059879602290319000000002926823700140  000000000014300000000000000000000000000000000000000000000000000000000000000000000000000000000000000000000000000000000                          7600000000                                                                  000144
1020874591800017100000090345100240370REGTIT26211903016990     000000000000598796100000000000000000000000000902130319190301699000000000000059879610290319000000002651723704400  000000000014300000000000000000000000000000000000000000000000000000000000000000000000000000000000000000000000000000000                          7600000000                                                                  000145
1020874591800017100000090345100240370REGTIT26211903017195     000000000000598796290000000000000000000000000902130319190301719500000000000059879629290319000000002437723704143  000000000014300000000000000000000000000000000000000000000000000000000000000000000000000000000000000000000000000000000                          0000000000                                                                  000146
1020874591800017100000090345100240370REGTIT26211903017197     000000000000598796370000000000000000000000000902130319190301719700000000000059879637290319000000002798723703451  000000000014300000000000000000000000000000000000000000000000000000000000000000000000000000000000000000000000000000000                          0000000000                                                                  000147
1020874591800017100000090345100240370REGTIT26211903017212     000000000000598796450000000000000000000000000902130319190301721200000000000059879645290319000000002442223704426  000000000014300000000000000000000000000000000000000000000000000000000000000000000000000000000000000000000000000000000                          0000000000                                                                  000148
1020874591800017100000090345100240370REGTIT26211903017363     000000000000598796530000000000000000000000000902130319190301736300000000000059879653290319000000002173123704143  000000000014300000000000000000000000000000000000000000000000000000000000000000000000000000000000000000000000000000000                          0000000000                                                                  000149
1020874591800017100000090345100240370REGTIT26211903017421     000000000000598796610000000000000000000000000902130319190301742100000000000059879661290319000000002532023704157  000000000014300000000000000000000000000000000000000000000000000000000000000000000000000000000000000000000000000000000                          0000000000                                                                  000150
1020874591800017100000090345100240370REGTIT26211903017462     0000000000005987967P000000000000000000000000090213031919030174620000000000005987967P290319000000000799023704144  000000000014300000000000000000000000000000000000000000000000000000000000000000000000000000000000000000000000000000000                          0000000000                                                                  000151
1020874591800017100000090345100240370REGTIT26211903017712     000000000000598796880000000000000000000000000902130319190301771200000000000059879688290319000000006052623703451  000000000014300000000000000000000000000000000000000000000000000000000000000000000000000000000000000000000000000000000                          0000000000                                                                  000152
1020874591800017100000090345100240370REGTIT26211903017776     000000000000598796960000000000000000000000000902130319190301777600000000000059879696290319000000001978423704144  000000000014300000000000000000000000000000000000000000000000000000000000000000000000000000000000000000000000000000000                          7600000000                                                                  000153
1020874591800017100000090345100240370REGTIT26211903018235     000000000000598797180000000000000000000000000902130319190301823500000000000059879718290319000000002416823704154  000000000014300000000000000000000000000000000000000000000000000000000000000000000000000000000000000000000000000000000                          0000000000                                                                  000154
1020874591800017100000090345100240370REGTIT26211903018469     000000000000598797260000000000000000000000000902130319190301846900000000000059879726290319000000002456823704159  000000000014300000000000000000000000000000000000000000000000000000000000000000000000000000000000000000000000000000000                          7600000000                                                                  000155
1020874591800017100000090345100240370REGTIT26211903018721     000000000000598797340000000000000000000000000902130319190301872100000000000059879734290319000000003856923704426  000000000014300000000000000000000000000000000000000000000000000000000000000000000000000000000000000000000000000000000                          0000000000                                                                  000156
1020874591800017100000090345100240370REGTIT26211903018905     000000000000598797420000000000000000000000000902130319190301890500000000000059879742290319000000003418523704152  000000000014300000000000000000000000000000000000000000000000000000000000000000000000000000000000000000000000000000000                          7600000000                                                                  000157
1020874591800017100000090345100240370REGTIT26211903018920     000000000000598797500000000000000000000000000902130319190301892000000000000059879750290319000000004085523704144  000000000014300000000000000000000000000000000000000000000000000000000000000000000000000000000000000000000000000000000                          7600000000                                                                  000158
1020874591800017100000090345100240370REGTIT26211903018923     000000000000598797690000000000000000000000000902130319190301892300000000000059879769290319000000004111923704144  000000000014300000000000000000000000000000000000000000000000000000000000000000000000000000000000000000000000000000000                          7600000000                                                                  000159
1020874591800017100000090345100240370REGTIT26211903018971     000000000000598797770000000000000000000000000902130319190301897100000000000059879777290319000000003000223704400  000000000014300000000000000000000000000000000000000000000000000000000000000000000000000000000000000000000000000000000                          0000000000                                                                  000160
1020874591800017100000090345100240370REGTIT26211903019076     000000000000598797850000000000000000000000000902130319190301907600000000000059879785290319000000002948323704143  000000000014300000000000000000000000000000000000000000000000000000000000000000000000000000000000000000000000000000000                          7600000000                                                                  000161
1020874591800017100000090345100240370REGTIT26211903019171     000000000000598797930000000000000000000000000902130319190301917100000000000059879793290319000000002175723704400  000000000014300000000000000000000000000000000000000000000000000000000000000000000000000000000000000000000000000000000                          0000000000                                                                  000162
1020874591800017100000090345100240370REGTIT26211903019315     000000000000598798070000000000000000000000000902130319190301931500000000000059879807290319000000006446523704152  000000000014300000000000000000000000000000000000000000000000000000000000000000000000000000000000000000000000000000000                          0000000000                                                                  000163
1020874591800017100000090345100240370REGTIT26211903019351     000000000000598798150000000000000000000000000902130319190301935100000000000059879815290319000000002696023704152  000000000014300000000000000000000000000000000000000000000000000000000000000000000000000000000000000000000000000000000                          7600000000                                                                  000164
1020874591800017100000090345100240370REGTIT26211903019818     000000000000598798230000000000000000000000000902130319190301981800000000000059879823290319000000002522023704144  000000000014300000000000000000000000000000000000000000000000000000000000000000000000000000000000000000000000000000000                          0000000000                                                                  000165
1020874591800017100000090345100240370REGTIT26211903020486     000000000000598798310000000000000000000000000902130319190302048600000000000059879831290319000000002479323704426  000000000014300000000000000000000000000000000000000000000000000000000000000000000000000000000000000000000000000000000                          0000000000                                                                  000166
1020874591800017100000090345100240370REGTIT26211903020872     0000000000005987984P000000000000000000000000090213031919030208720000000000005987984P290319000000002586023704144  000000000014300000000000000000000000000000000000000000000000000000000000000000000000000000000000000000000000000000000                          0000000000                                                                  000167
1020874591800017100000090345100240370REGTIT26211903020924     000000000000598798580000000000000000000000000902130319190302092400000000000059879858290319000000002456823704151  000000000014300000000000000000000000000000000000000000000000000000000000000000000000000000000000000000000000000000000                          7600000000                                                                  000168
1020874591800017100000090345100240370REGTIT26211903020969     000000000000598798660000000000000000000000000902130319190302096900000000000059879866290319000000002416823700320  000000000014300000000000000000000000000000000000000000000000000000000000000000000000000000000000000000000000000000000                          0000000000                                                                  000169
1020874591800017100000090345100240370REGTIT26211903021016     000000000000598798740000000000000000000000000902130319190302101600000000000059879874290319000000003960023704426  000000000014300000000000000000000000000000000000000000000000000000000000000000000000000000000000000000000000000000000                          7600000000                                                                  000170
1020874591800017100000090345100240370REGTIT26211903021206     000000000000598798820000000000000000000000000902130319190302120600000000000059879882290319000000006282523704426  000000000014300000000000000000000000000000000000000000000000000000000000000000000000000000000000000000000000000000000                          0000000000                                                                  000171
1020874591800017100000090345100240370REGTIT26211903021282     000000000000598798900000000000000000000000000902130319190302128200000000000059879890290319000000003103423700140  000000000014300000000000000000000000000000000000000000000000000000000000000000000000000000000000000000000000000000000                          7600000000                                                                  000172
1020874591800017100000090345100240370REGTIT26211903021558     000000000000598799040000000000000000000000000902130319190302155800000000000059879904290319000000000998023704144  000000000014300000000000000000000000000000000000000000000000000000000000000000000000000000000000000000000000000000000                          0000000000                                                                  000173
1020874591800017100000090345100240370REGTIT26211903021604     000000000000598799120000000000000000000000000902130319190302160400000000000059879912290319000000003268523704151  000000000014300000000000000000000000000000000000000000000000000000000000000000000000000000000000000000000000000000000                          0000000000                                                                  000174
1020874591800017100000090345100240370REGTIT26211903021606     000000000000598799200000000000000000000000000902130319190302160600000000000059879920290319000000002260023704144  000000000014300000000000000000000000000000000000000000000000000000000000000000000000000000000000000000000000000000000                          0000000000                                                                  000175
1020874591800017100000090345100240370REGTIT26211903021610     000000000000598799390000000000000000000000000902130319190302161000000000000059879939290319000000002546023704143  000000000014300000000000000000000000000000000000000000000000000000000000000000000000000000000000000000000000000000000                          0000000000                                                                  000176
1020874591800017100000090345100240370REGTIT26211903021717     000000000000598799470000000000000000000000000902130319190302171700000000000059879947290319000000002400023704144  000000000014300000000000000000000000000000000000000000000000000000000000000000000000000000000000000000000000000000000                          0000000000                                                                  000177
1020874591800017100000090345100240370REGTIT26211903021779     000000000000598799550000000000000000000000000902130319190302177900000000000059879955290319000000001645523704144  000000000014300000000000000000000000000000000000000000000000000000000000000000000000000000000000000000000000000000000                          0000000000                                                                  000178
1020874591800017100000090345100240370REGTIT26211903021857     000000000000598799630000000000000000000000000902130319190302185700000000000059879963290319000000003385023704154  000000000014300000000000000000000000000000000000000000000000000000000000000000000000000000000000000000000000000000000                          0000000000                                                                  000179
1020874591800017100000090345100240370REGTIT26211903021928     000000000000598799710000000000000000000000000902130319190302192800000000000059879971290319000000002657623703451  000000000014300000000000000000000000000000000000000000000000000000000000000000000000000000000000000000000000000000000                          0000000000                                                                  000180
1020874591800017100000090345100240370REGTIT26211903021973     0000000000005987998P000000000000000000000000090213031919030219730000000000005987998P290319000000002663523704151  000000000014300000000000000000000000000000000000000000000000000000000000000000000000000000000000000000000000000000000                          0000000000                                                                  000181
1020874591800017100000090345100240370REGTIT26211903022178     000000000000598799980000000000000000000000000902130319190302217800000000000059879998290319000000002919723704157  000000000014300000000000000000000000000000000000000000000000000000000000000000000000000000000000000000000000000000000                          0000000000                                                                  000182
1020874591800017100000090345100240370REGTIT26211903022466     000000000000598800070000000000000000000000000902130319190302246600000000000059880007290319000000002563923704144  000000000014300000000000000000000000000000000000000000000000000000000000000000000000000000000000000000000000000000000                          7600000000                                                                  000183
1020874591800017100000090345100240370REGTIT26211903022568     000000000000598800150000000000000000000000000902130319190302256800000000000059880015290319000000002782323704151  000000000014300000000000000000000000000000000000000000000000000000000000000000000000000000000000000000000000000000000                          7600000000                                                                  000184
1020874591800017100000090345100240370REGTIT26211903022594     000000000000598800230000000000000000000000000902130319190302259400000000000059880023290319000000001548023704144  000000000014300000000000000000000000000000000000000000000000000000000000000000000000000000000000000000000000000000000                          0000000000                                                                  000185
1020874591800017100000090345100240370REGTIT26211903022629     000000000000598800310000000000000000000000000902130319190302262900000000000059880031290319000000002594323704152  000000000014300000000000000000000000000000000000000000000000000000000000000000000000000000000000000000000000000000000                          0000000000                                                                  000186
1020874591800017100000090345100240370REGTIT26211903022926     0000000000005988004P000000000000000000000000090213031919030229260000000000005988004P290319000000001966023700320  000000000014300000000000000000000000000000000000000000000000000000000000000000000000000000000000000000000000000000000                          7600000000                                                                  000187
1020874591800017100000090345100240370REGTIT26211903022956     000000000000598800580000000000000000000000000902130319190302295600000000000059880058290319000000002416823704143  000000000014300000000000000000000000000000000000000000000000000000000000000000000000000000000000000000000000000000000                          0000000000                                                                  000188
1020874591800017100000090345100240370REGTIT26211903023096     000000000000598800660000000000000000000000000902130319190302309600000000000059880066290319000000002419223704144  000000000014300000000000000000000000000000000000000000000000000000000000000000000000000000000000000000000000000000000                          0000000000                                                                  000189
1020874591800017100000090345100240370REGTIT26211903023153     000000000000598800740000000000000000000000000902130319190302315300000000000059880074290319000000025178323704151  000000000014300000000000000000000000000000000000000000000000000000000000000000000000000000000000000000000000000000000                          0000000000                                                                  000190
1020874591800017100000090345100240370REGTIT26211903023303     000000000000598800820000000000000000000000000902130319190302330300000000000059880082290319000000002885823704144  000000000014300000000000000000000000000000000000000000000000000000000000000000000000000000000000000000000000000000000                          7600000000                                                                  000191
1020874591800017100000090345100240370REGTIT26211903023436     000000000000598800900000000000000000000000000902130319190302343600000000000059880090290319000000002515023704143  000000000014300000000000000000000000000000000000000000000000000000000000000000000000000000000000000000000000000000000                          0000000000                                                                  000192
1020874591800017100000090345100240370REGTIT26211903023517     000000000000598801040000000000000000000000000902130319190302351700000000000059880104290319000000002068523704144  000000000014300000000000000000000000000000000000000000000000000000000000000000000000000000000000000000000000000000000                          0000000000                                                                  000193
1020874591800017100000090345100240370REGTIT26211903023580     000000000000598801120000000000000000000000000902130319190302358000000000000059880112290319000000002419823704144  000000000014300000000000000000000000000000000000000000000000000000000000000000000000000000000000000000000000000000000                          7600000000                                                                  000194
1020874591800017100000090345100240370REGTIT26211903023784     000000000000598801200000000000000000000000000902130319190302378400000000000059880120290319000000001863323704426  000000000014300000000000000000000000000000000000000000000000000000000000000000000000000000000000000000000000000000000                          7600000000                                                                  000195
1020874591800017100000090345100240370REGTIT26211903023886     000000000000598801390000000000000000000000000902130319190302388600000000000059880139290319000000003130823700153  000000000014300000000000000000000000000000000000000000000000000000000000000000000000000000000000000000000000000000000                          0000000000                                                                  000196
1020874591800017100000090345100240370REGTIT26211903023956     000000000000598801470000000000000000000000000902130319190302395600000000000059880147290319000000002612723704143  000000000014300000000000000000000000000000000000000000000000000000000000000000000000000000000000000000000000000000000                          0000000000                                                                  000197
1020874591800017100000090345100240370REGTIT26211903024284     000000000000598801550000000000000000000000000902130319190302428400000000000059880155290319000000000998023704144  000000000014300000000000000000000000000000000000000000000000000000000000000000000000000000000000000000000000000000000                          7600000000                                                                  000198
1020874591800017100000090345100240370REGTIT26211903024326     000000000000598801630000000000000000000000000902130319190302432600000000000059880163290319000000001448023704144  000000000014300000000000000000000000000000000000000000000000000000000000000000000000000000000000000000000000000000000                          0000000000                                                                  000199
1020874591800017100000090345100240370REGTIT26211903024356     000000000000598801710000000000000000000000000902130319190302435600000000000059880171290319000000002298023703451  000000000014300000000000000000000000000000000000000000000000000000000000000000000000000000000000000000000000000000000                          7600000000                                                                  000200
1020874591800017100000090345100240370REGTIT26211903024523     0000000000005988018P000000000000000000000000090213031919030245230000000000005988018P290319000000002807923704151  000000000014300000000000000000000000000000000000000000000000000000000000000000000000000000000000000000000000000000000                          0000000000                                                                  000201
1020874591800017100000090345100240370REGTIT26211903024530     000000000000598801980000000000000000000000000902130319190302453000000000000059880198290319000000002547823704151  000000000014300000000000000000000000000000000000000000000000000000000000000000000000000000000000000000000000000000000                          0000000000                                                                  000202
1020874591800017100000090345100240370REGTIT26211903024560     000000000000598802010000000000000000000000000902130319190302456000000000000059880201290319000000002626723704152  000000000014300000000000000000000000000000000000000000000000000000000000000000000000000000000000000000000000000000000                          0000000000                                                                  000203
1020874591800017100000090345100240370REGTIT26211903024601     0000000000005988021P000000000000000000000000090213031919030246010000000000005988021P290319000000002441923704144  000000000014300000000000000000000000000000000000000000000000000000000000000000000000000000000000000000000000000000000                          7600000000                                                                  000204
1020874591800017100000090345100240370REGTIT26211903024619     000000000000598802280000000000000000000000000902130319190302461900000000000059880228290319000000002922123704428  000000000014300000000000000000000000000000000000000000000000000000000000000000000000000000000000000000000000000000000                          0000000000                                                                  000205
1020874591800017100000090345100240370REGTIT26211903024625     000000000000598802360000000000000000000000000902130319190302462500000000000059880236290319000000002419823704144  000000000014300000000000000000000000000000000000000000000000000000000000000000000000000000000000000000000000000000000                          7600000000                                                                  000206
1020874591800017100000090345100240370REGTIT26211903024627     000000000000598802440000000000000000000000000902130319190302462700000000000059880244290319000000002311723704144  000000000014300000000000000000000000000000000000000000000000000000000000000000000000000000000000000000000000000000000                          0000000000                                                                  000207
1020874591800017100000090345100240370REGTIT26211903024878     000000000000598802520000000000000000000000000902130319190302487800000000000059880252290319000000001199823700073  000000000014300000000000000000000000000000000000000000000000000000000000000000000000000000000000000000000000000000000                          0000000000                                                                  000208
1020874591800017100000090345100240370REGTIT26211903024916     000000000000598802600000000000000000000000000902130319190302491600000000000059880260290319000000004162923703451  000000000014300000000000000000000000000000000000000000000000000000000000000000000000000000000000000000000000000000000                          0000000000                                                                  000209
1020874591800017100000090345100240370REGTIT26211903024940     000000000000598802790000000000000000000000000902130319190302494000000000000059880279290319000000002049023704144  000000000014300000000000000000000000000000000000000000000000000000000000000000000000000000000000000000000000000000000                          7600000000                                                                  000210
1020874591800017100000090345100240370REGTIT26211903025082     000000000000598802870000000000000000000000000902130319190302508200000000000059880287290319000000001944023704274  000000000014300000000000000000000000000000000000000000000000000000000000000000000000000000000000000000000000000000000                          0000000000                                                                  000211
1020874591800017100000090345100240370REGTIT26211903025227     000000000000598802950000000000000000000000000902130319190302522700000000000059880295290319000000001350023703451  000000000014300000000000000000000000000000000000000000000000000000000000000000000000000000000000000000000000000000000                          0000000000                                                                  000212
1020874591800017100000090345100240370REGTIT26211903025298     000000000000598803090000000000000000000000000902130319190302529800000000000059880309290319000000001553023704157  000000000014300000000000000000000000000000000000000000000000000000000000000000000000000000000000000000000000000000000                          0000000000                                                                  000213
1020874591800017100000090345100240370REGTIT26211903025366     000000000000598803170000000000000000000000000902130319190302536600000000000059880317290319000000003244423704144  000000000014300000000000000000000000000000000000000000000000000000000000000000000000000000000000000000000000000000000                          7600000000                                                                  000214
1020874591800017100000090345100240370REGTIT26211903025569     000000000000598803250000000000000000000000000902130319190302556900000000000059880325290319000000002966023703451  000000000014300000000000000000000000000000000000000000000000000000000000000000000000000000000000000000000000000000000                          0000000000                                                                  000215
1020874591800017100000090345100240370REGTIT26211903025729     000000000000598803330000000000000000000000000902130319190302572900000000000059880333290319000000000370023704144  000000000014300000000000000000000000000000000000000000000000000000000000000000000000000000000000000000000000000000000                          0000000000                                                                  000216
1020874591800017100000090345100240370REGTIT26211903025938     000000000000598803410000000000000000000000000902130319190302593800000000000059880341290319000000002678023704151  000000000014300000000000000000000000000000000000000000000000000000000000000000000000000000000000000000000000000000000                          0000000000                                                                  000217
1020874591800017100000090345100240370REGTIT26211903025980     0000000000005988035P000000000000000000000000090213031919030259800000000000005988035P290319000000011093123704274  000000000014300000000000000000000000000000000000000000000000000000000000000000000000000000000000000000000000000000000                          7600000000                                                                  000218
1020874591800017100000090345100240370REGTIT26211903026159     000000000000598803680000000000000000000000000902130319190302615900000000000059880368290319000000001974023704151  000000000014300000000000000000000000000000000000000000000000000000000000000000000000000000000000000000000000000000000                          0000000000                                                                  000219
1020874591800017100000090345100240370REGTIT26211903026169     000000000000598803760000000000000000000000000902130319190302616900000000000059880376290319000000001348023704143  000000000014300000000000000000000000000000000000000000000000000000000000000000000000000000000000000000000000000000000                          0000000000                                                                  000220
1020874591800017100000090345100240370REGTIT26211903026181     000000000000598803840000000000000000000000000902130319190302618100000000000059880384290319000000002986523700320  000000000014300000000000000000000000000000000000000000000000000000000000000000000000000000000000000000000000000000000                          0000000000                                                                  000221
1020874591800017100000090345100240370REGTIT26211903026400     000000000000598803920000000000000000000000000902130319190302640000000000000059880392290319000000001599023704400  000000000014300000000000000000000000000000000000000000000000000000000000000000000000000000000000000000000000000000000                          0000000000                                                                  000222
1020874591800017100000090345100240370REGTIT26211903026472     000000000000598804060000000000000000000000000902130319190302647200000000000059880406290319000000001835823704144  000000000014300000000000000000000000000000000000000000000000000000000000000000000000000000000000000000000000000000000                          0000000000                                                                  000223
1020874591800017100000090345100240370REGTIT26211903026544     000000000000598804140000000000000000000000000902130319190302654400000000000059880414290319000000000998023704157  000000000014300000000000000000000000000000000000000000000000000000000000000000000000000000000000000000000000000000000                          7600000000                                                                  000224
1020874591800017100000090345100240370REGTIT26211903026565     000000000000598804220000000000000000000000000902130319190302656500000000000059880422290319000000002664523703451  000000000014300000000000000000000000000000000000000000000000000000000000000000000000000000000000000000000000000000000                          0000000000                                                                  000225
1020874591800017100000090345100240370REGTIT26211903026657     000000000000598804300000000000000000000000000902130319190302665700000000000059880430290319000000002544323704144  000000000014300000000000000000000000000000000000000000000000000000000000000000000000000000000000000000000000000000000                          0000000000                                                                  000226
1020874591800017100000090345100240370REGTIT26211903026691     000000000000598804490000000000000000000000000902130319190302669100000000000059880449290319000000002434523704151  000000000014300000000000000000000000000000000000000000000000000000000000000000000000000000000000000000000000000000000                          7600000000                                                                  000227
1020874591800017100000090345100240370REGTIT26211903026801     000000000000598804570000000000000000000000000902130319190302680100000000000059880457290319000000002434523704143  000000000014300000000000000000000000000000000000000000000000000000000000000000000000000000000000000000000000000000000                          0000000000                                                                  000228
1020874591800017100000090345100240370REGTIT26211903026819     000000000000598804650000000000000000000000000902130319190302681900000000000059880465290319000000002991123704143  000000000014300000000000000000000000000000000000000000000000000000000000000000000000000000000000000000000000000000000                          0000000000                                                                  000229
1020874591800017100000090345100240370REGTIT26211903026864     000000000000598804730000000000000000000000000902130319190302686400000000000059880473290319000000001576923704428  000000000014300000000000000000000000000000000000000000000000000000000000000000000000000000000000000000000000000000000                          0000000000                                                                  000230
1020874591800017100000090345100240370REGTIT26211903026874     000000000000598804810000000000000000000000000902130319190302687400000000000059880481290319000000002242523704154  000000000014300000000000000000000000000000000000000000000000000000000000000000000000000000000000000000000000000000000                          0000000000                                                                  000231
1020874591800017100000090345100240370REGTIT26211903027180     0000000000005988049P000000000000000000000000090213031919030271800000000000005988049P290319000000002255423703451  000000000014300000000000000000000000000000000000000000000000000000000000000000000000000000000000000000000000000000000                          7600000000                                                                  000232
1020874591800017100000090345100240370REGTIT26211903027330     000000000000598805030000000000000000000000000902130319190302733000000000000059880503290319000000000671023704151  000000000014300000000000000000000000000000000000000000000000000000000000000000000000000000000000000000000000000000000                          7600000000                                                                  000233
1020874591800017100000090345100240370REGTIT26211903027499     000000000000598805110000000000000000000000000902130319190302749900000000000059880511290319000000001839023703451  000000000014300000000000000000000000000000000000000000000000000000000000000000000000000000000000000000000000000000000                          0000000000                                                                  000234
1020874591800017100000090345100240370REGTIT26211903027582     0000000000005988052P000000000000000000000000090213031919030275820000000000005988052P290319000000003452123704151  000000000014300000000000000000000000000000000000000000000000000000000000000000000000000000000000000000000000000000000                          0000000000                                                                  000235
1020874591800017100000090345100240370REGTIT26211903027672     000000000000598805380000000000000000000000000902130319190302767200000000000059880538290319000000000599023704144  000000000014300000000000000000000000000000000000000000000000000000000000000000000000000000000000000000000000000000000                          0000000000                                                                  000236
1020874591800017100000090345100240370REGTIT26211903027703     000000000000598805460000000000000000000000000902130319190302770300000000000059880546290319000000001625923704426  000000000014300000000000000000000000000000000000000000000000000000000000000000000000000000000000000000000000000000000                          0000000000                                                                  000237
1020874591800017100000090345100240370REGTIT26211903027773     000000000000598805540000000000000000000000000902130319190302777300000000000059880554290319000000001198023704157  000000000014300000000000000000000000000000000000000000000000000000000000000000000000000000000000000000000000000000000                          0000000000                                                                  000238
1020874591800017100000090345100240370REGTIT26211903027869     000000000000598805620000000000000000000000000902130319190302786900000000000059880562290319000000002379523700073  000000000014300000000000000000000000000000000000000000000000000000000000000000000000000000000000000000000000000000000                          7600000000                                                                  000239
1020874591800017100000090345100240370REGTIT26211903027983     000000000000598805700000000000000000000000000902130319190302798300000000000059880570290319000000002149023704144  000000000014300000000000000000000000000000000000000000000000000000000000000000000000000000000000000000000000000000000                          0000000000                                                                  000240
1020874591800017100000090345100240370REGTIT26211903027986     000000000000598805890000000000000000000000000902130319190302798600000000000059880589290319000000001971023704159  000000000014300000000000000000000000000000000000000000000000000000000000000000000000000000000000000000000000000000000                          0000000000                                                                  000241
1020874591800017100000090345100240370REGTIT26211903028103     000000000000598805970000000000000000000000000902130319190302810300000000000059880597290319000000002531223703451  000000000014300000000000000000000000000000000000000000000000000000000000000000000000000000000000000000000000000000000                          7600000000                                                                  000242
1020874591800017100000090345100240370REGTIT26211903028167     000000000000598806000000000000000000000000000902130319190302816700000000000059880600290319000000002807523704143  000000000014300000000000000000000000000000000000000000000000000000000000000000000000000000000000000000000000000000000                          7600000000                                                                  000243
1020874591800017100000090345100240370REGTIT26211903028213     000000000000598806190000000000000000000000000902130319190302821300000000000059880619290319000000003507423704151  000000000014300000000000000000000000000000000000000000000000000000000000000000000000000000000000000000000000000000000                          0000000000                                                                  000244
1020874591800017100000090345100240370REGTIT26211903028281     000000000000598806270000000000000000000000000902130319190302828100000000000059880627290319000000002825523704144  000000000014300000000000000000000000000000000000000000000000000000000000000000000000000000000000000000000000000000000                          7600000000                                                                  000245
1020874591800017100000090345100240370REGTIT26211903028420     000000000000598806350000000000000000000000000902130319190302842000000000000059880635290319000000002719023703451  000000000014300000000000000000000000000000000000000000000000000000000000000000000000000000000000000000000000000000000                          0000000000                                                                  000246
1020874591800017100000090345100240370REGTIT26211903028505     000000000000598806430000000000000000000000000902130319190302850500000000000059880643290319000000002804123704144  000000000014300000000000000000000000000000000000000000000000000000000000000000000000000000000000000000000000000000000                          7600000000                                                                  000247
1020874591800017100000090345100240370REGTIT26211903028818     000000000000598806510000000000000000000000000902130319190302881800000000000059880651290319000000003402923704426  000000000014300000000000000000000000000000000000000000000000000000000000000000000000000000000000000000000000000000000                          0000000000                                                                  000248
