0001613052008745918000171WC SISTEMAS E EQUIPAMENTOS DE           202000010000120190302072804             3                                                                                                                                                                                                                                                                                                                                                                                                    000001
11054510629000000DEBORA DE QUADROS TABORDA     RUA JOSÉ COCCONI                        0000000003303335000000010965883 0000000000136965000000000000000000000000013696201903010000000000000000000000000000000000000000466432000000000000000000000000000000050000000000  0320190301   02BW        5000000               000000000000000                                               3C00000001                                                                 283                      00539 10024037        000002
11060431139000070TIAGO LUIS GOEDERT            RUA RIO JAGUARIBE                       0000000034103858000000000707080 0000000000137045000000000000000000000000013704201903010000000000000000000000000000000000000000061350000000000000000000000000000000050000000000  0320190301   02BW        5000000               000000000000000                                               3C00000001                                                                 383                      00539 10024037        000003
11084346319000089DALLIENE DE SOUZA RIBEIRO     RUA GASTÃO DE ABREU PIRES               0000000034103835000000000303524 0000000000136964000000000000000000000000013696201903010000000000000000000000000000000000000000035910000000000000000000000000000000050000000000  0320190301   02BW        5000000               000000000000000                                               3C00000001                                                                 392                      00539 10024037        000004
11072971589000025ROSANGELA APARECIDA DOS SANTOSRUA AUGUSTO DOMACOSKI                   0000000023705750900000001904531 0000000000137040000000000000000000000000013704201903010000000000000000000000000000000000000000061350000000000000000000000000000000050000000000  0120190301   02BW        5000000               000000000000000                                               3                                                                          475                      01321 10024037        000005
11054860867000092JOYCE FIGUEIRO DOS SANTOS     RUA BRIGADEIRO FRANCO                   0000000034104895000000000168310 0000000000136978000000000000000000000000013697201903010000000000000000000000000000000000000000018210000000000000000000000000000000050000000000  0320190301   02BW        5000000               000000000000000                                               3C00000001                                                                 502                      00539 10024037        000006
11080592669000000JULIANA SALLES BERLIN         RUA MARIO ZANLORENZI                    0000000003304403000000010850038 0000000000136979000000000000000000000000013697201903010000000000000000000000000000000000000000105902000000000000000000000000000000050000000000  0320190301   02BW        5000000               000000000000000                                               3C00000001                                                                 365                      00539 10024037        000007
11063732819000014JULIO CEZAR MACIEL            RUA ARCESIO DE BARROS LIMA              0000000010402997000013000185883 0000000000136980000000000000000000000000013698201903010000000000000000000000000000000000000000056423000000000000000000000000000000050000000000  0320190301   02BW        5000000               000000000000000                                               3C00000011                                                                 501                      00539 10024037        000008
11073892909000035LEANDRO MURILO FERREIRA       RUA ANT NIO BARBOSA DE OLIVEIRA         0000000003304613000000010348932 0000000000136981000000000000000000000000013698201903010000000000000000000000000000000000000000125913000000000000000000000000000000050000000000  0320190301   02BW        5000000               000000000000000                                               3C00000001                                                                 465                      00539 10024037        000009
11065545879000042LETICIA DOS SANTOS            RUA ADALBERTO SCHERER                   0000000034101688000000000311578 0000000000136982000000000000000000000000013698201903010000000000000000000000000000000000000000162754000000000000000000000000000000050000000000  0320190301   02BW        5000000               000000000000000                                               3C00000001                                                                  80                      00539 10024037        000010
11106282699000000LUANA APARECIDA DE LIMA       RUA MACIEIRAS                           0000000034102929000000000851166 0000000000136983000000000000000000000000013698201903010000000000000000000000000000000000000000108500000000000000000000000000000000050000000000  0320190301   02BW        5000000               000000000000000                                               3C00000011                                                                 490                      00539 10024037        000011
11059538699000075LUCAS ALEXANDRE RODRIGUES     RUA CASCAVEL                            0000000003300813000000010057436 0000000000136984000000000000000000000000013698201903010000000000000000000000000000000000000000111267000000000000000000000000000000050000000000  0320190301   02BW        5000000               000000000000000                                               3C00000001                                                                 466                      00539 10024037        000012
11067593929000014MAHARA CRUZ                   RUA DOUTOR JOAO DE PAULA MOURA BRITO    0000000000101458000000000194301 0000000000136985000000000000000000000000013698201903010000000000000000000000000000000000000000131750000000000000000000000000000000050000000000  0320190301   02BW        5000000               000000000000000                                               3C00000001                                                                 491                      00539 10024037        000013
11066441169000006MAILSON DE MACEDO             RUA PADRE JOSE POLIGA                   0000000010401632000013000596770 0000000000136986000000000000000000000000013698201903010000000000000000000000000000000000000000170776000000000000000000000000000000050000000000  0320190301   02BW        5000000               000000000000000                                               3C00000011                                                                 487                      00539 10024037        000014
11081035419000058ANDRESSA DE SOUZA DIAS        RUA SEBASTIANA LUSTOSA DE FREITAS       0000000010400581000013000036562 0000000000136960000000000000000000000000013696201903010000000000000000000000000000000000000000178500000000000000000000000000000000050000000000  0320190301   02BW        5000000               000000000000000                                               3C00000011                                                                 456                      00539 10024037        000015
11080528969000008AUGUSTO LUIS LOHN             RUA CHILDERICO BEVILAQUA                0000000034109313000000000442460 0000000000136961000000000000000000000000013696201903010000000000000000000000000000000000000000153210000000000000000000000000000000050000000000  0320190301   02BW        5000000               000000000000000                                               3C00000001                                                                 433                      00539 10024037        000016
11415147098000005BIANCA ASSUNCAO MARTINS       RUA ISAÍAS RÉGIS DE MIRANDA             0000000034100655000000000483055 0000000000136962000000000000000000000000013696201903010000000000000000000000000000000000000000108500000000000000000000000000000000050000000000  0320190301   02BW        5000000               000000000000000                                               3C00000001                                                                 458                      00539 10024037        000017
11085947069000052BIANCA DE LIMA                RUA PEDRO JACOB KLOCK                   0000000010400371000013000344222 0000000000136963000000000000000000000000013696201903010000000000000000000000000000000000000000037513000000000000000000000000000000050000000000  0320190301   02BW        5000000               000000000000000                                               3C00000011                                                                 503                      00539 10024037        000018
11089252799000040GRAYCE KELLY B DE JESUS       RUA PEDRO ALEIXO                        0000000023703285900000000944688 0000000000136970000000000000000000000000013697201903010000000000000000000000000000000000000000218780000000000000000000000000000000050000000000  0120190301   02BW        5000000               000000000000000                                               3                                                                          306                      01321 10024037        000019
11052841259000008MATHEUS DE SOUZA FERNANDES    AVENIDA CÂNDIDO DE ABREU                0000000023703451700000000418501 0000000000136987000000000000000000000000013698201903010000000000000000000000000000000000000000298900000000000000000000000000000000050000000000  0120190301   02BW        5000000               000000000000000                                               3                                                                          347                      01321 10024037        000020
11089252799000040GRAYCE KELLY B DE JESUS       RUA PEDRO ALEIXO                        0000000023703285900000000944688 0000000000137016000000000000000000000000013701201903010000000000000000000000000000000000000000061350000000000000000000000000000000050000000000  0120190301   02BW        5000000               000000000000000                                               3                                                                          306                      01321 10024037        000021
11121620907000032WELLINGTON DOS SANTOS RODRIGUERUA LILIAN VIANA DE ARAÚJO              0000000023702034600000010181089 0000000000137002000000000000000000000000013700201903010000000000000000000000000000000000000000158846000000000000000000000000000000050000000000  0120190301   02BW        5000000               000000000000000                                               3                                                                          477                      01321 20024037        000022
11037226149000037ANDERSON DE CASTRO            RUA JOSÉ DOMINGUES PEREIRA              0000000023705694400000000050466 0000000000137006000000000000000000000000013700201903010000000000000000000000000000000000000000061350000000000000000000000000000000050000000000  0120190301   02BW        5000000               000000000000000                                               3                                                                          363                      01321 10024037        000023
11037226149000037ANDERSON DE CASTRO            RUA JOSÉ DOMINGUES PEREIRA              0000000023705694400000000050466 0000000000136959000000000000000000000000013695201903010000000000000000000000000000000000000000468734000000000000000000000000000000050000000000  0120190301   02BW        5000000               000000000000000                                               3                                                                          363                      01321 10024037        000024
11073892909000035LEANDRO MURILO FERREIRA       RUA ANT NIO BARBOSA DE OLIVEIRA         0000000003304613000000010348932 0000000000137027000000000000000000000000013702201903010000000000000000000000000000000000000000061350000000000000000000000000000000050000000000  0320190301   02BW        5000000               000000000000000                                               3C00000001                                                                 465                      00539 10024037        000025
11110912279000093ALINE SCHNEIDER STRAUBE MEDEIRRUA ISAÍAS RÉGIS DE MIRANDA             0000000010401282000013000725454 0000000000137003000000000000000000000000013700201903010000000000000000000000000000000000000000061350000000000000000000000000000000050000000000  0320190301   02BW        5000000               000000000000000                                               3C00000011                                                                 459                      00539 10024037        000026
11076743869000088ALYNI LEMES ALVES             RUA MAXIMILIANO BOSCARDIN               0000000010401632000013000188353 0000000000137004000000000000000000000000013700201903010000000000000000000000000000000000000000061350000000000000000000000000000000050000000000  0320190301   02BW        5000000               000000000000000                                               3C00000011                                                                 349                      00539 10024037        000027
11106839309000023SABRINA APARECIDA WENDL       RUA DUQUE DE CAXIAS                     0000000023706021600000000013323 0000000000136995000000000000000000000000013699201903010000000000000000000000000000000000000000108500000000000000000000000000000000050000000000  0120190301   02BW        5000000               000000000000000                                               3                                                                          489                      01321 10024037        000028
11059898949000088ANA CAROLINA SOTTO MAIOR BOZZARUA ROUXINOL                            0000000034108931000000000013323 0000000000137005000000000000000000000000013700201903010000000000000000000000000000000000000000061350000000000000000000000000000000050000000000  0320190301   02BW        5000000               000000000000000                                               3C00000001                                                                 212                      00539 10024037        000029
11115383956000030SHEILLA MARISA DA SILVA       RUA PRESIDENTE FARIA                    0000000010400094000013000235401 0000000000136996000000000000000000000000013699201903010000000000000000000000000000000000000000108500000000000000000000000000000000050000000000  0320190301   02BW        5000000               000000000000000                                               3C00000011                                                                 485                      00539 10024037        000030
11065545879000042LETICIA DOS SANTOS            RUA ADALBERTO SCHERER                   0000000034101688000000000311578 0000000000137028000000000000000000000000013702201903010000000000000000000000000000000000000000061350000000000000000000000000000000050000000000  0320190301   02BW        5000000               000000000000000                                               3C00000001                                                                  80                      00539 10024037        000031
11106282699000000LUANA APARECIDA DE LIMA       RUA MACIEIRAS                           0000000034102929000000000851166 0000000000137029000000000000000000000000013702201903010000000000000000000000000000000000000000061350000000000000000000000000000000050000000000  0320190301   02BW        5000000               000000000000000                                               3C00000011                                                                 490                      00539 10024037        000032
11059538699000075LUCAS ALEXANDRE RODRIGUES     RUA CASCAVEL                            0000000003300813000000010057436 0000000000137030000000000000000000000000013703201903010000000000000000000000000000000000000000061350000000000000000000000000000000050000000000  0320190301   02BW        5000000               000000000000000                                               3C00000001                                                                 466                      00539 10024037        000033
11067593929000014MAHARA CRUZ                   RUA DOUTOR JOAO DE PAULA MOURA BRITO    0000000000101458000000000194301 0000000000137031000000000000000000000000013703201903010000000000000000000000000000000000000000061350000000000000000000000000000000050000000000  0320190301   02BW        5000000               000000000000000                                               3C00000001                                                                 491                      00539 10024037        000034
11066441169000006MAILSON DE MACEDO             RUA PADRE JOSE POLIGA                   0000000010401632000013000596770 0000000000137032000000000000000000000000013703201903010000000000000000000000000000000000000000061350000000000000000000000000000000050000000000  0320190301   02BW        5000000               000000000000000                                               3C00000011                                                                 487                      00539 10024037        000035
11052841259000008MATHEUS DE SOUZA FERNANDES    AVENIDA CÂNDIDO DE ABREU                0000000023703451700000000418501 0000000000137033000000000000000000000000013703201903010000000000000000000000000000000000000000041800000000000000000000000000000000050000000000  0120190301   02BW        5000000               000000000000000                                               3                                                                          347                      01321 10024037        000036
11115383956000030SHEILLA MARISA DA SILVA       RUA PRESIDENTE FARIA                    0000000010400094000013000235401 0000000000137042000000000000000000000000013704201903010000000000000000000000000000000000000000061350000000000000000000000000000000050000000000  0320190301   02BW        5000000               000000000000000                                               3C00000011                                                                 485                      00539 10024037        000037
11091425479000003TATIANE GOMES DE CARVALHO     RUA MARIA ELISEU FERNANDES              0000000010403342000013000103292 0000000000137043000000000000000000000000013704201903010000000000000000000000000000000000000000061350000000000000000000000000000000050000000000  0320190301   02BW        5000000               000000000000000                                               3C00000011                                                                 372                      00539 10024037        000038
11106839309000023SABRINA APARECIDA WENDL       RUA DUQUE DE CAXIAS                     0000000023706021600000000013323 0000000000137041000000000000000000000000013704201903010000000000000000000000000000000000000000061350000000000000000000000000000000050000000000  0120190301   02BW        5000000               000000000000000                                               3                                                                          489                      01321 10024037        000039
11121620907000032WELLINGTON DOS SANTOS RODRIGUERUA LILIAN VIANA DE ARAÚJO              0000000023702034600000010181089 0000000000137048000000000000000000000000013704201903010000000000000000000000000000000000000000061350000000000000000000000000000000050000000000  0120190301   02BW        5000000               000000000000000                                               3                                                                          477                      01321 20024037        000040
11040002839000052JAYRIBE RODRIGO FREIRE DA SILVRUA ROLF FARIA GUGISCH                  0000000010400371000013000742597 0000000000137019000000000000000000000000013701201903010000000000000000000000000000000000000000061350000000000000000000000000000000050000000000  0320190301   02BW        5000000               000000000000000                                               3C00000011                                                                 263                      00539 10024037        000041
11091425479000003TATIANE GOMES DE CARVALHO     RUA MARIA ELISEU FERNANDES              0000000010403342000013000103292 0000000000136997000000000000000000000000013699201903010000000000000000000000000000000000000000158500000000000000000000000000000000050000000000  0320190301   02BW        5000000               000000000000000                                               3C00000011                                                                 372                      00539 10024037        000042
11083055739000031JENYFER CRISTINI LOURENO MARTIRUA SAO MATEUS                          0000000003304388000000010197511 0000000000137020000000000000000000000000013702201903010000000000000000000000000000000000000000061350000000000000000000000000000000050000000000  0320190301   02BW        5000000               000000000000000                                               3C00000001                                                                 499                      00539 10024037        000043
11118073987000065REGIO MENDES DE FREITAS       RUA CEREJEIRA                           0000000010402864000000013495048 0000000000137037000000000000000000000000013703201903010000000000000000000000000000000000000000061350000000000000000000000000000000050000000000  0320190301   02BW        5000000               000000000000000                                               3C00000011                                                                 498                      00539 10024037        000044
11060070489000000DEISE MARA DE ANDRADE         AVENIDA FLORIANÓPOLIS                   0000000010400369000000000441677 0000000000136966000000000000000000000000013696201903010000000000000000000000000000000000000000134300000000000000000000000000000000050000000000  0320190301   02BW        5000000               000000000000000                                               3C00000011                                                                  20                      00539 10024037        000045
11040182849000026ROSANA MARTINS                RUA ENGENHEIRO FRANCISCO XAVIER DRIESEL 0000000034103721000000000489981 0000000000136993000000000000000000000000013699201903010000000000000000000000000000000000000000127212000000000000000000000000000000050000000000  0320190301   02BW        5000000               000000000000000                                               3C00000001                                                                   4                      00539 10024037        000046
11049741819000039RODRIGO WESLEY CHAGAS         RUA PROFESSORA POMPÍLIA L. DOS SANTOS   0000000034109713000000000098953 0000000000137038000000000000000000000000013703201903010000000000000000000000000000000000000000061350000000000000000000000000000000050000000000  0320190301   02BW        5000000               000000000000000                                               3C00000001                                                                 453                      00539 10024037        000047
11010440129000000ISABELLE CALDAS MROCZEK       RUA JOSE PEREIRA DE ARAUJO              0000000034108616000000000277433 0000000000137017000000000000000000000000013701201903010000000000000000000000000000000000000000061350000000000000000000000000000000050000000000  0320190301   02BW        5000000               000000000000000                                               3C00000001                                                                 401                      00539 10024037        000048
11100334359000079JAYNE AMARAL DE JESUS         RUA RODOVIL LIODOR BRENNER              0000000034103721000000000507592 0000000000137018000000000000000000000000013701201903010000000000000000000000000000000000000000061350000000000000000000000000000000050000000000  0320190301   02BW        5000000               000000000000000                                               3C00000001                                                                 171                      00539 10024037        000049
11072854909000038JESSICA ALVES JACON           RUA ANT NIO FRANCISCO BONATTO           0000000003300084000000010660991 0000000000137021000000000000000000000000013702201903010000000000000000000000000000000000000000061350000000000000000000000000000000050000000000  0320190301   02BW        5000000               000000000000000                                               3C00000001                                                                 423                      00539 10024037        000050
11053021169000060VANDERLEIA DOS SANTOS         RUA JOÃO GRIBOGI                        0000000010401632000013000525570 0000000000137046000000000000000000000000013704201903010000000000000000000000000000000000000000061350000000000000000000000000000000050000000000  0320190301   02BW        5000000               000000000000000                                               3C00000011                                                                 470                      00539 10024037        000051
11067066189000093THAIS FABIANA BARBOSA ROBERTO RUA JOSE LOPES DOS SANTOS               0000000003303415000000010956107 0000000000136998000000000000000000000000013699201903010000000000000000000000000000000000000000181780000000000000000000000000000000050000000000  0320190301   02BW        5000000               000000000000000                                               3C00000001                                                                 402                      00539 10024037        000052
11077484099000043GLEICE KAROLINA ALVES         RUA CHANCELER LAURO MULLER              0000000003303731000000010410499 0000000000136968000000000000000000000000013696201903010000000000000000000000000000000000000000188500000000000000000000000000000000050000000000  0320190301   02BW        5000000               000000000000000                                               3C00000001                                                                 315                      00539 10024037        000053
11095678299000000VINICIUS REIS TORRES DA SILVA RUA VEREADOR AURELINO MADER GONÇALVES   0000000000103663000000000346500 0000000000137047000000000000000000000000013704201903010000000000000000000000000000000000000000061350000000000000000000000000000000050000000000  0320190301   02BW        5000000               000000000000000                                               3C00000001                                                                 250                      00539 10024037        000054
11088351199000010GRACIELE APARECIDA ALVES DE OLRUA LUIZ SANCHES                        0000000010400368000023000095940 0000000000136969000000000000000000000000013696201903010000000000000000000000000000000000000000127500000000000000000000000000000000050000000000  0320190301   02BW        5000000               000000000000000                                               3C00000001                                                                 488                      00539 10024037        000055
11049741819000039RODRIGO WESLEY CHAGAS         RUA PROFESSORA POMPÍLIA L. DOS SANTOS   0000000034109713000000000098953 0000000000136992000000000000000000000000013699201903010000000000000000000000000000000000000000377525000000000000000000000000000000050000000000  0320190301   02BW        5000000               000000000000000                                               3C00000001                                                                 453                      00539 10024037        000056
11081035419000058ANDRESSA DE SOUZA DIAS        RUA SEBASTIANA LUSTOSA DE FREITAS       0000000010400581000013000036562 0000000000137007000000000000000000000000013700201903010000000000000000000000000000000000000000061350000000000000000000000000000000050000000000  0320190301   02BW        5000000               000000000000000                                               3C00000011                                                                 456                      00539 10024037        000057
11080528969000008AUGUSTO LUIS LOHN             RUA CHILDERICO BEVILAQUA                0000000034109313000000000442460 0000000000137008000000000000000000000000013700201903010000000000000000000000000000000000000000061350000000000000000000000000000000050000000000  0320190301   02BW        5000000               000000000000000                                               3C00000001                                                                 433                      00539 10024037        000058
11415147098000005BIANCA ASSUNCAO MARTINS       RUA ISAÍAS RÉGIS DE MIRANDA             0000000034100655000000000483055 0000000000137009000000000000000000000000013700201903010000000000000000000000000000000000000000061350000000000000000000000000000000050000000000  0320190301   02BW        5000000               000000000000000                                               3C00000001                                                                 458                      00539 10024037        000059
11085947069000052BIANCA DE LIMA                RUA PEDRO JACOB KLOCK                   0000000010400371000013000344222 0000000000137010000000000000000000000000013701201903010000000000000000000000000000000000000000061350000000000000000000000000000000050000000000  0320190301   02BW        5000000               000000000000000                                               3C00000011                                                                 503                      00539 10024037        000060
11054510629000000DEBORA DE QUADROS TABORDA     RUA JOSÉ COCCONI                        0000000003303335000000010965883 0000000000137011000000000000000000000000013701201903010000000000000000000000000000000000000000061350000000000000000000000000000000050000000000  0320190301   02BW        5000000               000000000000000                                               3C00000001                                                                 283                      00539 10024037        000061
11060070489000000DEISE MARA DE ANDRADE         AVENIDA FLORIANÓPOLIS                   0000000010400369000000000441677 0000000000137012000000000000000000000000013701201903010000000000000000000000000000000000000000061350000000000000000000000000000000050000000000  0320190301   02BW        5000000               000000000000000                                               3C00000011                                                                  20                      00539 10024037        000062
11301488108000029FABIANO DE BARROS GREJO       RUA TENENTE-CORONEL SERVANDO DE LOYOLA E0000000034108098000000000003133 0000000000137013000000000000000000000000013701201903010000000000000000000000000000000000000000061350000000000000000000000000000000050000000000  0320190301   02BW        5000000               000000000000000                                               3C00000001                                                                 368                      00539 10024037        000063
11077484099000043GLEICE KAROLINA ALVES         RUA CHANCELER LAURO MULLER              0000000003303731000000010410499 0000000000137014000000000000000000000000013701201903010000000000000000000000000000000000000000061350000000000000000000000000000000050000000000  0320190301   02BW        5000000               000000000000000                                               3C00000001                                                                 315                      00539 10024037        000064
11088351199000010GRACIELE APARECIDA ALVES DE OLRUA LUIZ SANCHES                        0000000010400368000023000095940 0000000000137015000000000000000000000000013701201903010000000000000000000000000000000000000000061350000000000000000000000000000000050000000000  0320190301   02BW        5000000               000000000000000                                               3C00000001                                                                 488                      00539 10024037        000065
11070538239000070MICHELLE COELHO               RUA AGENOR LINO DE OLIVEIRA             0000000003303908000000010772463 0000000000137034000000000000000000000000013703201903010000000000000000000000000000000000000000061350000000000000000000000000000000050000000000  0320190301   02BW        5000000               000000000000000                                               3C00000001                                                                 234                      00539 10024037        000066
11872007162000000PAULA SOARES                  RUA ANT NIO GONGOLA                     0000000003303114000000010848576 0000000000137035000000000000000000000000013703201903010000000000000000000000000000000000000000061350000000000000000000000000000000050000000000  0320190301   02BW        5000000               000000000000000                                               3C00000001                                                                 478                      00539 10024037        000067
11086008419000017RAISSA DIAS PEREIRA           RUA FOZ DO IGUAÇU                       0000000010403510000013000092315 0000000000137036000000000000000000000000013703201903010000000000000000000000000000000000000000061350000000000000000000000000000000050000000000  0320190301   02BW        5000000               000000000000000                                               3C00000011                                                                 467                      00539 10024037        000068
11052749459000037JOYCE DA COSTA                RUA DIONÍSIO ALVES FONTES               0000000010401266000013000296238 0000000000137023000000000000000000000000013702201903010000000000000000000000000000000000000000061350000000000000000000000000000000050000000000  0320190301   02BW        5000000               000000000000000                                               3C00000011                                                                 413                      00539 10024037        000069
11054860867000092JOYCE FIGUEIRO DOS SANTOS     RUA BRIGADEIRO FRANCO                   0000000034104895000000000168310 0000000000137024000000000000000000000000013702201903010000000000000000000000000000000000000000061350000000000000000000000000000000050000000000  0320190301   02BW        5000000               000000000000000                                               3C00000001                                                                 502                      00539 10024037        000070
11080592669000000JULIANA SALLES BERLIN         RUA MARIO ZANLORENZI                    0000000003304403000000010850038 0000000000137025000000000000000000000000013702201903010000000000000000000000000000000000000000061350000000000000000000000000000000050000000000  0320190301   02BW        5000000               000000000000000                                               3C00000001                                                                 365                      00539 10024037        000071
11063732819000014JULIO CEZAR MACIEL            RUA ARCESIO DE BARROS LIMA              0000000010402997000013000185883 0000000000137026000000000000000000000000013702201903010000000000000000000000000000000000000000061350000000000000000000000000000000050000000000  0320190301   02BW        5000000               000000000000000                                               3C00000011                                                                 501                      00539 10024037        000072
11067066189000093THAIS FABIANA BARBOSA ROBERTO RUA JOSE LOPES DOS SANTOS               0000000003303415000000010956107 0000000000137044000000000000000000000000013704201903010000000000000000000000000000000000000000061350000000000000000000000000000000050000000000  0320190301   02BW        5000000               000000000000000                                               3C00000001                                                                 402                      00539 10024037        000073
11072971589000025ROSANGELA APARECIDA DOS SANTOSRUA AUGUSTO DOMACOSKI                   0000000023705750900000001904531 0000000000136994000000000000000000000000013699201903010000000000000000000000000000000000000000107130000000000000000000000000000000050000000000  0120190301   02BW        5000000               000000000000000                                               3                                                                          475                      01321 10024037        000074
11060431139000070TIAGO LUIS GOEDERT            RUA RIO JAGUARIBE                       0000000034103858000000000707080 0000000000136999000000000000000000000000013699201903010000000000000000000000000000000000000000169418000000000000000000000000000000050000000000  0320190301   02BW        5000000               000000000000000                                               3C00000001                                                                 383                      00539 10024037        000075
11053021169000060VANDERLEIA DOS SANTOS         RUA JOÃO GRIBOGI                        0000000010401632000013000525570 0000000000137000000000000000000000000000013700201903010000000000000000000000000000000000000000225514000000000000000000000000000000050000000000  0320190301   02BW        5000000               000000000000000                                               3C00000011                                                                 470                      00539 10024037        000076
11095678299000000VINICIUS REIS TORRES DA SILVA RUA VEREADOR AURELINO MADER GONÇALVES   0000000000103663000000000346500 0000000000137001000000000000000000000000013700201903010000000000000000000000000000000000000000186937000000000000000000000000000000050000000000  0320190301   02BW        5000000               000000000000000                                               3C00000001                                                                 250                      00539 10024037        000077
11301488108000029FABIANO DE BARROS GREJO       RUA TENENTE-CORONEL SERVANDO DE LOYOLA E0000000034108098000000000003133 0000000000136967000000000000000000000000013696201903010000000000000000000000000000000000000000200669000000000000000000000000000000050000000000  0320190301   02BW        5000000               000000000000000                                               3C00000001                                                                 368                      00539 10024037        000078
11110912279000093ALINE SCHNEIDER STRAUBE MEDEIRRUA ISAÍAS RÉGIS DE MIRANDA             0000000010401282000013000725454 0000000000136957000000000000000000000000013695201903010000000000000000000000000000000000000000103000000000000000000000000000000000050000000000  0320190301   02BW        5000000               000000000000000                                               3C00000011                                                                 459                      00539 10024037        000079
11872007162000000PAULA SOARES                  RUA ANT NIO GONGOLA                     0000000003303114000000010848576 0000000000136989000000000000000000000000013698201903010000000000000000000000000000000000000000138031000000000000000000000000000000050000000000  0320190301   02BW        5000000               000000000000000                                               3C00000001                                                                 478                      00539 10024037        000080
11059898949000088ANA CAROLINA SOTTO MAIOR BOZZARUA ROUXINOL                            0000000034108931000000000013323 0000000000136958000000000000000000000000013695201903010000000000000000000000000000000000000000137431000000000000000000000000000000050000000000  0320190301   02BW        5000000               000000000000000                                               3C00000001                                                                 212                      00539 10024037        000081
11070538239000070MICHELLE COELHO               RUA AGENOR LINO DE OLIVEIRA             0000000003303908000000010772463 0000000000136988000000000000000000000000013698201903010000000000000000000000000000000000000000131351000000000000000000000000000000050000000000  0320190301   02BW        5000000               000000000000000                                               3C00000001                                                                 234                      00539 10024037        000082
11086008419000017RAISSA DIAS PEREIRA           RUA FOZ DO IGUAÇU                       0000000010403510000013000092315 0000000000136990000000000000000000000000013699201903010000000000000000000000000000000000000000109030000000000000000000000000000000050000000000  0320190301   02BW        5000000               000000000000000                                               3C00000011                                                                 467                      00539 10024037        000083
11010440129000000ISABELLE CALDAS MROCZEK       RUA JOSE PEREIRA DE ARAUJO              0000000034108616000000000277433 0000000000136971000000000000000000000000013697201903010000000000000000000000000000000000000000154600000000000000000000000000000000050000000000  0320190301   02BW        5000000               000000000000000                                               3C00000001                                                                 401                      00539 10024037        000084
11100334359000079JAYNE AMARAL DE JESUS         RUA RODOVIL LIODOR BRENNER              0000000034103721000000000507592 0000000000136972000000000000000000000000013697201903010000000000000000000000000000000000000000108500000000000000000000000000000000050000000000  0320190301   02BW        5000000               000000000000000                                               3C00000001                                                                 171                      00539 10024037        000085
11040002839000052JAYRIBE RODRIGO FREIRE DA SILVRUA ROLF FARIA GUGISCH                  0000000010400371000013000742597 0000000000136973000000000000000000000000013697201903010000000000000000000000000000000000000000181640000000000000000000000000000000050000000000  0320190301   02BW        5000000               000000000000000                                               3C00000011                                                                 263                      00539 10024037        000086
11118073987000065REGIO MENDES DE FREITAS       RUA CEREJEIRA                           0000000010402864000000013495048 0000000000136991000000000000000000000000013699201903010000000000000000000000000000000000000000107285000000000000000000000000000000050000000000  0320190301   02BW        5000000               000000000000000                                               3C00000011                                                                 498                      00539 10024037        000087
11040182849000026ROSANA MARTINS                RUA ENGENHEIRO FRANCISCO XAVIER DRIESEL 0000000034103721000000000489981 0000000000137039000000000000000000000000013703201903010000000000000000000000000000000000000000061350000000000000000000000000000000050000000000  0320190301   02BW        5000000               000000000000000                                               3C00000001                                                                   4                      00539 10024037        000088
11411550948000016JESSICA HELLEN DE OLIVEIRA FERRUA DIRCEU MONTANARIM                   0000000010403322000013000140822 0000000000137022000000000000000000000000013702201903010000000000000000000000000000000000000000061350000000000000000000000000000000050000000000  0320190301   02BW        5000000               000000000000000                                               3C00000011                                                                 495                      00539 10024037        000089
11083055739000031JENYFER CRISTINI LOURENO MARTIRUA SAO MATEUS                          0000000003304388000000010197511 0000000000136974000000000000000000000000013697201903010000000000000000000000000000000000000000069810000000000000000000000000000000050000000000  0320190301   02BW        5000000               000000000000000                                               3C00000001                                                                 499                      00539 10024037        000090
11072854909000038JESSICA ALVES JACON           RUA ANT NIO FRANCISCO BONATTO           0000000003300084000000010660991 0000000000136975000000000000000000000000013697201903010000000000000000000000000000000000000000231291000000000000000000000000000000050000000000  0320190301   02BW        5000000               000000000000000                                               3C00000001                                                                 423                      00539 10024037        000091
11411550948000016JESSICA HELLEN DE OLIVEIRA FERRUA DIRCEU MONTANARIM                   0000000010403322000013000140822 0000000000136976000000000000000000000000013697201903010000000000000000000000000000000000000000108500000000000000000000000000000000050000000000  0320190301   02BW        5000000               000000000000000                                               3C00000011                                                                 495                      00539 10024037        000092
11052749459000037JOYCE DA COSTA                RUA DIONÍSIO ALVES FONTES               0000000010401266000013000296238 0000000000136977000000000000000000000000013697201903010000000000000000000000000000000000000000266212000000000000000000000000000000050000000000  0320190301   02BW        5000000               000000000000000                                               3C00000011                                                                 413                      00539 10024037        000093
900009400000000010168036                                                                                                                                                                                                                                                                                                                                                                                                                                                                                      000094
