0001390362012244595000100ISPCN ADM DE COBRANCA DE TITUL          202000010000120190307221514             3                                                                                                                                                                                                                                                                                                                                                                                                    000001
12013565550000108ADEMIR GRATON                                                         0000000023701360900000000009822 0000000000138209000000000000000000000000013820201903070000000000000000000000000000000000000000259383000000000000000000000000000000050000000000  0120190307   02BW        5000000               000000000000000                                               3                                                                   9999951917                      01321 10032549        000002
12010302742000125AGV - CENTRO AUTOMOTIVO LTDA -                                        0000000023701449400000000489220 0000000000138210000000000000000000000000013821201903070000000000000000000000000000000000000001290882000000000000000000000000000000050000000000  0120190307   02BW        5000000               000000000000000                                               3                                                                   9999923153                      01321 10032549        000003
12013084235000150AJ PULCHERIO COMERCIO DE MOVEI                                        0000000023702253500000005227992 0000000000138211000000000000000000000000013821201903070000000000000000000000000000000000000000004405000000000000000000000000000000050000000000  0120190307   02BW        5000000               000000000000000                                               3                                                                   9999958753                      01321 10032549        000004
12095358966000101ARMAQ COMERCIO DE MAQUINAS LTD                                        0000000023703158500000000729655 0000000000138212000000000000000000000000013821201903070000000000000000000000000000000000000000052720000000000000000000000000000000050000000000  0120190307   02BW        5000000               000000000000000                                               3                                                                   9999958483                      01321 10032549        000005
12015360883000118AUTO FORTE SEGURADORA LTDA                                            0000000023703205000000004836146 0000000000138213000000000000000000000000013821201903070000000000000000000000000000000000000000076641000000000000000000000000000000050000000000  0120190307   02BW        5000000               000000000000000                                               3                                                                   9999960963                      01321 10032549        000006
12022730613000117GOMES & SORELLE ALIMENTOS LTDA                                        0000000023700450200000000081671 0000000000138214000000000000000000000000013821201903070000000000000000000000000000000000000000182824000000000000000000000000000000050000000000  0120190307   02BW        5000000               000000000000000                                               3                                                                   9999970267                      01321 10032549        000007
11090299379000080JAQUELINE GRAZIELI CARDOSO                                            0000000023705673100000000020427 0000000000138215000000000000000000000000013821201903070000000000000000000000000000000000000000028293000000000000000000000000000000050000000000  0120190307   02BW        5000000               000000000000000                                               3                                                                   9999971456                      01321 10032549        000008
11016217712000070LANA TAIS DA SILVA COELHO                                             0000000023705593000000000196983 0000000000138216000000000000000000000000013821201903070000000000000000000000000000000000000000150635000000000000000000000000000000050000000000  0120190307   02BW        5000000               000000000000000                                               3                                                                   9999964025                      01321 10032549        000009
12027262889000131LUCIANO TRIBUTINO DA SILVA - M                                        0000000023702069900000000169420 0000000000138217000000000000000000000000013821201903070000000000000000000000000000000000000000029975000000000000000000000000000000050000000000  0120190307   02BW        5000000               000000000000000                                               3                                                                   9999972944                      01321 10032549        000010
11053572479000094RAFAEL SLOMPO                                                         0000000023705908000000000011460 0000000000138218000000000000000000000000013821201903070000000000000000000000000000000000000000029463000000000000000000000000000000050000000000  0120190307   02BW        5000000               000000000000000                                               3                                                                   9999966438                      01321 10032549        000011
900001200000000002105221                                                                                                                                                                                                                                                                                                                                                                                                                                                                                      000012
