0001390362012244595000100ISPCN ADMINISTRACAO DE TITULOS          201000010000120190312111714             2                                                                                                                                                                                                                                                                                                                                                                                   000000001        000001
12010302742000125AGV - CENTRO AUTOMOTIVO LTDA -                                        0000000023701449400000000489220 0000000000138219000000000000000               201903120000000000000000000000000000000000000001416458000000000000000000000000000000050000000000  0120190312   01HA        0000000               000000000000000                                               3                                                                   9999923153                      00000 10032549        000002
12011314014000104ANDRE'S CAR MULTIMARCAS LTDA -                                        0000000023701449400000000518549 0000000000138220000000000000000               201903120000000000000000000000000000000000000000050253000000000000000000000000000000050000000000  0120190312   01HA        0000000               000000000000000                                               3                                                                   9999932733                      00000 10032549        000003
12015360883000118AUTO FORTE SEGURADORA LTDA                                            0000000023703205000000004836146 0000000000138221000000000000000               201903120000000000000000000000000000000000000000071703000000000000000000000000000000050000000000  0120190312   01HA        0000000               000000000000000                                               3                                                                   9999960963                      00000 10032549        000004
11457681539000034ELEONEL XAVIER DOS SANTOS                                             0000000023701281500000005004845 0000000000138222000000000000000               201903120000000000000000000000000000000000000000010803000000000000000000000000000000050000000000  0120190312   01HA        0000000               000000000000000                                               3                                                                   9999955687                      00000 10032549        000005
12007699881000120ELISABETH DE ALMEIDA - CONFECC                                        0000000023700923700000000249513 0000000000138223000000000000000               201903120000000000000000000000000000000000000000071797000000000000000000000000000000050000000000  0120190312   01HA        0000000               000000000000000                                               3                                                                   9999961611                      00000 10032549        000006
12025389425000165FORMULA 1 CENTRO AUTOMOTIVO LT                                        0000000023703131300000000166006 0000000000138224000000000000000               201903120000000000000000000000000000000000000000032413000000000000000000000000000000050000000000  0120190312   01HA        0000000               000000000000000                                               3                                                                   9999973292                      00000 10032549        000007
12022730613000117GOMES & SORELLE ALIMENTOS LTDA                                        0000000023700450200000000081671 0000000000138225000000000000000               201903120000000000000000000000000000000000000000067805000000000000000000000000000000050000000000  0120190312   01HA        0000000               000000000000000                                               3                                                                   9999970267                      00000 10032549        000008
12027707125000293IVANI A.DA COSTA QUEIROZ - ME                                         0000000023701226200000000235997 0000000000138226000000000000000               201903120000000000000000000000000000000000000000062195000000000000000000000000000000050000000000  0120190312   01HA        0000000               000000000000000                                               3                                                                   9999969992                      00000 10032549        000009
11090299379000080JAQUELINE GRAZIELI CARDOSO                                            0000000023705673100000000020427 0000000000138227000000000000000               201903120000000000000000000000000000000000000000186674000000000000000000000000000000050000000000  0120190312   01HA        0000000               000000000000000                                               3                                                                   9999971456                      00000 10032549        000010
12026315029000156JOEDSON DOS SANTOS SILVA - ELE                                        0000000023701616000000000075043 0000000000138228000000000000000               201903120000000000000000000000000000000000000000085488000000000000000000000000000000050000000000  0120190312   01HA        0000000               000000000000000                                               3                                                                   9999970888                      00000 10032549        000011
11016217712000070LANA TAIS DA SILVA COELHO                                             0000000023705593000000000196983 0000000000138229000000000000000               201903120000000000000000000000000000000000000000121139000000000000000000000000000000050000000000  0120190312   01HA        0000000               000000000000000                                               3                                                                   9999964025                      00000 10032549        000012
12005111970000269MATEUS FERREIRA - CRISTO REI                                          0000000023701205000000000017663 0000000000138230000000000000000               201903120000000000000000000000000000000000000000019120000000000000000000000000000000050000000000  0120190312   01HA        0000000               000000000000000                                               3                                                                   9999947396                      00000 10032549        000013
11620516873000015MILKA FRANCO SILVA AIRES                                              0000000023702218700000000180467 0000000000138231000000000000000               201903120000000000000000000000000000000000000000024481000000000000000000000000000000050000000000  0120190312   01HA        0000000               000000000000000                                               3                                                                   9999953793                      00000 10032549        000014
11711350143000053OZEAN MUNIZ DA PAIXAO                                                 0000000023700460000000000571504 0000000000138232000000000000000               201903120000000000000000000000000000000000000000054584000000000000000000000000000000050000000000  0120190312   01HA        0000000               000000000000000                                               3                                                                   9999953599                      00000 10032549        000015
11053572479000094RAFAEL SLOMPO                                                         0000000023705908000000000011460 0000000000138233000000000000000               201903120000000000000000000000000000000000000000119616000000000000000000000000000000050000000000  0120190312   01HA        0000000               000000000000000                                               3                                                                   9999966438                      00000 10032549        000016
12010902025000134UNIAO COMERCIAL MOVEIS E COLCH                                        0000000023702216000000000277258 0000000000138234000000000000000               201903120000000000000000000000000000000000000000018744000000000000000000000000000000050000000000  0120190312   01HA        0000000               000000000000000                                               3                                                                   9999949881                      00000 10032549        000017
900001800000000002413273                                                                                                                                                                                                                                                                                                                                                                                                                                                                                      000018
