0001390362012244595000100ISPCN ADM DE COBRANCA DE TITUL          202000010000120190320221506             3                                                                                                                                                                                                                                                                                                                                                                                                    000001
11123768578000080MARCILIO RODRIGUES DE OLIVEIRA                                        0000000023700929600000000242926 0000000000138342000000000000000000000000013834201903190000000000000000000000000000000000000000095579000000000000000000000000000000050000000000  0120190320   02BW        5000000               000000000000000                                               3                                                                   9999967690                      01321 10032549        000002
12010302742000125AGV - CENTRO AUTOMOTIVO LTDA -                                        0000000023701449400000000489220 0000000000138335000000000000000000000000013833201903190000000000000000000000000000000000000001517073000000000000000000000000000000050000000000  0120190320   02BW        5000000               000000000000000                                               3                                                                   9999923153                      01321 10032549        000003
12011314014000104ANDRE'S CAR MULTIMARCAS LTDA -                                        0000000023701449400000000518549 0000000000138336000000000000000000000000013833201903190000000000000000000000000000000000000000052400000000000000000000000000000000050000000000  0120190320   02BW        5000000               000000000000000                                               3                                                                   9999932733                      01321 10032549        000004
12095358966000101ARMAQ COMERCIO DE MAQUINAS LTD                                        0000000023703158500000000729655 0000000000138337000000000000000000000000013833201903190000000000000000000000000000000000000000061398000000000000000000000000000000050000000000  0120190320   02BW        5000000               000000000000000                                               3                                                                   9999958483                      01321 10032549        000005
12015360883000118AUTO FORTE SEGURADORA LTDA                                            0000000023703205000000004836146 0000000000138338000000000000000000000000013833201903190000000000000000000000000000000000000000046850000000000000000000000000000000050000000000  0120190320   02BW        5000000               000000000000000                                               3                                                                   9999960963                      01321 10032549        000006
12007699881000120ELISABETH DE ALMEIDA - CONFECC                                        0000000023700923700000000249513 0000000000138339000000000000000000000000013833201903190000000000000000000000000000000000000000022468000000000000000000000000000000050000000000  0120190320   02BW        5000000               000000000000000                                               3                                                                   9999961611                      01321 10032549        000007
12022730613000117GOMES & SORELLE ALIMENTOS LTDA                                        0000000023700450200000000081671 0000000000138340000000000000000000000000013834201903190000000000000000000000000000000000000000110548000000000000000000000000000000050000000000  0120190320   02BW        5000000               000000000000000                                               3                                                                   9999970267                      01321 10032549        000008
11016217712000070LANA TAIS DA SILVA COELHO                                             0000000023705593000000000196983 0000000000138341000000000000000000000000013834201903190000000000000000000000000000000000000000104360000000000000000000000000000000050000000000  0120190320   02BW        5000000               000000000000000                                               3                                                                   9999964025                      01321 10032549        000009
11620516873000015MILKA FRANCO SILVA AIRES                                              0000000023702218700000000180467 0000000000138343000000000000000000000000013834201903190000000000000000000000000000000000000000047525000000000000000000000000000000050000000000  0120190320   02BW        5000000               000000000000000                                               3                                                                   9999953793                      01321 10032549        000010
11047737889000076NAYANE SANDRI DE ALMEIDA DA SI                                        0000000023705693600000000209147 0000000000138344000000000000000000000000013834201903190000000000000000000000000000000000000000012434000000000000000000000000000000050000000000  0120190320   02BW        5000000               000000000000000                                               3                                                                   9999973028                      01321 10032549        000011
11711350143000053OZEAN MUNIZ DA PAIXAO                                                 0000000023700460000000000571504 0000000000138345000000000000000000000000013834201903190000000000000000000000000000000000000000096436000000000000000000000000000000050000000000  0120190320   02BW        5000000               000000000000000                                               3                                                                   9999953599                      01321 10032549        000012
11053572479000094RAFAEL SLOMPO                                                         0000000023705908000000000011460 0000000000138346000000000000000000000000013834201903190000000000000000000000000000000000000000073044000000000000000000000000000000050000000000  0120190320   02BW        5000000               000000000000000                                               3                                                                   9999966438                      01321 10032549        000013
12076969427000164TANIGUCHI MATERIAIS P CONSTRUC                                        0000000023700182100000000294349 0000000000138347000000000000000000000000013834201903190000000000000000000000000000000000000000158919000000000000000000000000000000050000000000  0120190320   02BW        5000000               000000000000000                                               3                                                                   9999922178                      01321 10032549        000014
12010902025000134UNIAO COMERCIAL MOVEIS E COLCH                                        0000000023702216000000000277258 0000000000138348000000000000000000000000013834201903190000000000000000000000000000000000000000059240000000000000000000000000000000050000000000  0120190320   02BW        5000000               000000000000000                                               3                                                                   9999949881                      01321 10032549        000015
900001600000000002458274                                                                                                                                                                                                                                                                                                                                                                                                                                                                                      000016
