0001390362012244595000100ISPCN ADMINISTRACAO DE TITULOS          201000010000120190327121748             2                                                                                                                                                                                                                                                                                                                                                                                   000000001        000001
12010302742000125AGV - CENTRO AUTOMOTIVO LTDA -                                        0000000023701449400000000489220 0000000000138435000000000000000               201903270000000000000000000000000000000000000001726385000000000000000000000000000000050000000000  0120190327   01HA        0000000               000000000000000                                               3                                                                   9999923153                      00000 10032549        000002
12011314014000104ANDRE'S CAR MULTIMARCAS LTDA -                                        0000000023701449400000000518549 0000000000138436000000000000000               201903270000000000000000000000000000000000000000015501000000000000000000000000000000050000000000  0120190327   01HA        0000000               000000000000000                                               3                                                                   9999932733                      00000 10032549        000003
12095358966000101ARMAQ COMERCIO DE MAQUINAS LTD                                        0000000023703158500000000729655 0000000000138437000000000000000               201903270000000000000000000000000000000000000000053212000000000000000000000000000000050000000000  0120190327   01HA        0000000               000000000000000                                               3                                                                   9999958483                      00000 10032549        000004
12015360883000118AUTO FORTE SEGURADORA LTDA                                            0000000023703205000000004836146 0000000000138438000000000000000               201903270000000000000000000000000000000000000000096277000000000000000000000000000000050000000000  0120190327   01HA        0000000               000000000000000                                               3                                                                   9999960963                      00000 10032549        000005
12023108907000174PANIFICADORA EDINEIA LTDA - ME                                        0000000023706021600000000034835 0000000000138439000000000000000               201903270000000000000000000000000000000000000000114523000000000000000000000000000000050000000000  0120190327   01HA        0000000               000000000000000                                               3                                                                   9999968185                      00000 10032549        000006
12022730613000117GOMES & SORELLE ALIMENTOS LTDA                                        0000000023700450200000000081671 0000000000138440000000000000000               201903270000000000000000000000000000000000000000048763000000000000000000000000000000050000000000  0120190327   01HA        0000000               000000000000000                                               3                                                                   9999970267                      00000 10032549        000007
11099210069000008GUILHERME DE CARVALHO BOABAID                                         0000000023702383300000000227617 0000000000138441000000000000000               201903270000000000000000000000000000000000000000013390000000000000000000000000000000050000000000  0120190327   01HA        0000000               000000000000000                                               3                                                                   9999971424                      00000 10032549        000008
11090299379000080JAQUELINE GRAZIELI CARDOSO                                            0000000023705673100000000020427 0000000000138442000000000000000               201903270000000000000000000000000000000000000000130400000000000000000000000000000000050000000000  0120190327   01HA        0000000               000000000000000                                               3                                                                   9999971456                      00000 10032549        000009
12026315029000156JOEDSON DOS SANTOS SILVA - ELE                                        0000000023701616000000000075043 0000000000138443000000000000000               201903270000000000000000000000000000000000000000038221000000000000000000000000000000050000000000  0120190327   01HA        0000000               000000000000000                                               3                                                                   9999970888                      00000 10032549        000010
11016217712000070LANA TAIS DA SILVA COELHO                                             0000000023705593000000000196983 0000000000138444000000000000000               201903270000000000000000000000000000000000000000025314000000000000000000000000000000050000000000  0120190327   01HA        0000000               000000000000000                                               3                                                                   9999964025                      00000 10032549        000011
11123768578000080MARCILIO RODRIGUES DE OLIVEIRA                                        0000000023700929600000000242926 0000000000138445000000000000000               201903270000000000000000000000000000000000000000035563000000000000000000000000000000050000000000  0120190327   01HA        0000000               000000000000000                                               3                                                                   9999967690                      00000 10032549        000012
11711350143000053OZEAN MUNIZ DA PAIXAO                                                 0000000023700460000000000571504 0000000000138446000000000000000               201903270000000000000000000000000000000000000000023158000000000000000000000000000000050000000000  0120190327   01HA        0000000               000000000000000                                               3                                                                   9999953599                      00000 10032549        000013
12024190273000104PAULO BOMRRUK MATERIAIS ELETRI                                        0000000023706021600000000030732 0000000000138447000000000000000               201903270000000000000000000000000000000000000000032972000000000000000000000000000000050000000000  0120190327   01HA        0000000               000000000000000                                               3                                                                   9999971634                      00000 10032549        000014
11053572479000094RAFAEL SLOMPO                                                         0000000023705908000000000011460 0000000000138448000000000000000               201903270000000000000000000000000000000000000000046960000000000000000000000000000000050000000000  0120190327   01HA        0000000               000000000000000                                               3                                                                   9999966438                      00000 10032549        000015
12010902025000134UNIAO COMERCIAL MOVEIS E COLCH                                        0000000023702216000000000277258 0000000000138449000000000000000               201903270000000000000000000000000000000000000000005600000000000000000000000000000000050000000000  0120190327   01HA        0000000               000000000000000                                               3                                                                   9999949881                      00000 10032549        000016
900001700000000002406239                                                                                                                                                                                                                                                                                                                                                                                                                                                                                      000017
