01REMESSA01COBRANCA       00000000000004852239ISPCN                         237BRADESCO       180319        MX0003053                                                                                                                                                                                                                                                                                     000001
100000 000000000000 00090345100325490REGTIT30531146642991     0002020000005920541500000000002N           2  01000592054115051900000000044950000000099N040818000000000000000030000000000000000000000000000000000000000000000100008316241919TAISE PATRICIA DA SILVA                 AVENIDA 15DE NOVEMBRO, 578 CENTRO OURIZO            87170000                                                            000002
100000 000000000000 00090345100325490REGTIT30531149119904     0002020000005984691700000000002N           2  01000598469116051900000000216670000000099N130219000000000000000140000000000000000000000000000000000000000000000100072082410234PEDRO PEREIRA  DA SILVA                 VICINAL 100, 10 ZONA RURAL  MEDICILANDIA            68145000                                                            000003
100000 000000000000 00090345100325490REGTIT30531163682730     0002020000005902581600000000002N           2  01000590258115051900000000072000000000099N080618000000000000000050000000000000000000000000000000000000000000000100001340765160ANELITA AMANCIO DE SOUZA                CLARICE LISPECTOR, 213 CLARICE LISPECTOR            79017390                                                            000004
100000 000000000000 00090345100325490REGTIT30531172087809     0002020000005966889P00000000002N           2  01000596688915051900000000153000000000099N131218000000000000000100000000000000000000000000000000000000000000000100042679778871SAMANTHA REBEQUI VIEIRA                 PROFETA ISAIAS, 394 JARDIM LAUDISSI SANT            13458080                                                            000005
100000 000000000000 00090345100325490REGTIT30531184663118     0002020000005908983000000000002N           2  02000590898319031900000000046970000000099N190618000000000000000030000000000000000000000000000000000000000000000100008867173960GESSICA ALINE CARUZO                    ARITA, 880 CASA CENTRO OURIZONA PR                  87170000                                                            000006
100000 000000000000 00090345100325490REGTIT30531187005394     0002020000005978458P00000000002N           2  01000597845815051900000000250000000000099N040219000000000000000170000000000000000000000000000000000000000000000100059836318968MIGUEL DA ROCHA                         LINDAURA RIBEIRO LUCAS, 38 CASA VILA MIL            83303212                                                            000007
100000 000000000000 00090345100325490REGTIT30531188030106     0002020000005987167900000000002N           2  01000598716715051900000000039250000000099N110319000000000000000030000000000000000000000000000000000000000000000100059914564968DOMINGAS BARBOSA SANTIAGO               BELA VISTA, 1603 CENTRO OURIZONA PR                 87170000                                                            000008
100000 000000000000 00090345100325490REGTIT30531219736354     0002020000005939802700000000002N           2  01000593980217051900000000350000000000099N280918000000000000000230000000000000000000000000000000000000000000000100043418815820ALESSANDRO PEREIRA CAMPOS               APOLOGOS ORIENTAIS, 5 B JARDIM DAS ROSAS            05893030                                                            000009
100000 000000000000 00090345100325490REGTIT30531253505237     0002020000005986994100000000002N           2  01000598699415051900000000310000000000099N090319000000000000000210000000000000000000000000000000000000000000000100037564791888TAINA KRYSIA G TEIXEIRA                 OSORIO DUQUE ESTRADA, 647 JD BATIGIM SBO            13450000                                                            000010
100000 000000000000 00090345100325490REGTIT30531275157559     0002020000005985030200000000002N           2  01000598503015051900000000138550000000099N150219000000000000000090000000000000000000000000000000000000000000000100022495827187JOARES GOMES MARQUES                    QR415  CONJ15  CASA, 38 ALUGUEL  NORTE S            72000000                                                            000011
100000 000000000000 00090345100325490REGTIT30531286559605     0002020000005939294000000000002N           2  01000593929415051900000000416670000000099N260918000000000000000280000000000000000000000000000000000000000000000100075389932234MARIA SUZETE DO NASCIMENTO LEITE        QUINZE DE AGOSTO, 1109 PONTA GROSSA (ICO            66812480                                                            000012
100000 000000000000 00090345100325490REGTIT30531317875521     0002020000005977640400000000002N           2  02000597764010031900000000056750000000099N280119000000000000000040000000000000000000000000000000000000000000000100045030779884ADRIANE PEREIRA DE SOUZA                RUA QUATRO, 102 JARDIM PAULISTA MONTE MO            13190000                                                            000013
100000 000000000000 00090345100325490REGTIT30531353039542     0002020000005977800800000000002N           2  01000597780015051900000000113330000000099N290119000000000000000080000000000000000000000000000000000000000000000100010285737821CLEONICE DE SOUZA                       LUIZ GONZAGA DO NASCIMENTO, 1487 PAULIST            13190000                                                            000014
100000 000000000000 00090345100325490REGTIT30531375553810     0002020000005987012500000000002N           2  01000598701215051900000000210000000000099N090319000000000000000140000000000000000000000000000000000000000000000100037564791888TAINA KRYSIA G TEIXEIRA                 OSORIO DUQUE ESTRADA, 647 JD BATIGIM SBO            13450000                                                            000015
100000 000000000000 00090345100325490REGTIT30531378174196     0002020000005992769000000000002N           2  01000599276915051900000000069000000000099N130319000000000000000050000000000000000000000000000000000000000000000100023843802149EDGAR CAMILO FERREIRA                   RUA AUTRAN DOURADO, 118 NUCLEO HABITACIO            79071292                                                            000016
100000 000000000000 00090345100325490REGTIT30531453441315     0002020000005919478200000000002N           2  01000591947815051900000000140000000000099N300718000000000000000090000000000000000000000000000000000000000000000100004522078862MAGDA BORGES DANTAS                     ERNESTO NAIDELICE, 1629 CONJUNTO HABITAC            13457158                                                            000017
100000 000000000000 00090345100325490REGTIT30531465439370     0002020000005966052P00000000002N           2  01000596605215051900000000550000000000099N081218000000000000000370000000000000000000000000000000000000000000000100022915542805MARCIA KEILA DOS SANTOS OLIVEIRA        ERVAL SECO, 134 JARDIM DA LUZ EMBU SP               06824240                                                            000018
100000 000000000000 00090345100325490REGTIT30531488999451     0002020000005978685P00000000002N           2  01000597868515051900000000125000000000099N060219000000000000000080000000000000000000000000000000000000000000000100097323098220ILMA DOS REIS GOMES                     ALAGOAS, 520A JUCARA IMPERATRIZ MA                  65919170                                                            000019
100000 000000000000 00090345100325490REGTIT30531495789703     0002020000005986474500000000002N           2  01000598647415051900000000410000000000099N020319000000000000000270000000000000000000000000000000000000000000000100005877904825OSMAR ALVES DE SOUZA                    DA ALEGRIA, 55 VISTA ALEGRE SBO SP                  13450000                                                            000020
100000 000000000000 00090345100325490REGTIT30531522920499     0002020000005987328000000000002N           2  01000598732815051900000000101000000000099N110319000000000000000070000000000000000000000000000000000000000000000100001683210093DAIANA AGUEIRO DE OLIVEIRA              RUA UCHOA, 390 JARDIM MORENAO CAMPO GRAN            79070450                                                            000021
100000 000000000000 00090345100325490REGTIT30531583749651     0002020000005993414P00000000002N           2  01000599341416041900000004000000000000099N160319000000000000002670000000000000000000000000000000000000000000000100046534904810DOUGLAS HENRIQUE SILVA DOS SANTOS       CAPITÃO VASCONCELOS, 304 JARDIM OLINDA S            05765180                                                            000022
100000 000000000000 00090345100325490REGTIT30531620086936     0002020000005993327500000000002N           2  01000599332716041900000002700000000000099N160319000000000000001800000000000000000000000000000000000000000000000100030493469818ISABEL DE JESUS DA SILVA                RUA JORGE AFONSO, 35 JARDIM MITSUTANI SÃ            05791010                                                            000023
100000 000000000000 00090345100325490REGTIT30531635456172     0002020000005993349600000000002N           2  01000599334916041900000001900000000000099N160319000000000000001270000000000000000000000000000000000000000000000100012780966807PLACEDINO FERREIRA DE OLIVEIRA          GASPAR COQUEIRO, 633 JARDIM PIRACUAMA SÃ            05763390                                                            000024
100000 000000000000 00090345100325490REGTIT30531683396423     0002020000005985099P00000000002N           2  01000598509916051900000000120000000000099N160219000000000000000080000000000000000000000000000000000000000000000100034808317885ESTEFANIA CRISTINA RODRIGUES SILVA      ARNALDO ORLANDO COVOLAN, 395 VILA RICA S            13453528                                                            000025
100000 000000000000 00090345100325490REGTIT30531683602192     0002020000005926169200000000002N           2  02000592616925031900000000140000000000099N100818000000000000000190000000000000000000000000000000000000000000000100080639445853EZEQUIEL UZIAS CESAR                    ESTRADA SERRA DO JAIRE, 100 CASA MONTE S            06685399                                                            000026
100000 000000000000 00090345100325490REGTIT30531729977155     0002020000005947920500000000002N           2  01000594792015051900000000135000000000099N181018000000000000000090000000000000000000000000000000000000000000000100070362981469ANDREY NASCIMENTO MARTINS               RUA AO LADO DA IGREJA, 11 TAPERA  PETROL            56300000                                                            000027
100000 000000000000 00090345100325490REGTIT30531744888313     0002020000005987453800000000002N           2  01000598745315051900000000069000000000099N110319000000000000000050000000000000000000000000000000000000000000000100066298580182CELSO SERAFIM PACHECO                   RUA ANA LUIZA DE SOUZA, 1389 SANTA BRANC            79070140                                                            000028
100000 000000000000 00090345100325490REGTIT30531764453384     0002020000005993365800000000002N           2  01000599336516041900000001000000000000099N160319000000000000000670000000000000000000000000000000000000000000000100001320821529ROBEILTON MATOS DOS SANTOS              -JOSE LOPES DIAS, 84 JD SAO LUIS SAO PAU            05813040                                                            000029
100000 000000000000 00090345100325490REGTIT30531769723275     0002020000005937884000000000002N           2  02000593788413031900000000095000000000099N180918000000000000000060000000000000000000000000000000000000000000000100002151906450MARIA DO SOCORRO NUNES LIMA             RUA DAS GARDENEAS, 35 DOM MALAN PETROLIN            56300000                                                            000030
100000 000000000000 00090345100325490REGTIT30531770935493     0002020000005902468200000000002N           2  01000590246815051900000000072000000000099N080618000000000000000050000000000000000000000000000000000000000000000100004007531110LUCIANA RODRIGUES DE PAULA              DELEGADO ALFREDO HARDMAN, 651 JARDIM PAU            79072445                                                            000031
100000 000000000000 00090345100325490REGTIT30531801043098     0002020000005987318300000000002N           2  01000598731815051900000000069000000000099N110319000000000000000050000000000000000000000000000000000000000000000100000460679147LEILA NERI DE SOUZA                     JOAQUIM ALVES PEREIRA, 1377 SANTA BRANCA            79070120                                                            000032
100000 000000000000 00090345100325490REGTIT30531822306911     0002020000005960278300000000002N           2  02000596027810031900000000238000000000099N041218000000000000000160000000000000000000000000000000000000000000000100092427243191FLAVIA ALVES DA SILVA                   QS 411 CONJ F LOTE 1|2 APT 606, 606 VILA            72000000                                                            000033
100000 000000000000 00090345100325490REGTIT30531842641830     0002020000005987473200000000002N           2  01000598747315051900000000069000000000099N110319000000000000000050000000000000000000000000000000000000000000000100003195888157CLAUDINEIA DA SILVA                     RUA FRANCISCO DOS ANJOS, 1100 CASA 2 PIO            79070190                                                            000034
100000 000000000000 00090345100325490REGTIT30531846153197     0002020000005967345100000000002N           2  01000596734515051900000000137000000000099N151218000000000000000090000000000000000000000000000000000000000000000100004184842950GEOVANE DA SILVEIRA                     FRANCISCO WARCHESKI, 214 TATUQUARA CURIT            81480060                                                            000035
100000 000000000000 00090345100325490REGTIT30531869908562     0002020000005993325900000000002N           2  01000599332516041900000004500000000000099N160319000000000000003000000000000000000000000000000000000000000000000100036620428860GUSTAVO DE FARIA MARQUES                BARBOSA DE FREITAS,, 436 PARQUE NOVO SAN            05874040                                                            000036
100000 000000000000 00090345100325490REGTIT30531893253255     0002020000005993420400000000002N           2  01000599342016041900000001166680000000099N160319000000000000000780000000000000000000000000000000000000000000000100023793147568ALAIDE PEREIRA DE CARVALHO              F RIBEIRO ALMEIDA,, 23 CAMPO LIMPO SAO P            05758110                                                            000037
100000 000000000000 00090345100325490REGTIT30531897820184     0002020000005901980800000000002N           2  01000590198015051900000000072000000000099N070618000000000000000050000000000000000000000000000000000000000000000100000551719150JEAN WESLEY GOMES DE ANDRADA            BICUIBA, 473 NOVA JERUSALEM CAMPO GRANDE            79065470                                                            000038
100000 000000000000 00090345100325490REGTIT30531932894127     0002020000005939361000000000002N           2  01000593936115051900000000140000000000099N270918000000000000000090000000000000000000000000000000000000000000000100028694988453BERNADETE DA CRUZ FERREIRA              RUA: CASTRO ALVES, 245 CENTRO  PETROLINA            56300000                                                            000039
100000 000000000000 00090345100325490REGTIT30531943262529     0002020000005968239600000000002N           2  01000596823915051900000000230000000000099N201218000000000000000150000000000000000000000000000000000000000000000100025347859822ELIANA NERES COSTA                      PARANAPANEMA, 360 JARDIM CAMPO LIMPO EMB            06826440                                                            000040
100000 000000000000 00090345100325490REGTIT30531954548027     0002020000005949615000000000002N           2  01000594961515051900000000305380000000099N291018000000000000000200000000000000000000000000000000000000000000000100003080441931MARIA ISABEL MOLINA CACHUCHI            EUCLIDES DA CUNHA, 559 CENTRO OURIZONA P            87170000                                                            000041
100000 000000000000 00090345100325490REGTIT30532024816634     0002020000005960439500000000002N           2  01000596043915051900000000128000000000099N051218000000000000000090000000000000000000000000000000000000000000000100044258801100MARIA CELMA  DE ALMEIDA GOMES           RUA GRALIA, 18 QD 19 RECANTO DOS PASSOS             78000000                                                            000042
100000 000000000000 00090345100325490REGTIT30532067128941     0002020000005993412300000000002N           2  01000599341216041900000003500000000000099N160319000000000000002330000000000000000000000000000000000000000000000100007693816852DIRCINHA DAMAS                          FRANCISCO DE LACERDA E ALMEIDA, 359 JARD            05797300                                                            000043
100000 000000000000 00090345100325490REGTIT30532081595932     0002020000005985735800000000002N           2  06000598573530031900000000195000000000099N220219000000000000000130000000000000000000000000000000000000000000000100003900475202TEREZA DOS SANTOS RAMOS                 RIO CARA-CARA, 00 CACHOEIRA DO ARARI MAR            68840000                                                            000044
100000 000000000000 00090345100325490REGTIT30532088374160     0002020000005950930900000000002N           2  01000595093016051900000000133340000000099N071118000000000000000090000000000000000000000000000000000000000000000100007337700458LEANDRO THOMAZ TELES                    RUA 19, 81 ALTO DO COCAR  PETROLINA  PE             00000000                                                            000045
100000 000000000000 00090345100325490REGTIT30532089044571     0002020000005987582800000000002N           2  01000598758215051900000000069000000000099N110319000000000000000050000000000000000000000000000000000000000000000100023666064191BENEDITA PARDIM DE OLIVEIRA             DIVINO FONSECA, 75 CASA JARDIM ANAPOLIS             79070380                                                            000046
100000 000000000000 00090345100325490REGTIT30532090977347     0002020000005902819P00000000002N           2  02000590281915031900000000072000000000099N090618000000000000000050000000000000000000000000000000000000000000000100006820582110BIANCA MARIA DE MELO                    TAMBAQUI, 14 JARDIM CENTRO OESTE CAMPO G            79073152                                                            000047
100000 000000000000 00090345100325490REGTIT30532090977347     0002020000005902821100000000002N           2  01000590282115051900000000072000000000099N090618000000000000000050000000000000000000000000000000000000000000000100006820582110BIANCA MARIA DE MELO                    TAMBAQUI, 14 JARDIM CENTRO OESTE CAMPO G            79073152                                                            000048
100000 000000000000 00090345100325490REGTIT30532091296625     0002020000005927998200000000002N           2  02000592799817031900000000250000000000099N210818000000000000000330000000000000000000000000000000000000000000000100040658955888CLEBER SILVA PRADO                      DOUTOR JOSE ALEXANDRE CROSGNAC, 02 CASA             06680035                                                            000049
100000 000000000000 00090345100325490REGTIT30532091296625     0002020000005928000P00000000002N           2  01000592800017051900000000250000000000099N210818000000000000000330000000000000000000000000000000000000000000000100040658955888CLEBER SILVA PRADO                      DOUTOR JOSE ALEXANDRE CROSGNAC, 02 CASA             06680035                                                            000050
100000 000000000000 00090345100325490REGTIT30532095410968     0002020000005987531300000000002N           2  01000598753115051900000000069000000000099N110319000000000000000050000000000000000000000000000000000000000000000100001320251161MARCILENE NANTES                        RUA JOAQUIM BARBOSA DE SOUZA, 285 JARDIM            79070226                                                            000051
100000 000000000000 00090345100325490REGTIT30532102444635     0002020000005987379500000000002N           2  01000598737915051900000000077000000000099N110319000000000000000050000000000000000000000000000000000000000000000100000175568138MARCELO FERREIRA CALIXTO                DONA DEOLINDA PEREIRA SOUZA, 1551 SANTA             79070130                                                            000052
100000 000000000000 00090345100325490REGTIT30532116545637     0002020000005976094P00000000002N           2  01000597609415051900000000251950000000099N170119000000000000000170000000000000000000000000000000000000000000000100037248489867PRISCILA BENTO JORDÃO DA SILVA          PROFESSOR WLADIMIR BESNARD, 23 CASA 03 V            04952100                                                            000053
100000 000000000000 00090345100325490REGTIT30532119869858     0002020000005960422000000000002N           2  01000596042215051900000000078000000000099N051218000000000000000050000000000000000000000000000000000000000000000100051309068100FRANCISVAL SOARES DE LIMA               PROJETADA B, 71 CASA ALTOS DA BELA VISTA            78000000                                                            000054
100000 000000000000 00090345100325490REGTIT30532159130457     0002020000005957807600000000002N           2  01000595780715051900000000186100000000099N201118000000000000000120000000000000000000000000000000000000000000000100026578352104JOSELINA CARDOSO                        QR 615 CONJ 02 CASA 12, 12 SAMAMBAIA NOR            72331800                                                            000055
100000 000000000000 00090345100325490REGTIT30532217897631     0002020000005987562300000000002N           2  01000598756215051900000000069000000000099N110319000000000000000050000000000000000000000000000000000000000000000100048046647187NEIDE MARINA MIGUEL                     RUA BARAO DE LIMEIRA, 1981 PIONEIROS CAM            79070150                                                            000056
100000 000000000000 00090345100325490REGTIT30532245109383     0002020000005940840500000000002N           2  01000594084015051900000000250000000000099N041018000000000000000170000000000000000000000000000000000000000000000100001424062608SCARLET MIRANDA AGUIAR GENEROSO         INACIO PIRES DE MORAES, 431 CENTRO EMBU-            06900000                                                            000057
100000 000000000000 00090345100325490REGTIT30532254886502     0002020000005901940900000000002N           2  01000590194015051900000000072000000000099N070618000000000000000050000000000000000000000000000000000000000000000100004772690107SILVANA SILVA DOS SANTOS                MONTEVIDEO, 256  PIRATININGA CAMPO GRAND            79081220                                                            000058
100000 000000000000 00090345100325490REGTIT30532258713220     0002020000005978985900000000002N           2  01000597898515051900000000188330000000099N070219000000000000000130000000000000000000000000000000000000000000000100061853712272CLAUDIA SENA REIS                       TRAVESSA N5, 397 A CAMPINA DE ICOARACI B            66813750                                                            000059
100000 000000000000 00090345100325490REGTIT30532278011689     0002020000005956687600000000002N           2  01000595668715051900000000196100000000099N121118000000000000000130000000000000000000000000000000000000000000000100006325511433VIVIAN SUELE AQUINO DAMASCENO SILVA     RUA CREMILDA GOMES DA SILVA, 368 JARDIM             56300000                                                            000060
100000 000000000000 00090345100325490REGTIT30532368227508     0002020000005987046P00000000002N           2  01000598704615051900000000500000000000099N090319000000000000000330000000000000000000000000000000000000000000000100007395061888NELSON EVANGELISTA DOS SANTOS           JOSE BUENO, 118 JARDIM SANTS MORITZ TABO            06787510                                                            000061
100000 000000000000 00090345100325490REGTIT30532382517303     0002020000005993402600000000002N           2  01000599340216041900000001210670000000099N160319000000000000000810000000000000000000000000000000000000000000000100094896003853GILBERTO DOS SANTOS                     ISABEL SORIA MAINARDES, 233 JARDIM MARIA            06787110                                                            000062
100000 000000000000 00090345100325490REGTIT30532413517600     0002020000005926956100000000002N           2  01000592695615051900000000079000000000099N150818000000000000000050000000000000000000000000000000000000000000000100035500175882JULIANA DE MELLO                        SÃO GONÇALO, 40 BL. F SÃO MANUEL SANTA B            13472290                                                            000063
100000 000000000000 00090345100325490REGTIT30532447621677     0002020000005993369000000000002N           2  01000599336916041900000002000000000000099N160319000000000000001330000000000000000000000000000000000000000000000100086244344596SERGIO AUGUSTO PEREIRA                  ABARÉ, 45 JARDIM PIATÃ A MOGI DAS CRUZES            08774060                                                            000064
100000 000000000000 00090345100325490REGTIT30532456922858     0002020000005992756900000000002N           2  01000599275615051900000000139700000000099N130319000000000000000090000000000000000000000000000000000000000000000100096056959953MARCIA ELIANE MULATI NASRALLAH          BELA VISTA, 997 CENTRO OURIZONA PR                  87170000                                                            000065
100000 000000000000 00090345100325490REGTIT30532457793992     0002020000005978733300000000002N           2  01000597873315051900000000100000000000099N060219000000000000000070000000000000000000000000000000000000000000000100035549521253SEVERINA MACIEL COSTA                   ALAGOAS, 520A JUCARA IMPERATRIZ MA                  65919170                                                            000066
100000 000000000000 00090345100325490REGTIT30532515365427     0002020000005993317800000000002N           2  01000599331716041900000001350000000000099N160319000000000000000900000000000000000000000000000000000000000000000100039499335811LUCAS BORGES                            CLARA MUCHINI COSTA, 902 JARDIM SAPORITO            06783030                                                            000067
100000 000000000000 00090345100325490REGTIT30532545251945     0002020000005977319700000000002N           2  01000597731915051900000000075000000000099N240119000000000000000130000000000000000000000000000000000000000000000100006166316933BRUNO FELIPE FABRICIO ALVES FIGUEIRA    JUPITER, 28 SITIO CERCADO CURITIBA PR               81910310                                                            000068
100000 000000000000 00090345100325490REGTIT30532563638062     0002020000005918590200000000002N           2  01000591859015051900000000560000000000099N230718000000000000000370000000000000000000000000000000000000000000000100002164690826CARLOS ALBERTO MOREIRA NIZ              OLIMPIO PINTO DE OLIVEIRA, 101 VILA BOLD            13450000                                                            000069
100000 000000000000 00090345100325490REGTIT30532583035876     0002020000005993331300000000002N           2  01000599333116041900000002000000000000099N160319000000000000001330000000000000000000000000000000000000000000000100016623865837JOSE SOUZA SILVA                        ALBERTO BUENO NETO, 678 JARDIM PARIS SAO            05761400                                                            000070
100000 000000000000 00090345100325490REGTIT30532589605802     0002020000005977448700000000002N           2  01000597744815051900000000220000000000099N250119000000000000000150000000000000000000000000000000000000000000000100059836318968MIGUEL DA ROCHA                         LINDAURA RIBEIRO LUCAS, 38 CASA VILA MIL            83303212                                                            000071
100000 000000000000 00090345100325490REGTIT30532597204935     0002020000005967939500000000002N           2  01000596793915051900000000150000000000099N191218000000000000000100000000000000000000000000000000000000000000000100017761722803MARIA ELENA M SILVA PINTO               SARGENTO ANDRADE, 57 JARDIM RESIDENCIAL             13456050                                                            000072
100000 000000000000 00090345100325490REGTIT30532621554835     0002020000005993335600000000002N           2  01000599333516041900000001360000000000099N160319000000000000000910000000000000000000000000000000000000000000000100028328905809DIANA GONCALVES BRITO                   ATUCUPE, 275 JARDIM LEÔNIDAS MOREIRA SÃO            05792050                                                            000073
100000 000000000000 00090345100325490REGTIT30532629620726     0002020000005937815800000000002N           2  01000593781515051900000000229000000000099N170918000000000000000150000000000000000000000000000000000000000000000100000960945911VALDELICE ARCELINO DOS SANTOS           MARIO SANTOS, 111 PLANTA QUISSISSANA SAO            83085285                                                            000074
100000 000000000000 00090345100325490REGTIT30532658169294     0002020000005958715600000000002N           2  01000595871515051900000000110000000000099N261118000000000000000070000000000000000000000000000000000000000000000100002974869262JULIANA PAIXÃO DA CUNHA                 ALAGOAS, 520A JUCARA IMPERATRIZ MA                  65919170                                                            000075
100000 000000000000 00090345100325490REGTIT30532688078010     0002020000005902386400000000002N           2  01000590238615051900000000072000000000099N080618000000000000000050000000000000000000000000000000000000000000000100046473700110DJAMIRO CRUZ                            JESUINO ALVARES DE BARROS, 1547 VISTA AL            79180000                                                            000076
100000 000000000000 00090345100325490REGTIT30532693125005     0002020000005947506400000000002N           2  01000594750615051900000000249000000000099N161018000000000000000170000000000000000000000000000000000000000000000100004065444845JULIO CEZAR PESSOA                      PIRIPA, 22 PARQUE CISPER SÃO PAULO SP               03818190                                                            000077
100000 000000000000 00090345100325490REGTIT30532693665929     0002020000005902548400000000002N           2  01000590254815051900000000072000000000099N080618000000000000000050000000000000000000000000000000000000000000000100000109545117PRISCILA SUARES FIDELES                 ANDORINHA DA AUSTRIA, 465 JARDIM NOROEST            79045231                                                            000078
100000 000000000000 00090345100325490REGTIT30532705322901     0002020000005911037600000000002N           2  01000591103715051900000000129000000000099N040718000000000000000090000000000000000000000000000000000000000000000100048253844808PRISCILA SARA LINA PERAL                RUA A, 2185 BEIRA RIO SANTA BARBARA DOES            13450970                                                            000079
100000 000000000000 00090345100325490REGTIT30532708105291     0002020000005985020500000000002N           2  02000598502015031900000000100000000000099N150219000000000000000070000000000000000000000000000000000000000000000100001693523230PERCIO TEIXEIRA DE OLIVEIRA NETO        ALAMEDA SÃO JOÃO, 34 RUA 8 DE MAIO AGULH            66813020                                                            000080
100000 000000000000 00090345100325490REGTIT30532726016458     0002020000005927075600000000002N           2  02000592707508031900000000100000000000099N160818000000000000000070000000000000000000000000000000000000000000000100071619542153EVANETE MARIA DIAS                      AV: ANTONIO ESTEVAO DOS SANTOS, 633 B JO            56300000                                                            000081
100000 000000000000 00090345100325490REGTIT30532732235735     0002020000005993371200000000002N           2  01000599337116041900000001500000000000099N160319000000000000001000000000000000000000000000000000000000000000000100022563888832JEFERSON FERREIRA MACEDO                DEZENOVE DE FEVEREIRO, 854 JARDIM IRACEM            06770095                                                            000082
100000 000000000000 00090345100325490REGTIT30532734874958     0002020000005966606400000000002N           2  01000596660615051900000000059430000000099N111218000000000000000040000000000000000000000000000000000000000000000100008316241919TAISE PATRICIA DA SILVA                 AVENIDA 15DE NOVEMBRO, 578 CENTRO OURIZO            87170000                                                            000083
100000 000000000000 00090345100325490REGTIT30532748650047     0002020000005993376300000000002N           2  01000599337616041900000000399000000000099N160319000000000000000270000000000000000000000000000000000000000000000100031643201832JOSÉ LUIS DOS SANTOS                    DOUTOR CICERO VIEIRA, 104 JARDIM MARIA S            05790220                                                            000084
100000 000000000000 00090345100325490REGTIT30532748650047     0002020000005993377100000000002N           2  01000599337716051900000000399000000000099N160319000000000000000270000000000000000000000000000000000000000000000100031643201832JOSÉ LUIS DOS SANTOS                    DOUTOR CICERO VIEIRA, 104 JARDIM MARIA S            05790220                                                            000085
100000 000000000000 00090345100325490REGTIT30532808352518     0002020000005984301200000000002N           2  01000598430117051900000000150000000000099N120219000000000000000100000000000000000000000000000000000000000000000100099450437220MAKELE DOS SANTOS PEDRAL                AGROVILA NOVA FRONTEIRA, S|N KM 80 MEDIC            68145000                                                            000086
100000 000000000000 00090345100325490REGTIT30532808588730     0002020000005985164300000000002N           2  02000598516416031900000000038950000000099N160219000000000000000030000000000000000000000000000000000000000000000100007894933902JAQUELINE MARQUESETTI                   PIONEIROS, 42 CENTRO OURIZONA PR                    87170000                                                            000087
100000 000000000000 00090345100325490REGTIT30532808588730     0002020000005985166P00000000002N           2  01000598516616051900000000038950000000099N160219000000000000000030000000000000000000000000000000000000000000000100007894933902JAQUELINE MARQUESETTI                   PIONEIROS, 42 CENTRO OURIZONA PR                    87170000                                                            000088
100000 000000000000 00090345100325490REGTIT30532832592986     0002020000005967731700000000002N           2  01000596773116051900000000080000000000099N181218000000000000000130000000000000000000000000000000000000000000000100000523027923CLAUDEMIR DOS SANTOS                    JOSE AIRTON CORDEIRO DE LIMA, 157 JARDIM            83050126                                                            000089
100000 000000000000 00090345100325490REGTIT30532843714095     0002020000005993424700000000002N           2  01000599342416041900000000725010000000099N160319000000000000000480000000000000000000000000000000000000000000000100026772886801ANAPAULA GUERRA SAMPAIO                 LUIZ QUEIRÓZ, 174 JARDIM SCÂNDIA TABOÃO             06785040                                                            000090
100000 000000000000 00090345100325490REGTIT30532871154567     0002020000005987292600000000002N           2  01000598729215051900000000069000000000099N110319000000000000000050000000000000000000000000000000000000000000000100003381345141NADIA NANCY ROMERO LOPES                RUA PLINIO BITENCOURT, 295 JARDIM BOTANI            79070454                                                            000091
100000 000000000000 00090345100325490REGTIT30532921157938     0002020000005977726500000000002N           2  01000597772615051900000000072380000000099N290119000000000000000050000000000000000000000000000000000000000000000100096056959953MARCIA ELIANE MULATI NASRALLAH          BELA VISTA, 997 CENTRO OURIZONA PR                  87170000                                                            000092
100000 000000000000 00090345100325490REGTIT30532922526738     0002020000005993353400000000002N           2  01000599335310041900000000335000000000099N160319000000000000000220000000000000000000000000000000000000000000000100008457934899DANIEL MACHADO                          SUMARE - AP 11, 65 PARQUE UNIVERSITARIO             13467696                                                            000093
100000 000000000000 00090345100325490REGTIT30532922526738     0002020000005993354200000000002N           2  01000599335410051900000000335000000000099N160319000000000000000220000000000000000000000000000000000000000000000100008457934899DANIEL MACHADO                          SUMARE - AP 11, 65 PARQUE UNIVERSITARIO             13467696                                                            000094
100000 000000000000 00090345100325490REGTIT30532926461146     0002020000005958635400000000002N           2  01000595863515051900000000210000000000099N241118000000000000000280000000000000000000000000000000000000000000000100037430669808ADALTO APARECIDO GONÇALVES CEZAR        DO GONÇALO, 115 CASA 03 MONTE SERRAT IAT            06675300                                                            000095
100000 000000000000 00090345100325490REGTIT30532951501127     0002020000005919880P00000000002N           2  01000591988015051900000000450000000000099N010818000000000000000150000000000000000000000000000000000000000000000100003449715976CASTURINA RIBEIRO DE SOUZA              JOAO MARIA DJAZI, 177 BORDA DO CAMPO SAO            83075290                                                            000096
100000 000000000000 00090345100325490REGTIT30532966015744     0002020000005968314700000000002N           2  02000596831420031900000000239000000000099N211218000000000000000160000000000000000000000000000000000000000000000100001535189363ADRIANA BENTO MARTINS                   QUADRA 13 LOTE, 04 CS 04 MANSSOES POR DO            72915475                                                            000097
100000 000000000000 00090345100325490REGTIT30533010605316     0002020000005987099000000000002N           2  01000598709915051900000000045300000000099N090319000000000000000030000000000000000000000000000000000000000000000100008316241919TAISE PATRICIA DA SILVA                 AVENIDA 15DE NOVEMBRO, 578 CENTRO OURIZO            87170000                                                            000098
100000 000000000000 00090345100325490REGTIT30533011789048     0002020000005967323000000000002N           2  01000596732315051900000000052380000000099N151218000000000000000030000000000000000000000000000000000000000000000100001779124996LEILA DINIZ DOS SANTOS                  BELA VISTA,  CENTRO OURIZONA PR                     87170000                                                            000099
100000 000000000000 00090345100325490REGTIT30533027963418     0002020000005993393300000000002N           2  01000599339310041900000000348330000000099N160319000000000000000230000000000000000000000000000000000000000000000100093984642334RAIMUNDA PEREIRA SOUSA                  QUADRA 88 CONJ. A LOTE, 11 CS 18 COND SA            72925230                                                            000100
100000 000000000000 00090345100325490REGTIT30533027963418     0002020000005993394100000000002N           2  01000599339410051900000000348330000000099N160319000000000000000230000000000000000000000000000000000000000000000100093984642334RAIMUNDA PEREIRA SOUSA                  QUADRA 88 CONJ. A LOTE, 11 CS 18 COND SA            72925230                                                            000101
100000 000000000000 00090345100325490REGTIT30533036144355     0002020000005978611600000000002N           2  01000597861115051900000000300000000000099N050219000000000000000200000000000000000000000000000000000000000000000100040634374850RENDERSON FELLIPE DOS SANTOS            COTIA, 114 PARQUE DAS CHACARAS EMBU SP              06825070                                                            000102
100000 000000000000 00090345100325490REGTIT30533052051203     0002020000005968432100000000002N           2  01000596843215051900000000034690000000099N221218000000000000000020000000000000000000000000000000000000000000000100011815988932RAPHAELA DOS SANTOS CAVICHIO            CAMPO GRANDE, 1131 CENTRO OURIZONA PR               87170000                                                            000103
100000 000000000000 00090345100325490REGTIT30533067878066     0002020000005986492300000000002N           2  01000598649215051900000000100000000000099N020319000000000000000070000000000000000000000000000000000000000000000100004313764259ELISANGELA CARNEIRO DOS SANTOS          NINA, 13 MARAMBAIA BELEM  PA                        66010010                                                            000104
100000 000000000000 00090345100325490REGTIT30533106220496     0002020000005969034800000000002N           2  02000596903408031900000000176000000000099N281218000000000000000120000000000000000000000000000000000000000000000100000435613146MARIA DA CONCEIÇÃO OLIVEIRA DA SILVA    1029 CONJUNTO 2, 02 SAMAMBAIA NORTE SAMA            72339002                                                            000105
100000 000000000000 00090345100325490REGTIT30533123752218     0002020000005948076900000000002N           2  01000594807615051900000000133000000000099N191018000000000000000090000000000000000000000000000000000000000000000100071999949234ANA CELIA DE ALMEIDA RODRIGUES          RAIMUNDO PAULO, 2196 SAO LOURENCO ABAETE            68440000                                                            000106
100000 000000000000 00090345100325490REGTIT30533158091410     0002020000005926570100000000002N           2  01000592657015051900000000081600000000099N140818000000000000000050000000000000000000000000000000000000000000000100003952373192CLAUDIELLE RAMOS DE PEREIRA             DAS BANDEIRAS, 3700 CASA 6 JARDIM NHANHA            79081310                                                            000107
100000 000000000000 00090345100325490REGTIT30533174939060     0002020000005967721P00000000002N           2  01000596772116051900000000080000000000099N181218000000000000000130000000000000000000000000000000000000000000000100006010923921GIMENES DA SILVA NUNES                  SUECIA, 549 CASA 2 NACOES FAZENDA RIO GR            83823190                                                            000108
100000 000000000000 00090345100325490REGTIT30533181891089     0002020000005985293300000000002N           2  01000598529315051900000000247000000000099N180219000000000000000160000000000000000000000000000000000000000000000100021626066825SANDRA REGINA PIRES                     INAJA, 820 CASA PINHEIRINHO CURITIBA PR             81020490                                                            000109
100000 000000000000 00090345100325490REGTIT30533231462674     0002020000005993432800000000002N           2  01000599343216041900000000046630000000099N160319000000000000000030000000000000000000000000000000000000000000000100097167487953MARCELENE DE OLIVEIRA PEDRO             BELA VISTA, 00 CENTRO OURIZONA PR                   87170000                                                            000110
100000 000000000000 00090345100325490REGTIT30533231462674     0002020000005993433600000000002N           2  01000599343316051900000000046630000000099N160319000000000000000030000000000000000000000000000000000000000000000100097167487953MARCELENE DE OLIVEIRA PEDRO             BELA VISTA, 00 CENTRO OURIZONA PR                   87170000                                                            000111
100000 000000000000 00090345100325490REGTIT30533242628723     0002020000005966619600000000002N           2  02000596661911031900000000059270000000099N111218000000000000000040000000000000000000000000000000000000000000000100008778073960ADAILTON DO NASCIMENTO MENEZES          PIONEIRO MIGUEL ELVIRA, 13 CONJ AMADO OU            87170000                                                            000112
100000 000000000000 00090345100325490REGTIT30533347554662     0002020000005985016700000000002N           2  01000598501615051900000000400000000000099N150219000000000000000270000000000000000000000000000000000000000000000100013377043004ANTONIO CARLOS GOMES ZANONI             LIBERDADE, 1487 SANTA ISABEL VIAMAO RS              94480500                                                            000113
100000 000000000000 00090345100325490REGTIT30533364612489     0002020000005986637300000000002N           2  01000598663715051900000000281000000000099N060319000000000000000190000000000000000000000000000000000000000000000100008104134930LARISSA LORRANE LOPES DE FARIA          ARAXA, 541 CENTRO OURIZONA PR                       87170000                                                            000114
100000 000000000000 00090345100325490REGTIT30533396741830     0002020000005985027200000000002N           2  01000598502717051900000000175000000000099N150219000000000000000120000000000000000000000000000000000000000000000100003628796210A CAMILA DA CUNHA BARBOSA               TUPINANBAS, 352 NOVO HORIZONTE VILA DOS             68447000                                                            000115
100000 000000000000 00090345100325490REGTIT30533406301939     0002020000005984915000000000002N           2  01000598491515051900000000172500000000099N150219000000000000000120000000000000000000000000000000000000000000000100092427243191FLAVIA ALVES DA SILVA                   QS 411 CONJ F LOTE 1|2 APT 606, 606 VILA            72000000                                                            000116
100000 000000000000 00090345100325490REGTIT30533427096911     0002020000005832875000000000002N           2  01000583287515051900000000200000000000099N021217000000000000000130000000000000000000000000000000000000000000000100003064240889IZABEL CASO RODRIGUES DA SILVA          THOMAZ DE ARAUJO, 535 CASA 03 JARDIM HEL            05794380                                                            000117
100000 000000000000 00090345100325490REGTIT30533443000250     0002020000005987511900000000002N           2  01000598751115051900000000069000000000099N110319000000000000000050000000000000000000000000000000000000000000000100002126970132VANESSA KELLY COSTA DE PAULA            RUA GASPAR DE LEMOS, 431 PIONEIROS CAMPO            79070220                                                            000118
100000 000000000000 00090345100325490REGTIT30533498921443     0002020000005967529200000000002N           2  01000596752916051900000000080000000000099N171218000000000000000130000000000000000000000000000000000000000000000100006572733920FLAVIANE DE CASSIA DE SOUZA M.          EMERSON GREBOGE, 694 CASA COLONIA MURICI            83085480                                                            000119
100000 000000000000 00090345100325490REGTIT30533526269731     0002020000005975436200000000002N           2  02000597543614031900000000064650000000099N140119000000000000000040000000000000000000000000000000000000000000000100002000716962MARIA VICENTE BARBOSA                   QUADRA 2 LOTE 13, LOTE13 BAIXADA DA AREI            87170000                                                            000120
100000 000000000000 00090345100325490REGTIT30533544349119     0002020000005984944400000000002N           2  01000598494415051900000000378000000000099N150219000000000000000250000000000000000000000000000000000000000000000100070672768534DALVIENE RODRIGUES DE SOUZA             FELIX JOSE CARDOSO, 0 CENTRO SAO DESIDER            47820000                                                            000121
100000 000000000000 00090345100325490REGTIT30533563272063     0002020000005916629000000000002N           2  01000591662916051900000000190000000000099N110718000000000000000130000000000000000000000000000000000000000000000100035127604817ALINE DO NASCIMENTO                     SÃO PAULO, 1600 FUNDOS CIDADE NOVA SANTA            13450000                                                            000122
100000 000000000000 00090345100325490REGTIT30533588976706     0002020000005992873500000000002N           2  01000599287315051900000000270000000000099N140319000000000000000180000000000000000000000000000000000000000000000100024684090272ANA DAS GRAÇAS SOARES GOMES             MEDEIROS, 2 CRUZEIRO (ICOARACI) BELEM PA            66810660                                                            000123
100000 000000000000 00090345100325490REGTIT30533618821538     0002020000005926413600000000002N           2  01000592641315051900000000105000000000099N130818000000000000000070000000000000000000000000000000000000000000000100027629426836TEREZA BERNADETE G. SILVA               ERNESTO NAIDELICE, 1857 SANTA RITA SANTA            13450000                                                            000124
100000 000000000000 00090345100325490REGTIT30533666110481     0002020000005920579200000000002N           2  01000592057915051900000000240000000000099N060818000000000000000160000000000000000000000000000000000000000000000100028830341843DANIELA SOARES DA SILVA                 PADRE ANCHIETA, 364 VILA SIQUEIRA CAMPOS            13451036                                                            000125
100000 000000000000 00090345100325490REGTIT30533680583205     0002020000005939826400000000002N           2  01000593982615051900000000550000000000099N290918000000000000000370000000000000000000000000000000000000000000000100084551240168HILTON PAREDE                           MAMORÉ, s/n RURAL NOVA ANDRADINA MS                 79750000                                                            000126
100000 000000000000 00090345100325490REGTIT30533688549026     0002020000005977623400000000002N           2  01000597762315051900000000120000000000099N280119000000000000000080000000000000000000000000000000000000000000000100002208453956REINALDO VASCONCELOS                    NOSSA SENHORA APARECIDA, 4373 ST TEREZIN            81770000                                                            000127
100000 000000000000 00090345100325490REGTIT30533689754671     0002020000005978644200000000002N           2  01000597864415051900000000200000000000099N060219000000000000000130000000000000000000000000000000000000000000000100066922895215RAIMUNDA MARIA LOPES                    RIO AMUERA, 0000 CACHOEIRA DO ARARI CACH            68840000                                                            000128
100000 000000000000 00090345100325490REGTIT30533694135298     0002020000005969834900000000002N           2  01000596983415051900000000248500000000099N080119000000000000000170000000000000000000000000000000000000000000000100001168032741JULIO CESAR  BARROS PEREIRA             JOSE REBELATO, 296 XAXIM CURITIBA PR                81710010                                                            000129
100000 000000000000 00090345100325490REGTIT30533700720866     0002020000005985056600000000002N           2  01000598505615051900000000115000000000099N160219000000000000000080000000000000000000000000000000000000000000000100027568337898ELAINE DE OLIVEIRA PINTO                MTO JOSE DE MATOS, 107 JARDIM AUGUSTO CA            13453015                                                            000130
100000 000000000000 00090345100325490REGTIT30533715537894     0002020000005958738500000000002N           2  01000595873815051900000000055000000000099N261118000000000000000040000000000000000000000000000000000000000000000100038448192826JOSIE HAGATE BERTAN                     ARGEU EGIDIO DOS SANTOS| N°1, AP 34 BL 1            13453842                                                            000131
100000 000000000000 00090345100325490REGTIT30533741127327     0002020000005978136P00000000002N           2  01000597813615051900000000276000000000099N010219000000000000000180000000000000000000000000000000000000000000000100029274145802CLAUDINEIA SIMONE GALDIOLI              PROFESSOR JUSTINO SOARES, 120 VILA LINOP            13450398                                                            000132
100000 000000000000 00090345100325490REGTIT30533751500004     0002020000005902434800000000002N           2  01000590243415051900000000072000000000099N080618000000000000000050000000000000000000000000000000000000000000000100000491119143EVERTON OLIVEIRA FOSTER REIS            KALIL NABAN, 266 GUANANDI CAMPO GRANDE M            79086220                                                            000133
100000 000000000000 00090345100325490REGTIT30533763519070     0002020000005987357400000000002N           2  01000598735715051900000000069000000000099N110319000000000000000050000000000000000000000000000000000000000000000100002596627124JOILDES SOUZA GOULART                   RUA PEDRO LOPES DE SOUZA, 388 PIONEIROS             79070210                                                            000134
100000 000000000000 00090345100325490REGTIT30533771147363     0002020000005975387000000000002N           2  01000597538715051900000000331250000000099N120119000000000000000220000000000000000000000000000000000000000000000100061135097100IVANEIDE DE OLIVEIRA ROCHA              QR611  CHACARRA, 44 PROPRIA  NORTE SAMAM            72000000                                                            000135
100000 000000000000 00090345100325490REGTIT30533779997854     0002020000005968369400000000002N           2  01000596836915051900000001000000000000099N211218000000000000000670000000000000000000000000000000000000000000000100091820189015LAER TELMO MAIA                         RUA JOSÉ  DE SOUZA FEIJÓ N 130, 130 COND            94400000                                                            000136
100000 000000000000 00090345100325490REGTIT30533807836973     0002020000005967762700000000002N           2  01000596776215051900000000095000000000099N181218000000000000000160000000000000000000000000000000000000000000000100008887214980EMANUELLE CRISTINE DA SILVA             FRANCISCO JOSE MARTIN, 13 UBERABA CURITI            81580070                                                            000137
100000 000000000000 00090345100325490REGTIT30533937088921     0002020000005975748500000000002N           2  01000597574815051900000000100000000000099N150119000000000000000070000000000000000000000000000000000000000000000100025356425813JOSÉ DE MELO E SILVA                    RECIFE, 42 PARQUE FERNANDA SAO PAULO SP             05889370                                                            000138
100000 000000000000 00090345100325490REGTIT30533946166771     0002020000005978938700000000002N           2  02000597893807031900000000111970000000099N070219000000000000000070000000000000000000000000000000000000000000000100004439867979ROSILENE MOLINA CASSUCCE                PARANA, 458 CENTRO OURIZONA PR                      87170000                                                            000139
100000 000000000000 00090345100325490REGTIT30533952600223     0002020000005957592100000000002N           2  02000595759217031900000000056300000000099N171118000000000000000040000000000000000000000000000000000000000000000100074486837991LUCIMAR FATIMA CALVO                    ARITA, 1530 CENTRO OURIZONA PR                      87170000                                                            000140
100000 000000000000 00090345100325490REGTIT30533952600223     0002020000005957594800000000002N           2  01000595759417051900000000056300000000099N171118000000000000000040000000000000000000000000000000000000000000000100074486837991LUCIMAR FATIMA CALVO                    ARITA, 1530 CENTRO OURIZONA PR                      87170000                                                            000141
100000 000000000000 00090345100325490REGTIT30533981411895     0002020000005984293800000000002N           2  01000598429317051900000000133330000000099N120219000000000000000090000000000000000000000000000000000000000000000100065062299268IRAMAR CONCEIÇAO DO NASCIMENTO          KM 77 FAIXA, S|N ZONA RURAL  MEDICILANDI            68145000                                                            000142
100000 000000000000 00090345100325490REGTIT30534006507264     0002020000005969499800000000002N           2  01000596949915051900000000366670000000099N050119000000000000000240000000000000000000000000000000000000000000000100005947365871OSNI BISPO VALADARES                    OVIDIO LOPES GUIMARAES, 61 JARDIM ROSANA            05795270                                                            000143
100000 000000000000 00090345100325490REGTIT30534023384327     0002020000005937603100000000002N           2  01000593760315051900000000065000000000099N150918000000000000000040000000000000000000000000000000000000000000000100094391319420HELONICE COSTA DE SOUZA                 POVOADO PONTA DA SERRA, 40 PONTA DA SERR            00000000                                                            000144
100000 000000000000 00090345100325490REGTIT30534031962073     0002020000005993404200000000002N           2  01000599340416041900000000580000000000099N160319000000000000000390000000000000000000000000000000000000000000000100017698665828FRANCISCA FERREIRA DAS CHAGAS COSTA     ALBANO LEITE DA FONSECA, 660 JARDIM SUIN            06773050                                                            000145
100000 000000000000 00090345100325490REGTIT30534061300146     0002020000005902131400000000002N           2  01000590213115051900000000072000000000099N070618000000000000000050000000000000000000000000000000000000000000000100090322681120FABIO RAMOS RIBAS                       CACIMBA, 241 JARDIM CANGURU CAMPO GRANDE            79072266                                                            000146
100000 000000000000 00090345100325490REGTIT30534105981948     0002020000005993341000000000002N           2  01000599334116041900000002000000000000099N160319000000000000001330000000000000000000000000000000000000000000000100032223379850BRUNO JOSE DE SOUZA                     OSVALDO DE ARRUDA REIS, 410 JARDIM PARIS            05794360                                                            000147
100000 000000000000 00090345100325490REGTIT30534143794642     0002020000005896914400000000002N           2  01000589691410051900000000105000000000099N140518000000000000000070000000000000000000000000000000000000000000000100097566772520GIDEANEIS PORTO SOUZA                   MICHEL ARMANDO BENEDOCCI, 399 JARDIM DA             06656330                                                            000148
100000 000000000000 00090345100325490REGTIT30534163007164     0002020000005987495300000000002N           2  01000598749515051900000000069000000000099N110319000000000000000050000000000000000000000000000000000000000000000100096049189153CRISTINA LAURA CALIXTO                  RUA DONA DEOLINDA PEREIRA DE SOUZA, 1551            79070130                                                            000149
100000 000000000000 00090345100325490REGTIT30534176648826     0002020000005993351800000000002N           2  01000599335116041900000001500000000000099N160319000000000000001000000000000000000000000000000000000000000000000100004713307521NEURI SANTOS LIMA VIEIRA                FRANCO ALFANO, 22 CASA JARDIM VAZANI SÃO            05710030                                                            000150
100000 000000000000 00090345100325490REGTIT30534213979786     0002020000005926604P00000000002N           2  01000592660415051900000000081600000000099N140818000000000000000050000000000000000000000000000000000000000000000100002180705190SIDNEY LUIZ LIMA JUNIOR                 GROENLANDIA, 344 CASA 1 JARDIM BATISTAO             79094280                                                            000151
100000 000000000000 00090345100325490REGTIT30534215413472     0002020000005960705P00000000002N           2  01000596070515051900000000116000000000099N061218000000000000000000000000000000000000000000000000000000000000000100034544011191LAUDICEA ALMEIDA SILVA                  4, 162 COHAB VELHA ROSARIO OESTE MT                 78000000                                                            000152
100000 000000000000 00090345100325490REGTIT30534221651400     0002020000005987245400000000002N           2  01000598724515051900000000093000000000099N110319000000000000000060000000000000000000000000000000000000000000000100052565840144ADOLFO DE SOUZA MORAIS                  RUA DA DIVISAO, 975 CASA 1708 JARDIM PAR            79081650                                                            000153
100000 000000000000 00090345100325490REGTIT30534222839317     0002020000005993390900000000002N           2  01000599339016041900000000750000000000099N160319000000000000000500000000000000000000000000000000000000000000000100015312425885GIULIANA ROCHA MEIRELES                 810, 0 - S PAULO SP                                 05797000                                                            000154
100000 000000000000 00090345100325490REGTIT30534274044806     0002020000005948330P00000000002N           2  01000594833015051900000000370000000000099N201018000000000000000250000000000000000000000000000000000000000000000100092158307153MONICA CORREA ALVES IZAQUE              JOSE CARLOS DE TOLEDO PIZA, 100 AP 223 A            05712070                                                            000155
100000 000000000000 00090345100325490REGTIT30534289565794     0002020000005908104P00000000002N           2  01000590810415051900000000072000000000099N130618000000000000000050000000000000000000000000000000000000000000000100095562982072ARIANE PINTO SARTURI                    MARINA LUIZA SPENGLER, 299 BLC A APT 302            79103070                                                            000156
100000 000000000000 00090345100325490REGTIT30534296081575     0002020000005926810700000000002N           2  01000592681015051900000000346000000000099N140818000000000000000230000000000000000000000000000000000000000000000100025492167847VALERIA RODRIGUES DOS SANTOS            PAULO AYRES, 75 PARQUE PINHEIROS TABOAO             06767220                                                            000157
100000 000000000000 00090345100325490REGTIT30534324637067     0002020000005992869700000000002N           2  01000599286916051900000000120000000000099N140319000000000000000080000000000000000000000000000000000000000000000100014632683272ISA MARIA GOMES DA SILVA                RUA CORONEL JUVENCIO SARMENTO, 733 CRUZE            66810080                                                            000158
100000 000000000000 00090345100325490REGTIT30534334331432     0002020000005947517P00000000002N           2  01000594751715051900000000078000000000099N161018000000000000000050000000000000000000000000000000000000000000000296369947000143POETA E POETA SISTEMAS ADUANEIRO LTDA   GENERAL CAMARA, 758 SALA 22 CENTRO SANTA            13450000                                                            000159
100000 000000000000 00090345100325490REGTIT30534342795159     0002020000005978389300000000002N           2  02000597838904031900000000067500000000099N040219000000000000000050000000000000000000000000000000000000000000000100082732965120JOSINA PEREIRA CARDOSO                  QR 413 CONJ 03 CASA 2, 2 PROPIO SAMAMBAI            72000000                                                            000160
100000 000000000000 00090345100325490REGTIT30534406928200     0002020000005993375500000000002N           2  01000599337516041900000000828000000000099N160319000000000000000550000000000000000000000000000000000000000000000100008217932689JOSIAS DIAS DA SILVA                    VIEGAS XORTES, 485 JARDIM ELIZA SÃO PAUL            05776520                                                            000161
100000 000000000000 00090345100325490REGTIT30534408042492     0002020000005984853700000000002N           2  01000598485315051900000000171850000000099N140219000000000000000110000000000000000000000000000000000000000000000100003744712907MIRIAN DE SOUZA RODRIGUES               BELA VISTA, 117 CENTRO OURIZONA PR                  87170000                                                            000162
100000 000000000000 00090345100325490REGTIT30534417016630     0002020000005951165600000000002N           2  01000595116515051900000000150000000000099N071118000000000000000100000000000000000000000000000000000000000000000100055369774072REGIS AFFONSO BANDEIRA                  GUSTAVO ADOLFO ALBRECH, 169 ESTALAGEM VI            94425150                                                            000163
100000 000000000000 00090345100325490REGTIT30534424629145     0002020000005925871300000000002N           2  01000592587116051900000000220000000000099N090818000000000000000150000000000000000000000000000000000000000000000100011516511840EDSON APARECIDO FORNACIANI              DAS ACACIAS, 337 JD S PAULO AMERICANA SP            13468150                                                            000164
100000 000000000000 00090345100325490REGTIT30534446777125     0002020000005966111900000000002N           2  01000596611115051900000000310000000000099N081218000000000000000210000000000000000000000000000000000000000000000100014261405172MARIA JOSE DO NASCIMENTO                149, 18 QD 151  CPA 4  CUIABA MT                    78000000                                                            000165
100000 000000000000 00090345100325490REGTIT30534459958995     0002020000005987083400000000002N           2  01000598708315051900000000249250000000099N090319000000000000000170000000000000000000000000000000000000000000000100037409485825DENIS WILTEMBURG                        NOVE DE JULHO, 1289 AP 131 BELA VISTA SA            01313000                                                            000166
100000 000000000000 00090345100325490REGTIT30534476495943     0002020000005993363100000000002N           2  01000599336316041900000000749970000000099N160319000000000000000500000000000000000000000000000000000000000000000100040244528861PRISCILA CAMPOS DE SOUZA                HAMILTON FERNANDES, 174 JARDIM SANTO ONO            06785210                                                            000167
100000 000000000000 00090345100325490REGTIT30534489937333     0002020000005969014300000000002N           2  01000596901415051900000000199000000000099N281218000000000000000130000000000000000000000000000000000000000000000100047498276810ORNELLA DE BRITO NARDINI                RUTH GARRIDO ROQUE, 1014 PARQUE RESIDENC            13458620                                                            000168
100000 000000000000 00090345100325490REGTIT30534514861504     0002020000005920444300000000002N           2  01000592044415051900000000230000000000099N030818000000000000000150000000000000000000000000000000000000000000000100082203083387JOSÉ CARLOS ALVES DE CARVALHO           DOUTOR CICERO VIEIRA, 90 CASA 03 JARDIM             05790220                                                            000169
100000 000000000000 00090345100325490REGTIT30534517729410     0002020000005975493100000000002N           2  01000597549315051900000000280000000000099N140119000000000000000190000000000000000000000000000000000000000000000100041004227841DEBORA ALINE GASCO ANORO                MACINHATA DO VOUGA, 12 CASA A JARDIM COM            05885330                                                            000170
100000 000000000000 00090345100325490REGTIT30534551328826     0002020000005966436300000000002N           2  01000596643615051900000000178000000000099N101218000000000000000120000000000000000000000000000000000000000000000100039782284831ANA CLAUDIA AP RODRIGUES                PADRE ARTHUR SAMPAIO AP 03 B, BL 105 CON            13458182                                                            000171
100000 000000000000 00090345100325490REGTIT30534582874654     0002020000005901922000000000002N           2  01000590192215051900000000072000000000099N070618000000000000000050000000000000000000000000000000000000000000000100003144882194REINALDO DE ALMEIDA                     PIRASSUNUNGA, 883 JARDIM AERO RANCHO CAM            79083540                                                            000172
100000 000000000000 00090345100325490REGTIT30534587545775     0002020000005975893700000000002N           2  01000597589315051900000000120000000000099N150119000000000000000080000000000000000000000000000000000000000000000100022263284591MAURICIO ALVES DA CUNHA                 GETULIO VARGAS, 1788 CASA CENTRO FORMOSA            47800000                                                            000173
100000 000000000000 00090345100325490REGTIT30534593910409     0002020000005902672300000000002N           2  01000590267215051900000000072000000000099N080618000000000000000050000000000000000000000000000000000000000000000100002170406166WESLEY RIBEIRO DA SILVA                 VISCONDE DE SUASSUNA, 571 JARDIM TIJUCA             79094020                                                            000174
100000 000000000000 00090345100325490REGTIT30534610922353     0002020000005897777500000000002N           2  02000589777716031900000000111190000000099N160518000000000000000070000000000000000000000000000000000000000000000100008867173960GESSICA ALINE CARUZO                    ARITA, 880 CASA CENTRO OURIZONA PR                  87170000                                                            000175
100000 000000000000 00090345100325490REGTIT30534611804621     0002020000005965789800000000002N           2  01000596578915051900000000140000000000099N061218000000000000000090000000000000000000000000000000000000000000000100014217732104SIDONIA DO NASCIMENTO PEREIRA           RUA SANTOS DUMONT, 5 QD 151 ALTOS DA SER            78000000                                                            000176
100000 000000000000 00090345100325490REGTIT30534646220807     0002020000005976976900000000002N           2  02000597697620021900000000164000000000099N230119000000000000000110000000000000000000000000000000000000000000000100002677248964JULIO CESAR DOS SANTOS                  HABIB SARKIS, 175 HABITAT AFONSO PENA SA            83045725                                                            000177
100000 000000000000 00090345100325490REGTIT30534660486173     0002020000005949092600000000002N           2  02000594909225031900000000300000000000099N251018000000000000000200000000000000000000000000000000000000000000000100096277785834ANTONIO BENEVIDES M PRADO               ENEIDE BOCATTO DE BARROS, 74 JARDIM VIST            13458584                                                            000178
100000 000000000000 00090345100325490REGTIT30534689429791     0002020000005853025800000000002N           2  01000585302515051900000000500000000000099N160118000000000000000330000000000000000000000000000000000000000000000100032215683805ANSELMO PEREIRA BALDI                   ETIOPIA, 67 JARDIM SAO LUIZ EMBU SP                 06816530                                                            000179
100000 000000000000 00090345100325490REGTIT30534705574044     0002020000005949628200000000002N           2  01000594962815051900000000198000000000099N291018000000000000000130000000000000000000000000000000000000000000000100045685830807RAISSA FERNANDA BALDO                   VINTE E UM DE FEVEREIRO, 87 CONJUNTO HAB            13453149                                                            000180
100000 000000000000 00090345100325490REGTIT30534771986297     0002020000005993392500000000002N           2  01000599339216041900000003000000000000099N160319000000000000002000000000000000000000000000000000000000000000000100015312154830GILVANETE SANTANA DA SILVA              JARACATIA - DE 601/602 AO FIM, 635 BL 12            05754071                                                            000181
100000 000000000000 00090345100325490REGTIT30534817587397     0002020000005899049600000000002N           2  01000589904916051900000000300000000000099N220518000000000000000200000000000000000000000000000000000000000000000100015715246814MARIA DE BROTAS ALVES DOS SANTOS        LUIGI CARUSO, 5 F PARELHEIROS SAO PAULO             04884080                                                            000182
100000 000000000000 00090345100325490REGTIT30534841375363     0002020000005902316300000000002N           2  01000590231615051900000000072000000000099N080618000000000000000050000000000000000000000000000000000000000000000100095185712104CRISTINA LEANDRO DA SILVA DO  NASCIMENTOROGERIO CAVALARI, 445 CASA 18 TIRADENTES            79042698                                                            000183
100000 000000000000 00090345100325490REGTIT30534888316467     0002020000005967561600000000002N           2  01000596756116051900000000055000000000099N171218000000000000000090000000000000000000000000000000000000000000000100022545712817TIAGO EMILIO GIMENES FERREIRA           MIGUEL ZETESKI, 276 SAO MARCOS SAO JOSE             83690494                                                            000184
100000 000000000000 00090345100325490REGTIT30534889718952     0002020000005965753700000000002N           2  01000596575315051900000000238000000000099N061218000000000000000160000000000000000000000000000000000000000000000100031691900168ANA MARIA PORTO                         QR 204 CONJ 09 LT, 01 APARTAMENTO 303 3             00072000                                                            000185
100000 000000000000 00090345100325490REGTIT30534896321309     0002020000005977396000000000002N           2  01000597739615051900000000161280000000099N240119000000000000000110000000000000000000000000000000000000000000000100004916250818BRAZ CHAGAS                             FOZ DO IGUACU, 67 JARDIM VALO VELHO ITAP            06856800                                                            000186
100000 000000000000 00090345100325490REGTIT30534910604444     0002020000005976029P00000000002N           2  01000597602917051900000000170000000000099N170119000000000000000110000000000000000000000000000000000000000000000100030437341810ELIANA MENDES                           TIRADENTES, 991 JARDIM AMERICA SANTA BAR            13450256                                                            000187
100000 000000000000 00090345100325490REGTIT30535001186815     0002020000005947527700000000002N           2  01000594752715051900000000238000000000099N161018000000000000000160000000000000000000000000000000000000000000000100013948859892CASSIA ALEXANDRA B MACHADO              MAESTRO LAZARO DOMINGUES, 268 JARDIM ALV            13450267                                                            000188
100000 000000000000 00090345100325490REGTIT30535014175118     0002020000005992809300000000002N           2  01000599280915051900000000135000000000099N130319000000000000000090000000000000000000000000000000000000000000000100004497006824AMELIA CECILIA RODRIGUES                REV. JOÃO FELICIANO PIRES APT 21 B, 160             13458184                                                            000189
100000 000000000000 00090345100325490REGTIT30535017343958     0002020000005967854200000000002N           2  01000596785415051900000000188000000000099N181218000000000000000130000000000000000000000000000000000000000000000100027077080200FRANCINEIDE LIRA FELIX                  DOS ANDRADAS, 286 PONTA GROSSA BELÉM PA             66812420                                                            000190
100000 000000000000 00090345100325490REGTIT30535017399833     0002020000005993337200000000002N           2  01000599333716041900000000500000000000099N160319000000000000000330000000000000000000000000000000000000000000000100011397940867DECIO FERNANDES DE SOUZA                PARVATI, 483 JARDIM SOUZA SÃO PAULO SP              04918160                                                            000191
100000 000000000000 00090345100325490REGTIT30535033701099     0002020000005946559P00000000002N           2  01000594655915051900000000290000000000099N091018000000000000000190000000000000000000000000000000000000000000000100003324503841CELINA APARECIDA GARCIA                 SOUSANAS, 117 CONJUNTO HABITACIONAL INST            05868050                                                            000192
100000 000000000000 00090345100325490REGTIT30535035376929     0002020000005957821100000000002N           2  01000595782117051900000000080000000000099N201118000000000000000130000000000000000000000000000000000000000000000100002995285960ADIILSON CESAR O. SANTOS                JOAO SCUISSIATO, 590 SOBRADO 1 SANTA QUI            80310310                                                            000193
100000 000000000000 00090345100325490REGTIT30535044749764     0002020000005946909900000000002N           2  02000594690910031900000000075000000000099N101018000000000000000050000000000000000000000000000000000000000000000100004670697439KEZIA   JUVYANE   ALVES   FERREIRA      RUA  DA  GITIRANA, N 315 AREIA  BRANCA              56300000                                                            000194
100000 000000000000 00090345100325490REGTIT30535063486434     0002020000005978843700000000002N           2  02000597884316031900000000266670000000099N070219000000000000000180000000000000000000000000000000000000000000000100033933497833FERNANDO DE ALMEIDA OLIVEIRA            SERRA DO PILAR, 5 BL 05 AP104 JARDIM MAC            05894420                                                            000195
100000 000000000000 00090345100325490REGTIT30535063486434     0002020000005978845300000000002N           2  01000597884516051900000000266670000000099N070219000000000000000180000000000000000000000000000000000000000000000100033933497833FERNANDO DE ALMEIDA OLIVEIRA            SERRA DO PILAR, 5 BL 05 AP104 JARDIM MAC            05894420                                                            000196
100000 000000000000 00090345100325490REGTIT30535089143754     0002020000005949372000000000002N           2  01000594937215051900000000350000000000099N261018000000000000000230000000000000000000000000000000000000000000000221532439000135A.M. REFRIGERAÇAO E ASSISTENCIA TECNICA BR 116 KM 112, 29555 TATUQUARA CURITIBA             81690500                                                            000197
100000 000000000000 00090345100325490REGTIT30535134985513     0002020000005975377300000000002N           2  01000597537715051900000000250000000000099N110119000000000000000170000000000000000000000000000000000000000000000100067851541387EDILZA VIEIRA DE SOUZA                  IRMAOS SORANGO, 396 RUA FRANKLIN DE MENE            66840395                                                            000198
100000 000000000000 00090345100325490REGTIT30535185215373     0002020000005957604900000000002N           2  02000595760417031900000000058880000000099N171118000000000000000040000000000000000000000000000000000000000000000100074486837991LUCIMAR FATIMA CALVO                    ARITA, 1530 CENTRO OURIZONA PR                      87170000                                                            000199
100000 000000000000 00090345100325490REGTIT30535252899982     0002020000005959293100000000002N           2  01000595929315051900000000250000000000099N281118000000000000000170000000000000000000000000000000000000000000000100042097419810BRUNA ANTUNES MARTINS                   RUTH GARRIDO ROQUE, BL B APT 503 RES JEQ            13458620                                                            000200
100000 000000000000 00090345100325490REGTIT30535257041011     0002020000005993422000000000002N           2  01000599342216041900000000513720000000099N160319000000000000000340000000000000000000000000000000000000000000000100043880453810ANDEROSN FREITAS DA SILVA               SANTOS DUMONT, 145 JARDIM SANTO EDUARDO             06823270                                                            000201
100000 000000000000 00090345100325490REGTIT30535274055575     0002020000005987275600000000002N           2  01000598727515051900000000085000000000099N110319000000000000000060000000000000000000000000000000000000000000000100069425850178RUDI CARLOS QUINTANA                    RUA FRANCISCO DOS ANJOS, 1224 CASA PIONE            79070190                                                            000202
100000 000000000000 00090345100325490REGTIT30535336500021     0002020000005985013200000000002N           2  01000598501315051900000000329570000000099N150219000000000000000220000000000000000000000000000000000000000000000100029388346831MARIA CONCEICAO SILVA                   VINTE E UM DE ABRIL (VL S PEDRO), 10 MON            09784350                                                            000203
100000 000000000000 00090345100325490REGTIT30535409072178     0002020000005993440900000000002N           2  01000599344017041900000000320000000000099N170319000000000000000210000000000000000000000000000000000000000000000100036989380578JOSE GASPAR DA SILVA FILHO              ABELARDO  ALENCAR, S|N CENTRO SAO DESIDE            47820000                                                            000204
100000 000000000000 00090345100325490REGTIT30535416503618     0002020000005902654500000000002N           2  01000590265415051900000000072000000000099N080618000000000000000050000000000000000000000000000000000000000000000100000202818110DENISE CHAVES DOS SANTOS DIAS           BERGAMO, 73 JARDIM SANTA EMILIA CAMPO GR            79093120                                                            000205
100000 000000000000 00090345100325490REGTIT30535478866853     0002020000005902013P00000000002N           2  01000590201315051900000000072000000000099N070618000000000000000050000000000000000000000000000000000000000000000100005427621105ORLANDO LEAO DE SOUZA NETO              PEDRO ALVES DA COSTA, 134  VESPASIANO MA            79075425                                                            000206
100000 000000000000 00090345100325490REGTIT30535505534286     0002020000005993367400000000002N           2  01000599336716041900000001041650000000099N160319000000000000000690000000000000000000000000000000000000000000000100045464019812REINALDO FARIA NETO                     ARTUR FERREIRA DE ABREU, 130 JARDIM ROSA            05547150                                                            000207
100000 000000000000 00090345100325490REGTIT30535521024109     0002020000005984976200000000002N           2  01000598497615051900000000200000000000099N150219000000000000000130000000000000000000000000000000000000000000000100040887908802WESLEY ALVES GOMES                      RUA CEZAR COLETO, 149 CASA CIDADE JARDIM            13190000                                                            000208
100000 000000000000 00090345100325490REGTIT30535521398749     0002020000005986079000000000002N           2  01000598607916051900000000146000000000099N260219000000000000000100000000000000000000000000000000000000000000000100008475661963AMANDA LEONOR FERREIRA SAMPAIO BUFALO   PROF ROBERTO TIM, 129 CAMPO DE SANTANA C            81490546                                                            000209
100000 000000000000 00090345100325490REGTIT30535548825156     0002020000005984961400000000002N           2  01000598496115051900000000060000000000099N150219000000000000000040000000000000000000000000000000000000000000000100034159160816AMANDA JENIFFER RODRIGUES               DUARTE DA COSTA, 970 JARDIM BELA VISTA P            83301070                                                            000210
100000 000000000000 00090345100325490REGTIT30535550238837     0002020000005967586100000000002N           2  01000596758617051900000000124000000000099N171218000000000000000080000000000000000000000000000000000000000000000100002207898199REGIS JOSE CARDOSO                      MARIO ANDREAZA, 118 COND ESMERALDA GUARI            78000000                                                            000211
100000 000000000000 00090345100325490REGTIT30535560207967     0002020000005967484900000000002N           2  01000596748415051900000000110000000000099N171218000000000000000180000000000000000000000000000000000000000000000100049948490991MARIA ROSANGELA JANUARIO                JOAO BATISTA POTIER, 923 S MARCOS  SAO J            83090090                                                            000212
100000 000000000000 00090345100325490REGTIT30535560937428     0002020000005959799200000000002N           2  01000595979915051900000000164000000000099N301118000000000000000110000000000000000000000000000000000000000000000100000054776708MARIA APARECIDA DE CARVALHO             SAO CRISTOVAO, 242 SAO CRISTOVAO   DOM A            78015150                                                            000213
100000 000000000000 00090345100325490REGTIT30535573110812     0002020000005984135400000000002N           2  01000598413515051900000000500000000000099N090219000000000000000330000000000000000000000000000000000000000000000100045950857100SONIA CRISTINA MANGONI DE OLIVEIRA LELISSEM, S|N SEM CUIABA MT                              78125000                                                            000214
100000 000000000000 00090345100325490REGTIT30535586758926     0002020000005987425200000000002N           2  01000598742515051900000000077000000000099N110319000000000000000050000000000000000000000000000000000000000000000100004174324107JAQUELINE DA SILVA CORREA               JOAQUIM ALVES PEREIRA, 1234 CASA PIONEIR            79070120                                                            000215
100000 000000000000 00090345100325490REGTIT30535670690532     0002020000005957551400000000002N           2  02000595755110031900000000120000000000099N171118000000000000000080000000000000000000000000000000000000000000000100075750244253ANDRESSA BARATA DE ANDRADE              SANTA ISABEL, 697 CRUZEIRO (ICOARACI) BE            66810090                                                            000216
100000 000000000000 00090345100325490REGTIT30535670692233     0002020000005947418100000000002N           2  01000594741815051900000000440000000000099N151018000000000000000290000000000000000000000000000000000000000000000100012363428870VANDA AP PALHARES DA SILVA              PROFETA ISAIAS, 659 JARDIM LAUDISSI SANT            13458080                                                            000217
100000 000000000000 00090345100325490REGTIT30535749168776     0002020000005959427600000000002N           2  01000595942715051900000000148000000000099N291118000000000000000100000000000000000000000000000000000000000000000100033158045168SONIA MARIA SILVA COSTA                 SERRA AZUL, S|N SAO GONCALO CENTRO PLANA            78855000                                                            000218
100000 000000000000 00090345100325490REGTIT30535762722218     0002020000005987572000000000002N           2  01000598757215051900000000093000000000099N110319000000000000000060000000000000000000000000000000000000000000000100087223198168KATE KRIZ CORCINO DOS SANTOS            RUA SEISUKE ZAHA, 210 JARDIM DAS NAÇOES             79081730                                                            000219
100000 000000000000 00090345100325490REGTIT30535782001643     0002020000005987546100000000002N           2  01000598754615051900000000069000000000099N110319000000000000000050000000000000000000000000000000000000000000000100071113215100VALDENIR SILVA DE ARAUJO                PROGETADA, 56 JARDIM BOTANICO 1 CAMPO GR            79000000                                                            000220
100000 000000000000 00090345100325490REGTIT30535805096096     0002020000005993323200000000002N           2  01000599332316041900000000733340000000099N160319000000000000000490000000000000000000000000000000000000000000000100033926910895FABIO NAZARETE VIEIRA                   PÚBLIO PIMENTEL, 243 AMERICANÓPOLIS SÃO             04408000                                                            000221
100000 000000000000 00090345100325490REGTIT30535813367168     0002020000005985841900000000002N           2  01000598584115051900000000240000000000099N230219000000000000000320000000000000000000000000000000000000000000000100060934104395RITA CRISTINA DO CARMO CARVALHO         ANDALUSITA, SN QD 18 LT 3 PONTAL SUL  AP            74900000                                                            000222
100000 000000000000 00090345100325490REGTIT30535822675865     0002020000005985641600000000002N           2  01000598564115051900000000552260000000099N210219000000000000001470000000000000000000000000000000000000000000000100003768897990WAGNER AUGUSTO DO NASCIMENTO            RUA JANDAIA, 66 CASA 02 MATINHOS MATINHO            83260000                                                            000223
100000 000000000000 00090345100325490REGTIT30535838792725     0002020000005967251P00000000002N           2  01000596725115051900000000180000000000099N151218000000000000000120000000000000000000000000000000000000000000000100072901586953FRANCISCA MARIA V DE                    DOUTOR CEZAR PERNETTA, 83 TATUQUARA CURI            81470235                                                            000224
100000 000000000000 00090345100325490REGTIT30535878237407     0002020000005938254600000000002N           2  02000593825410031900000000085000000000099N200918000000000000000060000000000000000000000000000000000000000000000100068201079434MARIA DE FATIMA DA CONCEICAO ALVES      RUA 24, 301 PEDRO RAIMUNDO PETROLINA PE             56300000                                                            000225
100000 000000000000 00090345100325490REGTIT30535880686934     0002020000005975863500000000002N           2  01000597586315051900000000079430000000099N150119000000000000000050000000000000000000000000000000000000000000000100009371571985GLEICE CECILIO BEZERRA RIBEIRO          BELA VISTA, 756 CASA CENTRO OURIZONA PR             87170000                                                            000226
100000 000000000000 00090345100325490REGTIT30535885161442     0002020000005985426P00000000002N           2  01000598542615051900000000098310000000099N190219000000000000000070000000000000000000000000000000000000000000000100008104197932DAIANE CAROLINE AMARAL DE AQUINO        CAMPO GRANDE, 1706 CENTRO OURIZONA PR               87170000                                                            000227
100000 000000000000 00090345100325490REGTIT30536004663660     0002020000005936870500000000002N           2  01000593687016051900000000230000000000099N120918000000000000000150000000000000000000000000000000000000000000000100070150320159FFRANCISCA OLIVEIRA DE SOUSA            302 CONJUNTO I, 28 SANTA MARIA SANTA MAR            72502509                                                            000228
100000 000000000000 00090345100325490REGTIT30536027819890     0002020000005947483100000000002N           2  02000594748315031900000000045000000000099N151018000000000000000030000000000000000000000000000000000000000000000100002052824316JACKSON SILVA                           RUA 05 QUADRA 48 LOTE 19 CASA 02, SN ATR            77270000                                                            000229
100000 000000000000 00090345100325490REGTIT30536095672551     0002020000005967519500000000002N           2  01000596751916051900000000040000000000099N171218000000000000000070000000000000000000000000000000000000000000000100008342714942JHONNY ALISSON F. DOS SANTOS            EMERSON GREBOGE, S|N COLONIA MURICI SAO             83085480                                                            000230
100000 000000000000 00090345100325490REGTIT30536110091300     0002020000005976128800000000002N           2  01000597612817051900000000148900000000099N170119000000000000000100000000000000000000000000000000000000000000000100031691900168ANA MARIA PORTO                         QR 204 CONJ 09 LT, 01 APARTAMENTO 303 3             00072000                                                            000231
100000 000000000000 00090345100325490REGTIT30536149590992     0002020000005993379800000000002N           2  01000599337910041900000000168000000000099N160319000000000000000110000000000000000000000000000000000000000000000100072204435872JOAO L GALLO                            PARA, 229 VILA BRASIL SANTA BARBARA DOES            13451086                                                            000232
100000 000000000000 00090345100325490REGTIT30536149590992     0002020000005993380100000000002N           2  01000599338010051900000000168000000000099N160319000000000000000110000000000000000000000000000000000000000000000100072204435872JOAO L GALLO                            PARA, 229 VILA BRASIL SANTA BARBARA DOES            13451086                                                            000233
100000 000000000000 00090345100325490REGTIT30536183297253     0002020000005987162800000000002N           2  01000598716215051900000000040540000000099N110319000000000000000030000000000000000000000000000000000000000000000100059914564968DOMINGAS BARBOSA SANTIAGO               BELA VISTA, 1603 CENTRO OURIZONA PR                 87170000                                                            000234
100000 000000000000 00090345100325490REGTIT30536192004303     0002020000005957598000000000002N           2  02000595759817031900000000056560000000099N171118000000000000000040000000000000000000000000000000000000000000000100074486837991LUCIMAR FATIMA CALVO                    ARITA, 1530 CENTRO OURIZONA PR                      87170000                                                            000235
100000 000000000000 00090345100325490REGTIT30536274358087     0002020000005916814500000000002N           2  01000591681415051900000000210000000000099N120718000000000000000140000000000000000000000000000000000000000000000100034380627802ALETEIA TORINA                          CARLOS VASSALLO, 1061 PARQUE SAO JERONIM            13469710                                                            000236
100000 000000000000 00090345100325490REGTIT30536282597453     0002020000005984298900000000002N           2  01000598429817051900000000150000000000099N120219000000000000000100000000000000000000000000000000000000000000000100075076055234ELISANGELA FURTADO                      AGROVILA NOVA FRONTEIRA, S|N KM 80 FAIXA            68145000                                                            000237
100000 000000000000 00090345100325490REGTIT30536312597497     0002020000005984701800000000002N           2  01000598470115051900000000250000000000099N130219000000000000000170000000000000000000000000000000000000000000000100037329366862DENISE SATURNINO DA SILVA               DOVER, 80 JARDIM SANTA EDWIGES (GRAJAU)             04913060                                                            000238
100000 000000000000 00090345100325490REGTIT30536325472547     0002020000005993276700000000002N           2  01000599327615051900000000054950000000099N150319000000000000000040000000000000000000000000000000000000000000000100010102971986CAMILA DOS SANTOS FERBONI               MACHADO DE ASSIS, 923 CENTRO OURIZONA PR            87170000                                                            000239
100000 000000000000 00090345100325490REGTIT30536413102228     0002020000005959176500000000002N           2  01000595917616051900000000214000000000099N281118000000000000000140000000000000000000000000000000000000000000000100009583500860ANGELA M. SILVA CAMPOS                  REVERENDO JOAO FELICIANO PIRES AP 24 A,             13458184                                                            000240
100000 000000000000 00090345100325490REGTIT30536466696278     0002020000005958432700000000002N           2  01000595843215051900000000253000000000099N231118000000000000000170000000000000000000000000000000000000000000000100087039982820ANGELICA BENILDE ROSANTE                CRISTOVAO DONATIS, 29 PIRACICAMIRIM (VL             13418605                                                            000241
100000 000000000000 00090345100325490REGTIT30536477129500     0002020000005738103800000000002N           2  01000573810315051900000000133330000000099N060517000000000000000090000000000000000000000000000000000000000000000100036256890817ANTONIO JOSE GOMES CAVALCANTE SANTOS    CELSO CUNHA, 65 JARDIM UMUARAMA SAO PAUL            05783171                                                            000242
100000 000000000000 00090345100325490REGTIT30536563804248     0002020000005929339P00000000002N           2  01000592933915051900000000318000000000099N280818000000000000000210000000000000000000000000000000000000000000000100003711559832JOSE ANTONIO DE CAMARGO                 MARANHAO, BL 20 APTO 24 BALNEARIO SALTO             13476735                                                            000243
100000 000000000000 00090345100325490REGTIT30536625635284     0002020000005966844P00000000002N           2  01000596684417051900000000305000000000099N121218000000000000000200000000000000000000000000000000000000000000000100007211973960ERNANI FERREIRA ALVES DOS SANTOS        SALVADOR PAULINO DAS NEVES, 187 CASA JAR            83311072                                                            000244
100000 000000000000 00090345100325490REGTIT30536648110424     0002020000005987302700000000002N           2  01000598730215051900000000101000000000099N110319000000000000000070000000000000000000000000000000000000000000000100095671943191FABIANA SANTOS DE SOUZA                 RUA INUBIA PAULISTA, 1547 ALVES PEREIRA             79071180                                                            000245
100000 000000000000 00090345100325490REGTIT30536649036494     0002020000005993347P00000000002N           2  01000599334716041900000003141000000000099N160319000000000000002090000000000000000000000000000000000000000000000100034806228877ANITA ZUZO DE JESUS                     NAOKITI YAMAHATA, 66 JARDIM CLEMENTINO T            06770060                                                            000246
100000 000000000000 00090345100325490REGTIT30536652236800     0002020000005918040400000000002N           2  01000591804015051900000000145000000000099N190718000000000000000100000000000000000000000000000000000000000000000100032205416820LETICIA A R MORAES                      BARBARA ALEX DE BARROS, 223 JARDIM SAO L            13450492                                                            000247
100000 000000000000 00090345100325490REGTIT30536702733544     0002020000005926197800000000002N           2  01000592619715051900000000100000000000099N100818000000000000000070000000000000000000000000000000000000000000000100034586819812ALESSANDRO MATOS DA SILVA               TANABE, 45 RESSACA ITAPECERICA DA SERRA             06887400                                                            000248
