01REMESSA01COBRANCA       00000000000004972103WC SISTEMAS E EQUIPAMENTOS DE 237BRADESCO       130319        MX0002621                                                                                                                                                                                                                                                                                     000001
100000 000000000000 00090345100240370REGTIT26211903000073     0002020000005987814200000000002N           2  01190300007329031900000000004950000000099N130319000000000000000010000000000000000000000000000000000000000000000208745918000172WC SISTEMAS E EQUIPAMENTOS DE INFORMATICAVENIDA CANDIDO DE ABREU, 70                        80530000                                                            000002
100000 000000000000 00090345100240370REGTIT26211903000106     0002020000005987815000000000002N           2  01190300010629031900000000144800000000099N130319000000000000000220000000000000000000000000000000000000000000000279433538000140NILTON DE ALMEIDA BERTULINO ME          RUA CEARA , 253                                     80220260                                                            000003
100000 000000000000 00090345100240370REGTIT26211903000243     0002020000005987816900000000002N           2  01190300024329031900000000334520000000099N130319000000000000000500000000000000000000000000000000000000000000000277075356000119FUNERARIA VATICANO DE CURITIBA LTDA     RUA JOAO MANUEL, 460                                80510250                                                            000004
100000 000000000000 00090345100240370REGTIT26211903000366     0002020000005987817700000000002N           2  01190300036629031900000000069000000000099N130319000000000000000100000000000000000000000000000000000000000000000204245677000140ADONIS ROGERIO HOEPERS                  RUA PROFESSOR ALBERTO KRAUSE, 2007                  83508500                                                            000005
100000 000000000000 00090345100240370REGTIT26211903000439     0002020000005987818500000000002N           2  01190300043929031900000000315390000000099N130319000000000000000470000000000000000000000000000000000000000000000280779259000111VICTORIA REGIA COMERCIO DE MATERIAIS MEDRUA DESEMBARGADOR MOTTA, 2330                       80420190                                                            000006
100000 000000000000 00090345100240370REGTIT26211903000730     0002020000005987819300000000002N           2  01190300073029031900000000166870000000099N130319000000000000000250000000000000000000000000000000000000000000000204308536000120LUIZ RAMOS DA CRUZ ME                   RUA MARTE, 235                                      81910340                                                            000007
100000 000000000000 00090345100240370REGTIT26211903000748     0002020000005987820700000000002N           2  01190300074829031900000000159800000000099N130319000000000000000240000000000000000000000000000000000000000000000204660012000101AUTO ALLE AUTOMOTIVO EIRELI EPP         RODOVIA JOAO LEOPOLDO JACOMEL, 10766                83320005                                                            000008
100000 000000000000 00090345100240370REGTIT26211903000764     0002020000005987821500000000002N           2  01190300076429031900000004682060000000099N130319000000000000007020000000000000000000000000000000000000000000000208745918000172DEPARTAMENTO COMERCIAL CURITIBA         AV CANDIDO DE ABREU, 70                             80530000                                                            000009
100000 000000000000 00090345100240370REGTIT26211903001068     0002020000005987822300000000002N           2  01190300106829031900000000021150000000099N130319000000000000000030000000000000000000000000000000000000000000000211324664000122ATUAL SOLUCOES EM ANALISE E RECUPERAÇÃO RUA SENADOR SOUZA NAVES, 09                         86010160                                                            000010
100000 000000000000 00090345100240370REGTIT26211903001110     0002020000005987823100000000002N           2  01190300111029031900000000069900000000099N130319000000000000000100000000000000000000000000000000000000000000000200212303000178ELETRONICA VBS LTDA                     RODOVIA DA UVA, 3947                                83402000                                                            000011
100000 000000000000 00090345100240370REGTIT26211903001308     0002020000005987824P00000000002N           2  01190300130829031900000000079900000000099N130319000000000000000120000000000000000000000000000000000000000000000206867267000167IRINEU JULIAO CORDEIRO                  RUA DOUTOR REINALDO MACHADO , 711                   80215010                                                            000012
100000 000000000000 00090345100240370REGTIT26211903001426     0002020000005987825800000000002N           2  01190300142629031900000000275350000000099N130319000000000000000410000000000000000000000000000000000000000000000202166517000180AUTO ELETRICA CUPIM LTDA                RUA: JOSE TREVISAN,, 1540                           83090090                                                            000013
100000 000000000000 00090345100240370REGTIT26211903001450     0002020000005987826600000000002N           2  01190300145029031900000000294120000000099N130319000000000000000440000000000000000000000000000000000000000000000277953800000151MARAVILHA COMERCIO DE LIVROS LTDA       RUA ENGENHEIRO REBOUCAS, 3113                       80250170                                                            000014
100000 000000000000 00090345100240370REGTIT26211903001495     0002020000005987827400000000002N           2  01190300149529031900000000069900000000099N130319000000000000000100000000000000000000000000000000000000000000000208117086000149ESPAKI E VENDRAMINI LTDA                VIA VENETO, 1000                                    82020470                                                            000015
100000 000000000000 00090345100240370REGTIT26211903001911     0002020000005987828200000000002N           2  01190300191129031900000000004950000000099N130319000000000000000010000000000000000000000000000000000000000000000211324664000122ATUAL SOLUÇÕES EM ANALISE E RECUPERAÇÃO RUA SENADOR SOUZA NAVES, 9                          86010160                                                            000016
100000 000000000000 00090345100240370REGTIT26211903002024     0002020000005987829000000000002N           2  01190300202429031900000000079000000000099N130319000000000000000120000000000000000000000000000000000000000000000231612453000100SELMA APARECIDA DE MORAES DE PAULA.     RUA DEPUTADO TENORIO CAVALCANTE, 44                 81590240                                                            000017
100000 000000000000 00090345100240370REGTIT26211903002251     0002020000005987830400000000002N           2  01190300225129031900000000095000000000099N130319000000000000000140000000000000000000000000000000000000000000000203681411000188JCR OFICINA MECANICA LTDA               RUA PROFESSOR ULISSES VIEIRA, 1462                  80310120                                                            000018
100000 000000000000 00090345100240370REGTIT26211903002614     0002020000005987831200000000002N           2  01190300261429031900000000089900000000099N130319000000000000000130000000000000000000000000000000000000000000000203708985000100MADEBARRAS COM. DE MADEIRAS E MAT. PARA AVENIDA MARGINAL PEDRO AUGUSTO BOSSARDI,            83420000                                                            000019
100000 000000000000 00090345100240370REGTIT26211903002731     0002020000005987832000000000002N           2  01190300273129031900000000150310000000099N130319000000000000000230000000000000000000000000000000000000000000000205908821000144ROMA PEÇAS COM. DE AUTOPEÇAS LTDA ME    AV. NOSSA SENHORA DO AMPARO, 25                     83540000                                                            000020
100000 000000000000 00090345100240370REGTIT26211903002986     0002020000005987833900000000002N           2  01190300298629031900000000088400000000099N130319000000000000000130000000000000000000000000000000000000000000000207607089000106JUVENIL MARTINS CARVALHO COMERCIO DE ARTRUA VISCONDE DO RIO BRANCO, 1818                    83005420                                                            000021
100000 000000000000 00090345100240370REGTIT26211903003233     0002020000005987834700000000002N           2  01190300323329031900000000169800000000099N130319000000000000000250000000000000000000000000000000000000000000000201504185000134WANDERCAR COMERCIO DE ESCAPAMENTOS LTDA RUA DELEGADO LEOPOLDO BELCZAK, 1885                 82810060                                                            000022
100000 000000000000 00090345100240370REGTIT26211903003866     0002020000005987835500000000002N           2  01190300386629031900000000178750000000099N130319000000000000000270000000000000000000000000000000000000000000000209034773000163CARVALHO E THIMOTHEO MOTO PECAS LTDA    RUA DESEMBARGADOR CID CAMPELO, 3844                 81170350                                                            000023
100000 000000000000 00090345100240370REGTIT26211903004073     0002020000005987836300000000002N           2  01190300407329031900000000322890000000099N130319000000000000000480000000000000000000000000000000000000000000000208887966000102PAGLIA COMERCIAL LTDA                   AV WINSTON CHURCHILL, 106                           81130000                                                            000024
100000 000000000000 00090345100240370REGTIT26211903004249     0002020000005987837100000000002N           2  01190300424929031900000000113580000000099N130319000000000000000170000000000000000000000000000000000000000000000232273139000103INDUSTRIA DE CHOCOLATES AMOR LTDA       RUA GUARAPUAVA, 246                                 83010150                                                            000025
100000 000000000000 00090345100240370REGTIT26211903004277     0002020000005987838P00000000002N           2  01190300427729031900000000246720000000099N130319000000000000000370000000000000000000000000000000000000000000000272266935000125AC INDUSTRIA COM. MADEIRAS CATARINENSE LRUA PLINIO ARLINDO DE NES, 1701 D                   89805290                                                            000026
100000 000000000000 00090345100240370REGTIT26211903004421     0002020000005987839800000000002N           2  01190300442129031900000000140000000000099N130319000000000000000210000000000000000000000000000000000000000000000201668873000130ESCOLA RENOCACAO LTDA ME                RUA BARAO DO CERRO AZUL, 1477                       83301000                                                            000027
100000 000000000000 00090345100240370REGTIT26211903004521     0002020000005987840100000000002N           2  01190300452129031900000000278570000000099N130319000000000000000420000000000000000000000000000000000000000000000205403409000172ROCHA DISTRIBUIDORA DE ALIMENTOS LTDA    QUADRA 200 CONJUNTO 05 LOTE 20 - ADE, 1            72610005                                                            000028
100000 000000000000 00090345100240370REGTIT26211903004525     0002020000005987841P00000000002N           2  01190300452529031900000000079900000000099N130319000000000000000120000000000000000000000000000000000000000000000201989560000183E. DE F. S. BUENO & CIA LTDA            ESTRADA NOVA DE COLOMBO , 6219                      82720010                                                            000029
100000 000000000000 00090345100240370REGTIT26211903004606     0002020000005987842800000000002N           2  01190300460629031900000000174800000000099N130319000000000000000260000000000000000000000000000000000000000000000202297264000184J M DA SILVA RODRIGUES                  RODOVIA RS-020 FAIXA DE TAQUARA, 5114               94100250                                                            000030
100000 000000000000 00090345100240370REGTIT26211903004776     0002020000005987843600000000002N           2  01190300477629031900000000277830000000099N130319000000000000000420000000000000000000000000000000000000000000000204007193000163SOCIEDADE EDUCACIONAL DESTAQUE LTDA     RUA BERNARDO OSINSKI, 206                           83320570                                                            000031
100000 000000000000 00090345100240370REGTIT26211903004782     0002020000005987844400000000002N           2  01190300478229031900000000134800000000099N130319000000000000000200000000000000000000000000000000000000000000000205198792000174ESTEVES E ABREU COMERCIO DE ANIMAIS LTDARUA CORONEL MACHADO LOPES, 155                      83302250                                                            000032
100000 000000000000 00090345100240370REGTIT26211903004835     0002020000005987845200000000002N           2  01190300483529031900000000004950000000099N130319000000000000000010000000000000000000000000000000000000000000000293215408000161WEB CONTROL EMPRESAS- FRANQUIA PORTO ALERUA DA ESPERANCA, 79                                91920240                                                            000033
100000 000000000000 00090345100240370REGTIT26211903004836     0002020000005987846000000000002N           2  01190300483629031900000000018740000000099N130319000000000000000030000000000000000000000000000000000000000000000293215408000161NR SITES SOLUÇOES E PESQUISAS           AV OTTO NIEMEYER, 2522                              91910001                                                            000034
100000 000000000000 00090345100240370REGTIT26211903004945     0002020000005987847900000000002N           2  01190300494529031900000000291340000000099N130319000000000000000440000000000000000000000000000000000000000000000205300550000140COLEGIO EDUCAR LTDA                     RUA LEOPOLDO FREIBERGER , 475                       88160000                                                            000035
100000 000000000000 00090345100240370REGTIT26211903005108     0002020000005987848700000000002N           2  01190300510829031900000000210930000000099N130319000000000000000320000000000000000000000000000000000000000000000209025676000104RUDI COMERCIO DE PNEUS LTDA ME          AVENIDA BARAO DO RIO BRANCO, 101                    88130101                                                            000036
100000 000000000000 00090345100240370REGTIT26211903005164     0002020000005987849500000000002N           2  01190300516429031900000000187710000000099N130319000000000000000280000000000000000000000000000000000000000000000255413413000190CANGA COMERCIO DE ARTIGOS PLASTICOS LTDARUA TRES RIOS, 479                                  01123001                                                            000037
100000 000000000000 00090345100240370REGTIT26211903005172     0002020000005987850900000000002N           2  01190300517229031900000000199900000000099N130319000000000000000300000000000000000000000000000000000000000000000249923378000156AVIAMENTOS DA MODA LTDA                 RUA TRES RIOS 218, sn                               01123000                                                            000038
100000 000000000000 00090345100240370REGTIT26211903005226     0002020000005987851700000000002N           2  01190300522629031900000000513430000000099N130319000000000000000770000000000000000000000000000000000000000000000204054422000109OK JOO PARK LEE                         RUA JOAO BOEMER, 630                                03018000                                                            000039
100000 000000000000 00090345100240370REGTIT26211903005273     0002020000005987852500000000002N           2  01190300527329031900000000200050000000099N130319000000000000000300000000000000000000000000000000000000000000000281013302000104COMERCIO DE PEDRAS KATIA LTDA           ESTRADA INTENDENTE ANTONIO DAMASCO, 623             88052100                                                            000040
100000 000000000000 00090345100240370REGTIT26211903005292     0002020000005987853300000000002N           2  01190300529229031900000000223410000000099N130319000000000000000340000000000000000000000000000000000000000000000207006787000148TRES HIBISCOS CONFECÇÕES LTDA           RUA  PARA, 1531                                     86020400                                                            000041
100000 000000000000 00090345100240370REGTIT26211903005473     0002020000005987854100000000002N           2  01190300547329031900000000196260000000099N130319000000000000000290000000000000000000000000000000000000000000000282341942000106LOJA DO COMPRESSOR EQUIPAMENTOS E FERRAGAVENIDA DAS AMERICAS, 1073                          83030640                                                            000042
100000 000000000000 00090345100240370REGTIT26211903005580     0002020000005987855P00000000002N           2  01190300558029031900000000150200000000099N130319000000000000000230000000000000000000000000000000000000000000000205977671000120M R PIMENTEL E ACO LTDA                 RUA DA TRINDADE, 1521                               82920120                                                            000043
100000 000000000000 00090345100240370REGTIT26211903005609     0002020000005987857600000000002N           2  01190300560929031900000000138900000000099N130319000000000000000210000000000000000000000000000000000000000000000208627270000139POKI COMERCIO DE ROUPAS E ACESSORIOS LTDRUA DA GRACA, 886                                   01125000                                                            000044
100000 000000000000 00090345100240370REGTIT26211903005613     0002020000005987858400000000002N           2  01190300561329031900000000287510000000099N130319000000000000000430000000000000000000000000000000000000000000000275630202000116SZEJKA PARTICIPACOES SOCIETARIAS LTDA   AVENIDA WINSTON CHURCHILL, 2370                     81150050                                                            000045
100000 000000000000 00090345100240370REGTIT26211903005641     0002020000005987859200000000002N           2  01190300564129031900000000176050000000099N130319000000000000000260000000000000000000000000000000000000000000000208043695000109MATRIX COMERCIO DE RODAS E PNEUS LTDA   RUA DOMINGOS SCUCATO, 927                           83501020                                                            000046
100000 000000000000 00090345100240370REGTIT26211903005655     0002020000005987860600000000002N           2  01190300565529031900000000728380000000099N130319000000000000001090000000000000000000000000000000000000000000000211536830000154ABENEP ASSOCIAÇÃO NACIONAL DOS SERVIDORERUA MANOEL EUFRASIO, 403 A                          80030440                                                            000047
100000 000000000000 00090345100240370REGTIT26211903006391     0002020000005987861400000000002N           2  01190300639129031900000000134800000000099N130319000000000000000200000000000000000000000000000000000000000000000209595585000104NOVA CARTUCHOS E SUPRIMENTOS PARA INFORMRUA DELEGADO LEOPOLDO BELCZAK, 1360                 82800220                                                            000048
100000 000000000000 00090345100240370REGTIT26211903006416     0002020000005987862200000000002N           2  01190300641629031900000000364700000000099N130319000000000000000550000000000000000000000000000000000000000000000204530901000146JURKIETEC C. DE COMP. ELETRONICOS LTDA  AVENIDA CELSO GARCIA CID 1555, 1555                 86039000                                                            000049
100000 000000000000 00090345100240370REGTIT26211903006610     0002020000005987863000000000002N           2  01190300661029031900000000360710000000099N130319000000000000000540000000000000000000000000000000000000000000000207344416000176CDN COM.E LOCAÇAO DE ANDAIMES E MAQUINASESTRADA ESTADUAL BARUERI-ITAPEVI 02, 02             06620340                                                            000050
100000 000000000000 00090345100240370REGTIT26211903006670     0002020000005987864900000000002N           2  01190300667029031900000000203700000000099N130319000000000000000310000000000000000000000000000000000000000000000209486104000122AUTO ELÉTRICA TRINDADE ME               RUA EDUARDO PINTO DA ROCHA, 1386                    81850000                                                            000051
100000 000000000000 00090345100240370REGTIT26211903006732     0002020000005987865700000000002N           2  01190300673229031900000000115250000000099N130319000000000000000170000000000000000000000000000000000000000000000206864192000160M MAGALHAES SERVIÇOS DE LATARIAS E PINTURUA INACIO LUSTOSA , 466                            80510000                                                            000052
100000 000000000000 00090345100240370REGTIT26211903006733     0002020000005987866500000000002N           2  01190300673329031900000000125400000000099N130319000000000000000190000000000000000000000000000000000000000000000281476269000140LUIZ MARTINS DA SILVA ME                RUA NEUZA MARIA LORENZINI, 230                      81050658                                                            000053
100000 000000000000 00090345100240370REGTIT26211903006854     0002020000005987867300000000002N           2  01190300685429031900000000115000000000099N130319000000000000000170000000000000000000000000000000000000000000000207311333000180MARCOS SIDNEY CARNELOS                  RUA CANOINHAS, 726                                  83075050                                                            000054
100000 000000000000 00090345100240370REGTIT26211903006995     0002020000005987868100000000002N           2  01190300699529031900000000479310000000099N130319000000000000000720000000000000000000000000000000000000000000000209657526000113YOSHI ATACADISTA LTDA                   RUA JOAQUIM JOSE DO AMARAL, 70                      05528020                                                            000055
100000 000000000000 00090345100240370REGTIT26211903007041     0002020000005987869P00000000002N           2  01190300704129031900000000169900000000099N130319000000000000000250000000000000000000000000000000000000000000000208014696000117EBERT RACING COMERCIO DE PECAS LTDA     RUA JOAO NEGRAO , 1274                              80230150                                                            000056
100000 000000000000 00090345100240370REGTIT26211903007051     0002020000005987870300000000002N           2  01190300705129031900000000242500000000099N130319000000000000000360000000000000000000000000000000000000000000000275716597000174MORAES & QUIRINO LTDA - EPP             AV BRASIL, 1282                                     86390000                                                            000057
100000 000000000000 00090345100240370REGTIT26211903007099     0002020000005987871100000000002N           2  01190300709929031900000000193650000000099N130319000000000000000290000000000000000000000000000000000000000000000207573920000148HUMBERTO MARCIEL DE LIMA-ME             AVENIDA CIPRIANO RODRIGUES 61, 44                   03361010                                                            000058
100000 000000000000 00090345100240370REGTIT26211903007232     0002020000005987872P00000000002N           2  01190300723229031900000000227110000000099N130319000000000000000340000000000000000000000000000000000000000000000207581581000141BAND. COMERCIAL DE ALIMENTOS LTDA-ME    AV. PREFEITO MOACYR CASTANHO 1280, 1280             86360000                                                            000059
100000 000000000000 00090345100240370REGTIT26211903007233     0002020000005987873800000000002N           2  01190300723329031900000000218700000000099N130319000000000000000330000000000000000000000000000000000000000000000210692050000130COMERCIAL DE ALIMENTOS RELUZ LTDA       AV. COMENDADOR LUIZ MENEGHEL, 426                   86360000                                                            000060
100000 000000000000 00090345100240370REGTIT26211903007307     0002020000005987874600000000002N           2  01190300730729031900000000250380000000099N130319000000000000000380000000000000000000000000000000000000000000000279733572000210CIRUPAR REPRESENTACOES E COMERCIO DE EQUAV. MARINGA, 1228                                   83324442                                                            000061
100000 000000000000 00090345100240370REGTIT26211903007371     0002020000005987875400000000002N           2  01190300737129031900000000177800000000099N130319000000000000000270000000000000000000000000000000000000000000000205436486000129MATERIAL DE CONSTRUCAO KMIECIK ME       RUA SILVESTRE JAREK, 155                            83535000                                                            000062
100000 000000000000 00090345100240370REGTIT26211903007399     0002020000005987876200000000002N           2  01190300739929031900000000227000000000099N130319000000000000000340000000000000000000000000000000000000000000000203360699000199ARMACRIL COMERCIO DE PLAS E MOLDURAS EM RUA ANNE FRANCK , 2575                              81650020                                                            000063
100000 000000000000 00090345100240370REGTIT26211903007433     0002020000005987877000000000002N           2  01190300743329031900000000146430000000099N130319000000000000000220000000000000000000000000000000000000000000000211324664000122ATUAL SOLUCOES EM ANALISE E RECUPERAÇÃO RUA SENADOR SOUZA NAVES, 09                         86010160                                                            000064
100000 000000000000 00090345100240370REGTIT26211903007585     0002020000005987878900000000002N           2  01190300758529031900000000265450000000099N130319000000000000000400000000000000000000000000000000000000000000000206167037000195VB INFORMÁTICA LTDA                     RUA QUINZE DE NOVEMBRO, 51                          89201600                                                            000065
100000 000000000000 00090345100240370REGTIT26211903007659     0002020000005987879700000000002N           2  01190300765929031900000000585740000000099N130319000000000000000880000000000000000000000000000000000000000000000205582619000175COOP. DE ECON E CRED DOS EMP DE COM NT PAV. PARANA, 646                                     86010390                                                            000066
100000 000000000000 00090345100240370REGTIT26211903007765     0002020000005987880000000000002N           2  01190300776529031900000000531460000000099N130319000000000000000800000000000000000000000000000000000000000000000246387981000172ITA ADMINISTRAÇÕES DE IMOVEIS-LTDA      AVENIDA CUPECE 3437, 3437                           04365001                                                            000067
100000 000000000000 00090345100240370REGTIT26211903007895     0002020000005987881900000000002N           2  01190300789529031900000000265040000000099N130319000000000000000400000000000000000000000000000000000000000000000201093591000151CONTAB ASSISTÊNCIA A CONDOMÍNIOS E OUTROSDS  ED. EL DOURADO BLOCO D SALA 102, 0             70392901                                                            000068
100000 000000000000 00090345100240370REGTIT26211903007964     0002020000005987882700000000002N           2  01190300796429031900000000183330000000099N130319000000000000000270000000000000000000000000000000000000000000000207378544000130LUCIANA GOMES DOS SANTOS ARMARINHOS ME  RUA HERECE FERNANDES, 678                           81450710                                                            000069
100000 000000000000 00090345100240370REGTIT26211903008176     0002020000005987883500000000002N           2  01190300817629031900000000068770000000099N130319000000000000000100000000000000000000000000000000000000000000000289466643000139HIMILCO FERNANDO MOREIRA MARQUES        RUA GRECIA, 1755                                    92990000                                                            000070
100000 000000000000 00090345100240370REGTIT26211903008227     0002020000005987884300000000002N           2  01190300822729031900000000218790000000099N130319000000000000000330000000000000000000000000000000000000000000000214944572000133KAROLINE BATTISTI BITENCURT ME          RUA SAO VICENTE 277, 277                            89206230                                                            000071
100000 000000000000 00090345100240370REGTIT26211903008333     0002020000005987885100000000002N           2  01190300833329031900000000081950000000099N130319000000000000000120000000000000000000000000000000000000000000000204957297000139ANTONIO MARCOS MORTARI                  AV PARAGUAI  642, 642                               83820000                                                            000072
100000 000000000000 00090345100240370REGTIT26211903008369     0002020000005987886P00000000002N           2  01190300836929031900000000138300000000099N130319000000000000000210000000000000000000000000000000000000000000000208321589000131COMERCIO DE ROUPAS RODRIGUES E SOUZA LTDRUA SOFIA MARIA MORESCHI, 480                       83055500                                                            000073
100000 000000000000 00090345100240370REGTIT26211903008385     0002020000005987887800000000002N           2  01190300838529031900000000389460000000099N130319000000000000000580000000000000000000000000000000000000000000000209217556000109A.E.F COMERCIO E REPRESENTAÇÃO DE PLASTIQNB 15 LOTE 01 LOJA 01, 1                           72115000                                                            000074
100000 000000000000 00090345100240370REGTIT26211903008607     0002020000005987888600000000002N           2  01190300860729031900000000272980000000099N130319000000000000000410000000000000000000000000000000000000000000000201242477000146MARICARRO DE MARICA VEICULOS LTDA       AVENIDA FRANCISCO SABINO D COSTA, S/N               24900000                                                            000075
100000 000000000000 00090345100240370REGTIT26211903008696     0002020000005987889400000000002N           2  01190300869629031900000000139810000000099N130319000000000000000210000000000000000000000000000000000000000000000205170174000116NAZARIO AUTOMOVEIS LTDA ME              RUA OURIZONA , 2405                                 81920620                                                            000076
100000 000000000000 00090345100240370REGTIT26211903008720     0002020000005987890800000000002N           2  01190300872029031900000000184550000000099N130319000000000000000280000000000000000000000000000000000000000000000207680369000131ALFAIATARIA PACHECO LTDA                RUA 15, NUMERO  420 QD J 09 LT 19, SN               74140035                                                            000077
100000 000000000000 00090345100240370REGTIT26211903009035     0002020000005987891600000000002N           2  01190300903529031900000000226090000000099N130319000000000000000340000000000000000000000000000000000000000000000297051296000101LUECI KOLOGESKI DOS SANTOS              RUA SAO PAULO, 169                                  94370000                                                            000078
100000 000000000000 00090345100240370REGTIT26211903009304     0002020000005987892400000000002N           2  01190300930429031900000000293540000000099N130319000000000000000440000000000000000000000000000000000000000000000204285400000141UNIÃO MOTORS VEÍCULOS LTDA              AV MONSENHOR ANGELO SAMPAIO, 700                    56328000                                                            000079
100000 000000000000 00090345100240370REGTIT26211903009339     0002020000005987893200000000002N           2  01190300933929031900000000144360000000099N130319000000000000000220000000000000000000000000000000000000000000000204874675000110DIVERSOS DISTRIBUIDORA DE PRODUTOS LTDA RUA JOAO EVARISTO HECK 336, 336                     89228830                                                            000080
100000 000000000000 00090345100240370REGTIT26211903009347     0002020000005987894000000000002N           2  01190300934729031900000000263990000000099N130319000000000000000400000000000000000000000000000000000000000000000207889663000158COMERCIO DE PEDRAS TAITI LTDA           RUA SUECIA , 90                                     82800060                                                            000081
100000 000000000000 00090345100240370REGTIT26211903009359     0002020000005987895900000000002N           2  01190300935929031900000000404710000000099N130319000000000000000610000000000000000000000000000000000000000000000204595432000143MADEREIRA PROENÇA LTDA                  ESTRADA ESTADUAL BARUERI-ITAPEVI  , 396             06624000                                                            000082
100000 000000000000 00090345100240370REGTIT26211903009590     0002020000005987896700000000002N           2  01190300959029031900000000276730000000099N130319000000000000000420000000000000000000000000000000000000000000000202871428000135MADEIREIRA E TRANSPORTADORA ROQUE KREMERRODOVIA SC 407 S/N PROXIMO CAMPO DO BOTA            88122000                                                            000083
100000 000000000000 00090345100240370REGTIT26211903009665     0002020000005987897500000000002N           2  01190300966529031900000000288190000000099N130319000000000000000430000000000000000000000000000000000000000000000205145116000132MEGA ETROS- MIRIAM HIROMI TONDA SOROCABAAV SAO PAULO, 463                                   18013000                                                            000084
100000 000000000000 00090345100240370REGTIT26211903009957     0002020000005987898300000000002N           2  01190300995729031900000000222800000000099N130319000000000000000330000000000000000000000000000000000000000000000205653354000159COMERCIO DE VEICULOS HAMIZUNNY LTDA ME  RUA VIVALDO JOSE TEIXEIRA, 41                       86802526                                                            000085
100000 000000000000 00090345100240370REGTIT26211903010074     0002020000005987899100000000002N           2  01190301007429031900000000144800000000099N130319000000000000000220000000000000000000000000000000000000000000000207447025000187CARVALHO E SILVEIRA DOIS COMERCIO DE VEIRUA CONEGO RODOLFO MACHADO , 2431                   88160000                                                            000086
100000 000000000000 00090345100240370REGTIT26211903010337     0002020000005987900900000000002N           2  01190301033729031900000000431490000000099N130319000000000000000650000000000000000000000000000000000000000000000202655903000136CENTRO DE FORMACAO DE COND. DE VEICULOS AVENIDA ARAPONGAS 948, 948                          86701000                                                            000087
100000 000000000000 00090345100240370REGTIT26211903010424     0002020000005987901700000000002N           2  01190301042429031900000000342490000000099N130319000000000000000510000000000000000000000000000000000000000000000204137889000104D. PIRES & D. PIRES LTDA.               RUA PARANAGUA   Nº 803  APTO   115, 3225            86020030                                                            000088
100000 000000000000 00090345100240370REGTIT26211903010578     0002020000005987902500000000002N           2  01190301057829031900000000202550000000099N130319000000000000000300000000000000000000000000000000000000000000000100016739167087LEONARDO ROBERTO RIGON                  AV BENTO GONCALVES , 1403                           90650002                                                            000089
100000 000000000000 00090345100240370REGTIT26211903010583     0002020000005987903300000000002N           2  01190301058329031900000000292450000000099N130319000000000000000440000000000000000000000000000000000000000000000285299808000174OXIGENIO FLORIANOPOLIS LTDA EPP         RUA FALVIO VIEIRA DA ROSA 760 LOJA, 760             88117750                                                            000090
100000 000000000000 00090345100240370REGTIT26211903010708     0002020000005987904100000000002N           2  01190301070829031900000000317450000000099N130319000000000000000480000000000000000000000000000000000000000000000208773687000100N. E. DA SILVA BARCELOS E CIA. LTDA     ROD RS 030 AV ELY CORREA, 1735                      94180130                                                            000091
100000 000000000000 00090345100240370REGTIT26211903010754     0002020000005987905P00000000002N           2  01190301075429031900000000714210000000099N130319000000000000001070000000000000000000000000000000000000000000000202596419000183EIG EMPREENCIMENTOS IMOBILIARIOS GARANTISCS QUADRA 01 BLOCO G LOTE 30 30 SALA 1.            70309900                                                            000092
100000 000000000000 00090345100240370REGTIT26211903011001     0002020000005987906800000000002N           2  01190301100129031900000000202710000000099N130319000000000000000300000000000000000000000000000000000000000000000202828487000120FERTCLINICA CLINICA DE REP HUMANA E PEDIAV RIO BRANCO  , 906                                87015380                                                            000093
100000 000000000000 00090345100240370REGTIT26211903011112     0002020000005987907600000000002N           2  01190301111229031900000000269310000000099N130319000000000000000400000000000000000000000000000000000000000000000207919784000103FRUTI MINAS DISTRIBUIDORA DE FRUTAS LTDACONDOMINIO ARAPOANGA QDRA 21 CONJ.I LOTE            73368724                                                            000094
100000 000000000000 00090345100240370REGTIT26211903011258     0002020000005987908400000000002N           2  01190301125829031900000000192900000000099N130319000000000000000290000000000000000000000000000000000000000000000207669409000144BERNARTT & BERNARTT ADVOGADOS ASSOCIADOSRUA JOAO PALOMEQUE, 36                              81050040                                                            000095
100000 000000000000 00090345100240370REGTIT26211903011421     0002020000005987909200000000002N           2  01190301142129031900000000211600000000099N130319000000000000000320000000000000000000000000000000000000000000000223396920000176FRANCISMAR INDUSTRIA E COMERCIO DE MOVEIRUA JOINVILLE, 3555                                 83020000                                                            000096
100000 000000000000 00090345100240370REGTIT26211903011595     0002020000005987910600000000002N           2  01190301159529031900000000228740000000099N130319000000000000000340000000000000000000000000000000000000000000000208816348000163TAMANDARE ADMINSITRADORA FINANCEIRA DE SRUA ABEL SCUISSIATO , 181                           83408280                                                            000097
100000 000000000000 00090345100240370REGTIT26211903011615     0002020000005987911400000000002N           2  01190301161529031900000000181690000000099N130319000000000000000270000000000000000000000000000000000000000000000209062774000111ALVEZA MOVEIS LTDA                      AVENIDA TEIXEIRA E SOUZA, 1442                      28905100                                                            000098
100000 000000000000 00090345100240370REGTIT26211903011774     0002020000005987913000000000002N           2  01190301177429031900000000144800000000099N130319000000000000000220000000000000000000000000000000000000000000000210482169000189FRANCA E BARROS MODAS LTDA ME           AV GETULIO VARGAS , 784                             83301010                                                            000099
100000 000000000000 00090345100240370REGTIT26211903011848     0002020000005987914900000000002N           2  01190301184829031900000000099800000000099N130319000000000000000150000000000000000000000000000000000000000000000208766535000180PIZZARIA E CHOPERIA ASTRO REI LTDA      RUA BARNABEL DOS SANTOS, 42                         83055340                                                            000100
100000 000000000000 00090345100240370REGTIT26211903011906     0002020000005987915700000000002N           2  01190301190629031900000000098900000000099N130319000000000000000150000000000000000000000000000000000000000000000205542354000181KI-OTICA COMERCIO VAREJISTA DE PRODUTOS AVENIDA JACOB MACANHAN , 3199                       83326000                                                            000101
100000 000000000000 00090345100240370REGTIT26211903011932     0002020000005987916500000000002N           2  01190301193229031900000000270020000000099N130319000000000000000410000000000000000000000000000000000000000000000264848674000123BF ETTO SERVIÇO ADM LTDA                ALAMEDA CASA BLANCA, 279                            13272854                                                            000102
100000 000000000000 00090345100240370REGTIT26211903012042     0002020000005987917300000000002N           2  01190301204229031900000000339350000000099N130319000000000000000510000000000000000000000000000000000000000000000203563025000191RIBEIRO MOTOPECAS LTDA ME               RUA LERCIO COSTA, 716                               86930000                                                            000103
100000 000000000000 00090345100240370REGTIT26211903012107     0002020000005987918100000000002N           2  01190301210729031900000000273730000000099N130319000000000000000410000000000000000000000000000000000000000000000200559582000140ACI AUTOMOBILICAR SOUND CENTER LTDA-ME  RUA MARIO GRACA , 09                                05796140                                                            000104
100000 000000000000 00090345100240370REGTIT26211903012130     0002020000005987919P00000000002N           2  01190301213029031900000000134800000000099N130319000000000000000200000000000000000000000000000000000000000000000204496779000139TECNOCICLES BICICLETAS LTDA             RUA RAPOSO TAVARES, 45                              82100452                                                            000105
100000 000000000000 00090345100240370REGTIT26211903012310     0002020000005987920300000000002N           2  01190301231029031900000000258650000000099N130319000000000000000390000000000000000000000000000000000000000000000270237557000126ADEGA BIANCHETTI TEDESCO LTDA           ESTRADA DOS VERMELHOS S/N , s/n                     56395000                                                            000106
100000 000000000000 00090345100240370REGTIT26211903012537     0002020000005987921100000000002N           2  01190301253729031900000000213000000000099N130319000000000000000320000000000000000000000000000000000000000000000203605966000140REALFERMETAL SERRALHERIA EM ESQUADRILHASRUA CRESCENCIO BATISTA , 745                        83326630                                                            000107
100000 000000000000 00090345100240370REGTIT26211903012545     0002020000005987922P00000000002N           2  01190301254529031900000000050000000000099N130319000000000000000080000000000000000000000000000000000000000000000204086301000130ROGERIO ZIEBART ME                      AVENIDA SENADOR SALGADO FILHO , 4717 / 4            81570001                                                            000108
100000 000000000000 00090345100240370REGTIT26211903012575     0002020000005987923800000000002N           2  01190301257529031900000000375150000000099N130319000000000000000560000000000000000000000000000000000000000000000203096738000192ZOCAR RIO CAMINHOES LTDA                RODOVIA PRESIDENTE DUTRA 555, 555                   21240001                                                            000109
100000 000000000000 00090345100240370REGTIT26211903012601     0002020000005987924600000000002N           2  01190301260129031900000000357070000000099N130319000000000000000540000000000000000000000000000000000000000000000210497056000157CONDUTEC MATERIAIS ELETRICOS LTDA ME    TRAVESSA MARAVILHA 115 , 115                        48904140                                                            000110
100000 000000000000 00090345100240370REGTIT26211903012648     0002020000005987925400000000002N           2  01190301264829031900000000139750000000099N130319000000000000000210000000000000000000000000000000000000000000000202274805000159AUTO MECANICA CRAFT LTDA                RUA CRUZEIRO DO SUL, 638                            81900230                                                            000111
100000 000000000000 00090345100240370REGTIT26211903012673     0002020000005987926200000000002N           2  01190301267329031900000000189400000000099N130319000000000000000280000000000000000000000000000000000000000000000249878143000190PLACHE PLACHE LTDA                      RUA DA ABOLICAO 3309 , 3309                         13045750                                                            000112
100000 000000000000 00090345100240370REGTIT26211903012834     0002020000005987927000000000002N           2  01190301283429031900000000330710000000099N130319000000000000000500000000000000000000000000000000000000000000000203459287000100ALFA EVENTOS LTDA                       RUA MAJOR ANGELO ZANCHI, 269/275                    03633000                                                            000113
100000 000000000000 00090345100240370REGTIT26211903012843     0002020000005987928900000000002N           2  01190301284329031900000000138650000000099N130319000000000000000210000000000000000000000000000000000000000000000201250807000145JOAO BATISTA CAETANO CARDOSO            RUA AMAPA, 699                                      94935050                                                            000114
100000 000000000000 00090345100240370REGTIT26211903012920     0002020000005987929700000000002N           2  01190301292029031900000000144800000000099N130319000000000000000220000000000000000000000000000000000000000000000230018565000167A MAGNONI DA CRUZ LUSTRES               AV DUQUE DE CAXIAS, 3046                            86010190                                                            000115
100000 000000000000 00090345100240370REGTIT26211903012981     0002020000005987930000000000002N           2  01190301298129031900000000212700000000099N130319000000000000000320000000000000000000000000000000000000000000000203944132000160FLORICULTURA 4CENTÃO-CLAUDIA M.ALVES IFARUA JUVENAL DE CAMPOS 120 , 120                     18270330                                                            000116
100000 000000000000 00090345100240370REGTIT26211903013012     0002020000005987931900000000002N           2  01190301301229031900000000263600000000099N130319000000000000000400000000000000000000000000000000000000000000000292841667000135MODELAR ADMINISTRADORA DE IMÓVEIS LTDA  RUA VIGARIO JOSE INACIO 368 SALA 501, 7             90020110                                                            000117
100000 000000000000 00090345100240370REGTIT26211903013102     0002020000005987932700000000002N           2  01190301310229031900000000134900000000099N130319000000000000000200000000000000000000000000000000000000000000000204780323000104ALCEU SOAIGHER EPP                      AV. JULIO A. MACHADO 440 , 440                      86940000                                                            000118
100000 000000000000 00090345100240370REGTIT26211903013125     0002020000005987933500000000002N           2  01190301312529031900000000059800000000099N130319000000000000000090000000000000000000000000000000000000000000000100058863940959MICROLINK INFORMATICA LTDA              SEBASTIAO VICTOR DOS SANTOS , 3                     83310451                                                            000119
100000 000000000000 00090345100240370REGTIT26211903013248     0002020000005987934300000000002N           2  01190301324829031900000000551870000000099N130319000000000000000830000000000000000000000000000000000000000000000281348781000101CASSETARI & ADVOGADOS ASSOCIADOS S/S    RUA JERONIMO COELHO 383 3 ANDAR, 383                88010030                                                            000120
100000 000000000000 00090345100240370REGTIT26211903013383     0002020000005987935100000000002N           2  01190301338329031900000000188700000000099N130319000000000000000280000000000000000000000000000000000000000000000268781335000128MECANICA BIASUS LTDA                    R.PROGRESSO 889 , 12                                95200000                                                            000121
100000 000000000000 00090345100240370REGTIT26211903013393     0002020000005987936P00000000002N           2  01190301339329031900000000280210000000099N130319000000000000000420000000000000000000000000000000000000000000000209495156000165GOAL FOMENTO MERCANTIL LTDA             AV. DAS AMERICAS 7899  BL 2 SL 606, 606             22793081                                                            000122
100000 000000000000 00090345100240370REGTIT26211903013411     0002020000005987937800000000002N           2  01190301341129031900000000273000000000099N130319000000000000000410000000000000000000000000000000000000000000000202271913000178CENTRO SUPERIOR DE TECNOLOGIA TEC BRASILRUA:GUSTAVO RAMOS SEHBE, 107                        95012669                                                            000123
100000 000000000000 00090345100240370REGTIT26211903013437     0002020000005987938600000000002N           2  01190301343729031900000000139800000000099N130319000000000000000210000000000000000000000000000000000000000000000292755107000168ARMAZÉM PREDIAL IMOBILIÁRIA LTDA        RUA ANDRE PUENTE, 9                                 90035150                                                            000124
100000 000000000000 00090345100240370REGTIT26211903013453     0002020000005987939400000000002N           2  01190301345329031900000000157000000000099N130319000000000000000240000000000000000000000000000000000000000000000205036254000183ALEXANDRE JOSE ERPEN EPP                RUA MARECHAL DEODORO 664 PREDIO, 44                 86860000                                                            000125
100000 000000000000 00090345100240370REGTIT26211903013545     0002020000005987940800000000002N           2  01190301354529031900000000193400000000099N130319000000000000000290000000000000000000000000000000000000000000000100015901467787JOSE MAURICIO MEIRA DE SOUZA            RUA CAMPO GRANDE 1096 SL 309/310, 309               23050430                                                            000126
100000 000000000000 00090345100240370REGTIT26211903013590     0002020000005987941600000000002N           2  01190301359029031900000000247690000000099N130319000000000000000370000000000000000000000000000000000000000000000237160181000123ADVOCACIA E CONSULTORIA GILBERTO DANTAS SRTVS  701 - CONJ. L SALA 417 E. ASSIS C            70340906                                                            000127
100000 000000000000 00090345100240370REGTIT26211903013982     0002020000005987942400000000002N           2  01190301398229031900000000415100000000099N130319000000000000000620000000000000000000000000000000000000000000000208913853000126ESPAÇO COBRANÇA LTDA                    AVENIDA PRESTES MAIA 241 7 ANDAR-CONJ.70            01031001                                                            000128
100000 000000000000 00090345100240370REGTIT26211903014157     0002020000005987943200000000002N           2  01190301415729031900000000159800000000099N130319000000000000000240000000000000000000000000000000000000000000000204945157000140OTICA CIC LTDA ME                       R IRMA FLAVIA BORLET, 23                            81670464                                                            000129
100000 000000000000 00090345100240370REGTIT26211903014347     0002020000005987944000000000002N           2  01190301434729031900000000176850000000099N130319000000000000000270000000000000000000000000000000000000000000000201862976000136VIEIRA RODRIGUES EMPREITEIRA DE OBRAS LTRUA DA CHEGADA 40 LJ A, 40                          22790160                                                            000130
100000 000000000000 00090345100240370REGTIT26211903014467     0002020000005987945900000000002N           2  01190301446729031900000000311100000000099N130319000000000000000470000000000000000000000000000000000000000000000203547183000158SOUZA E GALVÃO LTDA                     RUA TRAIRI, 719                                     59020150                                                            000131
100000 000000000000 00090345100240370REGTIT26211903014634     0002020000005987946700000000002N           2  01190301463429031900000000193650000000099N130319000000000000000290000000000000000000000000000000000000000000000100040240002849CELSO DA SILVA RAMOS                    AVENIDA RUI BARBOSA , 304                           06311000                                                            000132
100000 000000000000 00090345100240370REGTIT26211903015252     0002020000005987947500000000002N           2  01190301525229031900000000219900000000099N130319000000000000000330000000000000000000000000000000000000000000000203995493000135LAWSOR COMERCIO, IMPORTADORA E EXPORTACÃRUA MESSIA PEREIRA DE PAULA, 128                    18046640                                                            000133
100000 000000000000 00090345100240370REGTIT26211903015552     0002020000005987948300000000002N           2  01190301555229031900000000159800000000099N130319000000000000000240000000000000000000000000000000000000000000000272460561000184IOLETE DA CONCEICAO BERTONCELLO ME      RUA EFIGENIO PEREIRA CRUZ , 1228                    83820000                                                            000134
100000 000000000000 00090345100240370REGTIT26211903015700     0002020000005987949100000000002N           2  01190301570029031900000000313160000000099N130319000000000000000470000000000000000000000000000000000000000000000203946578000123ANSELMO DESTRO EPP                      AVENIDA PATRICIO LIMA 658 SALA 01, 658              88704410                                                            000135
100000 000000000000 00090345100240370REGTIT26211903015999     0002020000005987950500000000002N           2  01190301599929031900000000164900000000099N130319000000000000000250000000000000000000000000000000000000000000000272365786000151MAURO AUGUSTO ACOSTA MARMONTEL          RUA WASHINGTON LUIZ 500 SALA 505, 2                 90010460                                                            000136
100000 000000000000 00090345100240370REGTIT26211903016024     0002020000005987951300000000002N           2  01190301602429031900000000292670000000099N130319000000000000000440000000000000000000000000000000000000000000000100001868372910LUIZ GUSTAVO VARDANIGA VIDAL PINTO      AVENIDA PRESIDENTE GETALIO VARGAS, 3470             80240041                                                            000137
100000 000000000000 00090345100240370REGTIT26211903016178     0002020000005987952100000000002N           2  01190301617829031900000000175470000000099N130319000000000000000260000000000000000000000000000000000000000000000100071040510825MANOEL JOSÉ GOMES                       RUA JARDIM TAMOIO 1359 B, 1359                      08255010                                                            000138
100000 000000000000 00090345100240370REGTIT26211903016238     0002020000005987953P00000000002N           2  01190301623829031900000000144800000000099N130319000000000000000220000000000000000000000000000000000000000000000208840468000104F. C. DA SILVA                          AV. JOSE OLAVO SAMPAIO, 60                          65760000                                                            000139
100000 000000000000 00090345100240370REGTIT26211903016324     0002020000005987954800000000002N           2  01190301632429031900000000004950000000099N130319000000000000000010000000000000000000000000000000000000000000000212516454000107DINA TERRA DOS SANTOS ME                RUA SAO BENTO, 32                                   18010030                                                            000140
100000 000000000000 00090345100240370REGTIT26211903016351     0002020000005987955600000000002N           2  01190301635129031900000000262670000000099N130319000000000000000390000000000000000000000000000000000000000000000200554171000162PAULISUL COMERCIO DE FRUTAS LTDA        RODOVIA BR-101 KM 205, Box 309                      88117901                                                            000141
100000 000000000000 00090345100240370REGTIT26211903016363     0002020000005987956400000000002N           2  01190301636329031900000000287510000000099N130319000000000000000430000000000000000000000000000000000000000000000100004048945939DR. JULIO CESAR DE CASTRO SINGER        AVENIDA JOAO BENTO, 1260                            87300030                                                            000142
100000 000000000000 00090345100240370REGTIT26211903016574     0002020000005987957200000000002N           2  01190301657429031900000000377600000000099N130319000000000000000570000000000000000000000000000000000000000000000202179712000145RONALDO FERNANDES EMBALAGENS EPP        RUA TIAGO DIAS LUCIO, 343                           88900000                                                            000143
100000 000000000000 00090345100240370REGTIT26211903016600     0002020000005987958000000000002N           2  01190301660029031900000000136800000000099N130319000000000000000210000000000000000000000000000000000000000000000282253618000128BEAUTRY CENTER CONFECCOES LTDA ME       RUA ALEIXO SCHLUGA , 796                            83413550                                                            000144
100000 000000000000 00090345100240370REGTIT26211903016782     0002020000005987959900000000002N           2  01190301678229031900000000394000000000099N130319000000000000000590000000000000000000000000000000000000000000000203271692000109ADINOX COMÉRCIO DE SUCATAS E TRANSPORTE RUA MANOEL DOS PASSOS FIGUEROA, 915                 93025350                                                            000145
100000 000000000000 00090345100240370REGTIT26211903016787     0002020000005987960200000000002N           2  01190301678729031900000000292680000000099N130319000000000000000440000000000000000000000000000000000000000000000201204262000130OSMAR NEVES DE OLIVEIRA                 RUA UM, S/N                                         75345000                                                            000146
100000 000000000000 00090345100240370REGTIT26211903016990     0002020000005987961000000000002N           2  01190301699029031900000000265170000000099N130319000000000000000400000000000000000000000000000000000000000000000100066099951768CARLOS VARGAS FARIAS                    AV. PRESIDENTE VARGAS, 502                          20071000                                                            000147
100000 000000000000 00090345100240370REGTIT26211903017195     0002020000005987962900000000002N           2  01190301719529031900000000243770000000099N130319000000000000000370000000000000000000000000000000000000000000000200993066000120ARLETE VIEIRA MACHADO MICHELS ME        RUA MANOEL PEREIRA 79 , 79                          88740000                                                            000148
100000 000000000000 00090345100240370REGTIT26211903017197     0002020000005987963700000000002N           2  01190301719729031900000000279870000000099N130319000000000000000420000000000000000000000000000000000000000000000208708139000104MEGA GIRO PROD. COM. SERVICOS E TRANSPORRUA PINHEIRO MACHADO, 719                           95200000                                                            000149
100000 000000000000 00090345100240370REGTIT26211903017212     0002020000005987964500000000002N           2  01190301721229031900000000244220000000099N130319000000000000000370000000000000000000000000000000000000000000000209560144000177RETIFICA DE MOTORES FEDERAL LTDA        AVENIDA ARNALDO PEREIRA DA SILVA  , 184             93115000                                                            000150
100000 000000000000 00090345100240370REGTIT26211903017363     0002020000005987965300000000002N           2  01190301736329031900000000217310000000099N130319000000000000000330000000000000000000000000000000000000000000000280935760000120TAPEÇARIA E VIDRAÇARIA TEMPERADOS CAPITARUA PAULINO PEDRO HERMES 599 , 599                  88110693                                                            000151
100000 000000000000 00090345100240370REGTIT26211903017421     0002020000005987966100000000002N           2  01190301742129031900000000253200000000099N130319000000000000000380000000000000000000000000000000000000000000000207858259000117CENTRO DE FORMACAO DE CONDUTORES ARAUJO RUA JALIA DA COSTA , 430                            83203060                                                            000152
100000 000000000000 00090345100240370REGTIT26211903017462     0002020000005987967P00000000002N           2  01190301746229031900000000079900000000099N130319000000000000000120000000000000000000000000000000000000000000000209474163000180JS MARQUES INFORMATICA LTDA             AVENIDA NOSSA SENHORA DOS REMEDIOS , 153            83704525                                                            000153
100000 000000000000 00090345100240370REGTIT26211903017712     0002020000005987968800000000002N           2  01190301771229031900000000605260000000099N130319000000000000000910000000000000000000000000000000000000000000000210811003000169R D IMOVEIS LTDA ME                     AV PH ROLFS 270 , 270                               36570000                                                            000154
100000 000000000000 00090345100240370REGTIT26211903017776     0002020000005987969600000000002N           2  01190301777629031900000000197840000000099N130319000000000000000300000000000000000000000000000000000000000000000210377164000196SORVETEIRAS EQUIPAMENTOS INDUSTRIAIS LTDAVENIDA JUSCELINO KUBITSCHEK, 4377                  85865000                                                            000155
100000 000000000000 00090345100240370REGTIT26211903018235     0002020000005987971800000000002N           2  01190301823529031900000000241680000000099N130319000000000000000360000000000000000000000000000000000000000000000228484244000106MG PARTICIPACAO E EMPREENDIMENTOS LTDA  AVENIDA HENRIQUE MOSCOSO , 1705                     29100021                                                            000156
100000 000000000000 00090345100240370REGTIT26211903018469     0002020000005987972600000000002N           2  01190301846929031900000000245680000000099N130319000000000000000370000000000000000000000000000000000000000000000211727955000161J B S VEÍCULOS LTDA                     AVENIDA CAXANGA , 2834                              50731000                                                            000157
100000 000000000000 00090345100240370REGTIT26211903018721     0002020000005987973400000000002N           2  01190301872129031900000000385690000000099N130319000000000000000580000000000000000000000000000000000000000000000294262391000166AR CENTER CAR                           RUA DIANA TERRA, 360                                92020530                                                            000158
100000 000000000000 00090345100240370REGTIT26211903018905     0002020000005987974200000000002N           2  01190301890529031900000000341850000000099N130319000000000000000510000000000000000000000000000000000000000000000249114937000187PAULO SANTOS MILANES-ME                 RUA ANTONIO SANZOVO 523 , 0                         17204566                                                            000159
100000 000000000000 00090345100240370REGTIT26211903018920     0002020000005987975000000000002N           2  01190301892029031900000000408550000000099N130319000000000000000610000000000000000000000000000000000000000000000282376286000179M MANFRON & CIA LTDA ME                 PEDRO BREDA, 337                                    82015050                                                            000160
100000 000000000000 00090345100240370REGTIT26211903018923     0002020000005987976900000000002N           2  01190301892329031900000000411190000000099N130319000000000000000620000000000000000000000000000000000000000000000209642962000119USIFILTROS INDUSTRIA E COMERCIO LTDA ME AVENIDA BRASILIA , 1692/1700                        86070020                                                            000161
100000 000000000000 00090345100240370REGTIT26211903018971     0002020000005987977700000000002N           2  01190301897129031900000000300020000000099N130319000000000000000450000000000000000000000000000000000000000000000100002893491766RAFAELA RAMOS                           RUA SAO CLEMENTE 95 206, 00                         22260001                                                            000162
100000 000000000000 00090345100240370REGTIT26211903019076     0002020000005987978500000000002N           2  01190301907629031900000000294830000000099N130319000000000000000440000000000000000000000000000000000000000000000281349953000161RECAUCHUTADORA VOLNEI LTDA              RODOVIA BR-101 KM 200, 5350                         88115100                                                            000163
100000 000000000000 00090345100240370REGTIT26211903019171     0002020000005987979300000000002N           2  01190301917129031900000000217570000000099N130319000000000000000330000000000000000000000000000000000000000000000100004159225772MARCIO MOREIRA BANDEIRA DE MELO         RUA SETE DE SETEMBROSL 503, 98                      20050002                                                            000164
100000 000000000000 00090345100240370REGTIT26211903019315     0002020000005987980700000000002N           2  01190301931529031900000000644650000000099N130319000000000000000970000000000000000000000000000000000000000000000207396163000184MARCIO SEITARO NAKASATO                 AVENIDA MARIA SERVIDEI DEMARCHI , 1202              09820000                                                            000165
100000 000000000000 00090345100240370REGTIT26211903019351     0002020000005987981500000000002N           2  01190301935129031900000000269600000000099N130319000000000000000400000000000000000000000000000000000000000000000250187756000160SEAAC DE SANTO ANDRÉ E REGIÃO           AVENIDA JOAO RAMALHO , 52                           09030320                                                            000166
100000 000000000000 00090345100240370REGTIT26211903019818     0002020000005987982300000000002N           2  01190301981829031900000000252200000000099N130319000000000000000380000000000000000000000000000000000000000000000203165895000102PEREIRA E VIANNA ADVOCACIA E CONSULTORIA AV. VEREADOR TOALDO TULIO, 232                     82320010                                                            000167
100000 000000000000 00090345100240370REGTIT26211903020486     0002020000005987983100000000002N           2  01190302048629031900000000247930000000099N130319000000000000000370000000000000000000000000000000000000000000000288103148000100ASICLER-CORRETORA E ADMINISTRADORA DE IMRUA JOAQUIM NABUCO 1118 , 1118                      93310002                                                            000168
100000 000000000000 00090345100240370REGTIT26211903020872     0002020000005987984P00000000002N           2  01190302087229031900000000258600000000099N130319000000000000000390000000000000000000000000000000000000000000000285057370000118AGP VERO SERVIÇOS DE POSTAGEM LTDA      AV PRESIDENTE GETULIO VARGAS , 3309                 80242981                                                            000169
100000 000000000000 00090345100240370REGTIT26211903020924     0002020000005987985800000000002N           2  01190302092429031900000000245680000000099N130319000000000000000370000000000000000000000000000000000000000000000100094143447800WINDSOR VIEIRA DA SILVA                 PRACA DA REPUBLICA , 146                            01045000                                                            000170
100000 000000000000 00090345100240370REGTIT26211903020969     0002020000005987986600000000002N           2  01190302096929031900000000241680000000099N130319000000000000000360000000000000000000000000000000000000000000000215810203000110J. ARNOBIO MAGALHÃES                    AV FLORIANO PEIXOTO, 13                             69005070                                                            000171
100000 000000000000 00090345100240370REGTIT26211903021016     0002020000005987987400000000002N           2  01190302101629031900000000396000000000099N130319000000000000000590000000000000000000000000000000000000000000000204902630000102MAX REINHEIMER CARDOSO                  AVENIDA BERNARDINO SILVEIRA AMORIM, 1.49            91160310                                                            000172
100000 000000000000 00090345100240370REGTIT26211903021206     0002020000005987988200000000002N           2  01190302120629031900000000628250000000099N130319000000000000000940000000000000000000000000000000000000000000000294114196000199BASSO VEICULOS                          RST 470  KM 222 - CAIXA POSTAL 103, 103             95720000                                                            000173
100000 000000000000 00090345100240370REGTIT26211903021282     0002020000005987989000000000002N           2  01190302128229031900000000310340000000099N130319000000000000000470000000000000000000000000000000000000000000000224788325000149KALISTO MOVEIS LTDA                     QUADRA 65, SN                                       72900310                                                            000174
100000 000000000000 00090345100240370REGTIT26211903021558     0002020000005987990400000000002N           2  01190302155829031900000000099800000000099N130319000000000000000150000000000000000000000000000000000000000000000206098777000117MARA SUELI DELABONA                     RUA PEDRO GUSSO , 3694                              81315000                                                            000175
100000 000000000000 00090345100240370REGTIT26211903021604     0002020000005987991200000000002N           2  01190302160429031900000000326850000000099N130319000000000000000490000000000000000000000000000000000000000000000266943960000101ANTONIO PEREIRA NETO VIDRAÇARIA LTDA    AVENIDA PROFESSOR OSCAR CAMPIGLIA 133 ,             05762230                                                            000176
100000 000000000000 00090345100240370REGTIT26211903021606     0002020000005987992000000000002N           2  01190302160629031900000000226000000000099N130319000000000000000340000000000000000000000000000000000000000000000210466213000167KAUN MOVEIS E ELETROS LTDA - ME         RUA ENGENHEIRO EDUARDO A. NADOLNY, 863              81460310                                                            000177
100000 000000000000 00090345100240370REGTIT26211903021610     0002020000005987993900000000002N           2  01190302161029031900000000254600000000099N130319000000000000000380000000000000000000000000000000000000000000000204887604000152VENZO BORRACHARIA E CONSERTO DE PENEUS LRUA QUINZE DE OUTUBRO 527 , 527                     89239700                                                            000178
100000 000000000000 00090345100240370REGTIT26211903021717     0002020000005987994700000000002N           2  01190302171729031900000000240000000000099N130319000000000000000360000000000000000000000000000000000000000000000219171535000153TJ MATERIAIS DE CONSTRUÇÃO LTDA - ME    RUA MAXIMILIANO BOSCARDIN , 219                     81330500                                                            000179
100000 000000000000 00090345100240370REGTIT26211903021779     0002020000005987995500000000002N           2  01190302177929031900000000164550000000099N130319000000000000000250000000000000000000000000000000000000000000000281197238000150PIRAZOLO PIRACOL LTDA                   RUA SAO JOSE DOS PINHAIS, 1312                      81920250                                                            000180
100000 000000000000 00090345100240370REGTIT26211903021857     0002020000005987996300000000002N           2  01190302185729031900000000338500000000099N130319000000000000000510000000000000000000000000000000000000000000000227253384000100J C ASSAD                               AV PINHEIRO JUNIOR , 50                             29307201                                                            000181
100000 000000000000 00090345100240370REGTIT26211903021928     0002020000005987997100000000002N           2  01190302192829031900000000265760000000099N130319000000000000000400000000000000000000000000000000000000000000000281868390000118MADEIREIRA INDUMADER LTDA EPP           AV. CARLOS SCHROEDER, 1500                          89130000                                                            000182
100000 000000000000 00090345100240370REGTIT26211903021973     0002020000005987998P00000000002N           2  01190302197329031900000000266350000000099N130319000000000000000400000000000000000000000000000000000000000000000252996956000199PIZZARIA E PASTELARIA MONTE CASTELO LTDARUA EUCLIDES DA CUNHA , 142                         09400220                                                            000183
100000 000000000000 00090345100240370REGTIT26211903022178     0002020000005987999800000000002N           2  01190302217829031900000000291970000000099N130319000000000000000440000000000000000000000000000000000000000000000276969427000164TANIGUCHI MATERIAIS PARA CONSTRUÇÃO LTDARUA MINAS GERAIS , 1290                             86690000                                                            000184
100000 000000000000 00090345100240370REGTIT26211903022466     0002020000005988000700000000002N           2  01190302246629031900000000256390000000099N130319000000000000000380000000000000000000000000000000000000000000000207785345000147STRADA VEICULOS LTDA                    RUA VEREADOR ADEODATO VOLPI, 88                     81110050                                                            000185
100000 000000000000 00090345100240370REGTIT26211903022568     0002020000005988001500000000002N           2  01190302256829031900000000278230000000099N130319000000000000000420000000000000000000000000000000000000000000000200022964000130AUTO POSTO DA PEDRA DE TORINHA LTDA     ESTRADA MUNICIPAL  SEM NUMERO , 54                  17360000                                                            000186
100000 000000000000 00090345100240370REGTIT26211903022594     0002020000005988002300000000002N           2  01190302259429031900000000154800000000099N130319000000000000000230000000000000000000000000000000000000000000000208325429000160PAOLA PRESENTES LTDA                    RUA ANTONIO AUGUSTO DE BRITO, 78                    81930605                                                            000187
100000 000000000000 00090345100240370REGTIT26211903022629     0002020000005988003100000000002N           2  01190302262929031900000000259430000000099N130319000000000000000390000000000000000000000000000000000000000000000269115525000179IMOBILIARIA HIGIENÓPOLIS SA LDTA        AVENIDA GILDA , 329                                 09190510                                                            000188
100000 000000000000 00090345100240370REGTIT26211903022926     0002020000005988004P00000000002N           2  01190302292629031900000000196600000000099N130319000000000000000290000000000000000000000000000000000000000000000202103266000195TRANSEXCEL SEGURANCA E TRANSPORTE DE VALRUA EMILIO MOREIRA, 638                             69020040                                                            000189
100000 000000000000 00090345100240370REGTIT26211903022956     0002020000005988005800000000002N           2  01190302295629031900000000241680000000099N130319000000000000000360000000000000000000000000000000000000000000000207830840000120VIP CAR VEÍCULOS LTDA                   RUA LUCIA MILIOLI, 75                               88802020                                                            000190
100000 000000000000 00090345100240370REGTIT26211903023096     0002020000005988006600000000002N           2  01190302309629031900000000241920000000099N130319000000000000000360000000000000000000000000000000000000000000000206866893000139WEBCONTROL EMPRESAS - CPD               AVENIDA CANDIDO DE ABREU, 70                        80530000                                                            000191
100000 000000000000 00090345100240370REGTIT26211903023153     0002020000005988007400000000002N           2  01190302315329031900000002517830000000099N130319000000000000003780000000000000000000000000000000000000000000000210302742000125AGV CENTRO AUTOMOTIVO                   AVENIDA CARLOS LACERDA , 375                        05789000                                                            000192
100000 000000000000 00090345100240370REGTIT26211903023303     0002020000005988008200000000002N           2  01190302330329031900000000288580000000099N130319000000000000000430000000000000000000000000000000000000000000000208889167000167DIREÇÃO SUL  COM. DE EMBALAGENS LTDA    RUA JOSE ZGODA, 428                                 82820440                                                            000193
100000 000000000000 00090345100240370REGTIT26211903023436     0002020000005988009000000000002N           2  01190302343629031900000000251500000000099N130319000000000000000380000000000000000000000000000000000000000000000205690683000170ARTEFILTRO ARTEFATOS DE CIMENTO LTDA EPPRUA MINAS GERAIS 5146 , 5146                        89215000                                                            000194
100000 000000000000 00090345100240370REGTIT26211903023517     0002020000005988010400000000002N           2  01190302351729031900000000206850000000099N130319000000000000000310000000000000000000000000000000000000000000000201650515000442MARITNELLI ADVOCACIA EMPRESARIAL        AVENIDA LUIZ TEIXEIRA MENDES 2386, 2386             87015001                                                            000195
100000 000000000000 00090345100240370REGTIT26211903023580     0002020000005988011200000000002N           2  01190302358029031900000000241980000000099N130319000000000000000360000000000000000000000000000000000000000000000279852406000403PIRAMIDE VEICULOS LTDA                  AVENIDA  CAPITAO INDIO BANDEIRA, 2499               87300005                                                            000196
100000 000000000000 00090345100240370REGTIT26211903023784     0002020000005988012000000000002N           2  01190302378429031900000000186330000000099N130319000000000000000280000000000000000000000000000000000000000000000100099807165091RICARDO ZILIO  POTRICH                  AVENIDA BENTO GONCALVES    713, 713                 90650002                                                            000197
100000 000000000000 00090345100240370REGTIT26211903023886     0002020000005988013900000000002N           2  01190302388629031900000000313080000000099N130319000000000000000470000000000000000000000000000000000000000000000205222627000100RONDOBAT DISTRIBUIDORA DE BATERIAS LTDA AVENIDA CASTELO BRANCO, 20466                       76962068                                                            000198
100000 000000000000 00090345100240370REGTIT26211903023956     0002020000005988014700000000002N           2  01190302395629031900000000261270000000099N130319000000000000000390000000000000000000000000000000000000000000000210991615000180ATOS FACTORING E CONSULTORIA LTDA       RUA LAURA ALVES SILVEIRA, 253                       89223393                                                            000199
100000 000000000000 00090345100240370REGTIT26211903024284     0002020000005988015500000000002N           2  01190302428429031900000000099800000000099N130319000000000000000150000000000000000000000000000000000000000000000206169076000121GILBERTO RODRIGUES DE MOURA VIDRACARIA  ESTRADA VELHA DO BARIGUI, 285                       81250460                                                            000200
100000 000000000000 00090345100240370REGTIT26211903024326     0002020000005988016300000000002N           2  01190302432629031900000000144800000000099N130319000000000000000220000000000000000000000000000000000000000000000201304303000160ESQUINAO DAS BATERIAS LTDA              AV SENADOR SALGADO FILHO, 5008                      81570160                                                            000201
100000 000000000000 00090345100240370REGTIT26211903024356     0002020000005988017100000000002N           2  01190302435629031900000000229800000000099N130319000000000000000340000000000000000000000000000000000000000000000293394179000190KAR MULTIMARCAS LTDA  ME                AVENIDA PRESIDENTE VARGAS , 642                     93260004                                                            000202
100000 000000000000 00090345100240370REGTIT26211903024523     0002020000005988018P00000000002N           2  01190302452329031900000000280790000000099N130319000000000000000420000000000000000000000000000000000000000000000210967919000102KIODAI SUPERMERCADOS - LTDA             AV. EVARISTO DELFINO PINTO, 315                     06890000                                                            000203
100000 000000000000 00090345100240370REGTIT26211903024530     0002020000005988019800000000002N           2  01190302453029031900000000254780000000099N130319000000000000000380000000000000000000000000000000000000000000000201617701000137KIODAI SOLUÇÕES INTELIGENTES-LTDA       R. ROBERTO FADLO DAHER, 251                         06890000                                                            000204
100000 000000000000 00090345100240370REGTIT26211903024560     0002020000005988020100000000002N           2  01190302456029031900000000262670000000099N130319000000000000000390000000000000000000000000000000000000000000000201610862000107IMOBILIARIA CAPOPIANCO SC LTDA          RUA SETE DE SETEMBRO , 380                          17201480                                                            000205
100000 000000000000 00090345100240370REGTIT26211903024601     0002020000005988021P00000000002N           2  01190302460129031900000000244190000000099N130319000000000000000370000000000000000000000000000000000000000000000204815776000110M.K.J CMERCIO DE VEICULOS LTDA          AVENIDA JUSCELINO KUBITSCHEK , 1587                 86020000                                                            000206
100000 000000000000 00090345100240370REGTIT26211903024619     0002020000005988022800000000002N           2  01190302461929031900000000292210000000099N130319000000000000000440000000000000000000000000000000000000000000000208611635000137SOARES IMOVEIS LTDA ME                  QNG AREA ESPECIAL P/ CINEMA  SALA 130/22            72139900                                                            000207
100000 000000000000 00090345100240370REGTIT26211903024625     0002020000005988023600000000002N           2  01190302462529031900000000241980000000099N130319000000000000000360000000000000000000000000000000000000000000000277882587000134COMERCIAL OESTE SA                      RUA AZEVEDO PORTUGAL, 777                           85010200                                                            000208
100000 000000000000 00090345100240370REGTIT26211903024627     0002020000005988024400000000002N           2  01190302462729031900000000231170000000099N130319000000000000000350000000000000000000000000000000000000000000000276061902000795SLAVIERO DE CASCAVEL LTDA               AVENIDA PARIGOT DE SOUZA, 1215                      85906070                                                            000209
100000 000000000000 00090345100240370REGTIT26211903024878     0002020000005988025200000000002N           2  01190302487829031900000000119980000000099N130319000000000000000180000000000000000000000000000000000000000000000207279270000122DORACI PEREIRA LOPES ME VIDRACARIA BRASIAV JOSE HEITOR DE ALMEIDA CAMARGO 1035 ,            79750000                                                            000210
100000 000000000000 00090345100240370REGTIT26211903024916     0002020000005988026000000000002N           2  01190302491629031900000000416290000000099N1303190000000000000006200000000000000000000000000000000000000000000002086767480001102001 VEÍCULOS LTDA                      RUA BARAO DO RIO BRANCO, 779                        98005030                                                            000211
100000 000000000000 00090345100240370REGTIT26211903024940     0002020000005988027900000000002N           2  01190302494029031900000000204900000000099N130319000000000000000310000000000000000000000000000000000000000000000211369875000181GISELE SUETUGO DA SILVA ME              RUA ADILIO RAMOS , 1766                             82820100                                                            000212
100000 000000000000 00090345100240370REGTIT26211903025082     0002020000005988028700000000002N           2  01190302508229031900000000194400000000099N130319000000000000000290000000000000000000000000000000000000000000000202616912000118VOUS JÓIAS LTDA ME                      RUA GEDEONE MIGLIAVACCA, 1381                       99200000                                                            000213
100000 000000000000 00090345100240370REGTIT26211903025227     0002020000005988029500000000002N           2  01190302522729031900000000135000000000099N130319000000000000000200000000000000000000000000000000000000000000000290801754000133SINDICATO DOS SAPATEIROS DE SAPIRANGA E RUA ASSIS BRASIL , 205                              93800000                                                            000214
100000 000000000000 00090345100240370REGTIT26211903025298     0002020000005988030900000000002N           2  01190302529829031900000000155300000000099N130319000000000000000230000000000000000000000000000000000000000000000201948309000170ROSINEIDE PEREIRA PEGO GOMES            RUA JURI DANIKENKO , 2487                           83311090                                                            000215
100000 000000000000 00090345100240370REGTIT26211903025366     0002020000005988031700000000002N           2  01190302536629031900000000324440000000099N130319000000000000000490000000000000000000000000000000000000000000000208228839000193VIA MAPP IND E COMERCIO DE CONFECÇÕES LTAVENIDA PEDRO TAQUES 3257 LOJA, 3257                87035000                                                            000216
100000 000000000000 00090345100240370REGTIT26211903025569     0002020000005988032500000000002N           2  01190302556929031900000000296600000000099N130319000000000000000440000000000000000000000000000000000000000000000201672087000106JC INDUSTRIA E COMERCIO DE CONFECÇOES LTRUA PEDRO CASTELLAIN, 199                           89110000                                                            000217
100000 000000000000 00090345100240370REGTIT26211903025729     0002020000005988033300000000002N           2  01190302572929031900000000037000000000099N130319000000000000000060000000000000000000000000000000000000000000000214831483000180R LOPES CONTABILIDADE ME                ISAAC FERREIRA DA CRUZ , 2788                       81900000                                                            000218
100000 000000000000 00090345100240370REGTIT26211903025938     0002020000005988034100000000002N           2  01190302593829031900000000267800000000099N130319000000000000000400000000000000000000000000000000000000000000000268357524000178OTICA ANGELA LTDA ME                    ESTRADA DO M BOI MIRIM, 4330                        04948030                                                            000219
100000 000000000000 00090345100240370REGTIT26211903025980     0002020000005988035P00000000002N           2  01190302598029031900000001109310000000099N130319000000000000001660000000000000000000000000000000000000000000000209359755000151RONDAO & ALMEIDA COMERCIO DE VEICULOS LTAV DORIVAL CANDIDO LUIZ DE OLIVEIRA, 558            94070001                                                            000220
100000 000000000000 00090345100240370REGTIT26211903026159     0002020000005988036800000000002N           2  01190302615929031900000000197400000000099N130319000000000000000300000000000000000000000000000000000000000000000210662786000166COMER. DE EQUIPAM. P/ PANIFICAÇÃO C.A.J.RUA SALVADOR GIANETTI , 192                         08410000                                                            000221
100000 000000000000 00090345100240370REGTIT26211903026169     0002020000005988037600000000002N           2  01190302616929031900000000134800000000099N130319000000000000000200000000000000000000000000000000000000000000000210973645000164TUANY LEUTHAUSER ME                     LISBOA QUADRA 21 LOTE 03, SN                        88107350                                                            000222
100000 000000000000 00090345100240370REGTIT26211903026181     0002020000005988038400000000002N           2  01190302618129031900000000298650000000099N130319000000000000000450000000000000000000000000000000000000000000000206301551000171D DE S MACEDO ASSESSORIA IMOBILIARIA - MRUA VILA AMAZONAS, 488                              69057240                                                            000223
100000 000000000000 00090345100240370REGTIT26211903026400     0002020000005988039200000000002N           2  01190302640029031900000000159900000000099N130319000000000000000240000000000000000000000000000000000000000000000201722562000101LARGACAR AUTOMÓVEIS LTDA ME             RUA PIAUI , 504                                     25070110                                                            000224
100000 000000000000 00090345100240370REGTIT26211903026472     0002020000005988040600000000002N           2  01190302647229031900000000183580000000099N130319000000000000000280000000000000000000000000000000000000000000000211942427000125MARIBUR COMERCIO DE VESTUARIO E ACESSORIRUA HERECE FERNANDES, 810                           81450710                                                            000225
100000 000000000000 00090345100240370REGTIT26211903026544     0002020000005988041400000000002N           2  01190302654429031900000000099800000000099N130319000000000000000150000000000000000000000000000000000000000000000204588584000119TALISMA PRE MOLDADOS LTDA               ROD JOAO LEOPOLGO JACOMEL, 290                      83302000                                                            000226
100000 000000000000 00090345100240370REGTIT26211903026565     0002020000005988042200000000002N           2  01190302656529031900000000266450000000099N130319000000000000000400000000000000000000000000000000000000000000000202334777000118FUNERARIA RONDONOPOLIS LTDA ME          RUA ARNALDO ESTEVAO DE FIGUEIREDO 2447 ,            78710070                                                            000227
100000 000000000000 00090345100240370REGTIT26211903026657     0002020000005988043000000000002N           2  01190302665729031900000000254430000000099N130319000000000000000380000000000000000000000000000000000000000000000205528902000119PALANGANA & CIA LTDA                    AV RUI BARBOSA, 964                                 87780000                                                            000228
100000 000000000000 00090345100240370REGTIT26211903026691     0002020000005988044900000000002N           2  01190302669129031900000000243450000000099N130319000000000000000370000000000000000000000000000000000000000000000267668152000138ORGANIZACAO MIAMI ADMINISTRADORA LTDA   AV PROF OSVALDO DE OLIVEIRA, 44                     08420280                                                            000229
100000 000000000000 00090345100240370REGTIT26211903026801     0002020000005988045700000000002N           2  01190302680129031900000000243450000000099N130319000000000000000370000000000000000000000000000000000000000000000200250353000140LIDERANCA MADEIRAS E MATERIAIS DE CONSTRRUA DOS CACADORES, 2465                             89040002                                                            000230
100000 000000000000 00090345100240370REGTIT26211903026819     0002020000005988046500000000002N           2  01190302681929031900000000299110000000099N130319000000000000000450000000000000000000000000000000000000000000000209016115000149M.C.T. INTERNET LTDA                    PINTASSILGO, 43                                     89220060                                                            000231
100000 000000000000 00090345100240370REGTIT26211903026864     0002020000005988047300000000002N           2  01190302686429031900000000157690000000099N130319000000000000000240000000000000000000000000000000000000000000000218350433000132PREV ORAL ODONTOLOGIA LTDA              QNM 18 CJ B LOTE 2, SN                              72210182                                                            000232
100000 000000000000 00090345100240370REGTIT26211903026874     0002020000005988048100000000002N           2  01190302687429031900000000224250000000099N130319000000000000000340000000000000000000000000000000000000000000000203879359000179VALMIR FIDELIS CARROS E MOTOS ME        RUA PARAJU, 1376                                    29360000                                                            000233
100000 000000000000 00090345100240370REGTIT26211903027180     0002020000005988049P00000000002N           2  01190302718029031900000000225540000000099N130319000000000000000340000000000000000000000000000000000000000000000204450911000171HANEL & BASQUERA LTDA EPP               AV MAL FLORIANO  1808 , 1808                        79900000                                                            000234
100000 000000000000 00090345100240370REGTIT26211903027330     0002020000005988050300000000002N           2  01190302733029031900000000067100000000099N130319000000000000000100000000000000000000000000000000000000000000000211908631000120REDE CRED AUTO - SERVICOS LTDA          RUA SANTA CATARINA, 40, SALA 209                    09520120                                                            000235
100000 000000000000 00090345100240370REGTIT26211903027499     0002020000005988051100000000002N           2  01190302749929031900000000183900000000099N130319000000000000000280000000000000000000000000000000000000000000000211251664000140BASE SKATE SHOP - ARTIGOS ESPORTIVOS LTDAV MARANHAO, 62                                     87200000                                                            000236
100000 000000000000 00090345100240370REGTIT26211903027582     0002020000005988052P00000000002N           2  01190302758229031900000000345210000000099N130319000000000000000520000000000000000000000000000000000000000000000203954470000182TUKIN FOLHEADOS LTDA - ME               RUA COMENDADOR AFONSO KHERLAKIAN 160 5AN            01023040                                                            000237
100000 000000000000 00090345100240370REGTIT26211903027672     0002020000005988053800000000002N           2  01190302767229031900000000059900000000099N130319000000000000000090000000000000000000000000000000000000000000000209245737000149G & B  COMÉRCIO DE PRESENTES LTDA ME    RUA ROQUE SCROK, 331                                83407320                                                            000238
100000 000000000000 00090345100240370REGTIT26211903027703     0002020000005988054600000000002N           2  01190302770329031900000000162590000000099N130319000000000000000240000000000000000000000000000000000000000000000292171073000164J DEROTIL DE OLIVEIRA EPP               RUA FLORIANOPOLIS, 1960                             92330500                                                            000239
100000 000000000000 00090345100240370REGTIT26211903027773     0002020000005988055400000000002N           2  01190302777329031900000000119800000000099N130319000000000000000180000000000000000000000000000000000000000000000209154475000107IVANILTON ROSA                          AVENIDA IRAI 1392 LOJA, 1392                        83321000                                                            000240
100000 000000000000 00090345100240370REGTIT26211903027869     0002020000005988056200000000002N           2  01190302786929031900000000237950000000099N130319000000000000000360000000000000000000000000000000000000000000000224667511000120KONTINENTAL ASSESSORIA EMPRESARIAL LTDA RUA SENADOR PONCE 686 , 686                         79004570                                                            000241
100000 000000000000 00090345100240370REGTIT26211903027983     0002020000005988057000000000002N           2  01190302798329031900000000214900000000099N130319000000000000000320000000000000000000000000000000000000000000000278200375000192MECANICA DIESEL TRIANGULO S/C LTDA      AVENIDA PREFEITO SINCLER SAMBATTI, 10478            87055405                                                            000242
100000 000000000000 00090345100240370REGTIT26211903027986     0002020000005988058900000000002N           2  01190302798629031900000000197100000000099N130319000000000000000300000000000000000000000000000000000000000000000201381010000187JOSE LUIZ FERNANDES CORREIA ME          RODOVIA BR-101 SUL GP 6.3 AREAS 01 A 04,            50790900                                                            000243
100000 000000000000 00090345100240370REGTIT26211903028103     0002020000005988059700000000002N           2  01190302810329031900000000253120000000099N130319000000000000000380000000000000000000000000000000000000000000000279516670000115MARMORARIA REAL LTDA-ME                 AV CEL JOSE SEVERIANO MAIA, 1500                    89300000                                                            000244
100000 000000000000 00090345100240370REGTIT26211903028167     0002020000005988060000000000002N           2  01190302816729031900000000280750000000099N130319000000000000000420000000000000000000000000000000000000000000000204447347000138101 PEÇAS DE VEICULOS LTDA              RODOVIA BR-101 3045 KM 114,6, 3045                  88311600                                                            000245
100000 000000000000 00090345100240370REGTIT26211903028213     0002020000005988061900000000002N           2  01190302821329031900000000350740000000099N130319000000000000000530000000000000000000000000000000000000000000000211159554000152JOSE CARLOS FERNANDES DE OLIVEIRA CONSTRRUA JOEL DE SOUZA, 31                               07500000                                                            000246
100000 000000000000 00090345100240370REGTIT26211903028281     0002020000005988062700000000002N           2  01190302828129031900000000282550000000099N130319000000000000000420000000000000000000000000000000000000000000000280394356000196RIBEIRA REPARADORA DE BOMBAS DISEL LTDA AVENIDA ESPIRITO SANTO , 533                        83408410                                                            000247
100000 000000000000 00090345100240370REGTIT26211903028420     0002020000005988063500000000002N           2  01190302842029031900000000271900000000099N130319000000000000000410000000000000000000000000000000000000000000000201841935000163FELTRACO & FELTRACO LTDA                RUA: EUGENIO MARKS, 40                              98900000                                                            000248
